:020000040800F2
:10000000A04601200D0300084D1E0008D917000866
:100010002D1E0008410D0008A9290008000000005D
:100020000000000000000000000000005502000871
:100030002516000800000000A9020008D9210008C8
:1000400027030008270300082703000827030008E8
:100050002703000827030008270300089916000853
:1000600027030008270300082703000827030008C8
:1000700027030008270300082703000827030008B8
:1000800027030008270300082703000827030008A8
:10009000610D000827030008250E0008270300084B
:1000A0002703000827030008270300082703000888
:1000B000512200082703000827030008270300082F
:1000C0002703000827030008270300082703000868
:1000D0002703000815270008270300082703000846
:1000E0002703000827030008270300082703000848
:1000F0002703000827030008270300082703000838
:100100002703000827030008270300082703000827
:100110002703000827030008270300082703000817
:100120002703000827030008270300082703000807
:1001300027030008270300082703000827030008F7
:10014000510E0008270300082703000827030008B2
:100150002703000827030008270300086D2700086D
:1001600027030008270300082703000827030008C7
:1001700027030008270300082703000800000000E9
:1001800027030008270300082703000827030008A7
:100190002703000827030008270300082703000897
:1001A00000000000000000002703000800F002F833
:1001B00000F041F80AA090E8000C82448344AAF1C0
:1001C0000107DA4501D100F036F8AFF2090EBAE8BE
:1001D0000F0013F0010F18BFFB1A43F0010318477B
:1001E000F862000018630000103A24BF78C878C194
:1001F000FAD8520724BF30C830C144BF04680C602D
:10020000704700000023002400250026103A28BF74
:1002100078C1FBD8520728BF30C148BF0B60704778
:10022000642900F0D380002070471FB506F08CF8D9
:100230001FBD10B510BD00F06BFA1146FFF7F5FFBA
:1002400003F0ECFA00F089FA03B4FFF7F2FF03BC05
:1002500000F08CFA2A4B19680868B0E8F04F80F378
:100260000988BFF36F8F4FF0000080F3118870474B
:100270000000000006480068006880F3088862B645
:1002800061B6BFF34F8FBFF36F8F00DF00BF00BFBA
:1002900008ED00E0DFF80C00016841F47001016036
:1002A000704700BF88ED00E0EFF30980BFF36F8F68
:1002B000134B1A681EF0100F08BF20ED108A20E9BA
:1002C000F04F106008B44FF0500080F31188BFF376
:1002D0004F8FBFF36F8F04F007FC4FF0000080F3E7
:1002E000118808BC19680868B0E8F04F1EF0100FBC
:1002F00008BFB0EC108A80F30988BFF36F8F704796
:1003000010000020EFF30580704700000948804787
:1003100009480047FEE7FEE7FEE7FEE7FEE7FEE7E7
:10032000FEE7FEE7FEE7FEE704480549054A064BFF
:1003300070470000E9210008AD010008A03201204B
:10034000A0460120A0420120A04201200FB4044990
:1003500010B503AA029800F041F910BC5DF814FB37
:10036000D40000202DE9F0410E4604460020206212
:100370002046E168884730B3252805D0D4E901211B
:100380009047206A401CF2E7E16820460027884732
:10039000050018D0A5F14100192802D820354FF4E6
:1003A00000673246294620462760FFF739FF40B1F3
:1003B000012804D0F61D26F007060836D8E7361DBA
:1003C000D6E72846DAE7206ABDE8F0812DE9F0415A
:1003D0000646002410687529314616A510D0AFF3E3
:1003E0000080002802DA404213A507E031688A073E
:1003F00001D512A502E0490704D511A5012401E0A9
:10040000AFF3008000210A2206F1240709E0B0FBC7
:10041000F2FCB0FBF2F302FB1C00303078541846BB
:10042000491C0028F3D123462A463046BDE8F04156
:1004300000F063B8000000002D0000002B00000059
:1004400020000000032A40F2308010F0030C00F07E
:10045000158011F8013BBCF1020F624498BF11F8FE
:1004600001CB00F8013B38BF11F8013BA2F10402B7
:1004700098BF00F801CB38BF00F8013B11F003032F
:1004800000F0BE80083AC0F0088051F8043B083AFA
:1004900051F804CBA0E80810F5E7121D5CBF51F835
:1004A000043B40F8043BAFF30080D20724BF11F8AF
:1004B000013B11F801CB48BF11F8012B24BF00F814
:1004C000013B00F801CB48BF00F8012B704702F058
:1004D000FF0343EA032242EA024200F0C5B8704734
:1004E0007047704710B500F0DFF8006810BD10B518
:1004F000044600F0D9F8046010BD2DE9F0470D4620
:1005000099469246044600F124080168880604D5FD
:10051000E06921F01001216000E00120A84201DD26
:10052000471B00E00027A1697A1902EB0900081AAD
:10053000A0612078C00602D42046AFF300800026D8
:1005400008E0D4E901211AF806009047206A401C0F
:10055000761C20624E45F4DB2078C0060AD5204682
:10056000AFF3008006E0D4E9012130209047206AF3
:10057000401C2062381EA7F10107F4DC07E0D4E933
:10058000012118F805009047206A401C2062281EAF
:10059000A5F10105F3DC2046AFF3008020780006CA
:1005A00002D50220BDE8F0870120FBE701694A1C63
:1005B00002610878704700B58FB0CDE901310021A4
:1005C000059105497944CDE9031011466846FFF7C6
:1005D000C9FE0FB000BD0000E5FFFFFF074B70B57F
:1005E0000D467B44FFF7E7FF0446284600F060F81D
:1005F00010B14FF0FF3070BD204670BD1B320000BF
:1006000010B5203AC0F00B80B1E81850203AA0E8AD
:100610001850B1E81850A0E81850BFF4F5AF5FEAE1
:10062000027C24BFB1E81850A0E8185044BF18C994
:1006300018C0BDE810405FEA827C24BF51F8043B3B
:1006400040F8043B08BF7047D20728BF31F8023B8F
:1006500048BF11F8012B28BF20F8023B48BF00F823
:10066000012B70474FF000020429C0F0128010F0F7
:10067000030C00F02380CCF1040CBCF1020F18BF76
:1006800000F8012BA8BF20F8022BA1EB0C0100F011
:1006900015B85FEAC17C24BF00F8012B00F8012BDC
:1006A00048BF00F8012B7047004870473C320120DA
:1006B000007B00F0800070474FF0000200B5134649
:1006C00094469646203922BFA0E80C50A0E80C5072
:1006D000B1F12001BFF4F7AF090728BFA0E80C5023
:1006E00048BF0CC05DF804EB890028BF40F8042B1C
:1006F00008BF704748BF20F8022B11F0804F18BF89
:1007000000F8012B70470000004870473C32012080
:100710007546FFF7F9FFAE4605006946534620F0DF
:100720000700854618B020B5FFF7FEFDBDE8204064
:100730004FF000064FF000074FF000084FF0000B9D
:1007400021F00701AC46ACE8C009ACE8C009ACE850
:10075000C009ACE8C0098D46704710B50446AFF338
:1007600000802046BDE81040FFF76EBD014918200B
:10077000ABBEFEE7260002007047000000B587B060
:100780000121480601F0F0FB0121880601F0ECFB95
:1007900000208DF817008DF8180008208DF814003F
:1007A00004208DF8150000208DF812008DF8190036
:1007B0000320ADF8100000208DF81A008DF813000A
:1007C0008DF816008DF81B0004A92B4800F06FFC73
:1007D00001208DF80D000020ADF80800ADF80000F4
:1007E000ADF80200ADF80400ADF806008DF80B007E
:1007F0008DF80A0001208DF80C00684600F0CAFB55
:1008000001208DF8170000208DF8180008208DF8C1
:10081000140004208DF8150000208DF812008DF8CA
:1008200019000320ADF8100000208DF81A008DF893
:1008300013008DF816008DF81B0004A90F4800F076
:1008400036FC01208DF80D000020ADF80800ADF851
:100850000000ADF80200ADF80400ADF806008DF818
:100860000B000E208DF80A0001208DF80C00684660
:1008700000F090FB07B000BD00640040006800403D
:1008800000B58FB00121880501F05EFB4FF00060DC
:10089000009012480190124802900020039013200B
:1008A0000490002005904FF480600690002008908E
:1008B000079009904FF480300A9000200B9003209D
:1008C0000C9000200D900E906946064800F07CFECA
:1008D0000121044800F062FE0FB000BD0410014089
:1008E000202F0120406402401CB50121084601F080
:1008F0002BFB0121022001F027FB0121082001F040
:1009000023FB0121202001F01FFB02208DF80400B1
:1009100000208DF806008020009001208DF807004F
:1009200003208DF805006946504800F0E1FE0722DB
:1009300011464E4800F024FF02208DF804000020EC
:100940008DF806000320009001208DF80700032099
:100950008DF805006946464800F0CAFE09220021CC
:10096000434800F00DFF09220121414800F008FF33
:1009700002208DF8040000208DF806004FF440504E
:10098000009001208DF8070003208DF805006946CE
:10099000364800F0ADFE09220C21344800F0F0FE8C
:1009A00009220D21314800F0EBFE01208DF80400F2
:1009B00000208DF806004FF48060009001208DF833
:1009C000070003208DF8050069462A4800F090FED4
:1009D00001208DF8040000208DF806004FF42070EF
:1009E000009001208DF8070003208DF8050069466E
:1009F000204800F07DFE00208DF804008DF80600F0
:100A00004020009001208DF8070003208DF805009C
:100A10006946184800F06CFE00208DF804008DF83F
:100A200006004FF48070009002208DF8070003202C
:100A30008DF8050069460F4800F05AFE0122114664
:100A40000D4800F09DFE022000908DF80400032068
:100A50008DF8050000208DF8060001208DF80700B4
:100A60006946054800F044FE1CBD00000004024039
:100A7000000C0240001402400000024008B525208E
:100A80008DF8000001208DF8030008208DF801008A
:100A900000208DF80200684601F0E4F9012240F2DE
:100AA0002441264801F0EBFE14208DF800000120BF
:100AB0008DF8030008208DF8010000208DF8020059
:100AC000684601F0CFF901221D491E4800F0E6FA00
:100AD0001C481430006840F0FF001A4914310860C7
:100AE00040208DF8000001208DF8030008208DF8CB
:100AF000010000208DF80200684601F0B3F90122E0
:100B00000221114800F0CAFA1C208DF800000920CB
:100B10008DF8010000208DF8020001208DF80300FF
:100B2000684601F09FF901221146900701F0D5FBBC
:100B30000121880701F0AEFB08BD00000010014054
:100B4000008F0300006400400068004000B58BB0D7
:100B50000121084601F008FA0120099042F22730ED
:100B6000ADF820000020ADF82200ADF8280008A95B
:100B70004FF0804001F002FC0121880701F090FB5A
:100B80000121102001F0F0F95920ADF820000020DB
:100B9000ADF82200ADF8280040F2E730099008A92E
:100BA000294801F0EBFB0121274801F079FB0121E5
:100BB000042001F0D9F90121082001F0C5F9022231
:100BC0000C21224800F0DCFD4FF4805006900220FA
:100BD0008DF81C0003208DF81D0000208DF81E00EC
:100BE00001208DF81F0006A9184800F081FD42F28F
:100BF0002730ADF820000020ADF82200C720099072
:100C00000020ADF8280008A9114801F0B7FB7020BA
:100C1000ADF804000120ADF806000220ADF8100088
:100C20000520039001A90A4801F060FB082108484B
:100C300001F09AFB0121064801F020FB0121044844
:100C400001F02EFB0BB000BD00100040000C024074
:100C5000000800401FB50121102001F095F90E4851
:100C600000900020ADF80C000420ADF80A00002030
:100C7000ADF80800ADF80600ADF804006946074875
:100C800001F022FE01224021044801F0C5FD0121AE
:100C9000024801F0B5FD1FBDA08601000010014013
:100CA00000B58BB00121022001F05EF90121022084
:100CB00001F04AF9022204211F4800F061FD1020D2
:100CC000099002208DF8280003208DF829000020CB
:100CD0008DF82A0001208DF82B0009A9164800F094
:100CE00007FD5920ADF818000020ADF81A000120CA
:100CF00007900020ADF8200006A9104801F03EFB47
:100D00006020ADF804000120ADF806000020ADF829
:100D1000100001A9094801F0E9FA0821074801F08B
:100D200023FB0121054801F0A9FA0121034801F044
:100D3000B7FA0BB000BD0000000402400004004000
:100D400010B502A0FFF702FB10BD0000427573460C
:100D500061756C745F48616E646C657200000000C0
:100D600000B585B06A4600212C4800F02AFA0098A8
:100D7000A0F2012030B1012816D0022826D0032885
:100D800048D135E09DF80C009DF80B1040EA012099
:100D9000234908809DF80E109DF80D0041EA0020BF
:100DA00000B21F49488036E09DF80C009DF80B10FA
:100DB00040EA01201A4988809DF80E109DF80D0028
:100DC00041EA002000B21649C88024E09DF80C00DA
:100DD0009DF80B1040EA0120114908819DF80E1082
:100DE0009DF80D0041EA002000B20D49488112E053
:100DF0009DF80C009DF80B1040EA012008498881FD
:100E00009DF80E109DF80D0041EA002000B2044943
:100E1000C88100E000BF00BF05B000BD0064004015
:100E2000382E012010B507A0FFF790FA4FF40061AB
:100E3000054800F0C8FC4FF40F41044800F056F894
:100E400010BD000031323300001002400064004049
:100E500000B585B06A460021224800F0B2F900983A
:100E6000A0F2012020B1012814D0022836D123E0BD
:100E70009DF80C009DF80B1040EA01201A490882E9
:100E80009DF80E109DF80D0041EA002000B21649B1
:100E9000488224E09DF80C009DF80B1040EA0120E8
:100EA000114988829DF80E109DF80D0041EA00203E
:100EB00000B20D49C88212E09DF80C009DF80B109D
:100EC00040EA0120084908839DF80E109DF80D00A6
:100ED00041EA002000B20449488300E000BF00BF9F
:100EE00005B000BD00680040382E0120B1F5007F3C
:100EF0003AD00FDC202928D006DC01291CD0042997
:100F00001DD0082940D11DE0402921D0B1F5807FB6
:100F10003AD126E0B1F5004F31D006DCB1F5806F53
:100F200025D0B1F5006F2FD124E0B1F5803F12D06C
:100F3000B1F5003F28D111E0154A826025E0082272
:100F4000C26022E01022C2601FE0082202611CE0A1
:100F50001022026119E00822426016E0102242606D
:100F600013E00422426010E0042242600DE00422FB
:100F700042600AE0002282610422426005E0002211
:100F800082610422426000E000BF00BF70470000A1
:100F90000101010010B50021837A012202FA03F158
:100FA0003D4A126842F001023B4B1A603A4A1C3239
:100FB00012688A43384B1C331A60027BCAB9364A1E
:100FC0000C3212688A43344B0C331A604288C3884F
:100FD00042EA0343304A4032847A42F8343002888D
:100FE000838842EA03432C4A4032847A02EBC402EB
:100FF0005360027B012A19D1274A0C3212680A4336
:10100000254B0C331A604288038842EA0343224A84
:101010004032847A42F83430C288838842EA0343FB
:101020001D4A4032847A02EBC4025360C27A3AB954
:10103000194A121D12688A43174B1B1D1A6006E0DD
:10104000154A121D12680A43134B1B1D1A600289B0
:1010500032B9114A143212688A430F4B14331A60A2
:101060000289012A06D10C4A143212680A430A4B3B
:1010700014331A60427B012A06D1074A1C321268D7
:101080000A43054B1C331A60034A126822F001021E
:10109000014B1A6010BD0000006600401AB14369A0
:1010A0000B43436102E043698B434361704730B5B2
:1010B000024600200023146824F00204146014681F
:1010C00044F00104146000E05B1C546804F0010467
:1010D0001CB94FF6FF74A342F6D1546804F0010422
:1010E0000CB900206CE08C79012C04D1146844F018
:1010F0008004146003E0146824F080041460CC7948
:10110000012C04D1146844F04004146003E0146816
:1011100024F0400414600C7A012C04D1146844F0CB
:101120002004146003E0146824F0200414604C7A56
:10113000012C04D1146844F01004146003E0146816
:1011400024F0100414608C7A012C04D1146844F04B
:101150000804146003E0146824F008041460CC7AD6
:10116000012C04D1146844F00404146003E01468F2
:1011700024F0040414608C78A407CD7844EA056454
:101180000D7944EA05444D7944EA05540D886D1EF5
:101190002C43D461146824F001041460002300E09F
:1011A0005B1C546804F001041CB14FF6FF74A342A9
:1011B000F6D1546804F001040CB1002000E00120D5
:1011C00030BD10B500F5D87303EB01131B6803F0B5
:1011D00004031372137A53B900F5D87303EB0113A8
:1011E0001B6840F2FF7404EA5353136009E000F5F2
:1011F000D87303EB01131B686FF0604404EAD30358
:10120000536000F5D87303EB01131B6803F002036E
:10121000537200F5D87303EB01135B6803F00F03FF
:10122000937200F5D87303EB01135B681B0AD37448
:1012300000F5D87303EB01139B68D37200F5D873E4
:1012400003EB01139B681C0A147300F5D87303EBBE
:1012500001139B681C0C547300F5D87303EB011346
:101260009B681B0E937300F5D87303EB0113DB68C7
:10127000D37300F5D87303EB0113DB681C0A1474F5
:1012800000F5D87303EB0113DB681C0C547400F5F4
:10129000D87303EB0113DB681B0E937421B9C36889
:1012A00043F02003C36003E0036943F020030361BC
:1012B00010BD10B502460020936803F08063B3F1BF
:1012C000806F00D110E0936803F00063B3F1006F0A
:1012D00001D1012008E0936803F08053B3F1805FEF
:1012E00001D1022000E00420042874D002F5C0736C
:1012F00003EB00131B6803F0010402F5C07303EB5A
:1013000000131C600B7A7BB94B7A0C8843EA445378
:1013100002F5C07404EB00142468234302F5C07482
:1013200004EB0014236010E00B7A4C6843EAC4031A
:101330004C7A234302F5C07404EB00142468234361
:1013400002F5C07404EB001423608B7A03F00F03E2
:101350008B7202F5C07303EB00135B6823F00F047C
:1013600002F5C07303EB00135C6002F5C07303EB7E
:1013700000135B688C7A234302F5C07404EB0014FD
:1013800063608B7B1C064B7B44EA03440B7B44EA83
:101390000323CC7A234302F5C07404EB0014A3604A
:1013A0008B7C1C064B7C44EA03440B7C44EA0323FD
:1013B000CC7B234302F5C07404EB0014E36002F518
:1013C000C07303EB00131B6843F0010402F5C07304
:1013D00003EB00131C6010BD2DE9F04186B0804680
:1013E0000C4615461E460C9F4FF4007001900020DD
:1013F0008DF80C008DF80D0008208DF80E00200AE5
:101400008DF80F008DF81040290A8DF811108DF815
:101410001250310A8DF813108DF81460390A8DF8C6
:1014200015108DF8167000BF0948006810B106B09D
:10143000BDE8F08106481038006800F0E050002850
:10144000F2D001A94046FFF734FF00BFEFE70000EC
:101450001864004010B5182240494148FEF7F2FFD9
:10146000404800783F49497840EA0120C0F30A002B
:101470003A49088008460088A0F5806000B20880DC
:1014800038484078C0103749897840EA4110C0F3A5
:101490000A003249488008464088A0F5806000B2C2
:1014A00048803048807880112E49C97840EA810010
:1014B0002C49097940EA8120C0F30A002749888035
:1014C00008468088A0F5806000B2888025480079B1
:1014D00040102449497940EAC110C0F30A001F496D
:1014E000C8800846C088A0F5806000B2C8801D484A
:1014F00040790011800808721A484079C0F3011041
:101500004872184880791749C97940EA012000B229
:10151000124948811348007A1249497A40EA012069
:1015200001B20E4881810F48807A0E49C97A40EA9B
:10153000012001B20948C1810A48017B07480174B2
:101540000848417B054841740648807B0549C97BB2
:1015500040EA01200149888210BD0000342F01209B
:101560004C2F0120202F01200246094B9A4201D224
:10157000084801E00648103801F000531BB1064B43
:101580000B40C36002E0044B0B40836070470000D7
:1015900010640240006002407D0F7D0F21B102689F
:1015A00042F00102026003E0026822F001020260E0
:1015B0007047014600200A6802F001020AB10120CA
:1015C00000E000207047000010B500220268134BB5
:1015D0001A40CC680B6823434C6923438C6923432E
:1015E000CC6923430C6A23434C6A23438C6A23430C
:1015F0004C6B23438C6B23431A430260426922F0F5
:101600000702D1E90B3423431A4342610B6943605B
:101610004B6883608B68C36010BD00003F801CF086
:101620004160704710B502A0FEF790FE10BD0000AB
:1016300044656275674D6F6E5F48616E646C65727C
:101640000000000070B504466FF0040000F0B0FD2B
:10165000E11704EB5171C1F3C7010D4A1170E11795
:1016600004EB5171CD104FF47A70454301200949C4
:1016700008804FF0E020006940F002004FF0E021C8
:10168000086108464561006940F00100086170BDCD
:101690008C0000208E00002010B5022000F01CF805
:1016A00050B1022000F00CF8022000F00FF80120E9
:1016B0000249087000F088FA10BD0000D000002038
:1016C0000149086070470000143C0140014908606E
:1016D00070470000143C014001460020034A126894
:1016E0000A400AB1012000E000207047143C01408C
:1016F000F0B50A4600210023002400BF3DE001258B
:1017000005FA01F3156805EA03049C4234D1056823
:101710004F000326BE40B543056015794E00B54025
:101720000668354305601579012D02D01579022D23
:1017300016D185684F000326BE40B54385605579B4
:101740004E00B540866835438560456801268E4069
:10175000B5434560456896798E40B6B235434560DD
:10176000C5684F000326BE40B543C560D5794E001D
:10177000B540C6683543C560491C1029BFD3F0BDCC
:10178000F0B5002300244D07ED0E02FA05F3CE104C
:1017900000F1200555F826504E07F70E0F26BE40E3
:1017A000B543CF1000F1200646F82750CE1000F1C7
:1017B000200555F8265045EA0304CE1000F1200517
:1017C00045F82640F0BD4183704701837047426968
:1017D0004A4042617047000010B502A0FEF7B6FD16
:1017E00010BD0000486172644661756C745F4861A9
:1017F0006E646C657200000010B5044600200F494D
:10180000086000F0CDF8012000F01CF824B10120A0
:101810000A490831086003E00020084908310860DF
:10182000012000F00FF801200449086000F00AF8D8
:1018300000200349C1F89C0210BD00009C82424276
:101840000080424210B5002106E0642200BF131E52
:10185000A2F10102FBD1491C8142F6D310BD000068
:1018600070B5002400F086F80120FFF7EBFF00259B
:1018700016E000200E4908600220FFF7E3FF012078
:101880000C49C1F89C026006040E094878380068CB
:1018900008B1601CC4B20220FFF7D4FF681CC5B2B7
:1018A000082DE6DB002002490860204670BD0000DC
:1018B0009C824242008042422DE9F04107460E469A
:1018C0001446984600F084F8FF2805D120A0FEF7C2
:1018D0003DFDFF20BDE8F081384600F0F9F800F04A
:1018E000CDF8FF2800D1F5E7304600F0F1F800F020
:1018F000C5F8FF2804D119A0FEF728FDFF20E9E76D
:1019000000F066F8791CC8B200F0E2F800F0B6F812
:10191000FF2804D114A0FEF719FDFF20DAE7002507
:1019200008E0FFF79DFF20700020FFF765FF641CB3
:10193000681CC5B2A8F10100A842F2DCFFF790FFD5
:1019400020700120FFF758FF00F07EF80020C1E76B
:101950006572726F7220370D0A0000006572726F37
:101960007220390D0A0000006572726F72203248D1
:101970000D0A00001CB54FF40070009000208DF897
:1019800004008DF8060001208DF8070003208DF873
:10199000050069460148FFF7ABFE1CBD001402407C
:1019A0001CB54FF40070009001208DF80400002059
:1019B0008DF8060001208DF8070003208DF8050042
:1019C00069460248FFF794FE1CBD00000014024067
:1019D00010B5FFF7E5FF0120134908601348D0F860
:1019E000240220B912A0FEF7B1FCFF2010BD012097
:1019F0000D4908390860FFF725FF00200B49C1F8A1
:101A0000A40209488038006820B10CA0FEF79EFCB3
:101A1000FF20EBE70120FFF715FF002002490839FE
:101A2000086000BFE2E70000A48242420080424218
:101A30006572726F722031210D0A00006572726F3B
:101A4000722032210D0A000010B5FFF7A9FF002017
:101A5000084908600849C1F8A4020120FFF7F2FE16
:101A6000012004490860FFF7EDFE01200249C1F89A
:101A7000A40210BD9C8242420080424210B5002464
:101A8000FFF778FF012010490860FFF7DBFE012017
:101A90000E49C1F89C02FFF7D5FE0AE0601C84B233
:101AA000322C03DDFFF7D0FFFF2010BD0520FFF72C
:101AB000C9FE0548803800680028EFD1024908397E
:101AC000086000BFF1E70000A48242420080424269
:101AD00070B50446FFF764FF002013490860002535
:101AE0001EE004F0800020B101200F490831086099
:101AF00003E000200C49083108606006040E012054
:101B0000FFF7A0FE012008490860FFF79BFE0020B8
:101B10000649C1F89C020120FFF794FE681CC5B27B
:101B2000082DDEDB70BD00009C82424200804242F4
:101B30001CB50121302000F007FA4FF4006000903E
:101B400001208DF8040000208DF8060003208DF898
:101B5000050001208DF8070069461048FFF7C8FD11
:101B60004FF48040009001208DF8040000208DF893
:101B7000060003208DF8050001208DF80700694656
:101B80000748FFF7B5FD4FF400610448FFF71DFE5D
:101B90004FF480410248FFF718FE1CBD00100240C0
:101BA000001402402DE9F04104460D4616461F463A
:101BB0003B46324629462046FFF77EFEFF2801D1EC
:101BC000BDE8F0810020FBE710B53148007800281F
:101BD0005CD000202E4908700E232E4A3B21D020D5
:101BE000FFF7E0FF2B4840782A49097840EA0120B6
:101BF00000B2294908802748C0782649897840EAF8
:101C0000012000B2244948802248407921490979BD
:101C100040EA012000B2204988801E48C0791D4951
:101C2000897940EA012000B21B49C8801948407AEE
:101C30001849097A40EA012000B21749088108468C
:101C40000089C989084400B2134908811148C07A43
:101C50001049897A40EA012000B20F4948810846BC
:101C60004089098A084400B20B4948810948407BF1
:101C70000849097B40EA012000B2074988810846EB
:101C80008089498A084400B20349888110BD000058
:101C9000D000002028320120143201202DE9F0412B
:101CA0002DED0C8B0546002600272D48008800F4FA
:101CB0000040002847DD002429480088A0F540475F
:101CC00000BF00BF34E02749095DA1F1300003F0F7
:101CD000F2FF41EC1B0B391B481E03F0ECFF41ECFB
:101CE0001D0BB0EE4D1AF0EE6D1A9FED1F0B00F0BC
:101CF00083FEB0EE40CAF0EE60CA53EC1B2B51ECF1
:101D00001C0B04F02BF841EC190B304603F0D3FF09
:101D100041EC1A0B53EC192B03F08AFD41EC180B24
:101D200003F09AFF064600200E490855601CC4B215
:101D3000BC42C8DB00200A4908800D48066001202B
:101D40000C49086007E00B480068012802D10848E8
:101D5000066800E06E68AE60BDEC0C8BBDE8F081FB
:101D6000A0000020403101200000000000002440BD
:101D7000D8000020DC00002010B588B00446012106
:101D8000402000F0E1F80121202000F0FDF80822B9
:101D900009212348FFF7F4FC08220E212048FFF711
:101DA000EFFC4FF48440069002208DF81C008DF863
:101DB0001D0000208DF81E0001208DF81F0006A9CF
:101DC0001748FFF795FC02940020ADF80C00ADF821
:101DD0000E00ADF81000ADF814000C20ADF81200A4
:101DE00002A9104800F070FD01210E4800F008FD26
:101DF000012240F225510B4800F041FD47208DF8AB
:101E0000040007208DF8050000208DF80600012051
:101E10008DF8070001A800F025F808B010BD0000FB
:101E200000180240001401404160704710B502A044
:101E3000FEF78CFA10BD00004D656D4D616E616757
:101E4000655F48616E646C657200000010B502A0A9
:101E5000FEF77CFA10BD00004E4D495F48616E648C
:101E60006C65720070B5002100230F22C4781CB38A
:101E7000174C246804F4E064C4F5E064C4F307215B
:101E8000C1F10404E3B20A4144789C40E1B2847891
:101E9000144021430C07210E0E4C0578615504783F
:101EA00004F01F050124AC4005786D11AD0005F16B
:101EB000E025C5F8004109E0047804F01F0501247D
:101EC000AC40054D0678761145F8264070BD0000FF
:101ED0000CED00E000E400E080E100E00249014395
:101EE000024A1160704700000000FA050CED00E0A6
:101EF00080ED000AC0ED010A80ED021AC0ED031A60
:101F0000C0ED041A9FED0F2A80ED052A9FED0D2AE2
:101F100080ED062A9FED0B2A80ED072A9FED092A06
:101F200080ED082A9FED072A80ED092A9FED052AFA
:101F300080ED0A2A9FED032A80ED0B2A0021016320
:101F4000416370470000000029B1064A126802434D
:101F5000044B1A6004E0034A12688243014B1A6082
:101F6000704700003038024029B1064A1268024327
:101F7000044B1A6004E0034A12688243014B1A6062
:101F8000704700004038024029B1064A12680243F7
:101F9000044B1A6004E0034A12688243014B1A6042
:101FA0007047000044380240F0B5002100220024B0
:101FB000022500260223324F3F6807F00C0121B1B1
:101FC000042905D0082937D105E02E4F076036E0F7
:101FD0002D4F076033E02A4F3F1F3F68C7F38056FD
:101FE000274F3F1F3F6807F03F036EB1264FB7FBF7
:101FF000F3F7DFF88CC0ACF1040CDCF800C0CCF3D4
:10200000881C07FB0CF40CE01E4FB7FBF3F7DFF85E
:1020100070C0ACF1040CDCF800C0CCF3881C07FBEA
:102020000CF4174F3F1F3F68C7F301477F1C7D002B
:10203000B4FBF5F7076002E0124F076000BF00BF76
:102040000F4F3F6807F0F0010909104F7A5C0768ED
:10205000D74047600A4F3F6807F4E051890A0B4FA9
:102060007A5C4768D7408760054F3F6807F4604156
:10207000490B064F7A5C4768D740C760F0BD000047
:10208000083802400024F400001BB70000000020C4
:102090000CB50020019000904148006840F4803069
:1020A0003F49086000BF3E48006800F400300090DF
:1020B0000198401C0190009818B90198B0F5A04F04
:1020C000F1D13748006800F4003010B101200090D1
:1020D00001E0002000900098012860D13048403095
:1020E000006840F080502E49403108602D4800685B
:1020F00040F440402B4908602948083000682849CE
:10210000083108600846006840F40040086008464E
:10211000006840F4A05008602348091F0860081FA9
:10212000006840F08070091F086000BF1C4800680C
:1021300000F000700028F9D01A48006840F48030A0
:102140001849086000BF1748406800F48030002834
:10215000F9D01448006840F400301249086000BF0C
:102160001048406800F400300028F9D040F20570B3
:102170000E4908600A480830006820F0030008494A
:10218000083108600846006840F00200086000BF9F
:1021900003480830006800F00C000828F8D10CBD96
:1021A00000380240007000400C5A4007003C0240DA
:1021B000042808D14FF0E021096941F004014FF0F3
:1021C000E022116107E04FF0E021096921F00401EC
:1021D0004FF0E0221161704710B503F0C3F80128F9
:1021E00001D002F085FD10BD10B51548006840F41F
:1021F0007000134908601348006840F0010011495D
:10220000086000200F49083108600E4800680E4938
:1022100008400C4908600D48091D0860081F006847
:1022200020F48020091F0860002006490C31086056
:10223000FFF72EFF4FF0006001498039086010BDA4
:1022400088ED00E000380240FFFFF6FE1030002469
:1022500010B50121880700F02FF860B1064800682A
:10226000401C054908600121880700F016F801218B
:10227000880700F00FF810BD9000002021B10288FF
:1022800042F08002028004E002884FF67F731A4019
:1022900002807047CA4302827047CA430282704775
:1022A00021B1028842F00102028004E002884FF668
:1022B000FE731A400280704730B5024600200023AA
:1022C0000024158A05EA0103958905EA010413B182
:1022D0000CB1012000E0002030BD1AB183890B430E
:1022E000838102E083898B438381704770B500242A
:1022F00000220023058C4FF6FE7635400584028CC3
:102300008388048B4FF68F752C40B51E2C400D88AA
:102310002C43751E2A408D892A434D882A43104D2F
:10232000A84202D00F4DA84213D14FF6F7752A40AC
:10233000CD892A434FF6FB752A408D882A434FF6F4
:10234000FF652B404FF6FF552B400D8A2B434D8ADE
:102350002B43838004838D684563028470BD000035
:1023600000000140000401400A460021018B4FF6A5
:10237000F77319401143018370470000002202885F
:10238000184B98420ED0184B98420BD0B0F1804FAA
:1023900008D0164B984205D0154B984202D0154BE9
:1023A000984204D14FF68F731A404B881A43124B50
:1023B000984207D0114B984204D04FF6FF431A4081
:1023C0000B891A4302804B68C3620B880385054B57
:1023D000984202D0044B984201D18B7A03860123A4
:1023E0008382704700000140000401400004004067
:1023F00000080040000C00400010004000140040A5
:1024000008B502F0BFFF009008E04FF48041044897
:10241000FFF7DDF9FA21684602F07AF9F5E70000E6
:10242000001402401CB502F0ADFF019000BFDFEDCB
:102430001E1A9FED1E1ADFED1D0AB0EE080A1C4899
:10244000FFF756FDDFED181A9FED181ADFED170A9A
:102450009FED160A1748FFF74BFDDFED131A9FEDAE
:10246000131ADFED120A9FED110A1348FFF740FD22
:10247000DFED0D1A9FED0D1ADFED0C0A9FED0B0A33
:102480000E48FFF735FD0EE0002000900C48008953
:1024900001B200231A460B48FEF79EFF642101A8F3
:1024A00002F036F900BFEFE700007A4400000000B8
:1024B000642F01209C2F0120D42F01200C300120FB
:1024C000083201200064004008B50FE000235A1EC6
:1024D00069460748006802F051FC20B105A0009948
:1024E000FDF734FF02E009A0FDF730FFEEE7000042
:1024F000B80000205265636569766564206D657378
:10250000736167653A2025640D0A00004661696CB5
:102510006564000008B502F035FF0090C821084846
:10252000FFF782FC0BE001F0ABFF0548FFF7B6FBBD
:1025300001F0D0FF4FF47A71684602F0E9F8F2E753
:102540000832012008B502F01DFF00901AE00024B7
:10255000012C01DD204600E00120022801DA20469E
:1025600000E00220044601F08BFF0748816807A0C5
:10257000FDF7ECFE01F0AEFF40F6B831684602F020
:10258000C7F800BFE3E70000083201206F757470E0
:1025900075743A202564200D0A00000008B510E08B
:1025A0000848407A022809D1002003460246014625
:1025B00000900548FEF710FF02F08EFA642002F04A
:1025C00079F8EDE7342F0120006400401CB5044683
:1025D00001F056FFFEF788F9FEF7D0F8FEF73AFB58
:1025E000FEF74EF9FEF7B2FAFEF748FA0022042190
:1025F0000A2002F097FB25490860002006210346C7
:102600004FF4FA72CDE9001021A1264802F07AFEBB
:102610000020062103464FF4FA72CDE9001022A1F2
:10262000254802F06FFE2548072100234FF4FA7277
:10263000CDE9001022A1264802F064FE25480521BC
:1026400000234FF4C872CDE9001023A1254802F001
:1026500059FE2548032100234FF4C872CDE900102C
:1026600022A1264802F04EFE2548032100234FF404
:10267000C872CDE9001023A1254802F043FE0020D6
:1026800002F0B0F801F026FF1CBD0000B8000020E9
:102690005461736B5F4D6167696352656365697609
:1026A00065000000152500085461736B5F4D61677C
:1026B000696353656E64000045250008B40000207E
:1026C0005461736B5F536166655F4D6F64650000B5
:1026D0009D250008A40000205461736B5F4442757F
:1026E00073000000C9240008B00000205461736B1F
:1026F0005F4368617373697300000000252400085C
:10270000AC0000205461736B5F426C696E6B00001B
:102710000124000810B512488088C4B2104800880F
:10272000C4B200210F48FEF739FF0E48001D0068B3
:10273000012801D1FEF78EFE0B490A48FEF714FF6F
:1027400000BF0848FEF735FF0028FAD113210548DD
:10275000FEF766FF01210348FEF720FF10BD0000D1
:1027600000100140406402400000301010B540F2FB
:1027700025511F4800F059F840B11D4800F00EF9EE
:10278000C4B24FF400611B48FFF721F81A480088D3
:1027900000F4004058BB1848008800F4804060B145
:1027A0000A2C03D000201449088020E01248008839
:1027B00040F400401049088019E00D2C06D10E4865
:1027C000008840F480400C49088010E00A480088E6
:1027D000C0F30D0009490C5407480088401C064905
:1027E000088008460088C72801DD0020088010BD49
:1027F0000014014000100240A000002040310120E0
:1028000021B1828942F40052828104E082894DF62E
:10281000FF731A40828170471AB1838A0B43838207
:1028200002E0838A8B438382704770B5024600249E
:1028300000230025002040F66A16B14200D100BFF7
:10284000C1F3421501F01F03012606FA03F3012D1F
:1028500002D19689334006E0022D02D1168A334018
:1028600001E0968A33400C12012606FA04F4168819
:10287000344013B10CB1012000E0002070BDF0B570
:102880000346002400260025002040F66A17B942BE
:1028900000D100BF1846C1F3421401F01F06012702
:1028A00007FA06F5012C01D10C3004E0022C01D10D
:1028B000103000E014301AB107682F43076002E0BF
:1028C0000768AF430760F0BD2DE9FF4705460E4698
:1028D0000024A14600BFA046B08900B100BF2C8AE9
:1028E00024F44054F08804432C82AC8941F20C60FB
:1028F0008443B08831890843718908430443AC811B
:10290000AC8A24F44074B0890443AC826846FFF773
:102910004BFB2048854202D01F48854202D1DDF89A
:102920000C9001E0DDF80890A88900F4004040B167
:1029300009EBC90000EB091031684900B0FBF1F761
:1029400007E009EBC90000EB091031688900B0FB12
:10295000F1F76420B7FBF0F004012009642101FBCA
:102960001078A88900F4004040B1322000EBC80084
:10297000B0FBF1F000F00700044308E0322000EB68
:1029800008106421B0FBF1F000F00F0004432C812B
:10299000BDE8FF870010014000140140014688880F
:1029A000C0F308007047000010B502A0FDF7CEFC90
:1029B00010BD000055736167654661756C745F48B2
:1029C000616E646C6572000003B401984100009868
:1029D00050EAC12018BF04204A0D18BF40F0010082
:1029E00040F2FF72B2EB515F08BF40F002000128D5
:1029F00008BF052002B070472DE9F04D2DED040B06
:102A00002DED0E8B96B0DDE92550279CDDF890A0CA
:102A100025F0004624F00048BAF1000F14BF012150
:102A2000002101EB4502FC4953184A1093422AD376
:102A3000002814BF0123002303EB44030B44F74990
:102A40008B4220D358EA00019FEDF59B76D0DFF84A
:102A5000D8B35D4503D1BAF1000F05D188E0BAF1D2
:102A6000000F08BF002100D0012101EB450111F545
:102A7000001F08D8002814BF0121002101EB4401E8
:102A800011F5001F0BD99DED261B9DED240B16B0F3
:102A9000BDEC0E8B04B0BDE8F04D00F069BE002720
:102AA000002DBCBFE149884521DAE1498845A8BF2E
:102AB00002271CDAC3451ADCDE4901EB2851142930
:102AC00008DDC1F1340220FA02F101FA02F2824279
:102AD0000DD108E058B9C1F1140228FA02F101FA47
:102AE00002F2424503D101F00101C1F1020756EAA9
:102AF0000A0124D1002C22DA002D18BF022F01D0A8
:102B0000012F0AD00220FDF7F2FC16B0BDEC0E8BAF
:102B100004B0BDE8F04D00F013BE0220FDF7E7FC65
:102B200000F00EFE51EC100B02F076FE41EC100BA3
:102B300016B0BDEC0E8B04B0BDE8F08D18E09FED33
:102B4000BEAB9FEDBF8B002871D1B848804522D124
:102B500005F1804010F5801008BFBAF1000F07D0D2
:102B6000B3450ADC002CA8BF9DED260BE0DA0DE092
:102B7000B0EE490AF0EE690ADAE7002C06DA9DEDBC
:102B8000260B51EC100B02F047FE6FE0AE48784484
:102B900090ED000BCCE7D8454DD1002C48DA2EB192
:102BA00086423AD1BAF1000F42D126E0BAF1000FC5
:102BB00013D00220FDF79BFC00F0F6FD8DED020B1B
:102BC0009DED240B8DED000B10EE900A039961F33F
:102BD0001E0003909DED020BAAE78DED02AB9DED6B
:102BE000240B1AEE901A10EE900A8DED000B61F393
:102BF0001E0003909DED020B9AE78DED028B9DED7B
:102C0000240B18EE901A10EE900A8DED000B61F374
:102C10001E0003909DED020B8AE709DA9DED240B5F
:102C200051EC190B53EC102B02F0BEFE1EE020E01D
:102C30009DED240B7CE786421BDAB4F1804F0DD06A
:102C4000A4F10050B0F1FF5013D1002D11DB9DED28
:102C5000240B51EC100B01F091FB07E09DED240BD0
:102C600053EC102B51EC100B00F0C2BC41EC100BDC
:102C70005EE79DED240B51EC100B00F0B5FDBAF1B1
:102C8000000FCDE90E0142D19FED710B46B3A6F1C5
:102C9000E040B0F17F600CD05E4538D1002D00DA05
:102CA000A7B3022F0CBF01204FF0FF3003F003F851
:102CB000DCE7002D01DD002C0DDA002D01DD002CFC
:102CC0001FDB002D16DA002C14DB012F08BF9FED4F
:102CD000620B3FF42DAFB0EE4A0AF0EE6A0A27E726
:102CE000022F18BF002D0CD0012F0AD1002DFFF6A6
:102CF0001FAF06E0002DB8BF002C08DA012F3FF40B
:102D000017AFB0EE480AF0EE680A11E71BE00120A9
:102D100000EBE57050EA070115D0791EB0EE498A44
:102D2000F0EE698A084308BF9FED4D8B4E480025A1
:102D3000804570DD4D494E48884514DDB0420DDBBD
:102D4000002C19DB2FE00120FDF7D1FB16B0BDEC04
:102D50000E8B04B0BDE8F04D00F016BDB34502DCAB
:102D6000002C09DC1FE0864202DA002C1BDA03E0AB
:102D70005E452BDD002C16DD0220FDF7B8FB00F0D0
:102D800013FD8DED020B53EC1A2B51EC180B02F0D6
:102D9000E5FFCDE900010399019861F31E0003905E
:102DA0009DED020BC4E60220FDF7A1FB00F00CFD37
:102DB00010EE901A18EE900A8DED020B8DED008B3F
:102DC00061F31E0003909DED020BB1E69DED0E0B2D
:102DD00053EC192B51EC100B03F0CCF99FED260BA3
:102DE000CDE9080153EC102B9DED080B51EC100BB5
:102DF00002F0B4FF9FED221B53EC112B03F0E2F81D
:102E00009DED081B53EC112B02F0A8FF9FED1E1B3C
:102E100053EC112B3CE08CE0FFFF1F00FFFF0F0085
:102E2000000000000000F03F0000F03F0000F07FD5
:102E30000000404301FCFFFF000000000000F07FA5
:102E400000000000000000003E390000000000000B
:102E50000000000000000080000000000000F0FF03
:102E6000000000000000F0BF0000E0410000F0435F
:102E7000FFFFEF3F00000000000000000000D03F17
:102E8000555555555555D53F000000000000E03F11
:102E900003F098F89DED080B41EC1A0B53EC102B46
:102EA00051EC100B02F05AFF53EC1A2B02F056FFB4
:102EB00041EC1A0B9FEDFE0B53EC102B9DED080B14
:102EC00051EC100B02F04AFF41EC1B0B9FEDFA0B8B
:102ED00051EC1A0B53EC102B02F040FF41EC1A0B93
:102EE0009FEDF70B53EC102B9DED080B51EC100BE5
:102EF00002F034FF53EC1A2B03F03CF941EC1A0BAF
:102F000051EC1B0B53EC1A2B02F092FC0690CDE90E
:102F100006519DED060B53EC1B2B51EC100B03F0EF
:102F200029F953EC1A2B03F04DF841EC100B00F08B
:102F3000A1B90020B6F5801F0EDA9FEDE30B53EC2C
:102F4000102B9DED0E0B51EC100B02F007FFCDE99D
:102F50000E016FF034000E4600EB2650A0F2FF3752
:102F6000C6F31300DA4940F07F6646F040568842C7
:102F7000D8BF002408DDD7498142C8BF012403DC43
:102F80000024A6F580167F1CD348784400EBC400CB
:102F90000F9690ED00CB9DED0E0B53EC1C2B51ECDE
:102FA000100B03F0E7F89DED0E0B41EC1B0B53ECFF
:102FB0001C2B51EC100B02F03BFC41EC100B51ECC4
:102FC000190B53EC102B02F0EFFC41EC1D0B51ECF4
:102FD0001B0B53EC1D2B02F0C1FE41EC1A0BBF483A
:102FE0008DED10AB7844109590ED000B4FF0005034
:102FF00040EA660000EB84408DED080B00F50020F0
:1030000009909DED080B53EC1C2B51EC100B03F0B9
:10301000B1F89DED0E1B53EC112B02F0D3FF41ECE8
:10302000100B53EC102B9DED100B51EC100B02F01C
:1030300095FE9DED080B41EC1C0B53EC102B9DED08
:10304000100B51EC100B02F089FE53EC1B2B02F01D
:10305000B9FF53EC1C2B03F08DF853EC1D2B02F041
:103060007DFE41EC1C0B53EC1A2B51EC1A0B02F0B9
:1030700075FE41EC1B0B9A480621B0EE4B0AF0EEB0
:103080006B0A784400F0E0FAB0EE401AF0EE601AF5
:10309000B0EE41DAF0EE61DA53EC1B2B51EC1B0B76
:1030A00002F05CFE53EC1D2B02F058FE9DED100B60
:1030B00041EC1B0B53EC1A2B51EC100B02F0B8FB3C
:1030C00053EC1C2B02F04AFE53EC1B2B02F0B0FB1E
:1030D0009DED100B41EC1B0B53EC102B51EC100B26
:1030E00002F03CFE41EC1D0B9FED7FEB53EC1E2BE1
:1030F00002F09EFB53EC1B2B02F09AFB0890CDE9EB
:1031000008519DED080B53EC1E2B51EC100B03F0F6
:1031100031F853EC1D2B03F02DF853EC1B2B02F070
:1031200051FF9DED080B41EC1D0B53EC102B9DED59
:10313000100B51EC100B02F011FE41EC1B0B53EC89
:103140001A2B51EC1D0B02F009FE9DED080B41EC12
:103150001A0B53EC102B51EC1C0B02F0FFFD53EC3F
:103160001A2B02F065FB41EC1A0B51EC1B0B53ECD4
:103170001A2B02F05DFB0C90CDE90C519DED0C0B70
:1031800053EC1B2B51EC100B02F0F4FF53EC1A2BF9
:1031900002F018FF41EC1B0B9FED550B53EC102B6D
:1031A0009DED0C0B51EC100B02F0D8FD41EC1A0B0D
:1031B0009FED510B51EC1B0B53EC102B02F0CEFD8D
:1031C00041EC1B0B9FED4E0B53EC102B9DED0C0BAC
:1031D00051EC100B02F0C2FD53EC1B2B02F028FB4C
:1031E00041EC100B4848784400EBC40090ED001B04
:1031F00051EC100B53EC112B02F01AFB41EC1B0BA2
:10320000384602F058FDCDE9080153EC1B2B51EC78
:103210001A0B02F00DFB41EC100B3C48784400EB1C
:10322000C40090ED00CB51EC100B53EC1C2B02F0C2
:10323000FFFA9DED081B53EC112B02F0F9FA0690F2
:10324000CDE906519DED080B53EC102B9DED060BBF
:1032500051EC100B02F08EFF53EC1C2B02F08AFF96
:1032600053EC1A2B02F086FF53EC1B2B02F0AAFE44
:1032700041EC100B9DED261B53EC102B8DED001B2C
:1032800000959DED260B51EC100B02F067FD9DEDB6
:10329000000B41EC1A0B53EC102B9DED260B51EC5F
:1032A000100B02F067FF9DED061B53EC112B2FE076
:1032B000000000604715F73FFE822B654715F73F7A
:1032C00044DF5DF80BAE543E0000000000004043B8
:1032D0008E9803007AB60B00BA340000E834000080
:1032E000F233000000000000000000000000084071
:1032F000000000E009C7EE3FFD033ADC09C7EE3FDE
:10330000F5015B14E02F3EBE7E3200003832000033
:1033100002F024FD53EC1A2B02F08AFA9DED060B05
:1033200041EC1A0B53EC102B9DED000B51EC100BE4
:1033300002F014FDCDE90C019DED0C0B51EC1A0BC4
:1033400053EC102B02F074FACDE902010C46AA49A5
:103350008C422FDB611A084318D19DED0C0B53EC06
:10336000102B9DED020B51EC100B02F003FF41EC12
:103370001B0B9FEDA30B51EC1A0B53EC102B02F01F
:1033800057FA53EC1B2B02F0E7FD2DD20220FDF77C
:10339000AEF800F009FA10EE901A18EE900A8DEDD2
:1033A000020B8DED008B61F31E0003909DED020B6F
:1033B000FFF7BEBB944A24F00041914214D39349D5
:1033C000214408437FF4EFAC9DED0C0B53EC102B24
:1033D0009DED020B51EC100B02F0CCFE53EC1A2BBE
:1033E00002F0BAFD7FF6DFAC24F000408849894A3C
:1033F000002601EB205182422BDA481C4FF4801149
:1034000021FA00F02044844AC0F30A517A44A1F220
:10341000FF3192ED000B814A8DED080BCA4020EA86
:103420000202C0F3130040F48010C1F1140120FA2D
:1034300001F60992002CB8BF76429DED080B53ECC3
:10344000102B9DED0C0B51EC100B02F093FECDE90F
:103450000C019DED0C0B51EC1A0B53EC102B02F0F0
:10346000E7F99FED6F0B0890CDE9085153EC102B55
:103470009DED080B51EC100B02F070FC41EC1B0BA6
:103480009FED690B53EC102B9DED080B51EC100BCD
:1034900002F064FC9DED0C0B41EC1C0B53EC102B6B
:1034A0009DED080B51EC100B02F064FE53EC1A2B4F
:1034B00002F088FD9FED5E1B53EC112B02F04EFCD9
:1034C00053EC1C2B02F0B4F941EC1A0B51EC1B0B22
:1034D00053EC1A2B02F0ACF9CDE902019DED020B81
:1034E00053EC1B2B51EC100B02F044FE53EC1A2B47
:1034F00002F068FD9DED020B41EC1A0B53EC102B12
:1035000051EC100B02F02AFCCDE908014A489DED70
:10351000080B0521784400F097F89DED081B51EC4D
:10352000100B53EC112B02F019FC9DED021B53EC18
:10353000112B02F047FDCDE906019DED020B53EC86
:103540001A2B51EC100B02F009FC53EC1A2B02F071
:103550006FF99FED3B0B41EC1A0B53EC102B9DEDDB
:10356000060B51EC100B02F005FE9DED060B41EC35
:103570001B0B53EC102B9DED020B51EC100B02F0CA
:10358000EDFB53EC1B2B02F00FFA53EC1A2B02F05D
:10359000F1FD9DED021B53EC112B02F0EBFD53EC02
:1035A000192B02F00FFDCDE9020101EB06500115C8
:1035B0000029C8BF039015DC9DED020B324651EC8B
:1035C000100B02F0F8FEFFF7FFF9042808BF00F027
:1035D000FBF832469DED020B51EC100B02F0EBFEB6
:1035E000CDE902019DED020B51EC180B53EC102BB1
:1035F00002F0B4FBFFF73ABB00009040000000006F
:10360000FE822B654715973C00CC904000346F3FFD
:1036100001FCFFFF0000E03FC0300000FFFF0F0093
:1036200000000000432EE63F396CA80C615C20BE10
:10363000EF39FAFE422EE63F902F00000000000016
:10364000000000000000004070B504462DED028B24
:103650004D1E00EBC500B0EE408AF0EE608A90EDA2
:10366000000B35F0060017D053EC182B51EC100B63
:1036700002F074FB41EC100B6D1E04EBC50090EDE5
:10368000001B51EC100B53EC112B02F0D1F841EC64
:10369000100B35F00600E7D1022D36D0042D1CD0DA
:1036A000062D1CBFBDEC028B70BD53EC182B51ECEA
:1036B000100B02F053FB94ED0A1B53EC112B02F09C
:1036C000B7F853EC182B02F049FB94ED081B53ECB0
:1036D000112B02F0ADF841EC100B53EC182B51EC10
:1036E000100B02F03BFB94ED061B53EC112B02F088
:1036F0009FF853EC182B02F031FB94ED040B53ECC4
:10370000102B02F095F841EC100B53EC182B51ECF8
:10371000100B02F023FB94ED021B53EC112B02F073
:1037200087F853EC182B02F019FB94ED001B53ECB7
:10373000112B02F07DF8BDEC028B41EC100B70BD3B
:103740009FED070B10B553EC102B9FED070B51ECC1
:10375000100B02F029F941EC100B10BD0000000025
:103760000000000000000000000000000000F03F2A
:1037700010B553EC112B51EC100B02F059F841EC41
:10378000100B10BD000000009FED050B10B553ECB1
:10379000102B51EC100B02F007F941EC100B10BD8F
:1037A00000000000000000009FED050B10B553EC79
:1037B000102B51EC100B02F0D1FA41EC100B10BDA4
:1037C00000000000000000709FED050B10B553ECE9
:1037D000102B51EC100B02F0C1FA41EC100B10BD94
:1037E000000000000000001082B0CDE9000121F0CF
:1037F000004001909DED000B02B051EC100B7047A2
:1038000000BF054A128802F04002002AF9D0C2B275
:10381000014B1B1D1A807047001401401CB54FF46A
:103820004070FEF75BFBB420FDF70CFFFEF780F95C
:10383000FDF736FA4FF41650FEF79EFA00200121EC
:1038400003464FF4C872CDE9001004A1074801F007
:1038500059FD01F0F3F800BFFEE700005461736BFF
:103860005F5379735F496E6974000000CD250008CD
:103870002DE9F04105460E461C4807681C480068C3
:10388000001D00F0B2FD50B91948006890F82C10E6
:103890000120884017490968814316480160681C67
:1038A00038B936B112480168091D134800F0DBFD34
:1038B0001AE07C190E4800684460BC4207D20C48EC
:1038C0000168091D0D48006800F0B3FD0CE00848D0
:1038D0000168091D0A48006800F0ABFD094800684E
:1038E000844201D207480460BDE8F0812400002032
:1038F0001000002028000020FC01002018000020FB
:10390000140000204000002010B5044600F0B8FD6F
:1039100024480068401C234908602348006840B9D7
:10392000214804600846006801280DD100F0DEF946
:103930000AE01E48006838B91B480068C06AE16A9E
:10394000884201D81848046019480068401C18498A
:10395000086008460068606494F82C1001208840D4
:1039600014490968084313490860E16A01EB8101C1
:10397000114A02EB8100211D00F075FD00F0AAFD47
:103980000A48006868B108480068C06AE16A88426D
:1039900007D24FF0805009490860BFF34F8FBFF343
:1039A0006F8F10BD20000020100000202C00002090
:1039B0003C000020280000202001002004ED00E051
:1039C00010B500F05DFD10480068D0B90F4800F058
:1039D00020FD0F4800F01DFD0C480E4908600C4802
:1039E0000D49086000220C210A2001F09BF90649CC
:1039F00008600846006820B108A10348006800F08C
:103A00001DFE00F067FD10BD5C00002010020020CC
:103A1000240200205400002058000020546D7251F0
:103A20000000000070B523E001F056F8134800686C
:103A300008B9012000E00020054601F0FDFDBDB9F8
:103A400000F01EFD0D48C068C468201D00F0CDFCCC
:103A50000B480068401E0A4908600A480068401E7A
:103A60000849086000F036FD204600F060F800BF0D
:103A7000044800680028D7D170BD0000E80100208C
:103A8000200000201C00002070B504460D46206C6C
:103A900070B1216CE0680844E0606168E0688842C9
:103AA00001D32068E0602846226CE168FCF7CAFC7C
:103AB00070BD2DE9F04104460F4615464FF0000851
:103AC000A66B206C40B9206860BB606801F004FD03
:103AD00080460020606025E07DB93946226CA068F0
:103AE000FCF7B0FC216CA0680844A060D4E9011088
:103AF000884217D32068A06014E03946226CE06841
:103B0000FCF7A0FC216CE068401AE0602168E068E6
:103B1000884203D2216C6068401AE060022D01D116
:103B200006B1761E701CA0634046BDE8F08110B55A
:103B30000446206B00F0ECFC204600F0E9FC10BDD0
:103B40000146084A126812680AB9012200E0002200
:103B50000A600A6822B9034A1268D268106800E055
:103B6000002070475400002030B54FF496331748BA
:103B700000F007042CB1C01D20F00700134C041BFB
:103B80001B1B0246124C22600024114D6C60D018A1
:103B9000083820F007000F4C206000240D4D2D68E0
:103BA0006C600C4D2D682C601146441A4C60094C19
:103BB00024680C60084D4C682C60084D4C682C60E3
:103BC0004FF00044064D2C6030BD0000380200204C
:103BD00068000020700000207800002074000020A1
:103BE0007C00002000BFFFF71DFF06480068012889
:103BF000F9D94FF0805004490860BFF34F8FBFF3ED
:103C00006F8FF0E72001002004ED00E02DE9F04186
:103C100006460D4617469846069C0DB9246000E0FE
:103C20002760E66325640121204601F089F984F8C4
:103C30004C80BDE8F0812DE9F05F82460F4690464A
:103C40009B460A9E0C9C4FEA8801A522206BFCF73C
:103C50003EFCA8F10100216B01EB800929F0070966
:103C600009F0070008B9012000E0002050B900BFAA
:103C7000502080F31188BFF34F8FBFF36F8F00BFC9
:103C800000BFFEE7002507E0795D04F134004155EF
:103C9000785D00B902E06D1C102DF5D300BF002146
:103CA00043200155072E00D30626E662E664002075
:103CB0002065201D00F0BAFB04F1180000F0B6FBEF
:103CC0002461C6F10700A061646200206065A06500
:103CD00084F85C005A465146484600F039FB2060A3
:103CE0000B9808B10B980460BDE8F09F10B5002454
:103CF00007E004EB84010F4A02EB810000F089FB2E
:103D0000641C072CF5D30C4800F083FB0B4800F033
:103D100080FB0B4800F07DFB0A4800F07AFB0A4864
:103D200000F077FB04480949086004480849086026
:103D300010BD000020010020AC010020C0010020C7
:103D4000D4010020E8010020FC0100201400002024
:103D50001800002010B50146164800E0006803680E
:103D60008B42FBD30246436813448B4204D1436821
:103D70004C682344436001460A464B681344046878
:103D8000A34211D10C4C03682468A34208D04B68AD
:103D90000468646823444B6003681B680B6005E09B
:103DA000054B1B680B6001E003680B60884200D084
:103DB000016010BD68000020700000202DE9F04176
:103DC00004460D4616461F464FF000086560246104
:103DD000B5420CD8F01BA169884202D34FF001080C
:103DE00011E0211D0948006800F023FB0BE0BE42F2
:103DF00004D2BD4202D34FF0010804E0211D044863
:103E0000006800F016FB4046BDE8F0815800002035
:103E10005400002070B5054600F032FBA86B08B9CD
:103E2000012400E0002400F055FB204670BD70B571
:103E3000054600F025FBA86BE96B884201D10124FF
:103E400000E0002400F046FB204670BDF8B50546B2
:103E50000F4616480068C068C468201D00F0C5FA07
:103E6000E06901281DD1A06941192B463A46204638
:103E7000FFF7A4FFA8B1002003462A4601460090A0
:103E8000204601F087FC064656B900BF502080F35B
:103E90001188BFF34F8FBFF36F8F00BF00BFFEE7E6
:103EA00000BF2046616A8847F8BD0000540000202A
:103EB00070B586B06AE00398002867DB059C6069EE
:103EC00008B9012000E0002010B9201D00F08DFA93
:103ED00002A800F0BDF8054603980A2854D2DFE88E
:103EE00000F009050731334F0608323400BF00BF28
:103EF00000BF00BF0498A269811803462A462046E5
:103F0000FFF75CFFE8B12046616A8847E069012855
:103F100017D1002000900498A16942180023194687
:103F2000204601F037FC064656B900BF502080F30A
:103F30001188BFF34F8FBFF36F8F00BF00BFFEE745
:103F400000BF22E000BF20E000BF0498A061A0698C
:103F500008B1012000E0002050B900BF502080F3DC
:103F60001188BFF34F8FBFF36F8F00BF00BFFEE715
:103F7000A06941192B462A462046FFF71FFF04E09F
:103F8000204600F0C5FA00E000BF00BF00231A463B
:103F900003A90448006800F0F1FE00288BD106B0A8
:103FA00070BD00005C000020F8B505460C4600F02E
:103FB00093FD684600F04CF80646009820BB44B9D3
:103FC000B54206D801F038FB31462846FFF73EFFE0
:103FD0001CE03CB10E480068006808B9012000E010
:103FE00000200446A91B22460A48006800F03CFB5A
:103FF00001F022FB50B94FF0805007490860BFF331
:104000004F8FBFF36F8F01E001F016FBF8BD00008A
:10401000580000205C00002004ED00E00A49096817
:10402000096809B9012100E0002121B14FF0FF31F9
:10403000064A116006E004490968C968C868034A6D
:10404000416811607047000014000020400000200B
:1040500070B5044601F096F90546074800688542A8
:1040600004D200F00BF80120206001E00020206065
:1040700001480560284670BD640000202DE9F84322
:1040800032E024480068C068056822480068C068BB
:10409000C468201D00F0A9F92046616A8847E069DC
:1040A000012821D1A0694619AE4207D96660246172
:1040B000211D1848006800F0BCF915E000200346F7
:1040C0002A4601460090204601F064FB074657B996
:1040D00000BF502080F31188BFF34F8FBFF36F8F65
:1040E00000BF00BFFEE700BF0A480068006808B9CB
:1040F000012000E000200028C3D00648D0F800804E
:1041000005480068034908600348C0F80080BDE81E
:10411000F883000054000020580000200E4800687A
:10412000401C08B9012000E0002050B900BF502019
:1041300080F31188BFF34F8FBFF36F8F00BF00BFB5
:10414000FEE700BF502080F31188BFF34F8FBFF30D
:104150006F8F00BF00BFFEE78000002008B500BFE2
:104160006846FFF7EDFC044620460099FFF71CFF68
:10417000FFF79EFEF4E770B5044600F081F994F96C
:10418000455010E0606A08B9012000E0002038B90D
:1041900004F1240001F004FA18B100F09DFB00E0E6
:1041A00003E0681E45B2002DECDC00BFFF2084F860
:1041B000450000F08FF900F063F994F9445010E0E5
:1041C000206908B9012000E0002048B904F110007E
:1041D00001F0E6F908B100F07FFB681E45B200E08F
:1041E00001E0002DECDC00BFFF2084F8440000F06B
:1041F00071F970BD2DE9F04104464FF0000800F060
:104200006BFC4648006808B9FFF7AEFC44480068FC
:10421000204000286BD1D4B1083404F00700B0B1BD
:1042200004F00700C0F10800044404F0070008B9D6
:10423000012000E0002050B900BF502080F3118819
:10424000BFF34F8FBFF36F8F00BF00BFFEE7002C9F
:104250004DD034480068844249D8334E3046056812
:1042600001E02E462D686868A04202D22868002826
:10427000F7D12A480068854239D0306800F1080833
:10428000286830606868001B102819D92F1907F0BA
:10429000070008B9012000E0002050B900BF5020FD
:1042A00080F31188BFF34F8FBFF36F8F00BF00BF44
:1042B000FEE76868001B78606C603846FFF74AFDCF
:1042C000184968680968081A1649086008460068AD
:1042D00016490968884203D21248006813490860E9
:1042E0000F4968680968084368600020286001F089
:1042F000A3F908F0070008B9012000E0002050B938
:1043000000BF502080F31188BFF34F8FBFF36F8F32
:1043100000BF00BFFEE74046BDE8F081700000200E
:104320007C0000207400002068000020780000203D
:104330000648006830B10549096801F15000096D6F
:10434000491C01600148006870470000100000200F
:10435000001F4FF080730360001F21F00103036012
:10436000001F054B036014380260001F6FF002034A
:1043700003602038704700001D41000800B52DED96
:10438000048B83B041EC190B01F028FE41EC180BB3
:1043900018EE100A18EE901A8DED008B002818BF49
:1043A0000120084320F00040C0F17F6000F1E040B0
:1043B000C00F14D019EE101A19EE900A8DED009B63
:1043C000002918BF0121084320F00040C0F17F60A0
:1043D00000F1E040C00F04BF0120FCF788F851EC69
:1043E000180B03B0BDEC048B00BD01460A69D1E98E
:1043F00001309860D1E9010358605068884201D1CA
:1044000088685060002008611068401E10601068C5
:10441000704700F1080141604FF0FF31816000F109
:104420000801C16001610021016070470021016144
:10443000704710B502460B685C1C0CB9106907E0A8
:1044400002F1080000E04068446824689C42FAD900
:1044500044684C604C68A160886041600A611468DF
:10446000641C146010BD42684A6093688B60936856
:1044700059609160086103685B1C0360704700002D
:1044800000BF502080F31188BFF34F8FBFF36F8FB1
:1044900000BF0E480068401C0C49086008460068D0
:1044A000012812D10A480068C0B208B9012000E012
:1044B000002050B900BF502080F31188BFF34F8F08
:1044C000BFF36F8F00BF00BFFEE770478000002082
:1044D00004ED00E00D48006850B900BF502080F3A3
:1044E0001188BFF34F8FBFF36F8F00BF00BFFEE790
:1044F00006480068401E054908600846006820B963
:10450000002080F3118800BF00BF704780000020AA
:1045100070B506463546002E3FD0083D2C461F4953
:1045200060680968084008B1012000E0002050B927
:1045300000BF502080F31188BFF34F8FBFF36F8F00
:1045400000BF00BFFEE7206808B9012000E000209E
:1045500050B900BF502080F31188BFF34F8FBFF3D5
:104560006F8F00BF00BFFEE70C4960680968084014
:1045700098B1206888B90949606809688843606013
:1045800000F0AAFA0649606809680844044908600E
:104590002046FFF7DFFB01F04FF870BD7C000020E4
:1045A00074000020064800684FF47A71B0FBF1F007
:1045B000401E4FF0E021486107200861704700006D
:1045C000BC00002070B5FBF79DFE0446102C16D3EE
:1045D00004F1E02090F8F05315480078854201DBA3
:1045E000012000E0002050B900BF502080F3118866
:1045F000BFF34F8FBFF36F8F00BF00BFFEE70D48C3
:10460000006800F4E0600C490968884201D8012084
:1046100000E0002050B900BF502080F31188BFF3A4
:104620004F8FBFF36F8F00BF00BFFEE770BD00006C
:10463000840000200CED00E08800002002460020ED
:104640000BE0084B53F8303033B9064B43F83010C9
:1046500003EBC0035A6002E0401C0828F1D300BFFE
:1046600070470000E00000202DE9F04105460E46AD
:1046700017462C46FFF704FF94F94400401C10B97C
:10468000002084F8440094F94500401C10B9002033
:1046900084F84500FFF71EFFA06B28B93A46314663
:1046A00004F1240000F03AF92046FFF764FDBDE86C
:1046B000F081000070B504460025D4B112480068AE
:1046C00008B9012000E0002050B900BF502080F35D
:1046D0001188BFF34F8FBFF36F8F00BF00BFFEE79E
:1046E00000F0FAF900212046FFF7C2F800F0A4FF1D
:1046F00005463DB94FF0805004490860BFF34F8F25
:10470000BFF36F8F70BD00004800002004ED00E093
:104710002DE9F04704460F464FF0000954B900BF99
:10472000502080F31188BFF34F8FBFF36F8F00BF0E
:1047300000BFFEE70FB1012000E0002050B900BF2C
:10474000502080F31188BFF34F8FBFF36F8F00BFEE
:1047500000BFFEE72048006808B9012000E0002003
:1047600050B900BF502080F31188BFF34F8FBFF3C3
:104770006F8F00BF00BFFEE700F0AEF91748066874
:104780002068C5192068B04207D92068A8420BD913
:10479000B54209D94FF0010906E02068A84201D8C6
:1047A000B54201D94FF001092560B9F1000F03D0DE
:1047B000A81B0021FFF75CF800F03EFF8046B8F12F
:1047C000000F07D14FF0805005490860BFF34F8FAD
:1047D000BFF36F8FBDE8F087480000202400002061
:1047E00004ED00E070B50546FFF74AFE15B9304804
:1047F000006800E028460446201DFFF7F6FD78B962
:10480000E06A00EB80002B4951F8200040B994F891
:104810002C100120884028490968814326480160FE
:10482000A06A18B104F11800FFF7DFFD2348006803
:10483000401C224908601E480068844209D1211D9D
:104840001F48FFF710FE1F480068401C1D49086004
:1048500009E01D480068401E1B4908602046FFF71C
:1048600066F9FFF7DBFBFFF735FE18480068E8B193
:104870000F480068844219D11548006808B9012022
:1048800000E0002050B900BF502080F31188BFF332
:104890004F8FBFF36F8F00BF00BFFEE74FF0805018
:1048A0000C490860BFF34F8FBFF36F8F70BD0000DE
:1048B0001000002020010020280000203C000020E3
:1048C000E80100201C000020200000202C00002017
:1048D0004800002004ED00E0012001490860704715
:1048E0003400002070B504460D4654B900BF502076
:1048F00080F31188BFF34F8FBFF36F8F00BF00BFEE
:10490000FEE70548016818312046FFF792FD0121B6
:104910002846FEF7ADFF70BD1000002070B50546BB
:104920000E46144655B900BF502080F31188BFF3DE
:104930004F8FBFF36F8F00BF00BFFEE706480168CF
:1049400018312846FFF78FFD0CB14FF0FF36214696
:104950003046FEF78DFF70BD1000002070B5054693
:104960002C46002D4BD02649E06A0968C96A884266
:1049700045D2A06900F0004028B921480068C06A0B
:10498000C0F10700A061E16A01EB81011D4A02EB61
:1049900081016069884201D1012000E0002050B30C
:1049A000201DFFF722FD78B9E06A00EB8000154971
:1049B00051F8200040B994F82C1001208840124989
:1049C00009688143104801600D480068C06AE062D0
:1049D00094F82C10012088400B49096808430A49C3
:1049E0000860E16A01EB8101064A02EB8100211DAA
:1049F000FFF739FD03E002480068C06AE06270BD5D
:104A000010000020200100202800002050B900BF25
:104A1000502181F31188BFF34F8FBFF36F8F00BF19
:104A200000BFFEE703490968016003490968416066
:104A30007047000038000020240000201CB51E48EC
:104A400000210B468222CDE900101CA11D4800F078
:104A500059FC0446012C02D100F070FE0446012CE2
:104A600017D100BF502080F31188BFF34F8FBFF3E1
:104A70006F8F00BF4FF0FF301349086001201349CA
:104A800008600020124908601249086000F092F89E
:104A900010E0601C08B1012000E0002050B900BF08
:104AA000502080F31188BFF34F8FBFF36F8F00BF8B
:104AB00000BFFEE71CBD00004400002049444C45F7
:104AC00000000000E53B0008400000202C00002012
:104AD000240000209000002002480068401C01498A
:104AE00008607047480000202A48006818B101207B
:104AF000294908604CE000202749086027480068E1
:104B000027490860084600682649096888420BD989
:104B10002549096801F15400496D214A1268214B69
:104B20001B68D21A114401601D4800681D490860C5
:104B30001E480068B0FA80F0C0F11F0101EB81004F
:104B40001B4A52F8200008B1012000E0002050B9B3
:104B500000BF502080F31188BFF34F8FBFF36F8FDA
:104B600000BF00BFFEE701EB8102114B03EB8200A7
:104B700042685268426000F108024368934202D1E1
:104B80004268526842604268D268074B1A6000BFB0
:104B900070470000480000203400002090000020F2
:104BA000500000204C0000201000002028000020B1
:104BB000200100201CB5474800684749884201D0C1
:104BC000012000E0002050B900BF502080F3118880
:104BD000BFF34F8FBFF36F8F00BF00BFFEE73D48AD
:104BE00000683D49491E884201D0012000E00020B4
:104BF00050B900BF502080F31188BFF34F8FBFF32F
:104C00006F8F00BF00BFFEE734490846007801906F
:104C1000FF200A4610700846007800909DF80000BA
:104C200000F0F0009DF80020904201D1012000E04A
:104C3000002050B900BF502080F31188BFF34F8F80
:104C4000BFF36F8F00BF00BFFEE79DF8000000F0CC
:104C50005000234A10700720224A106009E02148C2
:104C60000068401E1F4A10609DF800004006000EBC
:104C700000909DF8000000F080008028EFD01948D7
:104C800000680002174A10601046008800F4E060D7
:104C90001060124A019810700E482030006840F4ED
:104CA00070000C49203108600846006840F07040F0
:104CB0000860FFF777FC00200B490860FBF7EAFA71
:104CC0000A48006840F0404008490860FBF7D2FA03
:104CD00000201CBD00ED00E071C20F4100E400E0C7
:104CE00084000020880000208000002034EF00E0D5
:104CF00010B500BF502080F31188BFF34F8FBFF372
:104D00006F8F00BF00F044FB18B14FF08050044992
:104D1000086000BF002080F3118800BF10BD0000B4
:104D200004ED00E02DE9F84305460E4690460DB12E
:104D3000012000E0002050B900BF502080F311880E
:104D4000BFF34F8FBFF36F8F00BF00BFFEE70EB9F9
:104D5000002701E005FB06F707F15000FFF74AFACC
:104D6000044644B104F1500943464A4631462846B8
:104D70000094FEF74BFF2046BDE8F8832DE9FF477E
:104D800082B005460E461F464FF0000A2C4654B925
:104D900000BF502080F31188BFF34F8FBFF36F8F98
:104DA00000BF00BFFEE70EB9206C08B9012000E08B
:104DB000002050B900BF502080F31188BFF34F8FFF
:104DC000BFF36F8F00BF00BFFEE700F0CBFA08B95A
:104DD000049808B9012000E0002050B900BF50201D
:104DE00080F31188BFF34F8FBFF36F8F00BF00BFF9
:104DF000FEE700BFFFF744FBD4F83890B9F1000F8D
:104E00003DD0D4F80C8031462046FEF73DFEDFB998
:104E1000A9F10100A063206810B9FFF789FA60606A
:104E2000206908B9012000E0002010BB04F1100047
:104E300000F0B6FBE8B14FF0805040490860BFF386
:104E40004F8FBFF36F8F14E0C4F80C80606A08B90D
:104E5000012000E0002060B904F1240000F0A0FB74
:104E600038B14FF0805035490860BFF34F8FBFF322
:104E70006F8FFFF72FFB012006B0BDE8F087049885
:104E800018B9FFF727FB0020F6E7BAF1000F04D1AD
:104E90006846FFF7BBFD4FF0010AFFF71BFBFFF76A
:104EA0001BFEFFF7EDFA94F94400401C10B90020F6
:104EB00084F8440094F94500401C10B9002084F89F
:104EC0004500FFF707FB04A9684600F0D5F940BB91
:104ED0002046FEF79FFFF0B1206830B9FFF7D0FA07
:104EE0006068FFF73BFDFFF7F5FA04F12400049931
:104EF000FFF7F8FC2046FFF73EF900F09DFB002885
:104F00007FF478AF4FF080500C490860BFF34F8FAB
:104F1000BFF36F8F6EE72046FFF72DF900F08CFB93
:104F200068E72046FFF727F900F086FB2046FEF7EA
:104F300071FF0028EED000209EE7000004ED00E0A5
:104F400070B505460E462C4654B900BF502080F37C
:104F50001188BFF34F8FBFF36F8F00BF00BFFEE715
:104F6000FFF78EFAD4E90F12206801FB020060609F
:104F70000020A0632068A060E06B401E226C2168C6
:104F800000FB0210E060FF2084F8440084F8450034
:104F90009EB9206908B9012000E00020A8B904F1F9
:104FA000100000F0FDFA80B14FF080500949086010
:104FB000BFF34F8FBFF36F8F07E004F11000FFF7CF
:104FC00028FA04F12400FFF724FAFFF783FA0120FE
:104FD00070BD000004ED00E02DE9FF4383B00646FC
:104FE00088461D464FF00009344654B900BF502092
:104FF00080F31188BFF34F8FBFF36F8F00BF00BFE7
:10500000FEE7B8F1000F01D1206C08B9012000E0E3
:10501000002050B900BF502080F31188BFF34F8F9C
:10502000BFF36F8F00BF00BFFEE7022D02D1E06B20
:10503000012801D1012000E0002050B900BF50201C
:1050400080F31188BFF34F8FBFF36F8F00BF00BF96
:10505000FEE700F087F908B9059808B9012000E0DB
:10506000002050B900BF502080F31188BFF34F8F4C
:10507000BFF36F8F00BF00BFFEE700BFFFF700FA6E
:10508000A06BE16B884201D3022D28D12A4641460C
:105090002046FEF70EFD0746606A08B9012000E0D1
:1050A000002068B904F1240000F07AFA88B14FF0CA
:1050B000805032490860BFF34F8FBFF36F8F08E015
:1050C0003FB14FF080502D490860BFF34F8FBFF3C1
:1050D0006F8FFFF7FFF9012007B0BDE8F083059857
:1050E00018B9FFF7F7F90020F6E7B9F1000F04D17E
:1050F00001A8FFF78BFC4FF00109FFF7EBF9FFF771
:10510000EBFCFFF7BDF994F94400401C10B90020F6
:1051100084F8440094F94500401C10B9002084F83C
:105120004500FFF7D7F905A901A800F0A5F8F0B9E7
:105130002046FEF77CFEA0B104F110000599FFF7B0
:10514000D1FB2046FFF717F800F076FA002895D13A
:105150004FF0805009490860BFF34F8FBFF36F8F46
:105160008CE72046FFF707F800F066FA86E720464E
:10517000FFF701F800F060FA0020ADE704ED00E071
:105180002DE9F05F07468A4690461E463C4654B9D4
:1051900000BF502080F31188BFF34F8FBFF36F8F94
:1051A00000BF00BFFEE7BAF1000F01D1206C08B9C3
:1051B000012000E0002050B900BF502080F311888A
:1051C000BFF34F8FBFF36F8F00BF00BFFEE7022E0C
:1051D00002D1E06B012801D1012000E0002050B98C
:1051E00000BF502080F31188BFF34F8FBFF36F8F44
:1051F00000BF00BFFEE7FFF7E5F900BF5021EFF366
:10520000118081F31188BFF34F8FBFF36F8F00BF01
:105210000546A06BE16B884201D3022E23D194F99D
:1052200045B0324651462046FEF743FC0BF10100E3
:1052300088B9606A08B9012000E0002080B904F153
:10524000240000F0ADF958B1B8F1000F08D00120EA
:10525000C8F8000004E00BF1010040B284F84500FA
:105260004FF0010901E04FF0000900BF85F31188FC
:1052700000BF4846BDE8F09F70B504460D4654B9DE
:1052800000BF502080F31188BFF34F8FBFF36F8FA3
:1052900000BF00BFFEE755B900BF502080F3118862
:1052A000BFF34F8FBFF36F8F00BF00BFFEE7FFF765
:1052B000E7F8124803682868401C08B9002619E07E
:1052C0000F4920680968884204D06068984201D874
:1052D00001260FE06068181A2968884209D22868F8
:1052E0006168591A401A28602046FFF78FFB002694
:1052F00000E00126FFF7EEF8304670BD24000020E4
:10530000380000202DE9FF4F85B0804689461746BA
:10531000DDE912ABB800FEF76DFF064656B160201E
:10532000FEF768FF04460CB1266304E03046FFF741
:10533000EFF800E000247CB10020CDE900ABCDE91E
:1053400002403A4649464046089BFEF774FC204618
:10535000FEF7DAFA012501E04FF0FF35284609B0E3
:10536000BDE8F08F0549096809B9012005E0044945
:10537000096809B9022000E0002070472C000020D5
:105380004800002001490868704700002400002000
:105390002DE9F0414FF0000844480068002877D11B
:1053A00043480068451C4248056015BB41480068F9
:1053B000006808B9012000E0002050B900BF50206B
:1053C00080F31188BFF34F8FBFF36F8F00BF00BF13
:1053D000FEE73848076838480068364908603648AC
:1053E000076036480068401C34490860FEF716FE26
:1053F00000BF3348006885423CD300BF2D48006899
:10540000006808B9012000E0002020B14FF0FF3013
:105410002B4908602DE027480068C068C4686668AA
:10542000B54202D22648066023E0201DFEF7DDFFCC
:10543000A06A18B104F11800FEF7D7FF94F82C10F9
:10544000012088401F49096808431E490860E16A35
:1054500001EB81011C4A02EB8100211DFFF703F8DB
:105460001A49E06A0968C96A8842C7D34FF001083F
:10547000C4E700BF15480068C06A00EB800012490D
:1054800051F82000012801D94FF0010805E0FFE79D
:105490000F480068401C0E4908600E48006808B1BB
:1054A0004FF001084046BDE8F081000048000020B0
:1054B00024000020140000201800002038000020E4
:1054C00040000020280000202001002010000020C3
:1054D000300000203400002070B505462C46002620
:1054E000002D55D02B480068844201D1012000E0F6
:1054F000002050B900BF502080F31188BFF34F8FB8
:10550000BFF36F8F00BF00BFFEE7206D50B900BF33
:10551000502080F31188BFF34F8FBFF36F8F00BF10
:1055200000BFFEE7206D401E2065E16CE06A884206
:105530002ED0206D60BB201DFEF757FF78B9E06AC2
:1055400000EB8000144951F8200040B994F82C1069
:105550000120884011490968814310480160E06CCE
:10556000E062E06AC0F10700A06194F82C1001200D
:1055700088400A490968084308490860E16A01EB64
:105580008101054A02EB8100211DFEF76CFF012617
:10559000304670BD100000202001002028000020AF
:1055A00070B50646F068C46854B900BF502080F357
:1055B0001188BFF34F8FBFF36F8F00BF00BFFEE7AF
:1055C00004F11800FEF711FF15480068A8B9201D66
:1055D000FEF70BFF94F82C10012088401149096850
:1055E000084310490860E16A01EB81010E4A02EBB1
:1055F0008100211DFEF737FF04E004F118010B487C
:10560000FEF731FF0A49E06A0968C96A884204D98D
:10561000012501200749086000E00025284670BDEB
:10562000480000202800002020010020D401002094
:10563000100000203400002070B5002400263648F9
:10564000006850B900BF502080F31188BFF34F8F1E
:10565000BFF36F8F00BF00BFFEE7FEF711FF2E48BC
:105660000068401E2C4908600846006800284FD199
:105670002A48006800284BD024E02948C068C46844
:1056800004F11800FEF7B1FE201DFEF7AEFE94F8FF
:105690002C100120884023490968084321490860EB
:1056A000E16A01EB8101204A02EB8100211DFEF736
:1056B000DAFE1E49E06A0968C96A884202D30120FD
:1056C0001B4908601648006808B9012000E0002066
:1056D0000028D2D00CB1FEF7A1FC1648056865B1D0
:1056E00000BFFFF755FE10B10120114908606D1E83
:1056F000002DF6D100200F4908600D48006838B130
:10570000012630070C490860BFF34F8FBFF36F8F3E
:10571000FEF7E0FE304670BD48000020200000206B
:10572000D4010020280000202001002010000020CB
:10573000340000203000002004ED00E01CB50024FF
:10574000FEF73EF90E48006858B10E4802210023CA
:105750004FF48272CDE900100BA10D48FFF7D2FD86
:10576000044654B900BF502080F31188BFF34F8F17
:10577000BFF36F8F00BF00BFFEE720461CBD0000D7
:105780005C00002060000020546D7220537663009E
:105790005D4100082DE9FE4304460D4616461F46AE
:1057A000DDF828804FF0000954B900BF502080F385
:1057B0001188BFF34F8FBFF36F8F00BF00BFFEE7AD
:1057C0001448006810B3009501960294062D15DA6E
:1057D000FFF7C8FD022808D10023424669460D485C
:1057E0000068FFF7F9FB814610E000231A4669467E
:1057F00008480068FFF7F0FB814607E000233A46BF
:10580000694604480068FFF7BBFC81464846BDE88E
:10581000FE8300005C00002081F00041704780F0B2
:105820000040704721F00041704720F00040704771
:1058300010B591EA030F48BF83F0004300F1A28442
:10584000841A71EB030C05D2121943EB0C03001BF5
:1058500061EB0C01DFF824E14FEA1154A4EB135C77
:105860001EEA430F18BF9EEA445F73D023EA0E037B
:10587000DCF1200E21EA045143F4801332D322FAE2
:105880000CFE10EB0E0023FA0CFE41EB0E01CCF1E6
:10589000200E03FA0EFE10EB0E0051F10001B1F5DF
:1058A000801FCCF1200E32D201EB045112FA0EF21D
:1058B000BDE8104058BF7047401C38BF5FEA420245
:1058C00018BF7047002814BF20F0010041F100010B
:1058D0004FEA410313F5001F38BF7047A1F1C041E3
:1058E00000F034BB012A43EB0302ACF1200CDCF1E5
:1058F0001F0E32BF4FF0000E23FA0CF310EB030023
:1059000041EB0451B4EB115FD0D0A1EB045101F590
:10591000801149085FEA300001EB04510ED350F1C9
:10592000000038BF12FA0EFE08D1BDE81040C9E7EA
:10593000401C38BF5FEA4202CAD1C3E7BDE810404D
:105940004FEA410313F5001F38BF7047A1F1C04172
:1059500000F0FCBA9EEA445F08D011EA5E0FBDE891
:10596000104004BF01F0004100207047BDE8104026
:1059700070B500F09DFA00BF64FBBE3E0000E0FF82
:1059800002494FF0000000F0E4BC00BF0000F87FC7
:10599000491058BFC1F140415B1058BFC3F14043AB
:1059A0008B42EFF3008070472DE9C04130B4DFF83F
:1059B000A0C23CEA111418BF3CEA131400F0EC80BA
:1059C00081EA03051CEA111444EAD57418BF1CEAE5
:1059D000131500F0C780A4EB05044FF0004545EA1D
:1059E000C12145EAC32341EA505143EA525304F12D
:1059F0007F74994204F500344FEAC0204FEAC22276
:105A000008BF904200F09C804FEA13650FF24016E9
:105A1000765D4FEA134506FB05F7C7F1807706FB75
:105A200007F74FEAD737A7FB03687642C8F58038F7
:105A3000A7FB06CE38BFA8F1010807FB08E64FF028
:105A4000000EA6FB028CE6FB03CEDCF1000CCEF1CF
:105A5000004E38BFAEF1010EA6FB0C584FF0000708
:105A60004FF00005E6FB0E87A1FB08C6A0FB07CEA2
:105A700016EB0E0645F10005E1FB076515F1E04E5A
:105A80007EBFA4F580345FEA46066D4116F18007BB
:105A900045F100054FEA17274FEA066647EA056712
:105AA000A6F1DE46B6F1805F4FEA15251FD93846CC
:105AB00024F0010C05EBC471BCF1FE6F01EB0C117D
:105AC00002D8F0BCBDE8008124425CBF01F5801E15
:105AD0009EEAC47F02D4F0BCBDE80081244238D4E1
