:020000040800F2
:10000000E05901208D030008053F0008E531000894
:10001000993C0008A51A00084D6A0008000000007D
:10002000000000000000000000000000A102000825
:10003000BD27000800000000F5020008394800084C
:10004000A7030008A7030008A7030008A7030008E8
:10005000A7030008A7030008A7030008A7030008D8
:10006000A7030008A7030008A7030008A7030008C8
:10007000A7030008A7030008A7030008A7030008B8
:10008000A7030008A7030008A7030008A7030008A8
:10009000A91A0008A7030008A703000815280008EC
:1000A000A7030008A7030008A7030008A703000888
:1000B000B1480008A7030008A7030008A703000829
:1000C000A7030008A7030008A7030008A703000868
:1000D000A703000885680008A7030008DD6800087A
:1000E000A7030008A7030008A7030008A703000848
:1000F000A7030008A7030008A7030008A703000838
:10010000A7030008A7030008A7030008A703000827
:10011000A7030008A7030008A7030008A703000817
:10012000A7030008A7030008A7030008A703000807
:10013000A7030008A7030008A7030008A7030008F7
:10014000B91A0008A7030008A7030008A7030008BE
:10015000A7030008A7030008A7030008F168000828
:10016000A7030008A7030008A7030008A7030008C7
:10017000A7030008A7030008A70300080000000069
:10018000A7030008A70300085D680008716800085D
:10019000A7030008A7030008A7030008A703000897
:1001A0000000000000000000A703000800F002F8B3
:1001B00000F067F80AA090E8000C82448344AAF19A
:1001C0000107DA4501D100F05CF8AFF2090EBAE898
:1001D0000F0013F0010F18BFFB1A43F0010318477B
:1001E00068BC000088BC00000A444FF0000C10F806
:1001F000013B13F0070408BF10F8014B1D1108BFA5
:1002000010F8015B641E05D010F8016B641E01F844
:10021000016BF9D113F0080F1EBF10F8014BAD1C94
:100220000C1B09D16D1E58BF01F801CBFAD505E0B2
:1002300014F8016B01F8016B6D1EF9D59142D6D30C
:10024000704700000023002400250026103A28BF34
:1002500078C1FBD8520728BF30C148BF0B60704738
:10026000782900F02B81002070471FB50BF019FB97
:100270009DE8030000F0DCFA00F0E9F91FBD10B5BD
:1002800010BD00F0F5FB1146FFF7EFFF08F096F800
:1002900000F013FC03B4FFF7F2FF03BC00F044FCD2
:1002A0002A4B19680868B0E8F04F80F30988BFF35B
:1002B0006F8F4FF0000080F311887047000000003E
:1002C00006480068006880F3088862B661B6BFF32C
:1002D0004F8FBFF36F8F00DF00BF00BF08ED00E05E
:1002E000DFF80C00016841F470010160704700BF45
:1002F00088ED00E0EFF30980BFF36F8F134B1A68AE
:100300001EF0100F08BF20ED108A20E9F04F10609A
:1003100008B44FF0500080F31188BFF34F8FBFF344
:100320006F8F09F053FC4FF0000080F3118808BC78
:1003300019680868B0E8F04F1EF0100F08BFB0EC65
:10034000108A80F30988BFF36F8F70471000002078
:10035000EFF30580704700000B49D1F800C04A68F0
:100360005CF8043B1068184442F8040B8C4528BF25
:10037000A1F1DC0C8A4228BFA1F1DC02C1F800C067
:100380004A6020F0004070477845012009488047C6
:1003900009480047FEE7FEE7FEE7FEE7FEE7FEE767
:1003A000FEE7FEE7FEE7FEE704480549054A064B7F
:1003B0007047000049480008AD010008E0450120F1
:1003C000E0590120E0550120E055012070B50646B6
:1003D00000F012FA056806F10B0020F00704B442A1
:1003E0009CBF002070BD2B466A68BAB11068A0425D
:1003F00010D304F1080188423CBF5068586007D30D
:100400005168101941601168091B0160586014603F
:10041000101D70BD13465268002AE7D121462846B8
:1004200000F0F2F90028DED170BD00000FB40449DD
:1004300010B503AA029800F0DBFA10BC5DF814FBBB
:100440002C0100200FB41CB5074B06AA7B4469465B
:100450000090059800F0B3FA0020694600F0C2FA57
:100460001CBC5DF814FB00009505000070B5044647
:1004700085690068C10601D5302600E02026C00746
:1004800007D070BDD4E9012130469047206A401C56
:1004900020626D1EF6D570BD70B504468569007882
:1004A000C00707D170BDD4E9012120209047206A00
:1004B000401C20626D1EF6D570BD000070B504466C
:1004C0000D4621461068AFF300802188090502D54A
:1004D0000F4A7A4402E00E4A7A440E32002104F1B7
:1004E000240305E000F00F060009965D5E54491CE8
:1004F0000028F7D120780023000704D5702D02D002
:1005000009B1022311322046BDE8704000F0F8B96D
:10051000D2B700002DE9F0474FF0000A89460446A3
:10052000C0F820A02046E1688847002876D025281A
:1005300006D0D4E901219047206A401C2062F1E7EF
:10054000E168204600258847C4F81CA0064600271D
:10055000C4F818A02A2E09D0304607F06DFE38B333
:1005600004EB8708303EC8F8186019E059F8041BFE
:10057000204604EB87029161E1688847012F064617
:1005800018D1E069002820DA25F020051DE0D8F810
:10059000180000EB800006EB40003038C8F8180067
:1005A0002046E1688847064607F046FE0028EED15F
:1005B000012F0AD02E2E08D12046E16888477F1CE3
:1005C0000646022F45F02005C4DBA069002803DAA7
:1005D000404245F00105A061E80701D025F0100573
:1005E000B6B1A6F14100192802D8203645F40065BD
:1005F0004A463146204625604D46FFF731FE58B148
:10060000012806D0ED1D25F0070000F1080989E753
:1006100004E005F1040985E730468AE7206ABDE871
:10062000F08700000B4910B5A1F17C020A4CC2E929
:100630003712372106E000EB104342F82130074B18
:1006400000FB03400B1EA1F10101F4DC10BD0120F1
:10065000E8E7000018450120E119D666CD0D01003C
:10066000032A40F2308010F0030C00F0158011F8DE
:10067000013BBCF1020F624498BF11F801CB00F8B6
:10068000013B38BF11F8013BA2F1040298BF00F80A
:1006900001CB38BF00F8013B11F0030300F02580C7
:1006A000083AC0F0088051F8043B083A51F804CBEE
:1006B000A0E80810F5E7121D5CBF51F8043B40F8B4
:1006C000043BAFF30080D20724BF11F8013B11F8BF
:1006D00001CB48BF11F8012B24BF00F8013B00F803
:1006E00001CB48BF00F8012B704710B5203AC0F08D
:1006F0000B80B1E81850203AA0E81850B1E8185023
:10070000A0E81850BFF4F5AF5FEA027C24BFB1E85F
:100710001850A0E8185044BF18C918C0BDE81040D0
:100720005FEA827C24BF51F8043B40F8043B08BFD9
:100730007047D20728BF31F8023B48BF11F8012BA0
:1007400028BF20F8023B48BF00F8012B704702F099
:10075000FF0343EA032242EA024200F002B84FF0EC
:1007600000020429C0F0128010F0030C00F01B807E
:10077000CCF1040CBCF1020F18BF00F8012BA8BF8C
:1007800020F8022BA1EB0C0100F00DB85FEAC17C50
:1007900024BF00F8012B00F8012B48BF00F8012B03
:1007A00070474FF0000200B5134694469646203934
:1007B00022BFA0E80C50A0E80C50B1F12001BFF41A
:1007C000F7AF090728BFA0E80C5048BF0CC05DF880
:1007D00004EB890028BF40F8042B08BF704748BFCE
:1007E00020F8022B11F0804F18BF00F8012B704742
:1007F00070477047704700000048704788450120E7
:10080000704770477047704738B504460A46002065
:100810006946AFF30080002808BF38BD0246009942
:10082000204600F0FFF8012038BD012000F018B983
:10083000F8B5AFF30080054600200C46102000BF3D
:100840000646A819A0420DD9324669460020AFF3EA
:100850000080070008BF00F003F90098A04218BF0D
:100860000546C419FFF7C8FF05600746F01D20F0D4
:1008700007004619284600F00AF8B44208BFF8BD40
:10088000A21B31463868BDE8F84000F0CBB8002123
:100890000160C0E9011070471020704770B5044630
:1008A000051FFFF7A9FF0068002C14BF446870BD46
:1008B000002C18BFAC423CBF20466468F8D30168E6
:1008C0000A18AA4218BF456003D12A680546114498
:1008D000016028684119A1421CBF6C6070BD61684D
:1008E000696021680844286070BD10B500F096F872
:1008F000006810BD10B5044600F090F8046010BD0B
:100900002DE9F0470D4699469246044600F1240829
:100910000168880604D5E06921F01001216000E03B
:100920000120A84201DD471B00E00027A1697A19D8
:1009300002EB0900081AA0612078C00602D4204604
:10094000FFF794FD002608E0D4E901211AF806001B
:100950009047206A401C761C20624E45F4DB2078CC
:10096000C0060AD52046FFF781FD06E0D4E9012143
:1009700030209047206A401C2062381EA7F10107F2
:10098000F4DC07E0D4E9012118F805009047206A5B
:10099000401C2062281EA5F10105F3DC2046FFF76C
:1009A0007BFD2078000602D50220BDE8F0870120FB
:1009B000FBE7000001694A1C02610878704700B536
:1009C0008FB0CDE901310021059105497944CDE988
:1009D000031011466846FFF79DFD0FB000BD0000F3
:1009E000E5FFFFFF0A6802F8010B0A60704700008C
:1009F000074B70B50D467B44FFF7E1FF04462846E0
:100A000000F02AF810B14FF0FF3070BD204670BDE5
:100A10006B7900000048704780450120004870470E
:100A200080450120034640688C46002818BF884254
:100A30003CBF03464068F8D318681844884207D082
:100A40000CF1030020F00700001D411A521A014664
:100A5000081D0A60FFF722BF007B00F0800070478E
:100A600010B500F039F8BDE8104000F02FB870471D
:100A70007546FFF7CFFFAE4605006946534620F0A6
:100A80000700854618B020B5FFF78EFCBDE8204072
:100A90004FF000064FF000074FF000084FF0000B3A
:100AA00021F00701AC46ACE8C009ACE8C009ACE8ED
:100AB000C009ACE8C0098D46704710B50446AFF3D5
:100AC00000802046BDE81040FFF7E4BB002801D0BD
:100AD00000F02AB87047000010B5012805D00021A9
:100AE00003A000F027F8012010BD09A1F8E70000DD
:100AF00053494752544D454D3A204F7574206F6607
:100B00002068656170206D656D6F7279000000006E
:100B10003A2048656170206D656D6F727920636F52
:100B2000727275707465640001491820ABBEFEE7EF
:100B30002600020070B505460C460A2000E06D1C38
:100B400000F011F835B128780028F8D102E0641CD3
:100B500000F009F814B120780028F8D1BDE8704001
:100B60000A20AFF3008008B569468DF80000032025
:100B7000ABBE08BD00B58BB00121402003F004FDE1
:100B80000121802003F0F0FC092206211F4801F01A
:100B9000D7FF4020099002208DF8280003208DF80F
:100BA000290000208DF82A0001208DF82B0009A9CA
:100BB000164801F07DFF5920ADF818000020ADF86F
:100BC0001A00012007900020ADF8200006A9104867
:100BD00004F018F86020ADF804000120ADF806001C
:100BE0000020ADF8100001A9094803F0BFFE08215C
:100BF000074803F0F9FE0121054803F06FFE0121CB
:100C0000034803F07DFE0BB000BD0000001C024055
:100C10000018004000B58BB00121082003F0A4FCAF
:100C200002208DF8280000208DF82A00032009906A
:100C300001208DF82B0003208DF8290009A96848B0
:100C400001F036FF09220021654801F079FF0922F1
:100C50000121634801F074FF0121022003F084FCAC
:100C600002208DF8280000208DF82A004FF4405013
:100C7000099001208DF82B0003208DF8290009A987
:100C8000584801F015FF09220C21564801F058FF81
:100C900009220D21534801F053FF0121480603F0BA
:100CA00073FC0121880603F06FFC00208DF81F0003
:100CB0008DF8200008208DF81C0004208DF81D0000
:100CC00000208DF81A008DF821000320ADF81800DF
:100CD00000208DF822008DF81B008DF81E008DF885
:100CE000230006A9404800F07CFF01208DF8150084
:100CF0000020ADF81000ADF80800ADF80A00ADF81E
:100D00000C00ADF80E008DF813008DF812000120D4
:100D10008DF8140002A800F0D7FE01208DF81F0006
:100D200000208DF8200008208DF81C0004208DF88C
:100D30001D0000208DF81A008DF821000320ADF869
:100D4000180000208DF822008DF81B008DF81E0081
:100D50008DF8230006A9254800F043FF01208DF8F7
:100D600015000020ADF81000ADF80800ADF80A003D
:100D7000ADF80C00ADF80E008DF813000E208DF8C4
:100D8000120001208DF8140002A800F09DFE14202E
:100D90008DF8040001208DF807008DF80500002073
:100DA0008DF8060001A803F0AFF8012202210E48D9
:100DB00000F00EFF40208DF8040001208DF80700A0
:100DC0008DF8050000208DF8060001A803F09CF8BE
:100DD00001220221054800F0FBFE0BB000BD00001F
:100DE000000C024000040240006400400068004023
:100DF00010B59AB0044640F2244025490822252324
:100E0000CDE90632CDE90810042010210222214B41
:100E1000CDE90232CDE90410802007210B460A46B5
:100E2000CDE9001002211C4800F074FB0122402192
:100E3000194805F073FD0121880503F095FB4FF07B
:100E400000600B901448001D0C900D9400200E9033
:100E500013200F90002010904FF48060119000201C
:100E60001390129014904FF480301590002016903B
:100E7000032017900020189019900BA9074801F043
:100E80006FFC0121054801F0FBFB1AB010BD00000A
:100E9000A0860100000402400010014040640240AE
:100EA00070B598B004460D46164604EBC4002C4AB3
:100EB00002EB800124220FA8FFF717FC0A2C0DDAA1
:100EC0009DF8400028B9012280210F9805F026FDE9
:100ED00004E0012240210F9805F020FD21491198DE
:100EE000884204D10121480503F03EFB03E00121C3
:100EF000880503F039FB002C04DB092C02DC0F9879
:100F0000001D01909DF8400030B940200390002062
:100F10000B9003200C9005E00020039004200B9020
:100F200010200C90149800900295049600200590D3
:100F30004FF48060069000200890079009904FF4CD
:100F400080300A9000200D900E906946129801F0B2
:100F500007FC0121129801F093FB18B070BD00004E
:100F6000A40100200060024000B585B001212020CE
:100F700003F0FAFA01208DF8100000208DF812001D
:100F80004FF48060039001208DF8130003208DF84A
:100F9000110003A93D4801F08BFD0121880303F0F6
:100FA00003FB0121202003F0DFFA01208DF810005F
:100FB00000208DF812004FF42070039001208DF86E
:100FC000130003208DF8110003A9304801F070FDD3
:100FD00000208DF810008DF81200402003900120B1
:100FE0008DF8130003208DF8110003A9274801F0A4
:100FF0005FFD00208DF810008DF812004FF4807016
:10100000039002208DF8130003208DF8110003A92E
:101010001E4801F04DFD0121022003F0A5FA4FF416
:101020008070039000208DF810008DF812000120D0
:101030008DF8130002208DF8110003A9144801F067
:1010400037FD17208DF8080008208DF809000020D2
:101050008DF80A0001208DF80B0002A802F054FF61
:101060000821012003F024FB4FF480700090002041
:101070008DF804000C208DF8050001208DF8060085
:10108000684601F0F3FB05B000BD0000001402400B
:10109000000402401CB50121402003F065FA4FF422
:1010A000FF70009001208DF8040000208DF80600EC
:1010B00003208DF8050001208DF8070069460448DB
:1010C00001F0F6FC4FF4FF71014801F067FD1CBD13
:1010D000001802401CB50121402003F045FA012010
:1010E0008DF8040000208DF806004FF400500090A9
:1010F00001208DF8070003208DF80500694602489D
:1011000001F0D6FC1CBD000000180240F0B58BB009
:1011100004460D4616461F460121606903F024FA75
:10112000227A238A99B2E06901F00AFD208B0690A9
:1011300002208DF81C0003208DF81D0000208DF882
:101140001E0001208DF81F0006A9E06901F0B0FC27
:101150003749206A884203D03649206A884204D140
:101160000121206803F020FA03E00121206803F048
:101170000BFA681E80B2ADF820000020ADF8220006
:10118000701E09900020ADF8280008A9206A03F01D
:1011900039FD7020ADF804000120ADF80600ADF86F
:1011A000107005200390607A012808D101A9206AF7
:1011B00003F0DCFB0821206A03F016FC22E0607AD1
:1011C000022808D101A9206A03F018FC0821206A2E
:1011D00003F066FC16E0607A032808D101A9206AB2
:1011E00003F06CFC0821206A03F0B8FC0AE0607A86
:1011F000042807D101A9206A03F0BAFC0821206A5B
:1012000003F0F2FC0121206A03F068FB0121206A4F
:1012100003F076FB0649206A884203D00549206A1C
:10122000884203D10121206A03F076FB0BB0F0BDA8
:1012300000000140000401400A0F0260C1F3036294
:101240004FF0804303EB0242C1F3035302EB03224E
:101250004260C1F303420272C1F303324272C1F32E
:1012600007120E4B03EB0222C26001F00F02026173
:10127000C1F30712930801229A40426101F00F0363
:1012800001229A400283427A302303EB8202827663
:10129000C268C261426802627047000000000240FA
:1012A0007CB504460D460121202003F05DF90120A4
:1012B0008DF8040000208DF80600012000908DF8C4
:1012C000070003208DF805006946454801F0F0FB52
:1012D00000208DF804008DF80600022000908DF8A3
:1012E000070003208DF8050069463D4801F0E0FB4A
:1012F0000121102003F038F901208DF804000020AE
:101300008DF8060041F21000009001208DF80700D2
:1013100003208DF805006946324801F0C9FB002022
:101320008DF804008DF806006020009002208DF8F2
:10133000070003208DF8050069462A4801F0B8FB34
:101340000121022003F010F901208DF80400002093
:101350008DF80600012000908DF8070003208DF81D
:1013600005006946204801F0A3FB0121042003F099
:10137000FBF800208DF804008DF806000420009092
:1013800002208DF8070003208DF8050069461748F4
:1013900001F08EFB0121124801F000FC41F2100126
:1013A000104801F0FBFB01210F4801F0F7FB202161
:1013B0000C4801F0E8FB06460221094801F0E3FB76
:1013C00046EA400020700421084801F0DCFB064694
:1013D0004021044801F0D7FB46EA400028707CBD5C
:1013E00000140240001002400004024000080240C5
:1013F00000B587B00121084603F0B6F80122114676
:10140000224801F09DFB022005908DF81800032072
:101410008DF8190000208DF81A0001208DF81B00AE
:1014200005A91A4801F044FB0121084603F0ACF875
:101430000120039042F22730ADF808000020ADF8FB
:101440000A00ADF8100002A94FF0804003F0DAFB6B
:101450000121880703F054FA1C208DF804000720AE
:101460008DF8050000208DF8060001208DF807009A
:1014700001A802F049FD01221146900703F06CFA21
:101480000121880703F036FA07B000BD00000240D2
:1014900030B58BB004460D460220522107AA31C256
:1014A00006910C2049070122084BCDE90232CDE913
:1014B00004104001082107230A46CDE9001010213D
:1014C000034800F027F80BB030BD000000100240C8
:1014D0000078004030B58BB004460D4607205321FC
:1014E00007AA31C206910C2041070122074BCDE922
:1014F0000232CDE9041003200023CDE900200822A8
:101500001021034800F006F80BB030BD0010024077
:10151000007C00402DE9F04F87B080460C46914694
:101520001D46DDE918B7DDF840A0139E01212046D5
:1015300003F01AF84A462946129801F001FB4A4680
:101540005146129801F0FCFA1198059002208DF88E
:1015500018008DF8190000208DF81A0001208DF870
:101560001B0005A9129801F0A3FA012E04D1012154
:10157000149803F009F805E0022E03D10121149814
:1015800003F012F8CDF804B00020ADF81000159863
:10159000ADF80E000020ADF80800ADF80A00ADF877
:1015A0000C0001A9404605F0E7F90121404605F08D
:1015B000A9F9B7B11698C0B28DF800001798C0B25B
:1015C0008DF8010000208DF8020001208DF8030045
:1015D000684602F099FC01223946404605F0A7F919
:1015E00000BF07B0BDE8F08F1CB50121802002F0DC
:1015F000BBFF01208DF8040000208DF806003C2080
:10160000009001208DF8070003208DF80500694641
:10161000094801F04DFA0421074801F0BFFA0821FA
:10162000054801F0BBFA1021034801F0B7FA202168
:10163000014801F0B3FA1CBD001C024070470000D5
:101640002DE9F04107460E4614469846B4F5407F12
:101650000FD2B4F5FF7F0CD9A4F20120012E01D1E5
:101660000C2100E00021084407EB8000C0F8008056
:1016700031E04546022E0DD0A4F5A060012E01D127
:10168000052100E00021014407F1600000EB81002A
:1016900005601CE0C4EBC401104A11448878802224
:1016A00005F19001FFF7FCFBC4EBC4010B4A1144A8
:1016B0004878802205F10D01FFF7F2FBC4EBC4006E
:1016C0000649095C07F1880000EB81000560C5F858
:1016D00001402E7000BFBDE8F081000064070020CB
:1016E0002DE9F04107464FF0FF3600240EE007EBEE
:1016F000840005684DB108F03DFFE989401A64286F
:1017000003D966B20020287402E0641C182CEEDBBA
:1017100000BF701C68B10C2E04DA81B2F02002F018
:1017200013F808E0A6F10B0081B20F2002F00CF8CC
:1017300001E001F05BFFBDE8F08100002DE9F0431E
:1017400085B007460E460EB9224900E022490846F8
:101750006A46002100F0CFFA009DB5F5407F14D213
:10176000B5F5FF7F11D9A5F20120012E01D10C2181
:1017700000E00021084407EB8000D0F800900DF154
:101780000B01484602F0A0FA21E000241BE0A5F579
:10179000A060012E01D1052100E00021014407F1E4
:1017A000600000EB8100D0F800800CB9012000E05F
:1017B0000020A8F8A0010DF10B00015D404602F0E9
:1017C000A9FD601C84B29DF80A00A042DFDC05B0D0
:1017D000BDE8F08300640040006800402DE9F04758
:1017E00007468A461446C4EBC4002049095C07F149
:1017F000880000EB81000668C4EBC4001B49084464
:10180000D0F80300B0F80490C4EBC4000844D0F84A
:101810000300B0F80090C4EBC401144A1144887866
:1018200000F03AFFC4EBC401104A1144887800F07C
:101830007BFFC0F180001FFA80F800250AE001203C
:10184000A6F8A00106F19000415D304602F062FD6D
:10185000681C85B24545F2DBC4EBC401034A114460
:101860008878802100F02CFFBDE8F0876407002015
:101870002DE9FC5F80460F464046FFF731FF00240C
:101880007DE00CB1012000E000208346002573E0DC
:1018900000203D49086000263AE03C4800EBC500C6
:1018A00030F816A0AAF20120BBF1010F01D10C21E2
:1018B00000E00021084408EB80000068344908601B
:1018C0000846006850B10846006890F8280028B122
:1018D00008460068007C08B1012000E00020814635
:1018E000B9F1000F04D02A480068B0F92A0000E0DE
:1018F0000020284921F816002348006810B9B9F1E2
:10190000000F01D0012000E000201F490860761C74
:10191000042EC2DB1C480068D8B1D7B91D48B0F905
:1019200006001C49B1F90410DFF868C0CDE90010C9
:10193000BCF90230BCF90020DFF85CC03CF815C0EF
:101940000FFA8CF1DFF854C05CF8240000F02EFB95
:1019500011E00D48006870B16FB1002000900E4A90
:10196000019032F8152011B20C4A52F824000023DD
:101970001A4600F01BFB6D1C032D89DB641C022C36
:10198000FFF67FAFBDE8FC9FCC070020B207002028
:10199000D0070020D4070020AC070020A4070020B7
:1019A000F0B589B007460D461646A8B202F0B8FB5E
:1019B00004462A460EA103A8FEF744FDA06910B113
:1019C000A06907F081FF276100EE106AB8EE400AB7
:1019D00010EE100A6061A069062123464FF4FA72E6
:1019E000CDE9001003A9084808F084FD09B0F0BD56
:1019F0005461736B5F53656E645F50726F746F6395
:101A00006F6C5F2533780000C56700082DE9F04151
:101A100004460E46D4F8017094F8008094F88F00C4
:101A200010B10020BDE8F081012084F88F00B8F1EA
:101A3000020F15D0B1B2204602F0C4FB85B205F109
:101A400009018BB2B8F1000F01D1134900E013492D
:101A5000084604F10D0240F2015100F0E7FA15E0EA
:101A6000C7EBC7010E4A1144487800F015FEB1B229
:101A7000204602F0A7FB85B205F1090291B2C7EB3F
:101A8000C702074B1A44507800F01AFE002084F871
:101A90008F000120C6E7000000640040006800409D
:101AA0006407002000BFFEE710B500210148FFF7E2
:101AB00045FE10BD0444012010B501210148FFF787
:101AC0003DFE10BD0444012010B50021837A01229F
:101AD00002FA03F13D4A126842F001023B4B1A60E0
:101AE0003A4A1C3212688A43384B1C331A60027B14
:101AF000CAB9364A0C3212688A43344B0C331A6026
:101B00004288C38842EA0343304A4032847A42F82A
:101B100034300288838842EA03432C4A4032847A74
:101B200002EBC4025360027B012A19D1274A0C320E
:101B300012680A43254B0C331A604288038842EA34
:101B40000343224A4032847A42F83430C288838880
:101B500042EA03431D4A4032847A02EBC4025360D6
:101B6000C27A3AB9194A121D12688A43174B1B1DD3
:101B70001A6006E0154A121D12680A43134B1B1D1A
:101B80001A60028932B9114A143212688A430F4B23
:101B900014331A600289012A06D10C4A14321268E1
:101BA0000A430A4B14331A60427B012A06D1074AC2
:101BB0001C3212680A43054B1C331A60034A126830
:101BC00022F00102014B1A6010BD000000660040C7
:101BD0001AB143690B43436102E043698B4343619C
:101BE000704730B5024600200023146824F0020438
:101BF0001460146844F00104146000E05B1C546835
:101C000004F001041CB94FF6FF74A342F6D15468E6
:101C100004F001040CB900206CE08C79012C04D193
:101C2000146844F08004146003E0146824F0800415
:101C30001460CC79012C04D1146844F04004146081
:101C400003E0146824F0400414600C7A012C04D1E1
:101C5000146844F02004146003E0146824F02004A5
:101C600014604C7A012C04D1146844F01004146000
:101C700003E0146824F0100414608C7A012C04D161
:101C8000146844F00804146003E0146824F00804A5
:101C90001460CC7A012C04D1146844F0040414605C
:101CA00003E0146824F0040414608C78A407CD7851
:101CB00044EA05640D7944EA05444D7944EA055443
:101CC0000D886D1E2C43D461146824F00104146047
:101CD000002300E05B1C546804F001041CB14FF6C3
:101CE000FF74A342F6D1546804F001040CB1002043
:101CF00000E0012030BD10B500F5D87303EB0113EF
:101D00001B6803F004031372137A53B900F5D873F8
:101D100003EB01131B6840F2FF7404EA5353136092
:101D200009E000F5D87303EB01131B686FF0604402
:101D300004EAD303536000F5D87303EB01131B6867
:101D400003F00203537200F5D87303EB01135B68D1
:101D500003F00F03937200F5D87303EB01135B6874
:101D60001B0AD37400F5D87303EB01139B68D3727D
:101D700000F5D87303EB01139B681C0A147300F57C
:101D8000D87303EB01139B681C0C547300F5D873D4
:101D900003EB01139B681B0E937300F5D87303EBE1
:101DA0000113DB68D37300F5D87303EB0113DB6811
:101DB0001C0A147400F5D87303EB0113DB681C0CC8
:101DC000547400F5D87303EB0113DB681B0E937496
:101DD00021B9C36843F02003C36003E0036943F003
:101DE0002003036110BD10B502460020936803F084
:101DF0008063B3F1806F00D110E0936803F000635B
:101E0000B3F1006F01D1012008E0936803F0805323
:101E1000B3F1805F01D1022000E00420042874D0D7
:101E200002F5C07303EB00131B6803F0010402F515
:101E3000C07303EB00131C600B7A7BB94B7A0C88E0
:101E400043EA445302F5C07404EB001424682343AE
:101E500002F5C07404EB0014236010E00B7A4C68A8
:101E600043EAC4034C7A234302F5C07404EB001424
:101E70002468234302F5C07404EB001423608B7ABA
:101E800003F00F038B7202F5C07303EB00135B6862
:101E900023F00F0402F5C07303EB00135C6002F53E
:101EA000C07303EB00135B688C7A234302F5C074A4
:101EB00004EB001463608B7B1C064B7B44EA0344F9
:101EC0000B7B44EA0323CC7A234302F5C07404EB72
:101ED0000014A3608B7C1C064B7C44EA03440B7CFF
:101EE00044EA0323CC7B234302F5C07404EB0014C3
:101EF000E36002F5C07303EB00131B6843F00104B9
:101F000002F5C07303EB00131C6010BD10B5024650
:101F1000002321B1012907D002290FD109E09068DF
:101F20001D4C00EA04030BE090681C4C00EA04031B
:101F300006E090681A4C00EA040301E0002300BFA9
:101F400000BF184C181BA34216D007DC83B16FF0FA
:101F50008060184470B1022818D111E0B0F5007FFC
:101F600010D0114C204448B1B0F5003F0ED10BE029
:101F700002230DE000230BE0002309E0002307E02B
:101F8000012305E0012303E0012301E0002300BF5A
:101F900000BFD8B210BD0000030000040003000819
:101FA00000000310000100080001FFF72DE9F047D1
:101FB00086B082460C4615461E46DDE90E89B4F50C
:101FC000006F04DA019400208DF80C0003E0029405
:101FD00004208DF80C0000208DF80D0008208DF8ED
:101FE0000E00280A8DF80F008DF81050310A8DF878
:101FF00011108DF812604FEA18218DF813108DF82A
:1020000014804FEA19218DF815108DF8169001A94A
:102010005046FFF7E8FE074600BF39465046FFF737
:1020200075FF0128F9D106B0BDE8F0872DE9F04130
:1020300086B00746884615461E46002438E008202C
:1020400000FB0450407815F8341040EA012002905B
:10205000082000FB0450C078082101FB0451897856
:1020600040EA01200390082000FB04504079082139
:1020700001FB0451097940EA01200490082000FB8B
:102080000450C079082101FB0451897940EA0120FC
:102090000590059800B2049909B2CDE900100398A3
:1020A00003B2029802B241463846FFF77FFF641C34
:1020B000F11706EB5171012202EBE101A142BEDCF6
:1020C00006B0BDE8F0810000DFED2C0AB0EE600A3A
:1020D000D0ED030A90ED021A70EEC10A90ED041AD9
:1020E000DFED271A41EE610A60EE800AFDEEE00A9C
:1020F00010EE901A09B20180D0ED030A90ED021A99
:1021000070EE810A90ED041ADFED1D1A41EE610AAE
:1021100060EE800AFDEEE00A10EE901A09B24180EE
:10212000D0ED030A90ED021A70EEC10A90ED041A88
:10213000DFED131A41EE210AB1EE401A60EE810A7A
:10214000FDEEE00A10EE901A09B28180D0ED030A8C
:1021500090ED021A70EE810A90ED041ADFED081A74
:1021600041EE210AB1EE401A60EE810AFDEEE00A6E
:1021700010EE901A09B2C1807047000009AC7C4390
:10218000B81EC53E10B52DED088B0446B0EE40AA32
:10219000B0EE4A0A07F092FDB0EE40BAF0EE60BA37
:1021A00051EC1B0B08F03CFC08EE100AB0EE4A0A9A
:1021B00007F072FDB0EE40BAF0EE60BA51EC1B0BC6
:1021C00008F02EFC08EE900A94ED020AB0EE409A58
:1021D00094ED030AF0EE409A29EEA80A09EE480AA7
:1021E00084ED030A29EE880A09EE280A84ED020A22
:1021F000BDEC088B10BD000010B504469FED1B0A16
:1022000084ED020A9FED190A84ED030A9FED170A77
:1022100084ED040A9FED150A84ED140A9FED130A5C
:1022200084ED170A9FED110A84ED180A9FED100A3C
:1022300084ED160A9FED0E0A84ED150A9FED0D0A36
:1022400084ED1D0AB7EE000A84ED1B0AB2EE042AE3
:10225000DFED091A9FED051ADFED040AB7EE000A5B
:1022600004F1140001F022FF10BD00000000000086
:102270000000A042000070420000FA4370B52DED4E
:102280000C8B0446B0EE408AF0EE608AB0EE419AC4
:10229000F0EE619A04F1140584ED168AC4ED178AF4
:1022A000C4ED199A94ED170AD4ED180AB4EE600A39
:1022B000F1EE10FA10D094ED170A84ED140A94EDA3
:1022C000170A84ED180A84ED1C9A0020A066B7EE68
:1022D000000A84ED1B0A64E0A06E401CA06694ED29
:1022E0001B0AD4ED140A20EE200AB0EE40AA94EDA9
:1022F000190AB1EE400A10EE101A084609F060FA09
:1023000041EC1D0B9FED420B53EC102B08F0BAFE75
:1023100041EC1C0BB0EE4C1AF0EE6C1A9FED3E0B2C
:1023200005F08AF8B0EE40BAF0EE60BA51EC1B0B43
:1023300008F076FB0AEE900A94ED140A70EE4A0A51
:10234000B0EE4A0A00EEAA0A84ED140A94ED170AC8
:10235000D4ED150A70EE600A94ED191A94ED1C0A7A
:1023600000EEC10A84ED1C0A94ED1C0AB5EEC00A09
:10237000F1EE10FA02DD94ED1C0A03E09FED280A4D
:1023800084ED1C0AD4ED1D0AB4EEE00AF1EE10FA59
:1023900002D294ED1C0A01E094ED1D0A84ED1C0AA2
:1023A00000BF94ED141AF0EE410A94ED161AB0EE47
:1023B000410A284601F0EEFD94ED140AD5ED0D0A10
:1023C00030EE200AD4ED140A80EE201A84ED1B1A98
:1023D00094ED1B0AB5EEC00AF1EE10FA02DD94EDA1
:1023E0001B0A03E09FED0E0A84ED1B0AF7EE000ABC
:1023F000B4EEE00AF1EE10FA02D294ED1B0A01E00D
:10240000B7EE000A84ED1B0ABDEC0C8B70BD00001A
:10241000000000000000394090F7AA9509BF054070
:102420000000000000B50346F0EE401A9FED1B0AC5
:10243000B0EE402A9FED190AF0EE402A002001EE8E
:10244000100A002219E033F91200002802DB33F9E8
:10245000120002E033F91200404200B201EE100A0D
:10246000B8EEC10AB4EEC20AF1EE10FA03DDB8EE1E
:10247000C10AB0EE402A501CC2B2042AE3DBB4EE1B
:10248000E12AF1EE10FA08DD81EE820AF0EE402A30
:10249000B0EE620A184600F003F800BD000000002C
:1024A000B0F9001000EE901AF8EEE00A60EE800A33
:1024B000FDEEE00A10EE901A09B20180B0F90210A8
:1024C00000EE901AF8EEE00A60EE800AFDEEE00AF7
:1024D00010EE901A09B24180B0F9041000EE901A83
:1024E000F8EEE00A60EE800AFDEEE00A10EE901AC7
:1024F00009B28180B0F9061000EE901AF8EEE00AF9
:1025000060EE800AFDEEE00A10EE901A09B2C1807A
:10251000704780ED020AC0ED030A80ED041A70478F
:102520000023037281F826308B84038043808380EC
:10253000C3801380538093800B80704770B5012552
:1025400005721D785E7845EA0625C5F30A05058003
:102550000588A5F580652DB205805D78ED109E7823
:1025600045EA4615C5F30A0545804588A5F5806509
:102570002DB245809D78AD11DE7845EA86051E793D
:1025800045EA8625C5F30A0585808588A5F5806519
:102590002DB285801D796D105E7945EAC615C5F3AB
:1025A0000A05C580C588A5F580652DB2C5805D7911
:1025B0002D11AD0845725D79C5F3011585729D79C0
:1025C000DE7945EA06252DB215801D7A5E7A45EA48
:1025D00006252DB255809D7ADE7A45EA06252DB274
:1025E00095801D7B95715D7BD5718D8C6E1CEE1772
:1025F00005EB9656B612A5EB86268E8400254D84F3
:10260000002412E00D1D35F81450002D0CDD0D1DB9
:1026100035F814506D1EAEB20D1D25F814604E8CA9
:102620000125A54035444D84641C0F2CEADB9D7BBD
:10263000DE7B45EA06254E8CB5430D800D880DB92D
:10264000158815B1012581F8265070BD0246094B49
:102650009A4201D2084801E00648103801F00053C0
:102660001BB1064B0B40C36002E0044B0B40836080
:102670007047000010640240006002407D0F7D0F33
:1026800021B1026842F00102026003E0026822F018
:10269000010202607047000010B58AB0044604EBE6
:1026A000C400064A02EB8001242201A8FEF71DF8AF
:1026B00000210498FFF7E4FF0AB010BDA401002038
:1026C00030B589B004460D4604EBC4000E4A02EB57
:1026D000800124226846FEF708F8DDE9072342EA74
:1026E00003010398FFF7B2FF00BF039800F00EF854
:1026F0000028FAD12946039800F05EF801210398DA
:10270000FFF7BEFF09B030BDA40100200146002044
:102710000A6802F001020AB1012000E000207047BF
:102720000146486880B2704770B50446204600F004
:1027300005F80546FFF7F4FF70BD000010B58AB03C
:10274000044604EBC400054A02EB8001242201A8E0
:10275000FDF7CBFF04980AB010BD0000A4010020D3
:1027600010B500220268134B1A40CC680B68234353
:102770004C6923438C692343CC6923430C6A23436C
:102780004C6A23438C6A23434C6B23438C6B234357
:102790001A430260426922F00702D1E90B34234355
:1027A0001A4342610B6943604B6883608B68C36066
:1027B00010BD00003F801CF04160704700BFFEE785
:1027C00070B504466FF0040002F022F8E11704EB44
:1027D0005171C1F3C7010D4A1170E11704EB51713A
:1027E000CD104FF47A7045430120094908804FF01D
:1027F000E020006940F002004FF0E0210861084647
:102800004561006940F00100086170BD8C00002046
:102810008E00002010B54FF4807000F01BF850B10E
:102820004FF4807000F00AF84FF4807000F00CF85C
:10283000014800F077FC10BDE43801200149086030
:1028400070470000143C01400149086070470000D7
:10285000143C014001460020034A12680A400AB1B4
:10286000012000E000207047143C01400021234972
:102870008279002A3AD00A46126803689A430B46C6
:102880001A600A1D126803689A430B1D1A600279C8
:1028900011440A6803681A430A60184A0832126829
:1028A00003689A43154B08331A601A1D12680368AF
:1028B0009A43124B0C331A604279102A0ED11A1F18
:1028C000126803681A430D4B08331A601A1D126808
:1028D00003681A43094B0C331A600DE0074942792B
:1028E00011440A6803681A430A6005E0027911443A
:1028F0000A6803689A430A6070470000003C014080
:1029000010B5014600EE101AB8EEC00A10EE102AFB
:102910001346C3F3C754A4F17F0010BD90ED020A23
:10292000B5EEC00AF1EE10FA02DB90ED020A03E008
:1029300090ED020AB1EE400AD0ED060AF5EEC00AAB
:10294000F1EE10FA02DBD0ED060A03E0D0ED060A44
:10295000F1EE600AB4EEE00AF1EE10FA07D290ED63
:10296000030AD0ED020A30EE600A80ED030A90ED12
:10297000000AD0ED030A30EE200A80ED040A90ED43
:10298000040A704770B52DED028B0446B0EE408A04
:10299000606940BB012060619FED220A84ED020A5C
:1029A0009FED200A84ED030A84ED008A84ED018AFC
:1029B00084ED048AB4F92800002811DDB4F9281048
:1029C0008800FDF703FD2063002505E0206B00EB88
:1029D000850080ED008A6D1CB4F92800A842F5DC62
:1029E000BDEC028B70BD94ED000A84ED010A84ED0C
:1029F000008A94ED000AD4ED010A30EE600A84EDFD
:102A0000020A6069401C6061B4F92810606990FB9B
:102A1000F1F201FB1200216B01EB800080ED008AD6
:102A200000BFDDE70000000010B52DED0A8BB0EE11
:102A3000409A0446B0EE608AF0EE419A19EE900A90
:102A400008F0BEFE41EC1C0B53EC1C2B9FED160B4B
:102A500051EC100B08F0D2F841EC1B0B07F0E0FF33
:102A600008EE900AB7EE000A08EE880AF7EE000AB0
:102A700080EE801AB0EE41AA68EE880AB7EE000A2E
:102A800008EE880A80EE801AF0EE41AA2AEE090AC2
:102A9000D4ED000A0AEEA00A84ED000A94ED000AC3
:102AA000BDEC0A8B10BD00001F29377E305FC43F8C
:102AB000F0B50A4600210023002400BF3DE00125B7
:102AC00005FA01F3156805EA03049C4234D1056850
:102AD0004F000326BE40B543056015794E00B54052
:102AE0000668354305601579012D02D01579022D50
:102AF00016D185684F000326BE40B54385605579E1
:102B00004E00B540866835438560456801268E4095
:102B1000B5434560456896798E40B6B23543456009
:102B2000C5684F000326BE40B543C560D5794E0049
:102B3000B540C6683543C560491C1029BFD3F0BDF8
:102B4000F0B5002300244D07ED0E02FA05F3CE1078
:102B500000F1200555F826504E07F70E0F26BE400F
:102B6000B543CF1000F1200646F82750CE1000F1F3
:102B7000200555F8265045EA0304CE1000F1200543
:102B800045F82640F0BD0246002013690B400BB10A
:102B9000012000E0002070474183704701837047A7
:102BA00030B502460C460B48018812B94FF6FF704B
:102BB00030BD09E012F8013B81EA0300C0B2064DC6
:102BC00035F8100080EA2121201EA4F10104F1D182
:102BD0000846EDE728010020A8BA000830B50246F3
:102BE000FF2005E012F8014B84EA0003034CE05C8F
:102BF0000C1EA1F10101F5D130BD0000A7B90008FC
:102C000070B504460D460020206100F04BFE00F038
:102C1000D1FDD5B1B1EE040A0C4880ED000A12E0F6
:102C2000072095FBF0F0216991FBF0F0461C30463F
:102C300000F060FD2069A84205DB9FED050A03480E
:102C400080ED000A00E0EBE700BF70BD90000020BF
:102C5000CDCCCC3DC18402854385704770B52DED48
:102C60000A8B0446FE48B0F9080000EE100AB8EEE0
:102C7000C00A9FEDFC1AC0EE010A9FEDFB0A20EE90
:102C8000800A10EE105A284608F09AFD41EC190B04
:102C90009FEDF60B53EC102B07F0B0FF41EC180B37
:102CA00007F0BEFEF3490860ED48B0F90A0000EEF7
:102CB000100AF8EEC00A9FEDEB1A80EE810ADFEDF4
:102CC000EA0A20EE200A10EE105A284608F078FD95
:102CD00041EC190B9FEDE50B53EC102B07F08EFF29
:102CE00041EC180B07F09CFEE3490860DC48B0F9A2
:102CF0000C0000EE100AB8EEC00A9FEDDA1AC0EE22
:102D0000010A9FEDD90A20EE800A10EE105A2846DB
:102D100008F056FD41EC190B9FEDD40B53EC102B32
:102D200007F06CFF41EC180B07F07AFED3490860FE
:102D3000CB48B0F9000000EE100AB8EEC00ADFED93
:102D4000D00A80EE201ACF4880ED001AC448B0F9AE
:102D5000020000EE100AB8EEC00ADFEDC90A80EEEC
:102D6000201AC94880ED001ABD48B0F9040000EEF1
:102D7000100AB8EEC00ADFEDC20A80EE201AC3487E
:102D800080ED001AD0ED002ABF4890ED002ABD4822
:102D9000D0ED001A084690ED001AB748D0ED000AB1
:102DA000B44890ED000A00F087FDB94890ED000AA4
:102DB000D0ED000A20EE200AB648D0ED000A90EDD2
:102DC000001A00EEC10AB448D0ED000A90ED001AD6
:102DD00000EEC10AB148D0ED000A90ED001A00EEF5
:102DE000810A10EE101A084608F0EAFC41EC1B0BB1
:102DF000A74890ED000AA748D0ED000A20EE200A6F
:102E0000A548D0ED000AA54890ED001A00EE810A11
:102E1000F0EE000A20EE200A10EE101A084608F024
:102E2000CFFC41EC1C0BB0EE4B1AF0EE6B1AB0EE7F
:102E30004C0AF0EE6C0A04F073F9B0EE40AAF0EE22
:102E400060AA9FED8A0B53EC102B51EC1A0B08F083
:102E500019F941EC190B9FED920B53EC102B07F075
:102E6000CDFE41EC180B07F0DBFD8F490860884868
:102E700090ED000A8848D0ED000A20EE200A85482F
:102E8000D0ED000A854890ED001A00EEC10AF0EE80
:102E9000000A20EE200A10EE101A084608F090FCF6
:102EA00041EC1B0BB0EE4B0AF0EE6B0A03F01CFE7C
:102EB000B0EE40AAF0EE60AA9FED6C0B53EC102B25
:102EC00051EC1A0B08F0DEF841EC190B9FED740B76
:102ED00053EC102B07F092FE41EC180B07F0A0FD0D
:102EE000724908606A4890ED000AD0ED000A20EEB1
:102EF000200A6848D0ED000A90ED001A00EE810A21
:102F00006548D0ED000A90ED001A00EEC10A634852
:102F1000D0ED000A90ED001A00EEC10A10EE101A72
:102F2000084608F04DFC41EC1B0B5A4890ED000A96
:102F30005948D0ED000A20EE200A5548D0ED000A8D
:102F4000564890ED001A00EE810AF0EE000A20EEDD
:102F5000200A10EE101A084608F032FC41EC1C0B57
:102F6000B0EE4B1AF0EE6B1AB0EE4C0AF0EE6C0AB3
:102F700004F0D6F8B0EE40AAF0EE60AA9FED3B0B4D
:102F800053EC102B51EC1A0B08F07CF841EC190BA8
:102F90009FED430B53EC102B07F030FE41EC180B68
:102FA00007F03EFD42490860084690ED000A41489E
:102FB000FFF7E8FC3F4890ED020ADFED3F0AB4EE70
:102FC000E00AF1EE10FA08DD90ED030ADFED3B0AAE
:102FD00030EE600A80ED030A11E0364890ED020AF7
:102FE000DFED370AB4EEE00AF1EE10FA07D290ED09
:102FF000030ADFED320A30EE200A80ED030A9FED6E
:10300000310B53EC102B314890ED000B51EC100BB1
:1030100007F038FD2D4A03C22648FFF77FFCD4EDA8
:10302000030A30EE200A10EE105A284608F0C8FBBA
:1030300041EC190B254890ED000B53EC102B51EC93
:10304000190B07F01FFD41EC180B07F0E9FC20609D
:1030500040F2A361206988423ED194ED000A37E036
:10306000B83801206F128341DA0F49400000000098
:10307000008066403C010020400100204401002007
:1030800000008045480100204C0100205001002034
:1030900094000020980000209C000020A000002048
:1030A00000000040FB2109403401002030010020D5
:1030B0003801002070010020000096430000B44356
:1030C000000096C3C58F31772D216F3F6801002026
:1030D000B1EE400A84ED030A0F4890ED000AB1EE0C
:1030E000400A84ED010A0D4890ED000A84ED020AC1
:1030F00094ED010ABDEEC00A10EE100A00B20849B4
:10310000088040F2A4612069884202DA2069401CEC
:103110002061BDEC0A8B70BD34010020300100201D
:103120006001002010B504460E232C4A3B21D0201C
:1031300000F0C6F8FF2801D1002010BD2748C07953
:103140002649897940EA012000B22549C8802348F0
:1031500000790002404221494979084300B22049E0
:1031600088801E48407B1D49097B40EA012040427F
:103170001B49498D401A00B2194988811748407887
:103180001649097840EA012000B2154948801348E1
:10319000C0781249897840EA012000B210490880BD
:1031A0000E48407A0D49097A40EA01200C49098D00
:1031B000401A00B20A4948810848C07A0749897A0A
:1031C00040EA01200649C98C401A00B2044908812E
:1031D0002046FFF743FD0120AFE70000A83501209E
:1031E000B838012000BFFEE710B5044600200F49A3
:1031F000086000F0D9F8012000F01CF824B101208B
:103200000A490831086003E00020084908310860D5
:10321000012000F00FF801200449086000F00AF8CE
:1032200000200349C1F89C0210BD00009C8242426C
:103230000080424210B5002106E0642200BF131E48
:10324000A2F10102FBD1491C8142F6D310BD00005E
:1032500001200349086000200249C1F8A00270471C
:10326000988242420080424270B5002400F086F805
:103270000120FFF7DFFF002516E000200E4908605F
:103280000220FFF7D7FF01200C49C1F89C0260061D
:10329000040E09487838006808B1601CC4B20220E6
:1032A000FFF7C8FF681CC5B2082DE6DB0020024905
:1032B0000860204670BD00009C824242008042426D
:1032C0002DE9F04107460E461446984600F084F872
:1032D000FF2805D120A0FDF7A9F8FF20BDE8F08167
:1032E000384600F0F9F800F0CDF8FF2800D1F5E7F6
:1032F000304600F0F1F800F0C5F8FF2804D119A01D
:10330000FDF794F8FF20E9E700F066F8791CC8B2F1
:1033100000F0E2F800F0B6F8FF2804D114A0FDF7A1
:1033200085F8FF20DAE7002508E0FFF79DFF207011
:103330000020FFF759FF641C681CC5B2A8F101000A
:10334000A842F2DCFFF790FF20700120FFF74CFF4E
:1033500000F07EF80020C1E76572726F7220370DB1
:103360000A0000006572726F7220390D0A000000B9
:103370006572726F722032480D0A00001CB54FF45E
:103380000070009000208DF804008DF806000120E8
:103390008DF8070003208DF8050069460148FFF706
:1033A00087FB1CBD001402401CB54FF40070009058
:1033B00001208DF8040000208DF8060001208DF812
:1033C000070003208DF8050069460248FFF770FBEF
:1033D0001CBD00000014024010B5FFF7E5FF0120FE
:1033E000134908601348D0F8240220B912A0FDF751
:1033F0001DF8FF2010BD01200D4908390860FFF7B6
:1034000019FF00200B49C1F8A40209488038006860
:1034100020B10CA0FDF70AF8FF20EBE70120FFF731
:1034200009FF002002490839086000BFE2E70000F8
:10343000A4824242008042426572726F7220312142
:103440000D0A00006572726F722032210D0A0000B1
:1034500010B5FFF7A9FF0020084908600849C1F826
:10346000A4020120FFF7E6FE012004490860FFF7EF
:10347000E1FE01200249C1F8A40210BD9C82424233
:103480000080424210B50024FFF778FF0120104968
:103490000860FFF7CFFE01200E49C1F89C02FFF73C
:1034A000C9FE0AE0601C84B2322C03DDFFF7D0FFB6
:1034B000FF2010BD0520FFF7BDFE054880380068DD
:1034C0000028EFD102490839086000BFF1E7000089
:1034D000A48242420080424270B50446FFF764FF76
:1034E00000201349086000251EE004F0800020B190
:1034F00001200F490831086003E000200C49083121
:1035000008606006040E0120FFF794FE01200849C0
:103510000860FFF78FFE00200649C1F89C020120D9
:10352000FFF788FE681CC5B2082DDEDB70BD000009
:103530009C8242420080424270B506460C461546C7
:10354000FFF74AFFFF2804D116A0FCF76FFFFF200A
:1035500070BD3046FFF7C0FFFFF794FFFF2804D18E
:1035600013A0FCF763FFFF20F2E72046FFF7B4FF4C
:10357000FFF788FFFF2804D110A0FCF757FFFF20BA
:10358000E6E72846FFF7A8FFFFF77CFFFF2804D1F6
:103590000DA0FCF74BFFFF20DAE7FFF759FF0020F3
:1035A000D6E700006572726F7220332100000000C0
:1035B0006572726F7220340D0A0000006572726FBE
:1035C0007220350D0A0000006572726F7220360D90
:1035D0000A00000070B506460C4615462046FFF767
:1035E0008FF9311D21F8105070BD000000200149F5
:1035F000087070470C0300201CB50121302000F03A
:10360000B3FF4FF40060009001208DF8040000200B
:103610008DF8060003208DF8050001208DF80700C5
:1036200069461048FFF744FA4FF4804000900120AB
:103630008DF8040000208DF8060003208DF80500A9
:1036400001208DF8070069460748FFF731FA4FF46B
:1036500000610448FFF7A2FA4FF480410248FFF7E7
:103660009DFA1CBD001002400014024010B51E4817
:10367000007810B100F076F810BD1C4800880B21CE
:1036800090FBF1F201FB1200401C1849088008462B
:103690000088032807DC16480088012101EB400060
:1036A000134908801AE01148008804280CDB0F48F1
:1036B0000088082808DC0E4800884FF6FF7101EAF0
:1036C00040000B49088009E008480078001F0121EC
:1036D000814007480088401A05490880044800884E
:1036E00000F01EF800BFC7E70C03002018030020FD
:1036F0001603002010B50446002C01DD204601E031
:1037000000200446082801DA204600E0082004468C
:103710000121A140491E88B200F002F810BD00004E
:1037200010B504464FF4FF7020EA44010548FFF746
:1037300035FA4FF6FF7000EA44010248FFF72CFA11
:1037400010BD000000180240034B1870034A11809E
:103750000122034B1A7070470D0300200E03002056
:103760000C03002010B506F005FF0F490880002467
:103770000FE00E480078FFF7D3FFC8210A4806F093
:1037800039F80020FFF7CCFFC821074806F032F8CF
:10379000641C074800888442EBDB4FF47A710248CE
:1037A00006F028F810BD0000100300200D030020D3
:1037B0000E03002010B503221921D020FFF7BCFE14
:1037C000FF2800D110BD0A2004F07AFD0122382123
:1037D000D020FFF7B1FEFF2800D1F3E70020F1E78A
:1037E00008B500200090FFF733FD01236A467521DC
:1037F000D020FFF765FD50B99DF80000702801D07A
:10380000FF2008BD9DF800002549088001E0FF2049
:10381000F7E701226B21D020FFF78EFEFF2800D1B1
:10382000EFE701221A21D020FFF786FEFF2800D102
:10383000E7E718221B21D020FFF77EFEFF2800D1EA
:10384000DFE710221C21D020FFF776FEFF2800D1F1
:10385000D7E701221D21D020FFF76EFEFF2800D1FF
:10386000CFE702223721D020FFF766FEFF2800D1E4
:10387000C7E700223821D020FFF75EFEFF2800D1E5
:10388000BFE700226A21D020FFF756FEFF2800D1B3
:10389000B7E74FF4FA7004F013FD0020B1E7000021
:1038A000A400002010B502E0052004F009FDFFF798
:1038B00097FFFF28F8D010BD00B52DED108B81B01B
:1038C000F0EE404AB0EE605AF0EE415AF0EE613A46
:1038D000B0EE423AB0EE624AE94890ED000AB1EE2D
:1038E000400A20EE240AE748D0ED000A00EEC50A9F
:1038F000E548D0ED000A00EEE50AF6EE000A20EEFB
:10390000200AF0EE40EAE14890ED000A20EE240A99
:10391000DC48D0ED000A00EEA50ADB48D0ED000A35
:1039200000EEC50AF6EE000A20EE200AB0EE40FADC
:10393000D64890ED000A20EE050AD148D0ED000AE5
:1039400000EEE50AD048D0ED000A00EEA40AF6EE3B
:10395000000A20EE200AF0EE40FACC4890ED000A72
:1039600020EE250AC648D0ED000A00EE850AC548BB
:10397000D0ED000A00EEE40AF6EE000A20EE200A7E
:103980008DED000AF5EEC03AF1EE10FA09D1B5EE70
:10399000C03AF1EE10FA04D1B5EEC04AF1EE10FAD9
:1039A0007DD063EEA30A43EE030A44EE040AB0EEB0
:1039B000600A04F0E5FCF0EE402A23EEA20AF0EEE5
:1039C000403A23EE220AB0EE403A24EE220AB0EE4C
:1039D000404AAE4890ED000AF0EE000A20EE20AA20
:1039E000A74890ED000AF0EE000A60EE20AAA54874
:1039F00090ED000AF0EE000A20EE20BAA24890ED09
:103A0000000AF0EE000A60EE20BAA04890ED000A2D
:103A1000F1EE000A20EE20CA994890ED000AF1EE7E
:103A2000000A60EE208A974890ED000AF1EE000A45
:103A300020EE209A924890ED000AF2EE000A60EE25
:103A400020CA904890ED000AF2EE000A20EE20DA3B
:103A50008E4890ED000AD0ED000A60EE20DA88482A
:103A600090ED000AD0ED000A20EE206A854890ED26
:103A7000000AD0ED000A60EE206A834890ED000A4B
:103A8000D0ED000A20EE20EA2CEE260A0BEE230AE7
:103A90000CEE060A0AEEC30AF0EE409A00E087E058
:103AA00028EE8E0A0BEEE30AF1EE000A6DEEA00A94
:103AB000734890ED001A00EE810A0AEE430A30EED8
:103AC000680A0CEE860A0CEEA60A08EE840AB0EE2E
:103AD000407AB1EE000A2DEE800A6A48D0ED000A65
:103AE00020EE200A0AEE230A09EE0E0A0BEEC30AA4
:103AF00030EE490A0DEE060A0DEE260A09EE040A1A
:103B0000F0EE407AB1EE000A26EE000A5E48D0EDF3
:103B1000000A20EE200A0AEEE30AF1EE000A66EE41
:103B2000A00A90ED001A00EE810A0BEE430AB0EEF7
:103B3000408A69EEA90A47EE070A47EEA70A48EE4F
:103B4000080AB0EE600A04F01BFCF0EE402A29EEF1
:103B5000A20AF0EE409A27EE220AB0EE407A27EE53
:103B6000A20AF0EE407A28EE220AB0EE408A4848D7
:103B7000D0ED000AB0EE6E0A00EEE90AF0EE40EA7F
:103B8000D0ED000AB0EE4F0A00EEC70AB0EE40FAE0
:103B9000D0ED000AB0EE6F0A00EEE70AF0EE40FA50
:103BA0009DED000AD0ED000A00EEC80A8DED000A76
:103BB000364890ED000ADFED370A0EEEA00A80EDE0
:103BC000000A2F4890ED000ADFED320A0FEE200ABE
:103BD00080ED000A2B4890ED000ADFED2E0A0FEE73
:103BE000A00A80ED000A2848D0ED000A9DED000AE9
:103BF0009FED281A40EE010AC0ED000A2348D0EDDF
:103C0000000A90ED001A60EE810A1D4890ED001A3E
:103C1000D0ED001A41EE210A1A4890ED001AD0EDBD
:103C2000001A41EE210A184890ED001AD0ED001A52
:103C300041EE210AB0EE600A04F0A2FBF0EE402A49
:103C4000124890ED000A20EE220A80ED000A0C488E
:103C500090ED000A20EE220A80ED000A094890ED5E
:103C6000000A20EE220A80ED000A074890ED000AC3
:103C700020EE220A80ED000A01B0BDEC108B00BDE1
:103C8000980000209C000020A0000020940000204C
:103C9000900000206F12833B00BFFEE74FF0FF3320
:103CA00003834383438080ED080A417480F8282011
:103CB0007047FDEEC00A10EE901A09B2418301214F
:103CC0008183891E418070472DE9F0432DED108BD3
:103CD00083B004460D466878297840EA012007B28F
:103CE000E878A97840EA012006B26879297940EAA3
:103CF00001200FFA80F995F806809FED740AB0EE66
:103D0000408A06F037FCE081012020742780E6809D
:103D1000484607F064F941EC1B0B9FED6D0B53EC2B
:103D2000102B06F06BFF41EC1A0B9FED6B0B53EC65
:103D3000102B07F0A7F941EC190B06F071FEA060FB
:103D400094ED080A10EE101A084607F039FD41EC10
:103D50001D0B304607F043F99FED610B53EC102B20
:103D6000CDE900019DED000B51EC100B07F08AF935
:103D700041EC1F0B9FED5C0B53EC102B06F03EFF4C
:103D800041EC1E0B53EC1D2B06F038FF41EC1C0BD5
:103D90009FED570B53EC102B06F074FE41EC1A0B01
:103DA00094ED020AF3EE080A20EE200AB5EEC00AEE
:103DB000F1EE10FA06DD94ED020AF3EE080A20EEA9
:103DC000200A01E09FED410A10EE101A084607F0A4
:103DD000F7FC41EC1B0B53EC1A2B06F00FFF41ECE8
:103DE000190B06F01DFE6062A4F80C80607C0028B0
:103DF00066D0B4F90200401CC0B120886188401A26
:103E000000B2A080B4F904003B49884204DA608A19
:103E1000401C00B2608209E0B4F9040041F268017C
:103E2000884203DD608A401E00B26082B4F900005F
:103E300000EE100AB8EEC00A9FED301AC0EE010A7B
:103E4000608A4FF4B47110FB01F000EE100AB8EE76
:103E5000C00A9FED2B1A00EE810AD4ED080A80EE0D
:103E6000208AA08B00BBB4F91800401CA0B1B4F9A3
:103E7000180000EE100AF8EEC00A9FED201A80EE3E
:103E8000810ADFED1F0A20EE200ABDEEC00A10EE07
:103E9000100A00B2608305E0BDEEC80A10EE100AF9
:103EA00000B260830120A083B4F91A0000EE100A6A
:103EB000B8EEC00A38EE400A84ED050A208860801A
:103EC00003B0BDEC108BBDE8F083000000000000E3
:103ED000000000000000D04000000000000034405E
:103EE0004AD8124DFB2109400000000000003E406E
:103EF000000000000000004098EFFFFF00000046B7
:103F00000000B44300BFFEE770B5002100230F227C
:103F1000C4781CB3174C246804F4E064C4F5E0646E
:103F2000C4F30721C1F10404E3B20A4144789C4080
:103F3000E1B28478144021430C07210E0E4C057821
:103F40006155047804F01F050124AC4005786D111B
:103F5000AD0005F1E025C5F8004109E0047804F062
:103F60001F050124AC40054D0678761145F8264022
:103F700070BD00000CED00E000E400E080E100E036
:103F800002490143024A1160704700000000FA052F
:103F90000CED00E0B0EE401A90ED050A80ED070A46
:103FA00080ED051AC0ED060A90ED0D0A80ED0E0AAF
:103FB00090ED050AD0ED061A30EE610A80ED080A90
:103FC00090ED000AD0ED081A20EE210A80ED0A0AD1
:103FD00090ED0B0AD0ED011A90ED082A01EE820A4D
:103FE00080ED0B0A90ED0B0AD0ED041AF1EE611A88
:103FF000B4EEE10AF1EE10FA02DD90ED0B0A05E0F5
:1040000090ED040AB1EE400A80ED0B0AD0ED041ADF
:10401000B4EEE10AF1EE10FA02D290ED0B0A01E0E3
:1040200090ED040A80ED0B0A90ED080AD0ED091A14
:1040300030EE610AD0ED021A20EE210A80ED0C0A62
:1040400090ED0A0AD0ED0B1A30EE210AD0ED0C1AD1
:1040500030EE210A80ED0D0A90ED0D0AD0ED031A25
:10406000F1EE611AB4EEE10AF1EE10FA02DD90ED24
:104070000D0A05E090ED030AB1EE400A80ED0D0A4D
:10408000D0ED031AB4EEE10AF1EE10FA02D290ED8F
:104090000D0A01E090ED030A80ED0D0A90ED080A8B
:1040A00080ED090A90ED0D0A7047000080ED000ACE
:1040B000C0ED010A80ED021AC0ED031A80ED042A5A
:1040C000DFED142AC0ED052ADFED122AC0ED072A24
:1040D000DFED102AC0ED062ADFED0E2AC0ED082A1A
:1040E000DFED0C2AC0ED092ADFED0A2AC0ED0A2A0D
:1040F000DFED082AC0ED0B2ADFED062AC0ED0C2A01
:10410000DFED042AC0ED0D2ADFED022AC0ED0E2AF4
:104110007047000000000000837E026AD1507047A3
:104120000246002100BF0DE0C1EB01100C4B03EB78
:1041300040000088904204D1C1EB011003EB400025
:104140007047491C074800788142EDDB054800783C
:10415000401EC0EB0010024B03EB4000F0E70000F4
:10416000670300206307002030B50A4600210023C2
:10417000002480F8914180F89041C0F89A21C0F85D
:1041800005200E4C648FBCB922240D4D2C7000BF4D
:104190000EE0C1EB0114094D05EB4404A383C1EB10
:1041A000011405EB440464881C44A3B24C1CA1B266
:1041B000034C2478A142ECDB30BD000067030020F3
:1041C000630700202DE9FF5F04460F460026002507
:1041D000BA460297012084F891013846FFF7A0FF04
:1041E0008346BBF81C000390BBF80280BBF80000BC
:1041F000B84203D0681E04B0BDE8F09FB7F5704F19
:1042000004DB40F2013AC7F30B000290A5222846D6
:10421000691C8DB204F10D010A542846691C8DB247
:1042200004F10D0101F800804FEA28222846691C9C
:104230008DB204F10D010A5429466A1C95B204F1AD
:104240000D0288180178491C01702078022809D1D4
:1042500004211046FEF7C2FC29466A1C95B204F1FF
:104260000D0250542846691C8DB204F10D0101F86D
:1042700000A04FEA2A222846691C8DB204F10D01E4
:104280000A542E4605E0002104F10D008155701CF2
:1042900086B2802EF7DBD4F89A1103980844019077
:1042A000002609E00198825D2846691C8DB204F160
:1042B0000D010A54701C86B24645F3DB08F1070174
:1042C00004F10D00FEF76CFC81462846691C8DB296
:1042D00004F10D0101F800904FEA29222846691CDB
:1042E0008DB204F10D010A5408460090002609E041
:1042F00004F10D00815D009801700098401C009051
:10430000701C86B2AE42F3DB207CA4F88D000FFA5D
:1043100088F070E770B504460D46012084F89101DD
:1043200094F890010B2870D2DFE800F0061B2945B5
:104330005F7684BED3E7EF00A52D0ED1B4F8A001BF
:1043400058B1B4F89211481CA4F8920104F5887091
:104350004554012084F8900102E00020A4F8920165
:1043600000E1A4F89451B4F89211481CA4F8920109
:1043700004F588704554022084F89001F2E004F5B9
:10438000C974608840EA052060802188481C20802C
:10439000A4F5C97404F588704554B4F894017228E2
:1043A00003DA032084F8900104E0002084F89001EF
:1043B000A4F89201D6E0A4F89651B4F89211481CE2
:1043C000A4F8920104F5887045542078022804D09E
:1043D000D4F80100B0F5A06F03D1042084F8900157
:1043E00002E0052084F89001BCE0B4F89211481C6A
:1043F000A4F8920104F588704554052102F044FBAD
:1044000020B1052084F8900105E0A5E0002084F8A3
:104410009001A4F89201A5E0A4F89851B4F8921183
:10442000481CA4F8920104F588704554062084F8CD
:10443000900197E004F5C974E08840EA0520E08027
:104440002188481C2080A4F5C97404F5887045545F
:104450000934B4F88F01FFF763FE2060B4F88D01D2
:104460002168088106F086F82168C8602068008805
:10447000B4F88F11093C884205D0002084F89001DF
:10448000A4F892016EE0D4F80900808818B10720E2
:1044900084F8900107E0B4F89401801CA4F89E0110
:1044A0000A2084F890015DE0B4F89211481CA4F849
:1044B000920104F588704554B4F89211B4F894014F
:1044C0000930814203D1082084F8900100E049E0DE
:1044D00000BFB4F8940100F1090104F5887002F0FE
:1044E000B7FA18B1092084F8900105E0002084F89B
:1044F0009001A4F8920135E000BFD4F89A21D4F8D5
:1045000009309B8BD118002007E017E0C21D04F58D
:1045100088739A5C0A54421C90B2B4F89421824287
:10452000F4DCD4F80920D288521CD4F80930DA809F
:10453000002284F89021A4F8922113E0B4F89E019F
:10454000401EA4F89E01B4F89E0120B9002084F812
:104550009001A4F8920105E0002084F89001A4F8ED
:10456000920100BF00BF70BD29B1064A1268024324
:10457000044B1A6004E0034A12688243014B1A603C
:10458000704700003038024029B1064A12680243E1
:10459000044B1A6004E0034A12688243014B1A601C
:1045A000704700004038024029B1064A12680243B1
:1045B000044B1A6004E0034A12688243014B1A60FC
:1045C0007047000044380240F0B50021002200246A
:1045D000022500260223324F3F6807F00C0121B16B
:1045E000042905D0082937D105E02E4F076036E0B1
:1045F0002D4F076033E02A4F3F1F3F68C7F38056B7
:10460000274F3F1F3F6807F03F036EB1264FB7FBB0
:10461000F3F7DFF88CC0ACF1040CDCF800C0CCF38D
:10462000881C07FB0CF40CE01E4FB7FBF3F7DFF818
:1046300070C0ACF1040CDCF800C0CCF3881C07FBA4
:104640000CF4174F3F1F3F68C7F301477F1C7D00E5
:10465000B4FBF5F7076002E0124F076000BF00BF30
:104660000F4F3F6807F0F0010909104F7A5C0768A7
:10467000D74047600A4F3F6807F4E051890A0B4F63
:104680007A5C4768D7408760054F3F6807F4604110
:10469000490B064F7A5C4768D740C760F0BD000001
:1046A000083802400024F400001BB700000000207E
:1046B00030B500228B071C0F0F2303FA04F20B4BBB
:1046C0008C1053F824309343084C8D1044F8253057
:1046D00023468C1053F824308C07240F00FA04F47E
:1046E0002343024C8D1044F8253030BD083801407A
:1046F0000CB50020019000904148006840F48030E3
:104700003F49086000BF3E48006800F40030009058
:104710000198401C0190009818B90198B0F5A04F7D
:10472000F1D13748006800F4003010B1012000904A
:1047300001E0002000900098012860D1304840300E
:10474000006840F080502E49403108602D480068D4
:1047500040F440402B490860294808300068284947
:10476000083108600846006840F4004008600846C8
:10477000006840F4A05008602348091F0860081F23
:10478000006840F08070091F086000BF1C48006886
:1047900000F000700028F9D01A48006840F480301A
:1047A0001849086000BF1748406800F480300028AE
:1047B000F9D01448006840F400301249086000BF86
:1047C0001048406800F400300028F9D040F205702D
:1047D0000E4908600A480830006820F003000849C4
:1047E000083108600846006840F00200086000BF19
:1047F00003480830006800F00C000828F8D10CBD10
:1048000000380240007000400C5A4007003C024053
:10481000042808D14FF0E021096941F004014FF06C
:10482000E022116107E04FF0E021096921F0040165
:104830004FF0E0221161704710B505F08BFE0128A2
:1048400001D005F04DFB10BD10B51548006840F4CF
:104850007000134908601348006840F001001149D6
:10486000086000200F49083108600E4800680E49B2
:1048700008400C4908600D48091D0860081F0068C1
:1048800020F48020091F0860002006490C310860D0
:10489000FFF72EFF4FF0006001498039086010BD1E
:1048A00088ED00E000380240FFFFF6FE10300024E3
:1048B00010B50121880700F03EF860B10648006895
:1048C000401C054908600121880700F016F8012105
:1048D000880700F00FF810BD3408002021B10288CD
:1048E00042F08002028004E002884FF67F731A4093
:1048F00002807047CA4302827047CA4302827047EF
:1049000021B1028842F00102028004E002884FF6E1
:10491000FE731A400280704731B1B0F8442042F46F
:104920000042A0F8442005E0B0F84420C2F30E0293
:10493000A0F84420704730B5024600200023002430
:10494000158A05EA0103958905EA010413B10CB142
:10495000012000E0002030BD1AB183890B43838120
:1049600002E083898B4383817047000070B5002487
:1049700000220023058C4FF6FE7635400584028C1C
:104980008388048B4FF68F752C40B51E2C400D8804
:104990002C43751E2A408D892A434D882A43104D89
:1049A000A84202D00F4DA84213D14FF6F7752A4006
:1049B000CD892A434FF6FB752A408D882A434FF64E
:1049C000FF652B404FF6FF552B400D8A2B434D8A38
:1049D0002B43838004838D684563028470BD00008F
:1049E00000000140000401400A460021018B4FF6FF
:1049F000F7731940114301837047000070B500241C
:104A000000220023058C4FF6EF7635400584028C9A
:104A10008388048B48F6FF752C404FF6FF452C40E9
:104A20000D884FF6FF7606EA05252C434FF6DF7515
:104A30002A408D8906EA05152A434D8806EA0515A0
:104A40002A43154DA84202D0144DA8421DD14FF65D
:104A50007F752A40CD894FF6FF7606EA05152A4371
:104A60004FF6BF752A408D8806EA05152A434FF692
:104A7000FF352B404FF2FF752B400D8A06EA850566
:104A80002B434D8A06EA85052B43838004838D687A
:104A90008563028470BD00000000014000040140F5
:104AA0000A460021018B4FF2FF7319404FF6FF7346
:104AB00003EA0223194301837047000070B5002404
:104AC00000220023058C4FF6FF6635400584028CDA
:104AD0008388848B4FF68F752C404FF6FC752C40E5
:104AE0000D882C434FF6FF552A408D894FF6FF76EF
:104AF00006EA05252A434D8806EA05252A43154D71
:104B0000A84202D0144DA8421DD14FF2FF752A4091
:104B1000CD894FF6FF7606EA05252A434FF6FF3585
:104B20002A408D8806EA05252A434EF6FF752B405C
:104B30004DF6FF752B400D8A06EA05152B434D8A6D
:104B400006EA05152B43838084838D68C563028440
:104B500070BD000000000140000401400A46002131
:104B6000818B4FF6F7731940114381837047000022
:104B700070B5002200230024058C4EF6FF763540E8
:104B80000584038C8488828B48F6FF752A404FF693
:104B9000FF452A400D884FF6FF7606EA05252A4391
:104BA0004DF6FF752B408D8906EA05352B434D8860
:104BB00006EA05352B430A4DA84202D0094DA8420A
:104BC00008D14BF6FF752C400D8A4FF6FF7606EAAA
:104BD00085152C43848082838D680564038470BDB1
:104BE00000000140000401400A460021818B4FF281
:104BF000FF7319404FF6FF7303EA022319438183C1
:104C00007047000000220288184B98420ED0184BC3
:104C100098420BD0B0F1804F08D0164B984205D087
:104C2000154B984202D0154B984204D14FF68F7322
:104C30001A404B881A43124B984207D0114B9842A6
:104C400004D04FF6FF431A400B891A4302804B6889
:104C5000C3620B880385054B984202D0044B9842EF
:104C600001D18B7A038601238382704700000140C3
:104C7000000401400004004000080040000C004017
:104C8000001000400014004008B505F073FC0090CF
:104C900005E0FEF7EBFCC821684604F0ABFDF8E741
:104CA0002DED028B82B005F065FC01909FED0B0AA3
:104CB000B0EE408A9FED0A0A28EE000ABDEEC00A57
:104CC00010EE104A08E0074801780748FCF7D0FDCD
:104CD000214601A804F08EFDF5E700000AD7233C29
:104CE00000007A4440080020044401202DED108B80
:104CF0009AB005F03FFC19909FEDFE0AF0EE408A55
:104D00009FEDFD0A28EE800ABDEEC00A10EE105A93
:104D10009FEDFA0AF0EE40BA9FEDF80AB0EE40CAF5
:104D20009FEDF60AB0EE40DA9FEDF40A8DED180A19
:104D30009FEDF20AF0EE40AA00BF182112A8FBF77F
:104D400030FD00BF9FEDED0A8DED110A9FEDEB0ADE
:104D50008DED100A9FEDE90AB0EE408A0026B5EE0F
:104D6000000AB0EE40BAB0EE4B9A0124B0EE080A49
:104D70008DED0F0A9FEDE22ADFEDE21A9FEDDF1ABB
:104D8000DFEDDE0AB7EE000ADF48FFF78FF99FED8F
:104D9000DB2ADFEDDC1A9FEDD91ADFEDD80AB2EE7F
:104DA000040ADA48FFF782F99FEDD92ADFEDD91A14
:104DB0009FEDD21ADFEDD10AB3EE040AD648FFF711
:104DC00075F99FEDD32ADFEDD31A9FEDCC1ADFEDF5
:104DD000CB0AB3EE040AD148FFF768F99FEDCC2A5D
:104DE000DFEDCC1A9FEDC51ADFEDC40AB3EE040A5D
:104DF000CB48FFF75BF99FEDC62ADFEDC61A9FEDA2
:104E0000BF1ADFEDBE0AB3EE040AC648FFF74EF93B
:104E1000C548FDF7F1F99FEDB90AF0EE409A9FED14
:104E2000B70AF0EE40EA9FEDB50AF0EE40FA9FEDCA
:104E3000B30AB0EE40AA9FEDB10AB0EE40FA9FED82
:104E4000AF0A8DED0E0AFDE3B848D0ED05CAB0F902
:104E5000060000EE100AB8EEC00ADFEDB50A20EE3B
:104E600020EAB448D0F859001190B248B0F85D007B
:104E700000EE100AB8EE400A8DED100AAE48007838
:104E800028B1B7EE080AA04880ED000A04E09FEDC3
:104E9000AB0A9D4880ED000AA948007820B19FED3B
:104EA000970A8DED0F0A03E0B7EE000A8DED0F0AA9
:104EB000A3480078012822D101269FEDA20AB0EE76
:104EC00040BA39EE280AB0EE409AB5EEC08AF1EE4B
:104ED00010FA04D19FED9C0AB0EE408A95E0B4EE42
:104EE000CB9AF1EE10FA09DB9FED980A38EE000A32
:104EF000B0EE408A9FED810AB0EE409A85E090487E
:104F00000078022822D101269FED910AB0EE40BA26
:104F100039EE280AB0EE409AB4EECB9AF1EE10FAD0
:104F200073DBFBF719FA282190FBF1F201FB120069
:104F3000323000EE100AB8EEC00A30EE080AB0EEC9
:104F4000408A9FED6E0AB0EE409A5EE07C480078A1
:104F5000032809D10126DFED7F0AB0EE480A00EEF2
:104F6000A80AB0EE408A50E075480078042827D19E
:104F700001269FED790AB0EE40BA39EE280AB0EE6C
:104F8000409AB5EEC08AF1EE10FA04D19FED6E0A98
:104F9000B0EE408A39E0B4EECB9AF1EE10FA34DB91
:104FA0005A2104FB01F000EE100AB8EEC00A38EEF8
:104FB000400AB0EE408A604244B29FED509A24E02D
:104FC0005F480078052809D10126DFED640AB0EEBC
:104FD000480A00EEA80AB0EE408A16E05848007869
:104FE000062809D10126DFED5E0AB0EE480A00EE80
:104FF000A80AB0EE408A08E01EB1002600204B4906
:1050000048829FED3E0AB0EE408AF0EE6C0AB0EEA8
:10501000480A3D48FEF7BEFF3B48D0ED0D0AB0EE12
:10502000600AF0EE4E0A3948FEF7B4FF9FED330AEE
:10503000F0EE40BA9FED310AB0EE40CA9FED2F0A64
:10504000B0EE40DA47480078012851D14648007850
:10505000012803D04448007802284AD14348B0F9D7
:105060000400404200EE100AB8EEC00ADFED400A2C
:1050700080EE201A11EE107A384606F0A1FB9FED63
:105080003D0B53EC102BCDE90A019DED0A0B51ECC1
:10509000100B05F0F7FFCDE90C019DED0C0B51EC69
:1050A000100B05F0BDFC0BEE900A3048B0F906007D
:1050B00000EE100AB8EEC00ADFED2D0A80EE201ACD
:1050C00011EE107A384606F07BFB9FED2A0B53EC6D
:1050D000102BCDE90A019DED0A0B51EC100B05F0E8
:1050E000D1FFCDE90C019DED0C0B51EC100B45E00F
:1050F0009AE047E00AD7A33B00007A440000000092
:105100000000C84200006144F83701203438012013
:10511000000096440080BB4590390120CC39012025
:10512000083A0120443A012018390120B036012004
:105130004F77D63DF83A01203D0800206666A63F2D
:105140003F0800206666E63E000034420000B4429C
:105150009A99993E0000E143CDCCCC3E0000E1C3DA
:1051600000808E4338080020300800208438012059
:1051700000002544000000000000344005F050FC11
:105180000CEE100AFE48007803284CD1FD48B0F917
:105190000400404200EE100AB8EEC00A5FED0C0AAF
:1051A00080EE201A11EE107A384606F009FB1FED4A
:1051B0000F0B53EC102BCDE90A019DED0A0B51ECBE
:1051C000100B05F05FFFCDE90C019DED0C0B51ECD0
:1051D000100B05F025FC0BEE900AEA48B0F906002A
:1051E00000EE100AB8EEC00A5FED1F0A80EE201A2A
:1051F00011EE107A384606F0E3FA1FED220B53EC5D
:10520000102BCDE90A019DED0A0B51EC100B05F0B6
:1052100039FFCDE90C019DED0C0B51EC100B05F0A5
:10522000FFFB0CEE100A53E1D74800780228FAD1B0
:10523000F5EEC09AF1EE10FA02DDB0EE690A01E077
:105240001FED520AF7EE000AB4EEE00AF1EE10FA92
:105250000AD2F5EEC09AF1EE10FA02DDF0EE690A1C
:1052600004E05FED5A0A01E0F7EE000A1FED400A84
:1052700030EE6E1AB0EE6E0A00EE810AF0EE40FAE1
:1052800019EE900A06F09CFA9FEDC00B53EC102B20
:10529000CDE90C019DED0C0B51EC100B05F0B6FEA9
:1052A00006D89FEDBC0A39EE800AF0EE409A1DE068
:1052B00019EE900A06F084FA9FEDB40B53EC102B14
:1052C000CDE90C019DED0C0B51EC100B06F080F8B4
:1052D0000CD2B7EE000AF4EEC09AF1EE10FA05D245
:1052E0009FEDAD0A39EE800AF0EE409AB5EEC0AA05
:1052F000F1EE10FA02DDB0EE4A0A01E01FED810A7C
:10530000F7EE000AB4EEE00AF1EE10FA0AD2B5EEBA
:10531000C0AAF1EE10FA02DDF0EE4A0A04E05FEDF9
:10532000890A01E0F7EE000A1FED6F0A30EE4F1A0E
:10533000B0EE4F0A00EE810A8DED0E0A1AEE100A49
:1053400006F03EFA9FED910B53EC102BCDE90C01CA
:105350009DED0C0B51EC100B05F058FE06D89FED9F
:105360008F0A3AEE000AB0EE40AA1DE01AEE100ACB
:1053700006F026FA9FED850B53EC102BCDE90C01BE
:105380009DED0C0B51EC100B06F022F80CD2B7EE91
:10539000000AB4EEC0AAF1EE10FA05D29FED7D0A24
:1053A0003AEE000AB0EE40AA75480078012833D1E1
:1053B0007B480078C0F3800079490978C1F3C001C7
:1053C000401A00EE100AB8EEC00A20EE2F0A1FEDB8
:1053D000981AC0EE010AB2EE000A20EE800AF0EE42
:1053E00040BA6F48007800F001006D490978C1F3B8
:1053F0004001401A00EE100AF8EEC00A9DED0E0AB8
:1054000020EE800A5FEDA60A80EE201AB2EE080AAE
:1054100021EE000AB0EE40CA59480078032833D183
:105420005F480078C0F380005D490978C1F3C0018E
:10543000401A00EE100AB8EEC00A60EE2F0A1FED07
:10544000B41A80EE810AF2EE000A20EE200AF0EE95
:1054500040BA5348007800F0010051490978C1F37F
:105460004001401A00EE100AF8EEC00A9DED0E0A47
:1054700060EE800A1FEDC21A80EE810AF2EE080A81
:1054800020EE200AB0EE40CA4548007800F0010046
:1054900060B943480078C0F3400038B91FEDE90A0D
:1054A000B0EE40AA1FEDEB0AB0EE40FA3C4800789F
:1054B000C0F3800060B93A480078C0F3C00038B942
:1054C0001FEDF20AF0EE409A1FEDF40AF0EE40EA0A
:1054D000344890ED080AB5EEC00AF1EE10FA02DB8E
:1054E00090ED080A04E02F4890ED080AB1EE400A5A
:1054F000DDED0F0AB4EEE00AF1EE10FA02D29FEDF4
:105500002A0A0AE0294890ED0D0AFFEE000A20EE73
:10551000200ADFED270A20EE200AB0EE40DA254807
:10552000006800EE100A30EE2B0AF0EE40BA214877
:10553000406800EE100A30EE0C0AB0EE40CA1BEED6
:10554000900A06F03DF99FED1C0B53EC102BCDE9B2
:105550000C019DED0C0B51EC100B05F057FD58D2D2
:105560001CEE100A06F02CF99FED130B53EC102BD8
:10557000CDE90C019DED0C0B51EC100B20E000006F
:105580003008002084380120380800200000000086
:105590000000E03F6F12033B6F12833A6F12833BB0
:1055A00090380120F8370120000000003438012035
:1055B00034FA8E3CC53501209A9999999999B93F49
:1055C00005F024FD25D21DEE100A06F0F9F89FED36
:1055D000F50B53EC102BCDE90C019DED0C0B51ECB0
:1055E000100B05F013FD14D2B7EE000AEF4880ED62
:1055F000010AB7EE000AEE4880ED010AB7EE000A94
:10560000EC4880ED010AB7EE000AEB4880ED010A94
:1056100013E01FED1B0AE54880ED010A1FED1E0A8D
:10562000E34880ED010A1FED200AE24880ED010AFF
:105630001FED230AE04880ED010AF5EEC0AAF1EE65
:1056400010FA00E0ABE102DDB0EE6A0A01E01FED06
:105650002A0AF7EE000AB4EEE00AF1EE10FA0AD2D6
:10566000F5EEC0AAF1EE10FA02DDF0EE6A0A04E0EF
:105670005FED330A01E0F7EE000A1FED350A3DEE5B
:10568000401A1FED370A00EE810A8DED180AB7EEB9
:10569000000AF4EEC0AAF1EE10FA05D21FED430A9B
:1056A0003AEE800AF0EE40AAC44890ED1C0A10EED3
:1056B000101A084606F084F89FEDC10B53EC102B2E
:1056C000CDE900019DED000B51EC100B05F0B6FE8D
:1056D0009FEDBD0B53EC102BCDE902019DED020BAC
:1056E00051EC100B05F074FE16D2B44890ED1C0A74
:1056F00010EE101A084606F063F89FEDB10B53EC5C
:10570000102BCDE902019DED020B51EC100B05F0C1
:1057100095FE41EC100B01E09FEDAB0B8DED040B02
:105720009FEDAB0B53EC102B9DED040B51EC100BCC
:1057300005F06CFC3AD2A14890ED1C0A10EE101A4C
:10574000084606F03DF89FED9E0B53EC102BCDE97B
:1057500002019DED020B51EC100B05F06FFE9FED69
:105760009A0B53EC102BCDE904019DED040B51EC89
:10577000100B05F02DFE16D2904890ED1C0A10EE8D
:10578000101A084606F01CF89FED8D0B53EC102BF9
:10579000CDE904019DED040B51EC100B05F04EFE1C
:1057A00041EC100B04E09FED880B01E09FED880BAE
:1057B0008DED060B9FED860B53EC102B9DED060B2C
:1057C00051EC100B05F01AFA9FED830B53EC102BE4
:1057D000CDE908019DED080B51EC100B05F02EFEF4
:1057E0009FED7F0B53EC102BCDE90A019DED0A0BC9
:1057F00051EC100B05F046FCCDE90C019DED0C0BB6
:1058000051EC100B05F00CF90DEE900A9DED181AF5
:10581000F0EE4C0AB0EE6B0A6848FCF77AFEB0EE88
:105820006C0A6648FCF7AEFC6448FCF74DFC6E4819
:10583000007801280FD09FED6D0A6048FCF7F2FD5B
:10584000F0EE681A9DED101ADDED110AB0EE6D0A4A
:105850005A48FCF713FD6648B0F9060001EE100A3D
:10586000B8EEC11ADFED631A21EE211AF0EE410AFB
:105870005248B0F9000001EE100AB8EEC11AB0EEBD
:10588000410A4A48FEF786FB5B48B0F9060001EE84
:10589000100AB8EEC11ADFED571A21EE211AF0EE08
:1058A000410A4648B0F9020001EE100AB8EEC11AEA
:1058B000B0EE410A3E48FEF76DFB5048B0F90600D5
:1058C00001EE100AB8EEC11ADFED4A1A21EE211AD4
:1058D000F0EE410A3948B0F9040001EE100AB8EEC2
:1058E000C11AB0EE410A3348FEF754FB4448B0F900
:1058F000060001EE100AB8EEC11ADFED3E1A21EEE5
:10590000211AF0EE410A2D48B0F9060001EE100A06
:10591000B8EEC11AB0EE410A2748FEF73BFB234818
:1059200090ED0D0A2548D0ED1B0A20EE200ABDEEB1
:10593000C00A10EE100A00B22D4948851C4890EDAF
:105940000D0A1E48D0ED1B0A20EE200ABDEEC00A4B
:1059500010EE100A00B228494885164890ED0D0A4D
:105960001648D0ED1B0A20EE200ABDEEC00A10EE4C
:10597000100A00B2214948850F4890ED0D0A0F48E2
:10598000D0ED1B0A20EE200ABDEEC00A10EE100A70
:1059900000B21B494885294619A803F02BFFFFF7E1
:1059A00053BA0000333333333333D33F90390120BC
:1059B000CC390120083A0120443A0120183901204D
:1059C0000000000000004E40000000000000000049
:1059D0000000000000004440000000000000F03F14
:1059E0000000000000005940420800200000484428
:1059F000D43501204F77D63D583601202C36012072
:105A00000036012008B504F0B5FD0090ACE0574821
:105A1000407A022804D15548807A022800D100E05B
:105A200001205349087008460078012827D14F48C3
:105A3000407A032804D14D48807A012800D100E043
:105A400000204C49087001204B4908704748407AB3
:105A5000022804D14548807A012800D100E00020C6
:105A6000464908704148407A012804D13F48807A6D
:105A7000012800D100E000204149087070E03C4856
:105A8000007802286CD100203E4908703E48807999
:105A90003A4908703C48C0793C4908703C48008845
:105AA000C0F3802040B13A480078C0F3401018B9E4
:105AB00001203149087012E035480088C0F3802089
:105AC00068B133480078C0F3401040B100202A4943
:105AD000087064224FF480612D48FDF77BFD0120A2
