:020000040800F2
:10000000484401200503000875170008C7120008BE
:10001000711700083D0B0008811F00080000000058
:100020000000000000000000000000004D02000879
:100030008911000800000000A1020008951A0008BC
:100040001F0300081F0300081F0300081F03000808
:100050001F0300081F0300081F0300088D1100087C
:100060001F0300081F0300081F0300081F030008E8
:100070001F0300081F0300081F0300081F030008D8
:100080001F0300081F0300081F0300081F030008C8
:10009000410B00081F0300081F0300081F0300088E
:1000A0001F0300081F0300081F0300081F030008A8
:1000B0000D1B00081F0300081F0300081F03000892
:1000C0001F0300081F0300081F0300081F03000888
:1000D0001F030008B11D00081F0300081F030008CC
:1000E0001F0300081F0300081F0300081F03000868
:1000F0001F0300081F0300081F0300081F03000858
:100100001F0300081F0300081F0300081F03000847
:100110001F0300081F030008251B00081F03000819
:100120001F0300081F0300081F0300081F03000827
:100130001F0300081F0300081F0300081F03000817
:10014000010C00081F0300081F0300081F0300081C
:100150001F0300081F0300081F0300081D1E0008DE
:100160001F0300081F0300081F0300081F030008E7
:100170001F0300081F0300081F0300080000000001
:100180001F0300081F0300081F0300081F030008C7
:100190001F0300081F0300081F0300081F030008B7
:1001A00000000000000000001F03000800F002F83B
:1001B00000F03CF80AA090E8000C82448344AAF1C5
:1001C0000107DA4501D100F031F8AFF2090EBAE8C3
:1001D0000F0013F0010F18BFFB1A43F0010318477B
:1001E000A03E0000C03E0000103A24BF78C878C18D
:1001F000FAD8520724BF30C830C144BF04680C602D
:10020000704700000023002400250026103A28BF74
:1002100078C1FBD8520728BF30C148BF0B60704778
:100220001FB503F027FF1FBD10B510BD00F094F9F6
:100230001146FFF7F5FF01F01BFF00F0C6F903B40C
:10024000FFF7F2FF03BC00F0C9F900002A4B196860
:100250000868B0E8F04F80F30988BFF36F8F4FF064
:10026000000080F311887047000000000648006815
:10027000006880F3088862B661B6BFF34F8FBFF3A2
:100280006F8F00DF00BF00BF08ED00E0DFF80C005B
:10029000016841F470010160704700BF88ED00E023
:1002A000EFF30980BFF36F8F134B1A681EF0100F26
:1002B00008BF20ED108A20E9F04F106008B44FF01D
:1002C000500080F31188BFF34F8FBFF36F8F03F09F
:1002D00059F84FF0000080F3118808BC19680868CD
:1002E000B0E8F04F1EF0100F08BFB0EC108A80F39A
:1002F0000988BFF36F8F704710000020EFF305806F
:10030000704700000948804709480047FEE7FEE7BC
:10031000FEE7FEE7FEE7FEE7FEE7FEE7FEE7FEE7B5
:1003200004480549054A064B70470000A51A000815
:10033000AD01000848300120484401204840012018
:10034000484001200FB4044910B503AA029800F0F8
:1003500077F810BC5DF814FB88000020032A40F2F7
:10036000308010F0030C00F0158011F8013BBCF157
:10037000020F624498BF11F801CB00F8013B38BF6F
:1003800011F8013BA2F1040298BF00F801CB38BF7D
:1003900000F8013B11F0030300F06480083AC0F05C
:1003A000088051F8043B083A51F804CBA0E8081043
:1003B000F5E7121D5CBF51F8043B40F8043BAFF376
:1003C0000080D20724BF11F8013B11F801CB48BFD0
:1003D00011F8012B24BF00F8013B00F801CB48BF06
:1003E00000F8012B704702F0FF0343EA032242EAC0
:1003F000024200F002B84FF000020429C0F012805F
:1004000010F0030C00F06280CCF1040CBCF1020F80
:1004100018BF00F8012BA8BF20F8022BA1EB0C019C
:1004200000F054B85FEAC17C24BF00F8012B00F84B
:10043000012B48BF00F8012B704770477047704789
:10044000074B70B50D467B4400F06BF80446284618
:1004500000F07AF810B14FF0FF3070BD204670BD4B
:100460000B1C000010B5203AC0F00B80B1E818500A
:10047000203AA0E81850B1E81850A0E81850BFF48E
:10048000F5AF5FEA027C24BFB1E81850A0E818502D
:1004900044BF18C918C0BDE810405FEA827C24BF81
:1004A00051F8043B40F8043B08BF7047D20728BF0F
:1004B00031F8023B48BF11F8012B28BF20F8023B5E
:1004C00048BF00F8012B70474FF0000200B51346FB
:1004D00094469646203922BFA0E80C50A0E80C5064
:1004E000B1F12001BFF4F7AF090728BFA0E80C5015
:1004F00048BF0CC05DF804EB890028BF40F8042B0E
:1005000008BF704748BF20F8022B11F0804F18BF7A
:1005100000F8012B7047000001694A1C026108784D
:10052000704700B58FB0CDE9013100210591054933
:100530007944CDE903101146684600F032F80FB057
:1005400000BD0000E5FFFFFF007B00F0800070476A
:1005500000487047E42F01207546FFF7F9FFAE46CB
:1005600005006946534620F00700854618B020B5BF
:10057000FFF7D6FEBDE820404FF000064FF0000721
:100580004FF000084FF0000B21F00701AC46ACE83B
:10059000C009ACE8C009ACE8C009ACE8C0098D46A8
:1005A00070472DE9F04106460024D6E90170F56850
:1005B0008046304603E04146B847641C3046A847B1
:1005C0000028F8D12046BDE8F08110B50446AFF30D
:1005D00000802046BDE81040FFF731BE01491820D9
:1005E000ABBEFEE7260002007047000000B58BB0EE
:1005F0000121022001F016F90121022001F002F987
:10060000022204211F4800F035FE1020099002202C
:100610008DF8280003208DF8290000208DF82A008D
:1006200001208DF82B0009A9164800F0DBFD5920A8
:10063000ADF818000020ADF81A0001200790002046
:10064000ADF8200006A9104801F0FEFA6020ADF8D0
:1006500004000120ADF806000020ADF8100001A94B
:10066000094801F0A9FA0821074801F0E3FA01213D
:10067000054801F069FA0121034801F077FA0BB04F
:1006800000BD0000000402400004004000B587B037
:100690000121480601F0C6F80121880601F0C2F8E0
:1006A00001208DF8170000208DF8180008208DF823
:1006B000140004208DF8150000208DF812008DF82C
:1006C00019000320ADF8100000208DF81A008DF8F5
:1006D00013008DF816008DF81B0004A92B4800F0BC
:1006E00068FB01208DF80D000020ADF80800ADF882
:1006F0000000ADF80200ADF80400ADF806008DF87A
:100700000B008DF80A0001208DF80C00684600F0FF
:10071000C3FA01208DF8170000208DF8180008207A
:100720008DF8140004208DF8150000208DF81200BB
:100730008DF819000320ADF8100000208DF81A0084
:100740008DF813008DF816008DF81B0004A91048D1
:1007500000F02FFB01208DF80D000020ADF80800FF
:10076000ADF80000ADF80200ADF80400ADF80600E9
:100770008DF80B000E208DF80A0001208DF80C007A
:10078000684600F089FA07B000BD00000064004030
:100790000068004000B58FB00121880501F032F8F3
:1007A0004FF0006000901248019012480290002023
:1007B000039013200490002005904FF48060069071
:1007C00000200890079009904FF480300A90002094
:1007D0000B9003200C9000200D900E906946064867
:1007E00000F0A4FC0121044800F08AFC0FB000BD19
:1007F00004100140782F0120406402401CB5012103
:10080000084600F0FFFF0121022000F0FBFF01215C
:10081000082000F0F7FF0121202000F0F3FF022064
:100820008DF8040000208DF8060080200090012043
:100830008DF8070003208DF805006946504800F048
:10084000D1FC072211464E4800F014FD02208DF81D
:10085000040000208DF806000320009001208DF890
:10086000070003208DF805006946464800F0BAFCF1
:1008700009220021434800F0FDFC092201214148E2
:1008800000F0F8FC02208DF8040000208DF806002E
:100890004FF44050009001208DF8070003208DF8A0
:1008A00005006946364800F09DFC09220C213448B9
:1008B00000F0E0FC09220D21314800F0DBFC0120B2
:1008C0008DF8040000208DF806004FF48060009041
:1008D00001208DF8070003208DF8050069462A489D
:1008E00000F080FC01208DF8040000208DF8060047
:1008F0004FF42070009001208DF8070003208DF840
:1009000005006946204800F06DFC00208DF80400C9
:100910008DF806004020009001208DF8070003208C
:100920008DF805006946184800F05CFC00208DF841
:1009300004008DF806004FF48070009002208DF8BE
:10094000070003208DF8050069460F4800F04AFCB7
:10095000012211460D4800F08DFC022000908DF818
:10096000040003208DF8050000208DF8060001200A
:100970008DF807006946054800F034FC1CBD0000F6
:1009800000040240000C024000140240000002403B
:1009900008B54FF4A06000F02BFF25208DF8000073
:1009A00001208DF8030000208DF8010001208DF852
:1009B0000200684600F0E0FE012240F224412E4889
:1009C00001F04FFA14208DF8000001208DF803008B
:1009D00000208DF8010002208DF80200684600F02A
:1009E000CBFE01220221254800F0DAF940208DF8E3
:1009F000000001208DF8030000208DF80100032085
:100A00008DF80200684600F0B7FE012202211C4862
:100A100000F0C6F936208DF8000001208DF80100A5
:100A200000208DF8020001208DF80300684600F0D8
:100A3000A3FE01221146134801F0B5F80121114827
:100A400001F08EF81C208DF8000001208DF80100C7
:100A500000208DF8020001208DF80300684600F0A8
:100A60008BFE01221146900701F09DF801218807B5
:100A700001F076F808BD000000100140006400405D
:100A800000680040001000400EB50121102000F069
:100A9000C9FE0121084600F0C5FE5920ADF800004E
:100AA0000020ADF80200ADF8080040F2E7300190F8
:100AB00069460E4801F0C8F801210C4801F056F8CB
:100AC0006320019042F22730ADF800000020ADF81D
:100AD0000200ADF8080069464FF0804001F0B4F81C
:100AE0000121880701F042F80EBD0000001000400F
:100AF0001FB50121102000F0A5FE0E480090002037
:100B0000ADF80C000420ADF80A000020ADF8080094
:100B1000ADF80600ADF804006946074801F0C6F9D3
:100B200001224021044801F093F90121024801F01B
:100B300083F91FBDA08601000010014000BFFEE741
:100B400010B52C4A00212C4800F0BDF92948006856
:100B5000A0F2012030B1012815D0022824D00328AA
:100B600044D132E02348007B2249C97A40EA01207F
:100B7000224908801F48817B407B41EA002000B267
:100B80001E49488033E01B48007B1A49C97A40EA75
:100B900001201A4988801748817B407B41EA002068
:100BA00000B21649C88022E01248007B1149C97A78
:100BB00040EA0120114908810E48817B407B41EACF
:100BC000002000B20D49488111E00A48007B094924
:100BD000C97A40EA0120094988810648817B407B27
:100BE00041EA002000B20549C88100E000BF00BF13
:100BF00010BD00007C2E012000640040902E0120DA
:100C000010B5224A0021224800F05DF91F48006813
:100C1000A0F2012020B1012813D0022833D121E015
:100C20001A48007B1949C97A40EA0120194908820B
:100C30001648817B407B41EA002000B2154948827A
:100C400022E01248007B1149C97A40EA012011498B
:100C500088820E48817B407B41EA002000B20D492A
:100C6000C88211E00948007B0849C97A40EA01209E
:100C7000084908830548817B407B41EA002000B297
:100C80000449488300E000BF00BF10BD7C2E012056
:100C900000680040902E012010B50021837A0122C7
:100CA00002FA03F13D4A126842F001023B4B1A601E
:100CB0003A4A1C3212688A43384B1C331A60027B52
:100CC000CAB9364A0C3212688A43344B0C331A6064
:100CD0004288C38842EA0343304A4032847A42F869
:100CE00034300288838842EA03432C4A4032847AB3
:100CF00002EBC4025360027B012A19D1274A0C324D
:100D000012680A43254B0C331A604288038842EA72
:100D10000343224A4032847A42F83430C2888388BE
:100D200042EA03431D4A4032847A02EBC402536014
:100D3000C27A3AB9194A121D12688A43174B1B1D11
:100D40001A6006E0154A121D12680A43134B1B1D58
:100D50001A60028932B9114A143212688A430F4B61
:100D600014331A600289012A06D10C4A143212681F
:100D70000A430A4B14331A60427B012A06D1074A00
:100D80001C3212680A43054B1C331A60034A12686E
:100D900022F00102014B1A6010BD00000066004005
:100DA0001AB143690B43436102E043698B434361DA
:100DB000704730B5024600200023146824F0020476
:100DC0001460146844F00104146000E05B1C546873
:100DD00004F001041CB94FF6FF74A342F6D1546825
:100DE00004F001040CB900206CE08C79012C04D1D2
:100DF000146844F08004146003E0146824F0800454
:100E00001460CC79012C04D1146844F040041460BF
:100E100003E0146824F0400414600C7A012C04D11F
:100E2000146844F02004146003E0146824F02004E3
:100E300014604C7A012C04D1146844F0100414603E
:100E400003E0146824F0100414608C7A012C04D19F
:100E5000146844F00804146003E0146824F00804E3
:100E60001460CC7A012C04D1146844F0040414609A
:100E700003E0146824F0040414608C78A407CD788F
:100E800044EA05640D7944EA05444D7944EA055481
:100E90000D886D1E2C43D461146824F00104146085
:100EA000002300E05B1C546804F001041CB14FF601
:100EB000FF74A342F6D1546804F001040CB1002081
:100EC00000E0012030BD10B500F5D87303EB01132D
:100ED0001B6803F004031372137A53B900F5D87337
:100EE00003EB01131B6840F2FF7404EA53531360D1
:100EF00009E000F5D87303EB01131B686FF0604441
:100F000004EAD303536000F5D87303EB01131B68A5
:100F100003F00203537200F5D87303EB01135B680F
:100F200003F00F03937200F5D87303EB01135B68B2
:100F30001B0AD37400F5D87303EB01139B68D372BB
:100F400000F5D87303EB01139B681C0A147300F5BA
:100F5000D87303EB01139B681C0C547300F5D87312
:100F600003EB01139B681B0E937300F5D87303EB1F
:100F70000113DB68D37300F5D87303EB0113DB684F
:100F80001C0A147400F5D87303EB0113DB681C0C06
:100F9000547400F5D87303EB0113DB681B0E9374D4
:100FA00021B9C36843F02003C36003E0036943F041
:100FB0002003036110BD000010B5182240494148CC
:100FC000FFF7CCF9404800783F49497840EA0120D2
:100FD000C0F30A003A49088008460088A0F58060FE
:100FE00000B2088038484078C0103749897840EA14
:100FF0004110C0F30A003249488008464088A0F5F5
:10100000806000B248803048807880112E49C978CD
:1010100040EA81002C49097940EA8120C0F30A00A6
:101020002749888008468088A0F5806000B28880C3
:101030002548007940102449497940EAC110C0F39D
:101040000A001F49C8800846C088A0F5806000B229
:10105000C8801D4840790011800808721A484079FC
:10106000C0F301104872184880791749C97940EADD
:10107000012000B2124948811348007A1249497A86
:1010800040EA012001B20E4881810F48807A0E4962
:10109000C97A40EA012001B20948C1810A48017BAE
:1010A000074801740848417B054841740648807B25
:1010B0000549C97B40EA01200149888210BD000032
:1010C0008C2F0120A42F0120782F01200246094BEC
:1010D0009A4201D2084801E00648103801F0005356
:1010E0001BB1064B0B40C36002E0044B0B40836016
:1010F0007047000010640240006002407D0F7D0FC9
:1011000021B1026842F00102026003E0026822F0AD
:10111000010202607047014600200A6802F00102E5
:101120000AB1012000E000207047000010B5002245
:101130000268134B1A40CC680B6823434C69234365
:101140008C692343CC6923430C6A23434C6A2343B1
:101150008C6A23434C6B23438C6B23431A430260FA
:10116000426922F00702D1E90B3423431A4342615A
:101170000B6943604B6883608B68C36010BD0000DF
:101180003F801CF0416070477047000010B502209E
:1011900000F01CF850B1022000F00CF8022000F022
:1011A0000FF801200249087000F078FA10BD000025
:1011B000F00000200149086070470000143C014025
:1011C0000149086070470000143C014001460020BE
:1011D000034A12680A400AB1012000E0002070476B
:1011E000143C0140F0B50A4600210023002400BF52
:1011F0003DE0012505FA01F3156805EA03049C4268
:1012000034D105684F000326BE40B543056015790B
:101210004E00B5400668354305601579012D02D0B2
:101220001579022D16D185684F000326BE40B543BF
:10123000856055794E00B5408668354385604568C0
:1012400001268E40B5434560456896798E40B6B21A
:1012500035434560C5684F000326BE40B543C560B1
:10126000D5794E00B540C6683543C560491C102984
:10127000BFD3F0BDF0B5002300244D07ED0E02FAF8
:1012800005F3CE1000F1200555F826504E07F70E55
:101290000F26BE40B543CF1000F1200646F8275078
:1012A000CE1000F1200555F8265045EA0304CE1073
:1012B00000F1200545F82640F0BD018370474269E2
:1012C0004A404261704700BFFEE7000010B5044687
:1012D00000200F49086000F0CDF8012000F01CF854
:1012E00024B101200A490831086003E000200849C0
:1012F00008310860012000F00FF80120044908605F
:1013000000F00AF800200349C1F89C0210BD00005B
:101310009C8242420080424210B5002106E06422D5
:1013200000BF131EA2F10102FBD1491C8142F6D37A
:1013300010BD000070B5002400F086F80120FFF712
:10134000EBFF002516E000200E4908600220FFF7A1
:10135000E3FF01200C49C1F89C026006040E094815
:101360007838006808B1601CC4B20220FFF7D4FFCF
:10137000681CC5B2082DE6DB002002490860204643
:1013800070BD00009C824242008042422DE9F04143
:1013900007460E461446984600F084F8FF2805D10B
:1013A00020A0FEF7CFFFFF20BDE8F081384600F017
:1013B000F9F800F0CDF8FF2800D1F5E7304600F04D
:1013C000F1F800F0C5F8FF2804D119A0FEF7BAFF24
:1013D000FF20E9E700F066F8791CC8B200F0E2F8F7
:1013E00000F0B6F8FF2804D114A0FEF7ABFFFF20F1
:1013F000DAE7002508E0FFF79DFF20700020FFF7E7
:1014000065FF641C681CC5B2A8F10100A842F2DCAB
:10141000FFF790FF20700120FFF758FF00F07EF8E3
:101420000020C1E76572726F7220370D0A0000005C
:101430006572726F7220390D0A0000006572726F5A
:10144000722032480D0A00001CB54FF40070009065
:1014500000208DF804008DF8060001208DF80700AB
:1014600003208DF8050069460148FFF7BBFE1CBD4F
:10147000001402401CB54FF40070009001208DF85C
:10148000040000208DF8060001208DF807000320DD
:101490008DF8050069460248FFF7A4FE1CBD000058
:1014A0000014024010B5FFF7E5FF01201349086062
:1014B0001348D0F8240220B912A0FEF743FFFF2002
:1014C00010BD01200D4908390860FFF725FF0020F5
:1014D0000B49C1F8A40209488038006820B10CA06B
:1014E000FEF730FFFF20EBE70120FFF715FF00209C
:1014F00002490839086000BFE2E70000A4824242C6
:10150000008042426572726F722031210D0A000024
:101510006572726F722032210D0A000010B5FFF75C
:10152000A9FF0020084908600849C1F8A402012069
:10153000FFF7F2FE012004490860FFF7EDFE0120ED
:101540000249C1F8A40210BD9C824242008042427E
:1015500010B50024FFF778FF012010490860FFF75D
:10156000DBFE01200E49C1F89C02FFF7D5FE0AE020
:10157000601C84B2322C03DDFFF7D0FFFF2010BDCA
:101580000520FFF7C9FE0548803800680028EFD124
:1015900002490839086000BFF1E70000A482424216
:1015A0000080424270B50446FFF764FF00201349F3
:1015B000086000251EE004F0800020B101200F49E2
:1015C0000831086003E000200C490831086060061B
:1015D000040E0120FFF7A0FE012008490860FFF774
:1015E0009BFE00200649C1F89C020120FFF794FEF3
:1015F000681CC5B2082DDEDB70BD00009C82424233
:10160000008042421CB50121302000F0FBF84FF46D
:101610000060009001208DF8040000208DF8060085
:1016200003208DF8050001208DF807006946104859
:10163000FFF7D8FD4FF48040009001208DF80400A2
:1016400000208DF8060003208DF8050001208DF89C
:10165000070069460748FFF7C5FD4FF400610448DD
:10166000FFF72BFE4FF480410248FFF726FE1CBD1A
:1016700000100240001402402DE9F04104460D46DE
:1016800016461F463B46324629462046FFF77EFE59
:10169000FF2801D1BDE8F0810020FBE710B53148FB
:1016A000007800285CD000202E4908700E232E4AB6
:1016B0003B21D020FFF7E0FF2B4840782A490978EA
:1016C00040EA012000B2294908802748C07826490D
:1016D000897840EA012000B22449488022484079B4
:1016E0002149097940EA012000B2204988801E483A
:1016F000C0791D49897940EA012000B21B49C880A0
:101700001948407A1849097A40EA012000B217497D
:10171000088108460089C989084400B21349088134
:101720001148C07A1049897A40EA012000B20F4975
:10173000488108464089098A084400B20B4948811B
:101740000948407B0849097B40EA012000B207496B
:10175000888108468089498A084400B20349888103
:1017600010BD0000F0000020D02F0120BC2F012070
:1017700000BFFEE77047000070B5002100230F2274
:10178000C4781CB3174C246804F4E064C4F5E06426
:10179000C4F30721C1F10404E3B20A4144789C4038
:1017A000E1B28478144021430C07210E0E4C0578D9
:1017B0006155047804F01F050124AC4005786D11D3
:1017C000AD0005F1E025C5F8004109E0047804F01A
:1017D0001F050124AC40054D0678761145F82640DA
:1017E00070BD00000CED00E000E400E080E100E0EE
:1017F00002490143024A1160704700000000FA05E7
:101800000CED00E029B1064A12680243044B1A604D
:1018100004E0034A12688243014B1A6070470000DB
:101820003038024029B1064A12680243044B1A605C
:1018300004E0034A12688243014B1A6070470000BB
:101840004038024029B1064A12680243044B1A602C
:1018500004E0034A12688243014B1A60704700009B
:1018600044380240F0B50021002200240225002661
:101870000223324F3F6807F00C0121B1042905D043
:10188000082937D105E02E4F076036E02D4F07605D
:1018900033E02A4F3F1F3F68C7F38056274F3F1F53
:1018A0003F6807F03F036EB1264FB7FBF3F7DFF851
:1018B0008CC0ACF1040CDCF800C0CCF3881C07FB36
:1018C0000CF40CE01E4FB7FBF3F7DFF870C0ACF17F
:1018D000040CDCF800C0CCF3881C07FB0CF4174F99
:1018E0003F1F3F68C7F301477F1C7D00B4FBF5F73E
:1018F000076002E0124F076000BF00BF0F4F3F6854
:1019000007F0F0010909104F7A5C0768D74047607B
:101910000A4F3F6807F4E051890A0B4F7A5C476829
:10192000D7408760054F3F6807F46041490B064F79
:101930007A5C4768D740C760F0BD000008380240B5
:101940000024F400001BB700000000200CB50020AC
:10195000019000904148006840F480303F490860A1
:1019600000BF3E48006800F4003000900198401C21
:101970000190009818B90198B0F5A04FF1D13748FF
:10198000006800F4003010B10120009001E0002058
:1019900000900098012860D130484030006840F045
:1019A00080502E49403108602D48006840F4404086
:1019B0002B49086029480830006828490831086028
:1019C0000846006840F4004008600846006840F49B
:1019D000A05008602348091F0860081F006840F0F5
:1019E0008070091F086000BF1C48006800F000708C
:1019F0000028F9D01A48006840F48030184908607F
:101A000000BF1748406800F480300028F9D014481F
:101A1000006840F400301249086000BF1048406878
:101A200000F400300028F9D040F205700E4908603B
:101A30000A480830006820F00300084908310860AF
:101A40000846006840F00200086000BF0348083004
:101A5000006800F00C000828F8D10CBD00380240E6
:101A6000007000400C5A4007003C0240042808D196
:101A70004FF0E021096941F004014FF0E0221161CB
:101A800007E04FF0E021096921F004014FF0E02266
:101A90001161704710B502F093F8012801D001F0F0
:101AA00055FD10BD10B51548006840F4700013498D
:101AB00008601348006840F00100114908600020E8
:101AC0000F49083108600E4800680E4908400C496B
:101AD00008600D48091D0860081F006820F4802078
:101AE000091F0860002006490C310860FFF72EFF2F
:101AF0004FF0006001498039086010BD88ED00E0BA
:101B000000380240FFFFF6FE1030002410B501211E
:101B1000880700F037F818B10121880700F023F892
:101B200010BD000010B50121064800F02BF838B1B7
:101B30000121044800F017F80121024800F010F8D4
:101B400010BD00000010004021B1028842F0800268
:101B5000028004E002884FF67F731A4002807047CB
:101B6000CA4302827047CA430282704721B1028889
:101B700042F00102028004E002884FF6FE731A4030
:101B80000280704730B50246002000230024158AE9
:101B900005EA0103958905EA010413B10CB101209E
:101BA00000E0002030BD1AB183890B43838102E03D
:101BB00083898B438381704770B500240022002302
:101BC000058C4FF6FE7635400584028C8388048BA5
:101BD0004FF68F752C40B51E2C400D882C43751E7A
:101BE0002A408D892A434D882A43104DA84202D0AD
:101BF0000F4DA84213D14FF6F7752A40CD892A43DD
:101C00004FF6FB752A408D882A434FF6FF652B401F
:101C10004FF6FF552B400D8A2B434D8A2B43838073
:101C200004838D684563028470BD0000000001409C
:101C3000000401400A460021018B4FF6F77319405A
:101C4000114301837047000000220288184B98421C
:101C50000ED0184B98420BD0B0F1804F08D0164BE5
:101C6000984205D0154B984202D0154B984204D1AA
:101C70004FF68F731A404B881A43124B984207D085
:101C8000114B984204D04FF6FF431A400B891A4378
:101C900002804B68C3620B880385054B984202D0D3
:101CA000044B984201D18B7A0386012383827047CB
:101CB0000000014000040140000400400008004012
:101CC000000C0040001000400014004008B501F076
:101CD00087FF009008E04FF480410448FFF7EFFAD7
:101CE000FA21684601F066F9F5E7000000140240A9
:101CF00008E005480068401C034908604FF47A700A
:101D000000F062F9F5E70000F40000201CB504467D
:101D10001248062100234FF44872CDE9001010A1AB
:101D2000124801F01DFF1248062100234FF44872AB
:101D3000CDE900100FA1124801F012FF1148032154
:101D400000234FF4C872CDE900100FA1114801F033
:101D500007FF002001F098F91CBD0000FC000020E6
:101D60005461736B5F55534152543300991D000801
:101D7000F80000205461736B5F444255530000002B
:101D8000F11C0008000100205461736B5F426C6914
:101D90006E6B0000CD1C000806E004A0FEF7D2FA2E
:101DA00041F2883001F0D8F8F7E700003100000078
:101DB00010B51548808815490870134800880870C8
:101DC00000211348FFF79CF91148001D0068012805
:101DD00006D1FFF7F1F80F480068401C0D49086074
:101DE0000D490B48FFF772F900BF0948FFF793F957
:101DF0000028FAD113210648FFF7C4F9012104484D
:101E0000FFF77EF910BD000000100140D400002053
:101E100040640240D00000200000301010B54FF4A4
:101E200000610348FFF74BFA024800F0EFF810BDDD
:101E300000100240E093040021B1828942F4005274
:101E4000828104E082894DF6FF731A4082817047D7
:101E50001AB1838A0B43838202E0838A8B43838295
:101E60007047F0B50346002400260025002040F608
:101E70006A17B94200D100BF1846C1F3421401F0FD
:101E80001F06012707FA06F5012C01D10C3004E0EA
:101E9000022C01D1103000E014301AB107682F4332
:101EA000076002E00768AF430760F0BD2DE9FF4718
:101EB00005460E460024A14600BFA046B08900B1E9
:101EC00000BF2C8A24F44054F08804432C82AC894F
:101ED00041F20C608443B08831890843718908431A
:101EE0000443AC81AC8A24F44074B0890443AC82CE
:101EF0006846FFF7B7FC2048854202D01F4885425C
:101F000002D1DDF80C9001E0DDF80890A88900F41A
:101F1000004040B109EBC90000EB091031684900ED
:101F2000B0FBF1F707E009EBC90000EB09103168DD
:101F30008900B0FBF1F76420B7FBF0F00401200941
:101F4000642101FB1078A88900F4004040B13220E0
:101F500000EBC800B0FBF1F000F00700044308E01C
:101F6000322000EB08106421B0FBF1F000F00F000C
:101F700004432C81BDE8FF8700100140001401409C
:101F800000BFFEE770B504466FF00400FFF76EFD7A
:101F90000B48047025464FF47A70454301200949E7
:101FA00008804FF0E020006940F002004FF0E0218F
:101FB000086108464561006940F00100086170BD94
:101FC000840000208600002070B5044601F0F8FD72
:101FD000012811D00C480088844206DB0A4800889A
:101FE00094FBF0F5284600F0B7FF0748008894FB03
:101FF000F0F100FB114084B24FF47A7104FB01F060
:1020000000F004F870BD00008600002070B50346A3
:1020100000224FF0E02675690D4E367803FB06F47A
:102020004FF0E026B16910E04FF0E026B069884239
:102030000BD0884202D20E1A324402E02E1A0E440D
:1020400032440146A24200D300E0EDE700BF70BD7C
:102050008400002000BF054A128802F04002002AD6
:10206000F9D0C2B2014B1B1D1A8070470014014009
:102070001CB5FEF7C3FBFEF709FBFEF739FDFEF7C3
:1020800089FBFEF701FDFEF783FCB420FFF77AFF22
:102090004FF4165000F0A4FDFFF7B4FAFEF7A6FACD
:1020A0000020012103464FF4C862CDE9001004A1CD
:1020B000074801F055FD01F013F900BFFEE70000ED
:1020C0005461736B5F537973496E6974000000004B
:1020D0000D1D00082DE9F04105460E461C48076815
:1020E0001C480068001D00F0D3FD50B91948006875
:1020F00090F82C1001208840174909688143164840
:102100000160681C38B936B112480168091D1348CE
:1021100000F0FCFD1AE07C190E4800684460BC42E7
:1021200007D20C480168091D0D48006800F0D4FD75
:102130000CE008480168091D0A48006800F0CCFD61
:1021400009480068844201D207480460BDE8F08174
:102150002400002010000020280000202002002081
:1021600018000020140000204000002010B5044694
:1021700000F0D8FD24480068401C2349086023482B
:10218000006840B9214804600846006801280DD164
:1021900000F0DEF90AE01E48006838B91B48006804
:1021A000C06AE16A884201D818480460194800688A
:1021B000401C1849086008460068206494F82C10F8
:1021C0000120884014490968084313490860E16AFE
:1021D00001EB8101114A02EB8100211D00F096FD07
:1021E00000F0CAFD0A48006868B108480068C06A83
:1021F000E16A884207D24FF0805009490860BFF376
:102200004F8FBFF36F8F10BD200000201000002003
:102210002C0000203C000020280000204401002069
:1022200004ED00E010B500F07DFD10480068D0B965
:102230000F4800F041FD0F4800F03EFD0C480E49EC
:1022400008600C480D49086000220C210A2001F0AA
:1022500097F9064908600846006820B108A10348BC
:10226000006800F03DFE00F087FD10BD5400002026
:1022700034020020480200204C00002050000020C2
:10228000546D72510000000070B523E001F072F847
:102290001348006808B9012000E00020054601F05D
:1022A000F9FDBDB900F03EFD0D48C068C468201DB1
:1022B00000F0EEFC0B480068401E0A4908600A481E
:1022C0000068401E0849086000F056FD204600F0F6
:1022D00060F800BF044800680028D7D170BD000036
:1022E0000C020020200000201C00002070B50446D5
:1022F0000D46206C70B1216CE0680844E0606168B4
:10230000E068884201D32068E0602846226CE168DA
:10231000FEF724F870BD2DE9F04104460F4615463E
:102320004FF00008A66B206C40B9206860BB606865
:1023300001F000FD80460020606025E07DB939464F
:10234000226CA068FEF70AF8216CA0680844A0601F
:10235000D4E90110884217D32068A06014E0394600
:10236000226CE068FDF7FAFF216CE068401AE0603B
:102370002168E068884203D2216C6068401AE060FE
:10238000022D01D106B1761E701CA0634046BDE847
:10239000F08110B50446206B00F00CFD204600F0E3
:1023A00009FD10BD0146084A126812680AB90122E7
:1023B00000E000220A600A6822B9034A1268D26863
:1023C000106800E0002070474C00002030B54FF44A
:1023D0009633174800F007042CB1C01D20F0070009
:1023E000134C041B1B1B0246124C22600024114D8F
:1023F0006C60D018083820F007000F4C20600024D3
:102400000D4D2D686C600C4D2D682C601146441AE2
:102410004C60094C24680C60084D4C682C60084DD9
:102420004C682C604FF00044064D2C6030BD00001D
:102430005C02002060000020680000207000002086
:102440006C0000207400002000BFFFF71DFF06484D
:1024500000680128F9D94FF0805004490860BFF3A3
:102460004F8FBFF36F8FF0E74401002004ED00E0D1
:102470002DE9F04106460D4617469846069C0DB9D3
:10248000246000E02760E66325640121204601F016
:1024900085F984F84C80BDE8F0812DE9F05F824633
:1024A0000F4690469B460A9E0C9C4FEA8801A52247
:1024B000206BFDF798FFA8F10100216B01EB80096B
:1024C00029F0070909F0070008B9012000E0002001
:1024D00050B900BF502080F31188BFF34F8FBFF376
:1024E0006F8F00BF00BFFEE7002507E0795D04F1B4
:1024F00034004155785D00B902E06D1C0A2DF5D31A
:1025000000BF00213D200155072E00D30626E662BC
:10251000A6640020E064201D00F0DBFB04F118003D
:1025200000F0D7FB2461C6F10700A06164620020BF
:10253000206584F854005A465146484600F03AFB5C
:1025400020600B9808B10B980460BDE8F09F000074
:1025500010B5002407E004EB84010F4A02EB810070
:1025600000F0AAFB641C072CF5D30C4800F0A4FB78
:102570000B4800F0A1FB0B4800F09EFB0A4800F05E
:102580009BFB0A4800F098FB04480949086004488E
:102590000849086010BD000044010020D00100205F
:1025A000E4010020F80100200C020020200200209D
:1025B000140000201800002010B50146164800E065
:1025C000006803688B42FBD30246436813448B4286
:1025D00004D143684C682344436001460A464B6873
:1025E00013440468A34211D10C4C03682468A3422D
:1025F00008D04B680468646823444B6003681B6818
:102600000B6005E0054B1B680B6001E003680B6085
:10261000884200D0016010BD6000002068000020EA
:102620002DE9F04104460D4616461F464FF00008BE
:1026300065602461B5420CD8F01BA169884202D3C1
:102640004FF0010811E0211D0948006800F044FB2B
:102650000BE0BE4204D2BD4202D34FF0010804E0B9
:10266000211D0448006800F037FB4046BDE8F081BA
:10267000500000204C00002070B5054600F052FBD1
:10268000A86B08B9012400E0002400F075FB204687
:1026900070BD70B5054600F045FBA86BE96B88423C
:1026A00001D1012400E0002400F066FB204670BD4B
:1026B000F8B505460F4616480068C068C468201D76
:1026C00000F0E6FAE06901281DD1A06941192B4606
:1026D0003A462046FFF7A4FFA8B1002003462A4649
:1026E00001460090204601F083FC064656B900BF23
:1026F000502080F31188BFF34F8FBFF36F8F00BF5F
:1027000000BFFEE700BF2046616A8847F8BD0000B1
:102710004C00002070B586B06AE00398002867DBA3
:10272000059C606908B9012000E0002010B9201D57
:1027300000F0AEFA02A800F0BDF8054603980A289A
:1027400054D2DFE800F009050731334F0608323470
:1027500000BF00BF00BF00BF0498A26981180346F4
:102760002A462046FFF75CFFE8B12046616A8847A9
:10277000E069012817D1002000900498A16942184F
:1027800000231946204601F033FC064656B900BF27
:10279000502080F31188BFF34F8FBFF36F8F00BFBE
:1027A00000BFFEE700BF22E000BF20E000BF0498AA
:1027B000A061A06908B1012000E0002050B900BF6D
:1027C000502080F31188BFF34F8FBFF36F8F00BF8E
:1027D00000BFFEE7A06941192B462A462046FFF7B5
:1027E0001FFF04E0204600F0E5FA00E000BF00BF54
:1027F00000231A4603A90448006800F0EDFE0028F3
:102800008BD106B070BD000054000020F8B505461D
:102810000C4600F0AFFD684600F04CF80646009804
:1028200020BB44B9B54206D801F034FB31462846F6
:10283000FFF73EFF1CE03CB10E480068006808B995
:10284000012000E000200446A91B22460A48006837
:1028500000F05CFB01F01EFB50B94FF080500749BF
:102860000860BFF34F8FBFF36F8F01E001F012FBE1
:10287000F8BD0000500000205400002004ED00E0EE
:102880000A490968096809B9012100E0002121B15C
:102890004FF0FF31064A116006E004490968C96833
:1028A000C868034A416811607047000014000020A6
:1028B0004000002070B5044601F092F90546074833
:1028C0000068854204D200F00BF80120206001E08E
:1028D0000020206001480560284670BD5C00002093
:1028E0002DE9F84332E024480068C06805682248B2
:1028F0000068C068C468201D00F0CAF92046616AFB
:102900008847E069012821D1A0694619AE4207D95C
:1029100066602461211D1848006800F0DDF915E0AB
:10292000002003462A4601460090204601F060FB45
:10293000074657B900BF502080F31188BFF34F8F6F
:10294000BFF36F8F00BF00BFFEE700BF0A480068FB
:10295000006808B9012000E000200028C3D0064824
:10296000D0F8008005480068034908600348C0F8B3
:102970000080BDE8F88300004C00002050000020DB
:102980000E480068401C08B9012000E0002050B942
:1029900000BF502080F31188BFF34F8FBFF36F8FBC
:1029A00000BF00BFFEE700BF502080F31188BFF3D7
:1029B0004F8FBFF36F8F00BF00BFFEE7780000208E
:1029C00008B500BF6846FFF7EDFC044620460099B5
:1029D000FFF71CFFFFF79EFEF4E770B5044600F01A
:1029E000A1F994F9455010E0606A08B9012000E0AF
:1029F000002038B904F1240001F000FA18B100F009
:102A0000BDFB00E003E0681E45B2002DECDC00BF1A
:102A1000FF2084F8450000F0AFF900F083F994F945
:102A2000445010E0206908B9012000E0002048B9B6
:102A300004F1100001F0E2F908B100F09FFB681EFC
:102A400045B200E001E0002DECDC00BFFF2084F87F
:102A5000440000F091F970BD2DE9F04104464FF0BB
:102A6000000800F087FC4648006808B9FFF7AEFC94
:102A700044480068204000286BD1D4B1083404F0E9
:102A80000700B0B104F00700C0F10800044404F0EE
:102A9000070008B9012000E0002050B900BF502015
:102AA00080F31188BFF34F8FBFF36F8F00BF00BF5C
:102AB000FEE7002C4DD034480068844249D8334E9C
:102AC0003046056801E02E462D686868A04202D2B3
:102AD00028680028F7D12A480068854239D0306834
:102AE00000F10808286830606868001B102819D9B0
:102AF0002F1907F0070008B9012000E0002050B9A5
:102B000000BF502080F31188BFF34F8FBFF36F8F4A
:102B100000BF00BFFEE76868001B78606C60384645
:102B2000FFF74AFD184968680968081A16490860DD
:102B30000846006816490968884203D212480068AE
:102B4000134908600F4968680968084368600020F5
:102B5000286001F09FF908F0070008B9012000E0A3
:102B6000002050B900BF502080F31188BFF34F8F71
:102B7000BFF36F8F00BF00BFFEE74046BDE8F081A6
:102B800068000020740000206C000020600000201D
:102B9000700000200648006830B10549096801F15D
:102BA0004C00C96C491C0160014800687047000076
:102BB00010000020001F4FF080730360001F21F001
:102BC00001030360001F054B036014380260001FFF
:102BD0006FF002030360203870470000812900086D
:102BE00010B588B0044601214020FEF70BFE0121FC
:102BF0002020FEF727FE082209212348FEF73AFB92
:102C000008220E212048FEF735FB4FF48440069041
:102C100002208DF81C008DF81D0000208DF81E008C
:102C200001208DF81F0006A91748FEF7DBFA029471
:102C30000020ADF80C00ADF80E00ADF81000ADF8B6
:102C400014000C20ADF8120002A91048FFF72EF96D
:102C500001210E48FFF7F0F8012240F225510B4800
:102C6000FFF7FFF847208DF8040000208DF80500DD
:102C700002208DF8060000208DF8070001A8FEF75D
:102C80007BFD08B010BD0000001802400014014098
:102C900001460A69D1E901309860D1E90103586021
:102CA0005068884201D1886850600020086110682F
:102CB000401E10601068704700F1080141604FF03D
:102CC000FF31816000F10801C160016100210160F4
:102CD000704700210161704710B502460B685C1C0B
:102CE0000CB9106907E002F1080000E04068446890
:102CF00024689C42FAD944684C604C68A1608860A2
:102D000041600A611468641C146010BD42684A6026
:102D100093688B60936859609160086103685B1CDD
:102D20000360704700BF502080F31188BFF34F8FBE
:102D3000BFF36F8F00BF0E480068401C0C4908604D
:102D400008460068012812D10A480068C0B208B9D4
:102D5000012000E0002050B900BF502080F311880E
:102D6000BFF34F8FBFF36F8F00BF00BFFEE7704709
:102D70007800002004ED00E00D48006850B900BF65
:102D8000502080F31188BFF34F8FBFF36F8F00BFC8
:102D900000BFFEE706480068401E05490860084677
:102DA000006820B9002080F3118800BF00BF704781
:102DB0007800002070B506463546002E3FD0083D0D
:102DC0002C461F4960680968084008B1012000E0EE
:102DD000002050B900BF502080F31188BFF34F8FFF
:102DE000BFF36F8F00BF00BFFEE7206808B9012066
:102DF00000E0002050B900BF502080F31188BFF3DD
:102E00004F8FBFF36F8F00BF00BFFEE70C496068B4
:102E10000968084098B1206888B90949606809685C
:102E20008843606000F0A6FA0649606809680844B3
:102E3000044908602046FFF7BFFB01F02BF870BD86
:102E4000740000206C000020064800684FF47A717E
:102E5000B0FBF1F0401E4FF0E0214861072008610F
:102E600070470000DC00002070B5FDF747FA04460B
:102E7000102C16D304F1E02090F8F0531548007898
:102E8000854201DB012000E0002050B900BF502046
:102E900080F31188BFF34F8FBFF36F8F00BF00BF68
:102EA000FEE70D48006800F4E0600C4909688842BC
:102EB00001D8012000E0002050B900BF502080F36D
:102EC0001188BFF34F8FBFF36F8F00BF00BFFEE7C6
:102ED00070BD00007C0000200CED00E080000020B0
:102EE000024600200BE0084B53F8303033B9064B54
:102EF00043F8301003EBC0035A6002E0401C08287E
:102F0000F1D300BF70470000040100202DE9F0411B
:102F100005460E4617462C46FFF704FF94F9440079
:102F2000401C10B9002084F8440094F94500401C6E
:102F300010B9002084F84500FFF71EFFA06B28B9E8
:102F40003A46314604F1240000F03AF92046FFF7F2
:102F500044FDBDE8F081000070B504460025D4B101
:102F60001248006808B9012000E0002050B900BFF5
:102F7000502080F31188BFF34F8FBFF36F8F00BFD6
:102F800000BFFEE700F0F6F900212046FFF7A2F8A7
:102F900000F080FF05463DB94FF0805004490860BD
:102FA000BFF34F8FBFF36F8F70BD0000480000204C
:102FB00004ED00E02DE9F04704460F464FF000090C
:102FC00054B900BF502080F31188BFF34F8FBFF377
:102FD0006F8F00BF00BFFEE70FB1012000E00020AF
:102FE00050B900BF502080F31188BFF34F8FBFF35B
:102FF0006F8F00BF00BFFEE72048006808B90120BE
:1030000000E0002050B900BF502080F31188BFF3CA
:103010004F8FBFF36F8F00BF00BFFEE700F0AAF92C
:10302000174806682068C5192068B04207D920688B
:10303000A8420BD9B54209D94FF0010906E0206832
:10304000A84201D8B54201D94FF001092560B9F174
:10305000000F03D0A81B0021FFF73CF800F01AFF77
:103060008046B8F1000F07D14FF080500549086045
:10307000BFF34F8FBFF36F8FBDE8F087480000208C
:103080002400002004ED00E070B50546FFF74AFE7D
:1030900015B93048006800E028460446201DFFF7B7
:1030A000F7FD78B9E06A00EB80002B4951F8200069
:1030B00040B994F82C1001208840284909688143C0
:1030C00026480160A06A18B104F11800FFF7E0FD7E
:1030D00023480068401C224908601E48006884425A
:1030E00009D1211D1F48FFF711FE1F480068401C31
:1030F0001D49086009E01D480068401E1B49086022
:103100002046FFF746F9FFF7BBFBFFF735FE1848EF
:103110000068E8B10F480068844219D1154800687A
:1031200008B9012000E0002050B900BF502080F312
:103130001188BFF34F8FBFF36F8F00BF00BFFEE753
:103140004FF080500C490860BFF34F8FBFF36F8F73
:1031500070BD000010000020440100202800002065
:103160003C0000200C0200201C0000202000002059
:103170002C0000204800002004ED00E0012001495F
:10318000086070473400002070B504460D4654B9FD
:1031900000BF502080F31188BFF34F8FBFF36F8FB4
:1031A00000BF00BFFEE70548016818312046FFF761
:1031B00093FD01212846FEF78DFF70BD1000002011
:1031C00070B505460E46144655B900BF502080F331
:1031D0001188BFF34F8FBFF36F8F00BF00BFFEE7B3
:1031E0000648016818312846FFF790FD0CB14FF0F2
:1031F000FF3621463046FEF76DFF70BD10000020FF
:1032000070B505462C46002D4BD02649E06A09686A
:10321000C96A884245D2A06900F0004028B9214817
:103220000068C06AC0F10700A061E16A01EB81019A
:103230001D4A02EB81016069884201D1012000E052
:10324000002050B3201DFFF723FD78B9E06A00EBA2
:103250008000154951F8200040B994F82C10012045
:103260008840124909688143104801600D48006890
:10327000C06AE06294F82C10012088400B4909686C
:1032800008430A490860E16A01EB8101064A02EB42
:103290008100211DFFF73AFD03E002480068C06A83
:1032A000E06270BD100000204401002028000020D2
:1032B00050B900BF502181F31188BFF34F8FBFF386
:1032C0006F8F00BF00BFFEE7034909680160034933
:1032D0000968416070470000380000202400002089
:1032E0001CB51D4800210B468222CDE900101BA110
:1032F0001C4800F035FC0446012C02D100F04CFEC5
:103300000446012C15D100BF502080F31188BFF373
:103310004F8FBFF36F8F00BF4FF0FF30124908602F
:1033200001201249086000201149086000F070F87F
:1033300010E0601C08B1012000E0002050B900BF7F
:10334000502080F31188BFF34F8FBFF36F8F00BF02
:1033500000BFFEE71CBD00004400002049444C456E
:103360000000000049240008400000202C0000203C
:103370002400002002480068401C01490860704792
:10338000480000201D48006818B101201C49086051
:1033900032E000201A4908601A480068B0FA80F04C
:1033A000C0F11F0101EB8100174A52F8200008B15B
:1033B000012000E0002050B900BF502080F31188A8
:1033C000BFF34F8FBFF36F8F00BF00BFFEE701EB6E
:1033D00081020D4B03EB820042685268426000F1AB
:1033E00008024368934202D14268526842604268D0
:1033F000D268064B1A6000BF7047000048000020EA
:10340000340000202800002044010020100000208B
:103410001CB5474800684749884201D0012000E0B8
:10342000002050B900BF502080F31188BFF34F8FA8
:10343000BFF36F8F00BF00BFFEE73D4800683D4906
:10344000491E884201D0012000E0002050B900BF91
:10345000502080F31188BFF34F8FBFF36F8F00BFF1
:1034600000BFFEE73449084600780190FF200A4675
:1034700010700846007800909DF8000000F0F00001
:103480009DF80020904201D1012000E0002050B9B9
:1034900000BF502080F31188BFF34F8FBFF36F8FB1
:1034A00000BF00BFFEE79DF8000000F05000234A77
:1034B00010700720224A106009E021480068401E71
:1034C0001F4A10609DF800004006000E00909DF815
:1034D000000000F080008028EFD01948006800024A
:1034E000174A10601046008800F4E0601060124A2D
:1034F000019810700E482030006840F470000C49AC
:10350000203108600846006840F070400860FFF70E
:103510009BFC00200B490860FCF7B8FE0A480068D5
:1035200040F0404008490860FCF7A0FE00201CBDA8
:1035300000ED00E071C20F4100E400E07C000020DB
:10354000800000207800002034EF00E010B500BFBC
:10355000502080F31188BFF34F8FBFF36F8F00BFF0
:1035600000F044FB18B14FF080500449086000BFE0
:10357000002080F3118800BF10BD000004ED00E0C2
:103580002DE9F84305460E4690460DB1012000E0B6
:10359000002050B900BF502080F31188BFF34F8F37
:1035A000BFF36F8F00BF00BFFEE70EB9002701E039
:1035B00005FB06F707F15000FFF74EFA044644B149
:1035C00004F1500943464A46314628460094FEF726
:1035D0004FFF2046BDE8F8832DE9FF4782B005463E
:1035E0000E461F464FF0000A2C4654B900BF50202B
:1035F00080F31188BFF34F8FBFF36F8F00BF00BF01
:10360000FEE70EB9206C08B9012000E0002050B997
:1036100000BF502080F31188BFF34F8FBFF36F8F2F
:1036200000BF00BFFEE700F0CBFA08B9049808B964
:10363000012000E0002050B900BF502080F3118825
:10364000BFF34F8FBFF36F8F00BF00BFFEE700BF18
:10365000FFF768FBD4F83890B9F1000F3DD0D4F8EB
:103660000C8031462046FEF741FEDFB9A9F101008A
:10367000A063206810B9FFF78DFA6060206908B96F
:10368000012000E0002010BB04F1100000F0B6FBA8
:10369000E8B14FF0805040490860BFF34F8FBFF34F
:1036A0006F8F14E0C4F80C80606A08B9012000E054
:1036B000002060B904F1240000F0A0FB38B14FF005
:1036C000805035490860BFF34F8FBFF36F8FFFF70E
:1036D00053FB012006B0BDE8F087049818B9FFF746
:1036E0004BFB0020F6E7BAF1000F04D16846FFF764
:1036F000DFFD4FF0010AFFF73FFBFFF73BFEFFF74F
:1037000011FB94F94400401C10B9002084F84400D7
:1037100094F94500401C10B9002084F84500FFF7DB
:103720002BFB04A9684600F0D5F940BB2046FEF704
:10373000A3FFF0B1206830B9FFF7F4FA6068FFF733
:103740005FFDFFF719FB04F124000499FFF71CFD4E
:103750002046FFF742F900F09DFB00287FF478AF88
:103760004FF080500C490860BFF34F8FBFF36F8F4D
:103770006EE72046FFF731F900F08CFB68E7204642
:10378000FFF72BF900F086FB2046FEF775FF0028B7
:10379000EED000209EE7000004ED00E070B5054685
:1037A0000E462C4654B900BF502080F31188BFF359
:1037B0004F8FBFF36F8F00BF00BFFEE7FFF7B2FA76
:1037C000D4E90F12206801FB020060600020A063B2
:1037D0002068A060E06B401E226C216800FB021094
:1037E000E060FF2084F8440084F845009EB9206919
:1037F00008B9012000E00020A8B904F1100000F091
:10380000FDFA80B14FF0805009490860BFF34F8F37
:10381000BFF36F8F07E004F11000FFF74DFA04F1DA
:103820002400FFF749FAFFF7A7FA012070BD000056
:1038300004ED00E02DE9FF4383B0064688461D46AF
:103840004FF00009344654B900BF502080F311886E
:10385000BFF34F8FBFF36F8F00BF00BFFEE7B8F11C
:10386000000F01D1206C08B9012000E0002050B900
:1038700000BF502080F31188BFF34F8FBFF36F8FCD
:1038800000BF00BFFEE7022D02D1E06B012801D18D
:10389000012000E0002050B900BF502080F31188C3
:1038A000BFF34F8FBFF36F8F00BF00BFFEE700F085
:1038B00087F908B9059808B9012000E0002050B93F
:1038C00000BF502080F31188BFF34F8FBFF36F8F7D
:1038D00000BF00BFFEE700BFFFF724FAA06BE16B5B
:1038E000884201D3022D28D12A4641462046FEF7C0
:1038F00012FD0746606A08B9012000E0002068B99F
:1039000004F1240000F07AFA88B14FF08050324977
:103910000860BFF34F8FBFF36F8F08E03FB14FF0E8
:1039200080502D490860BFF34F8FBFF36F8FFFF7B3
:1039300023FA012007B0BDE8F083059818B9FFF716
:103940001BFA0020F6E7B9F1000F04D101A8FFF738
:10395000AFFC4FF00109FFF70FFAFFF70BFDFFF780
:10396000E1F994F94400401C10B9002084F84400A7
:1039700094F94500401C10B9002084F84500FFF779
:10398000FBF905A901A800F0A5F8F0B92046FEF75B
:1039900080FEA0B104F110000599FFF7F5FB204669
:1039A000FFF71BF800F076FA002895D14FF0805011
:1039B00009490860BFF34F8FBFF36F8F8CE7204634
:1039C000FFF70BF800F066FA86E72046FFF705F8E8
:1039D00000F060FA0020ADE704ED00E02DE9F05FB3
:1039E00007468A4690461E463C4654B900BF5020C2
:1039F00080F31188BFF34F8FBFF36F8F00BF00BFFD
:103A0000FEE7BAF1000F01D1206C08B9012000E0F7
:103A1000002050B900BF502080F31188BFF34F8FB2
:103A2000BFF36F8F00BF00BFFEE7022E02D1E06B35
:103A3000012801D1012000E0002050B900BF502032
:103A400080F31188BFF34F8FBFF36F8F00BF00BFAC
:103A5000FEE7FFF709FA00BF5021EFF3118081F371
:103A60001188BFF34F8FBFF36F8F00BF0546A06B68
:103A7000E16B884201D3022E23D194F945B032463E
:103A800051462046FEF747FC0BF1010088B9606AF9
:103A900008B9012000E0002080B904F1240000F002
:103AA000ADF958B1B8F1000F08D00120C8F80000F6
:103AB00004E00BF1010040B284F845004FF0010929
:103AC00001E04FF0000900BF85F3118800BF4846B0
:103AD000BDE8F09F70B504460D4654B900BF5020B4
:103AE00080F31188BFF34F8FBFF36F8F00BF00BF0C
:103AF000FEE755B900BF502080F31188BFF34F8F08
:103B0000BFF36F8F00BF00BFFEE7FFF70BF912484E
:103B100003682868401C08B9002619E00F4920688E
:103B20000968884204D06068984201D801260FE0F5
:103B30006068181A2968884209D228686168591A89
:103B4000401A28602046FFF7B3FB002600E001265C
:103B5000FFF712F9304670BD240000203800002025
:103B60002DE9FF4F85B0804689461746DDE912AB47
:103B7000B800FEF771FF064656B15820FEF76CFFFD
:103B800004460CB1266304E03046FFF713F900E069
:103B900000247CB10020CDE900ABCDE902403A46DB
:103BA00049464046089BFEF778FC2046FEF7DEFAC1
:103BB000012501E04FF0FF35284609B0BDE8F08F40
:103BC0000549096809B9012005E00449096809B9EE
:103BD000022000E0002070472C0000204800002058
:103BE0000149086870470000240000202DE9F041D9
:103BF0004FF0000844480068002877D14348006827
:103C0000451C4248056015BB41480068006808B97A
:103C1000012000E0002050B900BF502080F311883F
:103C2000BFF34F8FBFF36F8F00BF00BFFEE7384871
:103C300007683848006836490860364807603648E3
:103C40000068401C34490860FEF71AFE00BF334884
:103C5000006885423CD300BF2D480068006808B961
:103C6000012000E0002020B14FF0FF302B49086018
:103C70002DE027480068C068C4686668B54202D273
:103C80002648066023E0201DFFF702F8A06A18B15D
:103C900004F11800FEF7FCFF94F82C100120884076
:103CA0001F49096808431E490860E16A01EB810168
:103CB0001C4A02EB8100211DFFF728F81A49E06A2F
:103CC0000968C96A8842C7D34FF00108C4E700BF3A
:103CD00015480068C06A00EB8000124951F82000C6
:103CE000012801D94FF0010805E0FFE70F480068FF
:103CF000401C0E4908600E48006808B14FF00108EA
:103D00004046BDE8F081000048000020240000206B
:103D1000140000201800002038000020400000207F
:103D20002800002044010020100000203000002066
:103D30003400002070B505462C460026002D55D0D5
:103D40002B480068844201D1012000E0002050B9D6
:103D500000BF502080F31188BFF34F8FBFF36F8FE8
:103D600000BF00BFFEE7E06C50B900BF502080F3F9
:103D70001188BFF34F8FBFF36F8F00BF00BFFEE707
:103D8000E06C401EE064A16CE06A88422ED0E06CDA
:103D900060BB201DFEF77CFF78B9E06A00EB800075
:103DA000144951F8200040B994F82C1001208840A3
:103DB00011490968814310480160A06CE062E06A23
:103DC000C0F10700A06194F82C10012088400A4936
:103DD0000968084308490860E16A01EB8101054A66
:103DE00002EB8100211DFEF791FF0126304670BDD8
:103DF00010000020440100202800002070B5064675
:103E0000F068C46854B900BF502080F31188BFF334
:103E10004F8FBFF36F8F00BF00BFFEE704F11800A4
:103E2000FEF736FF15480068A8B9201DFEF730FFE1
:103E300094F82C1001208840114909680843104962
:103E40000860E16A01EB81010E4A02EB8100211D4D
:103E5000FEF75CFF04E004F118010B48FEF756FF83
:103E60000A49E06A0968C96A884204D90125012023
:103E70000749086000E00025284670BD4800002082
:103E80002800002044010020F8010020100000203C
:103E90003400002070B5002400263648006850B970
:103EA00000BF502080F31188BFF34F8FBFF36F8F97
:103EB00000BF00BFFEE7FEF735FF2E480068401E3A
:103EC0002C4908600846006800284FD12A4800683D
:103ED00000284BD024E02948C068C46804F11800C9
:103EE000FEF7D6FE201DFEF7D3FE94F82C1001201D
:103EF000884023490968084321490860E16A01EBC9
:103F00008101204A02EB8100211DFEF7FFFE1E49C0
:103F1000E06A0968C96A884202D301201B49086027
:103F20001648006808B9012000E000200028D2D01F
:103F30000CB1FEF7A5FC1648056865B100BFFFF798
:103F400055FE10B10120114908606D1E002DF6D1FB
:103F500000200F4908600D48006838B1012630077D
:103F60000C490860BFF34F8FBFF36F8FFEF704FF5C
:103F7000304670BD4800002020000020F8010020DD
:103F80002800002044010020100000203400002000
:103F90003000002004ED00E01CB50024FEF742F9DB
:103FA0000E48006858B10E48022100234FF4827277
:103FB000CDE900100BA10D48FFF7D2FD044654B91E
:103FC00000BF502080F31188BFF34F8FBFF36F8F76
:103FD00000BF00BFFEE720461CBD000054000020CB
:103FE00058000020546D722053766300C1290008E8
:103FF0002DE9FE4304460D4616461F46DDF828808F
:104000004FF0000954B900BF502080F31188BFF36E
:104010004F8FBFF36F8F00BF00BFFEE714480068EB
:1040200010B3009501960294062D15DAFFF7C8FD2E
:10403000022808D10023424669460D480068FFF770
:10404000F9FB814610E000231A46694608480068DB
:10405000FFF7F0FB814607E000233A466946044833
:104060000068FFF7BBFC81464846BDE8FE830000C0
:10407000540000204FF04070E1EE100A704700003D
:10408000A04000080000002004010000E801000832
:10409000A441000804010020444301000402000878
:1040A00000000000010203040102030406070809DE
:1040B0000000000000000000000000000000000000
:1040C00000000000000000000000000000000000F0
:1040D00000000000000000000000000000000000E0
:1040E00000000000000000000000000000000000D0
:1040F00000000000000000000000000000000000C0
:1041000000000000000000000000000000000000AF
:104110000000000000000000AAAAAAAA00000000F7
:10412000000000000000000000000000000000008F
:104130000000000000000000A69B443B00000000BF
:10414000000000000000000001000000000000006E
:10415000000000000000000000000000000000005F
:10416000000000000000000000000000000000004F
:104170001E00000000000000000000000095BA0AC8
:104180000000000000000000010203040607080907
:10419000000000000000000000000000000000001F
:0441A000000000001B
:04000005080001AD41
:00000001FF
