:020000040800F2
:100000008049012065030008453C0008092F0008CD
:10001000793B00089D1B0008955100080000000076
:10002000000000000000000000000000AD02000819
:10003000892700080000000001030008854100082E
:100040007F0300087F0300087F0300087F03000888
:100050007F0300087F0300087F0300087F03000878
:100060007F0300087F0300087F0300087F03000868
:100070007F0300087F0300087F0300087F03000858
:100080007F0300087F0300087F0300087F03000848
:10009000BD1B00087F030008BD1C0008FD270008E9
:1000A0007F0300087F0300087F0300087F03000828
:1000B000FD4100087F0300087F0300087F0300085C
:1000C0007F0300087F0300087F0300087F03000808
:1000D0007F030008F54E00087F0300087F03000837
:1000E0007F0300087F0300087F0300087F030008E8
:1000F0007F0300087F0300087F0300087F030008D8
:100100007F0300087F0300087F0300087F030008C7
:100110007F0300087F0300087F0300087F030008B7
:100120007F0300087F0300087F0300087F030008A7
:100130007F0300087F0300087F0300087F03000897
:10014000DD1C00087F0300087F0300087F03000810
:100150007F0300087F0300087F030008594F000851
:100160007F0300087F0300087F0300087F03000867
:100170007F0300087F0300087F03000800000000E1
:100180007F0300087F0300087F0300087F03000847
:100190007F0300087F0300087F0300087F03000837
:1001A00000000000000000007F03000800F002F8DB
:1001B00000F06CF80AA090E8000C82448344AAF195
:1001C0000107DA4501D100F061F8AFF2090EBAE893
:1001D0000F0013F0010F18BFFB1A43F0010318477B
:1001E00004970000249700000A444FF0000C10F818
:1001F000013B13F0070408BF10F8014B1D1108BFA5
:1002000010F8015B641E05D010F8016B641E01F844
:10021000016BF9D113F0080F1EBF10F8014BAD1C94
:100220000C1B09D16D1E58BF01F801CBFAD505E0B2
:1002300014F8016B01F8016B6D1EF9D59142D6D30C
:10024000704700000023002400250026103A28BF34
:1002500078C1FBD8520728BF30C148BF0B60704738
:10026000662909F0A881642900F0DC80002070472D
:100270001FB509F096F900F051FC040000200021A0
:1002800008F03EFBE0601FBD10B510BD00F072FD30
:100290001146FFF7EDFF06F035FB00F090FD03B4CB
:1002A000FFF7F2FF03BC00F0D1FD00002A4B1968F4
:1002B0000868B0E8F04F80F30988BFF36F8F4FF004
:1002C000000080F3118870470000000006480068B5
:1002D000006880F3088862B661B6BFF34F8FBFF342
:1002E0006F8F00DF00BF00BF08ED00E0DFF80C00FB
:1002F000016841F470010160704700BF88ED00E0C3
:10030000EFF30980BFF36F8F134B1A681EF0100FC5
:1003100008BF20ED108A20E9F04F106008B44FF0BC
:10032000500080F31188BFF34F8FBFF36F8F07F03A
:100330004FFC4FF0000080F3118808BC1968086872
:10034000B0E8F04F1EF0100F08BFB0EC108A80F339
:100350000988BFF36F8F704710000020EFF305800E
:10036000704700000948804709480047FEE7FEE75C
:10037000FEE7FEE7FEE7FEE7FEE7FEE7FEE7FEE755
:1003800004480549054A064B70470000954100089E
:10039000AD01000880350120804901208045012001
:1003A000804501200FB4044910B503AA029800F05B
:1003B00081FB10BC5DF814FBBC0100202DE9F0416D
:1003C0000E460446002020622046E168884730B38C
:1003D000252805D0D4E901219047206A401CF2E786
:1003E000E168204600278847050018D0A5F14100A4
:1003F000192802D820354FF4006732462946204696
:100400002760FFF72DFF40B1012804D0F61D26F02C
:1004100007060836D8E7361DD6E72846DAE7206A09
:10042000BDE8F0812DE9F0410646002410687529E9
:10043000314616A510D0AFF30080002802DA404202
:1004400013A507E031688A0701D512A502E0490724
:1004500004D511A5012401E0AFF3008000210A2298
:1004600006F1240709E0B0FBF2FCB0FBF2F302FB5B
:100470001C00303078541846491C0028F3D123461C
:100480002A463046BDE8F04100F095B80000000073
:100490002D0000002B00000020000000032A40F285
:1004A000308010F0030C00F0158011F8013BBCF116
:1004B000020F624498BF11F801CB00F8013B38BF2E
:1004C00011F8013BA2F1040298BF00F801CB38BF3C
:1004D00000F8013B11F0030300F02580083AC0F05A
:1004E000088051F8043B083A51F804CBA0E8081002
:1004F000F5E7121D5CBF51F8043B40F8043BAFF335
:100500000080D20724BF11F8013B11F801CB48BF8E
:1005100011F8012B24BF00F8013B00F801CB48BFC4
:1005200000F8012B704710B5203AC0F00B80B1E8FD
:100530001850203AA0E81850B1E81850A0E8185018
:10054000BFF4F5AF5FEA027C24BFB1E81850A0E821
:10055000185044BF18C918C0BDE810405FEA827C3B
:1005600024BF51F8043B40F8043B08BF7047D20752
:1005700028BF31F8023B48BF11F8012B28BF20F8F3
:10058000023B48BF00F8012B704702F0FF0343EA2B
:10059000032242EA024200F0A1BA70477047704756
:1005A00010B500F0BFFA006810BD10B5044600F0A9
:1005B000B9FA046010BD2DE9F0470D469946924600
:1005C000044600F124080168880604D5E06921F09A
:1005D0001001216000E00120A84201DD471B00E07E
:1005E0000027A1697A1902EB0900081AA061207896
:1005F000C00602D42046AFF30080002608E0D4E90C
:1006000001211AF806009047206A401C761C2062DF
:100610004E45F4DB2078C0060AD52046AFF30080B3
:1006200006E0D4E9012130209047206A401C206276
:10063000381EA7F10107F4DC07E0D4E9012118F81E
:1006400005009047206A401C2062281EA5F1010584
:10065000F3DC2046AFF300802078000602D50220AC
:10066000BDE8F0870120FBE770472DE9FF4F0C46FE
:100670001E464FF0FF378BB0D2E90001DDF86080F5
:100680000A908A46C1F30A5505B93D46002108463D
:100690004FF00000BAF1000F00F4400005DA00EB63
:1006A00080004FF4400101EA50004FEA9059B9F13F
:1006B000010F00DDB9460A9850EA4A000ED044F610
:1006C0001050A5F2FF3545432F14B8F1000F1ED08E
:1006D0007542291E1EDDC9F100021CE0B8F1010FB0
:1006E0004FF0000001D0302103E0F24305E0215437
:1006F000401CB042FBDB30460022002121540B9904
:10070000C1F80880C1E900200FB0BDE8F08FBD1B23
:100710006D1CDEE74A4600DA694206A800F08CFA52
:1007200006AB93E8070003AB83E8070050460A993D
:1007300000F093FB8DE80700A0F500501F380090F3
:100740000398002D09DD42F21F014A46084403A91F
:100750000390684600F0F2FD08E0A0F500504A461C
:100760001F3803A90390684600F0FCFD8DE80700E0
:100770000004000C03D04FF0FF30410800E01046A9
:10078000B8F1000F03D00022009215461EE0751E3E
:1007900005D400F0CBF9303262556D1EF9D5B34661
:1007A0000122084302D000227F1C04E02078302878
:1007B00001D100227F1E002A099786D01DE0112D4D
:1007C00007DA00F0B3F9303262556D1C50EA0102CD
:1007D000F5D1084302D00098C8B10EE00021681E90
:1007E00005E0235C625C63542254401E491C814234
:1007F000F7DBAB46A81B401E0990002004F80B0055
:100800000B98099AC0F80880C0E9002B7CE71126F4
:100810004FF0000859E72DE9F04F88460446D21DF5
:1008200022F0070191B0D1E90001CDE90A0104F0FD
:10083000C1FC02460B98C00F01D02D2007E02068B4
:10084000810701D52B2002E0202101EAC000032A04
:10085000099001D0072A05DB03464146204600F0F7
:10086000ABF90BE12078800601D5E06900E00620B5
:10087000B8F1650F814606D0B8F1660F18D0B8F10F
:10088000670F70D131E00020B9F1110F009001DB4A
:10089000112301E009F101030AAA01A90CA8FFF73D
:1008A000E4FEDDE90C70002609F10105834647E00E
:1008B00001204B4600904FF000470AAA01A90CA85E
:1008C000FFF7D3FEDDE90DB00C995D46002610B9A7
:1008D00009F101000D18B9EB050003D4C0F1FF3692
:1008E00009F10105A5EB09002BE0B9F1010F01DACF
:1008F0004FF001090020B9F1110F0090484601DDC9
:10090000112300E003460AAA01A90CA8FFF7ADFED7
:10091000DDE90C704D4600268346207800070AD496
:10092000AB4500DA5D4601A8012D04DD411911F83F
:10093000011C302907D04F4502DA17F1040F04DA01
:10094000012082460FE06D1EEEE7002F02DCED1B5A
:100950003E4403E0781CA84200DD7D1CB81B00F17A
:10096000010A4FF000472078000703D4AA4501DBB5
:100970004FF0FF3A0021B7F1004F0DF143088DF819
:10098000431024D002202B23002F01DA7F422D2395
:100990000A21021EA0F1010000DC5FB197FBF1FC0F
:1009A00097FBF1F201FB1C7C17460CF1300C08F8A8
:1009B00001CDEEE7A8F1010003702188090501D5FA
:1009C000452100E06521A0F1010800F8011C09980B
:1009D0000FA9A1EB0807FF1D00B10120411901EB90
:1009E000EA70A1693844081A401EA0612078C00648
:1009F00002D42046AFF30080099828B1D4E9012140
:100A00009047206A401C20622078C00622D52046EC
:100A1000AFF300801EE0002E04DBB34502DD01A829
:100A2000805D00E03020D4E901219047206A401C1D
:100A30002062761CAAF101005FEA000A0AD100F0E8
:100A40006DF8C0680168405CD4E901219047206AD4
:100A5000401C2062281EA5F10105DCDC07E0D4E97A
:100A6000012118F8010B9047206A401C2062381EB3
:100A7000A7F10107F3DC2046AFF30080032011B09B
:100A800043E6000001694A1C02610878704700B51E
:100A90008FB0CDE901310021059105497944CDE9B7
:100AA000031011466846FFF789FC0FB000BD000037
:100AB000E5FFFFFF074B70B50D467B44FFF7E7FFEF
:100AC0000446284600F026F910B14FF0FF3070BD03
:100AD000204670BDEF5D00004FF000020429C0F019
:100AE000128010F0030C00F01B81CCF1040CBCF15F
:100AF000020F18BF00F8012BA8BF20F8022BA1EBB2
:100B00000C0100F00DB95FEAC17C24BF00F8012B95
:100B100000F8012B48BF00F8012B704700487047D0
:100B200040350120004870472035012030B5B0F134
:100B30000A024FEA900E71F100034EEA817EB0EB9B
:100B40000E0061EB91014FEA101E4EEA017E10EBA0
:100B50000E0041EB11114FEA102E4EEA016E10EB20
:100B60000E0041EB11214FEA104E4EEA014E10EB00
:100B70000E0041EB1141401841F100014FEAD00055
:100B800040EA41704FEAD10110EB80054FEA810441
:100B900044EA907444EB01046D1944EB0404521BC5
:100BA000A3414FF0000348BF0A3200D530BD401CBE
:100BB00041F1000130BD00002DE9F0411F4604461F
:100BC00003260168072A01F4006004DB08B116A5BA
:100BD00005E016A503E008B115A500E015A521F074
:100BE00010002060A069C01EA0610FB1401EA0616E
:100BF0002046AFF300804FB1D4E901213846904739
:100C0000206A401C2062C01C206206E0206AFAE7CD
:100C1000D4E9012115F8010B9047761EF8D2204641
:100C2000AFF30080BDE8F0814E414E006E616E0072
:100C3000494E4600696E66002DE9F047814616462A
:100C40008AB0334878440DC88DE80D0030487844A8
:100C5000801C03AC0DC884E80D0041F69B300844AD
:100C6000372190FBF1F290FBF1F5A5F1800501FB36
:100C700012041B3C02D56442012000E00020DFF892
:100C800090A080460027FA44AAF1BE0A0DE0E007D2
:100C900009D03246684607EB47010AEB810100F0B4
:100CA00061FB8DE8070064107F1C002CEFD1184F0A
:100CB0007F44AC3F18E0E80714D007EB04100DF1B7
:100CC000180A90E80E008AE80E00C068F04201D1D0
:100CD00098190890324606A903A800F043FB03AB1D
:100CE00083E807006D10641C002DE4D1324669468C
:100CF000B8F1000F03A802D000F020FB01E000F0E3
:100D000031FBC9E90001C9F808200AB0BDE8F08745
:100D1000848C0000007B00F0800070474FF00002E0
:100D200000B5134694469646203922BFA0E80C50E1
:100D3000A0E80C50B1F12001BFF4F7AF090728BFBC
:100D4000A0E80C5048BF0CC05DF804EB890028BF38
:100D500040F8042B08BF704748BF20F8022B11F061
:100D6000804F18BF00F8012B704700000048704703
:100D7000203501207546FFF7F9FFAE4605006946AC
:100D8000534620F00700854618B020B5FFF7F8FA63
:100D9000BDE820404FF000064FF000074FF000087C
:100DA0004FF0000B21F00701AC46ACE8C009ACE8FD
:100DB000C009ACE8C009ACE8C0098D4670470446DC
:100DC000AFF300802046FFF76AFA00004FF0013CC5
:100DD00050F8042B51F8043B9A4221D1A2EB0C03AA
:100DE000934313EACC1317D150F8042B51F8043B6A
:100DF0009A4215D1A2EB0C03934313EACC130BD107
:100E000050F8042B51F8043B9A4209D1A2EB0C0391
:100E1000934313EACC13DBD04FF00000704700BFC0
:100E2000D01A01BAB1FA81F101F0180122FA01F0E9
:100E3000CB40C1F12001DBB2C0B2C01A2CFA01F3E1
:100E4000D11A914311EAC311E6D170470149182024
:100E5000ABBEFEE72600020070475FEA400C08BF09
:100E600091F0000F4FEA8C234FEAC12243EA51511F
:100E70004FEA1C5018BF00F5F0404FEA300018BF91
:100E800041F000415FEA6C5C00F02980BCF1FF3F5B
:100E900008BF40F080407047130C06BF12044FF0AB
:100EA000100C4FF0000C130E04BF12020CF1080CD2
:100EB000130F04BF12010CF1040C930F04BF920036
:100EC0000CF1020CD30F04BF52000CF1010C1146BF
:100ED0004FF00002A0F11F00A0EB0C00704711F0D2
:100EE000004F08BF704731F000413FF4D5AF0B0C05
:100EF00006BF09044FF0100C4FF0000C0B0E04BF9E
:100F000009020CF1080C0B0F04BF09010CF1040CD1
:100F10008B0F04BF89000CF1020CCB0F04BF4900FA
:100F20000CF1010CCCF12003A0EB0C0022FA03F32E
:100F300002FA0CF241EA030100F10100704720F0CF
:100F40007F4C80EA030023F07F47ACEB070303F5F7
:100F50007C5300F0004003F1FF032DE980494FEA84
:100F6000154B09B44FEA144325EA0B4E24EA034813
:100F70000FF2042606EB132749083E785FEA320297
:100F800003FB0667C7F5000707FB06F64FEA543771
:100F90004FEAD64606F1020607FB066CCCF1005C70
:100FA0004FEA1C472CEA074C07FB06F40CFB06F53E
:100FB00004EB15464FEA961634BF00204FF0004070
:100FC0004FEAD13706FB07FC4FEA1C4C0CFB0BF732
:100FD000D21B03FB0CF761EB07010CFB0EF7B0EB28
:100FE000074072EB17420CFB08F734BFA2EB074235
:100FF000B2EB074261EB17414FEA0C444FEA91070D
:1010000006FB07FC4FEA1C4C0CFB0BF7B0EBC74090
:1010100072EB573203FB0CF734BFA2EBC742B2EBC3
:10102000C74261EB57310CFB0EF7B0EBC70072EB18
:1010300057720CFB08F734BFA2EBC702B2EBC70232
:1010400061EB5771039F4FEA816141EA921104EB12
:10105000CC044FEAD1374FEA826206FB07FC42EA32
:1010600090124FEA80604FEA1C4C0CFB0BF7D21B2E
:1010700003FB0CF761EB07010CFB0EF7B0EB07402D
:1010800072EB17420CFB08F734BFA2EB0742B2EB3E
:10109000074261EB17414FEA8C554FEA910704EB89
:1010A0009C2406FB07FC4FEA1C4C0CFB0BF7B0EB37
:1010B000C74072EB573203FB0CF734BFA2EBC742B9
:1010C000B2EBC74261EB57310CFB0EF7B0EBC70038
:1010D00072EB57720CFB08F734BFA2EBC702B2EBFE
:1010E000C70261EB577115EB4C254FEA816141EA6C
:1010F00092114FEA82624FEAD13742EA901206FB20
:1011000007FC44F100044FEA80604FEA1C4C0CFBE2
:101110000BF7D21B03FB0CF761EB07010CFB0EF77F
:10112000B0EB074072EB17420CFB08F734BFA2EBA1
:101130000742B2EB074261EB174115EB1C154FEA72
:10114000813141EA92414FEA823242EA90424FEACB
:1011500080304FEA0C7644F1000448EA03434EEA3B
:101160000B484FF0000EB2EB080C71EB030724BFE5
:10117000624639464EEB0E0E4FF0000B00185241FE
:1011800049414BEB0B0BB2EB080C71EB03077BF106
:10119000000B24BF624639464EEB0E0E4FF0000B9B
:1011A0000018524149414BEB0B0BB2EB080C71EBB1
:1011B00003077BF1000B24BF624639464EEB0E0E4F
:1011C00051EA020718BF46F0010616EB0E7655F1FC
:1011D000000254F1000103D5BDE88901BDE8008893
:1011E000BDE88901BDE80048B619524141EB010153
:1011F000A3F10103704780807F7E7D7C7B7A7978C4
:10120000777676757473727171706F6E6E6D6C6CCB
:101210006B6A6A696868676666656464636362616D
:101220006160605F5F5E5E5D5D5C5C5B5B5A5A59EE
:10123000595858575756565555555454535352525A
:101240005251515050504F4F4F4E4E4D4D4D4C4CB2
:101250004C4B4B4B4A4A4A494949484848474747FB
:101260004746464645454544444444434343434238
:10127000424242414141002B26D4770021D01CB587
:101280004FEA370703B44FF010004FF010014FF052
:1012900000000FBCBDE810400BF1010BBBF1010FCA
:1012A00008BF5FEA170722BF12F1010211F1010125
:1012B0004FF0004143F1000300F0004043EA00001A
:1012C0007047F9D35708DAE746EA064613F1400FAC
:1012D0004FEA16461FDD13F1200FDFBF16430A4603
:1012E000002120335B42C8D0C3F1200746EA0646FE
:1012F00002FA07F74FEA164646EA0706C3F1200747
:1013000022FA03F201FA07F721FA03F14FF0000382
:1013100042EA0702B1E746EA020646EA06464FEA13
:10132000164646EA0106BCBF46EA0646360C4FF0B2
:1013300000034FF000024FF000019EE72DE9C04886
:10134000934630B491E8380007C831EA400C48BFF2
:1013500034EA430C03D5FFF7F2FDFFF78CFFF0BC36
:10136000BDE800882DE9C048934630B491E83800C4
:1013700007C810F0804F08BF13F0804F03D100F072
:1013800005F8FFF778FFF0BCBDE8008820F07F4744
:1013900080EA030023F07F4C07EB0C03A3F57C539A
:1013A00000F00040A3F1FE0392F0000F00F0B380C4
:1013B00095F0000F00F077802DE901494FEA1140C8
:1013C0004FEA144621EA004800FB06FC24EA0647DF
:1013D00008FB06F607FB08F800FB07F718EB0648C2
:1013E0004CEB164C4FEA124B18EB07484FEA1546E8
:1013F0004CEB174022EA0B4E0BFB06FC25EA064796
:101400000EFB06F607FB0EFE0BFB07F71EEB064E68
:101410004CEB164C4FF000061EEB074E4CEB174BF7
:1014200018EB0B0840F1000018EB0E0B58EB00080E
:1014300040F100008F1A4FF000013CBFC943661B0A
:1014400014BFB5EB040C00213CBFC943F61B4FEAA7
:1014500017444EEA8E0E27EA04454FEA1C4704FB68
:1014600007622CEA074C05FB07F70CFB05F604FBAB
:101470000CFC16EB074642EB174216EB0C4642EB10
:101480001C421BEB060658EB0202414146EA9E064F
:1014900001D5BDE80189B619524141EB0101A3F123
:1014A0000103BDE801894FEA14454FEA114724EAD8
:1014B000054621EA074C05FB07F406FB07F70CFB82
:1014C00006F105FB0CFC11EB074144EB17444FEA16
:1014D000124711EB0C4144EB1C4422EA074C05FB7C
:1014E00007F206FB07F70CFB06F605FB0CFC16EBF8
:1014F000074642EB174216EB0C4642EB1C456A18B6
:1015000054F1000148BF7047B619524141EB010147
:10151000A3F10103704795F0000F37D04FEA114255
:101520004FEA144721EA024624EA074C02FB07F17E
:1015300006FB07F70CFB06F402FB0CFC14EB07445C
:1015400041EB17414FEA154714EB0C4441EB1C41AA
:1015500025EA074C02FB07F506FB07F70CFB06F62E
:1015600002FB0CFC16EB074645EB174516EB0C4649
:1015700045EB1C42121951F1000148BF7047B619E2
:10158000524141EB0101A3F1010370474FEA1445B9
:101590004FEA114724EA054621EA074C05FB07F10B
:1015A00006FB07F70CFB06F24FF0000605FB0CFCF0
:1015B00012EB074241EB174112EB0C4251EB1C417D
:1015C00048BF7047921841EB0101A3F10103704736
:1015D00000B587B00121480602F07CFC0121880695
:1015E00002F078FC00208DF817008DF81800082014
:1015F0008DF8140004208DF8150000208DF81200DD
:101600008DF819000320ADF8100000208DF81A00A5
:101610008DF813008DF816008DF81B0004A92B48D7
:1016200000F0BDFC01208DF80D000020ADF8080091
:10163000ADF80000ADF80200ADF80400ADF806000A
:101640008DF80B008DF80A0001208DF80C0068461B
:1016500000F018FC01208DF8170000208DF818000C
:1016600008208DF8140004208DF8150000208DF856
:1016700012008DF819000320ADF8100000208DF83D
:101680001A008DF813008DF816008DF81B0004A9C0
:101690000F4800F084FC01208DF80D000020ADF80B
:1016A0000800ADF80000ADF80200ADF80400ADF898
:1016B00006008DF80B000E208DF80A0001208DF831
:1016C0000C00684600F0DEFB07B000BD006400407F
:1016D0000068004000B58FB00121880502F0EAFBE8
:1016E0004FF00060009012480190124802900020D4
:1016F000039013200490002005904FF48060069022
:1017000000200890079009904FF480300A90002044
:101710000B9003200C9000200D900E906946064817
:1017200001F004F80121044800F0EAFF0FB000BD09
:10173000041001404C300120406402401CB50121DE
:10174000084602F0B7FB0121022002F0B3FB0121A1
:10175000082002F0AFFB0121202002F0ABFB0121A9
:10176000802002F0A7FB02208DF8040000208DF8F5
:1017700006008020009001208DF8070003208DF8DE
:1017800005006946504801F0B1F8072211464E485D
:1017900001F0F4F802208DF8040000208DF8060016
:1017A0000320009001208DF8070003208DF805002C
:1017B0006946464801F09AF809220021434801F0A1
:1017C000DDF809220121414801F0D8F802208DF806
:1017D000040000208DF806004FF4405000900120D6
:1017E0008DF8070003208DF805006946364801F0A2
:1017F0007DF809220C21344801F0C0F809220D219E
:10180000314801F0BBF801208DF8040000208DF86C
:1018100006004FF48060009001208DF8070003203F
:101820008DF8050069462A4801F060F801208DF81E
:10183000040000208DF806004FF420700090012075
:101840008DF8070003208DF805006946204801F057
:101850004DF800208DF804008DF80600402000901F
:1018600001208DF8070003208DF80500694618480F
:1018700001F03CF800208DF804008DF806004FF4CC
:101880008070009002208DF8070003208DF805007D
:1018900069460F4801F02AF8012211460D4801F06F
:1018A0006DF8022000908DF8040003208DF80500EB
:1018B00000208DF8060001208DF8070069460548D4
:1018C00001F014F81CBD000000040240000C0240AE
:1018D000001402400000024008B525208DF80000E9
:1018E00001208DF8030008208DF8010000208DF8FC
:1018F0000200684602F0B2F9012240F22441264873
:1019000003F0B3FB14208DF8000001208DF80300D4
:1019100008208DF8010000208DF80200684602F0D2
:101920009DF901221D491E4800F030FB1C4814306F
:10193000006840F0FF001A491431086040208DF81B
:10194000000001208DF8030008208DF80100002020
:101950008DF80200684602F081F901220221114847
:1019600000F014FB1C208DF8000009208DF8010008
:1019700000208DF8020001208DF80300684602F077
:101980006DF901221146900702F07DFC01218807C4
:1019900002F056FC08BD000000100140008F03005B
:1019A000006400400068004000B58BB0012108468B
:1019B00002F090FA0120099042F22730ADF82000A1
:1019C0000020ADF82200ADF8280008A94FF08040B3
:1019D00002F0AAFC0121880702F038FC0121102046
:1019E00002F078FA5920ADF820000020ADF822006E
:1019F000ADF8280040F2E730099008A9294802F024
:101A000093FC0121274802F021FC0121042002F06F
:101A100061FA0121082002F04DFA02220C2122482D
:101A200000F0ACFF4FF48050069002208DF81C00AF
:101A300003208DF81D0000208DF81E0001208DF878
:101A40001F0006A9184800F051FF42F22730ADF8F8
:101A500020000020ADF82200C72009900020ADF83A
:101A6000280008A9114802F05FFC7020ADF80400BE
:101A70000120ADF806000220ADF81000052003900B
:101A800001A90A4802F008FC0821084802F042FCBB
:101A90000121064802F0C8FB0121044802F0D6FBF0
:101AA0000BB000BD00100040000C024000080040D8
:101AB0001FB50121102002F01DFA0E4800900020F1
:101AC000ADF80C000420ADF80A000020ADF80800C5
:101AD000ADF80600ADF804006946074803F0EAFADD
:101AE00001224021044803F08DFA0121024803F04D
:101AF0007DFA1FBDA08601000010014000B58BB02B
:101B00000121022002F0E6F90121022002F0D2F9BF
:101B1000022204211F4800F031FF1020099002200A
:101B20008DF8280003208DF8290000208DF82A0068
:101B300001208DF82B0009A9164800F0D7FE592086
:101B4000ADF818000020ADF81A0001200790002021
:101B5000ADF8200006A9104802F0E6FB6020ADF8C1
:101B600004000120ADF806000020ADF8100001A926
:101B7000094802F091FB0821074802F0CBFB012144
:101B8000054802F051FB0121034802F05FFB0BB056
:101B900000BD0000000402400004004010B502A097
:101BA000FEF700FC10BD00004275734661756C7451
:101BB0005F48616E646C65720000000000B585B01E
:101BC0006A460021384800F074FA0098A0F201201B
:101BD00030B101281CD0022832D0032860D147E060
:101BE0009DF80C009DF80B1040EA012000B200EEB9
:101BF000100AB8EEC00A2D4880ED030A9DF80E10B9
:101C00009DF80D0041EA002000B22849088148E013
:101C10009DF80C009DF80B1040EA012000B200EE88
:101C2000100AB8EEC00A224880ED030A9DF80E1093
:101C30009DF80D0041EA002000B21D49088130E006
:101C40009DF80C009DF80B1040EA012000B200EE58
:101C5000100AB8EEC00A174880ED030A9DF80E106E
:101C60009DF80D0041EA002000B21249088118E0F9
:101C70009DF80C009DF80B1040EA012000B200EE28
:101C8000100AB8EEC00A0C4880ED030A9DF80E1049
:101C90009DF80D0041EA002000B20749088100E0EC
:101CA00000BF00BF05B000BD00640040A42F0120AC
:101CB000D42F0120BC2F01208C2F012010B54FF410
:101CC0000061044800F07DFE4FF40F41024800F02F
:101CD00085F810BD001002400064004000B585B0DA
:101CE0006A460021384800F0E4F90098A0F201208B
:101CF00030B101281CD0022832D0032860D147E03F
:101D00009DF80C009DF80B1040EA012000B200EE97
:101D1000100AB8EEC00A2D4880ED030A9DF80E1097
:101D20009DF80D0041EA002000B22849088148E0F2
:101D30009DF80C009DF80B1040EA012000B200EE67
:101D4000100AB8EEC00A224880ED030A9DF80E1072
:101D50009DF80D0041EA002000B21D49088130E0E5
:101D60009DF80C009DF80B1040EA012000B200EE37
:101D7000100AB8EEC00A174880ED030A9DF80E104D
:101D80009DF80D0041EA002000B21249088118E0D8
:101D90009DF80C009DF80B1040EA012000B200EE07
:101DA000100AB8EEC00A0C4880ED030A9DF80E1028
:101DB0009DF80D0041EA002000B20749088100E0CB
:101DC00000BF00BF05B000BD006800402C2F0120FF
:101DD000742F01205C2F0120442F0120B1F5007FDA
:101DE0003AD00FDC202928D006DC01291CD0042998
:101DF0001DD0082940D11DE0402921D0B1F5807FB8
:101E00003AD126E0B1F5004F31D006DCB1F5806F54
:101E100025D0B1F5006F2FD124E0B1F5803F12D06D
:101E2000B1F5003F28D111E0154A826025E0082273
:101E3000C26022E01022C2601FE0082202611CE0A2
:101E40001022026119E00822426016E0102242606E
:101E500013E00422426010E0042242600DE00422FC
:101E600042600AE0002282610422426005E0002212
:101E700082610422426000E000BF00BF70470000A2
:101E80000101010010B50021837A012202FA03F159
:101E90003D4A126842F001023B4B1A603A4A1C323A
:101EA00012688A43384B1C331A60027BCAB9364A1F
:101EB0000C3212688A43344B0C331A604288C38850
:101EC00042EA0343304A4032847A42F8343002888E
:101ED000838842EA03432C4A4032847A02EBC402EC
:101EE0005360027B012A19D1274A0C3212680A4337
:101EF000254B0C331A604288038842EA0343224A86
:101F00004032847A42F83430C288838842EA0343FC
:101F10001D4A4032847A02EBC4025360C27A3AB955
:101F2000194A121D12688A43174B1B1D1A6006E0DE
:101F3000154A121D12680A43134B1B1D1A600289B1
:101F400032B9114A143212688A430F4B14331A60A3
:101F50000289012A06D10C4A143212680A430A4B3C
:101F600014331A60427B012A06D1074A1C321268D8
:101F70000A43054B1C331A60034A126822F001021F
:101F8000014B1A6010BD0000006600401AB14369A1
:101F90000B43436102E043698B434361704730B5B3
:101FA000024600200023146824F002041460146820
:101FB00044F00104146000E05B1C546804F0010468
:101FC0001CB94FF6FF74A342F6D1546804F0010423
:101FD0000CB900206CE08C79012C04D1146844F019
:101FE0008004146003E0146824F080041460CC7949
:101FF000012C04D1146844F04004146003E0146818
:1020000024F0400414600C7A012C04D1146844F0CC
:102010002004146003E0146824F0200414604C7A57
:10202000012C04D1146844F01004146003E0146817
:1020300024F0100414608C7A012C04D1146844F04C
:102040000804146003E0146824F008041460CC7AD7
:10205000012C04D1146844F00404146003E01468F3
:1020600024F0040414608C78A407CD7844EA056455
:102070000D7944EA05444D7944EA05540D886D1EF6
:102080002C43D461146824F001041460002300E0A0
:102090005B1C546804F001041CB14FF6FF74A342AA
:1020A000F6D1546804F001040CB1002000E00120D6
:1020B00030BD10B500F5D87303EB01131B6803F0B6
:1020C00004031372137A53B900F5D87303EB0113A9
:1020D0001B6840F2FF7404EA5353136009E000F5F3
:1020E000D87303EB01131B686FF0604404EAD30359
:1020F000536000F5D87303EB01131B6803F0020370
:10210000537200F5D87303EB01135B6803F00F0300
:10211000937200F5D87303EB01135B681B0AD37449
:1021200000F5D87303EB01139B68D37200F5D873E5
:1021300003EB01139B681C0A147300F5D87303EBBF
:1021400001139B681C0C547300F5D87303EB011347
:102150009B681B0E937300F5D87303EB0113DB68C8
:10216000D37300F5D87303EB0113DB681C0A1474F6
:1021700000F5D87303EB0113DB681C0C547400F5F5
:10218000D87303EB0113DB681B0E937421B9C3688A
:1021900043F02003C36003E0036943F020030361BD
:1021A00010BD10B502460020936803F08063B3F1C0
:1021B000806F00D110E0936803F00063B3F1006F0B
:1021C00001D1012008E0936803F08053B3F1805FF0
:1021D00001D1022000E00420042874D002F5C0736D
:1021E00003EB00131B6803F0010402F5C07303EB5B
:1021F00000131C600B7A7BB94B7A0C8843EA44537A
:1022000002F5C07404EB00142468234302F5C07483
:1022100004EB0014236010E00B7A4C6843EAC4031B
:102220004C7A234302F5C07404EB00142468234362
:1022300002F5C07404EB001423608B7A03F00F03E3
:102240008B7202F5C07303EB00135B6823F00F047D
:1022500002F5C07303EB00135C6002F5C07303EB7F
:1022600000135B688C7A234302F5C07404EB0014FE
:1022700063608B7B1C064B7B44EA03440B7B44EA84
:102280000323CC7A234302F5C07404EB0014A3604B
:102290008B7C1C064B7C44EA03440B7C44EA0323FE
:1022A000CC7B234302F5C07404EB0014E36002F519
:1022B000C07303EB00131B6843F0010402F5C07305
:1022C00003EB00131C6010BD2DE9F04385B00446FC
:1022D0000F4615461E46DDE90C89009700208DF853
:1022E00008008DF8090008208DF80A00280A8DF8EA
:1022F0000B00E9B28DF80C10310A8DF80D10F1B217
:102300008DF80E104FEA18218DF80F1008F0FF011C
:102310008DF810104FEA19218DF8111009F0FF0106
:102320008DF8121000BFA06938B1206840F002009B
:102330002060206800F0FD002060A06800F0E05000
:102340000028F0D069462046FFF72BFF05B0BDE816
:10235000F083000010B52DED0A8B84B0044666486A
:1023600090ED020A10EE101A084607F0A9F841ECA9
:102370001C0B9FED620B53EC102B06F0ABFD41ECF8
:102380001A0B5D4890ED000AD0ED010A30EE600AAC
:1023900010EE101A084607F093F841EC1B0B53ECB3
:1023A0001A2B06F001FB41EC190B9FED560B53EC79
:1023B000102B06F08FFD41EC180B06F009FD009084
:1023C0004D4890ED020A10EE101A084607F078F812
:1023D00041EC1C0B9FED490B53EC102B06F07AFDE2
:1023E00041EC1A0B444890ED000AD0ED010A30EEA2
:1023F000200A10EE101A084607F062F841EC1B0B99
:1024000053EC1A2B06F0D0FA41EC190B9FED3D0B63
:1024100053EC102B06F05EFD41EC180B06F0D8FCD7
:102420000190354890ED020A10EE101A084607F0A8
:1024300047F841EC1C0B9FED350B53EC102B06F0CD
:1024400049FD41EC1A0B2C4890ED000AD0ED010A31
:1024500030EE600A10EE101A084607F031F841EC31
:102460001B0B53EC1A2B06F09FFA41EC190B9FED56
:10247000290B53EC102B06F02DFD41EC180B06F048
:10248000A7FC02901C4890ED020A10EE101A0846B4
:1024900007F016F841EC1C0B9FED1C0B53EC102BB6
:1024A00006F018FD41EC1B0B134890ED000AD0ED2F
:1024B000010A30EE200A10EE101A084607F000F864
:1024C00041EC180B53EC1B2B06F06EFA41EC1A0B87
:1024D0009FED100B53EC102B06F0FCFC41EC190B9C
:1024E00006F076FC03902146684600F017F804B029
:1024F000BDEC0A8B10BD0000043501201283C0CA58
:10250000A145EEBF2FDD240681956F401283C0CA1E
:10251000A145EE3F2FDD240681956FC09FED371A50
:10252000F0EE410A9FED351AB0EE410A002223E099
:1025300050F82230002B02DB50F8223002E050F835
:1025400022305B4201EE103AB8EEC11AB4EEE01A46
:10255000F1EE10FA0FDD50F82230002B02DB50F8BC
:10256000223002E050F822305B4201EE103AB8EE21
:10257000C11AF0EE410A521C042AD9DB9FED201A41
:10258000F4EEC10AF1EE10FA2EDD9FED1D1AC1EE38
:10259000201AB0EE610A90ED001AB8EEC11A21EED1
:1025A000001ABDEEC11A81ED001A90ED011AB8EEC5
:1025B000C11A21EE001ABDEEC11A81ED011A90ED8B
:1025C000021AB8EEC11A21EE001ABDEEC11A81ED51
:1025D000021A90ED031AB8EEC11A21EE001ABDEEF0
:1025E000C11A81ED031A07E003680B6043684B6072
:1025F00083688B60C368CB607047000000000000F8
:1026000000007D43034880ED000AC0ED010A80ED23
:10261000021A7047043501200A784B7842EA0322F7
:10262000C2F30A0202800288A2F5806212B202801E
:102630004A78D2108B7842EA4312C2F30A024280EF
:102640004288A2F5806212B242808A789211CB78D9
:1026500042EA83020B7942EA8322C2F30A028280B1
:102660008288A2F5806212B282800A7952104B7978
:1026700042EAC312C2F30A02C280C288A2F5806293
:1026800012B2C2804A791211920802724A79C2F3D8
:10269000011242728A79CB7942EA032212B2428154
:1026A0000A7A4B7A42EA032213B283818A7ACB7A7E
:1026B00042EA032213B2C3810B7B03744B7B437446
:1026C0008A7BCB7B42EA0322828270470246094B17
:1026D0009A4201D2084801E00648103801F0005340
:1026E0001BB1064B0B40C36002E0044B0B40836000
:1026F0007047000010640240006002407D0F7D0FB3
:1027000021B1026842F00102026003E0026822F097
:10271000010202607047014600200A6802F00102CF
:102720000AB1012000E000207047000010B500222F
:102730000268134B1A40CC680B6823434C6923434F
:102740008C692343CC6923430C6A23434C6A23439B
:102750008C6A23434C6B23438C6B23431A430260E4
:10276000426922F00702D1E90B3423431A43426144
:102770000B6943604B6883608B68C36010BD0000C9
:102780003F801CF04160704710B502A0FDF70AFEC3
:1027900010BD000044656275674D6F6E5F48616EE5
:1027A000646C65720000000070B504466FF00400B0
:1027B00001F0D4FCE11704EB5171C1F3C7010D4ADC
:1027C0001170E11704EB5171CD104FF47A7045434D
:1027D0000120094908804FF0E020006940F0020024
:1027E0004FF0E021086108464561006940F00100B2
:1027F000086170BD8C0000208E00002010B54FF4E1
:10280000807000F01DF860B14FF4807000F00CF89B
:102810004FF4807000F00EF801200249087000F0BB
:1028200089FE10BDBA010020014908607047000010
:10283000143C01400149086070470000143C01400D
:1028400001460020034A12680A400AB1012000E054
:1028500000207047143C0140002123498279002A5E
:102860003AD00A46126803689A430B461A600A1D5A
:10287000126803689A430B1D1A60027911440A68B2
:1028800003681A430A60184A0832126803689A43B8
:10289000154B08331A601A1D126803689A43124BCD
:1028A0000C331A604279102A0ED11A1F126803687D
:1028B0001A430D4B08331A601A1D126803681A4335
:1028C000094B0C331A600DE00749427911440A683C
:1028D00003681A430A6005E0027911440A68036834
:1028E0009A430A6070470000003C0140F0B50A4678
:1028F00000210023002400BF3DE0012505FA01F37B
:10290000156805EA03049C4234D105684F0003268C
:10291000BE40B543056015794E00B54006683543A5
:1029200005601579012D02D01579022D16D1856823
:102930004F000326BE40B543856055794E00B54033
:10294000866835438560456801268E40B5434560FD
:10295000456896798E40B6B235434560C5684F00EC
:102960000326BE40B543C560D5794E00B540C66864
:102970003543C560491C1029BFD3F0BDF0B5002315
:1029800000244D07ED0E02FA05F3CE1000F12005EC
:1029900055F826504E07F70E0F26BE40B543CF1010
:1029A00000F1200646F82750CE1000F1200555F81A
:1029B000265045EA0304CE1000F1200545F82640D4
:1029C000F0BD418370470183704742694A404261CC
:1029D0007047000010B52DED0A8BFE48B0F90800D5
:1029E00000EE100AB8EEC00ADFEDFB0A80EE201AF6
:1029F00011EE104A204606F063FD41EC1A0B9FEDE4
:102A0000F70B53EC102B06F065FA41EC190B9FED18
:102A1000F50B53EC102B06F083F841EC180B05F086
:102A200091FFF2494860EB48B0F90A0000EE100A45
:102A3000B8EEC00ADFEDE80A80EE201A11EE104A67
:102A4000204606F03DFD41EC1A0B9FEDE40B53ECE4
:102A5000102B06F03FFA41EC190B9FEDE20B53EC03
:102A6000102B06F05DF841EC180B05F06BFFDF4909
:102A70008860D848B0F90C0000EE100AB8EEC00A21
:102A8000DFEDD50A80EE201A11EE104A204606F03E
:102A900017FD41EC1A0B9FEDD10B53EC102B06F0F8
:102AA00019FA41EC190B9FEDCF0B53EC102B06F0EC
:102AB00037F841EC180B05F045FFCC49C860C54913
:102AC000B1F9000006F0B3F941EC190B9FEDC80B0A
:102AD00053EC102B06F024F841EC180B05F032FFF4
:102AE000C5490860BB49B1F9020006F0A0F941EC04
:102AF000190B9FEDBF0B53EC102B06F011F841ECB6
:102B0000180B05F01FFFBD490860B249B1F9040078
:102B100006F08DF941EC190B9FEDB50B53EC102B22
:102B200005F0FEFF41EC180B05F00CFFB4490860FE
:102B3000AE48D0ED031AB0EE611AD0ED021AF0EEF5
:102B4000610AD0ED011AB0EE610A0846D0ED002A04
:102B5000AA4890ED002AA848D0ED001A00F054FDD4
:102B6000A84890ED000ADFEDA80A20EE200ABDEE8D
:102B7000C00AA64880ED000AA54890ED000ADFEDE6
:102B8000A20A20EE200ABDEEC00AA24880ED000A8B
:102B9000A14890ED000ADFED9C0A20EE200ABDEE70
:102BA000C00A9E4880ED000A9D4890ED000ADFEDC6
:102BB000960A20EE200ABDEEC00A9A4880ED000A6F
:102BC000904890ED000AD0ED000A20EE200A9048CF
:102BD000D0ED000A90ED001A00EEC10A8E48D0ED4B
:102BE000000A90ED001A00EEC10A8D48D0ED000AEF
:102BF00090ED001A00EE810A10EE101A084606F059
:102C00005FFC41EC1B0B7F4890ED000A8048D0ED43
:102C1000000A20EE200A8048D0ED000A804890ED9E
:102C2000001A00EE810AF0EE000A20EE200A10EEF3
:102C3000101A084606F044FC41EC1C0BB0EE4B1A8F
:102C4000F0EE6B1AB0EE4C0AF0EE6C0A02F0E8FD02
:102C5000B0EE40AAF0EE60AA9FED620B53EC102B91
:102C600051EC1A0B06F036F941EC190B9FED5B0B9A
:102C700053EC102B05F054FF41EC180B05F062FEED
:102C8000694948605F4890ED000A6348D0ED000A4A
:102C900020EE200A5E48D0ED000A614890ED001A4F
:102CA00000EEC10AF0EE000A20EE200A10EE101A23
:102CB000084606F005FC41EC1B0BB0EE4B0AF0EEAB
:102CC0006B0A02F091FAB0EE40AAF0EE60AA9FED16
:102CD000450B53EC102B51EC1A0B06F0FBF841ECB2
:102CE000190B9FED3E0B53EC102B05F019FF41EC37
:102CF000180B05F027FE4C490860424890ED000A89
:102D0000D0ED000A20EE200A4148D0ED000A90EDF7
:102D1000001A00EE810A4048D0ED000A90ED001A3A
:102D200000EEC10A3E48D0ED000A90ED001A00EE18
:102D3000C10A10EE101A084606F0C2FB41EC1B0B4C
:102D4000334890ED000A3448D0ED000A20EE200A06
:102D50002C48D0ED000A324890ED001A00EE810AAE
:102D6000F0EE000A20EE200A10EE101A084606F0D7
:102D7000A7FB41EC1C0BB0EE4B1AF0EE6B1AB0EE59
:102D80004C0AF0EE6C0A02F04BFDB0EE40AAF0EEF9
:102D900060AA9FED140B53EC102B51EC1A0B06F0AC
:102DA00099F841EC190B9FED0D0B53EC102B05F02E
:102DB000B7FE41EC180B05F0C5FD1B4988600846BD
:102DC00090ED010AB5EEC00AF1EE10FA42DB90ED8B
:102DD000010A2BE0DC340120333383414AD8124D01
:102DE000FB2109400000000000806640BC34012047
:102DF000000000000000B040140100201801002075
:102E00001C010020A801002000007A44B00000202E
:102E1000AC010020B4000020B0010020B800002068
:102E2000B4010020BC000020B034012010EE101AC4
:102E3000084606F045FB41EC190B1FED160B53EC51
:102E4000102B06F053FA41EC180B05F07BFD2949D5
:102E5000486015E0274890ED010A10EE101A084668
:102E600006F02EFB41EC190B1FED220B53EC102B3F
:102E700005F09AFD41EC180B05F064FD1D49486012
:102E80001C4890ED020A1C4880ED000A194890ED9C
:102E9000010AB1EE400A184880ED040AD0ED040A98
:102EA000406900EE100AB8EEC00A30EE800A1248FF
:102EB00080ED040A0F4890ED000A0F4880ED060AE5
:102EC00090ED000ABDEEC00A0C4880ED000A0A48E9
:102ED00090ED040ABDEEC00A094880ED000A0648DC
:102EE00090ED060ABDEEC00A064880ED000ABDEC72
:102EF0000A8B10BDB034012094340120C0000020A2
:102F0000C4000020C800002010B502A0FDF74AFA56
:102F100010BD0000486172644661756C745F486161
:102F20006E646C657200000010B5044600200F4905
:102F3000086000F0D9F8012000F01CF824B101204D
:102F40000A490831086003E0002008490831086098
:102F5000012000F00FF801200449086000F00AF891
:102F600000200349C1F89C0210BD00009C8242422F
:102F70000080424210B5002106E0642200BF130029
:102F8000A2F10102FBD1491C8142F6D310BD000021
:102F900001200349086000200249C1F8A0027047DF
:102FA000988242420080424270B5002400F086F8C8
:102FB0000120FFF7DFFF002516E000200E49086022
:102FC0000220FFF7D7FF01200C49C1F89C026006E0
:102FD000040E09487838006808B1601CC4B20220A9
:102FE000FFF7C8FF681CC5B2082DE6DB00200249C8
:102FF0000860204670BD00009C8242420080424230
:103000002DE9F04107460E461446984600F084F834
:10301000FF2805D120A0FDF7C5F9FF20BDE8F0810C
:10302000384600F0F9F800F0CDF8FF2800D1F5E7B8
:10303000304600F0F1F800F0C5F8FF2804D119A0DF
:10304000FDF7B0F9FF20E9E700F066F8791CC8B297
:1030500000F0E2F800F0B6F8FF2804D114A0FDF764
:10306000A1F9FF20DAE7002508E0FFF79DFF2070B7
:103070000020FFF759FF641C681CC5B2A8F10100CD
:10308000A842F2DCFFF790FF20700120FFF74CFF11
:1030900000F07EF80020C1E76572726F7220370D74
:1030A0000A0000006572726F7220390D0A0000007C
:1030B0006572726F722032480D0A00001CB54FF421
:1030C0000070009000208DF804008DF806000120AB
:1030D0008DF8070003208DF8050069460148FFF7C9
:1030E00005FC1CBD001402401CB54FF4007000909C
:1030F00001208DF8040000208DF8060001208DF8D5
:10310000070003208DF8050069460248FFF7EEFB33
:103110001CBD00000014024010B5FFF7E5FF0120C0
:10312000134908601348D0F8240220B912A0FDF713
:1031300039F9FF2010BD01200D4908390860FFF75B
:1031400019FF00200B49C1F8A40209488038006823
:1031500020B10CA0FDF726F9FF20EBE70120FFF7D7
:1031600009FF002002490839086000BFE2E70000BB
:10317000A4824242008042426572726F7220312105
:103180000D0A00006572726F722032210D0A000074
:1031900010B5FFF7A9FF0020084908600849C1F8E9
:1031A000A4020120FFF7E6FE012004490860FFF7B2
:1031B000E1FE01200249C1F8A40210BD9C824242F6
:1031C0000080424210B50024FFF778FF012010492B
:1031D0000860FFF7CFFE01200E49C1F89C02FFF7FF
:1031E000C9FE0AE0601C84B2322C03DDFFF7D0FF79
:1031F000FF2010BD0520FFF7BDFE054880380068A0
:103200000028EFD102490839086000BFF1E700004B
:10321000A48242420080424270B50446FFF764FF38
:1032200000201349086000251EE004F0800020B152
:1032300001200F490831086003E000200C490831E3
:1032400008606006040E0120FFF794FE0120084983
:103250000860FFF78FFE00200649C1F89C0201209C
:10326000FFF788FE681CC5B2082DDEDB70BD0000CC
:103270009C8242420080424270B506460C4615468A
:10328000FFF74AFFFF2804D116A0FDF78BF8FF20B7
:1032900070BD3046FFF7C0FFFFF794FFFF2804D151
:1032A00013A0FDF77FF8FF20F2E72046FFF7B4FFF9
:1032B000FFF788FFFF2804D110A0FDF773F8FF2067
:1032C000E6E72846FFF7A8FFFFF77CFFFF2804D1B9
:1032D0000DA0FDF767F8FF20DAE7FFF759FF0020A0
:1032E000D6E700006572726F722033210000000083
:1032F0006572726F7220340D0A0000006572726F81
:103300007220350D0A0000006572726F7220360D52
:103310000A0000001CB50121302000F0CBFD4FF465
:103320000060009001208DF8040000208DF8060058
:1033300003208DF8050001208DF80700694610482C
:10334000FFF7D4FA4FF48040009001208DF804007C
:1033500000208DF8060003208DF8050001208DF86F
:10336000070069460748FFF7C1FA4FF400610448B7
:10337000FFF729FB4FF480410248FFF724FB1CBDF7
:10338000001002400014024010B501221921D02083
:10339000FFF772FFFF2800D110BD0A2003F034FAB6
:1033A00001223821D020FFF767FFFF2800D1F3E783
:1033B0000020F1E708B500200090FFF7E9FD0123A8
:1033C0006A467521D020FFF71BFE50B99DF800001A
:1033D000702801D0FF2008BD9DF800002549088015
:1033E00001E0FF20F7E701226B21D020FFF744FF27
:1033F000FF2800D1EFE701221A21D020FFF73CFF80
:10340000FF2800D1E7E718221B21D020FFF734FF67
:10341000FF2800D1DFE710221C21D020FFF72CFF6E
:10342000FF2800D1D7E701221D21D020FFF724FF7C
:10343000FF2800D1CFE702223721D020FFF71CFF61
:10344000FF2800D1C7E700223821D020FFF714FF62
:10345000FF2800D1BFE700226A21D020FFF70CFF30
:10346000FF2800D1B7E74FF4FA7003F0CDF9002040
:10347000B1E70000B801002010B502E0C82003F059
:10348000C3F9FFF797FFFF28F8D010BD00B585B04E
:103490000121880300F02EFD0121022000F00AFD29
:1034A0004FF48070039000208DF810008DF812000A
:1034B00001208DF8130002208DF8110003A9134894
:1034C000FFF714FA0821012000F098FD4FF48070F6
:1034D000009000208DF804000C208DF805000120DC
:1034E0008DF806006846FFF7B7F917208DF8080039
:1034F00008208DF8090000208DF80A0001208DF8C1
:103500000B0002A800F0AAFB05B000BD00040240B9
:103510002DE9F04104460D4616461F463B4632460D
:1035200029462046FFF76CFDFF2801D1BDE8F08158
:103530000020FBE710B53148007800285CD000205F
:103540002E4908700E232E4A3B21D020FFF7E0FFC2
:103550002B4840782A49097840EA012000B22949DD
:1035600008802748C0782649897840EA012000B2BF
:1035700024494880224840792149097940EA0120BC
:1035800000B2204988801E48C0791D49897940EAE7
:10359000012000B21B49C8801948407A1849097AAD
:1035A00040EA012000B21749088108460089C9890C
:1035B000084400B2134908811148C07A1049897A39
:1035C00040EA012000B20F49488108464089098A33
:1035D000084400B20B4948810948407B0849097BEF
:1035E00040EA012000B20749888108468089498A5B
:1035F000084400B20349888110BD0000BA010020D0
:10360000F0340120DC34012000B52DED108B81B0A9
:10361000F0EE404AB0EE605AF0EE415AF0EE613AF8
:10362000B0EE423AB0EE624AE94890ED000AB1EEDF
:10363000400A20EE240AE748D0ED000A00EEC50A51
:10364000E548D0ED000A00EEE50AF6EE000A20EEAD
:10365000200AF0EE40EAE14890ED000A20EE240A4C
:10366000DC48D0ED000A00EEA50ADB48D0ED000AE8
:1036700000EEC50AF6EE000A20EE200AB0EE40FA8F
:10368000D64890ED000A20EE050AD148D0ED000A98
:1036900000EEE50AD048D0ED000A00EEA40AF6EEEE
:1036A000000A20EE200AF0EE40FACC4890ED000A25
:1036B00020EE250AC648D0ED000A00EE850AC5486E
:1036C000D0ED000A00EEE40AF6EE000A20EE200A31
:1036D0008DED000AF5EEC03AF1EE10FA09D1B5EE23
:1036E000C03AF1EE10FA04D1B5EEC04AF1EE10FA8C
:1036F0007DD063EEA30A43EE030A44EE040AB0EE63
:10370000600A03F0E1F8F0EE402A23EEA20AF0EEA0
:10371000403A23EE220AB0EE403A24EE220AB0EEFE
:10372000404AAE4890ED000AF0EE000A20EE20AAD2
:10373000A74890ED000AF0EE000A60EE20AAA54826
:1037400090ED000AF0EE000A20EE20BAA24890EDBB
:10375000000AF0EE000A60EE20BAA04890ED000AE0
:10376000F1EE000A20EE20CA994890ED000AF1EE31
:10377000000A60EE208A974890ED000AF1EE000AF8
:1037800020EE209A924890ED000AF2EE000A60EED8
:1037900020CA904890ED000AF2EE000A20EE20DAEE
:1037A0008E4890ED000AD0ED000A60EE20DA8848DD
:1037B00090ED000AD0ED000A20EE206A854890EDD9
:1037C000000AD0ED000A60EE206A834890ED000AFE
:1037D000D0ED000A20EE20EA2CEE260A0BEE230A9A
:1037E0000CEE060A0AEEC30AF0EE409A00E087E00B
:1037F00028EE8E0A0BEEE30AF1EE000A6DEEA00A47
:10380000734890ED001A00EE810A0AEE430A30EE8A
:10381000680A0CEE860A0CEEA60A08EE840AB0EEE0
:10382000407AB1EE000A2DEE800A6A48D0ED000A17
:1038300020EE200A0AEE230A09EE0E0A0BEEC30A56
:1038400030EE490A0DEE060A0DEE260A09EE040ACC
:10385000F0EE407AB1EE000A26EE000A5E48D0EDA6
:10386000000A20EE200A0AEEE30AF1EE000A66EEF4
:10387000A00A90ED001A00EE810A0BEE430AB0EEAA
:10388000408A69EEA90A47EE070A47EEA70A48EE02
:10389000080AB0EE600A03F017F8F0EE402A29EEAD
:1038A000A20AF0EE409A27EE220AB0EE407A27EE06
:1038B000A20AF0EE407A28EE220AB0EE408A48488A
:1038C000D0ED000AB0EE6E0A00EEE90AF0EE40EA32
:1038D000D0ED000AB0EE4F0A00EEC70AB0EE40FA93
:1038E000D0ED000AB0EE6F0A00EEE70AF0EE40FA03
:1038F0009DED000AD0ED000A00EEC80A8DED000A29
:10390000364890ED000ADFED370A0EEEA00A80ED92
:10391000000A2F4890ED000ADFED320A0FEE200A70
:1039200080ED000A2B4890ED000ADFED2E0A0FEE25
:10393000A00A80ED000A2848D0ED000A9DED000A9B
:103940009FED281A40EE010AC0ED000A2348D0ED91
:10395000000A90ED001A60EE810A1D4890ED001AF1
:10396000D0ED001A41EE210A1A4890ED001AD0ED70
:10397000001A41EE210A184890ED001AD0ED001A05
:1039800041EE210AB0EE600A02F09EFFF0EE402AFE
:10399000124890ED000A20EE220A80ED000A0C4841
:1039A00090ED000A20EE220A80ED000A094890ED11
:1039B000000A20EE220A80ED000A074890ED000A76
:1039C00020EE220A80ED000A01B0BDEC108B00BD94
:1039D000AC010020B0010020B4010020A8010020AB
:1039E000A40100206F12033B2DE9F0412DED0C8B5B
:1039F0000546002600272D48008800F400400028D6
:103A000047DD002429480088A0F5404700BF00BFDB
:103A100034E02749095DA1F1300005F008FA41ECD6
:103A20001B0B391B481E05F002FA41EC1D0BB0EED2
:103A30004D1AF0EE6D1A9FED1F0B01F0E9FFB0EE8D
:103A400040CAF0EE60CA53EC1B2B51EC1C0B05F086
:103A500041FA41EC190B304605F0E9F941EC1A0B3B
:103A600053EC192B04F0A0FF41EC180B05F0B0F952
:103A7000064600200E490855601CC4B2BC42C8DB93
:103A800000200A4908800D48066001200C490860A2
:103A900007E00B480068012802D10848066800E0EA
:103AA0006E68AE60BDEC0C8BBDE8F0819400002028
:103AB000783001200000000000002440C0010020F8
:103AC000C401002010B588B004460121402000F058
:103AD000F1F90121202000F00DFA082209212348E4
:103AE000FEF74CFF08220E212048FEF747FF4FF457
:103AF0008440069002208DF81C008DF81D000020E7
:103B00008DF81E0001208DF81F0006A91748FEF74A
:103B1000EDFE02940020ADF80C00ADF80E00ADF8FB
:103B20001000ADF814000C20ADF8120002A91048E6
:103B300001F0C0FA01210E4801F058FA012240F2CA
:103B400025510B4801F091FA47208DF80400072019
:103B50008DF8050000208DF8060001208DF8070083
:103B600001A800F07BF808B010BD0000001802406A
:103B7000001401404160704710B502A0FCF712FC30
:103B800010BD00004D656D4D616E6167655F4861F8
:103B90006E646C65720000000180418081800022AB
:103BA000C280028142819FED060A80ED030A9FEDEB
:103BB000040A80ED040A9FED020A80ED050A7047B1
:103BC0000000000002884280018002884388D21AE7
:103BD00012B2C280B0F90620174B9A4204DA428929
:103BE000521C12B2428109E0B0F9062041F268038A
:103BF0009A4203DD4289521E12B24281B0F900207E
:103C0000B0F90430D21A00EE102AB8EEC00A9FEDC7
:103C10000B1AC0EE010A42894FF4B47312FB03F28F
:103C200000EE102AB8EEC00A9FED051A00EE810AD8
:103C300080ED030A7047000098EFFFFF0000004688
:103C40000000B44310B502A0FCF7ACFB10BD0000AF
:103C50004E4D495F48616E646C65720070B500211D
:103C600000230F22C4781CB3174C246804F4E064CA
:103C7000C4F5E064C4F30721C1F10404E3B20A41CE
:103C800044789C40E1B28478144021430C07210E13
:103C90000E4C05786155047804F01F050124AC40F2
:103CA00005786D11AD0005F1E025C5F8004109E08A
:103CB000047804F01F050124AC40054D0678761108
:103CC00045F8264070BD00000CED00E000E400E087
:103CD00080E100E002490143024A116070470000A0
:103CE0000000FA050CED00E0014691ED051A81EDAA
:103CF000071A81ED050AC1ED060A486B886391ED4C
:103D0000051AD1ED061A31EE611A81ED081A91ED0E
:103D1000001AD1ED081A21EE211A81ED0A1A91ED4F
:103D20000B1AD1ED011A91ED082A01EE821A81EDEC
:103D30000B1A91ED0B1AD1ED041AF1EE611AB4EEE3
:103D4000E11AF1EE10FA02DD91ED0B1A05E091EDAA
:103D5000041AB1EE411A81ED0B1AD1ED041AB4EE3A
:103D6000E11AF1EE10FA02D291ED0B1A01E091ED99
:103D7000041A81ED0B1A91ED0A1AD1ED0B1A31EEEE
:103D8000211AD1ED0C1A31EE211ABDEEC11A81EDC6
:103D90000D1A91ED0D1AB8EEC11AD1ED031AF1EE1C
:103DA000611AB4EEE11AF1EE10FA02DD91ED0D1A8E
:103DB00007E091ED031AB1EE411ABDEEC11A81ED93
:103DC0000D1AB8EEC11AD1ED031AB4EEE11AF1EEF4
:103DD00010FA04D291ED0D1AB8EEC11A01E091ED7E
:103DE000031ABDEEC11A81ED0D1A91ED081A81ED8D
:103DF000091A486B7047000080ED000AC0ED010A07
:103E000080ED021AC0ED031A80ED042ADFED112ABD
:103E1000C0ED052ADFED0F2AC0ED072ADFED0D2AE0
:103E2000C0ED062ADFED0B2AC0ED082ADFED092AD6
:103E3000C0ED092ADFED072AC0ED0A2ADFED052AC9
:103E4000C0ED0B2ADFED032AC0ED0C2A00214163EF
:103E5000816370470000000010B52DED048B84B025
:103E6000044694ED060A10EE101A084605F028FBE9
:103E700041EC180B94ED050A10EE101A084605F0F7
:103E80001FFB41EC190B606B02908DED008B53EC26
:103E9000192B03A0FCF786FA04B0BDEC048B10BD0F
:103EA0005049442825662C2025662C202564290DA0
:103EB0000A00000029B1064A12680243044B1A6046
:103EC00004E0034A12688243014B1A607047000005
:103ED0003038024029B1064A12680243044B1A6086
:103EE00004E0034A12688243014B1A6070470000E5
:103EF0004038024029B1064A12680243044B1A6056
:103F000004E0034A12688243014B1A6070470000C4
:103F100044380240F0B5002100220024022500268A
:103F20000223324F3F6807F00C0121B1042905D06C
:103F3000082937D105E02E4F076036E02D4F076086
:103F400033E02A4F3F1F3F68C7F38056274F3F1F7C
:103F50003F6807F03F036EB1264FB7FBF3F7DFF87A
:103F60008CC0ACF1040CDCF800C0CCF3881C07FB5F
:103F70000CF40CE01E4FB7FBF3F7DFF870C0ACF1A8
:103F8000040CDCF800C0CCF3881C07FB0CF4174FC2
:103F90003F1F3F68C7F301477F1C7D00B4FBF5F767
:103FA000076002E0124F076000BF00BF0F4F3F687D
:103FB00007F0F0010909104F7A5C0768D7404760A5
:103FC0000A4F3F6807F4E051890A0B4F7A5C476853
:103FD000D7408760054F3F6807F46041490B064FA3
:103FE0007A5C4768D740C760F0BD000008380240DF
:103FF0000024F400001BB7000000002030B50022B0
:104000008B071C0F0F2303FA04F20B4B8C1053F891
:1040100024309343084C8D1044F8253023468C10EF
:1040200053F824308C07240F00FA04F42343024C85
:104030008D1044F8253030BD083801400CB5002003
:10404000019000904148006840F480303F4908608A
:1040500000BF3E48006800F4003000900198401C0A
:104060000190009818B90198B0F5A04FF1D13748E8
:10407000006800F4003010B10120009001E0002041
:1040800000900098012860D130484030006840F02E
:1040900080502E49403108602D48006840F440406F
:1040A0002B49086029480830006828490831086011
:1040B0000846006840F4004008600846006840F484
:1040C000A05008602348091F0860081F006840F0DE
:1040D0008070091F086000BF1C48006800F0007075
:1040E0000028F9D01A48006840F480301849086068
:1040F00000BF1748406800F480300028F9D0144809
:10410000006840F400301249086000BF1048406861
:1041100000F400300028F9D040F205700E49086024
:104120000A480830006820F0030008490831086098
:104130000846006840F00200086000BF03480830ED
:10414000006800F00C000828F8D10CBD00380240CF
:10415000007000400C5A4007003C0240042808D17F
:104160004FF0E021096941F004014FF0E0221161B4
:1041700007E04FF0E021096921F004014FF0E0224F
:104180001161704710B504F061F9012801D003F006
:1041900023FE10BD10B51548006840F470001349A7
:1041A00008601348006840F00100114908600020D1
:1041B0000F49083108600E4800680E4908400C4954
:1041C00008600D48091D0860081F006820F4802061
:1041D000091F0860002006490C310860FFF72EFF18
:1041E0004FF0006001498039086010BD88ED00E0A3
:1041F00000380240FFFFF6FE1030002410B5012108
:10420000880700F02FF860B106480068401C054997
:1042100008600121880700F016F80121880700F0E6
:104220000FF810BD9000002021B1028842F08002FA
:10423000028004E002884FF67F731A4002807047C4
:10424000CA4302827047CA430282704721B1028882
:1042500042F00102028004E002884FF6FE731A4029
:104260000280704730B50246002000230024158AE2
:1042700005EA0103958905EA010413B10CB1012097
:1042800000E0002030BD1AB183890B43838102E036
:1042900083898B438381704770B5002400220023FB
:1042A000058C4FF6FE7635400584028C8388048B9E
:1042B0004FF68F752C40B51E2C400D882C43751E73
:1042C0002A408D892A434D882A43104DA84202D0A6
:1042D0000F4DA84213D14FF6F7752A40CD892A43D6
:1042E0004FF6FB752A408D882A434FF6FF652B4019
:1042F0004FF6FF552B400D8A2B434D8A2B4383806D
:1043000004838D684563028470BD00000000014095
:10431000000401400A460021018B4FF6F773194053
:10432000114301837047000000220288184B984215
:104330000ED0184B98420BD0B0F1804F08D0164BDE
:10434000984205D0154B984202D0154B984204D1A3
:104350004FF68F731A404B881A43124B984207D07E
:10436000114B984204D04FF6FF431A400B891A4371
:1043700002804B68C3620B880385054B984202D0CC
:10438000044B984201D18B7A0386012383827047C4
:10439000000001400004014000040040000800400B
:1043A000000C0040001000400014004008B504F06C
:1043B0005DF8009008E04FF480410448FEF705FBEB
:1043C000FA21684603F018FAF5E7000000140240ED
:1043D0002DED0C8B88B004F049F807909FEDBA0AD8
:1043E000B0EE408A022402259FEDB80AB0EE40DA12
:1043F0009FEDB72ADFEDB71A9FEDB41ADFEDB60ACD
:10440000B2EE0E0AB548FFF7F7FC9FEDB12ADFEDDB
:10441000B11A9FEDAE1ADFEDB00AB2EE0E0AB04847
:10442000FFF7EAFC9FEDAA2ADFEDAA1A9FEDA71A73
:10443000DFEDA90AB2EE0E0AAA48FFF7DDFC9FEDF8
:10444000A42ADFEDA41A9FEDA11ADFEDA30AB2EEB4
:104450000E0AA548FFF7D0FC9FEDA42ADFEDA31AB2
:104460009FED9A1ADFED990AB2EE040AA048FFF711
:10447000C3FC9FED9E2ADFED971A9FED941ADFEDA6
:10448000930AB0EE000A9B48FFF7B6FC1BE19A487E
:10449000B0F90000002803DB9748B0F9000003E002
:1044A0009548B0F900004042052801DA012000E0FB
:1044B000022004469148D0ED008A9149B1F90C00E0
:1044C00004F0B5FC41EC1B0B9FED8E0B53EC102B55
:1044D00004F026FB41EC1A0B04F034FA09EE100A42
:1044E000AC420CD09FED790A814880ED0B0A9FED1C
:1044F000770A804880ED0B0AB0EE68DA2546012C79
:1045000013D1F0EE680AB0EE4D0A7948FFF7ECFBE4
:104510007748D0ED0D0AF8EEE00AB0EE600AF0EE52
:10452000490A7448FFF7E0FB0EE07348B0F9000059
:10453000404200EE900AF8EEE00AB0EE600AF0EEBB
:10454000490A6C48FFF7D0FB6A4890ED0D0AB8EEB7
:10455000C00A10EE101A084604F0B2FF41EC1C0B22
:104560009FED6A0B53EC102B04F0DAFA41EC1B0BB5
:1045700004F0E8F909EE900A5F48B0F906004042FD
:1045800000EE100AB8EEC00A10EE101A084604F049
:1045900097FF41EC1C0B9FED5F0B53EC102B04F0CD
:1045A000BFFA41EC1B0B04F0CDF90AEE100A524899
:1045B000B0F9040000EE100AB8EEC00A10EE101AAE
:1045C000084604F07DFF41EC1C0B9FED520B53ECB1
:1045D000102B04F0A5FA41EC1B0B04F0B3F90AEE22
:1045E000900AB0EE691AF0EE4A0AB0EE6A0AFEF7D7
:1045F00009F803A8FDF7AEFE4848B0F9080001EE3F
:10460000100AB8EEC11A21EE081AF0EE410A9DED2B
:10461000031AB8EEC11AB0EE410A3048FFF764FB46
:104620003F48B0F9080001EE100AB8EEC11A21EEB9
:10463000081AF0EE410A9DED041AB8EEC11AB0EE68
:10464000410A2748FFF750FB3648B0F9080001EE51
:10465000100AB8EEC11A21EE081AF0EE410A9DEDDB
:10466000051AB8EEC11AB0EE410A1E48FFF73CFB2E
:104670002D48B0F9080001EE100AB8EEC11A21EE7B
:10468000081AF0EE410A9DED061AB8EEC11AB0EE16
:10469000410A1548FFF728FB1348808E00B21149E4
:1046A000898E09B2CDE900100D48808E03B20B4807
:1046B000808E02B24FF400711C48FDF705FE0A21FE
:1046C00007A803F099F8E2E67A5B563D0000000087
:1046D0000000FA4400007A459A99993E4C31012035
:1046E00088310120C43101200032012000007A44C9
:1046F0003C320120783201206030012094340120C6
:10470000DC340120666666666666304000000000A4
:1047100000A094400000000000A084402C2F012045
:10472000742F01205C2F0120442F012000680040DD
:1047300008B503F09BFE009005E0FEF74BF905215C
:10474000684603F059F8F8E708B503F08FFE0090CB
:1047500000210848FFF70EFA0AE002F005FF0548BD
:10476000FFF742F902F02AFF3221684603F044F8CD
:10477000F3E700004031012008B503F077FE009018
:104780000AE002F0F1FE0548FFF766FB02F016FFB3
:104790003221684603F030F8F3E700003C32012094
:1047A0001CB51CE00E48407A022815D1002000906C
:1047B000034602464FF4007101900A48FDF784FD5C
:1047C00000200090034602464FF400710190064815
:1047D000FDF77AFD03F0F4F9642002F0DFFFE1E772
:1047E0006030012000640040006800402DED0A8B1D
:1047F0008EB003F03BFE0D909FEDFE0AB0EE408AB6
:1048000000BF0024002500261422FB4908A8FBF75E
:104810008AFE1422F849143103A8FBF784FE9FEDA9
:10482000F72ADFEDF71A9FEDF71ADFEDF60AB7EE7C
:10483000080AF548FFF7E0FA9FEDF02ADFEDF01ADD
:104840009FEDF01ADFEDEF0AB7EE080AEF48FFF729
:10485000D3FA9FEDEA2ADFEDEA1A9FEDEA1ADFEDBF
:10486000E90AB7EE080AEA48FFF7C6FA9FEDE32A1D
:10487000DFEDE31A9FEDE31ADFEDE20AB7EE080A77
:10488000E448FFF7B9FA9FEDE42ADFEDE41A9FED63
:10489000DD1ADFEDDC0A9FEDE20AE248FFF7ACFA31
:1048A0009FEDDD2ADFEDDD1A9FEDD61ADFEDD50A8B
:1048B0009FEDDB0ADC48FFF79FFA9FEDD72ADFED7B
:1048C000D71A9FEDD01ADFEDCF0A9FEDD50AD74852
:1048D000FFF792FA9FEDD02ADFEDD01A9FEDC91AAB
:1048E000DFEDC80A9FEDCE0AD148FFF785FA4FF4F5
:1048F0007A710DA802F080FFCE4890ED030ABDEE5C
:10490000C00A10EE100A01B2CB48FFF745F9CB48B8
:1049100090ED030ABDEEC00A10EE100A01B2C848BD
:10492000FFF73AF9C74890ED030ABDEEC00A10EE52
:10493000100A01B2C448FFF72FF9C44890ED030AEA
:10494000BDEEC00A10EE100A01B2C148FFF724F90B
:1049500004E2B84890ED030ABDEEC00A10EE100A5A
:1049600001B2B548FFF72EF9B44890ED030ABDEE49
:10497000C00A10EE100A01B2B148FFF723F9B1489E
:1049800090ED030ABDEEC00A10EE100A01B2AE4867
:10499000FFF718F9AD4890ED030ABDEEC00A10EE1E
:1049A000100A01B2AA48FFF70DF9AA48007A0328B5
:1049B00059D1A54890ED030A10EE101A084604F0EC
:1049C0007FFD41EC1C0B9FEDA40B53EC102B04F06E
:1049D000A7F841EC1A0B08A9A14A126851F8220065
:1049E00004F025FA41EC1B0B53EC1A2B04F07EFC6F
:1049F00041EC190B04F0ECF99A490860904890EDED
:104A0000030A10EE101A084604F05AFD41EC1C0B84
:104A10009FED910B53EC102B04F082F841EC1A0B34
:104A200003A98F4A126851F8220004F000FA41EC01
:104A30001B0B53EC1A2B04F059FC41EC190B04F03E
:104A4000C7F98949086000200090034602464FF4E8
:104A5000007101908548FDF737FC032605210DA85C
:104A600002F0CAFE7AE17B48007A012810D1032EB9
:104A70000ED17848407A012802D17949086005E0D2
:104A80007448407A032801D175490860012615E071
:104A90007048007A022811D1032E0FD16D48407A58
:104AA000012803D102206E49086006E06948407A77
:104AB000032802D104206A49086002266848006879
:104AC000022810DC08A86649096850F821006549E9
:104AD0000968451A03A86249096850F8210062492B
:104AE0000968441A0FE0624841420B460246CDE98C
:104AF00000104FF400715D48FDF7E6FB32210DA870
:104B000002F07AFE2AE14C4890ED030A10EE101AEA
:104B1000084604F0D5FC41EC1A0B9FED4F0B53EC0B
:104B2000102B03F0FDFF41EC190B03F00BFF08EE17
:104B3000900AF0EE680A604200EE100AB8EEC00A71
:104B40003148FFF7D1F83E4890ED030A10EE101AF5
:104B5000084604F0B5FC41EC1A0B9FED3F0B53ECFB
:104B6000102B03F0DDFF41EC190B03F0EBFE08EE18
:104B7000900AF0EE680A00EE104AB8EEC00A234828
:104B8000FFF7B2F8304890ED030A10EE101A08460D
:104B900004F096FC41EC1A0B9FED2F0B53EC102BFD
:104BA00003F0BEFF41EC190B03F0CCFE08EE900AB7
:104BB000F0EE680A00EE105AB8EEC00A1448FFF78B
:104BC00093F8234890ED030A10EE101A084604F0FB
:104BD00077FC41EC1A0B9FED200B53EC102B03F0EC
:104BE0009FFF41EC190B03F0ADFE08EE900AF0EECA
:104BF000680A3FE07A5B563DAC96000800004842E8
:104C00000000C84200000000B4320120F032012050
:104C10002C3301206833012000007A450000FA455A
:104C200000005C42A4330120E03301201C34012049
:104C300058340120A42F0120EC2F0120D42F012073
:104C400004300120BC2F01201C3001208C2F0120BA
:104C50003430012060300120333333333333334079
:104C6000C8010020D0010020CC01002000640040D9
:104C7000D4FEFFFF684200EE100AB8EEC00A3848C2
:104C8000FFF732F83748B0F9080001EE100AB8EE25
:104C9000C11A21EE081AF0EE410A334890ED0D1AC0
:104CA000B8EEC11AB0EE410A3048FFF71DF830489F
:104CB000B0F9080001EE100AB8EEC11A21EE081A88
:104CC000F0EE410A2B4890ED0D1AB8EEC11AB0EE85
:104CD000410A2948FFF708F82848B0F9080001EE12
:104CE000100AB8EEC11A21EE081AF0EE410A244863
:104CF00090ED0D1AB8EEC11AB0EE410A2148FEF748
:104D0000F3FF2148B0F9080001EE100AB8EEC11A0D
:104D100021EE081AF0EE410A114890ED0D1AB8EE96
:104D2000C11AB0EE410A1948FEF7DEFF1748808E1F
:104D300000B21449898E09B2CDE900100E48808E68
:104D400003B20A48808E02B24FF400711048FDF79A
:104D5000BBFA05210DA802F04FFD00BFF9E50000E8
:104D600068330120A42F0120B4320120A433012094
:104D7000D42F0120F0320120E0330120BC2F01208C
:104D80002C3301201C3401208C2F012058340120A9
:104D9000006400401CB5044602F0E6FBFCF7CEFCC4
:104DA000FCF716FCFCF784FEFCF794FCFCF7FCFD1A
:104DB000FCF792FDFEF76AFBFEF75EFBFEF7E4FAF6
:104DC0000020062103464FF4FA72CDE9001026A117
:104DD0002A4803F00BFB0020062103464FF4FA7229
:104DE000CDE9001026A12A4803F000FB0020052190
:104DF00003464FF4C872CDE9001026A1294803F0FC
:104E0000F5FA0020072103464FF4FA72CDE90010AD
:104E100025A1294803F0EAFA0020032103464FF4B4
:104E2000C872CDE9001025A1274803F0DFFA002061
:104E3000032103464FF4C872CDE9001023A127488F
:104E400003F0D4FA0020032103464FF4C872CDE9E1
:104E5000001023A1264803F0C9FA002002F036FD15
:104E600002F0ACFB1CBD00005461736B5F4D6167C9
:104E7000696352656365697665000000494700080B
:104E80005461736B5F4D6167696353656E640000C5
:104E9000794700085461736B5F4779726F73636F72
:104EA00070650000314700085461736B5F536166A1
:104EB000655F4D6F64650000A14700085461736B26
:104EC0005F426C696E6B0000AD4300085461736B08
:104ED0005F4368617373697300000000D143000889
:104EE0005461736B5F53756D73756E6700000000DE
:104EF000ED47000810B513488088C4B211480088F7
:104F0000C4B200211048FDF7FBFB0F48001D0068EC
:104F1000012803D10D490E48FDF77EFB0D490A48D3
:104F2000FDF7D4FB00BF0848FDF7F5FB0028FAD1D8
:104F300013210548FDF726FC01210348FDF7E0FB9E
:104F400010BD000000100140406402404C300120C0
:104F5000603001200000301010B540F225511F488C
:104F600000F059F840B11D4800F00EF9C4B24FF4FA
:104F700000611B48FDF729FD1A48008800F4004035
:104F800058BB1848008800F4804060B10A2C03D058
:104F900000201449088020E01248008840F40040B6
:104FA0001049088019E00D2C06D10E48008840F405
:104FB00080400C49088010E00A480088C0F30D00CA
:104FC00009490C5407480088401C064908800846D7
:104FD0000088C72801DD0020088010BD00140140B2
:104FE00000100240940000207830012021B1828915
:104FF00042F40052828104E082894DF6FF731A4028
:10500000828170471AB1838A0B43838202E0838ACC
:105010008B438382704770B502460024002300252D
:10502000002040F66A16B14200D100BFC1F342151C
:1050300001F01F03012606FA03F3012D02D1968920
:10504000334006E0022D02D1168A334001E0968AF1
:1050500033400C12012606FA04F41688344013B1CA
:105060000CB1012000E0002070BDF0B50346002423
:1050700000260025002040F66A17B94200D100BF83
:105080001846C1F3421401F01F06012707FA06F57E
:10509000012C01D10C3004E0022C01D1103000E0D1
:1050A00014301AB107682F43076002E00768AF4366
:1050B0000760F0BD2DE9FF4705460E460024A146D6
:1050C00000BFA046B08900B100BF2C8A24F4405430
:1050D000F08804432C82AC8941F20C608443B08890
:1050E00031890843718908430443AC81AC8A24F4B4
:1050F0004074B0890443AC826846FEF70BFF204839
:10510000854202D01F48854202D1DDF80C9001E0B3
:10511000DDF80890A88900F4004040B109EBC9000F
:1051200000EB091031684900B0FBF1F707E009EB2B
:10513000C90000EB091031688900B0FBF1F7642069
:10514000B7FBF0F004012009642101FB1078A88965
:1051500000F4004040B1322000EBC800B0FBF1F099
:1051600000F00700044308E0322000EB081064213F
:10517000B0FBF1F000F00F0004432C81BDE8FF8785
:10518000001001400014014001468888C0F3080067
:105190007047000010B502A0FBF704F910BD000035
:1051A00055736167654661756C745F48616E646CC8
:1051B0006572000003B401984100009850EAC120D4
:1051C00018BF04204A0D18BF40F0010040F2FF72E2
:1051D000B2EB515F08BF40F00200012808BF052074
:1051E00002B070470000000070B5C1482DED020B01
:1051F0002DED0E8B82B0119D25F000449FEDBEDB9E
:105200009FEDBFEB84423EDBA4F140511098A1F129
:105210007F6108430FD0BC48844202DC28D110983B
:1052200030B39DED100B02B0BDEC0E8B02B0BDE8AB
:10523000704001F09DBA9DED100B53EC1D2B51EC0D
:10524000100B03F047FE9DED100B41EC180B53ECD7
:105250001E2B51EC100B03F03DFE53EC182B03F00A
:10526000A3FB41EC100B02B0BDEC0E8B02B070BD85
:105270000120FBF79AF902B0BDEC0E8B02B0BDE83D
:10528000704001F089BAA1489FEDA18B844256DAA3
:105290009DED100BB4F1795F0ADA51EC100BFFF7BA
:1052A00089FF042808BF01F097FA9DED100BDAE79B
:1052B00053EC102B51EC100B03F00CFE41EC190BCE
:1052C00095480621B0EE490AF0EE690A784401F0EB
:1052D000BBF953EC192B51EC100B03F0FBFD41EC27
:1052E0001A0B8E48B0EE490AF0EE690A04217844A0
:1052F00001F0AAF953EC192B51EC100B03F0EAFD65
:1053000053EC182B03F050FB41EC100B51EC1A0B33
:1053100053EC102B03F004FCCDE900019DED000BD4
:1053200053EC102B9DED100B51EC100B03F0D2FD44
:105330009DED101B53EC112B03F036FBD2E09DEDDD
:10534000100B51EC100B01F0A5FA53EC182B03F0E5
:10535000F5FE9FED730BCDE9000153EC102B9DED95
:10536000000B51EC100B03F0B5FD41EC190B6E482E
:105370000621B0EE490AF0EE690A784401F064F9BA
:1053800053EC192B51EC100B03F0A4FD41EC1B0B5B
:105390006648B0EE490AF0EE690A0421784401F04B
:1053A00053F953EC192B51EC100B03F093FD53EC14
:1053B000182B03F0F9FA41EC1C0B51EC190B02F01D
:1053C00051F841EC180B5A489FED5BABA04222DC30
:1053D00053EC1C2B51EC1B0B03F0A2FBCDE900019D
:1053E0009DED000B51EC180B53EC102B03F072FDEC
:1053F00053EC182B03F0D8FA53EC1A2B03F06AFD88
:1054000053EC1D2B03F072FF53EC1E2B03F096FEA2
:1054100041EC100B5FE08DED008B002000909DEDC6
:10542000000B51EC180B53EC102B03F0BDFA9DED63
:10543000000B41EC1E0B53EC102B51EC100B03F046
:1054400049FD53EC192B03F079FE53EC1E2B03F0AE
:1054500067FB41EC190B53EC1C2B51EC1B0B03F0BD
:105460005FFB41EC1B0B53EC1A2B51EC190B03F0B7
:1054700031FD53EC1D2B03F061FE41EC190B53EC95
:105480001A2B51EC180B03F025FD53EC1B2B03F0EA
:1054900021FD53EC192B03F029FF9DED000B41EC8E
:1054A000180B53EC1A2B51EC100B03F013FD9FED6E
:1054B000249B53EC192B03F041FE41EC100B51ECF3
:1054C000180B53EC102B03F011FF53EC192B03F0C6
:1054D00035FE41EC100B002D3FF7C5AE51EC100B23
:1054E00003F024FA41EC100BBDE6000000000000C0
:1054F0000000F03F00000000075C143326A6913C3A
:10550000182D4454FB21F93F0000F07F0000E03FDC
:10551000000000000000F03F0844000016440000B6
:10552000000000000000E03F5A4300006843000014
:105530003333EF3F00000000000000000000004097
:10554000182D4454FB21E93F70B59B482DED020B0B
:105550002DED068B079D25F00044A04218DC9748EE
:10556000844202DC0AD1069840B19DED060BBDECE9
:10557000068B02B0BDE8704001F0FAB8002DCCBF38
:105580009FED8F0B9FED900BBDEC068B02B070BDB5
:105590008F48A04215DD8F48A042D8BF4FF0FF349E
:1055A00058DD9DED060B51EC100BFFF703FE0428B0
:1055B00008BF01F011F99DED060BBDEC068B02B0A2
:1055C00070BD9DED060B51EC100B01F063F9CDE9B8
:1055D000060181489FED828BA0423CDD8248A042BB
:1055E0001FDD00249FED82AB9DED060B53EC1A2BC3
:1055F00051EC100B03F0D8F99DED060B41EC190BA3
:1056000053EC1A2B51EC100B03F064FC53EC182BE9
:1056100003F06CFE53EC192B03F082FACDE906017E
:1056200049E09DED060B012453EC182B51EC100BB7
:1056300003F0BAF99DED060B41EC190B53EC182B56
:1056400051EC100B03F052FE53EC192B03F068FAE7
:10565000CDE906012FE06848A0421FDD02249FED3E
:10566000689B9DED060B53EC192B51EC100B03F0CE
:1056700031FC53EC182B03F097F99DED060B41EC30
:10568000180B53EC192B51EC100B03F02FFE53ECBD
:10569000182B03F045FACDE906010CE09DED060B51
:1056A000032453EC102B9FED580B51EC100B03F01F
:1056B00037FACDE906019DED060B53EC102B51ECAA
:1056C000100B03F007FC41EC180B53EC182B03F004
:1056D00001FC41EC190B4E480621B0EE490AF0EEF0
:1056E000690A784400F0B0FF53EC182B51EC100B12
:1056F00003F0F0FB41EC180B4648B0EE490AF0EE1F
:10570000690A0521784400F09FFF53EC192B51ECF6
:10571000100B03F0DFFB41EC100B51EC180B53ECBA
:10572000102B002C0EDA03F03FF99DED061B53EC15
:10573000112B03F0CFFB9DED061B53EC112B03F057
:10574000FDFC35E003F030F99DED061B53EC112B09
:1057500003F0C0FB41EC100B2F48784400EBC40071
:1057600090ED001B51EC100B53EC112B03F0BEFD20
:105770009DED061B53EC112B03F0B8FD41EC100B13
:105780002648784400EBC40090ED001B51EC100B50
:1057900053EC112B03F0D2FC41EC100B002DA2BFF7
:1057A000BDEC068B02B070BD51EC100B03F0BEF8DF
:1057B00041EC100B01E70000000010440000F07FF6
:1057C000182D4454FB21F93F182D4454FB21F9BFF7
:1057D0000000DC3F0000203E0000F33F000000001E
:1057E000000000000000F03F0000E63F0000000065
:1057F00000000000000000400080034000000000A6
:10580000000000000000F83F000000000000F0BFB2
:10581000AA40000060400000EA3F0000A23F0000F4
:1058200070B56B4E2DED040B2DED028B82B0DDF8C3
:105830001CC0DDE905235C422CF000411C4341EA19
:10584000D474049D22F00040B44205D86C422C432D
:1058500040EAD474B4420BD99DED061B9DED040BB8
:1058600002B0BDEC028B04B0BDE8704000F08ABF0E
:10587000ACF14054A4F17F641C430BD0022404EA31
:10588000AC7444EAD27405439FED538B9FED542BC7
:1058900007D015E09DED040B51EC100B00F0ACFFB0
:1058A00042E0002C11BF012C9DED040B02B0BDECB9
:1058B000028B04BF04B070BD022C38D0032C3BD047
:1058C0000B439FED491B9FED4A0B0AD0B14218D103
:1058D000B04209D121F0804120F08040079105902D
:1058E0000FE0002A15DA10E0434B7B44002C08BF80
:1058F00093ED000B0DD0012C10D0022C17D0032CEF
:105900001AD0B0421DD1002A03DAB0EE410AF0EEFF
:10591000610A02B0BDEC028B04B070BD93ED000BC8
:1059200051EC100B03F002F841EC100BF1E7B0EE74
:10593000480AF0EE680AECE7B0EE420AF0EE620ABE
:10594000E7E7401A00153C28C8BF8DED000B19DCB5
:10595000BCF1000FBEBF10F13C0F9FED290B8DED88
:10596000000B0FDB9DED060B53EC102B9DED040B94
:1059700051EC100B03F0D4F800F08CFF00F03CFF6A
:10598000CDE90001002C08BF9DED000BC1D0012C1A
:1059900010D0022C9FED1C0B53EC102B9DED000B37
:1059A00051EC100B0DD003F0A1FC53EC182B03F0BD
:1059B0009DFCB9E7019880F0004001909DED000B3F
:1059C000A7E703F093FC53EC182B03F0B7FBABE70E
:1059D0000000F07F00000000182D4454FB21094016
:1059E000182D4454FB2109C0182D4454FB21F9BF44
:1059F000182D4454FB21F93F5A3F000000000000DD
:105A00000000000000000000075C143326A6A13C43
:105A10002DE9F04D2DED040B2DED0C8B96B0DDE94D
:105A20002350259CDDF888A025F0004624F000488E
:105A3000BAF1000F14BF0121002101EB4502FE491C
:105A400053184A1093422AD3002814BF012300237D
:105A500003EB44030B44F9498B4220D358EA00017D
:105A60009FEDF78B6FD0DFF8E0B35D4503D1BAF15E
:105A7000000F05D187E0BAF1000F08BF002100D068
:105A8000012101EB450111F5001F08D8002814BFC2
:105A90000121002101EB440111F5001F0BD99DEDFF
:105AA000241B9DED220B16B0BDEC0C8B04B0BDE8A1
:105AB000F04D00F067BE0027002DBCBFE3498845CC
:105AC00021DAE3498845A8BF02271CDAC3451ADC5E
:105AD000E04901EB2851142908DDC1F1340220FA14
