:020000040800F2
:100000002847012025030008512D0008DD2600089F
:10001000312D0008551B0008A13A0008000000001F
:100020000000000000000000000000006D02000859
:100030002925000800000000C1020008D131000895
:100040003F0300083F0300083F0300083F03000888
:100050003F0300083F0300083F0300089D250008F8
:100060003F0300083F0300083F0300083F03000868
:100070003F0300083F0300083F0300083F03000858
:100080003F0300083F0300083F0300083F03000848
:10009000751B00083F030008391C00083F030008D7
:1000A0003F0300083F0300083F0300083F03000828
:1000B000493200083F0300083F0300083F030008DF
:1000C0003F0300083F0300083F0300083F03000808
:1000D0003F0300080D3800083F0300083F030008F5
:1000E0003F0300083F0300083F0300083F030008E8
:1000F0003F0300083F0300083F0300083F030008D8
:100100003F0300083F0300083F0300083F030008C7
:100110003F0300083F0300083F0300083F030008B7
:100120003F0300083F0300083F0300083F030008A7
:100130003F0300083F0300083F0300083F03000897
:10014000651C00083F0300083F0300083F03000848
:100150003F0300083F0300083F030008653800081C
:100160003F0300083F0300083F0300083F03000867
:100170003F0300083F0300083F03000800000000A1
:100180003F0300083F0300083F0300083F03000847
:100190003F0300083F0300083F0300083F03000837
:1001A00000000000000000003F03000800F002F81B
:1001B00000F04CF80AA090E8000C82448344AAF1B5
:1001C0000107DA4501D100F041F8AFF2090EBAE8B3
:1001D0000F0013F0010F18BFFB1A43F0010318477B
:1001E0007C7500009C750000103A24BF78C878C167
:1001F000FAD8520724BF30C830C144BF04680C602D
:10020000704700000023002400250026103A28BF74
:1002100078C1FBD8520728BF30C148BF0B60704778
:10022000662907F08D81642900F0DC80002070478A
:100230001FB507F080F900F051FC040000200021F8
:1002400006F05AFBE0601FBD10B510BD00F072FD56
:100250001146FFF7EDFF04F051FB00F090FD03B4F1
:10026000FFF7F2FF03BC00F0D1FD00002A4B196834
:100270000868B0E8F04F80F30988BFF36F8F4FF044
:10028000000080F3118870470000000006480068F5
:10029000006880F3088862B661B6BFF34F8FBFF382
:1002A0006F8F00DF00BF00BF08ED00E0DFF80C003B
:1002B000016841F470010160704700BF88ED00E003
:1002C000EFF30980BFF36F8F134B1A681EF0100F06
:1002D00008BF20ED108A20E9F04F106008B44FF0FD
:1002E000500080F31188BFF34F8FBFF36F8F05F07D
:1002F0006BFC4FF0000080F3118808BC1968086897
:10030000B0E8F04F1EF0100F08BFB0EC108A80F379
:100310000988BFF36F8F704710000020EFF305804E
:10032000704700000948804709480047FEE7FEE79C
:10033000FEE7FEE7FEE7FEE7FEE7FEE7FEE7FEE795
:1003400004480549054A064B70470000E1310008A2
:10035000AD0100082833012028470120284301204F
:10036000284301200FB4044910B503AA029800F0F5
:100370004FFB10BC5DF814FBD40000202DE9F041C8
:100380000E460446002020622046E168884730B3CC
:10039000252805D0D4E901219047206A401CF2E7C6
:1003A000E168204600278847050018D0A5F14100E4
:1003B000192802D820354FF40067324629462046D6
:1003C0002760FFF72DFF40B1012804D0F61D26F06D
:1003D00007060836D8E7361DD6E72846DAE7206A4A
:1003E000BDE8F0812DE9F04106460024106875292A
:1003F000314616A510D0AFF30080002802DA404243
:1004000013A507E031688A0701D512A502E0490764
:1004100004D511A5012401E0AFF3008000210A22D8
:1004200006F1240709E0B0FBF2FCB0FBF2F302FB9B
:100430001C00303078541846491C0028F3D123465C
:100440002A463046BDE8F04100F063B800000000E5
:100450002D0000002B00000020000000032A40F2C5
:10046000308010F0030C00F0158011F8013BBCF156
:10047000020F624498BF11F801CB00F8013B38BF6E
:1004800011F8013BA2F1040298BF00F801CB38BF7C
:1004900000F8013B11F0030300F0CC82083AC0F0F1
:1004A000088051F8043B083A51F804CBA0E8081042
:1004B000F5E7121D5CBF51F8043B40F8043BAFF375
:1004C0000080D20724BF11F8013B11F801CB48BFCF
:1004D00011F8012B24BF00F8013B00F801CB48BF05
:1004E00000F8012B704702F0FF0343EA032242EABF
:1004F000024200F0D3BA70477047704710B500F061
:10050000F1FA006810BD10B5044600F0EBFA046083
:1005100010BD2DE9F0470D4699469246044600F17C
:1005200024080168880604D5E06921F010012160E3
:1005300000E00120A84201DD471B00E00027A1697F
:100540007A1902EB0900081AA0612078C00602D4CB
:100550002046AFF30080002608E0D4E901211AF814
:1005600006009047206A401C761C20624E45F4DB52
:100570002078C0060AD52046AFF3008006E0D4E913
:10058000012130209047206A401C2062381EA7F1CC
:100590000107F4DC07E0D4E9012118F805009047D1
:1005A000206A401C2062281EA5F10105F3DC2046CC
:1005B000AFF300802078000602D50220BDE8F08766
:1005C0000120FBE770472DE9FF4F0C461E464FF018
:1005D000FF378BB0D2E90001DDF860800A908A46CF
:1005E000C1F30A5505B93D46002108464FF0000009
:1005F000BAF1000F00F4400005DA00EB80004FF480
:10060000400101EA50004FEA9059B9F1010F00DDB5
:10061000B9460A9850EA4A000ED044F61050A5F2A6
:10062000FF3545432F14B8F1000F1ED07542291E27
:100630001EDDC9F100021CE0B8F1010F4FF000000F
:1006400001D0302103E0F24305E02154401CB042C8
:10065000FBDB30460022002121540B99C1F80880B1
:10066000C1E900200FB0BDE8F08FBD1B6D1CDEE7B7
:100670004A4600DA694206A800F0BEFA06AB93E8E3
:10068000070003AB83E8070050460A9900F0C5FB5A
:100690008DE80700A0F500501F3800900398002D4A
:1006A00009DD42F21F014A46084403A90390684647
:1006B00000F024FE08E0A0F500504A461F3803A9C8
:1006C0000390684600F02EFE8DE807000004000C41
:1006D00003D04FF0FF30410800E01046B8F1000FA2
:1006E00003D00022009215461EE0751E05D400F0CE
:1006F000FDF9303262556D1EF9D5B346012208432B
:1007000002D000227F1C04E02078302801D1002292
:100710007F1E002A099786D01DE0112D07DA00F010
:10072000E5F9303262556D1C50EA0102F5D10843FB
:1007300002D00098C8B10EE00021681E05E0235CDD
:10074000625C63542254401E491C8142F7DBAB4675
:10075000A81B401E0990002004F80B000B98099A72
:10076000C0F80880C0E9002B7CE711264FF0000894
:1007700059E72DE9F04F88460446D21D22F00701C3
:1007800091B0D1E90001CDE90A0103F099F90246DF
:100790000B98C00F01D02D2007E02068810701D5FC
:1007A0002B2002E0202101EAC000032A099001D099
:1007B000072A05DB03464146204600F0DDF90BE140
:1007C0002078800601D5E06900E00620B8F1650FC9
:1007D000814606D0B8F1660F18D0B8F1670F70D116
:1007E00031E00020B9F1110F009001DB112301E08D
:1007F00009F101030AAA01A90CA8FFF7E4FEDDE94B
:100800000C70002609F10105834647E001204B46A4
:1008100000904FF000470AAA01A90CA8FFF7D3FEE9
:10082000DDE90DB00C995D46002610B909F1010013
:100830000D18B9EB050003D4C0F1FF3609F101052D
:10084000A5EB09002BE0B9F1010F01DA4FF0010926
:100850000020B9F1110F0090484601DD112300E09E
:1008600003460AAA01A90CA8FFF7ADFEDDE90C704A
:100870004D4600268346207800070AD4AB4500DAAF
:100880005D4601A8012D04DD411911F8011C302934
:1008900007D04F4502DA17F1040F04DA012082462F
:1008A0000FE06D1EEEE7002F02DCED1B3E4403E07F
:1008B000781CA84200DD7D1CB81B00F1010A4FF036
:1008C00000472078000703D4AA4501DB4FF0FF3A28
:1008D0000021B7F1004F0DF143088DF8431024D0EB
:1008E00002202B23002F01DA7F422D230A21021E32
:1008F000A0F1010000DC5FB197FBF1FC97FBF1F286
:1009000001FB1C7C17460CF1300C08F801CDEEE71A
:10091000A8F1010003702188090501D5452100E0F7
:100920006521A0F1010800F8011C09980FA9A1EBAD
:100930000807FF1D00B10120411901EBEA70A16910
:100940003844081A401EA0612078C00602D4204610
:10095000AFF30080099828B1D4E901219047206ABB
:10096000401C20622078C00622D52046AFF30080CC
:100970001EE0002E04DBB34502DD01A8805D00E02F
:100980003020D4E901219047206A401C2062761C67
:10099000AAF101005FEA000A0AD100F09FF8C068DE
:1009A0000168405CD4E901219047206A401C206224
:1009B000281EA5F10105DCDC07E0D4E9012118F8C7
:1009C000010B9047206A401C2062381EA7F10107E6
:1009D000F3DC2046AFF30080032011B043E60000B3
:1009E00001694A1C02610878704700B58FB0CDE9F3
:1009F00001310021059105497944CDE903101146E3
:100A00006846FFF7BBFC0FB000BD0000E5FFFFFF2D
:100A1000074B70B50D467B44FFF7E7FF04462846B9
:100A200000F058F910B14FF0FF3070BD204670BD96
:100A3000C73E000010B5203AC0F00B80B1E8185056
:100A4000203AA0E81850B1E81850A0E81850BFF4B8
:100A5000F5AF5FEA027C24BFB1E81850A0E8185057
:100A600044BF18C918C0BDE810405FEA827C24BFAB
:100A700051F8043B40F8043B08BF7047D20728BF39
:100A800031F8023B48BF11F8012B28BF20F8023B88
:100A900048BF00F8012B70474FF000020429C0F056
:100AA000128010F0030C00F01B81CCF1040CBCF19F
:100AB000020F18BF00F8012BA8BF20F8022BA1EBF2
:100AC0000C0100F00DB95FEAC17C24BF00F8012BD6
:100AD00000F8012B48BF00F8012B70470048704711
:100AE000E832012000487047C832012030B5B0F12B
:100AF0000A024FEA900E71F100034EEA817EB0EBDC
:100B00000E0061EB91014FEA101E4EEA017E10EBE0
:100B10000E0041EB11114FEA102E4EEA016E10EB60
:100B20000E0041EB11214FEA104E4EEA014E10EB40
:100B30000E0041EB1141401841F100014FEAD00095
:100B400040EA41704FEAD10110EB80054FEA810481
:100B500044EA907444EB01046D1944EB0404521B05
:100B6000A3414FF0000348BF0A3200D530BD401CFE
:100B700041F1000130BD00002DE9F0411F4604465F
:100B800003260168072A01F4006004DB08B116A5FA
:100B900005E016A503E008B115A500E015A521F0B4
:100BA00010002060A069C01EA0610FB1401EA061AE
:100BB0002046AFF300804FB1D4E901213846904779
:100BC000206A401C2062C01C206206E0206AFAE70E
:100BD000D4E9012115F8010B9047761EF8D2204682
:100BE000AFF30080BDE8F0814E414E006E616E00B3
:100BF000494E4600696E66002DE9F047814616466B
:100C00008AB0334878440DC88DE80D0030487844E8
:100C1000801C03AC0DC884E80D0041F69B300844ED
:100C2000372190FBF1F290FBF1F5A5F1800501FB76
:100C300012041B3C02D56442012000E00020DFF8D2
:100C400090A080460027FA44AAF1BE0A0DE0E00712
:100C500009D03246684607EB47010AEB810100F0F4
:100C600061FB8DE8070064107F1C002CEFD1184F4A
:100C70007F44AC3F18E0E80714D007EB04100DF1F7
:100C8000180A90E80E008AE80E00C068F04201D110
:100C900098190890324606A903A800F043FB03AB5D
:100CA00083E807006D10641C002DE4D132466946CC
:100CB000B8F1000F03A802D000F020FB01E000F023
:100CC00031FBC9E90001C9F808200AB0BDE8F08786
:100CD0003C6B0000007B00F0800070474FF000028A
:100CE00000B5134694469646203922BFA0E80C5022
:100CF000A0E80C50B1F12001BFF4F7AF090728BFFD
:100D0000A0E80C5048BF0CC05DF804EB890028BF78
:100D100040F8042B08BF704748BF20F8022B11F0A1
:100D2000804F18BF00F8012B704700000048704743
:100D3000C83201207546FFF7F9FFAE460500694647
:100D4000534620F00700854618B020B5FFF7F8FAA3
:100D5000BDE820404FF000064FF000074FF00008BC
:100D60004FF0000B21F00701AC46ACE8C009ACE83D
:100D7000C009ACE8C009ACE8C0098D46704704461C
:100D8000AFF300802046FFF76AFA00004FF0013C05
:100D900050F8042B51F8043B9A4221D1A2EB0C03EA
:100DA000934313EACC1317D150F8042B51F8043BAA
:100DB0009A4215D1A2EB0C03934313EACC130BD147
:100DC00050F8042B51F8043B9A4209D1A2EB0C03D2
:100DD000934313EACC13DBD04FF00000704700BF01
:100DE000D01A01BAB1FA81F101F0180122FA01F02A
:100DF000CB40C1F12001DBB2C0B2C01A2CFA01F322
:100E0000D11A914311EAC311E6D170470149182064
:100E1000ABBEFEE72600020070475FEA400C08BF49
:100E200091F0000F4FEA8C234FEAC12243EA51515F
:100E30004FEA1C5018BF00F5F0404FEA300018BFD1
:100E400041F000415FEA6C5C00F02980BCF1FF3F9B
:100E500008BF40F080407047130C06BF12044FF0EB
:100E6000100C4FF0000C130E04BF12020CF1080C12
:100E7000130F04BF12010CF1040C930F04BF920076
:100E80000CF1020CD30F04BF52000CF1010C1146FF
:100E90004FF00002A0F11F00A0EB0C00704711F012
:100EA000004F08BF704731F000413FF4D5AF0B0C45
:100EB00006BF09044FF0100C4FF0000C0B0E04BFDE
:100EC00009020CF1080C0B0F04BF09010CF1040C12
:100ED0008B0F04BF89000CF1020CCB0F04BF49003B
:100EE0000CF1010CCCF12003A0EB0C0022FA03F36F
:100EF00002FA0CF241EA030100F10100704720F010
:100F00007F4C80EA030023F07F47ACEB070303F537
:100F10007C5300F0004003F1FF032DE980494FEAC4
:100F2000154B09B44FEA144325EA0B4E24EA034853
:100F30000FF2042606EB132749083E785FEA3202D7
:100F400003FB0667C7F5000707FB06F64FEA5437B1
:100F50004FEAD64606F1020607FB066CCCF1005CB0
:100F60004FEA1C472CEA074C07FB06F40CFB06F57E
:100F700004EB15464FEA961634BF00204FF00040B0
:100F80004FEAD13706FB07FC4FEA1C4C0CFB0BF772
:100F9000D21B03FB0CF761EB07010CFB0EF7B0EB68
:100FA000074072EB17420CFB08F734BFA2EB074275
:100FB000B2EB074261EB17414FEA0C444FEA91074D
:100FC00006FB07FC4FEA1C4C0CFB0BF7B0EBC740D1
:100FD00072EB573203FB0CF734BFA2EBC742B2EB04
:100FE000C74261EB57310CFB0EF7B0EBC70072EB59
:100FF00057720CFB08F734BFA2EBC702B2EBC70273
:1010000061EB5771039F4FEA816141EA921104EB52
:10101000CC044FEAD1374FEA826206FB07FC42EA72
:1010200090124FEA80604FEA1C4C0CFB0BF7D21B6E
:1010300003FB0CF761EB07010CFB0EF7B0EB07406D
:1010400072EB17420CFB08F734BFA2EB0742B2EB7E
:10105000074261EB17414FEA8C554FEA910704EBC9
:101060009C2406FB07FC4FEA1C4C0CFB0BF7B0EB77
:10107000C74072EB573203FB0CF734BFA2EBC742F9
:10108000B2EBC74261EB57310CFB0EF7B0EBC70078
:1010900072EB57720CFB08F734BFA2EBC702B2EB3E
:1010A000C70261EB577115EB4C254FEA816141EAAC
:1010B00092114FEA82624FEAD13742EA901206FB60
:1010C00007FC44F100044FEA80604FEA1C4C0CFB23
:1010D0000BF7D21B03FB0CF761EB07010CFB0EF7C0
:1010E000B0EB074072EB17420CFB08F734BFA2EBE2
:1010F0000742B2EB074261EB174115EB1C154FEAB3
:10110000813141EA92414FEA823242EA90424FEA0B
:1011100080304FEA0C7644F1000448EA03434EEA7B
:101120000B484FF0000EB2EB080C71EB030724BF25
:10113000624639464EEB0E0E4FF0000B001852413E
:1011400049414BEB0B0BB2EB080C71EB03077BF146
:10115000000B24BF624639464EEB0E0E4FF0000BDB
:101160000018524149414BEB0B0BB2EB080C71EBF1
:1011700003077BF1000B24BF624639464EEB0E0E8F
:1011800051EA020718BF46F0010616EB0E7655F13C
:10119000000254F1000103D5BDE88901BDE80088D3
:1011A000BDE88901BDE80048B619524141EB010193
:1011B000A3F10103704780807F7E7D7C7B7A797804
:1011C000777676757473727171706F6E6E6D6C6C0C
:1011D0006B6A6A69686867666665646463636261AE
:1011E0006160605F5F5E5E5D5D5C5C5B5B5A5A592F
:1011F000595858575756565555555454535352529B
:101200005251515050504F4F4F4E4E4D4D4D4C4CF2
:101210004C4B4B4B4A4A4A4949494848484747473B
:101220004746464645454544444444434343434278
:10123000424242414141002B26D4770021D01CB5C7
:101240004FEA370703B44FF010004FF010014FF092
:1012500000000FBCBDE810400BF1010BBBF1010F0A
:1012600008BF5FEA170722BF12F1010211F1010165
:101270004FF0004143F1000300F0004043EA00005A
:101280007047F9D35708DAE746EA064613F1400FEC
:101290004FEA16461FDD13F1200FDFBF16430A4643
:1012A000002120335B42C8D0C3F1200746EA06463E
:1012B00002FA07F74FEA164646EA0706C3F1200787
:1012C00022FA03F201FA07F721FA03F14FF00003C3
:1012D00042EA0702B1E746EA020646EA06464FEA54
:1012E000164646EA0106BCBF46EA0646360C4FF0F3
:1012F00000034FF000024FF000019EE72DE9C048C7
:10130000934630B491E8380007C831EA400C48BF32
:1013100034EA430C03D5FFF7F2FDFFF78CFFF0BC76
:10132000BDE800882DE9C048934630B491E8380004
:1013300007C810F0804F08BF13F0804F03D100F0B2
:1013400005F8FFF778FFF0BCBDE8008820F07F4784
:1013500080EA030023F07F4C07EB0C03A3F57C53DA
:1013600000F00040A3F1FE0392F0000F00F0B38004
:1013700095F0000F00F077802DE901494FEA114008
:101380004FEA144621EA004800FB06FC24EA06471F
:1013900008FB06F607FB08F800FB07F718EB064802
:1013A0004CEB164C4FEA124B18EB07484FEA154628
:1013B0004CEB174022EA0B4E0BFB06FC25EA0647D6
:1013C0000EFB06F607FB0EFE0BFB07F71EEB064EA9
:1013D0004CEB164C4FF000061EEB074E4CEB174B38
:1013E00018EB0B0840F1000018EB0E0B58EB00084F
:1013F00040F100008F1A4FF000013CBFC943661B4B
:1014000014BFB5EB040C00213CBFC943F61B4FEAE7
:1014100017444EEA8E0E27EA04454FEA1C4704FBA8
:1014200007622CEA074C05FB07F70CFB05F604FBEB
:101430000CFC16EB074642EB174216EB0C4642EB50
:101440001C421BEB060658EB0202414146EA9E068F
:1014500001D5BDE80189B619524141EB0101A3F163
:101460000103BDE801894FEA14454FEA114724EA18
:10147000054621EA074C05FB07F406FB07F70CFBC2
:1014800006F105FB0CFC11EB074144EB17444FEA56
:10149000124711EB0C4144EB1C4422EA074C05FBBC
:1014A00007F206FB07F70CFB06F605FB0CFC16EB38
:1014B000074642EB174216EB0C4642EB1C456A18F6
:1014C00054F1000148BF7047B619524141EB010188
:1014D000A3F10103704795F0000F37D04FEA114296
:1014E0004FEA144721EA024624EA074C02FB07F1BF
:1014F00006FB07F70CFB06F402FB0CFC14EB07449D
:1015000041EB17414FEA154714EB0C4441EB1C41EA
:1015100025EA074C02FB07F506FB07F70CFB06F66E
:1015200002FB0CFC16EB074645EB174516EB0C4689
:1015300045EB1C42121951F1000148BF7047B61922
:10154000524141EB0101A3F1010370474FEA1445F9
:101550004FEA114724EA054621EA074C05FB07F14B
:1015600006FB07F70CFB06F24FF0000605FB0CFC30
:1015700012EB074241EB174112EB0C4251EB1C41BD
:1015800048BF7047921841EB0101A3F10103704776
:1015900000B587B00121480601F0E2FC0121880670
:1015A00001F0DEFC00208DF817008DF818000820EF
:1015B0008DF8140004208DF8150000208DF812001D
:1015C0008DF819000320ADF8100000208DF81A00E6
:1015D0008DF813008DF816008DF81B0004A92B4818
:1015E00000F076FC01208DF80D000020ADF8080019
:1015F000ADF80000ADF80200ADF80400ADF806004B
:101600008DF80B008DF80A0001208DF80C0068465B
:1016100000F0CAFB01208DF8170000208DF818009B
:1016200008208DF8140004208DF8150000208DF896
:1016300012008DF819000320ADF8100000208DF87D
:101640001A008DF813008DF816008DF81B0004A900
:101650000F4800F03DFC01208DF80D000020ADF892
:101660000800ADF80000ADF80200ADF80400ADF8D8
:1016700006008DF80B000E208DF80A0001208DF871
:101680000C00684600F090FB07B000BD006400400D
:101690000068004000B58FB00121880501F050FCC2
:1016A0004FF0006000901248019012480290002014
:1016B000039013200490002005904FF48060069062
:1016C00000200890079009904FF480300A90002085
:1016D0000B9003200C9000200D900E906946064858
:1016E00000F0F4FE0121044800F0DAFE0FB000BD66
:1016F00004100140742F0120406402401CB50121F8
:10170000084601F01DFC0121022001F019FC012115
:10171000082001F015FC0121202001F011FC02201D
:101720008DF8040000208DF8060080200090012034
:101730008DF8070003208DF805006946504800F039
:1017400059FF072211464E4800F09CFF02208DF8F9
:10175000040000208DF806000320009001208DF881
:10176000070003208DF805006946464800F042FF57
:1017700009220021434800F085FF09220121414848
:1017800000F080FF02208DF8040000208DF8060094
:101790004FF44050009001208DF8070003208DF891
:1017A00005006946364800F025FF09220C2134481F
:1017B00000F068FF09220D21314800F063FF01208D
:1017C0008DF8040000208DF806004FF48060009032
:1017D00001208DF8070003208DF8050069462A488E
:1017E00000F008FF01208DF8040000208DF80600AD
:1017F0004FF42070009001208DF8070003208DF831
:1018000005006946204800F0F5FE00208DF8040030
:101810008DF806004020009001208DF8070003207D
:101820008DF805006946184800F0E4FE00208DF8A8
:1018300004008DF806004FF48070009002208DF8AF
:10184000070003208DF8050069460F4800F0D2FE1E
:10185000012211460D4800F015FF022000908DF87E
:10186000040003208DF8050000208DF806000120FB
:101870008DF807006946054800F0BCFE1CBD00005D
:1018800000040240000C024000140240000002402C
:1018900008B525208DF8000001208DF803000820F0
:1018A0008DF8010000208DF80200684601F05CFA16
:1018B000012240F22441264802F05DF814208DF800
:1018C000000001208DF8030008208DF801000020A1
:1018D0008DF80200684601F047FA01221D491E48B2
:1018E00000F0EDFA1C481430006840F0FF001A497F
:1018F0001431086040208DF8000001208DF80300AD
:1019000008208DF8010000208DF80200684601F0E3
:101910002BFA01220221114800F0D1FA1C208DF887
:10192000000009208DF8010000208DF80200012040
:101930008DF80300684601F017FA0122114690075E
:1019400001F0C7FC0121880701F0A0FC08BD0000E0
:1019500000100140008F0300006400400068004058
:1019600000B58BB00121084601F0FAFA0120099078
:1019700042F22730ADF820000020ADF82200ADF88B
:10198000280008A94FF0804001F0F4FC01218807ED
:1019900001F082FC0121102001F0E2FA5920ADF89B
:1019A00020000020ADF82200ADF8280040F2E7301A
:1019B000099008A9294801F0DDFC0121274801F020
:1019C0006BFC0121042001F0CBFA0121082001F079
:1019D000B7FA02220C21224800F054FE4FF4805046
:1019E000069002208DF81C0003208DF81D000020B9
:1019F0008DF81E0001208DF81F0006A9184800F080
:101A0000F9FD42F22730ADF820000020ADF82200A9
:101A1000C72009900020ADF8280008A9114801F05E
:101A2000A9FC7020ADF804000120ADF806000220EA
:101A3000ADF810000520039001A90A4801F052FCFE
:101A40000821084801F08CFC0121064801F012FC35
:101A50000121044801F020FC0BB000BD0010004043
:101A6000000C0240000800401FB50121102001F0C9
:101A700087FA0E4800900020ADF80C000420ADF865
:101A80000A000020ADF80800ADF80600ADF804002B
:101A90006946074801F094FF01224021044801F003
:101AA00037FF0121024801F027FF1FBDA08601007A
:101AB0000010014000B58BB00121022001F050FA66
:101AC0000121022001F03CFA022204211F4800F00B
:101AD000D9FD1020099002208DF8280003208DF8F0
:101AE000290000208DF82A0001208DF82B0009A97B
:101AF000164800F07FFD5920ADF818000020ADF821
:101B00001A00012007900020ADF8200006A9104817
:101B100001F030FC6020ADF804000120ADF80600B3
:101B20000020ADF8100001A9094801F0DBFB0821F5
:101B3000074801F015FC0121054801F09BFB01213C
:101B4000034801F0A9FB0BB000BD000000040240F7
:101B50000004004010B502A0FEF704FC10BD000018
:101B60004275734661756C745F48616E646C657232
:101B70000000000000B585B06A4600212C4800F046
:101B800031FA0098A0F2012030B1012816D00228C5
:101B900026D0032848D135E09DF80C009DF80B10A5
:101BA00040EA0120234908809DF80E109DF80D00A1
:101BB00041EA002000B21F49488036E09DF80C0041
:101BC0009DF80B1040EA01201A4988809DF80E10FC
:101BD0009DF80D0041EA002000B21649C88024E0BB
:101BE0009DF80C009DF80B1040EA01201149088176
:101BF0009DF80E109DF80D0041EA002000B20D493D
:101C0000488112E09DF80C009DF80B1040EA01207D
:101C1000084988819DF80E109DF80D0041EA0020CA
:101C200000B20449C88100E000BF00BF05B000BD9C
:101C300000640040482E012010B507A0FEF792FB7B
:101C40004FF40061054800F040FD4FF40F41044897
:101C500000F056F810BD0000313233000010024091
:101C60000064004000B585B06A460021224800F0BB
:101C7000B9F90098A0F2012020B1012814D002285F
:101C800036D123E09DF80C009DF80B1040EA0120AE
:101C90001A4908829DF80E109DF80D0041EA0020B7
:101CA00000B21649488224E09DF80C009DF80B1004
:101CB00040EA0120114988829DF80E109DF80D0020
:101CC00041EA002000B20D49C88212E09DF80C00E4
:101CD0009DF80B1040EA0120084908839DF80E107A
:101CE0009DF80D0041EA002000B20449488300E05D
:101CF00000BF00BF05B000BD00680040482E0120B5
:101D0000B1F5007F3AD00FDC202928D006DC01296C
:101D10001CD004291DD0082940D11DE0402921D024
:101D2000B1F5807F3AD126E0B1F5004F31D006DC25
:101D3000B1F5806F25D0B1F5006F2FD124E0B1F55A
:101D4000803F12D0B1F5003F28D111E0154A8260E2
:101D500025E00822C26022E01022C2601FE00822B3
:101D600002611CE01022026119E00822426016E0C4
:101D70001022426013E00422426010E0042242601C
:101D80000DE0042242600AE00022826104224260E7
:101D900005E0002282610422426000E000BF00BF33
:101DA000704700000101010010B50021837A012273
:101DB00002FA03F13D4A126842F001023B4B1A60FD
:101DC0003A4A1C3212688A43384B1C331A60027B31
:101DD000CAB9364A0C3212688A43344B0C331A6043
:101DE0004288C38842EA0343304A4032847A42F848
:101DF00034300288838842EA03432C4A4032847A92
:101E000002EBC4025360027B012A19D1274A0C322B
:101E100012680A43254B0C331A604288038842EA51
:101E20000343224A4032847A42F83430C28883889D
:101E300042EA03431D4A4032847A02EBC4025360F3
:101E4000C27A3AB9194A121D12688A43174B1B1DF0
:101E50001A6006E0154A121D12680A43134B1B1D37
:101E60001A60028932B9114A143212688A430F4B40
:101E700014331A600289012A06D10C4A14321268FE
:101E80000A430A4B14331A60427B012A06D1074ADF
:101E90001C3212680A43054B1C331A60034A12684D
:101EA00022F00102014B1A6010BD000000660040E4
:101EB00081690160816941600021816370471AB1C5
:101EC00043690B43436102E043698B4343617047BD
:101ED00030B5024600200023146824F00204146088
:101EE000146844F00104146000E05B1C546804F0C2
:101EF00001041CB94FF6FF74A342F6D1546804F0F4
:101F000001040CB900206CE08C79012C04D1146818
:101F100044F08004146003E0146824F0800414602A
:101F2000CC79012C04D1146844F04004146003E01F
:101F3000146824F0400414600C7A012C04D1146855
:101F400044F02004146003E0146824F020041460BA
:101F50004C7A012C04D1146844F01004146003E09E
:101F6000146824F0100414608C7A012C04D11468D5
:101F700044F00804146003E0146824F008041460BA
:101F8000CC7A012C04D1146844F00404146003E0FA
:101F9000146824F0040414608C78A407CD7844EA13
:101FA00005640D7944EA05444D7944EA05540D88E9
:101FB0006D1E2C43D461146824F0010414600023C6
:101FC00000E05B1C546804F001041CB14FF6FF7480
:101FD000A342F6D1546804F001040CB1002000E0E3
:101FE000012030BD10B500F5D87303EB01131B6859
:101FF00003F004031372137A53B900F5D87303EB9B
:1020000001131B6840F2FF7404EA5353136009E0A4
:1020100000F5D87303EB01131B686FF0604404EA0A
:10202000D303536000F5D87303EB01131B6803F06F
:102030000203537200F5D87303EB01135B6803F0DE
:102040000F03937200F5D87303EB01135B681B0A4F
:10205000D37400F5D87303EB01139B68D37200F5BA
:10206000D87303EB01139B681C0A147300F5D87333
:1020700003EB01139B681C0C547300F5D87303EB3E
:1020800001139B681B0E937300F5D87303EB0113C8
:10209000DB68D37300F5D87303EB0113DB681C0A0C
:1020A000147400F5D87303EB0113DB681C0C547433
:1020B00000F5D87303EB0113DB681B0E937421B991
:1020C000C36843F02003C36003E0036943F02003C7
:1020D000036110BD10B502460020936803F08063D1
:1020E000B3F1806F00D110E0936803F00063B3F1A7
:1020F000006F01D1012008E0936803F08053B3F131
:10210000805F01D1022000E00420042874D002F591
:10211000C07303EB00131B6803F0010402F5C073E6
:1021200003EB00131C600B7A7BB94B7A0C8843EAF3
:10213000445302F5C07404EB00142468234302F5F1
:10214000C07404EB0014236010E00B7A4C6843EA7F
:10215000C4034C7A234302F5C07404EB00142468D2
:10216000234302F5C07404EB001423608B7A03F060
:102170000F038B7202F5C07303EB00135B6823F04F
:102180000F0402F5C07303EB00135C6002F5C0732B
:1021900003EB00135B688C7A234302F5C07404EBF5
:1021A000001463608B7B1C064B7B44EA03440B7B6F
:1021B00044EA0323CC7A234302F5C07404EB0014F1
:1021C000A3608B7C1C064B7C44EA03440B7C44EAF2
:1021D0000323CC7B234302F5C07404EB0014E360BB
:1021E00002F5C07303EB00131B6843F0010402F512
:1021F000C07303EB00131C6010BD000070B50A46ED
:102200000021002304684460026004684568641B80
:10221000C460C46814F57A6F07DA846B641C846345
:10222000C46804F50054C4610DE0C468B4F57A6F65
:1022300007DD846B641E8463C468A4F50054C46124
:1022400001E0C468C4610568846B05EB44348460B4
:1022500004688569641B00EE104AB8EEC00ADFED21
:10226000180A20EE200A9FED171AC0EE010A846BAF
:102270004FF4B4756C4300EE104AB8EEC00A30EE6D
:10228000800A80ED100AC669047D651C057500F1A1
:10229000200545F82460047D062C01D10024047536
:1022A000002105E000F1200454F821402344491C9A
:1022B0000629F7DB062493FBF4F4C46370BD000029
:1022C0000000B443000000462DE9F04186B080468E
:1022D0000C4615461E460C9F4FF4007001900020DE
:1022E0008DF80C008DF80D0008208DF80E00200AE6
:1022F0008DF80F008DF81040290A8DF811108DF817
:102300001250310A8DF813108DF81460390A8DF8C7
:1023100015108DF8167000BF0E48006860B10D48AA
:102320001838006840F002000A4918390860084669
:10233000006800F0FD00086006481038006800F0F2
:10234000E0500028E8D001A94046FFF7C3FE06B0E0
:10235000BDE8F0811864004010B51822404941489A
:10236000FEF77CF8404800783F49497840EA012070
:10237000C0F30A003A49088008460088A0F580604A
:1023800000B2088038484078C0103749897840EA60
:102390004110C0F30A003249488008464088A0F541
:1023A000806000B248803048807880112E49C9781A
:1023B00040EA81002C49097940EA8120C0F30A00F3
:1023C0002749888008468088A0F5806000B2888010
:1023D0002548007940102449497940EAC110C0F3EA
:1023E0000A001F49C8800846C088A0F5806000B276
:1023F000C8801D4840790011800808721A48407949
:10240000C0F301104872184880791749C97940EA29
:10241000012000B2124948811348007A1249497AD2
:1024200040EA012001B20E4881810F48807A0E49AE
:10243000C97A40EA012001B20948C1810A48017BFA
:10244000074801740848417B054841740648807B71
:102450000549C97B40EA01200149888210BD00007E
:10246000882F0120A02F0120742F01200246094B44
:102470009A4201D2084801E00648103801F00053A2
:102480001BB1064B0B40C36002E0044B0B40836062
:102490007047000010640240006002407D0F7D0F15
:1024A00021B1026842F00102026003E0026822F0FA
:1024B000010202607047014600200A6802F0010232
:1024C0000AB1012000E000207047000010B5002292
:1024D0000268134B1A40CC680B6823434C692343B2
:1024E0008C692343CC6923430C6A23434C6A2343FE
:1024F0008C6A23434C6B23438C6B23431A43026047
:10250000426922F00702D1E90B3423431A434261A6
:102510000B6943604B6883608B68C36010BD00002B
:102520003F801CF04160704710B502A0FDF71AFF14
:1025300010BD000044656275674D6F6E5F48616E47
:10254000646C65720000000070B504466FF0040012
:1025500000F02AFEE11704EB5171C1F3C7010D4AE7
:102560001170E11704EB5171CD104FF47A704543AF
:102570000120094908804FF0E020006940F0020086
:102580004FF0E021086108464561006940F0010014
:10259000086170BD8C0000208E00002010B5022064
:1025A00000F01CF850B1022000F00CF8022000F0FE
:1025B0000FF801200249087000F088FA10BD0000F1
:1025C000D00000200149086070470000143C014021
:1025D0000149086070470000143C0140014600209A
:1025E000034A12680A400AB1012000E00020704747
:1025F000143C0140F0B50A4600210023002400BF2E
:102600003DE0012505FA01F3156805EA03049C4243
:1026100034D105684F000326BE40B54305601579E7
:102620004E00B5400668354305601579012D02D08E
:102630001579022D16D185684F000326BE40B5439B
:10264000856055794E00B54086683543856045689C
:1026500001268E40B5434560456896798E40B6B2F6
:1026600035434560C5684F000326BE40B543C5608D
:10267000D5794E00B540C6683543C560491C102960
:10268000BFD3F0BDF0B5002300244D07ED0E02FAD4
:1026900005F3CE1000F1200555F826504E07F70E31
:1026A0000F26BE40B543CF1000F1200646F8275054
:1026B000CE1000F1200555F8265045EA0304CE104F
:1026C00000F1200545F82640F0BD418370470183A5
:1026D000704742694A4042617047000010B502A04D
:1026E000FDF740FE10BD0000486172644661756CE4
:1026F000745F48616E646C657200000010B504463A
:1027000000200F49086000F0CDF8012000F01CF80F
:1027100024B101200A490831086003E0002008497B
:1027200008310860012000F00FF80120044908601A
:1027300000F00AF800200349C1F89C0210BD000017
:102740009C8242420080424210B5002106E0642291
:1027500000BF1300A2F10102FBD1491C8142F6D354
:1027600010BD000070B5002400F086F80120FFF7CE
:10277000EBFF002516E000200E4908600220FFF75D
:10278000E3FF01200C49C1F89C026006040E0948D1
:102790007838006808B1601CC4B20220FFF7D4FF8B
:1027A000681CC5B2082DE6DB0020024908602046FF
:1027B00070BD00009C824242008042422DE9F041FF
:1027C00007460E461446984600F084F8FF2805D1C7
:1027D00020A0FDF7C7FDFF20BDE8F081384600F0DE
:1027E000F9F800F0CDF8FF2800D1F5E7304600F009
:1027F000F1F800F0C5F8FF2804D119A0FDF7B2FDEB
:10280000FF20E9E700F066F8791CC8B200F0E2F8B2
:1028100000F0B6F8FF2804D114A0FDF7A3FDFF20B7
:10282000DAE7002508E0FFF79DFF20700020FFF7A2
:1028300065FF641C681CC5B2A8F10100A842F2DC67
:10284000FFF790FF20700120FFF758FF00F07EF89F
:102850000020C1E76572726F7220370D0A00000018
:102860006572726F7220390D0A0000006572726F16
:10287000722032480D0A00001CB54FF40070009021
:1028800000208DF804008DF8060001208DF8070067
:1028900003208DF8050069460148FFF7ABFE1CBD1B
:1028A000001402401CB54FF40070009001208DF818
:1028B000040000208DF8060001208DF80700032099
:1028C0008DF8050069460248FFF794FE1CBD000024
:1028D0000014024010B5FFF7E5FF0120134908601E
:1028E0001348D0F8240220B912A0FDF73BFDFF20C9
:1028F00010BD01200D4908390860FFF725FF0020B1
:102900000B49C1F8A40209488038006820B10CA026
:10291000FDF728FDFF20EBE70120FFF715FF002062
:1029200002490839086000BFE2E70000A482424281
:10293000008042426572726F722031210D0A0000E0
:102940006572726F722032210D0A000010B5FFF718
:10295000A9FF0020084908600849C1F8A402012025
:10296000FFF7F2FE012004490860FFF7EDFE0120A9
:102970000249C1F8A40210BD9C824242008042423A
:1029800010B50024FFF778FF012010490860FFF719
:10299000DBFE01200E49C1F89C02FFF7D5FE0AE0DC
:1029A000601C84B2322C03DDFFF7D0FFFF2010BD86
:1029B0000520FFF7C9FE0548803800680028EFD1E0
:1029C00002490839086000BFF1E70000A4824242D2
:1029D0000080424270B50446FFF764FF00201349AF
:1029E000086000251EE004F0800020B101200F499E
:1029F0000831086003E000200C49083108606006D7
:102A0000040E0120FFF7A0FE012008490860FFF72F
:102A10009BFE00200649C1F89C020120FFF794FEAE
:102A2000681CC5B2082DDEDB70BD00009C824242EE
:102A3000008042421CB50121302000F081FA4FF4A1
:102A40000060009001208DF8040000208DF8060041
:102A500003208DF8050001208DF807006946104815
:102A6000FFF7C8FD4FF48040009001208DF804006E
:102A700000208DF8060003208DF8050001208DF858
:102A8000070069460748FFF7B5FD4FF400610448A9
:102A9000FFF71DFE4FF480410248FFF718FE1CBDF2
:102AA00000100240001402402DE9F04104460D469A
:102AB00016461F463B46324629462046FFF77EFE15
:102AC000FF2801D1BDE8F0810020FBE710B53148B7
:102AD000007800285CD000202E4908700E232E4A72
:102AE0003B21D020FFF7E0FF2B4840782A490978A6
:102AF00040EA012000B2294908802748C0782649C9
:102B0000897840EA012000B224494880224840796F
:102B10002149097940EA012000B2204988801E48F5
:102B2000C0791D49897940EA012000B21B49C8805B
:102B30001948407A1849097A40EA012000B2174939
:102B4000088108460089C989084400B213490881F0
:102B50001148C07A1049897A40EA012000B20F4931
:102B6000488108464089098A084400B20B494881D7
:102B70000948407B0849097B40EA012000B2074927
:102B8000888108468089498A084400B203498881BF
:102B900010BD0000D0000020B4320120A03201207E
:102BA0002DE9F0412DED0C8B0546002600272D4820
:102BB000008800F40040002847DD002429480088F0
:102BC000A0F5404700BF00BF34E02749095DA1F1EF
:102BD000300004F0F6F841EC1B0B391B481E04F0E2
:102BE000F0F841EC1D0BB0EE4D1AF0EE6D1A9FEDB2
:102BF0001F0B00F07DFFB0EE40CAF0EE60CA53EC50
:102C00001B2B51EC1C0B04F02FF941EC190B304637
:102C100004F0D7F841EC1A0B53EC192B03F08EFE9D
:102C200041EC180B04F09EF8064600200E490855AA
:102C3000601CC4B2BC42C8DB00200A4908800D48B1
:102C4000066001200C49086007E00B480068012875
:102C500002D10848066800E06E68AE60BDEC0C8BDF
:102C6000BDE8F081A0000020CC3101200000000070
:102C700000002440D8000020DC00002010B588B0FF
:102C800004460121402000F05BF90121202000F0E2
:102C900077F9082209212348FFF7F4FC08220E21C6
:102CA0002048FFF7EFFC4FF48440069002208DF897
:102CB0001C008DF81D0000208DF81E0001208DF8ED
:102CC0001F0006A91748FFF795FC02940020ADF8F5
:102CD0000C00ADF80E00ADF81000ADF814000C209B
:102CE000ADF8120002A9104800F06AFE01210E485A
:102CF00000F002FE012240F225510B4800F03BFE9D
:102D000047208DF8040007208DF8050000208DF87D
:102D1000060001208DF8070001A800F025F808B092
:102D200010BD0000001802400014014041607047CF
:102D300010B502A0FDF716FB10BD00004D656D4DEE
:102D4000616E6167655F48616E646C65720000006A
:102D500010B502A0FDF706FB10BD00004E4D495F07
:102D600048616E646C65720070B5002100230F220B
:102D7000C4781CB3174C246804F4E064C4F5E06420
:102D8000C4F30721C1F10404E3B20A4144789C4032
:102D9000E1B28478144021430C07210E0E4C0578D3
:102DA0006155047804F01F050124AC4005786D11CD
:102DB000AD0005F1E025C5F8004109E0047804F014
:102DC0001F050124AC40054D0678761145F82640D4
:102DD00070BD00000CED00E000E400E080E100E0E8
:102DE00002490143024A1160704700000000FA05E1
:102DF0000CED00E0014681ED050AC1ED060A91EDFA
:102E0000051AD1ED061A31EE611A81ED071A91ED1E
:102E1000001AD1ED071A21EE211A81ED091A91ED60
:102E20000A1AD1ED011A91ED072A01EE821A81EDFD
:102E30000A1A91ED0A1AD1ED041AF1EE611AB4EEF4
:102E4000E11AF1EE10FA02DD91ED0A1A03E091EDBC
:102E5000041AB1EE411AD1ED041AB4EEE11AF1EE02
:102E600010FA02D291ED0A1A01E091ED041A81EDF7
:102E70000A1A91ED091AD1ED0A1A31EE211AD1ED93
:102E80000B1A31EE211ABDEEC11A81ED0C1A91ED2B
:102E90000C1AB8EEC11AD1ED031AF1EE611AB4EEB4
:102EA000E11AF1EE10FA08D291ED031AB1EE411ACF
:102EB000BDEEC11A81ED0C1A10E091ED0C1AB8EEBE
:102EC000C11AD1ED031AB4EEE11AF1EE10FA05DDE4
:102ED00091ED031ABDEEC11A81ED0C1A91ED071A9E
:102EE00081ED081A086B704780ED000AC0ED010AF9
:102EF00080ED021AC0ED031AC0ED041A9FED0F2AEF
:102F000080ED052A9FED0D2A80ED062A9FED0B2A04
:102F100080ED072A9FED092A80ED082A9FED072AF8
:102F200080ED092A9FED052A80ED0A2A9FED032AEC
:102F300080ED0B2A0021016341637047000000000F
:102F400029B1064A12680243044B1A6004E0034A9E
:102F500012688243014B1A6070470000303802400B
:102F600029B1064A12680243044B1A6004E0034A7E
:102F700012688243014B1A607047000040380240DB
:102F800029B1064A12680243044B1A6004E0034A5E
:102F900012688243014B1A607047000044380240B7
:102FA000F0B5002100220024022500260223324F22
:102FB0003F6807F00C0121B1042905D0082937D159
:102FC00005E02E4F076036E02D4F076033E02A4FB3
:102FD0003F1F3F68C7F38056274F3F1F3F6807F0EA
:102FE0003F036EB1264FB7FBF3F7DFF88CC0ACF1AF
:102FF000040CDCF800C0CCF3881C07FB0CF40CE0DC
:103000001E4FB7FBF3F7DFF870C0ACF1040CDCF82F
:1030100000C0CCF3881C07FB0CF4174F3F1F3F6820
:10302000C7F301477F1C7D00B4FBF5F7076002E0A2
:10303000124F076000BF00BF0F4F3F6807F0F0015D
:103040000909104F7A5C0768D74047600A4F3F680C
:1030500007F4E051890A0B4F7A5C4768D7408760D4
:10306000054F3F6807F46041490B064F7A5C47689B
:10307000D740C760F0BD0000083802400024F400CB
:10308000001BB700000000200CB50020019000904C
:103090004148006840F480303F49086000BF3E4826
:1030A000006800F4003000900198401C01900098E6
:1030B00018B90198B0F5A04FF1D13748006800F475
:1030C000003010B10120009001E000200090009835
:1030D000012860D130484030006840F080502E49CF
:1030E000403108602D48006840F440402B4908609A
:1030F00029480830006828490831086008460068F7
:1031000040F4004008600846006840F4A0500860A1
:103110002348091F0860081F006840F08070091FDD
:10312000086000BF1C48006800F000700028F9D05B
:103130001A48006840F480301849086000BF1748FA
:10314000406800F480300028F9D01448006840F44A
:1031500000301249086000BF1048406800F4003099
:103160000028F9D040F205700E4908600A4808307E
:10317000006820F00300084908310860084600682C
:1031800040F00200086000BF03480830006800F00B
:103190000C000828F8D10CBD003802400070004037
:1031A0000C5A4007003C0240042808D14FF0E021AF
:1031B000096941F004014FF0E022116107E04FF08E
:1031C000E021096921F004014FF0E022116170470C
:1031D00010B503F037F9012801D002F0F9FD10BD58
:1031E00010B51548006840F4700013490860134892
:1031F000006840F001001149086000200F490831C3
:1032000008600E4800680E4908400C4908600D48E7
:10321000091D0860081F006820F48020091F08604D
:10322000002006490C310860FFF72EFF4FF00060C8
:1032300001498039086010BD88ED00E00038024087
:10324000FFFFF6FE1030002410B50121880700F0C2
:103250002FF860B106480068401C0549086001214C
:10326000880700F016F80121880700F00FF810BD5C
:103270009000002021B1028842F08002028004E028
:1032800002884FF67F731A4002807047CA43028259
:103290007047CA430282704721B1028842F001029E
:1032A000028004E002884FF6FE731A4002807047E5
:1032B00030B50246002000230024158A05EA0103E8
:1032C000958905EA010413B10CB1012000E000204A
:1032D00030BD1AB183890B43838102E083898B431C
:1032E0008381704770B5002400220023058C4FF6BF
:1032F000FE7635400584028C8388048B4FF68F75EB
:103300002C40B51E2C400D882C43751E2A408D89FB
:103310002A434D882A43104DA84202D00F4DA8429F
:1033200013D14FF6F7752A40CD892A434FF6FB7526
:103330002A408D882A434FF6FF652B404FF6FF55F4
:103340002B400D8A2B434D8A2B43838004838D6849
:103350004563028470BD000000000140000401408C
:103360000A460021018B4FF6F77319401143018380
:103370007047000000220288184B98420ED0184B6C
:1033800098420BD0B0F1804F08D0164B984205D030
:10339000154B984202D0154B984204D14FF68F73CB
:1033A0001A404B881A43124B984207D0114B98424F
:1033B00004D04FF6FF431A400B891A4302804B6832
:1033C000C3620B880385054B984202D0044B984298
:1033D00001D18B7A0386012383827047000001406C
:1033E000000401400004004000080040000C0040C0
:1033F000001000400014004008B503F033F80090BE
:1034000008E04FF480410448FFF763F9FA21684669
:1034100002F0EEF9F5E70000001402402DED028BFA
:1034200082B003F01FF801909FED430AB0EE408A8E
:1034300040F22624DFED411A9FED411ADFED400AEC
:10344000B6EE000A3F48FFF74FFDDFED3F1A9FED54
:103450003C1ADFED3B0AB7EE000A3C48FFF744FD9B
:103460003B4800883B4988610846FEF721FD62E041
:10347000374801883748FEF7C1FE364890ED100AFC
:10348000BDEEC00A344880ED000A32480068334976
:1034900008603048806B324908602E4890ED100A71
:1034A000F3EE030A80EE201AF0EE418A2D48D0EDAB
:1034B000020AF8EEE00AB0EE600AF0EE680A21486F
:1034C000FFF798FC2248B0F9020001EE100AB8EEAE
:1034D000C11A21EE081AF0EE410A1A4890ED0C1AB2
:1034E000B8EEC11AB0EE410A1848FFF783FC17483E
:1034F000006B6142884206DB1448006B002802DA48
:103500006042124908631148006BA04205DC0F4875
:10351000006B002801DD0D480463002000900B487B
:10352000008E01B200231A460F48FEF7CDFE0F2190
:1035300001A802F05DF99BE77A5B563D0000344339
:10354000000000007831012000001644B82F01204F
:10355000482E0120302F0120E0000020E400002050
:10356000E8000020943201200064004008B50FE01C
:1035700000235A1E69460748006802F06FFC20B11C
:1035800005A00099FCF7EEFE02E009A0FCF7EAFEB8
:10359000EEE70000B8000020526563656976656457
:1035A000206D6573736167653A2025640D0A00001C
:1035B0004661696C6564000008B502F053FF009035
:1035C00000210848FFF7B2FB0AE001F0C9FF0548F7
:1035D000FFF7E6FA01F0EEFF3221684602F008F943
:1035E000F3E70000943201202DED028B82B002F04F
:1035F00039FF019030E00024012C01DD204600E07D
:103600000120022801DA204600E00220044601F0F1
:10361000A7FF1248816812A0FCF7A4FE134890EDA2
:10362000060AD0ED050A30EE600A10EE101A0846C0
:1036300003F010FF41EC180B53EC182B0CA0FCF717
:1036400091FE0EA0FCF78EFE01F0B4FF4FF4FA617C
:1036500001A802F0CDF800BFCDE7000094320120B0
:103660004D4743202564200D0A00000078310120D9
:103670004F5554202566200D0A0000002D2D2D2DBC
:103680002D2D2D2D2D2D2D2D2D2D2D2D2D2D2D2D6A
:103690002D0D0A0008B510E00848407A022809D12B
:1036A000002003460246014600900548FEF70CFE46
:1036B00002F082FA642002F06DF8EDE7882F012015
:1036C000006400401CB5044601F04AFFFEF716F8FE
:1036D000FDF75EFFFEF7C8F9FDF7DCFFFEF740F9E6
:1036E000FEF7D6F8002204210A2002F08BFB2549C0
:1036F00008600020062103464FF4FA72CDE900105D
:1037000021A1264802F06EFE0020062103464FF458
:10371000FA72CDE9001022A1254802F063FE254887
:10372000072100234FF4FA72CDE9001022A12648A8
:1037300002F058FE2548052100234FF4C872CDE958
:10374000001023A1254802F04DFE25480321002347
:103750004FF4C872CDE9001022A1264802F042FEC3
:103760002548032100234FF4C872CDE9001023A19E
:10377000254802F037FE002002F0A4F801F01AFFFD
:103780001CBD0000B80000205461736B5F4D616781
:10379000696352656365697665000000B9350008A4
:1037A0005461736B5F4D6167696353656E640000BC
:1037B000E9350008B40000205461736B5F53616603
:1037C000655F4D6F6465000095360008A400002019
:1037D0005461736B5F444275730000006D350008DF
:1037E000B00000205461736B5F4368617373697349
:1037F000000000001D340008AC0000205461736B11
:103800005F426C696E6B0000F933000810B5124816
:103810008088C4B210480088C4B200210F48FEF767
:103820003FFE0E48001D0068012801D1FEF794FDFF
:103830000B490A48FEF71AFE00BF0848FEF73BFE98
:103840000028FAD113210548FEF76CFE0121034838
:10385000FEF726FE10BD000000100140406402404B
:103860000000301010B540F225511F4800F059F803
:1038700040B11D4800F00EF9C4B24FF400611B487E
:10388000FEF727FF1A48008800F4004058BB18488C
:10389000008800F4804060B10A2C03D00020144955
:1038A000088020E01248008840F400401049088059
:1038B00019E00D2C06D10E48008840F480400C49D8
:1038C000088010E00A480088C0F30D0009490C5434
:1038D00007480088401C0649088008460088C72819
:1038E00001DD0020088010BD0014014000100240DE
:1038F000A0000020CC31012021B1828942F4005285
:10390000828104E082894DF6FF731A4082817047FC
:103910001AB1838A0B43838202E0838A8B438382BA
:10392000704770B50246002400230025002040F6B1
:103930006A16B14200D100BFC1F3421501F01F0366
:10394000012606FA03F3012D02D19689334006E0E1
:10395000022D02D1168A334001E0968A33400C12C0
:10396000012606FA04F41688344013B10CB1012084
:1039700000E0002070BDF0B50346002400260025BD
:10398000002040F66A17B94200D100BF1846C1F3C3
:10399000421401F01F06012707FA06F5012C01D198
:1039A0000C3004E0022C01D1103000E014301AB1C8
:1039B00007682F43076002E00768AF430760F0BD68
:1039C0002DE9FF4705460E460024A14600BFA0464C
:1039D000B08900B100BF2C8A24F44054F08804431D
:1039E0002C82AC8941F20C608443B0883189084351
:1039F000718908430443AC81AC8A24F44074B089D3
:103A00000443AC826846FFF7CBFA2048854202D0D7
:103A10001F48854202D1DDF80C9001E0DDF80890E6
:103A2000A88900F4004040B109EBC90000EB09107F
:103A300031684900B0FBF1F707E009EBC90000EB82
:103A4000091031688900B0FBF1F76420B7FBF0F092
:103A500004012009642101FB1078A88900F40040CA
:103A600040B1322000EBC800B0FBF1F000F00700DD
:103A7000044308E0322000EB08106421B0FBF1F0B1
:103A800000F00F0004432C81BDE8FF8700100140C7
:103A90000014014001468888C0F308007047000008
:103AA00010B502A0FCF75EFC10BD00005573616705
:103AB000654661756C745F48616E646C6572000088
:103AC00003B401984100009850EAC12018BF0420B7
:103AD0004A0D18BF40F0010040F2FF72B2EB515F97
:103AE00008BF40F00200012808BF052002B070475F
:103AF0002DE9F04D2DED040B2DED0C8B96B0DDE98D
:103B00002350259CDDF888A025F0004624F00048CD
:103B1000BAF1000F14BF0121002101EB4502FE495B
:103B200053184A1093422AD3002814BF01230023BC
:103B300003EB44030B44F9498B4220D358EA0001BC
:103B40009FEDF78B6FD0DFF8E0B35D4503D1BAF19D
:103B5000000F05D187E0BAF1000F08BF002100D0A7
:103B6000012101EB450111F5001F08D8002814BF01
:103B70000121002101EB440111F5001F0BD99DED3E
:103B8000241B9DED220B16B0BDEC0C8B04B0BDE8E0
:103B9000F04D00F05DBE0027002DBCBFE349884515
:103BA00021DAE3498845A8BF02271CDAC3451ADC9D
:103BB000E04901EB2851142908DDC1F1340220FA53
:103BC00002F101FA02F282420DD108E058B9C1F1C6
:103BD000140228FA02F101FA02F2424503D101F07F
:103BE0000101C1F1020756EA0A011DD1002C1BDABE
:103BF000002D18BF022F01D0012F0AD00220FCF7A0
:103C000082FC16B0BDEC0C8B04B0BDE8F04D00F0AA
:103C100007BE0220FCF777FC00F002FE51EC100B0F
:103C200002F080FE83E01EE09FEDC39B9FEDC4ABDE
:103C3000002872D1BD4880452DD105F1804010F596
:103C4000801008BFBAF1000F0DD0B34515DC002C71
:103C5000A1BF9DED240B16B0BDEC0C8B04B0A8BF2A
:103C6000BDE8F08D12E0B0EE480AF0EE680A16B03A
:103C7000BDEC0C8B04B0BDE8F08D002C06DA9DED98
:103C8000240B51EC100B02F04DFE50E0AE4878448E
:103C900090ED000BEBE7D8454FD1002C4ADA2EB15E
:103CA00086423BD1BAF1000F44D126E0BAF1000FB1
:103CB00013D00220FCF727FC00F0E6FD8DED020B8F
:103CC0009DED220B8DED000B10EE900A039961F330
:103CD0001E0003909DED020BC9E78DED029B9DED4B
:103CE000220B19EE901A10EE900A8DED000B61F385
:103CF0001E0003909DED020BB9E78DED02AB9DED2B
:103D0000220B1AEE901A10EE900A8DED000B61F363
:103D10001E0003909DED020BA9E729E00ADA9DED54
:103D2000220B51EC180B53EC102B02F0C3FE41ECAC
:103D3000100B9CE79DED220B99E7864218DAB4F14F
:103D4000804F0DD0A4F10050B0F1FF5010D1002DE4
:103D50000EDB9DED220B51EC100B01F07FFBE6E733
:103D60009DED220B53EC102B51EC100B00F0AEBC70
:103D70009DED220B51EC100B00F0A6FDBAF1000FE7
:103D8000CDE90C0134D19FED720BDEB1A6F1E0401C
:103D9000B0F17F602CD1002D01DD002C0DDA002D5B
:103DA00001DD002C1FDB002D16DA002C14DB012FA7
:103DB00008BF9FED690B3FF45AAFB0EE490AF0EE31
:103DC000690A54E7022F18BF002D0CD0012F0AD129
:103DD000002DFFF64CAF06E0002DB8BF002C07DA2F
:103DE000012F3FF444AFB0EE4A0AF0EE6A0A3EE714
:103DF000012000EBE57A5AEA07000CD0584800256C
:103E000080457CDD57495848884514DDB0420DDBBC
:103E1000002C19DB2BE00120FCF775FB16B0BDEC84
:103E20000C8B04B0BDE8F04D00F01EBDB34502DCC4
:103E3000002C09DC1BE0864202DA002C17DA03E0D2
:103E40005E4527DD002C12DD0220FCF75CFB00F054
:103E50001BFD10EE901A19EE900A8DED020B8DED00
:103E6000009B61F31E0003909DED020BFFE6022014
:103E7000FCF749FB00F018FD10EE901A18EE900ABE
:103E80008DED020B8DED008B61F31E0003909DED17
:103E9000020BECE69DED220B53EC182B51EC100BB2
:103EA00003F0EEF99FED320BCDE90A0153EC102B34
:103EB0009DED0A0B51EC100B02F0D6FF9FED2E1B6F
:103EC00053EC112B03F004F99DED0A1B53EC112B5D
:103ED00002F0CAFF9FED2A1B53EC112B03F0F8F8F8
:103EE0009DED0A0B41EC190B53EC102B51EC100B10
:103EF00002F0BAFF53EC192B02F0B6FF00E07EE0AF
:103F00009FED210B41EC1A0B53EC102B9DED0A0B8E
:103F100051EC100B3CE00000FFFF1F00FFFF0F0003
:103F2000000000000000F03F0000F03F0000F07FC4
:103F30000000404301FCFFFF000000000000F07F94
:103F400000000000000000002E3A00000000000009
:103F50000000000000000080000000000000F0FFF2
:103F60000000E0410000F043FFFFEF3F00000000D1
:103F7000000000000000D03F555555555555D53F20
:103F8000000000000000E03F000000604715F73F20
:103F900002F06AFF41EC190B9FEDFD0B51EC1A0B7F
:103FA00053EC102B02F060FF41EC1A0B9FEDFA0B63
:103FB00053EC102B9DED0A0B51EC100B02F054FF4B
:103FC00053EC1A2B03F05CF941EC1A0B51EC190B72
:103FD00053EC1A2B02F0B2FC0690CDE906519DED90
:103FE000060B53EC192B51EC100B03F049F953EC71
:103FF0001A2B03F06DF841EC100B00F09FB9002074
:10400000B6F5801F0EDA9FEDE60B53EC102B9DEDFD
:104010000C0B51EC100B02F027FFCDE90C016FF0F7
:1040200034000E4600EB2650A0F2FF38C6F3130012
:10403000DD4940F07F6646F040568842D8BF0024F4
:1040400009DDDA498142C8BF012404DC0024A6F559
:10405000801608F10108D648784400EBC4000D969C
:1040600090ED00BB9DED0C0B53EC1B2B51EC100B9A
:1040700003F006F99DED0C0B41EC1A0B53EC1B2BD6
:1040800051EC100B02F05AFC41EC100B51EC180BE8
:1040900053EC102B02F00EFD41EC1C0B51EC1A0BF3
:1040A00053EC1C2B02F0E0FE41EC190BC1488DEDE6
:1040B000109B7844109590ED000B4FF0005040EAB3
:1040C000660000EB84408DED0A0B00F500200B909C
:1040D0009DED0A0B53EC1B2B51EC100B03F0D0F8A9
:1040E0009DED0C1B53EC112B02F0F2FF41EC100B79
:1040F00053EC102B9DED100B51EC100B02F0B4FEA5
:104100009DED0A0B41EC1B0B53EC102B9DED100B9E
:1041100051EC100B02F0A8FE53EC1A2B02F0D8FF62
:1041200053EC1B2B03F0ACF853EC1C2B02F09CFE61
:1041300041EC1B0B53EC192B51EC190B02F094FEC4
:1041400041EC1A0B9C480621B0EE4A0AF0EE6A0ACE
:10415000784400F0E9FAB0EE40CAF0EE60CA53ECE1
:104160001A2B51EC1A0B02F07FFE53EC1C2B02F0C1
:104170007BFE9DED100B41EC1A0B53EC192B51EC0F
:10418000100B02F0DBFB53EC1B2B02F06DFE53EC2B
:104190001A2B02F0D3FB9DED100B41EC1A0B53ECE4
:1041A000102B51EC100B02F05FFE41EC1C0B9FED4D
:1041B00084DB53EC1D2B02F0C1FB53EC1A2B02F0F5
:1041C000BDFB0A90CDE90A519DED0A0B53EC1D2B66
:1041D00051EC100B03F054F853EC1C2B03F050F887
:1041E00053EC1A2B02F074FF9DED0A0B41EC1C0BF3
:1041F00053EC102B9DED100B51EC100B02F034FE24
:1042000041EC1A0B53EC192B51EC1C0B02F02CFE59
:104210009DED0A0B41EC190B53EC102B51EC1B0BD1
:1042200002F022FE53EC192B02F088FB41EC190B33
:1042300051EC1A0B53EC192B02F080FB1090CDE9D6
:1042400010519DED100B53EC1A2B51EC100B03F099
:1042500017F853EC192B02F03BFF41EC190B9FEDC3
:104260005A0B53EC102B9DED100B51EC100B02F080
:10427000FBFD41EC1A0B9FED560B51EC190B53EC67
:10428000102B02F0F1FD41EC190B9FED530B53EC99
:10429000102B9DED100B51EC100B02F0E5FD53ECD3
:1042A000192B02F04BFB41EC100B4D48784400EB0E
:1042B000C40090ED001B51EC100B53EC112B02F0DD
:1042C0003DFB41EC190B404602F07BFDCDE90A01B4
:1042D00053EC192B51EC1A0B02F030FB41EC100B94
:1042E0004048784400EBC40090ED00BB51EC100B4B
:1042F00053EC1B2B02F022FB9DED0A1B53EC112B00
:1043000002F01CFB0690CDE906519DED0A0B53EC23
:10431000102B9DED060B51EC100B02F0B1FF53EC8E
:104320001B2B02F0ADFF53EC1A2B02F0A9FF53EC4C
:10433000192B02F0CDFE41EC100B00BF781EB0EE41
:1043400048AAF0EE68AA5AEA000008BF9FED268B43
:104350009DED241B53EC102B8DED001B00959DED66
:10436000240B51EC100B02F07FFD9DED000B41EC96
:10437000190B53EC102B9DED240B51EC100B02F09C
:104380007FFF9DED061B53EC112B02F06DFD2FE01E
:10439000FE822B654715F73F44DF5DF80BAE543EB8
:1043A00000000000000040438E9803007AB60B0026
:1043B000DC3500000A360000143500000000000063
:1043C0000000000000000840000000E009C7EE3FC8
:1043D000FD033ADC09C7EE3FF5015B14E02F3EBE5A
:1043E000A833000062330000000000000000F0BFAE
:1043F00053EC192B02F0A2FA9DED060B41EC190BC0
:1044000053EC102B9DED000B51EC100B02F02CFD2A
:10441000CDE910019DED100B51EC190B53EC102B55
:1044200002F08CFACDE902010C46AB498C422FDB3D
:10443000611A084318D19DED100B53EC102B9DED24
:10444000020B51EC100B02F01BFF41EC1B0B9FED1C
:10445000A40B51EC190B53EC102B02F06FFA53EC38
:104460001B2B02F0FFFD2DD20220FCF74CF800F0D0
:104470000BFA10EE901A18EE900A8DED020B8DEDEE
:10448000008B61F31E0003909DED020BFFF7EFBB65
:10449000954A24F00041914214D3944921440843A1
:1044A0007FF4E5AC9DED100B53EC102B9DED020B52
:1044B00051EC100B02F0E4FE53EC192B02F0D2FD8C
:1044C0007FF6D5AC24F0004089498A4A002601EBEA
:1044D000205182422BDA481C4FF4801121FA00F05F
:1044E0002044854AC0F30A517A44A1F2FF3192ED8B
:1044F000000B824A8DED0A0BCA4020EA0202C0F38B
:10450000130040F48010C1F1140120FA01F60B925F
:10451000002CB8BF76429DED0A0B53EC102B9DED9D
:10452000100B51EC100B02F0ABFECDE910019DED2C
:10453000100B51EC190B53EC102B02F0FFF99FED0F
:10454000700B0A90CDE90A5153EC102B9DED0A0B2C
:1045500051EC100B02F088FC41EC1B0B9FED6A0B39
:1045600053EC102B9DED0A0B51EC100B02F07CFC70
:104570009DED100B41EC1C0B53EC102B9DED0A0B29
:1045800051EC100B02F07CFE53EC192B02F0A0FD55
:104590009FED5F1B53EC112B02F066FC53EC1C2BC0
:1045A00002F0CCF941EC190B51EC1B0B53EC192B1D
:1045B00002F0C4F9CDE902019DED020B53EC1B2B77
:1045C00051EC100B02F05CFE53EC192B02F080FD55
:1045D0009DED020B41EC190B53EC102B51EC100B21
:1045E00002F042FCCDE90A014B489DED0A0B052182
:1045F000784400F099F89DED0A1B51EC100B53EC38
:10460000112B02F031FC9DED021B53EC112B02F03B
:104610005FFDCDE906019DED020B53EC192B51EC2A
:10462000100B02F021FC53EC192B02F087F99FEDDF
:104630003C0B41EC190B53EC102B9DED060B51EC90
:10464000100B02F01DFE9DED060B41EC1B0B53EC15
:10465000102B9DED020B51EC100B02F005FC53ECFE
:104660001B2B02F027FA53EC192B02F009FE9DEDEB
:10467000021B53EC112B02F003FE53EC1A2B02F039
:1046800027FDCDE9020101EB065001150029C8BF45
:10469000039015DC9DED020B324651EC100B02F03D
:1046A00083FFFFF70DFA042808BF00F0FDF832463B
:1046B0009DED020B51EC100B02F076FFCDE90201EB
:1046C0009DED020B51EC180B53EC102B02F0CCFBC0
:1046D000FFF72DBB0000000000009040000000002C
:1046E000FE822B654715973C00CC904000346F3F0D
:1046F00001FCFFFF0000E03FD4310000FFFF0F008E
:1047000000000000432EE63F396CA80C615C20BE1F
:10471000EF39FAFE422EE63FA43000000000000010
:10472000000000000000004070B504462DED028B33
:104730004D1E00EBC500B0EE408AF0EE608A90EDB1
:10474000000B35F0060017D053EC182B51EC100B72
:1047500002F08AFB41EC100B6D1E04EBC50090EDDE
:10476000001B51EC100B53EC112B02F0E7F841EC5D
:10477000100B35F00600E7D1022D36D0042D1CD0E9
:10478000062D1CBFBDEC028B70BD53EC182B51ECF9
:10479000100B02F069FB94ED0A1B53EC112B02F095
:1047A000CDF853EC182B02F05FFB94ED081B53EC93
:1047B000112B02F0C3F841EC100B53EC182B51EC09
:1047C000100B02F051FB94ED061B53EC112B02F081
:1047D000B5F853EC182B02F047FB94ED040B53ECA7
:1047E000102B02F0ABF841EC100B53EC182B51ECF2
:1047F000100B02F039FB94ED021B53EC112B02F06D
:104800009DF853EC182B02F02FFB94ED001B53EC9A
:10481000112B02F093F8BDEC028B41EC100B70BD34
:104820009FED070B10B553EC102B9FED070B51ECD0
:10483000100B02F03FF941EC100B10BD000000001E
:104840000000000000000000000000000000F03F39
:1048500010B553EC112B51EC100B02F06FF841EC3A
:10486000100B10BD000000009FED050B10B553ECC0
:10487000102B51EC100B02F01DF941EC100B10BD88
:1048800000000000000000009FED050B10B553EC88
:10489000102B51EC100B02F0E7FA41EC100B10BD9D
:1048A00000000000000000709FED050B10B553ECF8
:1048B000102B51EC100B02F0D7FA41EC100B10BD8D
:1048C000000000000000001082B0CDE9000121F0DE
:1048D000004001909DED000B02B051EC100B7047B1
:1048E00000BF054A128802F04002002AF9D0C2B285
:1048F000014B1B1D1A807047001401401CB54FF47A
:104900004070FEF76DFAB420FDF71EFEFEF792F838
:10491000FDF7D0F84FF41650FEF7B0F90020012152
:1049200003464FF4C872CDE9001004A1074801F016
:1049300059FD01F0F3F800BFFEE700005461736B0E
:104940005F5379735F496E6974000000C5360008D3
:104950002DE9F04105460E461C4807681C480068D2
:10496000001D00F0B2FD50B91948006890F82C10F5
:104970000120884017490968814316480160681C76
:1049800038B936B112480168091D134800F0DBFD43
:104990001AE07C190E4800684460BC4207D20C48FB
:1049A0000168091D0D48006800F0B3FD0CE00848DF
:1049B0000168091D0A48006800F0ABFD094800685D
:1049C000844201D207480460BDE8F0812400002041
:1049D00010000020280000200C02002018000020F9
:1049E000140000204000002010B5044600F0B8FD7F
:1049F00024480068401C234908602348006840B9E7
:104A0000214804600846006801280DD100F0DEF955
:104A10000AE01E48006838B91B480068C06AE16AAD
:104A2000884201D81848046019480068401C184999
:104A3000086008460068606494F82C1001208840E3
:104A400014490968084313490860E16A01EB8101D0
:104A5000114A02EB8100211D00F075FD00F0AAFD56
:104A60000A48006868B108480068C06AE16A88427C
:104A700007D24FF0805009490860BFF34F8FBFF352
:104A80006F8F10BD20000020100000202C0000209F
:104A90003C000020280000203001002004ED00E050
:104AA00010B500F05DFD10480068D0B90F4800F067
:104AB00020FD0F4800F01DFD0C480E4908600C4811
:104AC0000D49086000220C210A2001F09BF90649DB
:104AD00008600846006820B108A10348006800F09B
:104AE0001DFE00F067FD10BD5C00002020020020CC
:104AF000340200205400002058000020546D7251F0
:104B00000000000070B523E001F056F8134800687B
:104B100008B9012000E00020054601F0FDFDBDB907
:104B200000F01EFD0D48C068C468201D00F0CDFCDB
:104B30000B480068401E0A4908600A480068401E89
:104B40000849086000F036FD204600F060F800BF1C
:104B5000044800680028D7D170BD0000F80100208B
:104B6000200000201C00002070B504460D46206C7B
:104B700070B1216CE0680844E0606168E0688842D8
:104B800001D32068E0602846226CE168FBF766FCF0
:104B900070BD2DE9F04104460F4615464FF0000860
:104BA000A66B206C40B9206860BB606801F004FD12
:104BB00080460020606025E07DB93946226CA068FF
:104BC000FBF74CFC216CA0680844A060D4E90110FC
:104BD000884217D32068A06014E03946226CE06850
:104BE000FBF73CFC216CE068401AE0602168E0685B
:104BF000884203D2216C6068401AE060022D01D126
:104C000006B1761E701CA0634046BDE8F08110B569
:104C10000446206B00F0ECFC204600F0E9FC10BDDF
:104C20000146084A126812680AB9012200E000220F
:104C30000A600A6822B9034A1268D268106800E064
:104C4000002070475400002030B54FF496331748C9
:104C500000F007042CB1C01D20F00700134C041B0A
:104C60001B1B0246124C22600024114D6C60D018B0
:104C7000083820F007000F4C206000240D4D2D68EF
:104C80006C600C4D2D682C601146441A4C60094C28
:104C900024680C60084D4C682C60084D4C682C60F2
:104CA0004FF00044064D2C6030BD0000480200204B
:104CB00068000020700000207800002074000020B0
:104CC0007C00002000BFFFF71DFF06480068012898
:104CD000F9D94FF0805004490860BFF34F8FBFF3FC
:104CE0006F8FF0E73001002004ED00E02DE9F04186
:104CF00006460D4617469846069C0DB9246000E00E
:104D00002760E66325640121204601F089F984F8D3
:104D10004C80BDE8F0812DE9F05F82460F46904659
:104D20009B460A9E0C9C4FEA8801A522206BFBF74C
:104D3000DAFBA8F10100216B01EB800929F00709DA
:104D400009F0070008B9012000E0002050B900BFB9
:104D5000502080F31188BFF34F8FBFF36F8F00BFD8
:104D600000BFFEE7002507E0795D04F134004155FE
:104D7000785D00B902E06D1C102DF5D300BF002155
:104D800043200155072E00D30626E662E664002084
:104D90002065201D00F0BAFB04F1180000F0B6FBFE
:104DA0002461C6F10700A061646200206065A0650F
:104DB00084F85C005A465146484600F039FB2060B2
:104DC0000B9808B10B980460BDE8F09F10B5002463
:104DD00007E004EB84010F4A02EB810000F089FB3D
:104DE000641C072CF5D30C4800F083FB0B4800F043
:104DF00080FB0B4800F07DFB0A4800F07AFB0A4874
:104E000000F077FB04480949086004480849086035
:104E100010BD000030010020BC010020D0010020A6
:104E2000E4010020F80100200C0200201400002002
:104E30001800002010B50146164800E0006803681D
:104E40008B42FBD30246436813448B4204D1436830
:104E50004C682344436001460A464B681344046887
:104E6000A34211D10C4C03682468A34208D04B68BC
:104E70000468646823444B6003681B680B6005E0AA
:104E8000054B1B680B6001E003680B60884200D093
:104E9000016010BD68000020700000202DE9F04185
:104EA00004460D4616461F464FF000086560246113
:104EB000B5420CD8F01BA169884202D34FF001081B
:104EC00011E0211D0948006800F023FB0BE0BE4201
:104ED00004D2BD4202D34FF0010804E0211D044872
:104EE000006800F016FB4046BDE8F0815800002045
:104EF0005400002070B5054600F032FBA86B08B9DD
:104F0000012400E0002400F055FB204670BD70B580
:104F1000054600F025FBA86BE96B884201D101240E
:104F200000E0002400F046FB204670BDF8B50546C1
:104F30000F4616480068C068C468201D00F0C5FA16
:104F4000E06901281DD1A06941192B463A46204647
:104F5000FFF7A4FFA8B1002003462A4601460090AF
:104F6000204601F087FC064656B900BF502080F36A
:104F70001188BFF34F8FBFF36F8F00BF00BFFEE7F5
:104F800000BF2046616A8847F8BD00005400002039
:104F900070B586B06AE00398002867DB059C6069FD
:104FA00008B9012000E0002010B9201D00F08DFAA2
:104FB00002A800F0BDF8054603980A2854D2DFE89D
:104FC00000F009050731334F0608323400BF00BF37
:104FD00000BF00BF0498A269811803462A462046F4
:104FE000FFF75CFFE8B12046616A8847E069012865
:104FF00017D1002000900498A16942180023194697
:10500000204601F037FC064656B900BF502080F319
:105010001188BFF34F8FBFF36F8F00BF00BFFEE754
:1050200000BF22E000BF20E000BF0498A061A0699B
:1050300008B1012000E0002050B900BF502080F3EB
:105040001188BFF34F8FBFF36F8F00BF00BFFEE724
:10505000A06941192B462A462046FFF71FFF04E0AE
:10506000204600F0C5FA00E000BF00BF00231A464A
:1050700003A90448006800F0F1FE00288BD106B0B7
:1050800070BD00005C000020F8B505460C4600F03D
:1050900093FD684600F04CF80646009820BB44B9E2
:1050A000B54206D801F038FB31462846FFF73EFFEF
:1050B0001CE03CB10E480068006808B9012000E01F
:1050C00000200446A91B22460A48006800F03CFB69
:1050D00001F022FB50B94FF0805007490860BFF340
:1050E0004F8FBFF36F8F01E001F016FBF8BD00009A
:1050F000580000205C00002004ED00E00A49096827
:10510000096809B9012100E0002121B14FF0FF3108
:10511000064A116006E004490968C968C868034A7C
:10512000416811607047000014000020400000201A
:1051300070B5044601F096F90546074800688542B7
:1051400004D200F00BF80120206001E00020206074
:1051500001480560284670BD640000202DE9F84331
:1051600032E024480068C068056822480068C068CA
:10517000C468201D00F0A9F92046616A8847E069EB
:10518000012821D1A0694619AE4207D96660246181
:10519000211D1848006800F0BCF915E00020034606
:1051A0002A4601460090204601F064FB074657B9A5
:1051B00000BF502080F31188BFF34F8FBFF36F8F74
:1051C00000BF00BFFEE700BF0A480068006808B9DA
:1051D000012000E000200028C3D00648D0F800805D
:1051E00005480068034908600348C0F80080BDE82E
:1051F000F883000054000020580000200E4800688A
:10520000401C08B9012000E0002050B900BF502028
:1052100080F31188BFF34F8FBFF36F8F00BF00BFC4
:10522000FEE700BF502080F31188BFF34F8FBFF31C
:105230006F8F00BF00BFFEE78000002008B500BFF1
:105240006846FFF7EDFC044620460099FFF71CFF77
:10525000FFF79EFEF4E770B5044600F081F994F97B
:10526000455010E0606A08B9012000E0002038B91C
:1052700004F1240001F004FA18B100F09DFB00E0F5
:1052800003E0681E45B2002DECDC00BFFF2084F86F
:10529000450000F08FF900F063F994F9445010E0F4
:1052A000206908B9012000E0002048B904F110008D
:1052B00001F0E6F908B100F07FFB681E45B200E09E
:1052C00001E0002DECDC00BFFF2084F8440000F07A
:1052D00071F970BD2DE9F04104464FF0000800F06F
:1052E0006BFC4648006808B9FFF7AEFC444800680C
:1052F000204000286BD1D4B1083404F00700B0B1CD
:1053000004F00700C0F10800044404F0070008B9E5
:10531000012000E0002050B900BF502080F3118828
:10532000BFF34F8FBFF36F8F00BF00BFFEE7002CAE
:105330004DD034480068844249D8334E3046056821
:1053400001E02E462D686868A04202D22868002835
:10535000F7D12A480068854239D0306800F1080842
:10536000286830606868001B102819D92F1907F0C9
:10537000070008B9012000E0002050B900BF50200C
:1053800080F31188BFF34F8FBFF36F8F00BF00BF53
:10539000FEE76868001B78606C603846FFF74AFDDE
:1053A000184968680968081A1649086008460068BC
:1053B00016490968884203D21248006813490860F8
:1053C0000F4968680968084368600020286001F098
:1053D000A3F908F0070008B9012000E0002050B947
:1053E00000BF502080F31188BFF34F8FBFF36F8F42
:1053F00000BF00BFFEE74046BDE8F081700000201E
:105400007C0000207400002068000020780000204C
:105410000648006830B10549096801F15000096D7E
:10542000491C01600148006870470000100000201E
:10543000001F4FF080730360001F21F00103036021
:10544000001F054B036014380260001F6FF0020359
:105450000360203870470000FD51000800B52DEDB5
:10546000048B83B041EC190B01F03EFE41EC180BAC
:1054700018EE100A18EE901A8DED008B002818BF58
:105480000120084320F00040C0F17F6000F1E040BF
:10549000C00F14D019EE101A19EE900A8DED009B72
:1054A000002918BF0121084320F00040C0F17F60AF
:1054B00000F1E040C00F04BF0120FBF724F851ECDD
:1054C000180B03B0BDEC048B00BD01460A69D1E99D
:1054D00001309860D1E9010358605068884201D1D9
:1054E00088685060002008611068401E10601068D5
:1054F000704700F1080141604FF0FF31816000F119
:105500000801C16001610021016070470021016153
:10551000704710B502460B685C1C0CB9106907E0B7
:1055200002F1080000E04068446824689C42FAD90F
:1055300044684C604C68A160886041600A611468EE
:10554000641C146010BD42684A6093688B60936865
:1055500059609160086103685B1C0360704700003C
:1055600000BF502080F31188BFF34F8FBFF36F8FC0
:1055700000BF0E480068401C0C49086008460068DF
:10558000012812D10A480068C0B208B9012000E021
:10559000002050B900BF502080F31188BFF34F8F17
:1055A000BFF36F8F00BF00BFFEE770478000002091
:1055B00004ED00E00D48006850B900BF502080F3B2
:1055C0001188BFF34F8FBFF36F8F00BF00BFFEE79F
:1055D00006480068401E054908600846006820B972
:1055E000002080F3118800BF00BF704780000020BA
:1055F00070B506463546002E3FD0083D2C461F4963
:1056000060680968084008B1012000E0002050B936
:1056100000BF502080F31188BFF34F8FBFF36F8F0F
:1056200000BF00BFFEE7206808B9012000E00020AD
:1056300050B900BF502080F31188BFF34F8FBFF3E4
:105640006F8F00BF00BFFEE70C4960680968084023
:1056500098B1206888B90949606809688843606022
:1056600000F0AAFA0649606809680844044908601D
:105670002046FFF7DFFB01F04FF870BD7C000020F3
:1056800074000020064800684FF47A71B0FBF1F016
:10569000401E4FF0E021486107200861704700007C
:1056A000BC00002070B5FAF739FE0446102C16D362
:1056B00004F1E02090F8F05315480078854201DBB2
:1056C000012000E0002050B900BF502080F3118875
:1056D000BFF34F8FBFF36F8F00BF00BFFEE70D48D2
:1056E000006800F4E0600C490968884201D8012094
:1056F00000E0002050B900BF502080F31188BFF3B4
:105700004F8FBFF36F8F00BF00BFFEE770BD00007B
:10571000840000200CED00E08800002002460020FC
:105720000BE0084B53F8303033B9064B43F83010D8
:1057300003EBC0035A6002E0401C0828F1D300BF0D
:1057400070470000F00000202DE9F04105460E46AC
:1057500017462C46FFF704FF94F94400401C10B98B
:10576000002084F8440094F94500401C10B9002042
:1057700084F84500FFF71EFFA06B28B93A46314672
:1057800004F1240000F03AF92046FFF764FDBDE87B
:10579000F081000070B504460025D4B112480068BD
:1057A00008B9012000E0002050B900BF502080F36C
:1057B0001188BFF34F8FBFF36F8F00BF00BFFEE7AD
:1057C00000F0FAF900212046FFF7C2F800F0A4FF2C
:1057D00005463DB94FF0805004490860BFF34F8F34
:1057E000BFF36F8F70BD00004800002004ED00E0A3
:1057F0002DE9F04704460F464FF0000954B900BFA9
:10580000502080F31188BFF34F8FBFF36F8F00BF1D
:1058100000BFFEE70FB1012000E0002050B900BF3B
:10582000502080F31188BFF34F8FBFF36F8F00BFFD
:1058300000BFFEE72048006808B9012000E0002012
:1058400050B900BF502080F31188BFF34F8FBFF3D2
:105850006F8F00BF00BFFEE700F0AEF91748066883
:105860002068C5192068B04207D92068A8420BD922
:10587000B54209D94FF0010906E02068A84201D8D5
:10588000B54201D94FF001092560B9F1000F03D0ED
:10589000A81B0021FFF75CF800F03EFF8046B8F13E
:1058A000000F07D14FF0805005490860BFF34F8FBC
:1058B000BFF36F8FBDE8F087480000202400002070
:1058C00004ED00E070B50546FFF74AFE15B9304813
:1058D000006800E028460446201DFFF7F6FD78B971
:1058E000E06A00EB80002B4951F8200040B994F8A1
:1058F0002C1001208840284909688143264801600E
:10590000A06A18B104F11800FFF7DFFD2348006812
:10591000401C224908601E480068844209D1211DAC
:105920001F48FFF710FE1F480068401C1D49086013
:1059300009E01D480068401E1B4908602046FFF72B
:1059400066F9FFF7DBFBFFF735FE18480068E8B1A2
:105950000F480068844219D11548006808B9012031
:1059600000E0002050B900BF502080F31188BFF341
:105970004F8FBFF36F8F00BF00BFFEE74FF0805027
:105980000C490860BFF34F8FBFF36F8F70BD0000ED
:105990001000002030010020280000203C000020E2
:1059A000F80100201C000020200000202C00002016
:1059B0004800002004ED00E0012001490860704724
:1059C0003400002070B504460D4654B900BF502085
:1059D00080F31188BFF34F8FBFF36F8F00BF00BFFD
:1059E000FEE70548016818312046FFF792FD0121C6
:1059F0002846FEF7ADFF70BD1000002070B50546CB
:105A00000E46144655B900BF502080F31188BFF3ED
:105A10004F8FBFF36F8F00BF00BFFEE706480168DE
:105A200018312846FFF78FFD0CB14FF0FF362146A5
:105A30003046FEF78DFF70BD1000002070B50546A2
:105A40002C46002D4BD02649E06A0968C96A884275
:105A500045D2A06900F0004028B921480068C06A1A
:105A6000C0F10700A061E16A01EB81011D4A02EB70
:105A700081016069884201D1012000E0002050B31B
:105A8000201DFFF722FD78B9E06A00EB8000154980
:105A900051F8200040B994F82C1001208840124998
:105AA00009688143104801600D480068C06AE062DF
:105AB00094F82C10012088400B49096808430A49D2
:105AC0000860E16A01EB8101064A02EB8100211DB9
:105AD000FFF739FD03E002480068C06AE06270BD6C
