:020000040800F2
:10000000D8430120150300082D1D000849180008D9
:100010000D1D0008790D00083D27000800000000B4
:100020000000000000000000000000005D02000869
:100030009916000800000000B102000861200008C5
:100040002F0300082F0300082F0300082F030008C8
:100050002F0300082F0300082F0300080D170008C6
:100060002F0300082F0300082F0300082F030008A8
:100070002F0300082F0300082F0300082F03000898
:100080002F0300082F0300082F0300082F03000888
:10009000990D00082F0300085D0E00082F030008CB
:1000A0002F0300082F0300082F0300082F03000868
:1000B000D92000082F0300082F0300082F03000891
:1000C0002F0300082F0300082F0300082F03000848
:1000D0002F030008F92400082F0300082F0300084D
:1000E0002F0300082F0300082F0300082F03000828
:1000F0002F0300082F0300082F0300082F03000818
:100100002F0300082F0300082F0300082F03000807
:100110002F0300082F0300082F0300082F030008F7
:100120002F0300082F0300082F0300082F030008E7
:100130002F0300082F0300082F0300082F030008D7
:10014000790E00082F0300082F0300082F03000872
:100150002F0300082F0300082F0300085125000873
:100160002F0300082F0300082F0300082F030008A7
:100170002F0300082F0300082F03000800000000D1
:100180002F0300082F0300082F0300082F03000887
:100190002F0300082F0300082F0300082F03000877
:1001A00000000000000000002F03000800F002F82B
:1001B00000F044F80AA090E8000C82448344AAF1BD
:1001C0000107DA4501D100F039F8AFF2090EBAE8BB
:1001D0000F0013F0010F18BFFB1A43F0010318477B
:1001E000E445000004460000103A24BF78C878C1F6
:1001F000FAD8520724BF30C830C144BF04680C602D
:10020000704700000023002400250026103A28BF74
:1002100078C1FBD8520728BF30C148BF0B60704778
:10022000642900F0D780782900F010810020704701
:100230001FB504F0ADFA1FBD10B510BD00F08AFA6D
:100240001146FFF7F5FF02F0DDFA00F0A8FA03B45B
:10025000FFF7F2FF03BC00F0ABFA00002A4B19686D
:100260000868B0E8F04F80F30988BFF36F8F4FF054
:10027000000080F311887047000000000648006805
:10028000006880F3088862B661B6BFF34F8FBFF392
:100290006F8F00DF00BF00BF08ED00E0DFF80C004B
:1002A000016841F470010160704700BF88ED00E013
:1002B000EFF30980BFF36F8F134B1A681EF0100F16
:1002C00008BF20ED108A20E9F04F106008B44FF00D
:1002D000500080F31188BFF34F8FBFF36F8F03F08F
:1002E000BFFB4FF0000080F3118808BC1968086854
:1002F000B0E8F04F1EF0100F08BFB0EC108A80F38A
:100300000988BFF36F8F704714000020EFF305805A
:10031000704700000948804709480047FEE7FEE7AC
:10032000FEE7FEE7FEE7FEE7FEE7FEE7FEE7FEE7A5
:1003300004480549054A064B704700007120000833
:10034000AD010008D82F0120D8430120D83F01205B
:10035000D83F01200FB4044910B503AA029800F059
:1003600085F910BC5DF814FB940000202DE9F041E4
:100370000E460446002020622046E168884730B3DC
:10038000252805D0D4E901219047206A401CF2E7D6
:10039000E168204600278847050018D0A5F14100F4
:1003A000192802D820354FF40067324629462046E6
:1003B0002760FFF735FF40B1012804D0F61D26F075
:1003C00007060836D8E7361DD6E72846DAE7206A5A
:1003D000BDE8F0812DE9F04106460024106875293A
:1003E000314616A510D0AFF30080002802DA404253
:1003F00013A507E031688A0701D512A502E0490775
:1004000004D511A5012401E0AFF3008000210A22E8
:1004100006F1240709E0B0FBF2FCB0FBF2F302FBAB
:100420001C00303078541846491C0028F3D123466C
:100430002A463046BDE8F04100F0A6B800000000B2
:100440002D0000002B0000002000000070B50446C5
:100450000D4621461068AFF300802188090502D5BA
:100460000F4A7A4402E00E4A7A440E32002104F127
:10047000240305E000F00F060009965D5E54491C58
:100480000028F7D120780023000704D5702D02D072
:1004900009B1022311322046BDE8704000F074B863
:1004A00034430000032A40F2308010F0030C00F0C7
:1004B000158011F8013BBCF1020F624498BF11F89E
:1004C00001CB00F8013B38BF11F8013BA2F1040257
:1004D00098BF00F801CB38BF00F8013B11F00303CF
:1004E00000F0D680083AC0F0088051F8043B083A82
:1004F00051F804CBA0E80810F5E7121D5CBF51F8D5
:10050000043B40F8043BAFF30080D20724BF11F84E
:10051000013B11F801CB48BF11F8012B24BF00F8B3
:10052000013B00F801CB48BF00F8012B704702F0F7
:10053000FF0343EA032242EA024200F002B84FF00E
:1005400000020429C0F0128010F0030C00F0D480E7
:10055000CCF1040CBCF1020F18BF00F8012BA8BFAE
:1005600020F8022BA1EB0C0100F0C6B85FEAC17CB9
:1005700024BF00F8012B00F8012B48BF00F8012B25
:1005800070477047704770472DE9F0470D46994610
:100590009246044600F124080168880604D5E06903
:1005A00021F01001216000E00120A84201DD471B7D
:1005B00000E00027A1697A1902EB0900081AA0617E
:1005C0002078C00602D42046AFF30080002608E061
:1005D000D4E901211AF806009047206A401C761CD5
:1005E00020624E45F4DB2078C0060AD52046AFF3E2
:1005F000008006E0D4E9012130209047206A401CA9
:100600002062381EA7F10107F4DC07E0D4E90121DC
:1006100018F805009047206A401C2062281EA5F1AA
:100620000105F3DC2046AFF300802078000602D5F8
:100630000220BDE8F0870120FBE7000001694A1CA9
:1006400002610878704700B58FB0CDE90131002113
:10065000059105497944CDE9031011466846FFF735
:1006600085FE0FB000BD0000E5FFFFFF074B70B532
:100670000D467B44FFF7E7FF0446284600F061F88B
:1006800010B14FF0FF3070BD204670BD73210000E7
:1006900010B5203AC0F00B80B1E81850203AA0E81D
:1006A0001850B1E81850A0E81850BFF4F5AF5FEA51
:1006B000027C24BFB1E81850A0E8185044BF18C904
:1006C00018C0BDE810405FEA827C24BF51F8043BAB
:1006D00040F8043B08BF7047D20728BF31F8023BFF
:1006E00048BF11F8012B28BF20F8023B48BF00F893
:1006F000012B70474FF0000200B513469446964612
:10070000203922BFA0E80C50A0E80C50B1F1200124
:10071000BFF4F7AF090728BFA0E80C5048BF0CC0D2
:100720005DF804EB890028BF40F8042B08BF704730
:1007300048BF20F8022B11F0804F18BF00F8012BA2
:100740007047007B00F08000704700000048704751
:10075000742F01207546FFF7F9FFAE460500694684
:10076000534620F00700854618B020B5FFF7E0FD9E
:10077000BDE820404FF000064FF000074FF00008A2
:100780004FF0000B21F00701AC46ACE8C009ACE823
:10079000C009ACE8C009ACE8C0098D46704710B587
:1007A0000446AFF300802046BDE81040FFF74FBD80
:1007B00001491820ABBEFEE726000200704700008A
:1007C00000B587B00121480601F012FB012188061F
:1007D00001F00EFB01208DF8170000208DF81800A5
:1007E00008208DF8140004208DF8150000208DF8E5
:1007F00012008DF819000320ADF8100000208DF8CC
:100800001A008DF813008DF816008DF81B0004A94E
:100810002B4800F060FC01208DF80D000020ADF8A1
:100820000800ADF80000ADF80200ADF80400ADF826
:1008300006008DF80B008DF80A0001208DF80C00E1
:10084000684600F0BBFB01208DF8170000208DF8F2
:10085000180008208DF8140004208DF815000020E1
:100860008DF812008DF819000320ADF8100000205B
:100870008DF81A008DF813008DF816008DF81B0006
:1008800004A9104800F027FC01208DF80D0000207D
:10089000ADF80800ADF80000ADF80200ADF80400B6
:1008A000ADF806008DF80B000E208DF80A0001202F
:1008B0008DF80C00684600F081FB07B000BD000019
:1008C000006400400068004000B58FB00121880539
:1008D00001F07EFA4FF0006000901248019012483B
:1008E00002900020039013200490002005904FF404
:1008F0008060069000200890079009904FF48030A7
:100900000A9000200B9003200C9000200D900E9078
:100910006946064800F092FE0121044800F078FE86
:100920000FB000BD04100140082F012040640240B8
:100930001CB50121084601F04BFA0121022001F00B
:1009400047FA0121082001F043FA0121202001F09B
:100950003FFA02208DF8040000208DF80600802068
:10096000009001208DF8070003208DF805006946EE
:10097000504800F0F7FE072211464E4800F03AFFBB
:1009800002208DF8040000208DF80600032000905E
:1009900001208DF8070003208DF8050069464648C0
:1009A00000F0E0FE09220021434800F023FF092265
:1009B0000121414800F01EFF02208DF804000020B4
:1009C0008DF806004FF44050009001208DF807008C
:1009D00003208DF805006946364800F0C3FE092261
:1009E0000C21344800F006FF09220D21314800F0A7
:1009F00001FF01208DF8040000208DF806004FF45F
:100A00008060009001208DF8070003208DF805001C
:100A100069462A4800F0A6FE01208DF80400002057
:100A20008DF806004FF42070009001208DF807002B
:100A300003208DF805006946204800F093FE002051
:100A40008DF804008DF806004020009001208DF8FC
:100A5000070003208DF805006946184800F082FE63
:100A600000208DF804008DF806004FF4807000908F
:100A700002208DF8070003208DF8050069460F4815
:100A800000F070FE012211460D4800F0B3FE022076
:100A900000908DF8040003208DF8050000208DF8EB
:100AA000060001208DF807006946054800F05AFE4F
:100AB0001CBD000000040240000C02400014024073
:100AC0000000024008B525208DF8000001208DF8B7
:100AD000030008208DF8010000208DF80200684610
:100AE00001F030F9012240F22441224801F091FD49
:100AF00014208DF8000001208DF803000A208DF8E5
:100B0000010000208DF80200684601F01BF9012267
:100B100019491A4800F0D6FA40208DF8000001204B
:100B20008DF8030008208DF8010000208DF80200E8
:100B3000684601F007F901220221114800F0C2FACB
:100B40001C208DF8000009208DF8010000208DF890
:100B5000020001208DF80300684601F0F3F801223D
:100B60001146900701F0FDFA0121880701F0D6FA3D
:100B700008BD000000100140008F03000064004029
:100B80000068004000B58BB00121084601F030F943
:100B90000120099042F22730ADF820000020ADF886
:100BA0002200ADF8280008A94FF0804001F02AFB90
:100BB0000121880701F0B8FA0121102001F018F98D
:100BC0005920ADF820000020ADF82200ADF8280033
:100BD00040F2E730099008A9294801F013FB0121F0
:100BE000274801F0A1FA0121042001F001F90121B7
:100BF000082001F0EDF802220C21224800F0FAFD55
:100C00004FF48050069002208DF81C0003208DF8D0
:100C10001D0000208DF81E0001208DF81F0006A980
:100C2000184800F09FFD42F22730ADF82000002068
:100C3000ADF82200C72009900020ADF8280008A9CF
:100C4000114801F0DFFA7020ADF804000120ADF882
:100C500006000220ADF810000520039001A90A4803
:100C600001F088FA0821084801F0C2FA012106487B
:100C700001F048FA0121044801F056FA0BB000BD1A
:100C800000100040000C0240000800401FB5012188
:100C9000102001F0BDF80E4800900020ADF80C00C7
:100CA0000420ADF80A000020ADF80800ADF80600F9
:100CB000ADF804006946074801F0D0FC012240214C
:100CC000044801F09DFC0121024801F08DFC1FBD8C
:100CD000A08601000010014000B58BB00121022068
:100CE00001F086F80121022001F072F802220421AD
:100CF0001F4800F07FFD1020099002208DF8280089
:100D000003208DF8290000208DF82A0001208DF89D
:100D10002B0009A9164800F025FD5920ADF8180050
:100D20000020ADF81A00012007900020ADF8200047
:100D300006A9104801F066FA6020ADF80400012011
:100D4000ADF806000020ADF8100001A9094801F037
:100D500011FA0821074801F04BFA0121054801F07A
:100D6000D1F90121034801F0DFF90BB000BD00000B
:100D7000000402400004004010B502A0FFF7EAFAA8
:100D800010BD00004275734661756C745F48616EFA
:100D9000646C65720000000000B585B06A460021F1
:100DA0002C4800F022FA0098A0F2012030B101286E
:100DB00016D0022826D0032848D135E09DF80C0033
:100DC0009DF80B1040EA0120234908809DF80E1081
:100DD0009DF80D0041EA002000B21F49488036E02E
:100DE0009DF80C009DF80B1040EA01201A498880FC
:100DF0009DF80E109DF80D0041EA002000B2164942
:100E0000C88024E09DF80C009DF80B1040EA0120FA
:100E1000114908819DF80E109DF80D0041EA00204F
:100E200000B20D49488112E09DF80C009DF80B10AE
:100E300040EA0120084988819DF80E109DF80D00B8
:100E400041EA002000B20449C88100E000BF00BFB1
:100E500005B000BD00640040202E012010B504A0A4
:100E6000FFF778FA4FF40F41024800F053F810BD35
:100E7000313233000064004000B585B06A4600217D
:100E8000224800F0B2F90098A0F2012020B1012818
:100E900014D0022836D123E09DF80C009DF80B10E9
:100EA00040EA01201A4908829DF80E109DF80D00B5
:100EB00041EA002000B21649488224E09DF80C0067
:100EC0009DF80B1040EA0120114988829DF80E1010
:100ED0009DF80D0041EA002000B20D49C88212E0E1
:100EE0009DF80C009DF80B1040EA0120084908838A
:100EF0009DF80E109DF80D0041EA002000B2044953
:100F0000488300E000BF00BF05B000BD006800409E
:100F1000202E0120B1F5007F3AD00FDC202928D007
:100F200006DC01291CD004291DD0082940D11DE070
:100F3000402921D0B1F5807F3AD126E0B1F5004FAC
:100F400031D006DCB1F5806F25D0B1F5006F2FD11F
:100F500024E0B1F5803F12D0B1F5003F28D111E077
:100F6000154A826025E00822C26022E01022C26099
:100F70001FE0082202611CE01022026119E0082231
:100F8000426016E01022426013E00422426010E04A
:100F9000042242600DE0042242600AE000228261E5
:100FA0000422426005E0002282610422426000E0E7
:100FB00000BF00BF704700000101010010B5002113
:100FC000837A012202FA03F13D4A126842F00102DB
:100FD0003B4B1A603A4A1C3212688A43384B1C3326
:100FE0001A60027BCAB9364A0C3212688A43344B03
:100FF0000C331A604288C38842EA0343304A4032C5
:10100000847A42F834300288838842EA03432C4AC7
:101010004032847A02EBC4025360027B012A19D168
:10102000274A0C3212680A43254B0C331A60428857
:10103000038842EA0343224A4032847A42F8343039
:10104000C288838842EA03431D4A4032847A02EB15
:10105000C4025360C27A3AB9194A121D12688A430F
:10106000174B1B1D1A6006E0154A121D12680A4331
:10107000134B1B1D1A60028932B9114A14321268CF
:101080008A430F4B14331A600289012A06D10C4A95
:10109000143212680A430A4B14331A60427B012A45
:1010A00006D1074A1C3212680A43054B1C331A60EA
:1010B000034A126822F00102014B1A6010BD0000C1
:1010C000006600401AB143690B43436102E0436983
:1010D0008B434361704730B50246002000231468FB
:1010E00024F002041460146844F00104146000E069
:1010F0005B1C546804F001041CB94FF6FF74A34252
:10110000F6D1546804F001040CB900206CE08C792D
:10111000012C04D1146844F08004146003E01468C6
:1011200024F080041460CC79012C04D1146844F0BC
:101130004004146003E0146824F0400414600C7A46
:10114000012C04D1146844F02004146003E01468F6
:1011500024F0200414604C7A012C04D1146844F06B
:101160001004146003E0146824F0100414608C7AF6
:10117000012C04D1146844F00804146003E01468DE
:1011800024F008041460CC7A012C04D1146844F0D3
:101190000404146003E0146824F0040414608C78E0
:1011A000A407CD7844EA05640D7944EA05444D79F5
:1011B00044EA05540D886D1E2C43D461146824F054
:1011C00001041460002300E05B1C546804F0010477
:1011D0001CB14FF6FF74A342F6D1546804F0010429
:1011E0000CB1002000E0012030BD10B500F5D8732F
:1011F00003EB01131B6803F004031372137A53B952
:1012000000F5D87303EB01131B6840F2FF7404EA86
:101210005353136009E000F5D87303EB01131B6807
:101220006FF0604404EAD303536000F5D87303EB16
:1012300001131B6803F00203537200F5D87303EB2C
:1012400001135B6803F00F03937200F5D87303EB8F
:1012500001135B681B0AD37400F5D87303EB011309
:101260009B68D37200F5D87303EB01139B681C0ACB
:10127000147300F5D87303EB01139B681C0C5473B3
:1012800000F5D87303EB01139B681B0E937300F5F5
:10129000D87303EB0113DB68D37300F5D87303EB4A
:1012A0000113DB681C0A147400F5D87303EB0113F7
:1012B000DB681C0C547400F5D87303EB0113DB6876
:1012C0001B0E937421B9C36843F02003C36003E08D
:1012D000036943F02003036110BD10B502460020EE
:1012E000936803F08063B3F1806F00D110E09368DE
:1012F00003F00063B3F1006F01D1012008E09368AF
:1013000003F08053B3F1805F01D1022000E004209C
:10131000042874D002F5C07303EB00131B6803F0BC
:10132000010402F5C07303EB00131C600B7A7BB958
:101330004B7A0C8843EA445302F5C07404EB001462
:101340002468234302F5C07404EB0014236010E00A
:101350000B7A4C6843EAC4034C7A234302F5C07409
:1013600004EB00142468234302F5C07404EB00145A
:1013700023608B7A03F00F038B7202F5C07303EBCB
:1013800000135B6823F00F0402F5C07303EB001336
:101390005C6002F5C07303EB00135B688C7A234337
:1013A00002F5C07404EB001463608B7B1C064B7B5E
:1013B00044EA03440B7B44EA0323CC7A234302F53B
:1013C000C07404EB0014A3608B7C1C064B7C44EAC5
:1013D00003440B7C44EA0323CC7B234302F5C07413
:1013E00004EB0014E36002F5C07303EB00131B6809
:1013F00043F0010402F5C07303EB00131C6010BD41
:101400002DE9F04186B080460C4615461E460C9FDD
:101410004FF40070019000208DF80C008DF80D0045
:1014200008208DF80E00200A8DF80F008DF810406E
:10143000290A8DF811108DF81250310A8DF8131009
:101440008DF81460390A8DF815108DF8167000BFEC
:1014500013480068B8B11248016812A0FEF77AFF7D
:101460000F48001F016812A0FEF774FF0C481438E3
:10147000016812A0FEF76EFF4FF4FA7001F06EF9EA
:1014800006B0BDE8F08106481038006800F0E05072
:101490000028DDD001A94046FFF71FFF00BFEFE79E
:1014A000186400404553523A2025780D0A00000088
:1014B0004945523A2025780D0A0000004D53523A12
:1014C0002025780D0A0D0A0010B518224049414820
:1014D000FEF7E8FF404800783F49497840EA01209C
:1014E000C0F30A003A49088008460088A0F58060E9
:1014F00000B2088038484078C0103749897840EAFF
:101500004110C0F30A003249488008464088A0F5DF
:10151000806000B248803048807880112E49C978B8
:1015200040EA81002C49097940EA8120C0F30A0091
:101530002749888008468088A0F5806000B28880AE
:101540002548007940102449497940EAC110C0F388
:101550000A001F49C8800846C088A0F5806000B214
:10156000C8801D4840790011800808721A484079E7
:10157000C0F301104872184880791749C97940EAC8
:10158000012000B2124948811348007A1249497A71
:1015900040EA012001B20E4881810F48807A0E494D
:1015A000C97A40EA012001B20948C1810A48017B99
:1015B000074801740848417B054841740648807B10
:1015C0000549C97B40EA01200149888210BD00001D
:1015D0001C2F0120342F0120082F01200246094B27
:1015E0009A4201D2084801E00648103801F0005341
:1015F0001BB1064B0B40C36002E0044B0B40836001
:101600007047000010640240006002407D0F7D0FB3
:1016100021B1026842F00102026003E0026822F098
:10162000010202607047014600200A6802F00102D0
:101630000AB1012000E000207047000010B5002230
:101640000268134B1A40CC680B6823434C69234350
:101650008C692343CC6923430C6A23434C6A23439C
:101660008C6A23434C6B23438C6B23431A430260E5
:10167000426922F00702D1E90B3423431A43426145
:101680000B6943604B6883608B68C36010BD0000CA
:101690003F801CF04160704710B502A0FEF75AFE73
:1016A00010BD000044656275674D6F6E5F48616EE6
:1016B000646C65720000000070B504466FF00400B1
:1016C00000F0BAFCE11704EB5171C1F3C7010D4AF8
:1016D0001170E11704EB5171CD104FF47A7045434E
:1016E0000120094908804FF0E020006940F0020025
:1016F0004FF0E021086108464561006940F00100B3
:10170000086170BD900000209200002010B50220FA
:1017100000F01CF850B1022000F00CF8022000F09C
:101720000FF801200249087000F086FA10BD000091
:10173000AC0000200149086070470000143C0140E3
:101740000149086070470000143C01400146002038
:10175000034A12680A400AB1012000E000207047E5
:10176000143C0140F0B50A4600210023002400BFCC
:101770003DE0012505FA01F3156805EA03049C42E2
:1017800034D105684F000326BE40B5430560157986
:101790004E00B5400668354305601579012D02D02D
:1017A0001579022D16D185684F000326BE40B5433A
:1017B000856055794E00B54086683543856045683B
:1017C00001268E40B5434560456896798E40B6B295
:1017D00035434560C5684F000326BE40B543C5602C
:1017E000D5794E00B540C6683543C560491C1029FF
:1017F000BFD3F0BDF0B5002300244D07ED0E02FA73
:1018000005F3CE1000F1200555F826504E07F70ECF
:101810000F26BE40B543CF1000F1200646F82750F2
:10182000CE1000F1200555F8265045EA0304CE10ED
:1018300000F1200545F82640F0BD0183704742695C
:101840004A4042617047000010B502A0FEF782FDD9
:1018500010BD0000486172644661756C745F486138
:101860006E646C657200000010B5044600200F49DC
:10187000086000F0CDF8012000F01CF824B1012030
:101880000A490831086003E000200849083108606F
:10189000012000F00FF801200449086000F00AF868
:1018A00000200349C1F89C0210BD00009C82424206
:1018B0000080424210B5002106E0642200BF131EE2
:1018C000A2F10102FBD1491C8142F6D310BD0000F8
:1018D00070B5002400F086F80120FFF7EBFF00252B
:1018E00016E000200E4908600220FFF7E3FF012008
:1018F0000C49C1F89C026006040E0948783800685B
:1019000008B1601CC4B20220FFF7D4FF681CC5B246
:10191000082DE6DB002002490860204670BD00006B
:101920009C824242008042422DE9F04107460E4629
:101930001446984600F084F8FF2805D120A0FEF751
:1019400009FDFF20BDE8F081384600F0F9F800F00D
:10195000CDF8FF2800D1F5E7304600F0F1F800F0AF
:10196000C5F8FF2804D119A0FEF7F4FCFF20E9E731
:1019700000F066F8791CC8B200F0E2F800F0B6F8A2
:10198000FF2804D114A0FEF7E5FCFF20DAE70025CC
:1019900008E0FFF79DFF20700020FFF765FF641C43
:1019A000681CC5B2A8F10100A842F2DCFFF790FF65
:1019B00020700120FFF758FF00F07EF80020C1E7FB
:1019C0006572726F7220370D0A0000006572726FC7
:1019D0007220390D0A0000006572726F7220324861
:1019E0000D0A00001CB54FF40070009000208DF827
:1019F00004008DF8060001208DF8070003208DF803
:101A0000050069460148FFF7ADFE1CBD0014024009
:101A10001CB54FF40070009001208DF804000020E8
:101A20008DF8060001208DF8070003208DF80500D1
:101A300069460248FFF796FE1CBD000000140240F4
:101A400010B5FFF7E5FF0120134908601348D0F8EF
:101A5000240220B912A0FEF77DFCFF2010BD01205A
:101A60000D4908390860FFF725FF00200B49C1F830
:101A7000A40209488038006820B10CA0FEF76AFC77
:101A8000FF20EBE70120FFF715FF0020024908398E
:101A9000086000BFE2E70000A482424200804242A8
:101AA0006572726F722031210D0A00006572726FCB
:101AB000722032210D0A000010B5FFF7A9FF0020A7
:101AC000084908600849C1F8A4020120FFF7F2FEA6
:101AD000012004490860FFF7EDFE01200249C1F82A
:101AE000A40210BD9C8242420080424210B50024F4
:101AF000FFF778FF012010490860FFF7DBFE0120A7
:101B00000E49C1F89C02FFF7D5FE0AE0601C84B2C2
:101B1000322C03DDFFF7D0FFFF2010BD0520FFF7BB
:101B2000C9FE0548803800680028EFD1024908390D
:101B3000086000BFF1E70000A482424200804242F8
:101B400070B50446FFF764FF0020134908600025C4
:101B50001EE004F0800020B101200F490831086028
:101B600003E000200C49083108606006040E0120E3
:101B7000FFF7A0FE012008490860FFF79BFE002048
:101B80000649C1F89C020120FFF794FE681CC5B20B
:101B9000082DDEDB70BD00009C8242420080424284
:101BA0001CB50121302000F013F94FF400600090C3
:101BB00001208DF8040000208DF8060003208DF828
:101BC000050001208DF8070069461048FFF7CAFD9F
:101BD0004FF48040009001208DF8040000208DF823
:101BE000060003208DF8050001208DF807006946E6
:101BF0000748FFF7B7FD4FF400610448FFF71DFEEB
:101C00004FF480410248FFF718FE1CBD001002404F
:101C1000001402402DE9F04104460D4616461F46C9
:101C20003B46324629462046FFF77EFEFF2801D17B
:101C3000BDE8F0810020FBE710B5314800780028AE
:101C40005CD000202E4908700E232E4A3B21D02064
:101C5000FFF7E0FF2B4840782A49097840EA012045
:101C600000B2294908802748C0782649897840EA87
:101C7000012000B22449488022484079214909794D
:101C800040EA012000B2204988801E48C0791D49E1
:101C9000897940EA012000B21B49C8801948407A7E
:101CA0001849097A40EA012000B21749088108461C
:101CB0000089C989084400B2134908811148C07AD3
:101CC0001049897A40EA012000B20F49488108464C
:101CD0004089098A084400B20B4948810948407B81
:101CE0000849097B40EA012000B20749888108467B
:101CF0008089498A084400B20349888110BD0000E8
:101D0000AC000020602F01204C2F012010B502A054
:101D1000FEF720FB10BD00004D656D4D616E6167E3
:101D2000655F48616E646C657200000010B502A0CA
:101D3000FEF710FB10BD00004E4D495F48616E6418
:101D40006C65720070B5002100230F22C4781CB3AB
:101D5000174C246804F4E064C4F5E064C4F307217C
:101D6000C1F10404E3B20A4144789C40E1B28478B2
:101D7000144021430C07210E0E4C05786155047860
:101D800004F01F050124AC4005786D11AD0005F18C
:101D9000E025C5F8004109E0047804F01F0501249E
:101DA000AC40054D0678761145F8264070BD000020
:101DB0000CED00E000E400E080E100E002490143B6
:101DC000024A1160704700000000FA050CED00E0C7
:101DD00029B1064A12680243044B1A6004E0034A20
:101DE00012688243014B1A6070470000303802408D
:101DF00029B1064A12680243044B1A6004E0034A00
:101E000012688243014B1A6070470000403802405C
:101E100029B1064A12680243044B1A6004E0034ADF
:101E200012688243014B1A60704700004438024038
:101E3000F0B5002100220024022500260223324FA3
:101E40003F6807F00C0121B1042905D0082937D1DA
:101E500005E02E4F076036E02D4F076033E02A4F34
:101E60003F1F3F68C7F38056274F3F1F3F6807F06B
:101E70003F036EB1264FB7FBF3F7DFF88CC0ACF130
:101E8000040CDCF800C0CCF3881C07FB0CF40CE05D
:101E90001E4FB7FBF3F7DFF870C0ACF1040CDCF8B1
:101EA00000C0CCF3881C07FB0CF4174F3F1F3F68A2
:101EB000C7F301477F1C7D00B4FBF5F7076002E024
:101EC000124F076000BF00BF0F4F3F6807F0F001DF
:101ED0000909104F7A5C0768D74047600A4F3F688E
:101EE00007F4E051890A0B4F7A5C4768D740876056
:101EF000054F3F6807F46041490B064F7A5C47681D
:101F0000D740C760F0BD0000083802400024F4004C
:101F1000001BB700040000200CB5002001900090C9
:101F20004148006840F480303F49086000BF3E48A7
:101F3000006800F4003000900198401C0190009867
:101F400018B90198B0F5A04FF1D13748006800F4F6
:101F5000003010B10120009001E0002000900098B6
:101F6000012860D130484030006840F080502E4950
:101F7000403108602D48006840F440402B4908601B
:101F80002948083000682849083108600846006878
:101F900040F4004008600846006840F4A050086023
:101FA0002348091F0860081F006840F08070091F5F
:101FB000086000BF1C48006800F000700028F9D0DD
:101FC0001A48006840F480301849086000BF17487C
:101FD000406800F480300028F9D01448006840F4CC
:101FE00000301249086000BF1048406800F400301B
:101FF0000028F9D040F205700E4908600A48083000
:10200000006820F0030008490831086008460068AD
:1020100040F00200086000BF03480830006800F08C
:102020000C000828F8D10CBD0038024000700040B8
:102030000C5A4007003C0240042808D14FF0E02130
:10204000096941F004014FF0E022116107E04FF00F
:10205000E021096921F004014FF0E022116170478D
:1020600010B502F03BF9012801D001F0FDFD10BDD3
:1020700010B51548006840F4700013490860134813
:10208000006840F001001149086000200F49083144
:1020900008600E4800680E4908400C4908600D4869
:1020A000091D0860081F006820F48020091F0860CF
:1020B000002006490C310860FFF72EFF4FF000604A
:1020C00001498039086010BD88ED00E00038024009
:1020D000FFFFF6FE1030002410B50121880700F044
:1020E0002FF860B106480068401C054908600121CE
:1020F000880700F016F80121880700F00FF810BDDE
:102100000000002021B1028842F08002028004E039
:1021100002884FF67F731A4002807047CA430282DA
:102120007047CA430282704721B1028842F001021F
:10213000028004E002884FF6FE731A400280704766
:1021400030B50246002000230024158A05EA010369
:10215000958905EA010413B10CB1012000E00020CB
:1021600030BD1AB183890B43838102E083898B439D
:102170008381704770B5002400220023058C4FF640
:10218000FE7635400584028C8388048B4FF68F756C
:102190002C40B51E2C400D882C43751E2A408D897D
:1021A0002A434D882A43104DA84202D00F4DA84221
:1021B00013D14FF6F7752A40CD892A434FF6FB75A8
:1021C0002A408D882A434FF6FF652B404FF6FF5576
:1021D0002B400D8A2B434D8A2B43838004838D68CB
:1021E0004563028470BD000000000140000401400E
:1021F0000A460021018B4FF6F77319401143018302
:102200007047000000220288184B98420ED0184BED
:1022100098420BD0B0F1804F08D0164B984205D0B1
:10222000154B984202D0154B984204D14FF68F734C
:102230001A404B881A43124B984207D0114B9842D0
:1022400004D04FF6FF431A400B891A4302804B68B3
:10225000C3620B880385054B984202D0044B984219
:1022600001D18B7A038601238382704700000140ED
:10227000000401400004004000080040000C004041
:10228000001000400014004008B502F037F800903C
:1022900008E04FF480410448FFF7D1FAFA2168467C
:1022A00001F0F2F9F5E70000001402401CB502F05D
:1022B00025F8019000BF0DE04FF4C87043421A4664
:1022C000014600900448FFF79BF8C82101A801F0DF
:1022D000DBF900BFF0E700000064004008B50FE044
:1022E00000235A1E69460748006801F003FD20B12B
:1022F00005A00099FEF72EF802E009A0FEF72AF8E3
:10230000EEE70000C40000205265636569766564ED
:10231000206D6573736167653A2025640D0A0000BE
:102320004661696C6564000008B510E00848407AB1
:10233000022809D1002003460246014600900548C4
:10234000FFF75EF801F084FB642001F06FF9EDE720
:102350001C2F0120006400401CB5044601F04CF81D
:10236000FEF7E6FAFEF72CFAFEF790FCFEF7ACFA61
:10237000FEF708FCFEF7A6FB002204210A2001F06C
:102380008DFC1A4908601A48072100234FF4FA729D
:10239000CDE9001017A11B4801F070FF1A48062173
:1023A00000234FF4C872CDE9001018A11A4801F0BB
:1023B00065FF1A48032100234FF4C872CDE90010CD
:1023C00017A11B4801F05AFF1A48032100234FF4BC
:1023D000C872CDE9001018A11A4801F04FFF002083
:1023E00001F0BCF901F032F81CBD0000C40000206F
:1023F000C00000205461736B5F536166655F4D6F71
:102400006465000029230008B00000205461736B4C
:102410005F44427573000000DD220008BC0000200C
:102420005461736B5F4368617373697300000000EC
:10243000AD220008B80000205461736B5F426C69E4
:102440006E6B00008922000810B588B00446012197
:102450004020FFF7BDFC01212020FFF7D9FC082216
:1024600009212348FFF7C6F908220E212048FFF76B
:10247000C1F94FF48440069002208DF81C008DF8BD
:102480001D0000208DF81E0001208DF81F0006A9F8
:102490001748FFF767F902940020ADF80C00ADF87B
:1024A0000E00ADF81000ADF814000C20ADF81200CD
:1024B00002A9104800F0D2F801210E4800F094F86B
:1024C000012240F225510B4800F0A3F847208DF877
:1024D000040007208DF8050000208DF8060001207B
:1024E0008DF8070001A8FFF72DFC08B010BD000013
:1024F000001802400014014010B512488088C4B290
:1025000010480088C4B200210F48FFF781F80E4838
:10251000001D0068012801D1FEF7D6FF0B490A48CB
:10252000FFF75CF800BF0848FFF77DF80028FAD1F4
:1025300013210548FFF7AEF801210348FFF768F8BB
:1025400010BD000000100140406402400000301047
:102550007CB5154800F0ECF8C5B214A0FDF7FAFE02
:10256000732D1FD112A0FDF7F5FE40F276300190D9
:1025700000236A4601A91248006801F0BDFD044627
:10258000012C0CD10FA0FDF7E5FE009850B12007FB
:1025900010490860BFF34F8FBFF36F8F02E00EA0AA
:1025A000FDF7D8FE7CBD0000001401403E3E3E0019
:1025B00073656E64206D6573736167650D0A000055
:1025C000C40000204D6573736167652073656E7488
:1025D000210D0A0004ED00E05175657565206675F2
:1025E0006C6C210D0A00000021B1828942F4005276
:1025F000828104E082894DF6FF731A408281704720
:102600001AB1838A0B43838202E0838A8B438382DD
:102610007047F0B50346002400260025002040F650
:102620006A17B94200D100BF1846C1F3421401F045
:102630001F06012707FA06F5012C01D10C3004E032
:10264000022C01D1103000E014301AB107682F437A
:10265000076002E00768AF430760F0BD2DE9FF4760
:1026600005460E460024A14600BFA046B08900B131
:1026700000BF2C8A24F44054F08804432C82AC8997
:1026800041F20C608443B088318908437189084362
:102690000443AC81AC8A24F44074B0890443AC8216
:1026A0006846FFF7C5FB2048854202D01F48854297
:1026B00002D1DDF80C9001E0DDF80890A88900F463
:1026C000004040B109EBC90000EB09103168490036
:1026D000B0FBF1F707E009EBC90000EB0910316826
:1026E0008900B0FBF1F76420B7FBF0F0040120098A
:1026F000642101FB1078A88900F4004040B1322029
:1027000000EBC800B0FBF1F000F00700044308E064
:10271000322000EB08106421B0FBF1F000F00F0054
:1027200004432C81BDE8FF870010014000140140E4
:1027300001468888C0F308007047000010B502A069
:10274000FDF708FE10BD00005573616765466175B1
:102750006C745F48616E646C6572000070B504460D
:1027600001F0BCFD012811D00C480088844206DB32
:102770000A48008894FBF0F5284600F057FF074808
:10278000008894FBF0F100FB114084B24FF47A71A1
:1027900004FB01F000F004F870BD0000920000207E
:1027A00070B5034600224FF0E02675690D4E36786D
:1027B00003FB06F44FF0E026B16910E04FF0E0268D
:1027C000B06988420BD0884202D20E1A324402E02D
:1027D0002E1A0E4432440146A24200D300E0EDE737
:1027E00000BF70BD9000002000BF054A128802F0B3
:1027F0004002002AF9D0C2B2014B1B1D1A8070475B
:10280000001401401CB54FF44070FFF7D7FAB42014
:10281000FEF752FF4FF41650FFF716FEFFF7C0F910
:10282000FEF75AFA0020012103464FF4C872CDE9A1
:10283000001004A1074801F021FD01F0BBF800BF22
:10284000FEE700005461736B5F5379735F496E69F3
:1028500074000000592300082DE9F04105460E469A
:102860001C4807681C480068001D00F07BFD50B93B
:102870001948006890F82C10012088401749096811
:10288000814316480160681C38B936B112480168A6
:10289000091D134800F0A4FD1AE07C190E480068D9
:1028A0004460BC4207D20C480168091D0D4800680D
:1028B00000F07CFD0CE008480168091D0A4800682A
:1028C00000F074FD09480068844201D207480460A2
:1028D000BDE8F08128000020140000202C0000201A
:1028E000E40100201C00002018000020440000200B
:1028F00010B5044600F080FD24480068401C2349C0
:1029000008602348006840B9214804600846006810
:1029100001280DD100F0DEF90AE01E48006838B940
:102920001B480068C06AE16A884201D81848046000
:1029300019480068401C184908600846006860642F
:1029400094F82C1001208840144909680843134961
:102950000860E16A01EB8101114A02EB8100211D4F
:1029600000F03EFD00F072FD0A48006868B10848BA
:102970000068C06AE16A884207D24FF08050094976
:102980000860BFF34F8FBFF36F8F10BD240000208E
:102990001400002030000020400000202C00002007
:1029A0000801002004ED00E010B500F025FD1048FE
:1029B0000068D0B90F4800F0E9FC0F4800F0E6FCD1
:1029C0000C480E4908600C480D49086000220C2193
:1029D0000A2001F063F9064908600846006820B142
:1029E00008A10348006800F0E5FD00F02FFD10BDD0
:1029F00060000020F80100200C0200205800002098
:102A00005C000020546D72510000000070B523E09E
:102A100001F01EF81348006808B9012000E000200A
:102A2000054601F0C5FDBDB900F0E6FC0D48C068E3
:102A3000C468201D00F096FC0B480068401E0A493F
:102A400008600A480068401E0849086000F0FEFC63
:102A5000204600F060F800BF044800680028D7D185
:102A600070BD0000D00100202400002020000020C4
:102A700070B504460D46206C70B1216CE0680844C6
:102A8000E0606168E068884201D32068E060284621
:102A9000226CE168FDF706FD70BD2DE9F0410446AA
:102AA0000F4615464FF00008A66B206C40B9206811
:102AB00060BB606801F0CCFC80460020606025E0CF
:102AC0007DB93946226CA068FDF7ECFC216CA0684A
:102AD0000844A060D4E90110884217D32068A060A0
:102AE00014E03946226CE068FDF7DCFC216CE068FC
:102AF000401AE0602168E068884203D2216C606877
:102B0000401AE060022D01D106B1761E701CA06350
:102B10004046BDE8F08110B50446206B00F0B4FCDF
:102B2000204600F0B1FC10BD0146084A1268126848
:102B30000AB9012200E000220A600A6822B9034AA9
:102B40001268D268106800E000207047580000202A
:102B500030B54FF49633174800F007042CB1C01D70
:102B600020F00700134C041B1B1B0246124C226072
:102B70000024114D6C60D018083820F007000F4C6D
:102B8000206000240D4D2D686C600C4D2D682C606C
:102B90001146441A4C60094C24680C60084D4C687E
:102BA0002C60084D4C682C604FF00044064D2C60A2
:102BB00030BD0000200200206C00002074000020C6
:102BC0007C000020780000208000002000BFFFF77C
:102BD0001DFF064800680128F9D94FF080500449CC
:102BE0000860BFF34F8FBFF36F8FF0E7080100203D
:102BF00004ED00E02DE9F04106460D4617469846E3
:102C0000069C0DB9246000E02760E663256401217D
:102C1000204601F051F984F84C80BDE8F0812DE99F
:102C2000F05F82460F4690469B460A9E0C9C4FEAF8
:102C30008801A522206BFDF77AFCA8F10100216B29
:102C400001EB800929F0070909F0070008B9012004
:102C500000E0002050B900BF502080F31188BFF37E
:102C60004F8FBFF36F8F00BF00BFFEE7002507E067
:102C7000795D04F134004155785D00B902E06D1CC6
:102C8000102DF5D300BF002143200155072E00D39E
:102C90000626E662E66400202065201D00F083FB26
:102CA00004F1180000F07FFB2461C6F10700A06169
:102CB000646200206065A06584F85C005A46514655
:102CC000484600F039FB20600B9808B10B9804606F
:102CD000BDE8F09F10B5002407E004EB84010F4A23
:102CE00002EB810000F052FB641C072CF5D30C486A
:102CF00000F04CFB0B4800F049FB0B4800F046FB92
:102D00000A4800F043FB0A4800F040FB0448094928
:102D1000086004480849086010BD00000801002050
:102D200094010020A8010020BC010020D001002057
:102D3000E4010020180000201C00002010B501460E
:102D4000164800E0006803688B42FBD302464368E4
:102D500013448B4204D143684C68234443600146CA
:102D60000A464B6813440468A34211D10C4C036813
:102D70002468A34208D04B680468646823444B600D
:102D800003681B680B6005E0054B1B680B6001E0E6
:102D900003680B60884200D0016010BD6C00002009
:102DA000740000202DE9F04104460D4616461F46EA
:102DB0004FF0000865602461B5420CD8F01BA16992
:102DC000884202D34FF0010811E0211D0948006834
:102DD00000F0ECFA0BE0BE4204D2BD4202D34FF049
:102DE000010804E0211D0448006800F0DFFA4046B5
:102DF000BDE8F0815C0000205800002070B5054659
:102E000000F0FAFAA86B08B9012400E0002400F0F1
:102E10001DFB204670BD70B5054600F0EDFAA86BAD
:102E2000E96B884201D1012400E0002400F00EFB90
:102E3000204670BDF8B505460F4616480068C068C4
:102E4000C468201D00F08EFAE06901281DD1A06938
:102E500041192B463A462046FFF7A4FFA8B10020AF
:102E600003462A4601460090204601F04FFC0646E4
:102E700056B900BF502080F31188BFF34F8FBFF3C6
:102E80006F8F00BF00BFFEE700BF2046616A884722
:102E9000F8BD00005800002070B586B06AE00398C5
:102EA000002867DB059C606908B9012000E000206C
:102EB00010B9201D00F056FA02A800F0BDF8054632
:102EC00003980A2854D2DFE800F009050731334F90
:102ED0000608323400BF00BF00BF00BF0498A269DB
:102EE000811803462A462046FFF75CFFE8B12046DA
:102EF000616A8847E069012817D100200090049892
:102F0000A169421800231946204601F0FFFB06463E
:102F100056B900BF502080F31188BFF34F8FBFF325
:102F20006F8F00BF00BFFEE700BF22E000BF20E0C0
:102F300000BF0498A061A06908B1012000E0002052
:102F400050B900BF502080F31188BFF34F8FBFF3FB
:102F50006F8F00BF00BFFEE7A06941192B462A46CC
:102F60002046FFF71FFF04E0204600F08DFA00E046
:102F700000BF00BF00231A4603A90448006800F000
:102F8000B9FE00288BD106B070BD000060000020A3
:102F9000F8B505460C4600F05BFD684600F04CF8BD
:102FA0000646009820BB44B9B54206D801F000FBA4
:102FB00031462846FFF73EFF1CE03CB10E48006852
:102FC000006808B9012000E000200446A91B224641
:102FD0000A48006800F004FB01F0EAFA50B94FF02B
:102FE000805007490860BFF34F8FBFF36F8F01E038
:102FF00001F0DEFAF8BD00005C0000206000002057
:1030000004ED00E00A490968096809B9012100E0F6
:10301000002121B14FF0FF31064A116006E004495A
:103020000968C968C868034A4168116070470000B0
:10303000180000204400002070B5044601F05EF93D
:10304000054607480068854204D200F00BF80120CD
:10305000206001E00020206001480560284670BD26
:10306000680000202DE9F84332E024480068C06879
:10307000056822480068C068C468201D00F072F925
:103080002046616A8847E069012821D1A069461974
:10309000AE4207D966602461211D1848006800F01F
:1030A00085F915E0002003462A4601460090204697
:1030B00001F02CFB074657B900BF502080F3118860
:1030C000BFF34F8FBFF36F8F00BF00BFFEE700BF9E
:1030D0000A480068006808B9012000E000200028C4
:1030E000C3D00648D0F8008005480068034908604E
:1030F0000348C0F80080BDE8F883000058000020B5
:103100005C0000200E480068401C08B9012000E067
:10311000002050B900BF502080F31188BFF34F8FBB
:10312000BFF36F8F00BF00BFFEE700BF502080F3EA
:103130001188BFF34F8FBFF36F8F00BF00BFFEE753
:103140008400002008B500BF6846FFF7EDFC044688
:1031500020460099FFF71CFFFFF79EFEF4E770B5CD
:10316000044600F049F994F9455010E0606A08B946
:10317000012000E0002038B904F1240001F0CCF96E
:1031800018B100F065FB00E003E0681E45B2002DB9
:10319000ECDC00BFFF2084F8450000F057F900F098
:1031A0002BF994F9445010E0206908B9012000E09F
:1031B000002048B904F1100001F0AEF908B100F0A8
:1031C00047FB681E45B200E001E0002DECDC00BFCB
:1031D000FF2084F8440000F039F970BD2DE9F0417A
:1031E00004464FF0000800F033FC4648006808B978
:1031F000FFF7AEFC44480068204000286BD1D4B1F2
:10320000083404F00700B0B104F00700C0F1080072
:10321000044404F0070008B9012000E0002050B980
:1032200000BF502080F31188BFF34F8FBFF36F8F23
:1032300000BF00BFFEE7002C4DD034480068844238
:1032400049D8334E3046056801E02E462D6868683F
:10325000A04202D228680028F7D12A480068854297
:1032600039D0306800F10808286830606868001BB1
:10327000102819D92F1907F0070008B9012000E01C
:10328000002050B900BF502080F31188BFF34F8F4A
:10329000BFF36F8F00BF00BFFEE76868001B786058
:1032A0006C603846FFF74AFD184968680968081AD3
:1032B000164908600846006816490968884203D222
:1032C00012480068134908600F4968680968084394
:1032D00068600020286001F06BF908F0070008B969
:1032E000012000E0002050B900BF502080F3118879
:1032F000BFF34F8FBFF36F8F00BF00BFFEE74046A5
:10330000BDE8F081740000208000002078000020DB
:103310006C0000207C0000200648006830B10549A0
:10332000096801F15000096D491C016001480068FD
:103330007047000014000020001F4FF080730360EE
:10334000001F21F001030360001F054B03601438C8
:103350000260001F6FF00203036020387047000016
:103360000531000801460A69D1E901309860D1E9C8
:10337000010358605068884201D18868506000207D
:1033800008611068401E10601068704700F1080165
:1033900041604FF0FF31816000F10801C1600161BF
:1033A00000210160704700210161704710B502469D
:1033B0000B685C1C0CB9106907E002F1080000E022
:1033C0004068446824689C42FAD944684C604C6860
:1033D000A160886041600A611468641C146010BDBB
:1033E00042684A6093688B60936859609160086195
:1033F00003685B1C0360704700BF502080F3118896
:10340000BFF34F8FBFF36F8F00BF0E480068401CA3
:103410000C49086008460068012812D10A48006873
:10342000C0B208B9012000E0002050B900BF502010
:1034300080F31188BFF34F8FBFF36F8F00BF00BFC2
:10344000FEE770478400002004ED00E00D480068AE
:1034500050B900BF502080F31188BFF34F8FBFF3E6
:103460006F8F00BF00BFFEE706480068401E054999
:1034700008600846006820B9002080F3118800BF6A
:1034800000BF70478400002070B506463546002E08
:103490003FD0083D2C461F4960680968084008B1C4
:1034A000012000E0002050B900BF502080F31188B7
:1034B000BFF34F8FBFF36F8F00BF00BFFEE72068E1
:1034C00008B9012000E0002050B900BF502080F36F
:1034D0001188BFF34F8FBFF36F8F00BF00BFFEE7B0
:1034E0000C4960680968084098B1206888B90949A2
:1034F000606809688843606000F0AAFA064960685D
:1035000009680844044908602046FFF717FC01F0E9
:103510004FF870BD80000020780000200648006849
:103520004FF47A71B0FBF1F0401E4FF0E02148619A
:1035300007200861704700009800002070B5FCF774
:10354000E5FE0446102C16D304F1E02090F8F05369
:1035500015480078854201DB012000E0002050B9C9
:1035600000BF502080F31188BFF34F8FBFF36F8FE0
:1035700000BF00BFFEE70D48006800F4E0600C49A2
:103580000968884201D8012000E0002050B900BF3E
:10359000502080F31188BFF34F8FBFF36F8F00BFB0
:1035A00000BFFEE770BD0000880000200CED00E0C9
:1035B0008C000020024600200BE0084B53F830300E
:1035C00033B9064B43F8301003EBC0035A6002E0F6
:1035D000401C0828F1D300BF70470000C80000203D
:1035E0002DE9F04105460E4617462C46FFF704FF2D
:1035F00094F94400401C10B9002084F8440094F968
:103600004500401C10B9002084F84500FFF71EFF5C
:10361000A06B28B93A46314604F1240000F03AF98B
:103620002046FFF79CFDBDE8F081000070B5044620
:103630000025D4B11248006808B9012000E000203C
:1036400050B900BF502080F31188BFF34F8FBFF3F4
:103650006F8F00BF00BFFEE700F0FAF9002120469F
:10366000FFF7FAF800F0A4FF05463DB94FF080508F
:1036700004490860BFF34F8FBFF36F8F70BD000028
:103680004C00002004ED00E02DE9F04704460F4611
:103690004FF0000954B900BF502080F31188BFF3E8
:1036A0004F8FBFF36F8F00BF00BFFEE70FB1012048
:1036B00000E0002050B900BF502080F31188BFF314
:1036C0004F8FBFF36F8F00BF00BFFEE72048006839
:1036D00008B9012000E0002050B900BF502080F35D
:1036E0001188BFF34F8FBFF36F8F00BF00BFFEE79E
:1036F00000F0AEF9174806682068C5192068B04286
:1037000007D92068A8420BD9B54209D94FF0010961
:1037100006E02068A84201D8B54201D94FF001095E
:103720002560B9F1000F03D0A81B0021FFF794F822
:1037300000F03EFF8046B8F1000F07D14FF08050F7
:1037400005490860BFF34F8FBFF36F8FBDE8F08767
:103750004C0000202800002004ED00E070B5054674
:10376000FFF74AFE15B93048006800E028460446D5
:10377000201DFFF7F7FD78B9E06A00EB80002B49C8
:1037800051F8200040B994F82C10012088402849B5
:103790000968814326480160A06A18B104F1180045
:1037A000FFF7E0FD23480068401C224908601E48DE
:1037B0000068844209D1211D1F48FFF711FE1F48F0
:1037C0000068401C1D49086009E01D480068401E53
:1037D0001B4908602046FFF79EF9FFF713FCFFF72F
:1037E00035FE18480068E8B10F480068844219D1D6
:1037F0001548006808B9012000E0002050B900BF5A
:10380000502080F31188BFF34F8FBFF36F8F00BF3D
:1038100000BFFEE74FF080500C490860BFF34F8FA8
:10382000BFF36F8F70BD000014000020080100205E
:103830002C00002040000020D001002020000020AB
:1038400024000020300000204C00002004ED00E0A7
:1038500001200149086070473800002070B5044617
:103860000D4654B900BF502080F31188BFF34F8F2D
:10387000BFF36F8F00BF00BFFEE705480168183136
:103880002046FFF793FD01212846FEF7E5FF70BDB6
:103890001400002070B505460E46144655B900BF09
:1038A000502080F31188BFF34F8FBFF36F8F00BF9D
:1038B00000BFFEE70648016818312846FFF790FD73
:1038C0000CB14FF0FF3621463046FEF7C5FF70BD04
:1038D0001400002070B505462C46002D4BD026491B
:1038E000E06A0968C96A884245D2A06900F00040D0
:1038F00028B921480068C06AC0F10700A061E16AE8
:1039000001EB81011D4A02EB81016069884201D10E
:10391000012000E0002050B3201DFFF723FD78B9FF
:10392000E06A00EB8000154951F8200040B994F896
:103930002C10012088401249096881431048016019
:103940000D480068C06AE06294F82C10012088409D
:103950000B49096808430A490860E16A01EB8101E3
:10396000064A02EB8100211DFFF73AFD03E0024801
:103970000068C06AE06270BD1400002008010020E9
:103980002C00002050B900BF502181F31188BFF3F3
:103990004F8FBFF36F8F00BF00BFFEE70349096879
:1039A0000160034909684160704700003C00002045
:1039B000280000201CB51E4800210B468222CDE9BC
:1039C00000101CA11D4800F059FC0446012C02D136
:1039D00000F070FE0446012C17D100BF502080F388
:1039E0001188BFF34F8FBFF36F8F00BF4FF0FF30D1
:1039F000134908600120134908600020124908603B
:103A00001249086000F092F810E0601C08B1012033
:103A100000E0002050B900BF502080F31188BFF3B0
:103A20004F8FBFF36F8F00BF00BFFEE71CBD0000CC
:103A30004800002049444C4500000000CD2B000800
:103A4000440000203000002028000020000000205A
:103A500002480068401C0149086070474C00002083
:103A60002A48006818B10120294908604CE000206C
:103A70002749086027480068274908600846006809
:103A80002649096888420BD92549096801F1540083
:103A9000496D214A1268214B1B68D21A11440160FA
:103AA0001D4800681D4908601E480068B0FA80F093
:103AB000C0F11F0101EB81001B4A52F8200008B140
:103AC000012000E0002050B900BF502080F3118891
:103AD000BFF34F8FBFF36F8F00BF00BFFEE701EB57
:103AE0008102114B03EB820042685268426000F190
:103AF00008024368934202D14268526842604268B9
:103B0000D268074B1A6000BF704700004C000020CD
:103B10003800002000000020540000205000002049
:103B2000140000202C000020080100201CB547488C
:103B300000684749884201D0012000E0002050B9C8
:103B400000BF502080F31188BFF34F8FBFF36F8FFA
:103B500000BF00BFFEE73D4800683D49491E88425E
:103B600001D0012000E0002050B900BF502080F3B8
:103B70001188BFF34F8FBFF36F8F00BF00BFFEE709
:103B80003449084600780190FF200A461070084624
:103B9000007800909DF8000000F0F0009DF80020F3
:103BA000904201D1012000E0002050B900BF502018
:103BB00080F31188BFF34F8FBFF36F8F00BF00BF3B
:103BC000FEE79DF8000000F05000234A1070072027
:103BD000224A106009E021480068401E1F4A106018
:103BE0009DF800004006000E00909DF8000000F0D7
:103BF00080008028EFD0194800680002174A106042
:103C00001046008800F4E0601060124A01981070BD
:103C10000E482030006840F470000C4920310860E4
:103C20000846006840F070400860FFF777FC00200D
:103C30000B490860FCF732FB0A48006840F040403E
:103C400008490860FCF71AFB00201CBD00ED00E0ED
:103C500071C20F4100E400E0880000208C000020C9
:103C60008400002034EF00E010B500BF502080F346
:103C70001188BFF34F8FBFF36F8F00BF00F044FB7D
:103C800018B14FF080500449086000BF002080F355
:103C9000118800BF10BD000004ED00E02DE9F843DD
:103CA00005460E4690460DB1012000E0002050B9B7
:103CB00000BF502080F31188BFF34F8FBFF36F8F89
:103CC00000BF00BFFEE70EB9002701E005FB06F7C5
:103CD00007F15000FFF782FA044644B104F150099D
:103CE00043464A46314628460094FEF783FF204665
:103CF000BDE8F8832DE9FF4782B005460E461F4612
:103D00004FF0000A2C4654B900BF502080F31188B0
:103D1000BFF34F8FBFF36F8F00BF00BFFEE70EB939
:103D2000206C08B9012000E0002050B900BF5020ED
:103D300080F31188BFF34F8FBFF36F8F00BF00BFB9
:103D4000FEE700F0CBFA08B9049808B9012000E0BA
:103D5000002050B900BF502080F31188BFF34F8F6F
:103D6000BFF36F8F00BF00BFFEE700BFFFF744FB4C
:103D7000D4F83890B9F1000F3DD0D4F80C8031461A
:103D80002046FEF775FEDFB9A9F10100A0632068A7
:103D900010B9FFF7C1FA6060206908B9012000E09E
:103DA000002010BB04F1100000F0B6FBE8B14FF0AA
:103DB000805040490860BFF34F8FBFF36F8F14E00E
:103DC000C4F80C80606A08B9012000E0002060B9E6
:103DD00004F1240000F0A0FB38B14FF080503549C9
:103DE0000860BFF34F8FBFF36F8FFFF72FFB0120EA
:103DF00006B0BDE8F087049818B9FFF727FB00204C
:103E0000F6E7BAF1000F04D16846FFF7BBFD4FF0AB
:103E1000010AFFF71BFBFFF71BFEFFF7EDFA94F912
:103E20004400401C10B9002084F8440094F9450077
:103E3000401C10B9002084F84500FFF707FB04A9D7
:103E4000684600F0D5F940BB2046FEF7D7FFF0B139
:103E5000206830B9FFF7D0FA6068FFF73BFDFFF745
:103E6000F5FA04F124000499FFF7F8FC2046FFF767
:103E700076F900F09DFB00287FF478AF4FF080507A
:103E80000C490860BFF34F8FBFF36F8F6EE720467A
:103E9000FFF765F900F08CFB68E72046FFF75FF954
:103EA00000F086FB2046FEF7A9FF0028EED0002098
:103EB0009EE7000004ED00E070B505460E462C4676
:103EC00054B900BF502080F31188BFF34F8FBFF368
:103ED0006F8F00BF00BFFEE7FFF78EFAD4E90F1225
:103EE000206801FB020060600020A0632068A060E1
:103EF000E06B401E226C216800FB0210E060FF2096
:103F000084F8440084F845009EB9206908B901206E
:103F100000E00020A8B904F1100000F0FDFA80B123
:103F20004FF0805009490860BFF34F8FBFF36F8F88
:103F300007E004F11000FFF729FA04F12400FFF76D
:103F400025FAFFF783FA012070BD000004ED00E0C0
:103F50002DE9FF4383B0064688461D464FF0000911
:103F6000344654B900BF502080F31188BFF34F8FFF
:103F7000BFF36F8F00BF00BFFEE7B8F1000F01D1A4
:103F8000206C08B9012000E0002050B900BF50208B
:103F900080F31188BFF34F8FBFF36F8F00BF00BF57
:103FA000FEE7022D02D1E06B012801D1012000E0E3
:103FB000002050B900BF502080F31188BFF34F8F0D
:103FC000BFF36F8F00BF00BFFEE700F087F908B9AD
:103FD000059808B9012000E0002050B900BF50202A
:103FE00080F31188BFF34F8FBFF36F8F00BF00BF07
:103FF000FEE700BFFFF700FAA06BE16B884201D338
:10400000022D28D12A4641462046FEF746FD0746A6
:10401000606A08B9012000E0002068B904F12400BA
:1040200000F07AFA88B14FF0805032490860BFF34F
:104030004F8FBFF36F8F08E03FB14FF080502D4995
:104040000860BFF34F8FBFF36F8FFFF7FFF90120B9
:1040500007B0BDE8F083059818B9FFF7F7F900201D
:10406000F6E7B9F1000F04D101A8FFF78BFC4FF080
:104070000109FFF7EBF9FFF7EBFCFFF7BDF994F946
:104080004400401C10B9002084F8440094F9450015
:10409000401C10B9002084F84500FFF7D7F905A9A6
:1040A00001A800F0A5F8F0B92046FEF7B4FEA0B1D3
:1040B00004F110000599FFF7D1FB2046FFF74FF8F8
:1040C00000F076FA002895D14FF080500949086039
:1040D000BFF34F8FBFF36F8F8CE72046FFF73FF89A
:1040E00000F066FA86E72046FFF739F800F060FA3C
:1040F0000020ADE704ED00E02DE9F05F07468A46B9
:1041000090461E463C4654B900BF502080F31188AB
:10411000BFF34F8FBFF36F8F00BF00BFFEE7BAF151
:10412000000F01D1206C08B9012000E0002050B937
:1041300000BF502080F31188BFF34F8FBFF36F8F04
:1041400000BF00BFFEE7022E02D1E06B012801D1C3
:10415000012000E0002050B900BF502080F31188FA
:10416000BFF34F8FBFF36F8F00BF00BFFEE7FFF7B6
:10417000E5F900BF5021EFF3118081F31188BFF3FF
:104180004F8FBFF36F8F00BF0546A06BE16B884276
:1041900001D3022E23D194F945B032465146204630
:1041A000FEF77BFC0BF1010088B9606A08B90120B9
:1041B00000E0002080B904F1240000F0ADF958B10E
:1041C000B8F1000F08D00120C8F8000004E00BF19E
:1041D000010040B284F845004FF0010901E04FF0C2
:1041E000000900BF85F3118800BF4846BDE8F09F75
:1041F00070B504460D4654B900BF502080F31188B5
:10420000BFF34F8FBFF36F8F00BF00BFFEE755B9FD
:1042100000BF502080F31188BFF34F8FBFF36F8F23
:1042200000BF00BFFEE7FFF7E7F812480368286801
:10423000401C08B9002619E00F4920680968884227
:1042400004D06068984201D801260FE06068181A0F
:104250002968884209D228686168591A401A28607A
:104260002046FFF78FFB002600E00126FFF7EEF85F
:10427000304670BD280000203C0000202DE9FF4F93
:1042800085B0804689461746DDE912ABB800FEF7D7
:10429000A5FF064656B16020FEF7A0FF04460CB10C
:1042A000266304E03046FFF7EFF800E000247CB11D
:1042B0000020CDE900ABCDE902403A4649464046F0
:1042C000089BFEF7ACFC2046FEF712FB012501E03F
:1042D0004FF0FF35284609B0BDE8F08F0549096861
:1042E00009B9012005E00449096809B9022000E084
:1042F00000207047300000204C0000200149086871
:1043000070470000280000202DE9F0414FF0000820
:1043100044480068002877D143480068451C42485B
:10432000056015BB41480068006808B9012000E03D
:10433000002050B900BF502080F31188BFF34F8F89
:10434000BFF36F8F00BF00BFFEE7384807683848EB
:104350000068364908603648076036480068401CE7
:1043600034490860FEF74EFE00BF334800688542BE
:104370003CD300BF2D480068006808B9012000E068
:10438000002020B14FF0FF302B4908602DE0274876
:104390000068C068C4686668B54202D226480660F4
:1043A00023E0201DFEF7DEFFA06A18B104F118001B
:1043B000FEF7D8FF94F82C10012088401F490968A7
:1043C00008431E490860E16A01EB81011C4A02EBC7
:1043D0008100211DFFF704F81A49E06A0968C96ADB
:1043E0008842C7D34FF00108C4E700BF15480068F2
:1043F000C06A00EB8000124951F82000012801D961
:104400004FF0010805E0FFE70F480068401C0E4927
:1044100008600E48006808B14FF001084046BDE84A
:10442000F08100004C00002028000020180000202F
:104430001C0000203C000020440000202C00002034
:104440000801002014000020340000203800002063
:1044500070B505462C460026002D55D02B48006827
:10446000844201D1012000E0002050B900BF50205B
:1044700080F31188BFF34F8FBFF36F8F00BF00BF72
:10448000FEE7206D50B900BF502080F31188BFF3C4
:104490004F8FBFF36F8F00BF00BFFEE7206D401E40
:1044A0002065E16CE06A88422ED0206D60BB201D43
:1044B000FEF758FF78B9E06A00EB8000144951F824
:1044C000200040B994F82C10012088401149096857
:1044D000814310480160E06CE062E06AC0F10700CF
:1044E000A06194F82C10012088400A49096808430B
:1044F00008490860E16A01EB8101054A02EB81008D
:10450000211DFEF76DFF0126304670BD140000200E
:10451000080100202C00002070B50646F068C46831
:1045200054B900BF502080F31188BFF34F8FBFF301
:104530006F8F00BF00BFFEE704F11800FEF712FF07
:1045400015480068A8B9201DFEF70CFF94F82C1040
:104550000120884011490968084310490860E16A50
:1045600001EB81010E4A02EB8100211DFEF738FFAD
:1045700004E004F118010B48FEF732FF0A49E06A33
:104580000968C96A884204D90125012007490860E1
:1045900000E00025284670BD4C0000202C000020C3
:1045A00008010020BC010020140000203800002079
:1045B00070B5002400263648006850B900BF50206E
:1045C00080F31188BFF34F8FBFF36F8F00BF00BF21
:1045D000FEE7FEF711FF2E480068401E2C490860D8
:1045E0000846006800284FD12A48006800284BD0B0
:1045F00024E02948C068C46804F11800FEF7B2FE40
:10460000201DFEF7AFFE94F82C10012088402349AE
:104610000968084321490860E16A01EB8101204AE9
:1046200002EB8100211DFEF7DBFE1E49E06A0968EE
:10463000C96A884202D301201B49086016480068F5
:1046400008B9012000E000200028D2D00CB1FEF70C
:10465000D9FC1648056865B100BFFFF755FE10B1DB
:104660000120114908606D1E002DF6D100200F4970
:1046700008600D48006838B1012630070C49086011
:10468000BFF34F8FBFF36F8FFEF7E0FE304670BD74
:104690004C00002024000020BC0100202C00002041
:1046A0000801002014000020380000203400002001
:1046B00004ED00E01CB50024FEF776F90E48006812
:1046C00058B10E48022100234FF48272CDE9001048
:1046D0000BA10D48FFF7D2FD044654B900BF50208E
:1046E00080F31188BFF34F8FBFF36F8F00BF00BF00
:1046F000FEE720461CBD0000600000206400002092
:10470000546D722053766300453100082DE9FE4355
:1047100004460D4616461F46DDF828804FF0000976
:1047200054B900BF502080F31188BFF34F8FBFF3FF
:104730006F8F00BF00BFFEE71448006810B30095FC
:1047400001960294062D15DAFFF7C8FD022808D15C
:104750000023424669460D480068FFF7F9FB814691
:1047600010E000231A46694608480068FFF7F0FB8E
:10477000814607E000233A46694604480068FFF78F
:10478000BBFC81464846BDE8FE8300006000002077
:104790004FF04070E1EE100A70473031323334355B
:1047A000363738394142434445464030580030316D
:1047B0003233343536373839616263646566403088
:1047C00078000000E447000800000020C800000056
:1047D000E8010008AC480008C800002010430100B0
:1047E00004020008000000000000000001020304B1
:1047F0000102030406070809000000000000000091
:1048000000000000000000000000000000000000A8
:104810000000000000000000000000000000000098
:104820000000000000000000000000000000000088
:104830000000000000000000000000000000000078
:104840000000000000000000000000000000000068
:104850000000000000000000000000000000000058
:104860000000000000000000AAAAAAAA00000000A0
:104870000000000000000000000000000095BA0ADF
:104880000000000000000000010203040607080900
:104890000000000000000000000000000000000018
:0C48A0000000000000000000000000000C
:04000005080001AD41
:00000001FF
