:020000040800F2
:10000000204601201D030008A13A0008592D0008D0
:10001000B5390008751A0008AD4900080000000055
:100020000000000000000000000000006502000861
:100030002125000800000000B9020008853F0008E3
:1000400037030008370300083703000837030008A8
:100050003703000837030008370300083703000898
:100060003703000837030008370300083703000888
:100070003703000837030008370300083703000878
:100080003703000837030008370300083703000868
:10009000951A000837030008211B00089525000861
:1000A0003703000837030008370300083703000848
:1000B000FD3F000837030008370300083703000836
:1000C0003703000837030008370300083703000828
:1000D000370300080D4700083703000837030008FE
:1000E0003703000837030008370300083703000808
:1000F00037030008370300083703000837030008F8
:1001000037030008370300083703000837030008E7
:1001100037030008370300083703000837030008D7
:1001200037030008370300083703000837030008C7
:1001300037030008370300083703000837030008B7
:10014000411B000837030008370300083703000885
:100150003703000837030008370300087147000819
:100160003703000837030008370300083703000887
:1001700037030008370300083703000800000000B9
:100180003703000837030008370300083703000867
:100190003703000837030008370300083703000857
:1001A00000000000000000003703000800F002F823
:1001B00000F049F80AA090E8000C82448344AAF1B8
:1001C0000107DA4501D100F03EF8AFF2090EBAE8B6
:1001D0000F0013F0010F18BFFB1A43F0010318477B
:1001E0000C8F00002C8F0000103A24BF78C878C113
:1001F000FAD8520724BF30C830C144BF04680C602D
:10020000704700000023002400250026103A28BF74
:1002100078C1FBD8520728BF30C148BF0B60704778
:10022000662908F0E085002070471FB508F0D1FD71
:1002300000F0E2FB04000020002107F079FFE060FD
:100240001FBD10B510BD00F0DBFC1146FFF7EDFF40
:1002500005F070FF00F0F9FC03B4FFF7F2FF03BCF8
:1002600000F03CFD2A4B19680868B0E8F04F80F3B5
:100270000988BFF36F8F4FF0000080F3118870473B
:100280000000000006480068006880F3088862B635
:1002900061B6BFF34F8FBFF36F8F00DF00BF00BFAA
:1002A00008ED00E0DFF80C00016841F47001016026
:1002B000704700BF88ED00E0EFF30980BFF36F8F58
:1002C000134B1A681EF0100F08BF20ED108A20E9AA
:1002D000F04F106008B44FF0500080F31188BFF366
:1002E0004F8FBFF36F8F07F08BF84FF0000080F354
:1002F000118808BC19680868B0E8F04F1EF0100FAC
:1003000008BFB0EC108A80F30988BFF36F8F704785
:1003100010000020EFF30580704700000948804777
:1003200009480047FEE7FEE7FEE7FEE7FEE7FEE7D7
:10033000FEE7FEE7FEE7FEE704480549054A064BEF
:1003400070470000953F0008AD01000820320120F1
:100350002046012020420120204201200FB4044900
:1003600010B503AA029800F0E1FA10BC5DF814FB86
:10037000C40000202DE9F0410E4604460020206212
:100380002046E168884730B3252805D0D4E901210B
:100390009047206A401CF2E7E16820460027884722
:1003A000050018D0A5F14100192802D820354FF4D6
:1003B00000673246294620462760FFF731FF40B1EB
:1003C000012804D0F61D26F007060836D8E7361DAA
:1003D000D6E72846DAE7206ABDE8F081032A40F232
:1003E000308010F0030C00F0158011F8013BBCF1D7
:1003F000020F624498BF11F801CB00F8013B38BFEF
:1004000011F8013BA2F1040298BF00F801CB38BFFC
:1004100000F8013B11F0030300F09A82083AC0F0A3
:10042000088051F8043B083A51F804CBA0E80810C2
:10043000F5E7121D5CBF51F8043B40F8043BAFF3F5
:100440000080D20724BF11F8013B11F801CB48BF4F
:1004500011F8012B24BF00F8013B00F801CB48BF85
:1004600000F8012B704702F0FF0343EA032242EA3F
:10047000024200F0A1BA4FF0000200B513469446C4
:100480009646203922BFA0E80C50A0E80C50B1F1EC
:100490002001BFF4F7AF090728BFA0E80C5048BF00
:1004A0000CC05DF804EB890028BF40F8042B08BF9E
:1004B000704748BF20F8022B11F0804F18BF00F89A
:1004C000012B704770477047704710B500F098FADD
:1004D000006810BD10B5044600F092FA046010BD2B
:1004E00070472DE9FF4F0C461E464FF0FF378BB08B
:1004F000D2E90001DDF860800A908A46C1F30A550E
:1005000005B93D46002108464FF00000BAF1000F42
:1005100000F4400005DA00EB80004FF4400101EAEE
:1005200050004FEA9059B9F1010F00DDB9460A9821
:1005300050EA4A000ED044F61050A5F2FF3545436C
:100540002F14B8F1000F1ED07542291E1EDDC9F10F
:1005500000021CE0B8F1010F4FF0000001D0302183
:1005600003E0F24305E02154401CB042FBDB30467F
:100570000022002121540B99C1F80880C1E9002014
:100580000FB0BDE8F08FBD1B6D1CDEE74A4600DAF8
:10059000694206A800F0BEFA06AB93E8070003AB79
:1005A00083E8070050460A9900F09FFB8DE807009A
:1005B000A0F500501F3800900398002D09DD42F28D
:1005C0001F014A46084403A90390684600F0FEFD57
:1005D00008E0A0F500504A461F3803A9039068467A
:1005E00000F008FE8DE807000004000C03D04FF077
:1005F000FF30410800E01046B8F1000F03D00022A0
:10060000009215461EE0751E05D400F0FDF930324B
:1006100062556D1EF9D5B3460122084302D000226F
:100620007F1C04E02078302801D100227F1E002AA0
:10063000099786D01DE0112D07DA00F0E5F9303278
:1006400062556D1C50EA0102F5D1084302D00098B2
:10065000C8B10EE00021681E05E0235C625C6354B3
:100660002254401E491C8142F7DBAB46A81B401EAA
:100670000990002004F80B000B98099AC0F8088034
:10068000C0E9002B7CE711264FF0000859E72DE95F
:10069000F04F88460446D21D22F0070191B0D1E9FF
:1006A0000001CDE90A0104F091F902460B98C00F50
:1006B00001D02D2007E02068810701D52B2002E022
:1006C000202101EAC000032A099001D0072A05DB96
:1006D00003464146204600F0DDF90BE12078800614
:1006E00001D5E06900E00620B8F1650F814606D02B
:1006F000B8F1660F18D0B8F1670F70D131E0002063
:10070000B9F1110F009001DB112301E009F10103A0
:100710000AAA01A90CA8FFF7E4FEDDE90C70002687
:1007200009F10105834647E001204B4600904FF058
:1007300000470AAA01A90CA8FFF7D3FEDDE90DB016
:100740000C995D46002610B909F101000D18B9EBAE
:10075000050003D4C0F1FF3609F10105A5EB09003E
:100760002BE0B9F1010F01DA4FF001090020B9F1D6
:10077000110F0090484601DD112300E003460AAA4C
:1007800001A90CA8FFF7ADFEDDE90C704D4600266F
:100790008346207800070AD4AB4500DA5D4601A8FD
:1007A000012D04DD411911F8011C302907D04F45F6
:1007B00002DA17F1040F04DA012082460FE06D1E01
:1007C000EEE7002F02DCED1B3E4403E0781CA8425C
:1007D00000DD7D1CB81B00F1010A4FF000472078B6
:1007E000000703D4AA4501DB4FF0FF3A0021B7F11F
:1007F000004F0DF143088DF8431024D002202B2325
:10080000002F01DA7F422D230A21021EA0F10100F0
:1008100000DC5FB197FBF1FC97FBF1F201FB1C7C64
:1008200017460CF1300C08F801CDEEE7A8F10100F5
:1008300003702188090501D5452100E06521A0F15B
:10084000010800F8011C09980FA9A1EB0807FF1D7A
:1008500000B10120411901EBEA70A1693844081A7E
:10086000401EA0612078C00602D42046AFF300806D
:10087000099828B1D4E901219047206A401C2062E0
:100880002078C00622D52046AFF300801EE0002E5F
:1008900004DBB34502DD01A8805D00E03020D4E92F
:1008A00001219047206A401C2062761CAAF10100B9
:1008B0005FEA000A0AD100F09FF8C0680168405C56
:1008C000D4E901219047206A401C2062281EA5F12E
:1008D0000105DCDC07E0D4E9012118F8010B9047A1
:1008E000206A401C2062381EA7F10107F3DC204675
:1008F000AFF30080032011B043E6000001694A1CF9
:1009000002610878704700B58FB0CDE90131002150
:10091000059105497944CDE9031011466846FFF772
:1009200029FD0FB000BD0000E5FFFFFF074B70B5CC
:100930000D467B44FFF7E7FF0446284600F058F9D0
:1009400010B14FF0FF3070BD204670BDA7570000BA
:1009500010B5203AC0F00B80B1E81850203AA0E85A
:100960001850B1E81850A0E81850BFF4F5AF5FEA8E
:10097000027C24BFB1E81850A0E8185044BF18C941
:1009800018C0BDE810405FEA827C24BF51F8043BE8
:1009900040F8043B08BF7047D20728BF31F8023B3C
:1009A00048BF11F8012B28BF20F8023B48BF00F8D0
:1009B000012B70474FF000020429C0F0128010F0A4
:1009C000030C3FF45AADCCF1040CBCF1020F18BF7C
:1009D00000F8012BA8BF20F8022BA1EB0C01FFF7B8
:1009E0004CBD5FEAC17C24BF00F8012B00F8012B4D
:1009F00048BF00F8012B704700487047E0310120E4
:100A000000487047C031012030B5B0F10A024FEA0A
:100A1000900E71F100034EEA817EB0EB0E0061EBA7
:100A200091014FEA101E4EEA017E10EB0E0041EBE1
:100A300011114FEA102E4EEA016E10EB0E0041EB41
:100A400011214FEA104E4EEA014E10EB0E0041EB21
:100A50001141401841F100014FEAD00040EA4170D5
:100A60004FEAD10110EB80054FEA810444EA90740B
:100A700044EB01046D1944EB0404521BA3414FF0F5
:100A8000000348BF0A3200D530BD401C41F10001CF
:100A900030BD00002DE9F0411F46044603260168E1
:100AA000072A01F4006004DB08B116A505E016A5CD
:100AB00003E008B115A500E015A521F010002060A5
:100AC000A069C01EA0610FB1401EA0612046AFF317
:100AD00000804FB1D4E9012138469047206A401C7C
:100AE0002062C01C206206E0206AFAE7D4E90121F6
:100AF00015F8010B9047761EF8D22046AFF3008020
:100B0000BDE8F0814E414E006E616E00494E4600D8
:100B1000696E66002DE9F047814616468AB0334873
:100B200078440DC88DE80D0030487844801C03AC33
:100B30000DC884E80D0041F69B300844372190FB36
:100B4000F1F290FBF1F5A5F1800501FB12041B3CCD
:100B500002D56442012000E00020DFF890A080462A
:100B60000027FA44AAF1BE0A0DE0E00709D0324698
:100B7000684607EB47010AEB810100F03BFB8DE87B
:100B8000070064107F1C002CEFD1184F7F44AC3F4E
:100B900018E0E80714D007EB04100DF1180A90E8EC
:100BA0000E008AE80E00C068F04201D19819089042
:100BB000324606A903A800F01DFB03AB83E807003B
:100BC0006D10641C002DE4D132466946B8F1000F67
:100BD00003A802D000F0FAFA01E000F00BFBC9E92B
:100BE0000001C9F808200AB0BDE8F087B085000010
:100BF000007B00F08000704700487047C031012042
:100C00007546FFF7F9FFAE4605006946534620F0EA
:100C10000700854618B020B5FFF78EFBBDE82040E1
:100C20004FF000064FF000074FF000084FF0000BA8
:100C300021F00701AC46ACE8C009ACE8C009ACE85B
:100C4000C009ACE8C0098D46704710B50446AFF343
:100C500000802046BDE81040FFF7FEBA4FF0013C8F
:100C600050F8042B51F8043B9A4221D1A2EB0C031B
:100C7000934313EACC1317D150F8042B51F8043BDB
:100C80009A4215D1A2EB0C03934313EACC130BD178
:100C900050F8042B51F8043B9A4209D1A2EB0C0303
:100CA000934313EACC13DBD04FF00000704700BF32
:100CB000D01A01BAB1FA81F101F0180122FA01F05B
:100CC000CB40C1F12001DBB2C0B2C01A2CFA01F353
:100CD000D11A914311EAC311E6D170470149182096
:100CE000ABBEFEE72600020070475FEA400C08BF7B
:100CF00091F0000F4FEA8C234FEAC12243EA515191
:100D00004FEA1C5018BF00F5F0404FEA300018BF02
:100D100041F000415FEA6C5C00F02980BCF1FF3FCC
:100D200008BF40F080407047130C06BF12044FF01C
:100D3000100C4FF0000C130E04BF12020CF1080C43
:100D4000130F04BF12010CF1040C930F04BF9200A7
:100D50000CF1020CD30F04BF52000CF1010C114630
:100D60004FF00002A0F11F00A0EB0C00704711F043
:100D7000004F08BF704731F000413FF4D5AF0B0C76
:100D800006BF09044FF0100C4FF0000C0B0E04BF0F
:100D900009020CF1080C0B0F04BF09010CF1040C43
:100DA0008B0F04BF89000CF1020CCB0F04BF49006C
:100DB0000CF1010CCCF12003A0EB0C0022FA03F3A0
:100DC00002FA0CF241EA030100F10100704720F041
:100DD0007F4C80EA030023F07F47ACEB070303F569
:100DE0007C5300F0004003F1FF032DE980494FEAF6
:100DF000154B09B44FEA144325EA0B4E24EA034885
:100E00000FF2042606EB132749083E785FEA320208
:100E100003FB0667C7F5000707FB06F64FEA5437E2
:100E20004FEAD64606F1020607FB066CCCF1005CE1
:100E30004FEA1C472CEA074C07FB06F40CFB06F5AF
:100E400004EB15464FEA961634BF00204FF00040E1
:100E50004FEAD13706FB07FC4FEA1C4C0CFB0BF7A3
:100E6000D21B03FB0CF761EB07010CFB0EF7B0EB99
:100E7000074072EB17420CFB08F734BFA2EB0742A6
:100E8000B2EB074261EB17414FEA0C444FEA91077E
:100E900006FB07FC4FEA1C4C0CFB0BF7B0EBC74002
:100EA00072EB573203FB0CF734BFA2EBC742B2EB35
:100EB000C74261EB57310CFB0EF7B0EBC70072EB8A
:100EC00057720CFB08F734BFA2EBC702B2EBC702A4
:100ED00061EB5771039F4FEA816141EA921104EB84
:100EE000CC044FEAD1374FEA826206FB07FC42EAA4
:100EF00090124FEA80604FEA1C4C0CFB0BF7D21BA0
:100F000003FB0CF761EB07010CFB0EF7B0EB07409E
:100F100072EB17420CFB08F734BFA2EB0742B2EBAF
:100F2000074261EB17414FEA8C554FEA910704EBFA
:100F30009C2406FB07FC4FEA1C4C0CFB0BF7B0EBA8
:100F4000C74072EB573203FB0CF734BFA2EBC7422A
:100F5000B2EBC74261EB57310CFB0EF7B0EBC700A9
:100F600072EB57720CFB08F734BFA2EBC702B2EB6F
:100F7000C70261EB577115EB4C254FEA816141EADD
:100F800092114FEA82624FEAD13742EA901206FB91
:100F900007FC44F100044FEA80604FEA1C4C0CFB54
:100FA0000BF7D21B03FB0CF761EB07010CFB0EF7F1
:100FB000B0EB074072EB17420CFB08F734BFA2EB13
:100FC0000742B2EB074261EB174115EB1C154FEAE4
:100FD000813141EA92414FEA823242EA90424FEA3D
:100FE00080304FEA0C7644F1000448EA03434EEAAD
:100FF0000B484FF0000EB2EB080C71EB030724BF57
:10100000624639464EEB0E0E4FF0000B001852416F
:1010100049414BEB0B0BB2EB080C71EB03077BF177
:10102000000B24BF624639464EEB0E0E4FF0000B0C
:101030000018524149414BEB0B0BB2EB080C71EB22
:1010400003077BF1000B24BF624639464EEB0E0EC0
:1010500051EA020718BF46F0010616EB0E7655F16D
:10106000000254F1000103D5BDE88901BDE8008804
:10107000BDE88901BDE80048B619524141EB0101C4
:10108000A3F10103704780807F7E7D7C7B7A797835
:10109000777676757473727171706F6E6E6D6C6C3D
:1010A0006B6A6A69686867666665646463636261DF
:1010B0006160605F5F5E5E5D5D5C5C5B5B5A5A5960
:1010C00059585857575656555555545453535252CC
:1010D0005251515050504F4F4F4E4E4D4D4D4C4C24
:1010E0004C4B4B4B4A4A4A4949494848484747476D
:1010F00047464646454545444444444343434342AA
:10110000424242414141002B26D4770021D01CB5F8
:101110004FEA370703B44FF010004FF010014FF0C3
:1011200000000FBCBDE810400BF1010BBBF1010F3B
:1011300008BF5FEA170722BF12F1010211F1010196
:101140004FF0004143F1000300F0004043EA00008B
:101150007047F9D35708DAE746EA064613F1400F1D
:101160004FEA16461FDD13F1200FDFBF16430A4674
:10117000002120335B42C8D0C3F1200746EA06466F
:1011800002FA07F74FEA164646EA0706C3F12007B8
:1011900022FA03F201FA07F721FA03F14FF00003F4
:1011A00042EA0702B1E746EA020646EA06464FEA85
:1011B000164646EA0106BCBF46EA0646360C4FF024
:1011C00000034FF000024FF000019EE72DE9C048F8
:1011D000934630B491E8380007C831EA400C48BF64
:1011E00034EA430C03D5FFF7F2FDFFF78CFFF0BCA8
:1011F000BDE800882DE9C048934630B491E8380036
:1012000007C810F0804F08BF13F0804F03D100F0E3
:1012100005F8FFF778FFF0BCBDE8008820F07F47B5
:1012200080EA030023F07F4C07EB0C03A3F57C530B
:1012300000F00040A3F1FE0392F0000F00F0B38035
:1012400095F0000F00F077802DE901494FEA114039
:101250004FEA144621EA004800FB06FC24EA064750
:1012600008FB06F607FB08F800FB07F718EB064833
:101270004CEB164C4FEA124B18EB07484FEA154659
:101280004CEB174022EA0B4E0BFB06FC25EA064707
:101290000EFB06F607FB0EFE0BFB07F71EEB064EDA
:1012A0004CEB164C4FF000061EEB074E4CEB174B69
:1012B00018EB0B0840F1000018EB0E0B58EB000880
:1012C00040F100008F1A4FF000013CBFC943661B7C
:1012D00014BFB5EB040C00213CBFC943F61B4FEA19
:1012E00017444EEA8E0E27EA04454FEA1C4704FBDA
:1012F00007622CEA074C05FB07F70CFB05F604FB1D
:101300000CFC16EB074642EB174216EB0C4642EB81
:101310001C421BEB060658EB0202414146EA9E06C0
:1013200001D5BDE80189B619524141EB0101A3F194
:101330000103BDE801894FEA14454FEA114724EA49
:10134000054621EA074C05FB07F406FB07F70CFBF3
:1013500006F105FB0CFC11EB074144EB17444FEA87
:10136000124711EB0C4144EB1C4422EA074C05FBED
:1013700007F206FB07F70CFB06F605FB0CFC16EB69
:10138000074642EB174216EB0C4642EB1C456A1827
:1013900054F1000148BF7047B619524141EB0101B9
:1013A000A3F10103704795F0000F37D04FEA1142C7
:1013B0004FEA144721EA024624EA074C02FB07F1F0
:1013C00006FB07F70CFB06F402FB0CFC14EB0744CE
:1013D00041EB17414FEA154714EB0C4441EB1C411C
:1013E00025EA074C02FB07F506FB07F70CFB06F6A0
:1013F00002FB0CFC16EB074645EB174516EB0C46BB
:1014000045EB1C42121951F1000148BF7047B61953
:10141000524141EB0101A3F1010370474FEA14452A
:101420004FEA114724EA054621EA074C05FB07F17C
:1014300006FB07F70CFB06F24FF0000605FB0CFC61
:1014400012EB074241EB174112EB0C4251EB1C41EE
:1014500048BF7047921841EB0101A3F101037047A7
:1014600000B587B00121480602F034FC012188064E
:1014700002F030FC00208DF817008DF818000820CD
:101480008DF8140004208DF8150000208DF812004E
:101490008DF819000320ADF8100000208DF81A0017
:1014A0008DF813008DF816008DF81B0004A92B4849
:1014B00000F041FC01208DF80D000020ADF808007F
:1014C000ADF80000ADF80200ADF80400ADF806007C
:1014D0008DF80B008DF80A0001208DF80C0068468D
:1014E00000F09CFB01208DF8170000208DF81800FB
:1014F00008208DF8140004208DF8150000208DF8C8
:1015000012008DF819000320ADF8100000208DF8AE
:101510001A008DF813008DF816008DF81B0004A931
:101520000F4800F008FC01208DF80D000020ADF8F8
:101530000800ADF80000ADF80200ADF80400ADF809
:1015400006008DF80B000E208DF80A0001208DF8A2
:101550000C00684600F062FB07B000BD006400406C
:101560000068004000B58FB00121880502F0A2FBA1
:101570004FF0006000901248019012480290002045
:10158000039013200490002005904FF48060069093
:1015900000200890079009904FF480300A900020B6
:1015A0000B9003200C9000200D900E906946064889
:1015B00000F088FF0121044800F06EFF0FB000BD6D
:1015C00004100140DC2E0120406402401CB50121C2
:1015D000084602F06FFB0121022002F06BFB0121A3
:1015E000082002F067FB0121202002F063FB0121AB
:1015F000802002F05FFB02208DF8040000208DF8AF
:1016000006008020009001208DF8070003208DF84F
:1016100005006946614801F08DF8072211465F48D0
:1016200001F0D0F802208DF8040000208DF80600AB
:101630000320009001208DF8070003208DF805009D
:101640006946574801F076F809220021544801F014
:10165000B9F809220121524801F0B4F802208DF8AE
:10166000040000208DF806004FF440500090012047
:101670008DF8070003208DF805006946474801F002
:1016800059F809220C21454801F09CF809220D2146
:10169000424801F097F801208DF8040000208DF8F1
:1016A00006004FF48060009001208DF807000320B1
:1016B0008DF8050069463B4801F03CF801208DF8A3
:1016C000040000208DF806004FF4207000900120E7
:1016D0008DF8070003208DF805006946314801F0B8
:1016E00029F800208DF804008DF8060040200090B5
:1016F00001208DF8070003208DF805006946294870
:1017000001F018F800208DF804008DF806004FF461
:101710008070009002208DF8070003208DF80500EE
:101720006946204801F006F801208DF804000020E9
:101730008DF806003C20009001208DF80700032062
:101740008DF805006946184800F0F4FF042116489A
:1017500001F05DF80821144801F059F810211248F1
:1017600001F055F82021104801F051F801221146EE
:101770000E4801F027F8022000908DF804000320A5
:101780008DF8050000208DF8060001208DF8070077
:101790006946064800F0CEFF1CBD00000004024070
:1017A000000C024000140240001C024000000240F5
:1017B00008B525208DF8000001208DF803000820D1
:1017C0008DF8010000208DF80200684602F074F9DF
:1017D000012240F22441264803F053F814208DF8EA
:1017E000000001208DF8030008208DF80100002082
:1017F0008DF80200684602F05FF901221D491E487B
:1018000000F090FA1C481430006840F0FF001A49BC
:101810001431086040208DF8000001208DF803008D
:1018200008208DF8010000208DF80200684602F0C3
:1018300043F901220221114800F074FA1C208DF8AE
:10184000000009208DF8010000208DF80200012021
:101850008DF80300684602F02FF901221146900727
:1018600002F011FC0121880702F0EAFB08BD00002C
:1018700000100140008F0300006400400068004039
:1018800000B58BB00121084602F024FA012009902E
:1018900042F22730ADF820000020ADF82200ADF86C
:1018A000280008A94FF0804002F03EFC0121880783
:1018B00002F0CCFB0121102002F00CFA5920ADF807
:1018C00020000020ADF82200ADF8280040F2E730FB
:1018D000099008A9294802F027FC0121274802F0B5
:1018E000B5FB0121042002F0F5F90121082002F0E6
:1018F000E1F902220C21224800F064FF4FF48050ED
:10190000069002208DF81C0003208DF81D00002099
:101910008DF81E0001208DF81F0006A9184800F060
:1019200009FF42F22730ADF820000020ADF8220078
:10193000C72009900020ADF8280008A9114802F03E
:10194000F3FB7020ADF804000120ADF80600022082
:10195000ADF810000520039001A90A4802F09CFB95
:101960000821084802F0D6FB0121064802F05CFB82
:101970000121044802F06AFB0BB000BD00100040DA
:10198000000C0240000800401FB50121102002F0A9
:10199000B1F90E4800900020ADF80C000420ADF81D
:1019A0000A000020ADF80800ADF80600ADF804000C
:1019B0006946074802F08AFF01224021044802F0EC
:1019C0002DFF0121024802F01DFF1FBDA08601006E
:1019D0000010014000B58BB00121022002F07AF91D
:1019E0000121022002F066F9022204211F4800F0C2
:1019F000E9FE1020099002208DF8280003208DF8C0
:101A0000290000208DF82A0001208DF82B0009A95B
:101A1000164800F08FFE5920ADF818000020ADF8F0
:101A20001A00012007900020ADF8200006A91048F8
:101A300002F07AFB6020ADF804000120ADF806004A
:101A40000020ADF8100001A9094802F025FB08218B
:101A5000074802F05FFB0121054802F0E5FA012189
:101A6000034802F0F3FA0BB000BD0000000402408E
:101A70000004004010B502A0FEF770FC10BD00008D
:101A80004275734661756C745F48616E646C657213
:101A90000000000030B585B06A4600211B4800F008
:101AA000D4F99DF80C009DF80B1040EA012004B217
:101AB0009DF80E109DF80D0041EA002005B2009837
:101AC000A0F2012030B101280AD002280ED003284C
:101AD00018D111E02AB221B20D4801F097FF12E0AF
:101AE0002AB221B20B4801F091FF0CE02AB221B2D8
:101AF000094801F08BFF06E02AB221B2074801F045
:101B000085FF00E000BF00BF05B030BD00640040AD
:101B10005C2E0120BC2E01209C2E01207C2E012059
:101B200010B54FF40061044800F06FFE4FF40F4110
:101B3000024800F01FF810BD001002400064004091
:101B400030B585B06A460021094800F07EF99DF85D
:101B50000C009DF80B1040EA012004B29DF80E1015
:101B60009DF80D0041EA002005B205B030BD00002F
:101B700000680040B1F5007F3AD00FDC202928D062
:101B800006DC01291CD004291DD0082940D11DE004
:101B9000402921D0B1F5807F3AD126E0B1F5004F40
:101BA00031D006DCB1F5806F25D0B1F5006F2FD1B3
:101BB00024E0B1F5803F12D0B1F5003F28D111E00B
:101BC000154A826025E00822C26022E01022C2602D
:101BD0001FE0082202611CE01022026119E00822C5
:101BE000426016E01022426013E00422426010E0DE
:101BF000042242600DE0042242600AE00022826179
:101C00000422426005E0002282610422426000E07A
:101C100000BF00BF704700000101010010B50021A6
:101C2000837A012202FA03F13D4A126842F001026E
:101C30003B4B1A603A4A1C3212688A43384B1C33B9
:101C40001A60027BCAB9364A0C3212688A43344B96
:101C50000C331A604288C38842EA0343304A403258
:101C6000847A42F834300288838842EA03432C4A5B
:101C70004032847A02EBC4025360027B012A19D1FC
:101C8000274A0C3212680A43254B0C331A604288EB
:101C9000038842EA0343224A4032847A42F83430CD
:101CA000C288838842EA03431D4A4032847A02EBA9
:101CB000C4025360C27A3AB9194A121D12688A43A3
:101CC000174B1B1D1A6006E0154A121D12680A43C5
:101CD000134B1B1D1A60028932B9114A1432126863
:101CE0008A430F4B14331A600289012A06D10C4A29
:101CF000143212680A430A4B14331A60427B012AD9
:101D000006D1074A1C3212680A43054B1C331A607D
:101D1000034A126822F00102014B1A6010BD000054
:101D2000006600401AB143690B43436102E0436916
:101D30008B434361704730B502460020002314688E
:101D400024F002041460146844F00104146000E0FC
:101D50005B1C546804F001041CB94FF6FF74A342E5
:101D6000F6D1546804F001040CB900206CE08C79C1
:101D7000012C04D1146844F08004146003E014685A
:101D800024F080041460CC79012C04D1146844F050
:101D90004004146003E0146824F0400414600C7ADA
:101DA000012C04D1146844F02004146003E014688A
:101DB00024F0200414604C7A012C04D1146844F0FF
:101DC0001004146003E0146824F0100414608C7A8A
:101DD000012C04D1146844F00804146003E0146872
:101DE00024F008041460CC7A012C04D1146844F067
:101DF0000404146003E0146824F0040414608C7874
:101E0000A407CD7844EA05640D7944EA05444D7988
:101E100044EA05540D886D1E2C43D461146824F0E7
:101E200001041460002300E05B1C546804F001040A
:101E30001CB14FF6FF74A342F6D1546804F00104BC
:101E40000CB1002000E0012030BD10B500F5D873C2
:101E500003EB01131B6803F004031372137A53B9E5
:101E600000F5D87303EB01131B6840F2FF7404EA1A
:101E70005353136009E000F5D87303EB01131B689B
:101E80006FF0604404EAD303536000F5D87303EBAA
:101E900001131B6803F00203537200F5D87303EBC0
:101EA00001135B6803F00F03937200F5D87303EB23
:101EB00001135B681B0AD37400F5D87303EB01139D
:101EC0009B68D37200F5D87303EB01139B681C0A5F
:101ED000147300F5D87303EB01139B681C0C547347
:101EE00000F5D87303EB01139B681B0E937300F589
:101EF000D87303EB0113DB68D37300F5D87303EBDE
:101F00000113DB681C0A147400F5D87303EB01138A
:101F1000DB681C0C547400F5D87303EB0113DB6809
:101F20001B0E937421B9C36843F02003C36003E020
:101F3000036943F02003036110BD10B50246002081
:101F4000936803F08063B3F1806F00D110E0936871
:101F500003F00063B3F1006F01D1012008E0936842
:101F600003F08053B3F1805F01D1022000E0042030
:101F7000042874D002F5C07303EB00131B6803F050
:101F8000010402F5C07303EB00131C600B7A7BB9EC
:101F90004B7A0C8843EA445302F5C07404EB0014F6
:101FA0002468234302F5C07404EB0014236010E09E
:101FB0000B7A4C6843EAC4034C7A234302F5C0749D
:101FC00004EB00142468234302F5C07404EB0014EE
:101FD00023608B7A03F00F038B7202F5C07303EB5F
:101FE00000135B6823F00F0402F5C07303EB0013CA
:101FF0005C6002F5C07303EB00135B688C7A2343CB
:1020000002F5C07404EB001463608B7B1C064B7BF1
:1020100044EA03440B7B44EA0323CC7A234302F5CE
:10202000C07404EB0014A3608B7C1C064B7C44EA58
:1020300003440B7C44EA0323CC7B234302F5C074A6
:1020400004EB0014E36002F5C07303EB00131B689C
:1020500043F0010402F5C07303EB00131C6010BDD4
:102060002DE9F04385B004460F4615461E46DDE9CE
:102070000C89009700208DF808008DF809000820D1
:102080008DF80A00280A8DF80B00E9B28DF80C10C3
:10209000310A8DF80D10F1B28DF80E104FEA1821AB
:1020A0008DF80F1008F0FF018DF810104FEA19217C
:1020B0008DF8111009F0FF018DF8121000BFA06912
:1020C00038B1206840F002002060206800F0FD0078
:1020D0002060A06800F0E0500028F0D0694620465B
:1020E000FFF72BFF05B0BDE8F083000010B52DED24
:1020F0000A8B84B00446664890ED020A10EE101A6E
:10210000084606F0F5FD41EC1C0B9FED620B53EC0D
:10211000102B06F0F7FA41EC1A0B5D4890ED010A1E
:10212000D0ED000A30EE600A10EE101A084606F0F4
:10213000DFFD41EC1B0B53EC1A2B06F04DF841EC84
:10214000190B9FED560B53EC102B06F0DBFA41EC0C
:10215000180B06F055FA00904D4890ED020A10EE6B
:10216000101A084606F0C4FD41EC1C0B9FED490B0C
:1021700053EC102B06F0C6FA41EC1A0B444890EDD4
:10218000010AD0ED000A30EE200A10EE101A0846BF
:1021900006F0AEFD41EC1B0B53EC1A2B06F01CF8BD
:1021A00041EC190B9FED3D0B53EC102B06F0AAFAF6
:1021B00041EC180B06F024FA0190354890ED020A24
:1021C00010EE101A084606F093FD41EC1C0B9FED33
:1021D000350B53EC102B06F095FA41EC1A0B2C48FA
:1021E00090ED010AD0ED000A30EE600A10EE101AF0
:1021F000084606F07DFD41EC1B0B53EC1A2B05F055
:10220000EBFF41EC190B9FED290B53EC102B06F063
:1022100079FA41EC180B06F0F3F902901C4890EDA6
:10222000020A10EE101A084606F062FD41EC1C0B83
:102230009FED1C0B53EC102B06F064FA41EC1B0BCA
:10224000134890ED010AD0ED000A30EE200A10EE9E
:10225000101A084606F04CFD41EC180B53EC1B2BF2
:1022600005F0BAFF41EC1A0B9FED100B53EC102B4D
:1022700006F048FA41EC190B06F0C2F9039021462A
:10228000684600F017F804B0BDEC0A8B10BD0000E2
:10229000883101201283C0CAA145EEBF2FDD24067C
:1022A00081956F401283C0CAA145EE3F2FDD240601
:1022B00081956FC09FED371AF0EE410A9FED351AF8
:1022C000B0EE410A002223E050F82230002B02DB5E
:1022D00050F8223002E050F822305B4201EE103A12
:1022E000B8EEC11AB4EEE01AF1EE10FA0FDD50F8B4
:1022F0002230002B02DB50F8223002E050F822306E
:102300005B4201EE103AB8EEC11AF0EE410A521CDF
:10231000042AD9DB9FED201AF4EEC10AF1EE10FA7F
:102320002EDD9FED1D1AC1EE201AB0EE610A90ED70
:10233000001AB8EEC11A21EE001ABDEEC11A81EDE5
:10234000001A90ED011AB8EEC11A21EE001ABDEE86
:10235000C11A81ED011A90ED021AB8EEC11A21EEF0
:10236000001ABDEEC11A81ED021A90ED031AB8EE03
:10237000C11A21EE001ABDEEC11A81ED031A07E061
:1023800003680B6043684B6083688B60C368CB60F5
:10239000704700000000000000007D43034880ED0E
:1023A000000AC0ED010A80ED021A70478831012051
:1023B0000A784B7842EA0322C2F30A0202800288BA
:1023C000A2F5806212B202804A78D2108B7842EA7B
:1023D0004312C2F30A0242804288A2F5806212B21E
:1023E00042808A789211CB7842EA83020B7942EAE2
:1023F0008322C2F30A0282808288A2F5806212B22E
:1024000082800A7952104B7942EAC312C2F30A025F
:10241000C280C288A2F5806212B2C2804A791211CB
:10242000920802724A79C2F3011242728A79CB7918
:1024300042EA032212B242810A7A4B7A42EA03222A
:1024400013B283818A7ACB7A42EA032213B2C38120
:102450000B7B03744B7B43748A7BCB7B42EA032266
:10246000828270470246094B9A4201D2084801E035
:102470000648103801F000531BB1064B0B40C360F7
:1024800002E0044B0B408360704700001064024080
:10249000006002407D0F7D0F21B1026842F0010211
:1024A000026003E0026822F0010202607047014608
:1024B00000200A6802F001020AB1012000E00020B9
:1024C0007047000010B500220268134B1A40CC6818
:1024D0000B6823434C6923438C692343CC69234312
:1024E0000C6A23434C6A23438C6A23434C6B23437B
:1024F0008C6B23431A430260426922F00702D1E940
:102500000B3423431A4342610B6943604B68836079
:102510008B68C36010BD00003F801CF041607047B5
:1025200010B502A0FDF71AFF10BD000044656275EA
:10253000674D6F6E5F48616E646C657200000000ED
:1025400070B504466FF0040001F008FDE11704EBDC
:102550005171C1F3C7010D4A1170E11704EB5171BC
:10256000CD104FF47A7045430120094908804FF09F
:10257000E020006940F002004FF0E02108610846C9
:102580004561006940F00100086170BD8C000020C9
:102590008E00002010B54FF4807000F019F848B19B
:1025A0004FF4807000F008F84FF4807000F00AF8E3
:1025B00000F0E8FE10BD000001490860704700000F
:1025C000143C01400149086070470000143C014080
:1025D00001460020034A12680A400AB1012000E0C7
:1025E00000207047143C0140002123498279002AD1
:1025F0003AD00A46126803689A430B461A600A1DCD
:10260000126803689A430B1D1A60027911440A6824
:1026100003681A430A60184A0832126803689A432A
:10262000154B08331A601A1D126803689A43124B3F
:102630000C331A604279102A0ED11A1F12680368EF
:102640001A430D4B08331A601A1D126803681A43A7
:10265000094B0C331A600DE00749427911440A68AE
:1026600003681A430A6005E0027911440A680368A6
:102670009A430A6070470000003C014090ED020A56
:10268000B5EEC00AF1EE10FA02DB90ED020A03E0AB
:1026900090ED020AB1EE400AD0ED060AF5EEC00A4E
:1026A000F1EE10FA02DBD0ED060A03E0D0ED060AE7
:1026B000F1EE600AB4EEE00AF1EE10FA07D290ED06
:1026C000030AD0ED020A30EE600A80ED030A90EDB5
:1026D000000AD0ED030A30EE200A80ED040A90EDE6
:1026E000040A7047416981B901214161DFED100A97
:1026F000C0ED020ADFED0E0AC0ED030A80ED000A0C
:1027000080ED010A80ED040A7047D0ED000AC0EDAB
:10271000010A80ED000AD0ED000A90ED011A70EE7A
:10272000C10AC0ED020A4169491C416100BFEBE7E3
:1027300000000000F0B50A4600210023002400BF7D
:102740003DE0012505FA01F3156805EA03049C4202
:1027500034D105684F000326BE40B54305601579A6
:102760004E00B5400668354305601579012D02D04D
:102770001579022D16D185684F000326BE40B5435A
:10278000856055794E00B54086683543856045685B
:1027900001268E40B5434560456896798E40B6B2B5
:1027A00035434560C5684F000326BE40B543C5604C
:1027B000D5794E00B540C6683543C560491C10291F
:1027C000BFD3F0BDF0B5002300244D07ED0E02FA93
:1027D00005F3CE1000F1200555F826504E07F70EF0
:1027E0000F26BE40B543CF1000F1200646F8275013
:1027F000CE1000F1200555F8265045EA0304CE100E
:1028000000F1200545F82640F0BD41837047018363
:10281000704742694A4042617047000010B52DED93
:102820000A8BFE48B0F9080000EE100AB8EEC00AA4
:10283000DFEDFB0A80EE201A11EE104A204606F06A
:1028400057FA41EC1A0B9FEDF70B53EC102B05F0E8
:1028500059FF41EC190B9FEDF50B53EC102B05F0D4
:1028600077FD41EC180B05F085FCF2494860EB4818
:10287000B0F90A0000EE100AB8EEC00ADFEDE80A6F
:1028800080EE201A11EE104A204606F031FA41EC93
:102890001A0B9FEDE40B53EC102B05F033FF41ECCA
:1028A000190B9FEDE20B53EC102B05F051FD41ECA1
:1028B000180B05F05FFCDF498860D848B0F90C00C0
:1028C00000EE100AB8EEC00ADFEDD50A80EE201A3D
:1028D00011EE104A204606F00BFA41EC1A0B9FED60
:1028E000D10B53EC102B05F00DFF41EC190B9FEDB4
:1028F000CF0B53EC102B05F02BFD41EC180B05F022
:1029000039FCCC49C860C549B1F9000005F0A7FE03
:1029100041EC190B9FEDC80B53EC102B05F018FD83
:1029200041EC180B05F026FCC5490860BB49B1F91C
:10293000020005F094FE41EC190B9FEDBF0B53EC28
:10294000102B05F005FD41EC180B05F013FCBD49FB
:102950000860B249B1F9040005F081FE41EC190BA1
:102960009FEDB50B53EC102B05F0F2FC41EC180B6E
:1029700005F000FCB4490860AE48D0ED031AB0EE93
:10298000611AD0ED021AF0EE610AD0ED011AB0EE34
:10299000610A0846D0ED002AAA4890ED002AA8480E
:1029A000D0ED001A00F04EFDA84890ED000AD0EDE1
:1029B000000A20EE200AA648D0ED000A90ED001A89
:1029C00000EEC10AA348D0ED000A90ED001A00EE17
:1029D000C10AA148D0ED000A90ED001A00EE810A6C
:1029E00010EE101A084606F083F941EC1B0B9748CD
:1029F00090ED000A9648D0ED000A20EE200A954896
:102A0000D0ED000A944890ED001A00EE810AF0EE35
:102A1000000A20EE200A10EE101A084606F068F9A7
:102A200041EC1C0BB0EE4B1AF0EE6B1AB0EE4C0AF8
:102A3000F0EE6C0A02F000FBB0EE40AAF0EE60AAE5
:102A40009FED7A0B53EC102B51EC1A0B05F05AFE4C
:102A500041EC190B9FED730B53EC102B05F078FC38
:102A600041EC180B05F086FB7C494860774890EDF7
:102A7000000A7848D0ED000A20EE200A7448D0ED14
:102A8000000A754890ED001A00EEC10AF0EE000A47
:102A900020EE200A10EE101A084606F029F941EC43
:102AA0001B0BB0EE4B0AF0EE6B0A01F0A9FFB0EE83
:102AB00040AAF0EE60AA9FED5D0B53EC102B51EC99
:102AC0001A0B05F01FFE41EC190B9FED560B53EC52
:102AD000102B05F03DFC41EC180B05F04BFB5F495A
:102AE00008605A4890ED000AD0ED000A20EE200A56
:102AF0005748D0ED000A90ED001A00EE810A5548C3
:102B0000D0ED000A90ED001A00EEC10A5248D0ED57
:102B1000000A90ED001A00EEC10A10EE101A0846E5
:102B200006F0E6F841EC1B0B494890ED000A4948D5
:102B3000D0ED000A20EE200A4448D0ED000A4648B5
:102B400090ED001A00EE810AF0EE000A20EE200A55
:102B500010EE101A084606F0CBF841EC1C0BB0EE54
:102B60004B1AF0EE6B1AB0EE4C0AF0EE6C0A02F063
:102B700063FAB0EE40AAF0EE60AA9FED2C0B53EC86
:102B8000102B51EC1A0B05F0BDFD41EC190B9FED1C
:102B9000250B53EC102B05F0DBFB41EC180B05F07B
:102BA000E9FA2E498860084690ED010AB5EEC00AA0
:102BB000F1EE10FA15DB90ED010A10EE101A08463E
:102BC00006F096F841EC190B9FED180B53EC102B07
:102BD00005F0A4FF41EC180B05F0CCFA1F49486042
:102BE00015E01E4890ED010A10EE101A084606F096
:102BF0007FF841EC190B9FED0D0B53EC102B05F0FA
:102C0000EBFA41EC180B05F0B5FA1449486013488B
:102C1000D0ED020AB0EE600A114823E060310120D5
:102C2000333383414AD8124DFB2109400000000094
:102C300000806640B0310120000000000000B0407C
:102C4000D0000020D4000020D8000020B0000020D8
:102C5000B4000020B8000020BC000020A4310120F6
:102C6000DC000020FFF73EFD234890ED020ADFED77
:102C7000230AB4EEE00AF1EE10FA08DD90ED030A43
:102C8000DFED1F0A30EE600A80ED030A11E01A48FA
:102C900090ED020ADFED1B0AB4EEE00AF1EE10FA45
:102CA00007D290ED030ADFED160A30EE200A80ED20
:102CB000030A1148FFF7E2FC134880ED000A1348AD
:102CC00090ED010AB1EE400A0F4880ED040AD0ED04
:102CD000040A406900EE100AB8EEC00A30EE800A1D
:102CE000094880ED040A094890ED000A064880ED85
:102CF000060ABDEC0A8B10BDDC00002000009643E4
:102D00000000B443000096C3082F0120A431012025
:102D100010B500219FED0B0A0B4800F05BFE00216F
:102D20009FED080A094800F055FE00219FED050AB5
:102D3000074800F04FFE00219FED020A054800F011
:102D400049FE10BD9A9999415C2E0120BC2E0120AC
:102D50009C2E01207C2E012010B502A0FDF7FEFA6A
:102D600010BD0000486172644661756C745F486113
:102D70006E646C657200000010B5044600200F49B7
:102D8000086000F0D9F8012000F01CF824B10120FF
:102D90000A490831086003E000200849083108604A
:102DA000012000F00FF801200449086000F00AF843
:102DB00000200349C1F89C0210BD00009C824242E1
:102DC0000080424210B5002106E0642200BF131EBD
:102DD000A2F10102FBD1491C8142F6D310BD0000D3
:102DE00001200349086000200249C1F8A002704791
:102DF000988242420080424270B5002400F086F87A
:102E00000120FFF7DFFF002516E000200E490860D3
:102E10000220FFF7D7FF01200C49C1F89C02600691
:102E2000040E09487838006808B1601CC4B202205A
:102E3000FFF7C8FF681CC5B2082DE6DB0020024979
:102E40000860204670BD00009C82424200804242E1
:102E50002DE9F04107460E461446984600F084F8E6
:102E6000FF2805D120A0FDF779FAFF20BDE8F08109
:102E7000384600F0F9F800F0CDF8FF2800D1F5E76A
:102E8000304600F0F1F800F0C5F8FF2804D119A091
:102E9000FDF764FAFF20E9E700F066F8791CC8B294
:102EA00000F0E2F800F0B6F8FF2804D114A0FDF716
:102EB00055FAFF20DAE7002508E0FFF79DFF2070B4
:102EC0000020FFF759FF641C681CC5B2A8F101007F
:102ED000A842F2DCFFF790FF20700120FFF74CFFC3
:102EE00000F07EF80020C1E76572726F7220370D26
:102EF0000A0000006572726F7220390D0A0000002E
:102F00006572726F722032480D0A00001CB54FF4D2
:102F10000070009000208DF804008DF8060001205C
:102F20008DF8070003208DF8050069460148FFF77A
:102F300001FC1CBD001402401CB54FF40070009051
:102F400001208DF8040000208DF8060001208DF886
:102F5000070003208DF8050069460248FFF7EAFBE9
:102F60001CBD00000014024010B5FFF7E5FF012072
:102F7000134908601348D0F8240220B912A0FDF7C5
:102F8000EDF9FF2010BD01200D4908390860FFF759
:102F900019FF00200B49C1F8A402094880380068D5
:102FA00020B10CA0FDF7DAF9FF20EBE70120FFF7D5
:102FB00009FF002002490839086000BFE2E700006D
:102FC000A4824242008042426572726F72203121B7
:102FD0000D0A00006572726F722032210D0A000026
:102FE00010B5FFF7A9FF0020084908600849C1F89B
:102FF000A4020120FFF7E6FE012004490860FFF764
:10300000E1FE01200249C1F8A40210BD9C824242A7
:103010000080424210B50024FFF778FF01201049DC
:103020000860FFF7CFFE01200E49C1F89C02FFF7B0
:10303000C9FE0AE0601C84B2322C03DDFFF7D0FF2A
:10304000FF2010BD0520FFF7BDFE05488038006851
:103050000028EFD102490839086000BFF1E70000FD
:10306000A48242420080424270B50446FFF764FFEA
:1030700000201349086000251EE004F0800020B104
:1030800001200F490831086003E000200C49083195
:1030900008606006040E0120FFF794FE0120084935
:1030A0000860FFF78FFE00200649C1F89C0201204E
:1030B000FFF788FE681CC5B2082DDEDB70BD00007E
:1030C0009C8242420080424270B506460C4615463C
:1030D000FFF74AFFFF2804D116A0FDF73FF9FF20B4
:1030E00070BD3046FFF7C0FFFFF794FFFF2804D103
:1030F00013A0FDF733F9FF20F2E72046FFF7B4FFF6
:10310000FFF788FFFF2804D110A0FDF727F9FF2063
:10311000E6E72846FFF7A8FFFFF77CFFFF2804D16A
:103120000DA0FDF71BF9FF20DAE7FFF759FF00209C
:10313000D6E700006572726F722033210000000034
:103140006572726F7220340D0A0000006572726F32
:103150007220350D0A0000006572726F7220360D04
:103160000A0000001CB50121302000F0A3FD4FF43F
:103170000060009001208DF8040000208DF806000A
:1031800003208DF8050001208DF8070069461048DE
:10319000FFF7D0FA4FF48040009001208DF8040032
:1031A00000208DF8060003208DF8050001208DF821
:1031B000070069460748FFF7BDFA4FF4006104486D
:1031C000FFF725FB4FF480410248FFF720FB1CBDB1
:1031D000001002400014024010B501221921D02035
:1031E000FFF772FFFF2800D110BD0A2002F024FF74
:1031F00001223821D020FFF767FFFF2800D1F3E735
:103200000020F1E708B500200090FFF7E9FD012359
:103210006A467521D020FFF71BFE50B99DF80000CB
:10322000702801D0FF2008BD9DF8000025490880C6
:1032300001E0FF20F7E701226B21D020FFF744FFD8
:10324000FF2800D1EFE701221A21D020FFF73CFF31
:10325000FF2800D1E7E718221B21D020FFF734FF19
:10326000FF2800D1DFE710221C21D020FFF72CFF20
:10327000FF2800D1D7E701221D21D020FFF724FF2E
:10328000FF2800D1CFE702223721D020FFF71CFF13
:10329000FF2800D1C7E700223821D020FFF714FF14
:1032A000FF2800D1BFE700226A21D020FFF70CFFE2
:1032B000FF2800D1B7E74FF4FA7002F0BDFE0020FE
:1032C000B1E70000C000002010B502E0C82002F005
:1032D000B3FEFFF797FFFF28F8D010BD00B585B00B
:1032E0000121880300F006FD0121022000F0E2FC2C
:1032F0004FF48070039000208DF810008DF81200BC
:1033000001208DF8130002208DF8110003A9134845
:10331000FFF710FA0821012000F070FD4FF48070D3
:10332000009000208DF804000C208DF8050001208D
:103330008DF806006846FFF757F917208DF808004A
:1033400008208DF8090000208DF80A0001208DF872
:103350000B0002A800F0B0FB05B000BD0004024065
:103360002DE9F04104460D4616461F463B463246BF
:1033700029462046FFF76CFDFF2801D1BDE8F0810A
:103380000020FBE710B50E232C4A3B21D020FFF78D
:10339000E7FF2A4840782949097840EA012000B22D
:1033A000274908802548C0782449897840EA0120C7
:1033B00000B223494880214840792049097940EAF0
:1033C000012000B21E4988801C48C0791B498979B8
:1033D00040EA012000B21A49C8801848407A1749CB
:1033E000097A40EA012000B215490881084600899F
:1033F000C989084400B2124908811048C07A0F49AF
:10340000897A40EA012000B20D4948810846408986
:10341000098A084400B20A4948810848407B0749A4
:10342000097B40EA012000B205498881084680896D
:10343000498A084400B20249888110BD74310120D4
:103440006031012000B52DED108B81B0F0EE404AC7
:10345000B0EE605AF0EE415AF0EE613AB0EE423A08
:10346000B0EE624AE94890ED000AB1EE400A20EE63
:10347000240AE748D0ED000A00EEC50AE548D0ED81
:10348000000A00EEE50AF6EE000A20EE200AF0EE51
:1034900040EAE14890ED000A20EE240ADC48D0ED35
:1034A000000A00EEA50ADB48D0ED000A00EEC50ACE
:1034B000F6EE000A20EE200AB0EE40FAD64890ED73
:1034C000000A20EE050AD148D0ED000A00EEE50A18
:1034D000D048D0ED000A00EEA40AF6EE000A20EE75
:1034E000200AF0EE40FACC4890ED000A20EE250AC2
:1034F000C648D0ED000A00EE850AC548D0ED000AA6
:1035000000EEE40AF6EE000A20EE200A8DED000A35
:10351000F5EEC03AF1EE10FA09D1B5EEC03AF1EE8F
:1035200010FA04D1B5EEC04AF1EE10FA7DD063EE88
:10353000A30A43EE030A44EE040AB0EE600A02F066
:10354000DBFDF0EE402A23EEA20AF0EE403A23EE35
:10355000220AB0EE403A24EE220AB0EE404AAE48CB
:1035600090ED000AF0EE000A20EE20AAA74890EDA8
:10357000000AF0EE000A60EE20AAA54890ED000ACD
:10358000F0EE000A20EE20BAA24890ED000AF0EE1C
:10359000000A60EE20BAA04890ED000AF1EE000AA1
:1035A00020EE20CA994890ED000AF1EE000A60EE84
:1035B000208A974890ED000AF1EE000A20EE209A4A
:1035C000924890ED000AF2EE000A60EE20CA9048A0
:1035D00090ED000AF2EE000A20EE20DA8E4890ED1F
:1035E000000AD0ED000A60EE20DA884890ED000A6B
:1035F000D0ED000A20EE206A854890ED000AD0ED5B
:10360000000A60EE206A834890ED000AD0ED000ABF
:1036100020EE20EA2CEE260A0BEE230A0CEE060A18
:103620000AEEC30AF0EE409A00E087E028EE8E0A28
:103630000BEEE30AF1EE000A6DEEA00A734890ED7E
:10364000001A00EE810A0AEE430A30EE680A0CEE18
:10365000860A0CEEA60A08EE840AB0EE407AB1EEB5
:10366000000A2DEE800A6A48D0ED000A20EE200AFA
:103670000AEE230A09EE0E0A0BEEC30A30EE490ADF
:103680000DEE060A0DEE260A09EE040AF0EE407A67
:10369000B1EE000A26EE000A5E48D0ED000A20EEE8
:1036A000200A0AEEE30AF1EE000A66EEA00A90EDA7
:1036B000001A00EE810A0BEE430AB0EE408A69EE72
:1036C000A90A47EE070A47EEA70A48EE080AB0EE35
:1036D000600A02F011FDF0EE402A29EEA20AF0EE97
:1036E000409A27EE220AB0EE407A27EEA20AF0EEC8
:1036F000407A28EE220AB0EE408A4848D0ED000A0F
:10370000B0EE6E0A00EEE90AF0EE40EAD0ED000AF3
:10371000B0EE4F0A00EEC70AB0EE40FAD0ED000A54
:10372000B0EE6F0A00EEE70AF0EE40FA9DED000AF7
:10373000D0ED000A00EEC80A8DED000A364890ED83
:10374000000ADFED370A0EEEA00A80ED000A2F48CE
:1037500090ED000ADFED320A0FEE200A80ED000A3C
:103760002B4890ED000ADFED2E0A0FEEA00A80ED47
:10377000000A2848D0ED000A9DED000A9FED281AA6
:1037800040EE010AC0ED000A2348D0ED000A90ED9A
:10379000001A60EE810A1D4890ED001AD0ED001A63
:1037A00041EE210A1A4890ED001AD0ED001A41EEC0
:1037B000210A184890ED001AD0ED001A41EE210AB6
:1037C000B0EE600A02F098FCF0EE402A124890ED4C
:1037D000000A20EE220A80ED000A0C4890ED000A53
:1037E00020EE220A80ED000A094890ED000A20EE42
:1037F000220A80ED000A074890ED000A20EE220A16
:1038000080ED000A01B0BDEC108B00BDB4000020BB
:10381000B8000020BC000020B0000020AC00002058
:103820006F12033B2DE9F0412DED0C8B0546002670
:1038300000272D48008800F40040002847DD0024C0
:1038400029480088A0F5404700BF00BF34E0274961
:10385000095DA1F1300004F002FF41EC1B0B391BA4
:10386000481E04F0FCFE41EC1D0BB0EE4D1AF0EECC
:103870006D1A9FED1F0B01F0D7FCB0EE40CAF0EEC1
:1038800060CA53EC1B2B51EC1C0B04F03BFF41ECCA
:10389000190B304604F0E3FE41EC1A0B53EC192BE4
:1038A00004F09AFC41EC180B04F0AAFE0646002036
:1038B0000E490855601CC4B2BC42C8DB00200A494E
:1038C00008800D48066001200C49086007E00B489D
:1038D0000068012802D10848066800E06E68AE6002
:1038E000BDEC0C8BBDE8F08194000020242F01205A
:1038F0000000000000002440C8000020CC00002090
:1039000010B588B004460121402000F0D3F9012110
:10391000202000F0EFF9082209212348FEF752FF8A
:1039200008220E212048FEF74DFF4FF484400690F8
:1039300002208DF81C008DF81D0000208DF81E005F
:1039400001208DF81F0006A91748FEF7F3FE029428
:103950000020ADF80C00ADF80E00ADF81000ADF889
:1039600014000C20ADF8120002A9104800F0AEFFC0
:1039700001210E4800F046FF012240F225510B487C
:1039800000F07FFF47208DF8040007208DF8050028
:1039900000208DF8060001208DF8070001A800F036
:1039A0008BF808B010BD0000001802400014014060
:1039B0004160704710B502A0FCF7D0FC10BD0000BC
:1039C0004D656D4D616E6167655F48616E646C65E4
:1039D000720000004FF0FF32828080ED070A817292
:1039E000002202804280C28002818281DFED060ACD
:1039F000C0ED040ADFED040AC0ED050ADFED020A9E
:103A0000C0ED060A704700000000000030B5B0F9B4
:103A100004305B1C13B98180018030BD0388438072
:103A200001800281837ABBB3038844881B1B1BB2CD
:103A3000C380B0F90630194CA34204DA83895B1CB9
:103A40001BB2838109E0B0F9063041F26804A34259
:103A500003DD83895B1E1BB28381B0F90040B0F99E
:103A60000450631BDC1703EBD44464134FF4B475A8
:103A700014FB05F4B0F90C50C5EB051505EB450535
:103A800004EBC50400EE104AB8EEC00AD0ED070AF8
:103A900080EE201A80ED041A00BFBEE798EFFFFF0A
:103AA00010B502A0FCF75AFC10BD00004E4D495F56
:103AB00048616E646C65720070B5002100230F22AE
:103AC000C4781CB3174C246804F4E064C4F5E064C3
:103AD000C4F30721C1F10404E3B20A4144789C40D5
:103AE000E1B28478144021430C07210E0E4C057876
:103AF0006155047804F01F050124AC4005786D1170
:103B0000AD0005F1E025C5F8004109E0047804F0B6
:103B10001F050124AC40054D0678761145F8264076
:103B200070BD00000CED00E000E400E080E100E08A
:103B300002490143024A1160704700000000FA0583
:103B40000CED00E0014691ED051A81ED071A81EDBB
:103B5000050AC1ED060A486B886391ED051AD1ED9F
:103B6000061A31EE611A81ED081A91ED001AD1EDB5
:103B7000081A21EE211A81ED0A1A91ED0B1AD1EDE6
:103B8000011A91ED082A01EE821A81ED0B1A91EDCE
:103B90000B1AD1ED041AF1EE611AB4EEE11AF1EE4E
:103BA00010FA02DD91ED0B1A05E091ED041AB1EE69
:103BB000411A81ED0B1AD1ED041AB4EEE11AF1EEBF
:103BC00010FA02D291ED0B1A01E091ED041A81ED89
:103BD0000B1A91ED0A1AD1ED0B1A31EE211AD1ED23
:103BE0000C1A31EE211ABDEEC11A81ED0D1A91EDBC
:103BF0000D1AB8EEC11AD1ED031AF1EE611AB4EE46
:103C0000E11AF1EE10FA02DD91ED0D1A07E091EDE7
:103C1000031AB1EE411ABDEEC11A81ED0D1AB8EECC
:103C2000C11AD1ED031AB4EEE11AF1EE10FA04D282
:103C300091ED0D1AB8EEC11A01E091ED031ABDEE37
:103C4000C11A81ED0D1A91ED081A81ED091A486B20
:103C50007047000080ED000AC0ED010A80ED021AF5
:103C6000C0ED031A80ED042ADFED112AC0ED052A0C
:103C7000DFED0F2AC0ED072ADFED0D2AC0ED062A81
:103C8000DFED0B2AC0ED082ADFED092AC0ED092A75
:103C9000DFED072AC0ED0A2ADFED052AC0ED0B2A69
:103CA000DFED032AC0ED0C2A0021416381637047D8
:103CB0000000000029B1064A12680243044B1A6052
:103CC00004E0034A12688243014B1A607047000007
:103CD0003038024029B1064A12680243044B1A6088
:103CE00004E0034A12688243014B1A6070470000E7
:103CF0004038024029B1064A12680243044B1A6058
:103D000004E0034A12688243014B1A6070470000C6
:103D100044380240F0B5002100220024022500268C
:103D20000223324F3F6807F00C0121B1042905D06E
:103D3000082937D105E02E4F076036E02D4F076088
:103D400033E02A4F3F1F3F68C7F38056274F3F1F7E
:103D50003F6807F03F036EB1264FB7FBF3F7DFF87C
:103D60008CC0ACF1040CDCF800C0CCF3881C07FB61
:103D70000CF40CE01E4FB7FBF3F7DFF870C0ACF1AA
:103D8000040CDCF800C0CCF3881C07FB0CF4174FC4
:103D90003F1F3F68C7F301477F1C7D00B4FBF5F769
:103DA000076002E0124F076000BF00BF0F4F3F687F
:103DB00007F0F0010909104F7A5C0768D7404760A7
:103DC0000A4F3F6807F4E051890A0B4F7A5C476855
:103DD000D7408760054F3F6807F46041490B064FA5
:103DE0007A5C4768D740C760F0BD000008380240E1
:103DF0000024F400001BB7000000002030B50022B2
:103E00008B071C0F0F2303FA04F20B4B8C1053F893
:103E100024309343084C8D1044F8253023468C10F1
:103E200053F824308C07240F00FA04F42343024C87
:103E30008D1044F8253030BD083801400CB5002005
:103E4000019000904148006840F480303F4908608C
:103E500000BF3E48006800F4003000900198401C0C
:103E60000190009818B90198B0F5A04FF1D13748EA
:103E7000006800F4003010B10120009001E0002043
:103E800000900098012860D130484030006840F030
:103E900080502E49403108602D48006840F4404071
:103EA0002B49086029480830006828490831086013
:103EB0000846006840F4004008600846006840F486
:103EC000A05008602348091F0860081F006840F0E0
:103ED0008070091F086000BF1C48006800F0007077
:103EE0000028F9D01A48006840F48030184908606A
:103EF00000BF1748406800F480300028F9D014480B
:103F0000006840F400301249086000BF1048406863
:103F100000F400300028F9D040F205700E49086026
:103F20000A480830006820F003000849083108609A
:103F30000846006840F00200086000BF03480830EF
:103F4000006800F00C000828F8D10CBD00380240D1
:103F5000007000400C5A4007003C0240042808D181
:103F60004FF0E021096941F004014FF0E0221161B6
:103F700007E04FF0E021096921F004014FF0E02251
:103F80001161704710B503F079FE012801D003F0EC
:103F90003BFB10BD10B51548006840F47000134994
:103FA00008601348006840F00100114908600020D3
:103FB0000F49083108600E4800680E4908400C4956
:103FC00008600D48091D0860081F006820F4802063
:103FD000091F0860002006490C310860FFF72EFF1A
:103FE0004FF0006001498039086010BD88ED00E0A5
:103FF00000380240FFFFF6FE1030002410B501210A
:10400000880700F02FF860B106480068401C054999
:1040100008600121880700F016F80121880700F0E8
:104020000FF810BD9000002021B1028842F08002FC
:10403000028004E002884FF67F731A4002807047C6
:10404000CA4302827047CA430282704721B1028884
:1040500042F00102028004E002884FF6FE731A402B
:104060000280704730B50246002000230024158AE4
:1040700005EA0103958905EA010413B10CB1012099
:1040800000E0002030BD1AB183890B43838102E038
:1040900083898B438381704770B5002400220023FD
:1040A000058C4FF6FE7635400584028C8388048BA0
:1040B0004FF68F752C40B51E2C400D882C43751E75
:1040C0002A408D892A434D882A43104DA84202D0A8
:1040D0000F4DA84213D14FF6F7752A40CD892A43D8
:1040E0004FF6FB752A408D882A434FF6FF652B401B
:1040F0004FF6FF552B400D8A2B434D8A2B4383806F
:1041000004838D684563028470BD00000000014097
:10411000000401400A460021018B4FF6F773194055
:10412000114301837047000000220288184B984217
:104130000ED0184B98420BD0B0F1804F08D0164BE0
:10414000984205D0154B984202D0154B984204D1A5
:104150004FF68F731A404B881A43124B984207D080
:10416000114B984204D04FF6FF431A400B891A4373
:1041700002804B68C3620B880385054B984202D0CE
:10418000044B984201D18B7A0386012383827047C6
:10419000000001400004014000040040000800400D
:1041A000000C0040001000400014004008B503F06F
:1041B00075FD009008E04FF480410448FEF729FBAC
:1041C000FA21684602F030FFF5E7000000140240D3
:1041D0002DED0C8B86B003F061FD05909FEDB10ACB
:1041E000B0EE408A022402259FEDAF0AB0EE40DA1D
:1041F0009FEDAE2ADFEDAE1A9FEDAB1ADFEDAD0AF3
:10420000B2EE0E0AAC48FFF725FD9FEDA82ADFEDC0
:10421000A81A9FEDA51ADFEDA70AB2EE0E0AA7486D
:10422000FFF718FD9FEDA12ADFEDA11A9FED9E1A61
:10423000DFEDA00AB2EE0E0AA148FFF70BFD9FEDDD
:104240009B2ADFED9B1A9FED981ADFED9A0AB2EEDA
:104250000E0A9C48FFF7FEFC9FED9B2ADFED9A1AA1
:104260009FED911ADFED900AB2EE040A9748FFF72E
:10427000F1FC9FED952ADFED8E1A9FED8B1ADFED95
:104280008A0AB0EE000A9248FFF7E4FC08E1914880
:10429000B0F90000002803DB8E48B0F9000003E00D
:1042A0008C48B0F900004042052801DA012000E006
:1042B000022004468848D0ED008A8849B1F90C00F4
:1042C00004F0CDF941EC1B0B9FED850B53EC102B4B
:1042D00004F03EF841EC1A0B03F04CFF09EE100A13
:1042E000AC420CD09FED700A784880ED0B0A9FED30
:1042F0006E0A774880ED0B0AB0EE68DA2546012C8D
:1043000013D1F0EE680AB0EE4D0A7048FFF71AFCC0
:104310006E48D0ED0D0AF8EEE00AB0EE600AF0EE5D
:10432000490A6B48FFF70EFC0EE06A48B0F900003E
:10433000404200EE900AF8EEE00AB0EE600AF0EEBD
:10434000490A6348FFF7FEFB614890ED0D0AB8EE9D
:10435000C00A10EE101A084604F0CAFC41EC1C0B0F
:104360009FED610B53EC102B03F0F2FF41EC1B0BA4
:1043700003F000FF09EE900A5648B0F9060000EE7F
:10438000100AB8EEC00A10EE101A084604F0B0FC8D
:1043900041EC1C0B9FED560B53EC102B03F0D8FF98
:1043A00041EC1B0B03F0E6FE0AEE100A4948B0F997
:1043B0000400404200EE100AB8EEC00A10EE101AD7
:1043C000084604F095FC41EC1C0B9FED490B53ECA7
:1043D000102B03F0BDFF41EC1B0B03F0CBFE0AEEEC
:1043E000900AB0EE691AF0EE4A0AB0EE6A0AFDF7DA
:1043F000D5FF01A8FDF77AFE3F48B0F9080001EEAD
:10440000100AB8EEC11A21EE081AF0EE410A9DED2D
:10441000011AB8EEC11AB0EE410A2748FFF792FB25
:104420003648B0F9080001EE100AB8EEC11A21EEC4
:10443000081AF0EE410A9DED021AB8EEC11AB0EE6C
:10444000410A1E48FFF77EFB2D48B0F9080001EE37
:10445000100AB8EEC11A21EE081AF0EE410A9DEDDD
:10446000031AB8EEC11AB0EE410A1548FFF76AFB0D
:104470002448B0F9080001EE100AB8EEC11A21EE86
:10448000081AF0EE410A9DED041AB8EEC11AB0EE1A
:10449000410A0C48FFF756FB0A2105A802F0C4FDAB
:1044A000F5E600007A5B563D000000000000FA448B
:1044B00000007A459A99993EF82F01203430012066
:1044C00070300120AC30012000007A44E830012037
:1044D00024310120F02E0120082F0120603101201D
:1044E00066666666666630400000000000A0944084
:1044F0000000000000A084405C2E0120BC2E0120A2
:104500009C2E01207C2E012008B503F0C7FB0090F3
:1045100005E0FEF783F90521684602F085FDF8E71E
:1045200008B503F0BBFB009000210848FFF740FAF4
:104530000AE002F031FC0548FFF774F902F056FC7E
:104540003221684602F070FDF3E70000EC2F0120F5
:104550002DED028B82B003F0A1FB019017E002F079
:104560001BFC0B4890ED000A10EE101A084604F0F0
:10457000BFFB41EC180B53EC182B06A0FBF7EEFE2B
:1045800002F034FC4FF4FA7101A802F04DFDE6E7A9
:10459000082F01205961773A202566200D0A000076
:1045A0001CB512E00948407A02280BD10020009087
:1045B000034602464FF4007101900548FDF750FD97
:1045C00002F016FF642002F001FDEBE7F02E01205F
:1045D000006400401CB5044602F0DEFBFEF798FBC9
:1045E000FCF7F4FFFCF73CFFFDF7CEF9FCF7BAFF50
:1045F000FDF746F9FDF7DCF8FEF770FEFEF764FE06
:10460000FEF7EAFD0020062103464FF4FA72CDE9D9
:10461000001020A1244803F001FB002006210346DE
:104620004FF4FA72CDE9001020A1244803F0F6FA05
:104630000020052103464FF4C872CDE9001020A1E7
:10464000234803F0EBFA0020072103464FF4FA72E7
:10465000CDE900101FA1234803F0E0FA0020032158
:1046600003464FF4C872CDE900101FA1214803F0A2
:10467000D5FA0020032103464FF4C872CDE900109B
:104680001DA1214803F0CAFA002002F037FD02F014
:10469000ADFB1CBD5461736B5F4D6167696352650F
:1046A0006365697665000000214500085461736BFD
:1046B0005F4D6167696353656E6400005145000892
:1046C0005461736B5F4779726F73636F706500003D
:1046D000094500085461736B5F536166655F4D6FF8
:1046E00064650000A14500085461736B5F426C690A
:1046F0006E6B0000AD4100085461736B5F436861ED
:104700007373697300000000D141000810B51348AD
:104710008088C4B211480088C4B200211048FDF757
:10472000BBFE0F48001D0068012803D10D490E484B
:10473000FDF73EFE0D490A48FDF794FE00BF08480C
:10474000FDF7B5FE0028FAD113210548FDF7E6FE76
:1047500001210348FDF7A0FE10BD0000001001403C
:1047600040640240DC2E0120F02E012000003010B9
:1047700010B540F225511F4800F059F840B11D48CE
:1047800000F00EF9C4B24FF400611B48FEF741F887
:104790001A48008800F4004058BB1848008800F40C
:1047A000804060B10A2C03D000201449088020E02A
:1047B0001248008840F400401049088019E00D2C90
:1047C00006D10E48008840F480400C49088010E073
:1047D0000A480088C0F30D0009490C5407480088B6
:1047E000401C0649088008460088C72801DD0020D3
:1047F000088010BD00140140001002409400002009
:10480000242F012021B1828942F40052828104E0E8
:1048100082894DF6FF731A40828170471AB1838AEC
:104820000B43838202E0838A8B438382704770B597
:104830000246002400230025002040F66A16B142FB
:1048400000D100BFC1F3421501F01F03012606FA93
:1048500003F3012D02D19689334006E0022D02D1E7
:10486000168A334001E0968A33400C12012606FA7C
:1048700004F41688344013B10CB1012000E000208C
:1048800070BDF0B50346002400260025002040F648
:104890006A17B94200D100BF1846C1F3421401F0B3
:1048A0001F06012707FA06F5012C01D10C3004E0A0
:1048B000022C01D1103000E014301AB107682F43E8
:1048C000076002E00768AF430760F0BD2DE9FF47CE
:1048D00005460E460024A14600BFA046B08900B19F
:1048E00000BF2C8A24F44054F08804432C82AC8905
:1048F00041F20C608443B0883189084371890843D0
:104900000443AC81AC8A24F44074B0890443AC8283
:104910006846FFF7FFF92048854202D01F488542CC
:1049200002D1DDF80C9001E0DDF80890A88900F4D0
:10493000004040B109EBC90000EB091031684900A3
:10494000B0FBF1F707E009EBC90000EB0910316893
:104950008900B0FBF1F76420B7FBF0F004012009F7
:10496000642101FB1078A88900F4004040B1322096
:1049700000EBC800B0FBF1F000F00700044308E0D2
:10498000322000EB08106421B0FBF1F000F00F00C2
:1049900004432C81BDE8FF87001001400014014052
:1049A00001468888C0F308007047000010B502A0D7
:1049B000FBF7D4FC10BD0000557361676546617557
:1049C0006C745F48616E646C6572000003B401989A
:1049D0004100009850EAC12018BF04204A0D18BFBA
:1049E00040F0010040F2FF72B2EB515F08BF40F0AF
:1049F0000200012808BF052002B070470000000037
:104A000070B5C1482DED020B2DED0E8B82B0119DBE
:104A100025F000449FEDBEDB9FEDBFEB84423EDB03
:104A2000A4F140511098A1F17F6108430FD0BC4818
:104A3000844202DC28D1109830B39DED100B02B0F7
:104A4000BDEC0E8B02B0BDE8704001F0A9BA9DED3F
:104A5000100B53EC1D2B51EC100B03F053FE9DED8E
:104A6000100B41EC180B53EC1E2B51EC100B03F008
:104A700049FE53EC182B03F0AFFB41EC100B02B0D6
:104A8000BDEC0E8B02B070BD0120FBF723FD02B020
:104A9000BDEC0E8B02B0BDE8704001F095BAA148A4
:104AA0009FEDA18B844256DA9DED100BB4F1795F36
:104AB0000ADA51EC100BFFF789FF042808BF01F058
:104AC000A3FA9DED100BDAE753EC102B51EC100B11
:104AD00003F018FE41EC190B95480621B0EE490A87
:104AE000F0EE690A784401F0C7F953EC192B51EC48
:104AF000100B03F007FE41EC1A0B8E48B0EE490A8A
:104B0000F0EE690A0421784401F0B6F953EC192B50
:104B100051EC100B03F0F6FD53EC182B03F05CFB8B
:104B200041EC100B51EC1A0B53EC102B03F010FC62
:104B3000CDE900019DED000B53EC102B9DED100B0A
:104B400051EC100B03F0DEFD9DED101B53EC112B0F
:104B500003F042FBD2E09DED100B51EC100B01F085
:104B6000B1FA53EC182B03F001FF9FED730BCDE965
:104B7000000153EC102B9DED000B51EC100B03F0DA
:104B8000C1FD41EC190B6E480621B0EE490AF0EE6A
:104B9000690A784401F070F953EC192B51EC100BB1
:104BA00003F0B0FD41EC1B0B6648B0EE490AF0EE95
:104BB000690A0421784401F05FF953EC192B51EC98
:104BC000100B03F09FFD53EC182B03F005FB41EC99
:104BD0001C0B51EC190B02F05DF841EC180B5A4814
:104BE0009FED5BABA04222DC53EC1C2B51EC1B0B6A
:104BF00003F0AEFBCDE900019DED000B51EC180B6D
:104C000053EC102B03F07EFD53EC182B03F0E4FA69
:104C100053EC1A2B03F076FD53EC1D2B03F07EFFB3
:104C200053EC1E2B03F0A2FE41EC100B5FE08DED68
:104C3000008B002000909DED000B51EC180B53EC05
:104C4000102B03F0C9FA9DED000B41EC1E0B53EC49
:104C5000102B51EC100B03F055FD53EC192B03F006
:104C600085FE53EC1E2B03F073FB41EC190B53EC48
:104C70001C2B51EC1B0B03F06BFB41EC1B0B53EC9F
:104C80001A2B51EC190B03F03DFD53EC1D2B03F0D7
:104C90006DFE41EC190B53EC1A2B51EC180B03F081
:104CA00031FD53EC1B2B03F02DFD53EC192B03F0BE
:104CB00035FF9DED000B41EC180B53EC1A2B51EC1A
:104CC000100B03F01FFD9FED249B53EC192B03F0F9
:104CD0004DFE41EC100B51EC180B53EC102B03F074
:104CE0001DFF53EC192B03F041FE41EC100B002D7E
:104CF0003FF7C5AE51EC100B03F030FA41EC100B4E
:104D0000BDE60000000000000000F03F00000000D1
:104D1000075C143326A6913C182D4454FB21F93F1F
:104D20000000F07F0000E03F000000000000F03FC6
:104D3000F843000006440000000000000000E03FCF
:104D40004A430000584300003333EF3F00000000A7
:104D50000000000000000040182D4454FB21E93FF2
:104D600070B59B482DED020B2DED068B079D25F0B0
:104D70000044A04218DC9748844202DC0AD106981D
:104D800040B19DED060BBDEC068B02B0BDE8704056
:104D900001F006B9002DCCBF9FED8F0B9FED900B5E
:104DA000BDEC068B02B070BD8F48A04215DD8F4868
:104DB000A042D8BF4FF0FF3458DD9DED060B51ECFB
:104DC000100BFFF703FE042808BF01F01DF99DED4D
:104DD000060BBDEC068B02B070BD9DED060B51ECD1
:104DE000100B01F06FF9CDE9060181489FED828B30
:104DF000A0423CDD8248A0421FDD00249FED82AB33
:104E00009DED060B53EC1A2B51EC100B03F0E4F95B
:104E10009DED060B41EC190B53EC1A2B51EC100BCA
:104E200003F070FC53EC182B03F078FE53EC192BB5
:104E300003F08EFACDE9060149E09DED060B012451
:104E400053EC182B51EC100B03F0C6F99DED060B3B
:104E500041EC190B53EC182B51EC100B03F05EFED8
:104E600053EC192B03F074FACDE906012FE06848E2
:104E7000A0421FDD02249FED689B9DED060B53ECC5
:104E8000192B51EC100B03F03DFC53EC182B03F0E5
:104E9000A3F99DED060B41EC180B53EC192B51ECCB
:104EA000100B03F03BFE53EC182B03F051FACDE945
:104EB00006010CE09DED060B032453EC102B9FED37
:104EC000580B51EC100B03F043FACDE906019DEDB0
:104ED000060B53EC102B51EC100B03F013FC41ECC0
:104EE000180B53EC182B03F00DFC41EC190B4E483A
:104EF0000621B0EE490AF0EE690A784400F0BCFFE2
:104F000053EC182B51EC100B03F0FCFB41EC180B8D
:104F10004648B0EE490AF0EE690A0521784400F0EF
:104F2000ABFF53EC192B51EC100B03F0EBFB41ECF6
:104F3000100B51EC180B53EC102B002C0EDA03F075
:104F40004BF99DED061B53EC112B03F0DBFB9DEDA4
:104F5000061B53EC112B03F009FD35E003F03CF97F
:104F60009DED061B53EC112B03F0CCFB41EC100B19
:104F70002F48784400EBC40090ED001B51EC100B5F
:104F800053EC112B03F0CAFD9DED061B53EC112BC6
:104F900003F0C4FD41EC100B2648784400EBC4003C
:104FA00090ED001B51EC100B53EC112B03F0DEFCC9
:104FB00041EC100B002DA2BFBDEC068B02B070BD02
:104FC00051EC100B03F0CAF841EC100B01E70000A4
:104FD000000010440000F07F182D4454FB21F93FDD
:104FE000182D4454FB21F9BF0000DC3F0000203E97
:104FF0000000F33F00000000000000000000F03F50
:105000000000E63F0000000000000000000000403B
:105010000080034000000000000000000000F83F96
:10502000000000000000F0BF22410000D840000056
:10503000624000001A40000070B56B4E2DED040B6D
:105040002DED028B82B0DDF81CC0DDE905235C424A
:105050002CF000411C4341EAD474049D22F000402E
:10506000B44205D86C422C4340EAD474B4420BD904
:105070009DED061B9DED040B02B0BDEC028B04B050
:10508000BDE8704000F096BFACF14054A4F17F64DD
:105090001C430BD0022404EAAC7444EAD2740543E6
:1050A0009FED538B9FED542B07D015E09DED040B26
:1050B00051EC100B00F0B8FF42E0002C11BF012CA6
:1050C0009DED040B02B0BDEC028B04BF04B070BDBB
:1050D000022C38D0032C3BD00B439FED491B9FED96
:1050E0004A0B0AD0B14218D1B04209D121F0804117
:1050F00020F08040079105900FE0002A15DA10E0BB
:10510000434B7B44002C08BF93ED000B0DD0012CCA
:1051100010D0022C17D0032C1AD0B0421DD1002A77
:1051200003DAB0EE410AF0EE610A02B0BDEC028B88
:1051300004B070BD93ED000B51EC100B03F00EF8B2
:1051400041EC100BF1E7B0EE480AF0EE680AECE72C
:10515000B0EE420AF0EE620AE7E7401A00153C287A
:10516000C8BF8DED000B19DCBCF1000FBEBF10F104
:105170003C0F9FED290B8DED000B0FDB9DED060B1A
:1051800053EC102B9DED040B51EC100B03F0E0F8E9
:1051900000F098FF00F048FFCDE90001002C08BFA7
:1051A0009DED000BC1D0012C10D0022C9FED1C0BEB
:1051B00053EC102B9DED000B51EC100B0DD003F0B8
:1051C000ADFC53EC182B03F0A9FCB9E7019880F073
:1051D000004001909DED000BA7E703F09FFC53EC0E
:1051E000182B03F0C3FBABE70000F07F00000000CA
:1051F000182D4454FB210940182D4454FB2109C0AB
:10520000182D4454FB21F9BF182D4454FB21F93FBC
:105210004A3F000000000000000000000000000005
:10522000075C143326A6A13C2DE9F04D2DED040BAF
:105230002DED0E8B96B0DDE92550279CDDF890A072
:1052400025F0004624F00048BAF1000F14BF0121F8
:10525000002101EB4502FC4953184A1093422AD31E
:10526000002814BF0123002303EB44030B44F74938
:105270008B4220D358EA00019FEDF59B76D0DFF8F2
:10528000D8B35D4503D1BAF1000F05D188E0BAF17A
:10529000000F08BF002100D0012101EB450111F5ED
:1052A000001F08D8002814BF0121002101EB440190
:1052B00011F5001F0BD99DED261B9DED240B16B09B
:1052C000BDEC0E8B04B0BDE8F04D00F073BE0027BE
:1052D000002DBCBFE149884521DAE1498845A8BFD6
:1052E00002271CDAC3451ADCDE4901EB28511429D8
:1052F00008DDC1F1340220FA02F101FA02F2824221
:105300000DD108E058B9C1F1140228FA02F101FAEE
:1053100002F2424503D101F00101C1F1020756EA50
:105320000A0124D1002C22DA002D18BF022F01D04F
:10533000012F0AD00220FBF7CDF816B0BDEC0E8B82
:1053400004B0BDE8F04D00F013BE0220FBF7C2F838
:1053500000F00EFE51EC100B02F000FF41EC100BC0
:1053600016B0BDEC0E8B04B0BDE8F08D18E09FEDDB
:10537000BEAB9FEDBF8B002871D1B848804522D1CC
:1053800005F1804010F5801008BFBAF1000F07D07A
:10539000B3450ADC002CA8BF9DED260BE0DA0DE03A
:1053A000B0EE490AF0EE690ADAE7002C06DA9DED64
:1053B000260B51EC100B02F0D1FE6FE0AE487844A2
:1053C00090ED000BCCE7D8454DD1002C48DA2EB13A
:1053D00086423AD1BAF1000F42D126E0BAF1000F6D
:1053E00013D00220FBF776F800F0FEFD8DED020BE6
:1053F0009DED240B8DED000B10EE900A039961F3E7
:105400001E0003909DED020BAAE78DED02AB9DED12
:10541000240B1AEE901A10EE900A8DED000B61F33A
:105420001E0003909DED020B9AE78DED028B9DED22
:10543000240B18EE901A10EE900A8DED000B61F31C
:105440001E0003909DED020B8AE709DA9DED240B07
:1054500051EC190B53EC102B02F07AFF1EE020E008
:105460009DED240B7CE786421BDAB4F1804F0DD012
:10547000A4F10050B0F1FF5013D1002D11DB9DEDD0
:10548000240B51EC100B01F005FC07E09DED240B03
:1054900053EC102B51EC100B00F0C2BC41EC100B84
:1054A0005EE79DED240B51EC100B00F00BFEBAF102
:1054B000000FCDE90E0142D19FED710B46B3A6F16D
:1054C000E040B0F17F600CD05E4538D1002D00DAAD
:1054D000A7B3022F0CBF01204FF0FF3003F0BFF83D
:1054E000DCE7002D01DD002C0DDA002D01DD002CA4
:1054F0001FDB002D16DA002C14DB012F08BF9FEDF7
:10550000620B3FF42DAFB0EE4A0AF0EE6A0A27E7CD
:10551000022F18BF002D0CD0012F0AD1002DFFF64D
:105520001FAF06E0002DB8BF002C08DA012F3FF4B2
:1055300017AFB0EE480AF0EE680A11E71BE0012051
:1055400000EBE57050EA070115D0791EB0EE498AEC
:10555000F0EE698A084308BF9FED4D8B4E48002549
:10556000804570DD4D494E48884514DDB0420DDB65
:10557000002C19DB2FE00120FAF7ACFF16B0BDECD0
:105580000E8B04B0BDE8F04D00F01EBDB34502DC4B
:10559000002C09DC1FE0864202DA002C1BDA03E053
:1055A0005E452BDD002C16DD0220FAF793FF00F09C
:1055B0001BFD8DED020B53EC1A2B51EC180B03F075
:1055C000A1F8CDE900010399019861F31E00039051
:1055D0009DED020BC4E60220FAF77CFF00F014FDFB
:1055E00010EE901A18EE900A8DED020B8DED008BE7
:1055F00061F31E0003909DED020BB1E69DED0E0BD5
:1056000053EC192B51EC100B03F088FA9FED260B8D
:10561000CDE9080153EC102B9DED080B51EC100B5C
:1056200003F070F89FED221B53EC112B03F09EF951
:105630009DED081B53EC112B03F064F89FED1E1B2E
:1056400053EC112B3CE08CE0FFFF1F00FFFF0F002D
:10565000000000000000F03F0000F03F0000F07F7D
:105660000000404301FCFFFF000000000000F07F4D
:1056700000000000000000008E3C00000000000060
:105680000000000000000080000000000000F0FFAB
:10569000000000000000F0BF0000E0410000F04307
:1056A000FFFFEF3F00000000000000000000D03FBF
:1056B000555555555555D53F000000000000E03FB9
:1056C00003F054F99DED080B41EC1A0B53EC102B31
:1056D00051EC100B03F016F853EC1A2B03F012F8F0
:1056E00041EC1A0B9FEDFE0B53EC102B9DED080BBC
:1056F00051EC100B03F006F841EC1B0B9FEDFA0B7D
:1057000051EC1A0B53EC102B02F0FCFF41EC1A0B7E
:105710009FEDF70B53EC102B9DED080B51EC100B8C
:1057200002F0F0FF53EC1A2B03F0F8F941EC1A0BDE
:1057300051EC1B0B53EC1A2B02F04EFD0690CDE9F9
:1057400006519DED060B53EC1B2B51EC100B03F097
:10575000E5F953EC1A2B03F009F941EC100B00F0BA
:10576000A1B90020B6F5801F0EDA9FEDE30B53ECD4
:10577000102B9DED0E0B51EC100B02F0C3FFCDE989
:105780000E016FF034000E4600EB2650A0F2FF37FA
:10579000C6F31300DA4940F07F6646F0405688426F
:1057A000D8BF002408DDD7498142C8BF012403DCEB
:1057B0000024A6F580167F1CD348784400EBC40073
:1057C0000F9690ED00CB9DED0E0B53EC1C2B51EC86
:1057D000100B03F0A3F99DED0E0B41EC1B0B53ECEA
:1057E0001C2B51EC100B02F0F7FC41EC100B51ECB0
:1057F000190B53EC102B02F0ABFD41EC1D0B51ECDF
:105800001B0B53EC1D2B02F07DFF41EC1A0BBF4824
:105810008DED10AB7844109590ED000B4FF00050DB
:1058200040EA660000EB84408DED080B00F5002097
:1058300009909DED080B53EC1C2B51EC100B03F061
:105840006DF99DED0E1B53EC112B03F08FF841EC1D
:10585000100B53EC102B9DED100B51EC100B02F0C4
:1058600051FF9DED080B41EC1C0B53EC102B9DEDF3
:10587000100B51EC100B02F045FF53EC1B2B03F007
:1058800075F853EC1C2B03F049F953EC1D2B02F077
:1058900039FF41EC1C0B53EC1A2B51EC1A0B02F0A4
:1058A00031FF41EC1B0B9A480621B0EE4B0AF0EE9B
:1058B0006B0A784400F0E0FAB0EE401AF0EE601A9D
:1058C000B0EE41DAF0EE61DA53EC1B2B51EC1B0B1E
:1058D00002F018FF53EC1D2B02F014FF9DED100B8E
:1058E00041EC1B0B53EC1A2B51EC100B02F074FC27
:1058F00053EC1C2B02F006FF53EC1B2B02F06CFC4C
:105900009DED100B41EC1B0B53EC102B51EC100BCD
:1059100002F0F8FE41EC1D0B9FED7FEB53EC1E2BCC
:1059200002F05AFC53EC1B2B02F056FC0890CDE918
:1059300008519DED080B53EC1E2B51EC100B03F09E
:10594000EDF853EC1D2B03F0E9F853EC1B2B03F09F
:105950000DF89DED080B41EC1D0B53EC102B9DED4C
:10596000100B51EC100B02F0CDFE41EC1B0B53EC75
:105970001A2B51EC1D0B02F0C5FE9DED080B41ECFE
:105980001A0B53EC102B51EC1C0B02F0BBFE53EC2A
:105990001A2B02F021FC41EC1A0B51EC1B0B53ECBF
:1059A0001A2B02F019FC0C90CDE90C519DED0C0B5B
:1059B00053EC1B2B51EC100B03F0B0F853EC1A2BEB
:1059C00002F0D4FF41EC1B0B9FED550B53EC102B59
:1059D0009DED0C0B51EC100B02F094FE41EC1A0BF8
:1059E0009FED510B51EC1B0B53EC102B02F08AFE78
:1059F00041EC1B0B9FED4E0B53EC102B9DED0C0B54
:105A000051EC100B02F07EFE53EC1B2B02F0E4FB7A
:105A100041EC100B4848784400EBC40090ED001BAB
:105A200051EC100B53EC112B02F0D6FB41EC1B0B8D
:105A3000384602F014FECDE9080153EC1B2B51EC63
:105A40001A0B02F0C9FB41EC100B3C48784400EB08
:105A5000C40090ED00CB51EC100B53EC1C2B02F06A
:105A6000BBFB9DED081B53EC112B02F0B5FB069020
:105A7000CDE906519DED080B53EC102B9DED060B67
:105A800051EC100B03F04AF853EC1C2B03F046F8D2
:105A900053EC1A2B03F042F853EC1B2B02F066FF79
:105AA00041EC100B9DED261B53EC102B8DED001BD4
:105AB00000959DED260B51EC100B02F023FE9DEDA1
:105AC000000B41EC1A0B53EC102B9DED260B51EC07
:105AD000100B03F023F89DED061B53EC112B2FE068
