:020000040800F2
:10000000F84601205D030008313B0008D52D0008AB
:10001000453A0008611B00089D4A000800000000E6
:10002000000000000000000000000000A502000821
:100030000D26000800000000F90200081540000825
:1000400077030008770300087703000877030008A8
:100050007703000877030008770300087703000898
:100060007703000877030008770300087703000888
:100070007703000877030008770300087703000878
:100080007703000877030008770300087703000868
:10009000811B0008770300080D1C0008812600085A
:1000A0007703000877030008770300087703000848
:1000B0008D400008770300087703000877030008E5
:1000C0007703000877030008770300087703000828
:1000D00077030008FD47000877030008770300084E
:1000E0007703000877030008770300087703000808
:1000F00077030008770300087703000877030008F8
:1001000077030008770300087703000877030008E7
:1001100077030008770300087703000877030008D7
:1001200077030008770300087703000877030008C7
:1001300077030008770300087703000877030008B7
:100140002D1C0008770300087703000877030008D8
:100150007703000877030008770300086148000868
:100160007703000877030008770300087703000887
:1001700077030008770300087703000800000000F9
:100180007703000877030008770300087703000867
:100190007703000877030008770300087703000857
:1001A00000000000000000007703000800F002F8E3
:1001B00000F069F80AA090E8000C82448344AAF198
:1001C0000107DA4501D100F05EF8AFF2090EBAE896
:1001D0000F0013F0010F18BFFB1A43F0010318477B
:1001E0000C9000002C9000000A444FF0000C10F816
:1001F000013B13F0070408BF10F8014B1D1108BFA5
:1002000010F8015B641E05D010F8016B641E01F844
:10021000016BF9D113F0080F1EBF10F8014BAD1C94
:100220000C1B09D16D1E58BF01F801CBFAD505E0B2
:1002300014F8016B01F8016B6D1EF9D59142D6D30C
:10024000704700000023002400250026103A28BF34
:1002500078C1FBD8520728BF30C148BF0B60704738
:10026000662908F04086002070471FB508F031FE6F
:1002700000F034FC04000020002107F0D9FFE0600A
:100280001FBD10B510BD00F055FD1146FFF7EDFF85
:1002900005F0D0FF00F073FD03B4FFF7F2FF03BCDD
:1002A00000F0B6FD2A4B19680868B0E8F04F80F3FB
:1002B0000988BFF36F8F4FF0000080F311887047FB
:1002C0000000000006480068006880F3088862B6F5
:1002D00061B6BFF34F8FBFF36F8F00DF00BF00BF6A
:1002E00008ED00E0DFF80C00016841F470010160E6
:1002F000704700BF88ED00E0EFF30980BFF36F8F18
:10030000134B1A681EF0100F08BF20ED108A20E969
:10031000F04F106008B44FF0500080F31188BFF325
:100320004F8FBFF36F8F07F0EBF84FF0000080F3B3
:10033000118808BC19680868B0E8F04F1EF0100F6B
:1003400008BFB0EC108A80F30988BFF36F8F704745
:1003500010000020EFF30580704700000948804737
:1003600009480047FEE7FEE7FEE7FEE7FEE7FEE797
:10037000FEE7FEE7FEE7FEE704480549054A064BAF
:100380007047000025400008AD010008F832012048
:10039000F8460120F8420120F84201200FB4044938
:1003A00010B503AA029800F033FB10BC5DF814FBF3
:1003B000BC01002070B5044685690068C10601D5FE
:1003C000302600E02026C00707D070BDD4E9012107
:1003D00030469047206A401C20626D1EF6D570BDE5
:1003E00070B5044685690078C00707D170BDD4E9AF
:1003F000012120209047206A401C20626D1EF6D506
:1004000070BD2DE9F0474FF0000A89460446C0F858
:1004100020A02046E1688847002876D0252806D00D
:10042000D4E901219047206A401C2062F1E7E1688D
:10043000204600258847C4F81CA006460027C4F8BB
:1004400018A02A2E09D0304605F066FE38B304EB1A
:100450008708303EC8F8186019E059F8041B204698
:1004600004EB87029161E1688847012F064618D1A5
:10047000E069002820DA25F020051DE0D8F81800F2
:1004800000EB800006EB40003038C8F8180020462A
:10049000E1688847064605F03FFE0028EED1012FAF
:1004A0000AD02E2E08D12046E16888477F1C0646D8
:1004B000022F45F02005C4DBA069002803DA404282
:1004C00045F00105A061E80701D025F01005B6B19F
:1004D000A6F14100192802D8203645F400654A46A5
:1004E0003146204625604D46FFF7BAFE58B1012837
:1004F00006D0ED1D25F0070000F1080989E704E0AA
:1005000005F1040985E730468AE7206ABDE8F087EF
:10051000032A40F2308010F0030C00F0158011F82F
:10052000013BBCF1020F624498BF11F801CB00F807
:10053000013B38BF11F8013BA2F1040298BF00F85B
:1005400001CB38BF00F8013B11F0030300F07282C9
:10055000083AC0F0088051F8043B083A51F804CB3F
:10056000A0E80810F5E7121D5CBF51F8043B40F805
:10057000043BAFF30080D20724BF11F8013B11F810
:1005800001CB48BF11F8012B24BF00F8013B00F854
:1005900001CB48BF00F8012B704702F0FF0343EA8C
:1005A000032242EA024200F079BA7047704770476E
:1005B00010B500F097FA006810BD10B5044600F0C1
:1005C00091FA046010BD70472DE9FF4F0C461E469E
:1005D0004FF0FF378BB0D2E90001DDF860800A9060
:1005E0008A46C1F30A5505B93D46002108464FF039
:1005F0000000BAF1000F00F4400005DA00EB8000C3
:100600004FF4400101EA50004FEA9059B9F1010F4F
:1006100000DDB9460A9850EA4A000ED044F6105060
:10062000A5F2FF3545432F14B8F1000F1ED07542D7
:10063000291E1EDDC9F100021CE0B8F1010F4FF0C8
:10064000000001D0302103E0F24305E02154401CBA
:10065000B042FBDB30460022002121540B99C1F847
:100660000880C1E900200FB0BDE8F08FBD1B6D1CF4
:10067000DEE74A4600DA694206A800F0BDFA06AB9A
:1006800093E8070003AB83E8070050460A9900F09F
:10069000C6FB8DE80700A0F500501F3800900398B6
:1006A000002D09DD42F21F014A46084403A90390C8
:1006B000684600F025FE08E0A0F500504A461F38C5
:1006C00003A90390684600F02FFE8DE807000004A0
:1006D000000C03D04FF0FF30410800E01046B8F1A5
:1006E000000F03D00022009215461EE0751E05D4AF
:1006F00000F0FCF9303262556D1EF9D5B346012287
:10070000084302D000227F1C04E02078302801D169
:1007100000227F1E002A099786D01DE0112D07DADE
:1007200000F0E4F9303262556D1C50EA0102F5D157
:10073000084302D00098C8B10EE00021681E05E011
:10074000235C625C63542254401E491C8142F7DBE7
:10075000AB46A81B401E0990002004F80B000B9824
:10076000099AC0F80880C0E9002B7CE711264FF0F9
:10077000000859E72DE9F04F88460446D21D22F0C3
:10078000070191B0D1E90001CDE90A0104F096F921
:1007900002460B98C00F01D02D2007E0206881078A
:1007A00001D52B2002E0202101EAC000032A099094
:1007B00001D0072A05DB03464146204600F0DCF95C
:1007C0000BE12078800601D5E06900E00620B8F151
:1007D000650F814606D0B8F1660F18D0B8F1670FE3
:1007E00070D131E00020B9F1110F009001DB11232D
:1007F00001E009F101030AAA01A90CA8FFF7E4FE30
:10080000DDE90C70002609F10105834647E001206F
:100810004B4600904FF000470AAA01A90CA8FFF729
:10082000D3FEDDE90DB00C995D46002610B909F143
:1008300001000D18B9EB050003D4C0F1FF3609F132
:100840000105A5EB09002BE0B9F1010F01DA4FF02A
:1008500001090020B9F1110F0090484601DD112374
:1008600000E003460AAA01A90CA8FFF7ADFEDDE9E6
:100870000C704D4600268346207800070AD4AB450D
:1008800000DA5D4601A8012D04DD411911F8011CB3
:10089000302907D04F4502DA17F1040F04DA01209E
:1008A00082460FE06D1EEEE7002F02DCED1B3E449A
:1008B00003E0781CA84200DD7D1CB81B00F1010A92
:1008C0004FF000472078000703D4AA4501DB4FF022
:1008D000FF3A0021B7F1004F0DF143088DF84310A6
:1008E00024D002202B23002F01DA7F422D230A215E
:1008F000021EA0F1010000DC5FB197FBF1FC97FB49
:10090000F1F201FB1C7C17460CF1300C08F801CD0C
:10091000EEE7A8F1010003702188090501D5452102
:1009200000E06521A0F1010800F8011C09980FA959
:10093000A1EB0807FF1D00B10120411901EBEA708E
:10094000A1693844081A401EA0612078C00602D46C
:100950002046FFF72FFD099828B1D4E901219047DF
:10096000206A401C20622078C00622D52046FFF76E
:1009700021FD1EE0002E04DBB34502DD01A8805DF1
:1009800000E03020D4E901219047206A401C206219
:10099000761CAAF101005FEA000A0AD100F09EF875
:1009A000C0680168405CD4E901219047206A401C7E
:1009B0002062281EA5F10105DCDC07E0D4E9012155
:1009C00018F8010B9047206A401C2062381EA7F1DE
:1009D0000107F3DC2046FFF703FD032011B043E6D7
:1009E00001694A1C02610878704700B58FB0CDE9F3
:1009F00001310021059105497944CDE903101146E3
:100A00006846FFF7FEFC0FB000BD0000E5FFFFFFEA
:100A1000074B70B50D467B44FFF7E7FF04462846B9
:100A200000F058F910B14FF0FF3070BD204670BD96
:100A3000C357000010B5203AC0F00B80B1E8185041
:100A4000203AA0E81850B1E81850A0E81850BFF4B8
:100A5000F5AF5FEA027C24BFB1E81850A0E8185057
:100A600044BF18C918C0BDE810405FEA827C24BFAB
:100A700051F8043B40F8043B08BF7047D20728BF39
:100A800031F8023B48BF11F8012B28BF20F8023B88
:100A900048BF00F8012B70474FF000020429C0F056
:100AA000128010F0030C00F01B81CCF1040CBCF19F
:100AB000020F18BF00F8012BA8BF20F8022BA1EBF2
:100AC0000C0100F00DB95FEAC17C24BF00F8012BD6
:100AD00000F8012B48BF00F8012B70470048704711
:100AE000B4320120004870479432012030B5B0F193
:100AF0000A024FEA900E71F100034EEA817EB0EBDC
:100B00000E0061EB91014FEA101E4EEA017E10EBE0
:100B10000E0041EB11114FEA102E4EEA016E10EB60
:100B20000E0041EB11214FEA104E4EEA014E10EB40
:100B30000E0041EB1141401841F100014FEAD00095
:100B400040EA41704FEAD10110EB80054FEA810481
:100B500044EA907444EB01046D1944EB0404521B05
:100B6000A3414FF0000348BF0A3200D530BD401CFE
:100B700041F1000130BD00002DE9F0411F4604465F
:100B800003260168072A01F4006004DB08B116A5FA
:100B900005E016A503E008B115A500E015A521F0B4
:100BA00010002060A069C01EA0610FB1401EA061AE
:100BB0002046FFF7FFFB4FB1D4E9012138469047AB
:100BC000206A401C2062C01C206206E0206AFAE70E
:100BD000D4E9012115F8010B9047761EF8D2204682
:100BE000FFF7FEFBBDE8F0814E414E006E616E00E6
:100BF000494E4600696E66002DE9F047814616466B
:100C00008AB0334878440DC88DE80D0030487844E8
:100C1000801C03AC0DC884E80D0041F69B300844ED
:100C2000372190FBF1F290FBF1F5A5F1800501FB76
:100C300012041B3C02D56442012000E00020DFF8D2
:100C400090A080460027FA44AAF1BE0A0DE0E00712
:100C500009D03246684607EB47010AEB810100F0F4
:100C600063FB8DE8070064107F1C002CEFD1184F48
:100C70007F44AC3F18E0E80714D007EB04100DF1F7
:100C8000180A90E80E008AE80E00C068F04201D110
:100C900098190890324606A903A800F045FB03AB5B
:100CA00083E807006D10641C002DE4D132466946CC
:100CB000B8F1000F03A802D000F022FB01E000F021
:100CC00033FBC9E90001C9F808200AB0BDE8F08784
:100CD000CC850000007B00F0800070474FF00002E0
:100CE00000B5134694469646203922BFA0E80C5022
:100CF000A0E80C50B1F12001BFF4F7AF090728BFFD
:100D0000A0E80C5048BF0CC05DF804EB890028BF78
:100D100040F8042B08BF704748BF20F8022B11F0A1
:100D2000804F18BF00F8012B704700000048704743
:100D3000943201207546FFF7F9FFAE46050069467B
:100D4000534620F00700854618B020B5FFF714FB86
:100D5000BDE820404FF000064FF000074FF00008BC
:100D60004FF0000B21F00701AC46ACE8C009ACE83D
:100D7000C009ACE8C009ACE8C0098D46704710B5A1
:100D80000446AFF300802046BDE81040FFF784BA68
:100D90004FF0013C50F8042B51F8043B9A4221D10A
:100DA000A2EB0C03934313EACC1317D150F8042B96
:100DB00051F8043B9A4215D1A2EB0C03934313EA7A
:100DC000CC130BD150F8042B51F8043B9A4209D1B3
:100DD000A2EB0C03934313EACC13DBD04FF00000DB
:100DE000704700BFD01A01BAB1FA81F101F01801C1
:100DF00022FA01F0CB40C1F12001DBB2C0B2C01A2F
:100E00002CFA01F3D11A914311EAC311E6D17047CC
:100E100001491820ABBEFEE72600020070475FEADA
:100E2000400C08BF91F0000F4FEA8C234FEAC1221B
:100E300043EA51514FEA1C5018BF00F5F0404FEA09
:100E4000300018BF41F000415FEA6C5C00F029807F
:100E5000BCF1FF3F08BF40F080407047130C06BF55
:100E600012044FF0100C4FF0000C130E04BF1202CE
:100E70000CF1080C130F04BF12010CF1040C930FBA
:100E800004BF92000CF1020CD30F04BF52000CF10E
:100E9000010C11464FF00002A0F11F00A0EB0C0066
:100EA000704711F0004F08BF704731F000413FF428
:100EB000D5AF0B0C06BF09044FF0100C4FF0000C1F
:100EC0000B0E04BF09020CF1080C0B0F04BF090143
:100ED0000CF1040C8B0F04BF89000CF1020CCB0F3A
:100EE00004BF49000CF1010CCCF12003A0EB0C0075
:100EF00022FA03F302FA0CF241EA030100F10100C5
:100F0000704720F07F4C80EA030023F07F47ACEB72
:100F1000070303F57C5300F0004003F1FF032DE9C4
:100F200080494FEA154B09B44FEA144325EA0B4EAA
:100F300024EA03480FF2042606EB132749083E78FB
:100F40005FEA320203FB0667C7F5000707FB06F6F8
:100F50004FEA54374FEAD64606F1020607FB066C05
:100F6000CCF1005C4FEA1C472CEA074C07FB06F467
:100F70000CFB06F504EB15464FEA961634BF00202D
:100F80004FF000404FEAD13706FB07FC4FEA1C4CFC
:100F90000CFB0BF7D21B03FB0CF761EB07010CFBFF
:100FA0000EF7B0EB074072EB17420CFB08F734BFAB
:100FB000A2EB0742B2EB074261EB17414FEA0C4448
:100FC0004FEA910706FB07FC4FEA1C4C0CFB0BF7A2
:100FD000B0EBC74072EB573203FB0CF734BFA2EB08
:100FE000C742B2EBC74261EB57310CFB0EF7B0EBD7
:100FF000C70072EB57720CFB08F734BFA2EBC702B5
:10100000B2EBC70261EB5771039F4FEA816141EA7E
:10101000921104EBCC044FEAD1374FEA826206FB0F
:1010200007FC42EA90124FEA80604FEA1C4C0CFB2E
:101030000BF7D21B03FB0CF761EB07010CFB0EF760
:10104000B0EB074072EB17420CFB08F734BFA2EB82
:101050000742B2EB074261EB17414FEA8C554FEA6A
:10106000910704EB9C2406FB07FC4FEA1C4C0CFB8D
:101070000BF7B0EBC74072EB573203FB0CF734BFF2
:10108000A2EBC742B2EBC74261EB57310CFB0EF744
:10109000B0EBC70072EB57720CFB08F734BFA2EB42
:1010A000C702B2EBC70261EB577115EB4C254FEA53
:1010B000816141EA92114FEA82624FEAD13742EAF6
:1010C000901206FB07FC44F100044FEA80604FEAEF
:1010D0001C4C0CFB0BF7D21B03FB0CF761EB07015D
:1010E0000CFB0EF7B0EB074072EB17420CFB08F756
:1010F00034BFA2EB0742B2EB074261EB174115EB9D
:101100001C154FEA813141EA92414FEA823242EAAC
:1011100090424FEA80304FEA0C7644F1000448EAEE
:1011200003434EEA0B484FF0000EB2EB080C71EB94
:10113000030724BF624639464EEB0E0E4FF0000BFC
:101140000018524149414BEB0B0BB2EB080C71EB11
:1011500003077BF1000B24BF624639464EEB0E0EAF
:101160004FF0000B0018524149414BEB0B0BB2EB17
:10117000080C71EB03077BF1000B24BF6246394674
:101180004EEB0E0E51EA020718BF46F0010616EBB1
:101190000E7655F1000254F1000103D5BDE8890136
:1011A000BDE80088BDE88901BDE80048B619524194
:1011B00041EB0101A3F10103704780807F7E7D7CBC
:1011C0007B7A7978777676757473727171706F6ED9
:1011D0006E6D6C6C6B6A6A69686867666665646484
:1011E000636362616160605F5F5E5E5D5D5C5C5B0E
:1011F0005B5A5A595958585757565655555554547D
:10120000535352525251515050504F4F4F4E4E4DDA
:101210004D4D4C4C4C4B4B4B4A4A4A494949484826
:101220004847474747464646454545444444444366
:1012300043434342424242414141002B26D477007E
:1012400021D01CB54FEA370703B44FF010004FF020
:1012500010014FF000000FBCBDE810400BF1010B76
:10126000BBF1010F08BF5FEA170722BF12F10102AD
:1012700011F101014FF0004143F1000300F0004083
:1012800043EA00007047F9D35708DAE746EA064612
:1012900013F1400F4FEA16461FDD13F1200FDFBF99
:1012A00016430A46002120335B42C8D0C3F1200711
:1012B00046EA064602FA07F74FEA164646EA0706E6
:1012C000C3F1200722FA03F201FA07F721FA03F12A
:1012D0004FF0000342EA0702B1E746EA020646EA97
:1012E00006464FEA164646EA0106BCBF46EA0646EF
:1012F000360C4FF000034FF000024FF000019EE764
:101300002DE9C048934630B491E8380007C831EA67
:10131000400C48BF34EA430C03D5FFF7F2FDFFF75A
:101320008CFFF0BCBDE800882DE9C048934630B47E
:1013300091E8380007C810F0804F08BF13F0804FC5
:1013400003D100F005F8FFF778FFF0BCBDE8008896
:1013500020F07F4780EA030023F07F4C07EB0C036B
:10136000A3F57C5300F00040A3F1FE0392F0000FC0
:1013700000F0B38095F0000F00F077802DE901496F
:101380004FEA11404FEA144621EA004800FB06FCF0
:1013900024EA064708FB06F607FB08F800FB07F7F8
:1013A00018EB06484CEB164C4FEA124B18EB07486B
:1013B0004FEA15464CEB174022EA0B4E0BFB06FC9E
:1013C00025EA06470EFB06F607FB0EFE0BFB07F7AA
:1013D0001EEB064E4CEB164C4FF000061EEB074E74
:1013E0004CEB174B18EB0B0840F1000018EB0E0B01
:1013F00058EB000840F100008F1A4FF000013CBF8D
:10140000C943661B14BFB5EB040C00213CBFC943A4
:10141000F61B4FEA17444EEA8E0E27EA04454FEAC0
:101420001C4704FB07622CEA074C05FB07F70CFB83
:1014300005F604FB0CFC16EB074642EB174216EBD5
:101440000C4642EB1C421BEB060658EB02024141E4
:1014500046EA9E0601D5BDE80189B619524141EB25
:101460000101A3F10103BDE801894FEA14454FEAE8
:10147000114724EA054621EA074C05FB07F406FB61
:1014800007F70CFB06F105FB0CFC11EB074144EBE5
:1014900017444FEA124711EB0C4144EB1C4422EA7B
:1014A000074C05FB07F206FB07F70CFB06F605FBEE
:1014B0000CFC16EB074642EB174216EB0C4642EBD0
:1014C0001C456A1854F1000148BF7047B6195241D3
:1014D00041EB0101A3F10103704795F0000F37D0F4
:1014E0004FEA11424FEA144721EA024624EA074C28
:1014F00002FB07F106FB07F70CFB06F402FB0CFCF2
:1015000014EB074441EB17414FEA154714EB0C4429
:1015100041EB1C4125EA074C02FB07F506FB07F7E8
:101520000CFB06F602FB0CFC16EB074645EB1745D9
:1015300016EB0C4645EB1C42121951F1000148BF55
:101540007047B619524141EB0101A3F10103704705
:101550004FEA14454FEA114724EA054621EA074CB1
:1015600005FB07F106FB07F70CFB06F24FF0000640
:1015700005FB0CFC12EB074241EB174112EB0C424E
:1015800051EB1C4148BF7047921841EB0101A3F198
:101590000103704700B587B00121480602F0E2FB65
:1015A0000121880602F0DEFB00208DF817008DF87F
:1015B000180008208DF8140004208DF81500002074
:1015C0008DF812008DF819000320ADF810000020EE
:1015D0008DF81A008DF813008DF816008DF81B0099
:1015E00004A92B4800F01DFC01208DF80D000020FF
:1015F000ADF80800ADF80000ADF80200ADF8040049
:10160000ADF806008DF80B008DF80A0001208DF86A
:101610000C00684600F078FB01208DF817000020D0
:101620008DF8180008208DF8140004208DF815009E
:1016300000208DF812008DF819000320ADF810007D
:1016400000208DF81A008DF813008DF816008DF823
:101650001B0004A90F4800F0E4FB01208DF80D00E9
:101660000020ADF80800ADF80000ADF80200ADF8BC
:101670000400ADF806008DF80B000E208DF80A006E
:1016800001208DF80C00684600F03EFB07B000BD5D
:10169000006400400068004000B58FB0012188055B
:1016A00002F050FB4FF00060009012480190124889
:1016B00002900020039013200490002005904FF426
:1016C0008060069000200890079009904FF48030C9
:1016D0000A9000200B9003200C9000200D900E909B
:1016E0006946064800F064FF0121044800F04AFF03
:1016F0000FB000BD04100140A02F01204064024043
:101700001CB50121084602F01DFB0121022002F058
:1017100019FB0121082002F015FB0121202002F015
:1017200011FB0121802002F00DFB02208DF8040046
:1017300000208DF806008020009001208DF8070021
:1017400003208DF805006946504801F011F8072282
:1017500011464E4801F054F802208DF80400002094
:101760008DF806000320009001208DF8070003206B
:101770008DF805006946464800F0FAFF092200216D
:10178000434801F03DF809220121414801F038F8B1
:1017900002208DF8040000208DF806004FF4405020
:1017A000009001208DF8070003208DF805006946A0
:1017B000364800F0DDFF09220C21344801F020F802
:1017C00009220D21314801F01BF801208DF8040099
:1017D00000208DF806004FF48060009001208DF805
:1017E000070003208DF8050069462A4800F0C0FF75
:1017F00001208DF8040000208DF806004FF42070C1
:10180000009001208DF8070003208DF8050069463F
:10181000204800F0ADFF00208DF804008DF8060090
:101820004020009001208DF8070003208DF805006E
:101830006946184800F09CFF00208DF804008DF8E0
:1018400006004FF48070009002208DF807000320FE
:101850008DF8050069460F4800F08AFF0122114605
:101860000D4800F0CDFF022000908DF80400032009
:101870008DF8050000208DF8060001208DF8070086
:101880006946054800F074FF1CBD000000040240DA
:10189000000C0240001402400000024008B5252060
:1018A0008DF8000001208DF8030008208DF801005C
:1018B00000208DF80200684602F046F9012240F24D
:1018C0002441264803F055F814208DF8000001202B
:1018D0008DF8030008208DF8010000208DF802002B
:1018E000684602F031F901221D491E4800F090FAC5
:1018F0001C481430006840F0FF001A491431086099
:1019000040208DF8000001208DF8030008208DF89C
:10191000010000208DF80200684602F015F901224E
:101920000221114800F074FA1C208DF800000920F3
:101930008DF8010000208DF8020001208DF80300D1
:10194000684602F001F901221146900702F0E3FB1C
:101950000121880702F0BCFB08BD00000010014017
:10196000008F0300006400400068004000B58BB0A9
:101970000121084602F0F6F90120099042F22730D1
:10198000ADF820000020ADF82200ADF8280008A92D
:101990004FF0804002F010FC0121880702F09EFB0E
:1019A0000121102002F0DEF95920ADF820000020BE
:1019B000ADF82200ADF8280040F2E730099008A900
:1019C000294802F0F9FB0121274802F087FB012199
:1019D000042002F0C7F90121082002F0B3F9022225
:1019E0000C21224800F00CFF4FF48050069002209A
:1019F0008DF81C0003208DF81D0000208DF81E00BE
:101A000001208DF81F0006A9184800F0B1FE42F22F
:101A10002730ADF820000020ADF82200C720099043
:101A20000020ADF8280008A9114802F0C5FB70207D
:101A3000ADF804000120ADF806000220ADF810005A
:101A40000520039001A90A4802F06EFB082108480E
:101A500002F0A8FB0121064802F02EFB01210448F8
:101A600002F03CFB0BB000BD00100040000C024037
:101A7000000800401FB50121102002F083F90E4834
:101A800000900020ADF80C000420ADF80A00002002
:101A9000ADF80800ADF80600ADF804006946074847
:101AA00002F08CFF01224021044802F02FFF0121A7
:101AB000024802F01FFF1FBDA08601000010014078
:101AC00000B58BB00121022002F04CF90121022067
:101AD00002F038F9022204211F4800F091FE102084
:101AE000099002208DF8280003208DF8290000209D
:101AF0008DF82A0001208DF82B0009A9164800F066
:101B000037FE5920ADF818000020ADF81A0001206A
:101B100007900020ADF8200006A9104802F04CFB09
:101B20006020ADF804000120ADF806000020ADF8FB
:101B3000100001A9094802F0F7FA0821074802F04D
:101B400031FB0121054802F0B7FA0121034802F0F8
:101B5000C5FA0BB000BD00000004024000040040C4
:101B600010B502A0FEF71AFC10BD000042757346C6
:101B700061756C745F48616E646C65720000000092
:101B800030B585B06A4600211B4800F0D4F99DF8B5
:101B90000C009DF80B1040EA012004B29DF80E10D5
:101BA0009DF80D0041EA002005B20098A0F2012046
:101BB00030B101280AD002280ED0032818D111E034
:101BC0002AB221B20D4801F069FF12E02AB221B217
:101BD0000B4801F063FF0CE02AB221B2094801F082
:101BE0005DFF06E02AB221B2074801F057FF00E08E
:101BF00000BF00BF05B030BD00640040202F0120B1
:101C0000802F0120602F0120402F012010B54FF4BC
:101C10000061044800F017FE4FF40F41024800F045
:101C20001FF810BD001002400064004030B585B0C0
:101C30006A460021094800F07EF99DF80C009DF8E5
:101C40000B1040EA012004B29DF80E109DF80D0023
:101C500041EA002005B205B030BD00000068004038
:101C6000B1F5007F3AD00FDC202928D006DC01290D
:101C70001CD004291DD0082940D11DE0402921D0C5
:101C8000B1F5807F3AD126E0B1F5004F31D006DCC6
:101C9000B1F5806F25D0B1F5006F2FD124E0B1F5FB
:101CA000803F12D0B1F5003F28D111E0154A826083
:101CB00025E00822C26022E01022C2601FE0082254
:101CC00002611CE01022026119E00822426016E065
:101CD0001022426013E00422426010E004224260BD
:101CE0000DE0042242600AE0002282610422426088
:101CF00005E0002282610422426000E000BF00BFD4
:101D0000704700000101010010B50021837A012213
:101D100002FA03F13D4A126842F001023B4B1A609D
:101D20003A4A1C3212688A43384B1C331A60027BD1
:101D3000CAB9364A0C3212688A43344B0C331A60E3
:101D40004288C38842EA0343304A4032847A42F8E8
:101D500034300288838842EA03432C4A4032847A32
:101D600002EBC4025360027B012A19D1274A0C32CC
:101D700012680A43254B0C331A604288038842EAF2
:101D80000343224A4032847A42F83430C28883883E
:101D900042EA03431D4A4032847A02EBC402536094
:101DA000C27A3AB9194A121D12688A43174B1B1D91
:101DB0001A6006E0154A121D12680A43134B1B1DD8
:101DC0001A60028932B9114A143212688A430F4BE1
:101DD00014331A600289012A06D10C4A143212689F
:101DE0000A430A4B14331A60427B012A06D1074A80
:101DF0001C3212680A43054B1C331A60034A1268EE
:101E000022F00102014B1A6010BD00000066004084
:101E10001AB143690B43436102E043698B43436159
:101E2000704730B5024600200023146824F00204F5
:101E30001460146844F00104146000E05B1C5468F2
:101E400004F001041CB94FF6FF74A342F6D15468A4
:101E500004F001040CB900206CE08C79012C04D151
:101E6000146844F08004146003E0146824F08004D3
:101E70001460CC79012C04D1146844F0400414603F
:101E800003E0146824F0400414600C7A012C04D19F
:101E9000146844F02004146003E0146824F0200463
:101EA00014604C7A012C04D1146844F010041460BE
:101EB00003E0146824F0100414608C7A012C04D11F
:101EC000146844F00804146003E0146824F0080463
:101ED0001460CC7A012C04D1146844F0040414601A
:101EE00003E0146824F0040414608C78A407CD780F
:101EF00044EA05640D7944EA05444D7944EA055401
:101F00000D886D1E2C43D461146824F00104146004
:101F1000002300E05B1C546804F001041CB14FF680
:101F2000FF74A342F6D1546804F001040CB1002000
:101F300000E0012030BD10B500F5D87303EB0113AC
:101F40001B6803F004031372137A53B900F5D873B6
:101F500003EB01131B6840F2FF7404EA5353136050
:101F600009E000F5D87303EB01131B686FF06044C0
:101F700004EAD303536000F5D87303EB01131B6825
:101F800003F00203537200F5D87303EB01135B688F
:101F900003F00F03937200F5D87303EB01135B6832
:101FA0001B0AD37400F5D87303EB01139B68D3723B
:101FB00000F5D87303EB01139B681C0A147300F53A
:101FC000D87303EB01139B681C0C547300F5D87392
:101FD00003EB01139B681B0E937300F5D87303EB9F
:101FE0000113DB68D37300F5D87303EB0113DB68CF
:101FF0001C0A147400F5D87303EB0113DB681C0C86
:10200000547400F5D87303EB0113DB681B0E937453
:1020100021B9C36843F02003C36003E0036943F0C0
:102020002003036110BD10B502460020936803F041
:102030008063B3F1806F00D110E0936803F0006318
:10204000B3F1006F01D1012008E0936803F08053E1
:10205000B3F1805F01D1022000E00420042874D095
:1020600002F5C07303EB00131B6803F0010402F5D3
:10207000C07303EB00131C600B7A7BB94B7A0C889E
:1020800043EA445302F5C07404EB0014246823436C
:1020900002F5C07404EB0014236010E00B7A4C6866
:1020A00043EAC4034C7A234302F5C07404EB0014E2
:1020B0002468234302F5C07404EB001423608B7A78
:1020C00003F00F038B7202F5C07303EB00135B6820
:1020D00023F00F0402F5C07303EB00135C6002F5FC
:1020E000C07303EB00135B688C7A234302F5C07462
:1020F00004EB001463608B7B1C064B7B44EA0344B7
:102100000B7B44EA0323CC7A234302F5C07404EB2F
:102110000014A3608B7C1C064B7C44EA03440B7CBC
:1021200044EA0323CC7B234302F5C07404EB001480
:10213000E36002F5C07303EB00131B6843F0010476
:1021400002F5C07303EB00131C6010BD2DE9F043D2
:1021500085B004460F4615461E46DDE90C890097FA
:1021600000208DF808008DF8090008208DF80A007D
:10217000280A8DF80B00E9B28DF80C10310A8DF8A1
:102180000D10F1B28DF80E104FEA18218DF80F10D6
:1021900008F0FF018DF810104FEA19218DF8111089
:1021A00009F0FF018DF8121000BFA06938B1206856
:1021B00040F002002060206800F0FD002060A06870
:1021C00000F0E0500028F0D069462046FFF72BFFD2
:1021D00005B0BDE8F083000010B52DED0A8B84B08A
:1021E0000446664890ED020A10EE101A084606F002
:1021F000FFFD41EC1C0B9FED620B53EC102B06F026
:1022000001FB41EC1A0B5D4890ED010AD0ED000A8C
:1022100030EE600A10EE101A084606F0E9FD41ECB7
:102220001B0B53EC1A2B06F057F841EC190B9FEDE2
:10223000560B53EC102B06F0E5FA41EC180B06F0A8
:102240005FFA00904D4890ED020A10EE101A084611
:1022500006F0CEFD41EC1C0B9FED4D0B53EC102B0B
:1022600006F0D0FA41EC1A0B444890ED010AD0ED8B
:10227000000A30EE200A10EE101A084606F0B8FDEB
:1022800041EC1B0B53EC1A2B06F026F841EC190B12
:102290009FED410B53EC102B06F0B4FA41EC180BF8
:1022A00006F02EFA0190354890ED020A10EE101A51
:1022B000084606F09DFD41EC1C0B9FED350B53ECE1
:1022C000102B06F09FFA41EC1A0B2C4890ED010AF6
:1022D000D0ED000A30EE600A10EE101A084606F043
:1022E00087FD41EC1B0B53EC1A2B05F0F5FF41EC7D
:1022F000190B9FED290B53EC102B06F083FA41ECE0
:10230000180B06F0FDF902901C4890ED020A10EE41
:10231000101A084606F06CFD41EC1C0B9FED180BE3
:1023200053EC102B06F06EFA41EC1B0B134890EDAA
:10233000010AD0ED000A30EE200A10EE101A08460D
:1023400006F056FD41EC180B53EC1B2B05F0C4FFB7
:1023500041EC1A0B9FED0C0B53EC102B06F052FACC
:1023600041EC190B06F0CCF903902146684600F0C9
:1023700017F804B0BDEC0A8B10BD000078320120C4
:102380001283C0CAA145EEBF2FDD240681956F40A0
:102390001283C0CAA145EE3F2FDD240681956FC090
:1023A0009FED371AF0EE410A9FED351AB0EE410A63
:1023B000002223E050F82230002B02DB50F82230BC
:1023C00002E050F822305B4201EE103AB8EEC11A3A
:1023D000B4EEE01AF1EE10FA0FDD50F82230002BC7
:1023E00002DB50F8223002E050F822305B4201EE6E
:1023F000103AB8EEC11AF0EE410A521C042AD9DB99
:102400009FED201AF4EEC10AF1EE10FA2EDD9FEDD9
:102410001D1AC1EE201AB0EE610A90ED001AB8EE56
:10242000C11A21EE001ABDEEC11A81ED001A90ED1D
:10243000011AB8EEC11A21EE001ABDEEC11A81EDE3
:10244000011A90ED021AB8EEC11A21EE001ABDEE83
:10245000C11A81ED021A90ED031AB8EEC11A21EEED
:10246000001ABDEEC11A81ED031A07E003680B6084
:1024700043684B6083688B60C368CB607047000023
:102480000000000000007D43034880ED000AC0ED1D
:10249000010A80ED021A7047783201200A784B78E1
:1024A00042EA0322C2F30A0202800288A2F5806295
:1024B00012B202804A78D2108B7842EA4312C2F3F9
:1024C0000A0242804288A2F5806212B242808A7873
:1024D0009211CB7842EA83020B7942EA8322C2F35B
:1024E0000A0282808288A2F5806212B282800A7912
:1024F00052104B7942EAC312C2F30A02C280C28868
:10250000A2F5806212B2C2804A7912119208027258
:102510004A79C2F3011242728A79CB7942EA0322E4
:1025200012B242810A7A4B7A42EA032213B28381C1
:102530008A7ACB7A42EA032213B2C3810B7B0374FB
:102540004B7B43748A7BCB7B42EA032282827047B7
:102550000246094B9A4201D2084801E00648103869
:1025600001F000531BB1064B0B40C36002E0044B6B
:102570000B4083607047000010640240006002401E
:102580007D0F7D0F21B1026842F00102026003E07D
:10259000026822F0010202607047014600200A68CA
:1025A00002F001020AB1012000E0002070470000A3
:1025B00010B500220268134B1A40CC680B68234305
:1025C0004C6923438C692343CC6923430C6A23431E
:1025D0004C6A23438C6A23434C6B23438C6B234309
:1025E0001A430260426922F00702D1E90B34234307
:1025F0001A4342610B6943604B6883608B68C36018
:1026000010BD00003F801CF04160704710B502A073
:10261000FDF7C4FE10BD000044656275674D6F6E26
:102620005F48616E646C65720000000070B504461E
:102630006FF0040001F0DAFCE11704EB5171C1F313
:10264000C7010D4A1170E11704EB5171CD104FF421
:102650007A7045430120094908804FF0E020006965
:1026600040F002004FF0E021086108464561006932
:1026700040F00100086170BD8C0000208E00002039
:1026800010B54FF4807000F01DF860B14FF4807009
:1026900000F00CF84FF4807000F00EF801200249B1
:1026A000087000F0ADFE10BDBA01002001490860BD
:1026B00070470000143C0140014908607047000069
:1026C000143C014001460020034A12680A400AB146
:1026D000012000E000207047143C01400021234904
:1026E0008279002A3AD00A46126803689A430B4658
:1026F0001A600A1D126803689A430B1D1A6002795A
:1027000011440A6803681A430A60184A08321268BA
:1027100003689A43154B08331A601A1D1268036840
:102720009A43124B0C331A604279102A0ED11A1FA9
:10273000126803681A430D4B08331A601A1D126899
:1027400003681A43094B0C331A600DE007494279BC
:1027500011440A6803681A430A6005E002791144CB
:102760000A6803689A430A6070470000003C014011
:10277000F0B50A4600210023002400BF3DE00125FA
:1027800005FA01F3156805EA03049C4234D1056893
:102790004F000326BE40B543056015794E00B54095
:1027A0000668354305601579012D02D01579022D93
:1027B00016D185684F000326BE40B5438560557924
:1027C0004E00B540866835438560456801268E40D9
:1027D000B5434560456896798E40B6B2354345604D
:1027E000C5684F000326BE40B543C560D5794E008D
:1027F000B540C6683543C560491C1029BFD3F0BD3C
:10280000F0B5002300244D07ED0E02FA05F3CE10BB
:1028100000F1200555F826504E07F70E0F26BE4052
:10282000B543CF1000F1200646F82750CE1000F136
:10283000200555F8265045EA0304CE1000F1200586
:1028400045F82640F0BD41837047018370474269D7
:102850004A4042617047000010B52DED0A8BFE48DA
:10286000B0F9080000EE100AB8EEC00ADFEDFB0A6E
:1028700080EE201A11EE104A204606F0B9FA41EC1B
:102880001A0B9FEDF70B53EC102B05F0BBFF41EC3F
:10289000190B9FEDF50B53EC102B05F0D9FD41EC16
:1028A000180B05F0E7FCF2494860EB48B0F90A0064
:1028B00000EE100AB8EEC00ADFEDE80A80EE201A3A
:1028C00011EE104A204606F093FA41EC1A0B9FEDE8
:1028D000E40B53EC102B05F095FF41EC190B9FED29
:1028E000E20B53EC102B05F0B3FD41EC180B05F097
:1028F000C1FCDF498860D848B0F90C0000EE100A2E
:10290000B8EEC00ADFEDD50A80EE201A11EE104AAB
:10291000204606F06DFA41EC1A0B9FEDD10B53ECFB
:10292000102B05F06FFF41EC190B9FEDCF0B53EC13
:10293000102B05F08DFD41EC180B05F09BFCCC49EC
:10294000C860C549B1F9000005F009FF41EC190B59
:102950009FEDC80B53EC102B05F07AFD41EC180BE2
:1029600005F088FCC5490860BB49B1F9020005F0D3
:10297000F6FE41EC190B9FEDBF0B53EC102B05F04D
:1029800067FD41EC180B05F075FCBD490860B249C4
:10299000B1F9040005F0E3FE41EC190B9FEDB50B16
:1029A00053EC102B05F054FD41EC180B05F062FCC4
:1029B000B4490860AE48D0ED031AB0EE611AD0ED0C
:1029C000021AF0EE610AD0ED011AB0EE610A084673
:1029D000D0ED002AAA4890ED002AA848D0ED001AB0
:1029E00000F078FDA84890ED000ADFEDA80A20EE7F
:1029F000200ABDEEC00AA64880ED000AA54890ED69
:102A0000000ADFEDA20A20EE200ABDEEC00AA248AD
:102A100080ED000AA14890ED000ADFED9C0A20EE4F
:102A2000200ABDEEC00A9E4880ED000A9D4890ED48
:102A3000000ADFED960A20EE200ABDEEC00A9A4891
:102A400080ED000A904890ED000AD0ED000A20EEDB
:102A5000200A9048D0ED000A90ED001A00EEC10A5D
:102A60008E48D0ED000A90ED001A00EEC10A8D48A4
:102A7000D0ED000A90ED001A00EE810A10EE101A57
:102A8000084606F0B5F941EC1B0B7F4890ED000AB3
:102A90008048D0ED000A20EE200A8048D0ED000AE0
:102AA000804890ED001A00EE810AF0EE000A20EE58
:102AB000200A10EE101A084606F09AF941EC1C0B99
:102AC000B0EE4B1AF0EE6B1AB0EE4C0AF0EE6C0A58
:102AD00002F02AFBB0EE40AAF0EE60AA9FED620B76
:102AE00053EC102B51EC1A0B05F08CFE41EC190B3A
:102AF0009FED5B0B53EC102B05F0AAFC41EC180B7F
:102B000005F0B8FB694948605F4890ED000A6348EA
:102B1000D0ED000A20EE200A5E48D0ED000A6148A0
:102B200090ED001A00EEC10AF0EE000A20EE200A35
:102B300010EE101A084606F05BF941EC1B0BB0EEE4
:102B40004B0AF0EE6B0A01F0D3FFB0EE40AAF0EEB4
:102B500060AA9FED450B53EC102B51EC1A0B05F0BE
:102B600051FE41EC190B9FED3E0B53EC102B05F081
:102B70006FFC41EC180B05F07DFB4C4908604248A6
:102B800090ED000AD0ED000A20EE200A4148D0ED79
:102B9000000A90ED001A00EE810A4048D0ED000ACC
:102BA00090ED001A00EEC10A3E48D0ED000A90ED0B
:102BB000001A00EEC10A10EE101A084606F018F9C5
:102BC00041EC1B0B334890ED000A3448D0ED000A6D
:102BD00020EE200A2C48D0ED000A324890ED001A71
:102BE00000EE810AF0EE000A20EE200A10EE101A24
:102BF000084606F0FDF841EC1C0BB0EE4B1AF0EE67
:102C00006B1AB0EE4C0AF0EE6C0A02F08DFAB0EEE0
:102C100040AAF0EE60AA9FED140B53EC102B51EC80
:102C20001A0B05F0EFFD41EC190B9FED0D0B53EC6A
:102C3000102B05F00DFC41EC180B05F01BFB1B499C
:102C40008860084690ED010AB5EEC00AF1EE10FA70
:102C500042DB90ED010A2BE05032012033338341F7
:102C60004AD8124DFB210940000000000080664058
:102C700030320120000000000000B04014010020AC
:102C8000180100201C010020A801002000007A4447
:102C9000B0000020AC010020B4000020B0010020F2
:102CA000B8000020B4010020BC0000202432012024
:102CB00010EE101A084606F09BF841EC190B1FEDB8
:102CC000160B53EC102B05F0A9FF41EC180B05F087
:102CD000D1FA2949486015E0274890ED010A10EE25
:102CE000101A084606F084F841EC190B1FED220B70
:102CF00053EC102B05F0F0FA41EC180B05F0BAFA82
:102D00001D4948601C4890ED020A1C4880ED000AED
:102D1000194890ED010AB1EE400A184880ED040A06
:102D2000D0ED040A406900EE100AB8EEC00A30EE99
:102D3000800A124880ED040A0F4890ED000A0F48FF
:102D400080ED060A90ED000ABDEEC00A0C4880ED49
:102D5000000A0A4890ED040ABDEEC00A094880ED59
:102D6000000A064890ED060ABDEEC00A064880ED4E
:102D7000000ABDEC0A8B10BD24320120083201206C
:102D8000C0000020C4000020C800002010B50021B1
:102D90009FED0B0A0B4800F065FE00219FED080A2D
:102DA000094800F05FFE00219FED050A074800F08A
:102DB00059FE00219FED020A054800F053FE10BDA8
:102DC0009A999941202F0120802F0120602F012006
:102DD000402F012010B502A0FDF7E0FA10BD000061
:102DE000486172644661756C745F48616E646C65BD
:102DF0007200000010B5044600200F49086000F082
:102E0000D9F8012000F01CF824B101200A4908314A
:102E1000086003E00020084908310860012000F044
:102E20000FF801200449086000F00AF80020034967
:102E3000C1F89C0210BD00009C82424200804242C8
:102E400010B5002106E0642200BF131EA2F10102AA
:102E5000FBD1491C8142F6D310BD0000012003497B
:102E6000086000200249C1F8A002704798824242DF
:102E70000080424270B5002400F086F80120FFF780
:102E8000DFFF002516E000200E4908600220FFF752
:102E9000D7FF01200C49C1F89C026006040E0948C6
:102EA0007838006808B1601CC4B20220FFF7C8FF80
:102EB000681CC5B2082DE6DB0020024908602046E8
:102EC00070BD00009C824242008042422DE9F041E8
:102ED00007460E461446984600F084F8FF2805D1B0
:102EE00020A0FDF75BFAFF20BDE8F081384600F036
:102EF000F9F800F0CDF8FF2800D1F5E7304600F0F2
:102F0000F1F800F0C5F8FF2804D119A0FDF746FA42
:102F1000FF20E9E700F066F8791CC8B200F0E2F89B
:102F200000F0B6F8FF2804D114A0FDF737FAFF200F
:102F3000DAE7002508E0FFF79DFF20700020FFF78B
:102F400059FF641C681CC5B2A8F10100A842F2DC5C
:102F5000FFF790FF20700120FFF74CFF00F07EF894
:102F60000020C1E76572726F7220370D0A00000001
:102F70006572726F7220390D0A0000006572726FFF
:102F8000722032480D0A00001CB54FF4007000900A
:102F900000208DF804008DF8060001208DF8070050
:102FA00003208DF8050069460148FFF7E1FB1CBDD1
:102FB000001402401CB54FF40070009001208DF801
:102FC000040000208DF8060001208DF80700032082
:102FD0008DF8050069460248FFF7CAFB1CBD0000DA
:102FE0000014024010B5FFF7E5FF01201349086007
:102FF0001348D0F8240220B912A0FDF7CFF9FF2022
:1030000010BD01200D4908390860FFF719FF0020A5
:103010000B49C1F8A40209488038006820B10CA00F
:10302000FDF7BCF9FF20EBE70120FFF709FF0020C7
:1030300002490839086000BFE2E70000A48242426A
:10304000008042426572726F722031210D0A0000C9
:103050006572726F722032210D0A000010B5FFF701
:10306000A9FF0020084908600849C1F8A40201200E
:10307000FFF7E6FE012004490860FFF7E1FE0120AA
:103080000249C1F8A40210BD9C8242420080424223
:1030900010B50024FFF778FF012010490860FFF702
:1030A000CFFE01200E49C1F89C02FFF7C9FE0AE0DD
:1030B000601C84B2322C03DDFFF7D0FFFF2010BD6F
:1030C0000520FFF7BDFE0548803800680028EFD1D5
:1030D00002490839086000BFF1E70000A4824242BB
:1030E0000080424270B50446FFF764FF0020134998
:1030F000086000251EE004F0800020B101200F4987
:103100000831086003E000200C49083108606006BF
:10311000040E0120FFF794FE012008490860FFF724
:103120008FFE00200649C1F89C020120FFF788FEAF
:10313000681CC5B2082DDEDB70BD00009C824242D7
:103140000080424270B506460C461546FFF74AFF1E
:10315000FF2804D116A0FDF721F9FF2070BD3046ED
:10316000FFF7C0FFFFF794FFFF2804D113A0FDF77E
:1031700015F9FF20F2E72046FFF7B4FFFFF788FFBD
:10318000FF2804D110A0FDF709F9FF20E6E7284643
:10319000FFF7A8FFFFF77CFFFF2804D10DA0FDF784
:1031A000FDF8FF20DAE7FFF759FF0020D6E700001F
:1031B0006572726F72203321000000006572726FB9
:1031C0007220340D0A0000006572726F7220350D96
:1031D0000A0000006572726F7220360D0A0000004E
:1031E0001CB50121302000F0ADFD4FF400600090CF
:1031F00001208DF8040000208DF8060003208DF8D2
:10320000050001208DF8070069461048FFF7B0FA65
:103210004FF48040009001208DF8040000208DF8CC
:10322000060003208DF8050001208DF8070069468F
:103230000748FFF79DFA4FF400610448FFF705FBCC
:103240004FF480410248FFF700FB1CBD0010024014
:103250000014024010B501221921D020FFF772FF9F
:10326000FF2800D110BD0A2002F066FF012238219C
:10327000D020FFF767FFFF2800D1F3E70020F1E738
:1032800008B500200090FFF7E9FD01236A4675218B
:10329000D020FFF71BFE50B99DF80000702801D028
:1032A000FF2008BD9DF800002549088001E0FF20AF
:1032B000F7E701226B21D020FFF744FFFF2800D160
:1032C000EFE701221A21D020FFF73CFFFF2800D1B1
:1032D000E7E718221B21D020FFF734FFFF2800D199
:1032E000DFE710221C21D020FFF72CFFFF2800D1A0
:1032F000D7E701221D21D020FFF724FFFF2800D1AE
:10330000CFE702223721D020FFF71CFFFF2800D192
:10331000C7E700223821D020FFF714FFFF2800D193
:10332000BFE700226A21D020FFF70CFFFF2800D161
:10333000B7E74FF4FA7002F0FFFE0020B1E700009B
:10334000B801002010B502E0C82002F0F5FEFFF73A
:1033500097FFFF28F8D010BD00B585B00121880384
:1033600000F010FD0121022000F0ECFC4FF4807011
:10337000039000208DF810008DF8120001208DF8C8
:10338000130002208DF8110003A91348FFF7F0F98C
:103390000821012000F07AFD4FF480700090002099
:1033A0008DF804000C208DF8050001208DF8060032
:1033B0006846FFF793F917208DF8080008208DF86C
:1033C000090000208DF80A0001208DF80B0002A8EA
:1033D00000F0BAFB05B000BD000402402DE9F04149
:1033E00004460D4616461F463B46324629462046B1
:1033F000FFF76CFDFF2801D1BDE8F0810020FBE75D
:1034000010B53148007800285CD000202E490870A3
:103410000E232E4A3B21D020FFF7E0FF2B484078B7
:103420002A49097840EA012000B229490880274842
:10343000C0782649897840EA012000B224494880B2
:10344000224840792149097940EA012000B2204907
:1034500088801E48C0791D49897940EA012000B260
:103460001B49C8801948407A1849097A40EA012066
:1034700000B21749088108460089C989084400B28A
:10348000134908811148C07A1049897A40EA01201D
:1034900000B20F49488108464089098A084400B2B1
:1034A0000B4948810948407B0849097B40EA0120D3
:1034B00000B20749888108468089498A084400B2D9
:1034C0000349888110BD0000BA0100206432012048
:1034D0005032012000B52DED108B81B0F0EE404A46
:1034E000B0EE605AF0EE415AF0EE613AB0EE423A78
:1034F000B0EE624AE94890ED000AB1EE400A20EED3
:10350000240AE748D0ED000A00EEC50AE548D0EDF0
:10351000000A00EEE50AF6EE000A20EE200AF0EEC0
:1035200040EAE14890ED000A20EE240ADC48D0EDA4
:10353000000A00EEA50ADB48D0ED000A00EEC50A3D
:10354000F6EE000A20EE200AB0EE40FAD64890EDE2
:10355000000A20EE050AD148D0ED000A00EEE50A87
:10356000D048D0ED000A00EEA40AF6EE000A20EEE4
:10357000200AF0EE40FACC4890ED000A20EE250A31
:10358000C648D0ED000A00EE850AC548D0ED000A15
:1035900000EEE40AF6EE000A20EE200A8DED000AA5
:1035A000F5EEC03AF1EE10FA09D1B5EEC03AF1EEFF
:1035B00010FA04D1B5EEC04AF1EE10FA7DD063EEF8
:1035C000A30A43EE030A44EE040AB0EE600A02F0D6
:1035D00013FEF0EE402A23EEA20AF0EE403A23EE6C
:1035E000220AB0EE403A24EE220AB0EE404AAE483B
:1035F00090ED000AF0EE000A20EE20AAA74890ED18
:10360000000AF0EE000A60EE20AAA54890ED000A3C
:10361000F0EE000A20EE20BAA24890ED000AF0EE8B
:10362000000A60EE20BAA04890ED000AF1EE000A10
:1036300020EE20CA994890ED000AF1EE000A60EEF3
:10364000208A974890ED000AF1EE000A20EE209AB9
:10365000924890ED000AF2EE000A60EE20CA90480F
:1036600090ED000AF2EE000A20EE20DA8E4890ED8E
:10367000000AD0ED000A60EE20DA884890ED000ADA
:10368000D0ED000A20EE206A854890ED000AD0EDCA
:10369000000A60EE206A834890ED000AD0ED000A2F
:1036A00020EE20EA2CEE260A0BEE230A0CEE060A88
:1036B0000AEEC30AF0EE409A00E087E028EE8E0A98
:1036C0000BEEE30AF1EE000A6DEEA00A734890EDEE
:1036D000001A00EE810A0AEE430A30EE680A0CEE88
:1036E000860A0CEEA60A08EE840AB0EE407AB1EE25
:1036F000000A2DEE800A6A48D0ED000A20EE200A6A
:103700000AEE230A09EE0E0A0BEEC30A30EE490A4E
:103710000DEE060A0DEE260A09EE040AF0EE407AD6
:10372000B1EE000A26EE000A5E48D0ED000A20EE57
:10373000200A0AEEE30AF1EE000A66EEA00A90ED16
:10374000001A00EE810A0BEE430AB0EE408A69EEE1
:10375000A90A47EE070A47EEA70A48EE080AB0EEA4
:10376000600A02F049FDF0EE402A29EEA20AF0EECE
:10377000409A27EE220AB0EE407A27EEA20AF0EE37
:10378000407A28EE220AB0EE408A4848D0ED000A7E
:10379000B0EE6E0A00EEE90AF0EE40EAD0ED000A63
:1037A000B0EE4F0A00EEC70AB0EE40FAD0ED000AC4
:1037B000B0EE6F0A00EEE70AF0EE40FA9DED000A67
:1037C000D0ED000A00EEC80A8DED000A364890EDF3
:1037D000000ADFED370A0EEEA00A80ED000A2F483E
:1037E00090ED000ADFED320A0FEE200A80ED000AAC
:1037F0002B4890ED000ADFED2E0A0FEEA00A80EDB7
:10380000000A2848D0ED000A9DED000A9FED281A15
:1038100040EE010AC0ED000A2348D0ED000A90ED09
:10382000001A60EE810A1D4890ED001AD0ED001AD2
:1038300041EE210A1A4890ED001AD0ED001A41EE2F
:10384000210A184890ED001AD0ED001A41EE210A25
:10385000B0EE600A02F0D0FCF0EE402A124890ED83
:10386000000A20EE220A80ED000A0C4890ED000AC2
:1038700020EE220A80ED000A094890ED000A20EEB1
:10388000220A80ED000A074890ED000A20EE220A85
:1038900080ED000A01B0BDEC108B00BDAC01002032
:1038A000B0010020B4010020A8010020A4010020E4
:1038B0006F12033B2DE9F0412DED0C8B05460026E0
:1038C00000272D48008800F40040002847DD002430
:1038D00029480088A0F5404700BF00BF34E02749D1
:1038E000095DA1F1300004F03AFF41EC1B0B391BDC
:1038F000481E04F034FF41EC1D0BB0EE4D1AF0EE03
:103900006D1A9FED1F0B01F007FDB0EE40CAF0EEFF
:1039100060CA53EC1B2B51EC1C0B04F073FF41EC01
:10392000190B304604F01BFF41EC1A0B53EC192B1A
:1039300004F0D2FC41EC180B04F0E2FE0646002035
:103940000E490855601CC4B2BC42C8DB00200A49BD
:1039500008800D48066001200C49086007E00B480C
:103960000068012802D10848066800E06E68AE6071
:10397000BDEC0C8BBDE8F08194000020CC2F012021
:103980000000000000002440C0010020C40100200D
:1039900010B588B004460121402000F0D3F9012180
:1039A000202000F0EFF9082209212348FEF728FF24
:1039B00008220E212048FEF723FF4FF48440069092
:1039C00002208DF81C008DF81D0000208DF81E00CF
:1039D00001208DF81F0006A91748FEF7C9FE0294C2
:1039E0000020ADF80C00ADF80E00ADF81000ADF8F9
:1039F00014000C20ADF8120002A9104800F0DEFF00
:103A000001210E4800F076FF012240F225510B48BB
:103A100000F0AFFF47208DF8040007208DF8050067
:103A200000208DF8060001208DF8070001A800F0A5
:103A30008BF808B010BD00000018024000140140CF
:103A40004160704710B502A0FCF7A8FC10BD000053
:103A50004D656D4D616E6167655F48616E646C6553
:103A6000720000004FF0FF32828080ED070A817201
:103A7000002202804280C28002818281DFED060A3C
:103A8000C0ED040ADFED040AC0ED050ADFED020A0D
:103A9000C0ED060A704700000000000030B5B0F924
:103AA00004305B1C13B98180018030BD03884380E2
:103AB00001800281837ABBB3038844881B1B1BB23D
:103AC000C380B0F90630194CA34204DA83895B1C29
:103AD0001BB2838109E0B0F9063041F26804A342C9
:103AE00003DD83895B1E1BB28381B0F90040B0F90E
:103AF0000450631BDC1703EBD44464134FF4B47518
:103B000014FB05F4B0F90C50C5EB051505EB4505A4
:103B100004EBC50400EE104AB8EEC00AD0ED070A67
:103B200080EE201A80ED041A00BFBEE798EFFFFF79
:103B300010B502A0FCF732FC10BD00004E4D495FED
:103B400048616E646C65720070B5002100230F221D
:103B5000C4781CB3174C246804F4E064C4F5E06432
:103B6000C4F30721C1F10404E3B20A4144789C4044
:103B7000E1B28478144021430C07210E0E4C0578E5
:103B80006155047804F01F050124AC4005786D11DF
:103B9000AD0005F1E025C5F8004109E0047804F026
:103BA0001F050124AC40054D0678761145F82640E6
:103BB00070BD00000CED00E000E400E080E100E0FA
:103BC00002490143024A1160704700000000FA05F3
:103BD0000CED00E0014691ED051A81ED071A81ED2B
:103BE000050AC1ED060A486B886391ED051AD1ED0F
:103BF000061A31EE611A81ED081A91ED001AD1ED25
:103C0000081A21EE211A81ED0A1A91ED0B1AD1ED55
:103C1000011A91ED082A01EE821A81ED0B1A91ED3D
:103C20000B1AD1ED041AF1EE611AB4EEE11AF1EEBD
:103C300010FA02DD91ED0B1A05E091ED041AB1EED8
:103C4000411A81ED0B1AD1ED041AB4EEE11AF1EE2E
:103C500010FA02D291ED0B1A01E091ED041A81EDF8
:103C60000B1A91ED0A1AD1ED0B1A31EE211AD1ED92
:103C70000C1A31EE211ABDEEC11A81ED0D1A91ED2B
:103C80000D1AB8EEC11AD1ED031AF1EE611AB4EEB5
:103C9000E11AF1EE10FA02DD91ED0D1A07E091ED57
:103CA000031AB1EE411ABDEEC11A81ED0D1AB8EE3C
:103CB000C11AD1ED031AB4EEE11AF1EE10FA04D2F2
:103CC00091ED0D1AB8EEC11A01E091ED031ABDEEA7
:103CD000C11A81ED0D1A91ED081A81ED091A486B90
:103CE0007047000080ED000AC0ED010A80ED021A65
:103CF000C0ED031A80ED042ADFED112AC0ED052A7C
:103D0000DFED0F2AC0ED072ADFED0D2AC0ED062AF0
:103D1000DFED0B2AC0ED082ADFED092AC0ED092AE4
:103D2000DFED072AC0ED0A2ADFED052AC0ED0B2AD8
:103D3000DFED032AC0ED0C2A002141638163704747
:103D40000000000029B1064A12680243044B1A60C1
:103D500004E0034A12688243014B1A607047000076
:103D60003038024029B1064A12680243044B1A60F7
:103D700004E0034A12688243014B1A607047000056
:103D80004038024029B1064A12680243044B1A60C7
:103D900004E0034A12688243014B1A607047000036
:103DA00044380240F0B500210022002402250026FC
:103DB0000223324F3F6807F00C0121B1042905D0DE
:103DC000082937D105E02E4F076036E02D4F0760F8
:103DD00033E02A4F3F1F3F68C7F38056274F3F1FEE
:103DE0003F6807F03F036EB1264FB7FBF3F7DFF8EC
:103DF0008CC0ACF1040CDCF800C0CCF3881C07FBD1
:103E00000CF40CE01E4FB7FBF3F7DFF870C0ACF119
:103E1000040CDCF800C0CCF3881C07FB0CF4174F33
:103E20003F1F3F68C7F301477F1C7D00B4FBF5F7D8
:103E3000076002E0124F076000BF00BF0F4F3F68EE
:103E400007F0F0010909104F7A5C0768D740476016
:103E50000A4F3F6807F4E051890A0B4F7A5C4768C4
:103E6000D7408760054F3F6807F46041490B064F14
:103E70007A5C4768D740C760F0BD00000838024050
:103E80000024F400001BB7000000002030B5002221
:103E90008B071C0F0F2303FA04F20B4B8C1053F803
:103EA00024309343084C8D1044F8253023468C1061
:103EB00053F824308C07240F00FA04F42343024CF7
:103EC0008D1044F8253030BD083801400CB5002075
:103ED000019000904148006840F480303F490860FC
:103EE00000BF3E48006800F4003000900198401C7C
:103EF0000190009818B90198B0F5A04FF1D137485A
:103F0000006800F4003010B10120009001E00020B2
:103F100000900098012860D130484030006840F09F
:103F200080502E49403108602D48006840F44040E0
:103F30002B49086029480830006828490831086082
:103F40000846006840F4004008600846006840F4F5
:103F5000A05008602348091F0860081F006840F04F
:103F60008070091F086000BF1C48006800F00070E6
:103F70000028F9D01A48006840F4803018490860D9
:103F800000BF1748406800F480300028F9D014487A
:103F9000006840F400301249086000BF10484068D3
:103FA00000F400300028F9D040F205700E49086096
:103FB0000A480830006820F003000849083108600A
:103FC0000846006840F00200086000BF034808305F
:103FD000006800F00C000828F8D10CBD0038024041
:103FE000007000400C5A4007003C0240042808D1F1
:103FF0004FF0E021096941F004014FF0E022116126
:1040000007E04FF0E021096921F004014FF0E022C0
:104010001161704710B503F0B1FE012801D003F023
:1040200073FB10BD10B51548006840F470001349CB
:1040300008601348006840F0010011490860002042
:104040000F49083108600E4800680E4908400C49C5
:1040500008600D48091D0860081F006820F48020D2
:10406000091F0860002006490C310860FFF72EFF89
:104070004FF0006001498039086010BD88ED00E014
:1040800000380240FFFFF6FE1030002410B5012179
:10409000880700F02FF860B106480068401C054909
:1040A00008600121880700F016F80121880700F058
:1040B0000FF810BD9000002021B1028842F080026C
:1040C000028004E002884FF67F731A400280704736
:1040D000CA4302827047CA430282704721B10288F4
:1040E00042F00102028004E002884FF6FE731A409B
:1040F0000280704730B50246002000230024158A54
:1041000005EA0103958905EA010413B10CB1012008
:1041100000E0002030BD1AB183890B43838102E0A7
:1041200083898B438381704770B50024002200236C
:10413000058C4FF6FE7635400584028C8388048B0F
:104140004FF68F752C40B51E2C400D882C43751EE4
:104150002A408D892A434D882A43104DA84202D017
:104160000F4DA84213D14FF6F7752A40CD892A4347
:104170004FF6FB752A408D882A434FF6FF652B408A
:104180004FF6FF552B400D8A2B434D8A2B438380DE
:1041900004838D684563028470BD00000000014007
:1041A000000401400A460021018B4FF6F7731940C5
:1041B000114301837047000000220288184B984287
:1041C0000ED0184B98420BD0B0F1804F08D0164B50
:1041D000984205D0154B984202D0154B984204D115
:1041E0004FF68F731A404B881A43124B984207D0F0
:1041F000114B984204D04FF6FF431A400B891A43E3
:1042000002804B68C3620B880385054B984202D03D
:10421000044B984201D18B7A038601238382704735
:10422000000001400004014000040040000800407C
:10423000000C0040001000400014004008B503F0DE
:10424000ADFD009008E04FF480410448FEF7FFFA0E
:10425000FA21684602F068FFF5E70000001402400A
:104260002DED0C8B86B003F099FD05909FEDB10A02
:10427000B0EE408A022402259FEDAF0AB0EE40DA8C
:104280009FEDAE2ADFEDAE1A9FEDAB1ADFEDAD0A62
:10429000B2EE0E0AAC48FFF725FD9FEDA82ADFED30
:1042A000A81A9FEDA51ADFEDA70AB2EE0E0AA748DD
:1042B000FFF718FD9FEDA12ADFEDA11A9FED9E1AD1
:1042C000DFEDA00AB2EE0E0AA148FFF70BFD9FED4D
:1042D0009B2ADFED9B1A9FED981ADFED9A0AB2EE4A
:1042E0000E0A9C48FFF7FEFC9FED9B2ADFED9A1A11
:1042F0009FED911ADFED900AB2EE040A9748FFF79E
:10430000F1FC9FED952ADFED8E1A9FED8B1ADFED04
:104310008A0AB0EE000A9248FFF7E4FC08E19148EF
:10432000B0F90000002803DB8E48B0F9000003E07C
:104330008C48B0F900004042052801DA012000E075
:10434000022004468848D0ED008A8849B1F90C0063
:1043500004F005FA41EC1B0B9FED850B53EC102B81
:1043600004F076F841EC1A0B03F084FF09EE100A12
:10437000AC420CD09FED700A784880ED0B0A9FED9F
:104380006E0A774880ED0B0AB0EE68DA2546012CFC
:1043900013D1F0EE680AB0EE4D0A7048FFF71AFC30
:1043A0006E48D0ED0D0AF8EEE00AB0EE600AF0EECD
:1043B000490A6B48FFF70EFC0EE06A48B0F90000AE
:1043C000404200EE900AF8EEE00AB0EE600AF0EE2D
:1043D000490A6348FFF7FEFB614890ED0D0AB8EE0D
:1043E000C00A10EE101A084604F002FD41EC1C0B46
:1043F0009FED610B53EC102B04F02AF841EC1B0BE2
:1044000003F038FF09EE900A5648B0F90600404222
:1044100000EE100AB8EEC00A10EE101A084604F0BA
:10442000E7FC41EC1C0B9FED560B53EC102B04F0FA
:104430000FF841EC1B0B03F01DFF0AEE100A494870
:10444000B0F9040000EE100AB8EEC00A10EE101A1F
:10445000084604F0CDFC41EC1C0B9FED490B53ECDE
:10446000102B03F0F5FF41EC1B0B03F003FF0AEEEA
:10447000900AB0EE691AF0EE4A0AB0EE6A0AFEF748
:1044800003F801A8FDF7A8FE3F48B0F9080001EEC7
:10449000100AB8EEC11A21EE081AF0EE410A9DED9D
:1044A000011AB8EEC11AB0EE410A2748FFF792FB95
:1044B0003648B0F9080001EE100AB8EEC11A21EE34
:1044C000081AF0EE410A9DED021AB8EEC11AB0EEDC
:1044D000410A1E48FFF77EFB2D48B0F9080001EEA7
:1044E000100AB8EEC11A21EE081AF0EE410A9DED4D
:1044F000031AB8EEC11AB0EE410A1548FFF76AFB7D
:104500002448B0F9080001EE100AB8EEC11A21EEF5
:10451000081AF0EE410A9DED041AB8EEC11AB0EE89
:10452000410A0C48FFF756FB0A2105A802F0FCFDE2
:10453000F5E600007A5B563D000000000000FA44FA
:1045400000007A459A99993EA0300120DC30012084
:10455000183101205431012000007A4490310120AB
:10456000CC310120B42F012008320120503201202B
:1045700066666666666630400000000000A09440F3
:104580000000000000A08440202F0120802F012087
:10459000602F0120402F012008B503F0FFFB0090A1
:1045A00005E0FEF759F90521684602F0BDFDF8E780
:1045B00008B503F0F3FB009000210848FFF740FA2C
:1045C0000AE002F069FC0548FFF774F902F08EFC7E
:1045D0003221684602F0A8FDF3E700009430012084
:1045E0002DED088B88B003F0D9FB07903BE002F07B
:1045F00053FC1D4890ED040A10EE101A084604F012
:10460000F7FB41EC180B194890ED040A10EE101A54
:10461000084604F0EDFB41EC190B154890ED040A37
:1046200010EE101A084604F0E3FB41EC1A0B114897
:1046300090ED040A10EE101A084604F0D9FB41EC84
:104640001B0B8DED048B8DED029B8DED00AB53ECC0
:104650001B2B09A0FBF7A2FE02F048FC4FF4FA71F5
:1046600007A802F061FDC2E7402F0120602F012062
:10467000802F0120202F0120253130662025313068
:1046800066202531306620253130660D0A00000095
:104690001CB512E00948407A02280BD10020009096
:1046A000034602464FF4007101900548FDF74EFDA8
:1046B00002F01EFF642002F009FDEBE7B42F012099
:1046C000006400401CB5044602F0E6FBFEF75EFB0A
:1046D000FDF716F8FCF75EFFFDF7CCF9FCF7DCFF01
:1046E000FDF744F9FDF7DAF8FEF736FEFEF72AFE8D
:1046F000FEF7B0FD0020062103464FF4FA72CDE923
:10470000001020A1244803F009FB002006210346E5
:104710004FF4FA72CDE9001020A1244803F0FEFA0C
:104720000020052103464FF4C872CDE9001020A1F6
:10473000234803F0F3FA0020072103464FF4FA72EE
:10474000CDE900101FA1234803F0E8FA002003215F
:1047500003464FF4C872CDE900101FA1214803F0B1
:10476000DDFA0020032103464FF4C872CDE90010A2
:104770001DA1214803F0D2FA002002F03FFD02F013
:10478000B5FB1CBD5461736B5F4D61676963526516
:104790006365697665000000B14500085461736B7C
:1047A0005F4D6167696353656E640000E145000811
:1047B0005461736B5F4779726F73636F706500004C
:1047C000994500085461736B5F536166655F4D6F77
:1047D00064650000914600085461736B5F426C6928
:1047E0006E6B00003D4200085461736B5F4368616B
:1047F00073736973000000006142000810B513482C
:104800008088C4B211480088C4B200211048FDF766
:10481000B9FE0F48001D0068012803D10D490E485C
:10482000FDF73CFE0D490A48FDF792FE00BF08481F
:10483000FDF7B3FE0028FAD113210548FDF7E4FE89
:1048400001210348FDF79EFE10BD0000001001404D
:1048500040640240A02F0120B42F0120000030103E
:1048600010B540F225511F4800F059F840B11D48DD
:1048700000F00EF9C4B24FF400611B48FDF7E7FFEA
:104880001A48008800F4004058BB1848008800F41B
:10489000804060B10A2C03D000201449088020E039
:1048A0001248008840F400401049088019E00D2C9F
:1048B00006D10E48008840F480400C49088010E082
:1048C0000A480088C0F30D0009490C5407480088C5
:1048D000401C0649088008460088C72801DD0020E2
:1048E000088010BD00140140001002409400002018
:1048F000CC2F012021B1828942F40052828104E050
:1049000082894DF6FF731A40828170471AB1838AFB
:104910000B43838202E0838A8B438382704770B5A6
:104920000246002400230025002040F66A16B1420A
:1049300000D100BFC1F3421501F01F03012606FAA2
:1049400003F3012D02D19689334006E0022D02D1F6
:10495000168A334001E0968A33400C12012606FA8B
:1049600004F41688344013B10CB1012000E000209B
:1049700070BDF0B50346002400260025002040F657
:104980006A17B94200D100BF1846C1F3421401F0C2
:104990001F06012707FA06F5012C01D10C3004E0AF
:1049A000022C01D1103000E014301AB107682F43F7
:1049B000076002E00768AF430760F0BD2DE9FF47DD
:1049C00005460E460024A14600BFA046B08900B1AE
:1049D00000BF2C8A24F44054F08804432C82AC8914
:1049E00041F20C608443B0883189084371890843DF
:1049F0000443AC81AC8A24F44074B0890443AC8293
:104A00006846FFF7CFF92048854202D01F4885420B
:104A100002D1DDF80C9001E0DDF80890A88900F4DF
:104A2000004040B109EBC90000EB091031684900B2
:104A3000B0FBF1F707E009EBC90000EB09103168A2
:104A40008900B0FBF1F76420B7FBF0F00401200906
:104A5000642101FB1078A88900F4004040B13220A5
:104A600000EBC800B0FBF1F000F00700044308E0E1
:104A7000322000EB08106421B0FBF1F000F00F00D1
:104A800004432C81BDE8FF87001001400014014061
:104A900001468888C0F308007047000010B502A0E6
:104AA000FBF77CFC10BD00005573616765466175BE
:104AB0006C745F48616E646C6572000003B40198A9
:104AC0004100009850EAC12018BF04204A0D18BFC9
:104AD00040F0010040F2FF72B2EB515F08BF40F0BE
:104AE0000200012808BF052002B070470000000046
:104AF00070B5C1482DED020B2DED0E8B82B0119DCE
:104B000025F000449FEDBEDB9FEDBFEB84423EDB12
:104B1000A4F140511098A1F17F6108430FD0BC4827
:104B2000844202DC28D1109830B39DED100B02B006
:104B3000BDEC0E8B02B0BDE8704001F0A9BA9DED4E
:104B4000100B53EC1D2B51EC100B03F05BFE9DED95
:104B5000100B41EC180B53EC1E2B51EC100B03F017
:104B600051FE53EC182B03F0B7FB41EC100B02B0D5
:104B7000BDEC0E8B02B070BD0120FBF71EFD02B034
:104B8000BDEC0E8B02B0BDE8704001F095BAA148B3
:104B90009FEDA18B844256DA9DED100BB4F1795F45
:104BA0000ADA51EC100BFFF789FF042808BF01F067
:104BB000A3FA9DED100BDAE753EC102B51EC100B20
:104BC00003F020FE41EC190B95480621B0EE490A8E
:104BD000F0EE690A784401F0C7F953EC192B51EC57
:104BE000100B03F00FFE41EC1A0B8E48B0EE490A91
:104BF000F0EE690A0421784401F0B6F953EC192B60
:104C000051EC100B03F0FEFD53EC182B03F064FB8A
:104C100041EC100B51EC1A0B53EC102B03F018FC69
:104C2000CDE900019DED000B53EC102B9DED100B19
:104C300051EC100B03F0E6FD9DED101B53EC112B16
:104C400003F04AFBD2E09DED100B51EC100B01F08C
:104C5000B9FA53EC182B03F009FF9FED730BCDE964
:104C6000000153EC102B9DED000B51EC100B03F0E9
:104C7000C9FD41EC190B6E480621B0EE490AF0EE71
:104C8000690A784401F070F953EC192B51EC100BC0
:104C900003F0B8FD41EC1B0B6648B0EE490AF0EE9C
:104CA000690A0421784401F05FF953EC192B51ECA7
:104CB000100B03F0A7FD53EC182B03F00DFB41EC98
:104CC0001C0B51EC190B02F065F841EC180B5A481B
:104CD0009FED5BABA04222DC53EC1C2B51EC1B0B79
:104CE00003F0B6FBCDE900019DED000B51EC180B74
:104CF00053EC102B03F086FD53EC182B03F0ECFA69
:104D000053EC1A2B03F07EFD53EC1D2B03F086FFB2
:104D100053EC1E2B03F0AAFE41EC100B5FE08DED6F
:104D2000008B002000909DED000B51EC180B53EC14
:104D3000102B03F0D1FA9DED000B41EC1E0B53EC50
:104D4000102B51EC100B03F05DFD53EC192B03F00D
:104D50008DFE53EC1E2B03F07BFB41EC190B53EC47
:104D60001C2B51EC1B0B03F073FB41EC1B0B53ECA6
:104D70001A2B51EC190B03F045FD53EC1D2B03F0DE
:104D800075FE41EC190B53EC1A2B51EC180B03F088
:104D900039FD53EC1B2B03F035FD53EC192B03F0BD
:104DA0003DFF9DED000B41EC180B53EC1A2B51EC21
:104DB000100B03F027FD9FED249B53EC192B03F000
:104DC00055FE41EC100B51EC180B53EC102B03F07B
:104DD00025FF53EC192B03F049FE41EC100B002D7D
:104DE0003FF7C5AE51EC100B03F038FA41EC100B55
:104DF000BDE60000000000000000F03F00000000E1
:104E0000075C143326A6913C182D4454FB21F93F2E
:104E10000000F07F0000E03F000000000000F03FD5
:104E20000844000016440000000000000000E03FBD
:104E30005A430000684300003333EF3F0000000096
:104E40000000000000000040182D4454FB21E93F01
:104E500070B59B482DED020B2DED068B079D25F0BF
:104E60000044A04218DC9748844202DC0AD106982C
:104E700040B19DED060BBDEC068B02B0BDE8704065
:104E800001F006B9002DCCBF9FED8F0B9FED900B6D
:104E9000BDEC068B02B070BD8F48A04215DD8F4877
:104EA000A042D8BF4FF0FF3458DD9DED060B51EC0A
:104EB000100BFFF703FE042808BF01F01DF99DED5C
:104EC000060BBDEC068B02B070BD9DED060B51ECE0
:104ED000100B01F077F9CDE9060181489FED828B37
:104EE000A0423CDD8248A0421FDD00249FED82AB42
:104EF0009DED060B53EC1A2B51EC100B03F0ECF963
:104F00009DED060B41EC190B53EC1A2B51EC100BD9
:104F100003F078FC53EC182B03F080FE53EC192BB4
:104F200003F096FACDE9060149E09DED060B012458
:104F300053EC182B51EC100B03F0CEF99DED060B42
:104F400041EC190B53EC182B51EC100B03F066FEDF
:104F500053EC192B03F07CFACDE906012FE06848E9
:104F6000A0421FDD02249FED689B9DED060B53ECD4
:104F7000192B51EC100B03F045FC53EC182B03F0EC
:104F8000ABF99DED060B41EC180B53EC192B51ECD2
:104F9000100B03F043FE53EC182B03F059FACDE944
:104FA00006010CE09DED060B032453EC102B9FED46
:104FB000580B51EC100B03F04BFACDE906019DEDB7
:104FC000060B53EC102B51EC100B03F01BFC41ECC7
:104FD000180B53EC182B03F015FC41EC190B4E4841
:104FE0000621B0EE490AF0EE690A784400F0BCFFF1
:104FF00053EC182B51EC100B03F004FC41EC180B94
:105000004648B0EE490AF0EE690A0521784400F0FE
:10501000ABFF53EC192B51EC100B03F0F3FB41ECFD
:10502000100B51EC180B53EC102B002C0EDA03F084
:1050300053F99DED061B53EC112B03F0E3FB9DEDA3
:10504000061B53EC112B03F011FD35E003F044F97E
:105050009DED061B53EC112B03F0D4FB41EC100B20
:105060002F48784400EBC40090ED001B51EC100B6E
:1050700053EC112B03F0D2FD9DED061B53EC112BCD
:1050800003F0CCFD41EC100B2648784400EBC40043
:1050900090ED001B51EC100B53EC112B03F0E6FCD0
:1050A00041EC100B002DA2BFBDEC068B02B070BD11
:1050B00051EC100B03F0D2F841EC100B01E70000AB
:1050C000000010440000F07F182D4454FB21F93FEC
:1050D000182D4454FB21F9BF0000DC3F0000203EA6
:1050E0000000F33F00000000000000000000F03F5F
:1050F0000000E63F0000000000000000000000404B
:105100000080034000000000000000000000F83FA5
:10511000000000000000F0BFAA4000006040000056
:10512000EA3F0000A23F000070B56B4E2DED040B6E
:105130002DED028B82B0DDF81CC0DDE905235C4259
:105140002CF000411C4341EAD474049D22F000403D
:10515000B44205D86C422C4340EAD474B4420BD913
:105160009DED061B9DED040B02B0BDEC028B04B05F
:10517000BDE8704000F096BFACF14054A4F17F64EC
:105180001C430BD0022404EAAC7444EAD2740543F5
:105190009FED538B9FED542B07D015E09DED040B35
:1051A00051EC100B00F0BFFF42E0002C11BF012CAE
:1051B0009DED040B02B0BDEC028B04BF04B070BDCA
:1051C000022C38D0032C3BD00B439FED491B9FEDA5
:1051D0004A0B0AD0B14218D1B04209D121F0804126
:1051E00020F08040079105900FE0002A15DA10E0CA
:1051F000434B7B44002C08BF93ED000B0DD0012CDA
:1052000010D0022C17D0032C1AD0B0421DD1002A86
:1052100003DAB0EE410AF0EE610A02B0BDEC028B97
:1052200004B070BD93ED000B51EC100B03F016F8B9
:1052300041EC100BF1E7B0EE480AF0EE680AECE73B
:10524000B0EE420AF0EE620AE7E7401A00153C2889
:10525000C8BF8DED000B19DCBCF1000FBEBF10F113
:105260003C0F9FED290B8DED000B0FDB9DED060B29
:1052700053EC102B9DED040B51EC100B03F0E8F8F0
:1052800000F0A0FF00F04FFFCDE90001002C08BFA7
:105290009DED000BC1D0012C10D0022C9FED1C0BFA
:1052A00053EC102B9DED000B51EC100B0DD003F0C7
:1052B000B5FC53EC182B03F0B1FCB9E7019880F072
:1052C000004001909DED000BA7E703F0A7FC53EC15
:1052D000182B03F0CBFBABE70000F07F00000000D1
:1052E000182D4454FB210940182D4454FB2109C0BA
:1052F000182D4454FB21F9BF182D4454FB21F93FCC
:105300005A3F000000000000000000000000000004
:10531000075C143326A6A13C2DE9F04D2DED040BBE
:105320002DED0E8B96B0DDE92550279CDDF890A081
:1053300025F0004624F00048BAF1000F14BF012107
:10534000002101EB4502FC4953184A1093422AD32D
:10535000002814BF0123002303EB44030B44F74947
:105360008B4220D358EA00019FEDF59B76D0DFF801
:10537000D8B35D4503D1BAF1000F05D188E0BAF189
:10538000000F08BF002100D0012101EB450111F5FC
:10539000001F08D8002814BF0121002101EB44019F
:1053A00011F5001F0BD99DED261B9DED240B16B0AA
:1053B000BDEC0E8B04B0BDE8F04D00F073BE0027CD
:1053C000002DBCBFE149884521DAE1498845A8BFE5
:1053D00002271CDAC3451ADCDE4901EB28511429E7
:1053E00008DDC1F1340220FA02F101FA02F2824230
:1053F0000DD108E058B9C1F1140228FA02F101FAFE
:1054000002F2424503D101F00101C1F1020756EA5F
:105410000A0124D1002C22DA002D18BF022F01D05E
:10542000012F0AD00220FBF7C8F816B0BDEC0E8B96
:1054300004B0BDE8F04D00F013BE0220FBF7BDF84C
:1054400000F00EFE51EC100B02F008FF41EC100BC7
:1054500016B0BDEC0E8B04B0BDE8F08D18E09FEDEA
:10546000BEAB9FEDBF8B002871D1B848804522D1DB
:1054700005F1804010F5801008BFBAF1000F07D089
:10548000B3450ADC002CA8BF9DED260BE0DA0DE049
:10549000B0EE490AF0EE690ADAE7002C06DA9DED73
:1054A000260B51EC100B02F0D9FE6FE0AE487844A9
:1054B00090ED000BCCE7D8454DD1002C48DA2EB149
:1054C00086423AD1BAF1000F42D126E0BAF1000F7C
:1054D00013D00220FBF771F800F0FEFD8DED020BFA
:1054E0009DED240B8DED000B10EE900A039961F3F6
:1054F0001E0003909DED020BAAE78DED02AB9DED22
:10550000240B1AEE901A10EE900A8DED000B61F349
:105510001E0003909DED020B9AE78DED028B9DED31
:10552000240B18EE901A10EE900A8DED000B61F32B
:105530001E0003909DED020B8AE709DA9DED240B16
:1055400051EC190B53EC102B02F082FF1EE020E00F
:105550009DED240B7CE786421BDAB4F1804F0DD021
:10556000A4F10050B0F1FF5013D1002D11DB9DEDDF
:10557000240B51EC100B01F00DFC07E09DED240B0A
:1055800053EC102B51EC100B00F0C2BC41EC100B93
:105590005EE79DED240B51EC100B00F013FEBAF109
:1055A000000FCDE90E0142D19FED710B46B3A6F17C
:1055B000E040B0F17F600CD05E4538D1002D00DABC
:1055C000A7B3022F0CBF01204FF0FF3003F0C7F844
:1055D000DCE7002D01DD002C0DDA002D01DD002CB3
:1055E0001FDB002D16DA002C14DB012F08BF9FED06
:1055F000620B3FF42DAFB0EE4A0AF0EE6A0A27E7DD
:10560000022F18BF002D0CD0012F0AD1002DFFF65C
:105610001FAF06E0002DB8BF002C08DA012F3FF4C1
:1056200017AFB0EE480AF0EE680A11E71BE0012060
:1056300000EBE57050EA070115D0791EB0EE498AFB
:10564000F0EE698A084308BF9FED4D8B4E48002558
:10565000804570DD4D494E48884514DDB0420DDB74
:10566000002C19DB2FE00120FAF7A7FF16B0BDECE4
:105670000E8B04B0BDE8F04D00F01EBDB34502DC5A
:10568000002C09DC1FE0864202DA002C1BDA03E062
:105690005E452BDD002C16DD0220FAF78EFF00F0B0
:1056A0001BFD8DED020B53EC1A2B51EC180B03F084
:1056B000A9F8CDE900010399019861F31E00039058
:1056C0009DED020BC4E60220FAF777FF00F014FD0F
:1056D00010EE901A18EE900A8DED020B8DED008BF6
:1056E00061F31E0003909DED020BB1E69DED0E0BE4
:1056F00053EC192B51EC100B03F090FA9FED260B95
:10570000CDE9080153EC102B9DED080B51EC100B6B
:1057100003F078F89FED221B53EC112B03F0A6F950
:105720009DED081B53EC112B03F06CF89FED1E1B35
:1057300053EC112B3CE08CE0FFFF1F00FFFF0F003C
:10574000000000000000F03F0000F03F0000F07F8C
:105750000000404301FCFFFF000000000000F07F5C
:1057600000000000000000009E3C0000000000005F
:105770000000000000000080000000000000F0FFBA
:10578000000000000000F0BF0000E0410000F04316
:10579000FFFFEF3F00000000000000000000D03FCE
:1057A000555555555555D53F000000000000E03FC8
:1057B00003F05CF99DED080B41EC1A0B53EC102B38
:1057C00051EC100B03F01EF853EC1A2B03F01AF8EF
:1057D00041EC1A0B9FEDFE0B53EC102B9DED080BCB
:1057E00051EC100B03F00EF841EC1B0B9FEDFA0B84
:1057F00051EC1A0B53EC102B03F004F841EC1A0B8C
:105800009FEDF70B53EC102B9DED080B51EC100B9B
:1058100002F0F8FF53EC1A2B03F000FA41EC1A0BDC
:1058200051EC1B0B53EC1A2B02F056FD0690CDE900
:1058300006519DED060B53EC1B2B51EC100B03F0A6
:10584000EDF953EC1A2B03F011F941EC100B00F0B9
:10585000A1B90020B6F5801F0EDA9FEDE30B53ECE3
:10586000102B9DED0E0B51EC100B02F0CBFFCDE990
:105870000E016FF034000E4600EB2650A0F2FF3709
:10588000C6F31300DA4940F07F6646F0405688427E
:10589000D8BF002408DDD7498142C8BF012403DCFA
:1058A0000024A6F580167F1CD348784400EBC40082
:1058B0000F9690ED00CB9DED0E0B53EC1C2B51EC95
:1058C000100B03F0ABF99DED0E0B41EC1B0B53ECF1
:1058D0001C2B51EC100B02F0FFFC41EC100B51ECB7
:1058E000190B53EC102B02F0B3FD41EC1D0B51ECE6
:1058F0001B0B53EC1D2B02F085FF41EC1A0BBF482C
:105900008DED10AB7844109590ED000B4FF00050EA
:1059100040EA660000EB84408DED080B00F50020A6
:1059200009909DED080B53EC1C2B51EC100B03F070
:1059300075F99DED0E1B53EC112B03F097F841EC1C
:10594000100B53EC102B9DED100B51EC100B02F0D3
:1059500059FF9DED080B41EC1C0B53EC102B9DEDFA
:10596000100B51EC100B02F04DFF53EC1B2B03F00E
:105970007DF853EC1C2B03F051F953EC1D2B02F076
:1059800041FF41EC1C0B53EC1A2B51EC1A0B02F0AB
:1059900039FF41EC1B0B9A480621B0EE4B0AF0EEA2
:1059A0006B0A784400F0E0FAB0EE401AF0EE601AAC
:1059B000B0EE41DAF0EE61DA53EC1B2B51EC1B0B2D
:1059C00002F020FF53EC1D2B02F01CFF9DED100B8D
:1059D00041EC1B0B53EC1A2B51EC100B02F07CFC2E
:1059E00053EC1C2B02F00EFF53EC1B2B02F074FC4B
:1059F0009DED100B41EC1B0B53EC102B51EC100BDD
:105A000002F000FF41EC1D0B9FED7FEB53EC1E2BD2
:105A100002F062FC53EC1B2B02F05EFC0890CDE917
:105A200008519DED080B53EC1E2B51EC100B03F0AD
:105A3000F5F853EC1D2B03F0F1F853EC1B2B03F09E
:105A400015F89DED080B41EC1D0B53EC102B9DED53
:105A5000100B51EC100B02F0D5FE41EC1B0B53EC7C
:105A60001A2B51EC1D0B02F0CDFE9DED080B41EC05
:105A70001A0B53EC102B51EC1C0B02F0C3FE53EC31
:105A80001A2B02F029FC41EC1A0B51EC1B0B53ECC6
:105A90001A2B02F021FC0C90CDE90C519DED0C0B62
:105AA00053EC1B2B51EC100B03F0B8F853EC1A2BF2
:105AB00002F0DCFF41EC1B0B9FED550B53EC102B60
:105AC0009DED0C0B51EC100B02F09CFE41EC1A0BFF
:105AD0009FED510B51EC1B0B53EC102B02F092FE7F
