:020000040800F2
:10000000D84601201D030008D52C000895250008BE
:10001000E92B0008691B0008BD3A00080000000039
:100020000000000000000000000000006502000861
:100030009523000800000000B9020008C93000083C
:1000400037030008370300083703000837030008A8
:100050003703000837030008370300083703000898
:100060003703000837030008370300083703000888
:100070003703000837030008370300083703000878
:100080003703000837030008370300083703000868
:10009000891B000837030008151C00080924000804
:1000A0003703000837030008370300083703000848
:1000B0004131000837030008370300083703000800
:1000C0003703000837030008370300083703000828
:1000D000370300081D3800083703000837030008FD
:1000E0003703000837030008370300083703000808
:1000F00037030008370300083703000837030008F8
:1001000037030008370300083703000837030008E7
:1001100037030008370300083703000837030008D7
:1001200037030008370300083703000837030008C7
:1001300037030008370300083703000837030008B7
:10014000351C000837030008370300083703000890
:100150003703000837030008370300088138000818
:100160003703000837030008370300083703000887
:1001700037030008370300083703000800000000B9
:100180003703000837030008370300083703000867
:100190003703000837030008370300083703000857
:1001A00000000000000000003703000800F002F823
:1001B00000F049F80AA090E8000C82448344AAF1B8
:1001C0000107DA4501D100F03EF8AFF2090EBAE8B6
:1001D0000F0013F0010F18BFFB1A43F0010318477B
:1001E000C4750000E4750000103A24BF78C878C1D7
:1001F000FAD8520724BF30C830C144BF04680C602D
:10020000704700000023002400250026103A28BF74
:1002100078C1FBD8520728BF30C148BF0B60704778
:10022000662907F0B181002070471FB507F0A7F9D4
:1002300000F034FC04000020002106F081FBE060A7
:100240001FBD10B510BD00F055FD1146FFF7EDFFC5
:1002500004F078FB00F073FD03B4FFF7F2FF03BC7A
:1002600000F0B6FD2A4B19680868B0E8F04F80F33B
:100270000988BFF36F8F4FF0000080F3118870473B
:100280000000000006480068006880F3088862B635
:1002900061B6BFF34F8FBFF36F8F00DF00BF00BFAA
:1002A00008ED00E0DFF80C00016841F47001016026
:1002B000704700BF88ED00E0EFF30980BFF36F8F58
:1002C000134B1A681EF0100F08BF20ED108A20E9AA
:1002D000F04F106008B44FF0500080F31188BFF366
:1002E0004F8FBFF36F8F05F093FC4FF0000080F34A
:1002F000118808BC19680868B0E8F04F1EF0100FAC
:1003000008BFB0EC108A80F30988BFF36F8F704785
:1003100010000020EFF30580704700000948804777
:1003200009480047FEE7FEE7FEE7FEE7FEE7FEE7D7
:10033000FEE7FEE7FEE7FEE704480549054A064BEF
:1003400070470000D9300008AD010008D832012004
:10035000D8460120D8420120D84201200FB40449D8
:1003600010B503AA029800F033FB10BC5DF814FB33
:10037000B000002070B5044685690068C10601D54B
:10038000302600E02026C00707D070BDD4E9012147
:1003900030469047206A401C20626D1EF6D570BD25
:1003A00070B5044685690078C00707D170BDD4E9EF
:1003B000012120209047206A401C20626D1EF6D546
:1003C00070BD2DE9F0474FF0000A89460446C0F899
:1003D00020A02046E1688847002876D0252806D04E
:1003E000D4E901219047206A401C2062F1E7E168CE
:1003F000204600258847C4F81CA006460027C4F8FC
:1004000018A02A2E09D0304604F07AFA38B304EB4B
:100410008708303EC8F8186019E059F8041B2046D8
:1004200004EB87029161E1688847012F064618D1E5
:10043000E069002820DA25F020051DE0D8F8180032
:1004400000EB800006EB40003038C8F8180020466A
:10045000E1688847064604F053FA0028EED1012FE0
:100460000AD02E2E08D12046E16888477F1C064618
:10047000022F45F02005C4DBA069002803DA4042C2
:1004800045F00105A061E80701D025F01005B6B1DF
:10049000A6F14100192802D8203645F400654A46E5
:1004A0003146204625604D46FFF7BAFE58B1012877
:1004B00006D0ED1D25F0070000F1080989E704E0EA
:1004C00005F1040985E730468AE7206ABDE8F08730
:1004D000032A40F2308010F0030C00F0158011F870
:1004E000013BBCF1020F624498BF11F801CB00F848
:1004F000013B38BF11F8013BA2F1040298BF00F89C
:1005000001CB38BF00F8013B11F0030300F0728209
:10051000083AC0F0088051F8043B083A51F804CB7F
:10052000A0E80810F5E7121D5CBF51F8043B40F845
:10053000043BAFF30080D20724BF11F8013B11F850
:1005400001CB48BF11F8012B24BF00F8013B00F894
:1005500001CB48BF00F8012B704702F0FF0343EACC
:10056000032242EA024200F079BA704770477047AE
:1005700010B500F097FA006810BD10B5044600F001
:1005800091FA046010BD70472DE9FF4F0C461E46DE
:100590004FF0FF378BB0D2E90001DDF860800A90A0
:1005A0008A46C1F30A5505B93D46002108464FF079
:1005B0000000BAF1000F00F4400005DA00EB800003
:1005C0004FF4400101EA50004FEA9059B9F1010F90
:1005D00000DDB9460A9850EA4A000ED044F61050A1
:1005E000A5F2FF3545432F14B8F1000F1ED0754218
:1005F000291E1EDDC9F100021CE0B8F1010F4FF009
:10060000000001D0302103E0F24305E02154401CFA
:10061000B042FBDB30460022002121540B99C1F887
:100620000880C1E900200FB0BDE8F08FBD1B6D1C34
:10063000DEE74A4600DA694206A800F0BDFA06ABDA
:1006400093E8070003AB83E8070050460A9900F0DF
:10065000C6FB8DE80700A0F500501F3800900398F6
:10066000002D09DD42F21F014A46084403A9039008
:10067000684600F025FE08E0A0F500504A461F3805
:1006800003A90390684600F02FFE8DE807000004E0
:10069000000C03D04FF0FF30410800E01046B8F1E5
:1006A000000F03D00022009215461EE0751E05D4EF
:1006B00000F0FCF9303262556D1EF9D5B3460122C7
:1006C000084302D000227F1C04E02078302801D1AA
:1006D00000227F1E002A099786D01DE0112D07DA1F
:1006E00000F0E4F9303262556D1C50EA0102F5D198
:1006F000084302D00098C8B10EE00021681E05E052
:10070000235C625C63542254401E491C8142F7DB27
:10071000AB46A81B401E0990002004F80B000B9864
:10072000099AC0F80880C0E9002B7CE711264FF039
:10073000000859E72DE9F04F88460446D21D22F003
:10074000070191B0D1E90001CDE90A0103F0C6F932
:1007500002460B98C00F01D02D2007E020688107CA
:1007600001D52B2002E0202101EAC000032A0990D4
:1007700001D0072A05DB03464146204600F0DCF99C
:100780000BE12078800601D5E06900E00620B8F191
:10079000650F814606D0B8F1660F18D0B8F1670F23
:1007A00070D131E00020B9F1110F009001DB11236D
:1007B00001E009F101030AAA01A90CA8FFF7E4FE70
:1007C000DDE90C70002609F10105834647E00120B0
:1007D0004B4600904FF000470AAA01A90CA8FFF76A
:1007E000D3FEDDE90DB00C995D46002610B909F184
:1007F00001000D18B9EB050003D4C0F1FF3609F173
:100800000105A5EB09002BE0B9F1010F01DA4FF06A
:1008100001090020B9F1110F0090484601DD1123B4
:1008200000E003460AAA01A90CA8FFF7ADFEDDE926
:100830000C704D4600268346207800070AD4AB454D
:1008400000DA5D4601A8012D04DD411911F8011CF3
:10085000302907D04F4502DA17F1040F04DA0120DE
:1008600082460FE06D1EEEE7002F02DCED1B3E44DA
:1008700003E0781CA84200DD7D1CB81B00F1010AD2
:100880004FF000472078000703D4AA4501DB4FF062
:10089000FF3A0021B7F1004F0DF143088DF84310E6
:1008A00024D002202B23002F01DA7F422D230A219E
:1008B000021EA0F1010000DC5FB197FBF1FC97FB89
:1008C000F1F201FB1C7C17460CF1300C08F801CD4D
:1008D000EEE7A8F1010003702188090501D5452143
:1008E00000E06521A0F1010800F8011C09980FA99A
:1008F000A1EB0807FF1D00B10120411901EBEA70CF
:10090000A1693844081A401EA0612078C00602D4AC
:100910002046FFF72FFD099828B1D4E9012190471F
:10092000206A401C20622078C00622D52046FFF7AE
:1009300021FD1EE0002E04DBB34502DD01A8805D31
:1009400000E03020D4E901219047206A401C206259
:10095000761CAAF101005FEA000A0AD100F09EF8B5
:10096000C0680168405CD4E901219047206A401CBE
:100970002062281EA5F10105DCDC07E0D4E9012195
:1009800018F8010B9047206A401C2062381EA7F11E
:100990000107F3DC2046FFF703FD032011B043E617
:1009A00001694A1C02610878704700B58FB0CDE933
:1009B00001310021059105497944CDE90310114623
:1009C0006846FFF7FEFC0FB000BD0000E5FFFFFF2B
:1009D000074B70B50D467B44FFF7E7FF04462846FA
:1009E00000F058F910B14FF0FF3070BD204670BDD7
:1009F0004F3F000010B5203AC0F00B80B1E818500E
:100A0000203AA0E81850B1E81850A0E81850BFF4F8
:100A1000F5AF5FEA027C24BFB1E81850A0E8185097
:100A200044BF18C918C0BDE810405FEA827C24BFEB
:100A300051F8043B40F8043B08BF7047D20728BF79
:100A400031F8023B48BF11F8012B28BF20F8023BC8
:100A500048BF00F8012B70474FF000020429C0F096
:100A6000128010F0030C00F01B81CCF1040CBCF1DF
:100A7000020F18BF00F8012BA8BF20F8022BA1EB32
:100A80000C0100F00DB95FEAC17C24BF00F8012B16
:100A900000F8012B48BF00F8012B70470048704751
:100AA00094320120004870477432012030B5B0F113
:100AB0000A024FEA900E71F100034EEA817EB0EB1C
:100AC0000E0061EB91014FEA101E4EEA017E10EB21
:100AD0000E0041EB11114FEA102E4EEA016E10EBA1
:100AE0000E0041EB11214FEA104E4EEA014E10EB81
:100AF0000E0041EB1141401841F100014FEAD000D6
:100B000040EA41704FEAD10110EB80054FEA8104C1
:100B100044EA907444EB01046D1944EB0404521B45
:100B2000A3414FF0000348BF0A3200D530BD401C3E
:100B300041F1000130BD00002DE9F0411F4604469F
:100B400003260168072A01F4006004DB08B116A53A
:100B500005E016A503E008B115A500E015A521F0F4
:100B600010002060A069C01EA0610FB1401EA061EE
:100B70002046FFF7FFFB4FB1D4E9012138469047EB
:100B8000206A401C2062C01C206206E0206AFAE74E
:100B9000D4E9012115F8010B9047761EF8D22046C2
:100BA000FFF7FEFBBDE8F0814E414E006E616E0026
:100BB000494E4600696E66002DE9F04781461646AB
:100BC0008AB0334878440DC88DE80D003048784429
:100BD000801C03AC0DC884E80D0041F69B3008442E
:100BE000372190FBF1F290FBF1F5A5F1800501FBB7
:100BF00012041B3C02D56442012000E00020DFF813
:100C000090A080460027FA44AAF1BE0A0DE0E00752
:100C100009D03246684607EB47010AEB810100F034
:100C200063FB8DE8070064107F1C002CEFD1184F88
:100C30007F44AC3F18E0E80714D007EB04100DF137
:100C4000180A90E80E008AE80E00C068F04201D150
:100C500098190890324606A903A800F045FB03AB9B
:100C600083E807006D10641C002DE4D1324669460C
:100C7000B8F1000F03A802D000F022FB01E000F061
:100C800033FBC9E90001C9F808200AB0BDE8F087C4
:100C9000C46B0000007B00F0800070474FF0000242
:100CA00000B5134694469646203922BFA0E80C5062
:100CB000A0E80C50B1F12001BFF4F7AF090728BF3D
:100CC000A0E80C5048BF0CC05DF804EB890028BFB9
:100CD00040F8042B08BF704748BF20F8022B11F0E2
:100CE000804F18BF00F8012B704700000048704784
:100CF000743201207546FFF7F9FFAE4605006946DC
:100D0000534620F00700854618B020B5FFF714FBC6
:100D1000BDE820404FF000064FF000074FF00008FC
:100D20004FF0000B21F00701AC46ACE8C009ACE87D
:100D3000C009ACE8C009ACE8C0098D46704710B5E1
:100D40000446AFF300802046BDE81040FFF784BAA8
:100D50004FF0013C50F8042B51F8043B9A4221D14A
:100D6000A2EB0C03934313EACC1317D150F8042BD6
:100D700051F8043B9A4215D1A2EB0C03934313EABA
:100D8000CC130BD150F8042B51F8043B9A4209D1F3
:100D9000A2EB0C03934313EACC13DBD04FF000001B
:100DA000704700BFD01A01BAB1FA81F101F0180101
:100DB00022FA01F0CB40C1F12001DBB2C0B2C01A6F
:100DC0002CFA01F3D11A914311EAC311E6D170470D
:100DD00001491820ABBEFEE72600020070475FEA1B
:100DE000400C08BF91F0000F4FEA8C234FEAC1225C
:100DF00043EA51514FEA1C5018BF00F5F0404FEA4A
:100E0000300018BF41F000415FEA6C5C00F02980BF
:100E1000BCF1FF3F08BF40F080407047130C06BF95
:100E200012044FF0100C4FF0000C130E04BF12020E
:100E30000CF1080C130F04BF12010CF1040C930FFA
:100E400004BF92000CF1020CD30F04BF52000CF14E
:100E5000010C11464FF00002A0F11F00A0EB0C00A6
:100E6000704711F0004F08BF704731F000413FF468
:100E7000D5AF0B0C06BF09044FF0100C4FF0000C5F
:100E80000B0E04BF09020CF1080C0B0F04BF090183
:100E90000CF1040C8B0F04BF89000CF1020CCB0F7A
:100EA00004BF49000CF1010CCCF12003A0EB0C00B5
:100EB00022FA03F302FA0CF241EA030100F1010005
:100EC000704720F07F4C80EA030023F07F47ACEBB3
:100ED000070303F57C5300F0004003F1FF032DE905
:100EE00080494FEA154B09B44FEA144325EA0B4EEB
:100EF00024EA03480FF2042606EB132749083E783C
:100F00005FEA320203FB0667C7F5000707FB06F638
:100F10004FEA54374FEAD64606F1020607FB066C45
:100F2000CCF1005C4FEA1C472CEA074C07FB06F4A7
:100F30000CFB06F504EB15464FEA961634BF00206D
:100F40004FF000404FEAD13706FB07FC4FEA1C4C3C
:100F50000CFB0BF7D21B03FB0CF761EB07010CFB3F
:100F60000EF7B0EB074072EB17420CFB08F734BFEB
:100F7000A2EB0742B2EB074261EB17414FEA0C4488
:100F80004FEA910706FB07FC4FEA1C4C0CFB0BF7E2
:100F9000B0EBC74072EB573203FB0CF734BFA2EB48
:100FA000C742B2EBC74261EB57310CFB0EF7B0EB17
:100FB000C70072EB57720CFB08F734BFA2EBC702F5
:100FC000B2EBC70261EB5771039F4FEA816141EABF
:100FD000921104EBCC044FEAD1374FEA826206FB50
:100FE00007FC42EA90124FEA80604FEA1C4C0CFB6F
:100FF0000BF7D21B03FB0CF761EB07010CFB0EF7A1
:10100000B0EB074072EB17420CFB08F734BFA2EBC2
:101010000742B2EB074261EB17414FEA8C554FEAAA
:10102000910704EB9C2406FB07FC4FEA1C4C0CFBCD
:101030000BF7B0EBC74072EB573203FB0CF734BF32
:10104000A2EBC742B2EBC74261EB57310CFB0EF784
:10105000B0EBC70072EB57720CFB08F734BFA2EB82
:10106000C702B2EBC70261EB577115EB4C254FEA93
:10107000816141EA92114FEA82624FEAD13742EA36
:10108000901206FB07FC44F100044FEA80604FEA2F
:101090001C4C0CFB0BF7D21B03FB0CF761EB07019D
:1010A0000CFB0EF7B0EB074072EB17420CFB08F796
:1010B00034BFA2EB0742B2EB074261EB174115EBDD
:1010C0001C154FEA813141EA92414FEA823242EAED
:1010D00090424FEA80304FEA0C7644F1000448EA2F
:1010E00003434EEA0B484FF0000EB2EB080C71EBD5
:1010F000030724BF624639464EEB0E0E4FF0000B3D
:101100000018524149414BEB0B0BB2EB080C71EB51
:1011100003077BF1000B24BF624639464EEB0E0EEF
:101120004FF0000B0018524149414BEB0B0BB2EB57
:10113000080C71EB03077BF1000B24BF62463946B4
:101140004EEB0E0E51EA020718BF46F0010616EBF1
:101150000E7655F1000254F1000103D5BDE8890176
:10116000BDE80088BDE88901BDE80048B6195241D4
:1011700041EB0101A3F10103704780807F7E7D7CFC
:101180007B7A7978777676757473727171706F6E19
:101190006E6D6C6C6B6A6A696868676666656464C4
:1011A000636362616160605F5F5E5E5D5D5C5C5B4E
:1011B0005B5A5A59595858575756565555555454BD
:1011C000535352525251515050504F4F4F4E4E4D1B
:1011D0004D4D4C4C4C4B4B4B4A4A4A494949484867
:1011E00048474747474646464545454444444443A7
:1011F00043434342424242414141002B26D47700BF
:1012000021D01CB54FEA370703B44FF010004FF060
:1012100010014FF000000FBCBDE810400BF1010BB6
:10122000BBF1010F08BF5FEA170722BF12F10102ED
:1012300011F101014FF0004143F1000300F00040C3
:1012400043EA00007047F9D35708DAE746EA064652
:1012500013F1400F4FEA16461FDD13F1200FDFBFD9
:1012600016430A46002120335B42C8D0C3F1200751
:1012700046EA064602FA07F74FEA164646EA070626
:10128000C3F1200722FA03F201FA07F721FA03F16A
:101290004FF0000342EA0702B1E746EA020646EAD7
:1012A00006464FEA164646EA0106BCBF46EA06462F
:1012B000360C4FF000034FF000024FF000019EE7A4
:1012C0002DE9C048934630B491E8380007C831EAA8
:1012D000400C48BF34EA430C03D5FFF7F2FDFFF79B
:1012E0008CFFF0BCBDE800882DE9C048934630B4BF
:1012F00091E8380007C810F0804F08BF13F0804F06
:1013000003D100F005F8FFF778FFF0BCBDE80088D6
:1013100020F07F4780EA030023F07F4C07EB0C03AB
:10132000A3F57C5300F00040A3F1FE0392F0000F00
:1013300000F0B38095F0000F00F077802DE90149AF
:101340004FEA11404FEA144621EA004800FB06FC30
:1013500024EA064708FB06F607FB08F800FB07F738
:1013600018EB06484CEB164C4FEA124B18EB0748AB
:101370004FEA15464CEB174022EA0B4E0BFB06FCDE
:1013800025EA06470EFB06F607FB0EFE0BFB07F7EA
:101390001EEB064E4CEB164C4FF000061EEB074EB4
:1013A0004CEB174B18EB0B0840F1000018EB0E0B41
:1013B00058EB000840F100008F1A4FF000013CBFCD
:1013C000C943661B14BFB5EB040C00213CBFC943E5
:1013D000F61B4FEA17444EEA8E0E27EA04454FEA01
:1013E0001C4704FB07622CEA074C05FB07F70CFBC4
:1013F00005F604FB0CFC16EB074642EB174216EB16
:101400000C4642EB1C421BEB060658EB0202414124
:1014100046EA9E0601D5BDE80189B619524141EB65
:101420000101A3F10103BDE801894FEA14454FEA28
:10143000114724EA054621EA074C05FB07F406FBA1
:1014400007F70CFB06F105FB0CFC11EB074144EB25
:1014500017444FEA124711EB0C4144EB1C4422EABB
:10146000074C05FB07F206FB07F70CFB06F605FB2E
:101470000CFC16EB074642EB174216EB0C4642EB10
:101480001C456A1854F1000148BF7047B619524113
:1014900041EB0101A3F10103704795F0000F37D034
:1014A0004FEA11424FEA144721EA024624EA074C68
:1014B00002FB07F106FB07F70CFB06F402FB0CFC32
:1014C00014EB074441EB17414FEA154714EB0C446A
:1014D00041EB1C4125EA074C02FB07F506FB07F729
:1014E0000CFB06F602FB0CFC16EB074645EB17451A
:1014F00016EB0C4645EB1C42121951F1000148BF96
:101500007047B619524141EB0101A3F10103704745
:101510004FEA14454FEA114724EA054621EA074CF1
:1015200005FB07F106FB07F70CFB06F24FF0000680
:1015300005FB0CFC12EB074241EB174112EB0C428E
:1015400051EB1C4148BF7047921841EB0101A3F1D8
:101550000103704700B587B00121480601F07CFC0B
:101560000121880601F078FC00208DF817008DF825
:10157000180008208DF8140004208DF815000020B4
:101580008DF812008DF819000320ADF8100000202E
:101590008DF81A008DF813008DF816008DF81B00D9
:1015A00004A92B4800F063FC01208DF80D000020F9
:1015B000ADF80800ADF80000ADF80200ADF8040089
:1015C000ADF806008DF80B008DF80A0001208DF8AB
:1015D0000C00684600F0BEFB01208DF817000020CB
:1015E0008DF8180008208DF8140004208DF81500DF
:1015F00000208DF812008DF819000320ADF81000BE
:1016000000208DF81A008DF813008DF816008DF863
:101610001B0004A90F4800F02AFC01208DF80D00E2
:101620000020ADF80800ADF80000ADF80200ADF8FC
:101630000400ADF806008DF80B000E208DF80A00AE
:1016400001208DF80C00684600F084FB07B000BD57
:10165000006400400068004000B58FB0012188059B
:1016600001F0EAFB4FF00060009012480190124830
:1016700002900020039013200490002005904FF466
:101680008060069000200890079009904FF4803009
:101690000A9000200B9003200C9000200D900E90DB
:1016A0006946064800F048FE0121044800F02EFE7D
:1016B0000FB000BD04100140942E01204064024090
:1016C0001CB50121084601F0B7FB0121022001F001
:1016D000B3FB0121082001F0AFFB0121202001F024
:1016E000ABFB0121802001F0A7FB02208DF8040054
:1016F00000208DF806008020009001208DF8070062
:1017000003208DF805006946614800F0ABFE072212
:1017100011465F4800F0EEFE02208DF80400002024
:101720008DF806000320009001208DF807000320AB
:101730008DF805006946574800F094FE0922002103
:10174000544800F0D7FE09220121524800F0D2FE91
:1017500002208DF8040000208DF806004FF4405060
:10176000009001208DF8070003208DF805006946E0
:10177000474800F077FE09220C21454800F0BAFEE8
:1017800009220D21424800F0B5FE01208DF8040029
:1017900000208DF806004FF48060009001208DF845
:1017A000070003208DF8050069463B4800F05AFE0B
:1017B00001208DF8040000208DF806004FF4207001
:1017C000009001208DF8070003208DF80500694680
:1017D000314800F047FE00208DF804008DF8060027
:1017E0004020009001208DF8070003208DF80500AF
:1017F0006946294800F036FE00208DF804008DF877
:1018000006004FF48070009002208DF8070003203E
:101810008DF805006946204800F024FE01208DF86F
:10182000040000208DF806003C20009001208DF877
:10183000070003208DF805006946184800F012FEE5
:101840000421164800F07BFE0821144800F077FEC2
:101850001021124800F073FE2021104800F06FFEA6
:10186000012211460E4800F045FE022000908DF83E
:10187000040003208DF8050000208DF806000120EB
:101880008DF807006946064800F0ECFD1CBD00001D
:1018900000040240000C024000140240001C024000
:1018A0000000024008B525208DF8000001208DF8C9
:1018B000030008208DF8010000208DF80200684622
:1018C00001F014FA012240F22441264802F061F8A6
:1018D00014208DF8000001208DF8030008208DF8F9
:1018E000010000208DF80200684601F0FFF9012296
:1018F0001D491E4800F0B2FA1C481430006840F040
:10190000FF001A491431086040208DF800000120C2
:101910008DF8030008208DF8010000208DF80200EA
:10192000684601F0E3F901220221114800F096FA1D
:101930001C208DF8000009208DF8010000208DF892
:10194000020001208DF80300684601F0CFF9012262
:101950001146900701F039FC0121880701F012FCC3
:1019600008BD000000100140008F0300006400402B
:101970000068004000B58BB00121084601F06CFA08
:101980000120099042F22730ADF820000020ADF888
:101990002200ADF8280008A94FF0804001F066FC55
:1019A0000121880701F0F4FB0121102001F054FA15
:1019B0005920ADF820000020ADF82200ADF8280035
:1019C00040F2E730099008A9294801F04FFC0121B5
:1019D000274801F0DDFB0121042001F03DFA01213F
:1019E000082001F029FA02220C21224800F082FD91
:1019F0004FF48050069002208DF81C0003208DF8D3
:101A00001D0000208DF81E0001208DF81F0006A982
:101A1000184800F027FD42F22730ADF820000020E2
:101A2000ADF82200C72009900020ADF8280008A9D1
:101A3000114801F01BFC7020ADF804000120ADF846
:101A400006000220ADF810000520039001A90A4805
:101A500001F0C4FB0821084801F0FEFB0121064803
:101A600001F084FB0121044801F092FB0BB000BDA2
:101A700000100040000C0240000800401FB501218A
:101A8000102001F0F9F90E4800900020ADF80C008C
:101A90000420ADF80A000020ADF80800ADF80600FB
:101AA000ADF804006946074801F098FF0122402183
:101AB000044801F03BFF0121024801F02BFF1FBD4C
:101AC000A08601000010014000B58BB0012102206A
:101AD00001F0C2F90121022001F0AEF90222042135
:101AE0001F4800F007FD1020099002208DF8280003
:101AF00003208DF8290000208DF82A0001208DF8A0
:101B00002B0009A9164800F0ADFC5920ADF81800CB
:101B10000020ADF81A00012007900020ADF8200049
:101B200006A9104801F0A2FB6020ADF804000120D6
:101B3000ADF806000020ADF8100001A9094801F039
:101B40004DFB0821074801F087FB0121054801F002
:101B50000DFB0121034801F01BFB0BB000BD000091
:101B6000000402400004004010B502A0FEF7F6FB9E
:101B700010BD00004275734661756C745F48616EFC
:101B8000646C65720000000030B585B06A460021C3
:101B90001B4800F0F6F99DF80C009DF80B1040EA88
:101BA000012004B29DF80E109DF80D0041EA0020BE
:101BB00005B20098A0F2012030B101280AD0022815
:101BC0000ED0032818D111E02AB221B20D4801F03D
:101BD00037F812E02AB221B20B4801F031F80CE0DC
:101BE0002AB221B2094801F02BF806E02AB221B24C
:101BF000074801F025F800E000BF00BF05B030BD88
:101C000000640040142E0120742E0120542E012067
:101C1000342E012010B54FF40061044800F08DFC13
:101C20004FF40F41024800F041F810BD001002408F
:101C30000064004030B585B06A460021174800F0C6
:101C4000A0F99DF80C009DF80B1040EA012004B2A9
:101C50009DF80E109DF80D0041EA002005B2009895
:101C6000A0F2012020B1012808D0022812D10BE0F7
:101C70002AB221B20A4800F0E3FF0CE02AB221B2F6
:101C8000084800F0DDFF06E02AB221B2064800F065
:101C9000D7FF00E000BF00BF05B030BD00680040C6
:101CA000FC3001201C3101203C310120B1F5007FC6
:101CB0003AD00FDC202928D006DC01291CD00429C9
:101CC0001DD0082940D11DE0402921D0B1F5807FE9
:101CD0003AD126E0B1F5004F31D006DCB1F5806F86
:101CE00025D0B1F5006F2FD124E0B1F5803F12D09F
:101CF000B1F5003F28D111E0154A826025E00822A5
:101D0000C26022E01022C2601FE0082202611CE0D3
:101D10001022026119E00822426016E0102242609F
:101D200013E00422426010E0042242600DE004222D
:101D300042600AE0002282610422426005E0002243
:101D400082610422426000E000BF00BF70470000D3
:101D50000101010010B50021837A012202FA03F18A
:101D60003D4A126842F001023B4B1A603A4A1C326B
:101D700012688A43384B1C331A60027BCAB9364A50
:101D80000C3212688A43344B0C331A604288C38881
:101D900042EA0343304A4032847A42F834300288BF
:101DA000838842EA03432C4A4032847A02EBC4021D
:101DB0005360027B012A19D1274A0C3212680A4368
:101DC000254B0C331A604288038842EA0343224AB7
:101DD0004032847A42F83430C288838842EA03432E
:101DE0001D4A4032847A02EBC4025360C27A3AB987
:101DF000194A121D12688A43174B1B1D1A6006E010
:101E0000154A121D12680A43134B1B1D1A600289E2
:101E100032B9114A143212688A430F4B14331A60D4
:101E20000289012A06D10C4A143212680A430A4B6D
:101E300014331A60427B012A06D1074A1C32126809
:101E40000A43054B1C331A60034A126822F0010250
:101E5000014B1A6010BD0000006600401AB14369D2
:101E60000B43436102E043698B434361704730B5E4
:101E7000024600200023146824F002041460146851
:101E800044F00104146000E05B1C546804F0010499
:101E90001CB94FF6FF74A342F6D1546804F0010454
:101EA0000CB900206CE08C79012C04D1146844F04A
:101EB0008004146003E0146824F080041460CC797A
:101EC000012C04D1146844F04004146003E0146849
:101ED00024F0400414600C7A012C04D1146844F0FE
:101EE0002004146003E0146824F0200414604C7A89
:101EF000012C04D1146844F01004146003E0146849
:101F000024F0100414608C7A012C04D1146844F07D
:101F10000804146003E0146824F008041460CC7A08
:101F2000012C04D1146844F00404146003E0146824
:101F300024F0040414608C78A407CD7844EA056486
:101F40000D7944EA05444D7944EA05540D886D1E27
:101F50002C43D461146824F001041460002300E0D1
:101F60005B1C546804F001041CB14FF6FF74A342DB
:101F7000F6D1546804F001040CB1002000E0012007
:101F800030BD10B500F5D87303EB01131B6803F0E7
:101F900004031372137A53B900F5D87303EB0113DA
:101FA0001B6840F2FF7404EA5353136009E000F524
:101FB000D87303EB01131B686FF0604404EAD3038A
:101FC000536000F5D87303EB01131B6803F00203A1
:101FD000537200F5D87303EB01135B6803F00F0332
:101FE000937200F5D87303EB01135B681B0AD3747B
:101FF00000F5D87303EB01139B68D37200F5D87317
:1020000003EB01139B681C0A147300F5D87303EBF0
:1020100001139B681C0C547300F5D87303EB011378
:102020009B681B0E937300F5D87303EB0113DB68F9
:10203000D37300F5D87303EB0113DB681C0A147427
:1020400000F5D87303EB0113DB681C0C547400F526
:10205000D87303EB0113DB681B0E937421B9C368BB
:1020600043F02003C36003E0036943F020030361EE
:1020700010BD10B502460020936803F08063B3F1F1
:10208000806F00D110E0936803F00063B3F1006F3C
:1020900001D1012008E0936803F08053B3F1805F21
:1020A00001D1022000E00420042874D002F5C0739E
:1020B00003EB00131B6803F0010402F5C07303EB8C
:1020C00000131C600B7A7BB94B7A0C8843EA4453AB
:1020D00002F5C07404EB00142468234302F5C074B5
:1020E00004EB0014236010E00B7A4C6843EAC4034D
:1020F0004C7A234302F5C07404EB00142468234394
:1021000002F5C07404EB001423608B7A03F00F0314
:102110008B7202F5C07303EB00135B6823F00F04AE
:1021200002F5C07303EB00135C6002F5C07303EBB0
:1021300000135B688C7A234302F5C07404EB00142F
:1021400063608B7B1C064B7B44EA03440B7B44EAB5
:102150000323CC7A234302F5C07404EB0014A3607C
:102160008B7C1C064B7C44EA03440B7C44EA03232F
:10217000CC7B234302F5C07404EB0014E36002F54A
:10218000C07303EB00131B6843F0010402F5C07336
:1021900003EB00131C6010BD2DE9F04385B004462D
:1021A0000F4615461E46DDE90C89009700208DF884
:1021B00008008DF8090008208DF80A00280A8DF81B
:1021C0000B00E9B28DF80C10310A8DF80D10F1B248
:1021D0008DF80E104FEA18218DF80F1008F0FF014E
:1021E0008DF810104FEA19218DF8111009F0FF0138
:1021F0008DF8121000BFA06938B1206840F00200CD
:102200002060206800F0FD002060A06800F0E05031
:102210000028F0D069462046FFF72BFF05B0BDE847
:10222000F0830A784B7842EA0322C2F30A02028062
:102230000288A2F5806212B202804A78D2108B78AE
:1022400042EA4312C2F30A0242804288A2F5806247
:1022500012B242808A789211CB7842EA83020B79DB
:1022600042EA8322C2F30A0282808288A2F5806257
:1022700012B282800A7952104B7942EAC312C2F339
:102280000A02C280C288A2F5806212B2C2804A7974
:102290001211920802724A79C2F3011242728A79CB
:1022A000CB7942EA032212B242810A7A4B7A42EA9D
:1022B000032213B283818A7ACB7A42EA032213B2D1
:1022C000C3810B7B03744B7B43748A7BCB7B42EAD9
:1022D00003228282704700000246094B9A4201D2D3
:1022E000084801E00648103801F000531BB1064BC6
:1022F0000B40C36002E0044B0B408360704700005A
:1023000010640240006002407D0F7D0F21B1026821
:1023100042F00102026003E0026822F00102026062
:102320007047014600200A6802F001020AB101204C
:1023300000E000207047000010B500220268134B37
:102340001A40CC680B6823434C6923438C692343B0
:10235000CC6923430C6A23434C6A23438C6A23438E
:102360004C6B23438C6B23431A430260426922F077
:102370000702D1E90B3423431A4342610B694360DE
:102380004B6883608B68C36010BD00003F801CF009
:102390004160704710B502A0FDF7E0FF10BD0000DE
:1023A00044656275674D6F6E5F48616E646C6572FF
:1023B0000000000070B504466FF0040000F070FEED
:1023C000E11704EB5171C1F3C7010D4A1170E11718
:1023D00004EB5171CD104FF47A7045430120094947
:1023E00008804FF0E020006940F002004FF0E0214B
:1023F000086108464561006940F00100086170BD50
:102400008C0000208E00002010B54FF4807000F08A
:102410001DF860B14FF4807000F00CF84FF480703C
:1024200000F00EF801200249087000F0ABFA10BD70
:10243000AC0000200149086070470000143C0140D6
:102440000149086070470000143C0140014600202B
:10245000034A12680A400AB1012000E000207047D8
:10246000143C0140F0B50A4600210023002400BFBF
:102470003DE0012505FA01F3156805EA03049C42D5
:1024800034D105684F000326BE40B5430560157979
:102490004E00B5400668354305601579012D02D020
:1024A0001579022D16D185684F000326BE40B5432D
:1024B000856055794E00B54086683543856045682E
:1024C00001268E40B5434560456896798E40B6B288
:1024D00035434560C5684F000326BE40B543C5601F
:1024E000D5794E00B540C6683543C560491C1029F2
:1024F000BFD3F0BDF0B5002300244D07ED0E02FA66
:1025000005F3CE1000F1200555F826504E07F70EC2
:102510000F26BE40B543CF1000F1200646F82750E5
:10252000CE1000F1200555F8265045EA0304CE10E0
:1025300000F1200545F82640F0BD41837047018336
:10254000704742694A4042617047000010B500215F
:102550009FED0B0A0B4800F057FB00219FED080A86
:10256000094800F051FB00219FED050A074800F0E3
:102570004BFB00219FED020A054800F045FB10BD12
:102580009A999941142E0120742E0120542E012075
:10259000342E012010B502A0FDF7E0FE10BD0000B2
:1025A000486172644661756C745F48616E646C6505
:1025B0007200000010B5044600200F49086000F0CA
:1025C000CDF8012000F01CF824B101200A4908319F
:1025D000086003E00020084908310860012000F08D
:1025E0000FF801200449086000F00AF800200349B0
:1025F000C1F89C0210BD00009C8242420080424211
:1026000010B5002106E0642200BF131EA2F10102F2
:10261000FBD1491C8142F6D310BD000070B50024E7
:1026200000F086F80120FFF7EBFF002516E0002000
:102630000E4908600220FFF7E3FF01200C49C1F8B2
:102640009C026006040E09487838006808B1601CD6
:10265000C4B20220FFF7D4FF681CC5B2082DE6DB28
:10266000002002490860204670BD00009C82424262
:10267000008042422DE9F04107460E461446984636
:1026800000F084F8FF2805D120A0FDF767FEFF20A9
:10269000BDE8F081384600F0F9F800F0CDF8FF28E9
:1026A00000D1F5E7304600F0F1F800F0C5F8FF285A
:1026B00004D119A0FDF752FEFF20E9E700F066F80B
:1026C000791CC8B200F0E2F800F0B6F8FF2804D197
:1026D00014A0FDF743FEFF20DAE7002508E0FFF72E
:1026E0009DFF20700020FFF765FF641C681CC5B2C9
:1026F000A8F10100A842F2DCFFF790FF2070012052
:10270000FFF758FF00F07EF80020C1E76572726F96
:102710007220370D0A0000006572726F7220390D49
:102720000A0000006572726F722032480D0A0000C4
:102730001CB54FF40070009000208DF804008DF857
:10274000060001208DF8070003208DF8050069467A
:102750000148FFF787FE1CBD001402401CB54FF472
:102760000070009001208DF8040000208DF8060014
:1027700001208DF8070003208DF805006946024806
:10278000FFF770FE1CBD00000014024010B5FFF7FB
:10279000E5FF0120134908601348D0F8240220B94E
:1027A00012A0FDF7DBFDFF2010BD01200D49083907
:1027B0000860FFF725FF00200B49C1F8A402094873
:1027C0008038006820B10CA0FDF7C8FDFF20EBE7C2
:1027D0000120FFF715FF002002490839086000BFFB
:1027E000E2E70000A4824242008042426572726FBA
:1027F000722031210D0A00006572726F7220322141
:102800000D0A000010B5FFF7A9FF00200849086075
:102810000849C1F8A4020120FFF7F2FE0120044993
:102820000860FFF7EDFE01200249C1F8A40210BDC7
:102830009C8242420080424210B50024FFF778FF9C
:10284000012010490860FFF7DBFE01200E49C1F8A6
:102850009C02FFF7D5FE0AE0601C84B2322C03DD37
:10286000FFF7D0FFFF2010BD0520FFF7C9FE054888
:10287000803800680028EFD102490839086000BF9D
:10288000F1E70000A48242420080424270B5044653
:10289000FFF764FF00201349086000251EE004F0E4
:1028A000800020B101200F490831086003E00020BA
:1028B0000C49083108606006040E0120FFF7A0FEF5
:1028C000012008490860FFF79BFE00200649C1F877
:1028D0009C020120FFF794FE681CC5B2082DDEDBC8
:1028E00070BD00009C824242008042421CB5012122
:1028F000302000F0A1FA4FF40060009001208DF824
:10290000040000208DF8060003208DF8050001204A
:102910008DF8070069461048FFF7A4FD4FF480408A
:10292000009001208DF8040000208DF8060003209F
:102930008DF8050001208DF8070069460748FFF76C
:1029400091FD4FF400610448FFF7F9FD4FF4804119
:102950000248FFF7F4FD1CBD0010024000140240C5
:102960002DE9F04104460D4616461F463B463246C9
:1029700029462046FFF77EFEFF2801D1BDE8F08101
:102980000020FBE710B53148007800285CD000201B
:102990002E4908700E232E4A3B21D020FFF7E0FF7E
:1029A0002B4840782A49097840EA012000B2294999
:1029B00008802748C0782649897840EA012000B27B
:1029C00024494880224840792149097940EA012078
:1029D00000B2204988801E48C0791D49897940EAA3
:1029E000012000B21B49C8801948407A1849097A69
:1029F00040EA012000B21749088108460089C989C8
:102A0000084400B2134908811148C07A1049897AF4
:102A100040EA012000B20F49488108464089098AEE
:102A2000084400B20B4948810948407B0849097BAA
:102A300040EA012000B20749888108468089498A16
:102A4000084400B20349888110BD0000AC0000209A
:102A5000603201204C3201202DE9F0412DED0C8B2C
:102A60000546002600272D48008800F40040002875
:102A700047DD002429480088A0F5404700BF00BF7B
:102A800034E02749095DA1F1300004F0BEF941ECC2
:102A90001B0B391B481E04F0B8F941EC1D0BB0EEBE
:102AA0004D1AF0EE6D1A9FED1F0B01F031F8B0EEEC
:102AB00040CAF0EE60CA53EC1B2B51EC1C0B04F027
:102AC000F7F941EC190B304604F09FF941EC1A0B71
:102AD00053EC192B03F056FF41EC180B04F066F988
:102AE000064600200E490855601CC4B2BC42C8DB33
:102AF00000200A4908800D48066001200C49086042
:102B000007E00B480068012802D10848066800E089
:102B10006E68AE60BDEC0C8BBDE8F08194000020C7
:102B2000C02E01200000000000002440B40000205E
:102B3000B800002010B588B004460121402000F004
:102B40007BF90121202000F097F908220921234870
:102B5000FFF7D0FC08220E212048FFF7CBFC4FF4F2
:102B60008440069002208DF81C008DF81D00002086
:102B70008DF81E0001208DF81F0006A91748FFF7E9
:102B800071FC02940020ADF80C00ADF80E00ADF819
:102B90001000ADF814000C20ADF8120002A9104886
:102BA00000F01CFF01210E4800F0B4FE012240F2AB
:102BB00025510B4800F0EDFE47208DF8040007205A
:102BC0008DF8050000208DF8060001208DF8070023
:102BD00001A800F08BF808B010BD000000180240FA
:102BE000001401404160704710B502A0FDF7B6FB2C
:102BF00010BD00004D656D4D616E6167655F486198
:102C00006E646C65720000004FF0FF32828080EDD0
:102C1000070A8172002202804280C2800281828182
:102C2000DFED060AC0ED040ADFED040AC0ED050A77
:102C3000DFED020AC0ED060A704700000000000048
:102C400030B5B0F904305B1C13B98180018030BD10
:102C50000388438001800281837ABBB30388448860
:102C60001B1B1BB2C380B0F90630194CA34204DA17
:102C700083895B1C1BB2838109E0B0F9063041F205
:102C80006804A34203DD83895B1E1BB28381B0F914
:102C90000040B0F90450631BDC1703EBD444641309
:102CA0004FF4B47514FB05F4B0F90C50C5EB0515E1
:102CB00005EB450504EBC50400EE104AB8EEC00A6A
:102CC000D0ED070A80EE201A80ED041A00BFBEE79F
:102CD00098EFFFFF10B502A0FDF740FB10BD00000C
:102CE0004E4D495F48616E646C65720070B500219D
:102CF00000230F22C4781CB3174C246804F4E0644A
:102D0000C4F5E064C4F30721C1F10404E3B20A414D
:102D100044789C40E1B28478144021430C07210E92
:102D20000E4C05786155047804F01F050124AC4071
:102D300005786D11AD0005F1E025C5F8004109E009
:102D4000047804F01F050124AC40054D0678761187
:102D500045F8264070BD00000CED00E000E400E006
:102D600080E100E002490143024A1160704700001F
:102D70000000FA050CED00E0014681ED050AC1ED09
:102D8000060A486B886391ED051AD1ED061A31EEFB
:102D9000611A81ED081A91ED001AD1ED011A31EE98
:102DA000211AD1ED081A21EE211AD1ED001A91ED68
:102DB000092A01EEC21AD1ED0D1AF8EEE11A31EE30
:102DC000211ABDEEC11A81ED0D1A91ED081A81ED9F
:102DD000091A486B7047000080ED000AC0ED010A37
:102DE00080ED021AC0ED031A80ED042ADFED112AEE
:102DF000C0ED052ADFED0F2AC0ED072ADFED0D2A11
:102E0000C0ED062ADFED0B2AC0ED082ADFED092A06
:102E1000C0ED092ADFED072AC0ED0A2ADFED052AF9
:102E2000C0ED0B2ADFED032AC0ED0C2A002141631F
:102E3000816370470000000029B1064A126802430E
:102E4000044B1A6004E0034A12688243014B1A6083
:102E5000704700003038024029B1064A1268024328
:102E6000044B1A6004E0034A12688243014B1A6063
:102E7000704700004038024029B1064A12680243F8
:102E8000044B1A6004E0034A12688243014B1A6043
:102E90007047000044380240F0B5002100220024B1
:102EA000022500260223324F3F6807F00C0121B1B2
:102EB000042905D0082937D105E02E4F076036E0F8
:102EC0002D4F076033E02A4F3F1F3F68C7F38056FE
:102ED000274F3F1F3F6807F03F036EB1264FB7FBF8
:102EE000F3F7DFF88CC0ACF1040CDCF800C0CCF3D5
:102EF000881C07FB0CF40CE01E4FB7FBF3F7DFF860
:102F000070C0ACF1040CDCF800C0CCF3881C07FBEB
:102F10000CF4174F3F1F3F68C7F301477F1C7D002C
:102F2000B4FBF5F7076002E0124F076000BF00BF77
:102F30000F4F3F6807F0F0010909104F7A5C0768EE
:102F4000D74047600A4F3F6807F4E051890A0B4FAA
:102F50007A5C4768D7408760054F3F6807F4604157
:102F6000490B064F7A5C4768D740C760F0BD000048
:102F7000083802400024F400001BB70000000020C5
:102F80000CB50020019000904148006840F480306A
:102F90003F49086000BF3E48006800F400300090E0
:102FA0000198401C0190009818B90198B0F5A04F05
:102FB000F1D13748006800F4003010B101200090D2
:102FC00001E0002000900098012860D13048403096
:102FD000006840F080502E49403108602D4800685C
:102FE00040F440402B4908602948083000682849CF
:102FF000083108600846006840F400400860084650
:10300000006840F4A05008602348091F0860081FAA
:10301000006840F08070091F086000BF1C4800680D
:1030200000F000700028F9D01A48006840F48030A1
:103030001849086000BF1748406800F48030002835
:10304000F9D01448006840F400301249086000BF0D
:103050001048406800F400300028F9D040F20570B4
:103060000E4908600A480830006820F0030008494B
:10307000083108600846006840F00200086000BFA0
:1030800003480830006800F00C000828F8D10CBD97
:1030900000380240007000400C5A4007003C0240DB
:1030A000042808D14FF0E021096941F004014FF0F4
:1030B000E022116107E04FF0E021096921F00401ED
:1030C0004FF0E0221161704710B503F0DFF90128DD
:1030D00001D002F0A1FE10BD10B51548006840F403
:1030E0007000134908601348006840F0010011495E
:1030F000086000200F49083108600E4800680E493A
:1031000008400C4908600D48091D0860081F006848
:1031100020F48020091F0860002006490C31086057
:10312000FFF72EFF4FF0006001498039086010BDA5
:1031300088ED00E000380240FFFFF6FE103000246A
:1031400010B50121880700F02FF860B1064800682B
:10315000401C054908600121880700F016F801218C
:10316000880700F00FF810BD9000002021B1028800
:1031700042F08002028004E002884FF67F731A401A
:1031800002807047CA4302827047CA430282704776
:1031900021B1028842F00102028004E002884FF669
:1031A000FE731A400280704730B5024600200023AB
:1031B0000024158A05EA0103958905EA010413B183
:1031C0000CB1012000E0002030BD1AB183890B430F
:1031D000838102E083898B438381704770B500242B
:1031E00000220023058C4FF6FE7635400584028CC4
:1031F0008388048B4FF68F752C40B51E2C400D88AC
:103200002C43751E2A408D892A434D882A43104D30
:10321000A84202D00F4DA84213D14FF6F7752A40AD
:10322000CD892A434FF6FB752A408D882A434FF6F5
:10323000FF652B404FF6FF552B400D8A2B434D8ADF
:103240002B43838004838D684563028470BD000036
:1032500000000140000401400A460021018B4FF6A6
:10326000F773194011430183704700000022028860
:10327000184B98420ED0184B98420BD0B0F1804FAB
:1032800008D0164B984205D0154B984202D0154BEA
:10329000984204D14FF68F731A404B881A43124B51
:1032A000984207D0114B984204D04FF6FF431A4082
:1032B0000B891A4302804B68C3620B880385054B58
:1032C000984202D0044B984201D18B7A03860123A5
:1032D0008382704700000140000401400004004068
:1032E00000080040000C00400010004000140040A6
:1032F00008B503F0DBF8009008E04FF48041044883
:10330000FFF71FF9FA21684602F096FAF5E7000088
:10331000001402402DED068B84B003F0C7F8039033
:103320009FEDA80AB0EE408A0026002400259FEDFC
:10333000A60AF0EE408A9FEDA50AB0EE409A00BFC3
:103340009FEDA30AF0EE409A9FEDA10AB0EE40AACD
:103350000021B0EE4A0A9F48FFF756FC0021B0EE6C
:103360004A0A9D48FFF750FC0021B0EE690A9B48CD
:10337000FFF74AFC9FED9A2ADFED9A1A9FED941A07
:10338000F0EE080AB3EE040A9748FFF725FD9FED1B
:10339000942ADFED941A9FED8E1AF0EE080AB3EE30
:1033A000040A9248FFF718FD9FED8D2ADFED8D1A74
:1033B0009FED871ADFED860AB0EE000A8C48FFF712
:1033C0000BFD9FED872ADFED871A9FED811ADFED58
:1033D000800AB3EE050A8748FFF7FEFCF0E0864856
:1033E000407A012802D10126022405E08248407A71
:1033F000032801D1002600249EBB4FF400517F48D2
:10340000FFF79BF87348B0F9080000EE100AB8EE19
:10341000C00A20EE080AF0EE400A9FED6D0A7248DD
:10342000FFF7AAFC6C48B0F9080000EE100AB8EEED
:10343000C00A20EE080AF0EE400A9FED650A6B48CC
:10344000FFF79AFC0020009001906848808E03B23C
:103450006548808E02B24FF400716948FEF79CFE09
:1034600033E0FFE74FF400516448FFF768F859482C
:10347000B0F9080000EE100AB8EEC00A20EE080A03
:10348000F0EE400AB0EE680A5748FFF775FC524864
:10349000B0F9080000EE100AB8EEC00A20EE080AE3
:1034A000F0EE400AB0EE680A5048FFF765FC0020D5
:1034B000009001904D48808E03B24B48808E02B23E
:1034C0004FF400714E48FEF767FEECB94348B0F97F
:1034D000080000EE100AB8EEC00A20EE080AF0EE6E
:1034E000400A9FED3B0A4348FFF746FC0021414854
:1034F000808E00B20B460A46CDE900014FF4007100
:103500003F48FEF749FE56E0012C36D1032D02DA82
:10351000681CC5B200E053E0304890ED041AF0EEAC
:10352000410A90ED041ADFED371A31EE611AB0EE60
:10353000410A2F48FFF720FC2848B0F9080001EEA7
:10354000100AB8EEC11AF0EE410A294890ED0D1AA2
:10355000B8EEC11AB0EE410A2648FFF70DFC002173
:103560002448808E00B20B460A46CDE900014FF494
:1035700000712348FEF710FE1DE0022C1BD11748F6
:10358000B0F9080000EE100AB8EEC00A20EE080AF2
:10359000F0EE400AB0EE490A1648FFF7EDFB0021B5
:1035A0001448808E00B20B460A46CDE90001210284
:1035B0001348FEF7F1FD052103A802F03DF900BF15
:1035C0000DE700007A5B563D55DCF0C50000A244D3
:1035D00000000000FC3001201C3101203C310120A2
:1035E0000000FA4400007A455C3101209831012046
:1035F00010320120D4310120A82E012000180240F1
:10360000006800400000074508B502F04FFF009039
:1036100000210848FFF7E6FA0AE001F0C5FF054877
:10362000FFF71AFA01F0EAFF3221684602F004F9C6
:10363000F3E70000882F01202DED088B88B002F001
:1036400035FF07903BE001F0AFFF1D4890ED040A05
:1036500010EE101A084603F021FF41EC180B194830
:1036600090ED040A10EE101A084603F017FF41EC23
:10367000190B154890ED040A10EE101A084603F0D5
:103680000DFF41EC1A0B114890ED040A10EE101AD0
:10369000084603F003FF41EC1B0B8DED048B8DED11
:1036A000029B8DED00AB53EC1B2B09A0FCF756FEE3
:1036B00001F0A4FF4FF4FA7107A802F0BDF8C2E7C9
:1036C000342E0120542E0120742E0120142E0120AE
:1036D00025313066202531306620253130662025A1
:1036E0003130660D0A0000001CB512E00948407A2E
:1036F00002280BD100200090034602464FF40071CF
:1037000001900548FEF748FD02F07AFA642002F0C5
:1037100065F8EBE7A82E0120006400401CB50446C4
:1037200001F042FFFEF712FFFDF7CAFFFDF712FF9F
:10373000FEF7A4F9FDF790FFFEF71CF9FEF7B2F8CB
:103740000020062103464FF4FA72CDE900101BA1B8
:103750001F4802F06BFE0020062103464FF4FA7268
:10376000CDE900101BA11F4802F060FE00200721D8
:1037700003464FF4FA72CDE900101BA11E4802F077
:1037800055FE0020032103464FF4C872CDE9001016
:103790001AA11D4802F04AFE0020032103464FF4FF
:1037A000C872CDE9001019A11B4802F03FFE0020AD
:1037B00002F0ACF801F022FF1CBD00005461736BF5
:1037C0005F4D6167696352656365697665000000F6
:1037D000093600085461736B5F4D61676963536517
:1037E0006E640000393600085461736B5F53616684
:1037F000655F4D6F64650000E93600085461736BC6
:103800005F426C696E6B0000F13200085461736BAB
:103810005F466972650000001533000810B5134853
:103820008088C4B211480088C4B200211048FEF755
:103830006DFD0F48001D0068012803D10D490E4899
:10384000FEF7EFFC0D490A48FEF746FD00BF0848A9
:10385000FEF767FD0028FAD113210548FEF798FD11
:1038600001210348FEF752FD10BD00000010014089
:1038700040640240942E0120A82E01200000301048
:1038800010B540F225511F4800F059F840B11D48CD
:1038900000F00EF9C4B24FF400611B48FEF751FE70
:1038A0001A48008800F4004058BB1848008800F40B
:1038B000804060B10A2C03D000201449088020E029
:1038C0001248008840F400401049088019E00D2C8F
:1038D00006D10E48008840F480400C49088010E072
:1038E0000A480088C0F30D0009490C5407480088B5
:1038F000401C0649088008460088C72801DD0020D2
:10390000088010BD00140140001002409400002007
:10391000C02E012021B1828942F40052828104E04C
:1039200082894DF6FF731A40828170471AB1838AEB
:103930000B43838202E0838A8B438382704770B596
:103940000246002400230025002040F66A16B142FA
:1039500000D100BFC1F3421501F01F03012606FA92
:1039600003F3012D02D19689334006E0022D02D1E6
:10397000168A334001E0968A33400C12012606FA7B
:1039800004F41688344013B10CB1012000E000208B
:1039900070BDF0B50346002400260025002040F647
:1039A0006A17B94200D100BF1846C1F3421401F0B2
:1039B0001F06012707FA06F5012C01D10C3004E09F
:1039C000022C01D1103000E014301AB107682F43E7
:1039D000076002E00768AF430760F0BD2DE9FF47CD
:1039E00005460E460024A14600BFA046B08900B19E
:1039F00000BF2C8A24F44054F08804432C82AC8904
:103A000041F20C608443B0883189084371890843CE
:103A10000443AC81AC8A24F44074B0890443AC8282
:103A20006846FFF739FA2048854202D01F48854290
:103A300002D1DDF80C9001E0DDF80890A88900F4CF
:103A4000004040B109EBC90000EB091031684900A2
:103A5000B0FBF1F707E009EBC90000EB0910316892
:103A60008900B0FBF1F76420B7FBF0F004012009F6
:103A7000642101FB1078A88900F4004040B1322095
:103A800000EBC800B0FBF1F000F00700044308E0D1
:103A9000322000EB08106421B0FBF1F000F00F00C1
:103AA00004432C81BDE8FF87001001400014014051
:103AB00001468888C0F308007047000010B502A0D6
:103AC000FCF74CFC10BD00005573616765466175DD
:103AD0006C745F48616E646C6572000003B4019899
:103AE0004100009850EAC12018BF04204A0D18BFB9
:103AF00040F0010040F2FF72B2EB515F08BF40F0AE
:103B00000200012808BF052002B070470000000035
:103B10002DE9F04D2DED040B2DED0E8B96B0DDE96A
:103B20002550279CDDF890A025F0004624F00048A1
:103B3000BAF1000F14BF0121002101EB4502FC493D
:103B400053184A1093422AD3002814BF012300239C
:103B500003EB44030B44F7498B4220D358EA00019E
:103B60009FEDF59B76D0DFF8D8B35D4503D1BAF170
:103B7000000F05D188E0BAF1000F08BF002100D086
:103B8000012101EB450111F5001F08D8002814BFE1
:103B90000121002101EB440111F5001F0BD99DED1E
:103BA000261B9DED240B16B0BDEC0E8B04B0BDE8BA
:103BB000F04D00F069BE0027002DBCBFE1498845EB
:103BC00021DAE1498845A8BF02271CDAC3451ADC7F
:103BD000DE4901EB2851142908DDC1F1340220FA35
:103BE00002F101FA02F282420DD108E058B9C1F1A6
:103BF000140228FA02F101FA02F2424503D101F05F
:103C00000101C1F1020756EA0A0124D1002C22DA8F
:103C1000002D18BF022F01D0012F0AD00220FCF77F
:103C2000ACFC16B0BDEC0E8B04B0BDE8F04D00F05E
:103C300013BE0220FCF7A1FC00F00EFE51EC100BAD
:103C400002F094FE41EC100B16B0BDEC0E8B04B0EC
:103C5000BDE8F08D18E09FEDBEAB9FEDBF8B002857
:103C600071D1B848804522D105F1804010F580100F
:103C700008BFBAF1000F07D0B3450ADC002CA8BF7B
:103C80009DED260BE0DA0DE0B0EE490AF0EE690A90
:103C9000DAE7002C06DA9DED260B51EC100B02F052
:103CA00065FE6FE0AE48784490ED000BCCE7D84558
:103CB0004DD1002C48DA2EB186423AD1BAF1000F2C
:103CC00042D126E0BAF1000F13D00220FCF755FCD8
:103CD00000F0F6FD8DED020B9DED240B8DED000B3C
:103CE00010EE900A039961F31E0003909DED020B04
:103CF000AAE78DED02AB9DED240B1AEE901A10EEA3
:103D0000900A8DED000B61F31E0003909DED020BF8
:103D10009AE78DED028B9DED240B18EE901A10EEB4
:103D2000900A8DED000B61F31E0003909DED020BD8
:103D30008AE709DA9DED240B51EC190B53EC102B9B
:103D400002F0DCFE1EE020E09DED240B7CE78642C5
:103D50001BDAB4F1804F0DD0A4F10050B0F1FF5048
:103D600013D1002D11DB9DED240B51EC100B01F054
:103D700099FB07E09DED240B53EC102B51EC100B3D
:103D800000F0C2BC41EC100B5EE79DED240B51EC42
:103D9000100B00F0BCFDBAF1000FCDE90E0142D1CD
:103DA0009FED710B46B3A6F1E040B0F17F600CD0FF
:103DB0005E4538D1002D00DAA7B3022F0CBF0120D9
:103DC0004FF0FF3003F021F8DCE7002D01DD002C7F
:103DD0000DDA002D01DD002C1FDB002D16DA002C82
:103DE00014DB012F08BF9FED620B3FF42DAFB0EE47
:103DF0004A0AF0EE6A0A27E7022F18BF002D0CD0FE
:103E0000012F0AD1002DFFF61FAF06E0002DB8BF2D
:103E1000002C08DA012F3FF417AFB0EE480AF0EE9D
:103E2000680A11E71BE0012000EBE57050EA07018A
:103E300015D0791EB0EE498AF0EE698A084308BFB2
:103E40009FED4D8B4E480025804570DD4D494E4815
:103E5000884514DDB0420DDB002C19DB2FE001207A
:103E6000FCF78BFB16B0BDEC0E8B04B0BDE8F04D3B
:103E700000F016BDB34502DC002C09DC1FE08642D1
:103E800002DA002C1BDA03E05E452BDD002C16DD88
:103E90000220FCF772FB00F013FD8DED020B53ECDA
:103EA0001A2B51EC180B03F003F8CDE9000103992C
:103EB000019861F31E0003909DED020BC4E6022001
:103EC000FCF75BFB00F00CFD10EE901A18EE900A68
:103ED0008DED020B8DED008B61F31E0003909DEDC7
:103EE000020BB1E69DED0E0B53EC192B51EC100BB0
:103EF00003F0EAF99FED260BCDE9080153EC102BF6
:103F00009DED080B51EC100B02F0D2FF9FED221B30
:103F100053EC112B03F000F99DED081B53EC112B12
:103F200002F0C6FF9FED1E1B53EC112B3CE08CE012
:103F3000FFFF1F00FFFF0F00000000000000F03F28
:103F40000000F03F0000F07F0000404301FCFFFF55
:103F5000000000000000F07F0000000000000000F2
:103F60005E3A000000000000000000000000008039
:103F7000000000000000F0FF000000000000F0BFA3
:103F80000000E0410000F043FFFFEF3F00000000B1
:103F9000000000000000D03F555555555555D53F00
:103FA000000000000000E03F03F0B6F89DED080BB4
:103FB00041EC1A0B53EC102B51EC100B02F078FF74
:103FC00053EC1A2B02F074FF41EC1A0B9FEDFE0B21
:103FD00053EC102B9DED080B51EC100B02F068FF19
:103FE00041EC1B0B9FEDFA0B51EC1A0B53EC102B11
:103FF00002F05EFF41EC1A0B9FEDF70B53EC102B18
:104000009DED080B51EC100B02F052FF53EC1A2BF4
:1040100003F05AF941EC1A0B51EC1B0B53EC1A2B21
:1040200002F0B0FC0690CDE906519DED060B53EC75
:104030001B2B51EC100B03F047F953EC1A2B03F038
:104040006BF841EC100B00F0A1B90020B6F5801F11
:104050000EDA9FEDE30B53EC102B9DED0E0B51ECA4
:10406000100B02F025FFCDE90E016FF034000E4673
:1040700000EB2650A0F2FF37C6F31300DA4940F0F8
:104080007F6646F040568842D8BF002408DDD749F5
:104090008142C8BF012403DC0024A6F580167F1CE2
:1040A000D348784400EBC4000F9690ED00CB9DED13
:1040B0000E0B53EC1C2B51EC100B03F005F99DED8E
:1040C0000E0B41EC1B0B53EC1C2B51EC100B02F0B4
:1040D00059FC41EC100B51EC190B53EC102B02F076
:1040E0000DFD41EC1D0B51EC1B0B53EC1D2B02F095
:1040F000DFFE41EC1A0BBF488DED10AB78441095F4
:1041000090ED000B4FF0005040EA660000EB844059
:104110008DED080B00F5002009909DED080B53EC88
:104120001C2B51EC100B03F0CFF89DED0E1B53EC44
:10413000112B02F0F1FF41EC100B53EC102B9DED15
:10414000100B51EC100B02F0B3FE9DED080B41EC8F
:104150001C0B53EC102B9DED100B51EC100B02F0CF
:10416000A7FE53EC1B2B02F0D7FF53EC1C2B03F0E4
:10417000ABF853EC1D2B02F09BFE41EC1C0B53ECF7
:104180001A2B51EC1A0B02F093FE41EC1B0B9A48D0
:104190000621B0EE4B0AF0EE6B0A784400F0E0FA2C
:1041A000B0EE401AF0EE601AB0EE41DAF0EE61DAED
:1041B00053EC1B2B51EC1B0B02F07AFE53EC1D2B26
:1041C00002F076FE9DED100B41EC1B0B53EC1A2B0D
:1041D00051EC100B02F0D6FB53EC1C2B02F068FEE6
:1041E00053EC1B2B02F0CEFB9DED100B41EC1B0B97
:1041F00053EC102B51EC100B02F05AFE41EC1D0B4E
:104200009FED7FEB53EC1E2B02F0BCFB53EC1B2B02
:1042100002F0B8FB0890CDE908519DED080B53EC76
:104220001E2B51EC100B03F04FF853EC1D2B03F039
:104230004BF853EC1B2B02F06FFF9DED080B41EC8C
:104240001D0B53EC102B9DED100B51EC100B02F0DD
:104250002FFE41EC1B0B53EC1A2B51EC1D0B02F003
:1042600027FE9DED080B41EC1A0B53EC102B51EC83
:104270001C0B02F01DFE53EC1A2B02F083FB41ECE9
:104280001A0B51EC1B0B53EC1A2B02F07BFB0C901E
:10429000CDE90C519DED0C0B53EC1B2B51EC100B8D
:1042A00003F012F853EC1A2B02F036FF41EC1B0B13
:1042B0009FED550B53EC102B9DED0C0B51EC100B9F
:1042C00002F0F6FD41EC1A0B9FED510B51EC1B0B6C
:1042D00053EC102B02F0ECFD41EC1B0B9FED4E0B51
:1042E00053EC102B9DED0C0B51EC100B02F0E0FD8C
:1042F00053EC1B2B02F046FB41EC100B4848784472
:1043000000EBC40090ED001B51EC100B53EC112B93
:1043100002F038FB41EC1B0B384602F076FDCDE98C
:10432000080153EC1B2B51EC1A0B02F02BFB41EC58
:10433000100B3C48784400EBC40090ED00CB51ECEE
:10434000100B53EC1C2B02F01DFB9DED081B53ECD6
:10435000112B02F017FB0690CDE906519DED080BDD
:1043600053EC102B9DED060B51EC100B02F0ACFF43
:1043700053EC1C2B02F0A8FF53EC1A2B02F0A4FF05
:1043800053EC1B2B02F0C8FE41EC100B9DED261BDD
:1043900053EC102B8DED001B00959DED260B51EC81
:1043A000100B02F085FD9DED000B41EC1A0B53EC58
:1043B000102B9DED260B51EC100B02F085FF9DEDAF
:1043C000061B53EC112B2FE0000000604715F73F50
:1043D000FE822B654715F73F44DF5DF80BAE543E78
:1043E00000000000000040438E9803007AB60B00E6
:1043F000DA35000008360000123500000000000029
:104400000000000000000840000000E009C7EE3F87
:10441000FD033ADC09C7EE3FF5015B14E02F3EBE19
:104420009E3300005833000002F042FD53EC1A2B7B
:1044300002F0A8FA9DED060B41EC1A0B53EC102B81
:104440009DED000B51EC100B02F032FDCDE90C019B
:104450009DED0C0B51EC1A0B53EC102B02F092FA61
:10446000CDE902010C46AA498C422FDB611A0843B0
:1044700018D19DED0C0B53EC102B9DED020B51EC64
:10448000100B02F021FF41EC1B0B9FEDA30B51EC35
:104490001A0B53EC102B02F075FA53EC1B2B02F0A5
:1044A00005FE2DD20220FCF768F800F009FA10EEA4
:1044B000901A18EE900A8DED020B8DED008B61F3D2
:1044C0001E0003909DED020BFFF7BEBB944A24F043
:1044D0000041914214D39349214408437FF4EFAC47
:1044E0009DED0C0B53EC102B9DED020B51EC100BC2
:1044F00002F0EAFE53EC1A2B02F0D8FD7FF6DFAC97
:1045000024F000408849894A002601EB205182426C
:104510002BDA481C4FF4801121FA00F02044844A21
:10452000C0F30A517A44A1F2FF3192ED000B814AA7
:104530008DED080BCA4020EA0202C0F3130040F4DC
:104540008010C1F1140120FA01F60992002CB8BFC5
:1045500076429DED080B53EC102B9DED0C0B51ECAE
:10456000100B02F0B1FECDE90C019DED0C0B51ECEE
:104570001A0B53EC102B02F005FA9FED6F0B08900D
:10458000CDE9085153EC102B9DED080B51EC100BAD
:1045900002F08EFC41EC1B0B9FED690B53EC102BD2
:1045A0009DED080B51EC100B02F082FC9DED0C0B05
:1045B00041EC1C0B53EC102B9DED080B51EC100B38
:1045C00002F082FE53EC1A2B02F0A6FD9FED5E1B5B
:1045D00053EC112B02F06CFC53EC1C2B02F0D2F9C3
:1045E00041EC1A0B51EC1B0B53EC1A2B02F0CAF9DD
:1045F000CDE902019DED020B53EC1B2B51EC100B8E
:1046000002F062FE53EC1A2B02F086FD9DED020BC8
:1046100041EC1A0B53EC102B51EC100B02F048FC40
:10462000CDE908014A489DED080B0521784400F0CA
:1046300097F89DED081B51EC100B53EC112B02F079
:1046400037FC9DED021B53EC112B02F065FDCDE90B
:1046500006019DED020B53EC1A2B51EC100B02F0EE
:1046600027FC53EC1A2B02F08DF99FED3B0B41EC2C
:104670001A0B53EC102B9DED060B51EC100B02F0B6
:1046800023FE9DED060B41EC1B0B53EC102B9DED17
:10469000020B51EC100B02F00BFC53EC1B2B02F045
:1046A0002DFA53EC1A2B02F00FFE9DED021B53EC7A
:1046B000112B02F009FE53EC192B02F02DFDCDE970
:1046C000020101EB065001150029C8BF039015DC5B
:1046D0009DED020B324651EC100B02F089FFFFF703
:1046E000FDF9042808BF00F0FBF832469DED020BEF
:1046F00051EC100B02F07CFFCDE902019DED020BA5
:1047000051EC180B53EC102B02F0D2FBFFF73ABB25
:104710000000904000000000FE822B654715973C8A
:1047200000CC904000346F3F01FCFFFF0000E03FF1
:10473000E0310000FFFF0F0000000000432EE63FC5
:10474000396CA80C615C20BEEF39FAFE422EE63FC0
:10475000B030000000000000000000000000004039
:1047600070B504462DED028B4D1E00EBC500B0EE7A
:10477000408AF0EE608A90ED000B35F0060017D00D
:1047800053EC182B51EC100B02F092FB41EC100B88
:104790006D1E04EBC50090ED001B51EC100B53ECAB
:1047A000112B02F0EFF841EC100B35F00600E7D1C9
:1047B000022D36D0042D1CD0062D1CBFBDEC028B63
:1047C00070BD53EC182B51EC100B02F071FB94ED03
:1047D0000A1B53EC112B02F0D5F853EC182B02F006
:1047E00067FB94ED081B53EC112B02F0CBF841EC66
:1047F000100B53EC182B51EC100B02F059FB94EDFD
:10480000061B53EC112B02F0BDF853EC182B02F0F1
:104810004FFB94ED040B53EC102B02F0B3F841EC7A
:10482000100B53EC182B51EC100B02F041FB94EDE4
:10483000021B53EC112B02F0A5F853EC182B02F0DD
:1048400037FB94ED001B53EC112B02F09BF8BDECF1
:10485000028B41EC100B70BD9FED070B10B553ECB4
:10486000102B9FED070B51EC100B02F047F941ECB8
:10487000100B10BD00000000000000000000000050
:10488000000000000000F03F10B553EC112B51EC7C
:10489000100B02F077F841EC100B10BD0000000087
:1048A0009FED050B10B553EC102B51EC100B02F0E3
:1048B00025F941EC100B10BD0000000000000000C5
:1048C0009FED050B10B553EC102B51EC100B02F0C3
:1048D000EFFA41EC100B10BD00000000000000706A
:1048E0009FED050B10B553EC102B51EC100B02F0A3
:1048F000DFFA41EC100B10BD0000000000000010BA
:1049000030380A2801D2012070470020704782B059
:10491000CDE9000121F0004001909DED000B02B0B7
:1049200051EC100B7047000000BF054A128802F0DE
:104930004002002AF9D0C2B2014B1B1D1A807047F9
:10494000001401401CB54FF44070FEF70BFAB42080
:10495000FDF730FDFDF7CAFFFDF7B6F84FF416502E
:10496000FEF7E8F80020012103464FF4C872CDE9B4
:10497000001004A1074801F059FD01F0F3F800BF51
:10498000FEE700005461736B5F5379735F496E6992
:10499000740000001D3700082DE9F04105460E4661
:1049A0001C4807681C480068001D00F0B2FD50B9A3
:1049B0001948006890F82C100120884017490968B0
:1049C000814316480160681C38B936B11248016845
:1049D000091D134800F0DBFD1AE07C190E48006841
:1049E0004460BC4207D20C480168091D0D480068AC
:1049F00000F0B3FD0CE008480168091D0A48006892
:104A000000F0ABFD09480068844201D20748046009
:104A1000BDE8F081240000201000002028000020C4
:104A2000D8010020180000201400002040000020C1
:104A300010B5044600F0B8FD24480068401C234926
:104A400008602348006840B92148046008460068AF
:104A500001280DD100F0DEF90AE01E48006838B9DF
:104A60001B480068C06AE16A884201D8184804609F
:104A700019480068401C18490860084600686064CE
:104A800094F82C1001208840144909680843134900
:104A90000860E16A01EB8101114A02EB8100211DEE
:104AA00000F075FD00F0AAFD0A48006868B10848EA
:104AB0000068C06AE16A884207D24FF08050094915
:104AC0000860BFF34F8FBFF36F8F10BD2000002031
:104AD000100000202C0000203C00002028000020B6
:104AE000FC00002004ED00E010B500F05DFD104872
:104AF0000068D0B90F4800F020FD0F4800F01DFD00
:104B00000C480E4908600C480D49086000220C2131
:104B10000A2001F09BF9064908600846006820B1A8
:104B200008A10348006800F01DFE00F067FD10BDFD
:104B30005C000020EC010020000200205400002056
:104B400058000020546D72510000000070B523E041
:104B500001F056F81348006808B9012000E0002071
:104B6000054601F0FDFDBDB900F01EFD0D48C06811
:104B7000C468201D00F0CDFC0B480068401E0A49A7
:104B800008600A480068401E0849086000F036FDC9
:104B9000204600F060F800BF044800680028D7D124
:104BA00070BD0000C4010020200000201C00002077
:104BB00070B504460D46206C70B1216CE068084465
:104BC000E0606168E068884201D32068E0602846C0
:104BD000226CE168FBF77CFC70BD2DE9F0410446D6
:104BE0000F4615464FF00008A66B206C40B92068B0
:104BF00060BB606801F004FD80460020606025E035
:104C00007DB93946226CA068FBF762FC216CA06874
:104C10000844A060D4E90110884217D32068A0603E
:104C200014E03946226CE068FBF752FC216CE06826
:104C3000401AE0602168E068884203D2216C606815
:104C4000401AE060022D01D106B1761E701CA063EF
:104C50004046BDE8F08110B50446206B00F0ECFC46
:104C6000204600F0E9FC10BD0146084A12681268AF
:104C70000AB9012200E000220A600A6822B9034A48
:104C80001268D268106800E00020704754000020CD
:104C900030B54FF49633174800F007042CB1C01D0F
:104CA00020F00700134C041B1B1B0246124C226011
:104CB0000024114D6C60D018083820F007000F4C0C
:104CC000206000240D4D2D686C600C4D2D682C600B
:104CD0001146441A4C60094C24680C60084D4C681D
:104CE0002C60084D4C682C604FF00044064D2C6041
:104CF00030BD000014020020680000207000002079
:104D000078000020740000207C00002000BFFFF726
:104D10001DFF064800680128F9D94FF0805004496A
:104D20000860BFF34F8FBFF36F8FF0E7FC000020E8
:104D300004ED00E02DE9F04106460D461746984681
:104D4000069C0DB9246000E02760E663256401211C
:104D5000204601F089F984F84C80BDE8F0812DE906
:104D6000F05F82460F4690469B460A9E0C9C4FEA97
:104D70008801A522206BFBF7F0FBA8F10100216B55
:104D800001EB800929F0070909F0070008B90120A3
:104D900000E0002050B900BF502080F31188BFF31D
:104DA0004F8FBFF36F8F00BF00BFFEE7002507E006
:104DB000795D04F134004155785D00B902E06D1C65
:104DC000102DF5D300BF002143200155072E00D33D
:104DD0000626E662E66400202065201D00F0BAFB8E
:104DE00004F1180000F0B6FB2461C6F10700A061D1
:104DF000646200206065A06584F85C005A465146F4
:104E0000484600F039FB20600B9808B10B9804600D
:104E1000BDE8F09F10B5002407E004EB84010F4AC1
:104E200002EB810000F089FB641C072CF5D30C48D1
:104E300000F083FB0B4800F080FB0B4800F07DFB8B
:104E40000A4800F07AFB0A4800F077FB0448094959
:104E5000086004480849086010BD0000FC000020FC
:104E6000880100209C010020B0010020C401002026
:104E7000D8010020140000201800002010B50146C1
:104E8000164800E0006803688B42FBD30246436883
:104E900013448B4204D143684C6823444360014669
:104EA0000A464B6813440468A34211D10C4C0368B2
:104EB0002468A34208D04B680468646823444B60AC
:104EC00003681B680B6005E0054B1B680B6001E085
:104ED00003680B60884200D0016010BD68000020AC
:104EE000700000202DE9F04104460D4616461F468D
:104EF0004FF0000865602461B5420CD8F01BA16931
:104F0000884202D34FF0010811E0211D09480068D2
:104F100000F023FB0BE0BE4204D2BD4202D34FF0AF
:104F2000010804E0211D0448006800F016FB40461B
:104F3000BDE8F081580000205400002070B50546FF
:104F400000F032FBA86B08B9012400E0002400F057
:104F500055FB204670BD70B5054600F025FBA86BDB
:104F6000E96B884201D1012400E0002400F046FBF7
:104F7000204670BDF8B505460F4616480068C06863
:104F8000C468201D00F0C5FAE06901281DD1A069A0
:104F900041192B463A462046FFF7A4FFA8B100204E
:104FA00003462A4601460090204601F087FC06464B
:104FB00056B900BF502080F31188BFF34F8FBFF365
:104FC0006F8F00BF00BFFEE700BF2046616A8847C1
:104FD000F8BD00005400002070B586B06AE0039868
:104FE000002867DB059C606908B9012000E000200B
:104FF00010B9201D00F08DFA02A800F0BDF805469A
:1050000003980A2854D2DFE800F009050731334F2E
:105010000608323400BF00BF00BF00BF0498A26979
:10502000811803462A462046FFF75CFFE8B1204678
:10503000616A8847E069012817D100200090049830
:10504000A169421800231946204601F037FC0646A4
:1050500056B900BF502080F31188BFF34F8FBFF3C4
:105060006F8F00BF00BFFEE700BF22E000BF20E05F
:1050700000BF0498A061A06908B1012000E00020F1
:1050800050B900BF502080F31188BFF34F8FBFF39A
:105090006F8F00BF00BFFEE7A06941192B462A466B
:1050A0002046FFF71FFF04E0204600F0C5FA00E0AD
:1050B00000BF00BF00231A4603A90448006800F09F
:1050C000F1FE00288BD106B070BD00005C0000200E
:1050D000F8B505460C4600F093FD684600F04CF824
:1050E0000646009820BB44B9B54206D801F038FB0B
:1050F00031462846FFF73EFF1CE03CB10E480068F1
:10510000006808B9012000E000200446A91B2246DF
:105110000A48006800F03CFB01F022FB50B94FF058
:10512000805007490860BFF34F8FBFF36F8F01E0D6
:1051300001F016FBF8BD0000580000205C000020C4
:1051400004ED00E00A490968096809B9012100E095
:10515000002121B14FF0FF31064A116006E00449F9
:105160000968C968C868034A41681160704700004F
:10517000140000204000002070B5044601F096F9AC
:10518000054607480068854204D200F00BF801206C
:10519000206001E00020206001480560284670BDC5
:1051A000640000202DE9F84332E024480068C0681C
:1051B000056822480068C068C468201D00F0A9F98D
:1051C0002046616A8847E069012821D1A069461913
:1051D000AE4207D966602461211D1848006800F0BE
:1051E000BCF915E0002003462A46014600902046FF
:1051F00001F064FB074657B900BF502080F31188C7
:10520000BFF34F8FBFF36F8F00BF00BFFEE700BF3C
:105210000A480068006808B9012000E00020002862
:10522000C3D00648D0F800800548006803490860EC
:105230000348C0F80080BDE8F88300005400002057
:10524000580000200E480068401C08B9012000E00A
:10525000002050B900BF502080F31188BFF34F8F5A
:10526000BFF36F8F00BF00BFFEE700BF502080F389
:105270001188BFF34F8FBFF36F8F00BF00BFFEE7F2
:105280008000002008B500BF6846FFF7EDFC04462B
:1052900020460099FFF71CFFFFF79EFEF4E770B56C
:1052A000044600F081F994F9455010E0606A08B9AD
:1052B000012000E0002038B904F1240001F004FAD4
:1052C00018B100F09DFB00E003E0681E45B2002D20
:1052D000ECDC00BFFF2084F8450000F08FF900F0FF
:1052E00063F994F9445010E0206908B9012000E006
:1052F000002048B904F1100001F0E6F908B100F00F
:105300007FFB681E45B200E001E0002DECDC00BF31
:10531000FF2084F8440000F071F970BD2DE9F041E0
:1053200004464FF0000800F06BFC4648006808B9DE
:10533000FFF7AEFC44480068204000286BD1D4B190
:10534000083404F00700B0B104F00700C0F1080011
:10535000044404F0070008B9012000E0002050B91F
:1053600000BF502080F31188BFF34F8FBFF36F8FC2
:1053700000BF00BFFEE7002C4DD0344800688442D7
:1053800049D8334E3046056801E02E462D686868DE
:10539000A04202D228680028F7D12A480068854236
:1053A00039D0306800F10808286830606868001B50
:1053B000102819D92F1907F0070008B9012000E0BB
:1053C000002050B900BF502080F31188BFF34F8FE9
:1053D000BFF36F8F00BF00BFFEE76868001B7860F7
:1053E0006C603846FFF74AFD184968680968081A72
:1053F000164908600846006816490968884203D2C1
:1054000012480068134908600F4968680968084332
:1054100068600020286001F0A3F908F0070008B9CF
:10542000012000E0002050B900BF502080F3118817
:10543000BFF34F8FBFF36F8F00BF00BFFEE7404643
:10544000BDE8F081700000207C0000207400002086
:1054500068000020780000200648006830B1054947
:10546000096801F15000096D491C0160014800689C
:105470007047000010000020001F4FF08073036091
:10548000001F21F001030360001F054B0360143867
:105490000260001F6FF002030360203870470000B5
:1054A0004552000800B52DED048B83B041EC190B7B
:1054B00001F03EFE41EC180B18EE100A18EE901A9F
:1054C0008DED008B002818BF0120084320F000401C
:1054D000C0F17F6000F1E040C00F14D019EE101A47
:1054E00019EE900A8DED009B002918BF0121084399
:1054F00020F00040C0F17F6000F1E040C00F04BF29
:105500000120FBF73AF851EC180B03B0BDEC048B0B
:1055100000BD01460A69D1E901309860D1E9010373
:1055200058605068884201D1886850600020086146
:105530001068401E10601068704700F1080141605B
:105540004FF0FF31816000F10801C160016100216D
:105550000160704700210161704710B502460B6879
:105560005C1C0CB9106907E002F1080000E040681B
:10557000446824689C42FAD944684C604C68A16035
:10558000886041600A611468641C146010BD426840
:105590004A6093688B609368596091600861036802
:1055A0005B1C03607047000000BF502080F311882F
:1055B000BFF34F8FBFF36F8F00BF0E480068401CD2
:1055C0000C49086008460068012812D10A480068A2
:1055D000C0B208B9012000E0002050B900BF50203F
:1055E00080F31188BFF34F8FBFF36F8F00BF00BFF1
:1055F000FEE770478000002004ED00E00D480068E1
:1056000050B900BF502080F31188BFF34F8FBFF314
:105610006F8F00BF00BFFEE706480068401E0549C7
:1056200008600846006820B9002080F3118800BF98
:1056300000BF70478000002070B506463546002E3A
:105640003FD0083D2C461F4960680968084008B1F2
:10565000012000E0002050B900BF502080F31188E5
:10566000BFF34F8FBFF36F8F00BF00BFFEE720680F
:1056700008B9012000E0002050B900BF502080F39D
:105680001188BFF34F8FBFF36F8F00BF00BFFEE7DE
:105690000C4960680968084098B1206888B90949D0
:1056A000606809688843606000F0AAFA064960688B
:1056B00009680844044908602046FFF7DFFB01F051
:1056C0004FF870BD7C000020740000200648006880
:1056D0004FF47A71B0FBF1F0401E4FF0E0214861C9
:1056E00007200861704700009800002070B5FAF7A5
:1056F00011FE0446102C16D304F1E02090F8F0536C
:1057000015480078854201DB012000E0002050B9F7
:1057100000BF502080F31188BFF34F8FBFF36F8F0E
:1057200000BF00BFFEE70D48006800F4E0600C49D0
:105730000968884201D8012000E0002050B900BF6C
:10574000502080F31188BFF34F8FBFF36F8F00BFDE
:1057500000BFFEE770BD0000840000200CED00E0FB
:1057600088000020024600200BE0084B53F8303040
:1057700033B9064B43F8301003EBC0035A6002E024
:10578000401C0828F1D300BF70470000BC00002077
:105790002DE9F04105460E4617462C46FFF704FF5B
:1057A00094F94400401C10B9002084F8440094F996
:1057B0004500401C10B9002084F84500FFF71EFF8B
:1057C000A06B28B93A46314604F1240000F03AF9BA
:1057D0002046FFF764FDBDE8F081000070B5044687
:1057E0000025D4B11248006808B9012000E000206B
:1057F00050B900BF502080F31188BFF34F8FBFF323
:105800006F8F00BF00BFFEE700F0FAF900212046CD
:10581000FFF7C2F800F0A4FF05463DB94FF08050F5
:1058200004490860BFF34F8FBFF36F8F70BD000056
:105830004800002004ED00E02DE9F04704460F4643
:105840004FF0000954B900BF502080F31188BFF316
:105850004F8FBFF36F8F00BF00BFFEE70FB1012076
:1058600000E0002050B900BF502080F31188BFF342
:105870004F8FBFF36F8F00BF00BFFEE72048006867
:1058800008B9012000E0002050B900BF502080F38B
:105890001188BFF34F8FBFF36F8F00BF00BFFEE7CC
:1058A00000F0AEF9174806682068C5192068B042B4
:1058B00007D92068A8420BD9B54209D94FF0010990
:1058C00006E02068A84201D8B54201D94FF001098D
:1058D0002560B9F1000F03D0A81B0021FFF75CF889
:1058E00000F03EFF8046B8F1000F07D14FF0805026
:1058F00005490860BFF34F8FBFF36F8FBDE8F08796
:10590000480000202400002004ED00E070B50546AA
:10591000FFF74AFE15B93048006800E02846044603
:10592000201DFFF7F6FD78B9E06A00EB80002B49F7
:1059300051F8200040B994F82C10012088402849E3
:105940000968814326480160A06A18B104F1180073
:10595000FFF7DFFD23480068401C224908601E480D
:105960000068844209D1211D1F48FFF710FE1F481F
:105970000068401C1D49086009E01D480068401E81
:105980001B4908602046FFF766F9FFF7DBFBFFF7CE
:1059900035FE18480068E8B10F480068844219D104
:1059A0001548006808B9012000E0002050B900BF88
:1059B000502080F31188BFF34F8FBFF36F8F00BF6C
:1059C00000BFFEE74FF080500C490860BFF34F8FD7
:1059D000BFF36F8F70BD000010000020FC0000209E
:1059E000280000203C000020C40100201C000020F2
:1059F000200000202C0000204800002004ED00E0E2
:105A000001200149086070473400002070B5044649
:105A10000D4654B900BF502080F31188BFF34F8F5B
:105A2000BFF36F8F00BF00BFFEE705480168183164
:105A30002046FFF792FD01212846FEF7ADFF70BD1D
:105A40001000002070B505460E46144655B900BF3B
:105A5000502080F31188BFF34F8FBFF36F8F00BFCB
:105A600000BFFEE70648016818312846FFF78FFDA2
:105A70000CB14FF0FF3621463046FEF78DFF70BD6A
:105A80001000002070B505462C46002D4BD026494D
:105A9000E06A0968C96A884245D2A06900F00040FE
:105AA00028B921480068C06AC0F10700A061E16A16
:105AB00001EB81011D4A02EB81016069884201D13D
:105AC000012000E0002050B3201DFFF722FD78B92F
:105AD000E06A00EB8000154951F8200040B994F8C5
