:020000040800F2
:10000000D8470120090300084D2C0008A51F00084F
:10001000212B0008610C0008213E000800000000B0
:100020000000000000000000000000005102000875
:100030004D17000800000000A5020008313100083B
:1000400023030008230300082303000823030008F8
:1000500023030008230300082303000823030008E8
:1000600023030008230300082303000823030008D8
:1000700023030008230300082303000823030008C8
:1000800023030008230300082303000823030008B8
:10009000810C0008230300082D0D0008C11700087B
:1000A0002303000823030008230300082303000898
:1000B000A9310008230300082303000823030008D4
:1000C0002303000823030008230300082303000878
:1000D00023030008813B00082303000823030008D2
:1000E0002303000823030008230300082303000858
:1000F0002303000823030008230300082303000848
:100100002303000823030008230300082303000837
:100110002303000823030008230300082303000827
:100120002303000823030008230300082303000817
:100130002303000823030008230300082303000807
:100140004D0D0008230300082303000823030008C3
:10015000230300082303000823030008E53B0008ED
:1001600023030008230300082303000823030008D7
:1001700023030008230300082303000800000000F5
:1001800023030008230300082303000823030008B7
:1001900023030008230300082303000823030008A7
:1001A00000000000000000002303000800F002F837
:1001B00000F03EF80AA090E8000C82448344AAF1C3
:1001C0000107DA4501D100F033F8AFF2090EBAE8C1
:1001D0000F0013F0010F18BFFB1A43F0010318477B
:1001E00090730000B0730000103A24BF78C878C143
:1001F000FAD8520724BF30C830C144BF04680C602D
:10020000704700000023002400250026103A28BF74
:1002100078C1FBD8520728BF30C148BF0B60704778
:10022000002070471FB507F020F91FBD10B510BDA5
:1002300000F0D6F91146FFF7F5FF04F063FB00F07C
:10024000F4F903B4FFF7F2FF03BC00F0F7F9000084
:100250002A4B19680868B0E8F04F80F30988BFF3AB
:100260006F8F4FF0000080F311887047000000008E
:1002700006480068006880F3088862B661B6BFF37C
:100280004F8FBFF36F8F00DF00BF00BF08ED00E0AE
:10029000DFF80C00016841F470010160704700BF95
:1002A00088ED00E0EFF30980BFF36F8F134B1A68FE
:1002B0001EF0100F08BF20ED108A20E9F04F1060EB
:1002C00008B44FF0500080F31188BFF34F8FBFF395
:1002D0006F8F05F07DFC4FF0000080F3118808BCA3
:1002E00019680868B0E8F04F1EF0100F08BFB0ECB6
:1002F000108A80F30988BFF36F8F704710000020C9
:10030000EFF305807047000009488047094800471F
:10031000FEE7FEE7FEE7FEE7FEE7FEE7FEE7FEE7B5
:10032000FEE7FEE704480549054A064B7047000012
:1003300041310008AD010008D8330120D847012021
:10034000D8430120D84301200FB4044910B503AAB3
:10035000029800F0D3F810BC5DF814FBC400002034
:100360002DE9F0410E460446002020622046E16857
:10037000884730B3252805D0D4E901219047206A69
:10038000401CF2E7E168204600278847050018D0A6
:10039000A5F14100192802D820354FF400673246F4
:1003A000294620462760FFF73BFF40B1012804D0D3
:1003B000F61D26F007060836D8E7361DD6E728468C
:1003C000DAE7206ABDE8F081032A40F2308010F0BD
:1003D000030C00F0158011F8013BBCF1020F6244E0
:1003E00098BF11F801CB00F8013B38BF11F8013B71
:1003F000A2F1040298BF00F801CB38BF00F8013B1E
:1004000011F0030300F08C80083AC0F0088051F826
:10041000043B083A51F804CBA0E80810F5E7121D98
:100420005CBF51F8043B40F8043BAFF30080D207B7
:1004300024BF11F8013B11F801CB48BF11F8012B83
:1004400024BF00F8013B00F801CB48BF00F8012BA6
:10045000704702F0FF0343EA032242EA024200F03F
:1004600093B84FF0000200B51346944696462039E3
:1004700022BFA0E80C50A0E80C50B1F12001BFF45D
:10048000F7AF090728BFA0E80C5048BF0CC05DF8C3
:1004900004EB890028BF40F8042B08BF704748BF11
:1004A00020F8022B11F0804F18BF00F8012B704785
:1004B00070477047704710B500F086F8006810BDAF
:1004C00010B5044600F080F8046010BD01694A1CB4
:1004D00002610878704700B58FB0CDE90131002185
:1004E000059105497944CDE9031011466846FFF7A7
:1004F00037FF0FB000BD0000E5FFFFFF074B70B5F1
:100500000D467B44FFF7E7FF0446284600F060F8FD
:1005100010B14FF0FF3070BD204670BDA743000002
:1005200010B5203AC0F00B80B1E81850203AA0E88E
:100530001850B1E81850A0E81850BFF4F5AF5FEAC2
:10054000027C24BFB1E81850A0E8185044BF18C975
:1005500018C0BDE810405FEA827C24BF51F8043B1C
:1005600040F8043B08BF7047D20728BF31F8023B70
:1005700048BF11F8012B28BF20F8023B48BF00F804
:10058000012B70474FF000020429C0F0128010F0D8
:10059000030C3FF468AFCCF1040CBCF1020F18BFA0
:1005A00000F8012BA8BF20F8022BA1EB0C01FFF7EC
:1005B0005ABF5FEAC17C24BF00F8012B00F8012B71
:1005C00048BF00F8012B7047004870477433012082
:1005D000007B00F0800070470048704774330120B2
:1005E0007546FFF7F9FFAE4605006946534620F011
:1005F0000700854618B020B5FFF794FEBDE82040FF
:100600004FF000064FF000074FF000084FF0000BCE
:1006100021F00701AC46ACE8C009ACE8C009ACE881
:10062000C009ACE8C0098D46704710B50446AFF369
:1006300000802046BDE81040FFF703BE01491820A6
:10064000ABBEFEE7260002007047000000B587B091
:100650000121480602F014FC0121880602F010FC7A
:1006600000208DF817008DF8180008208DF8140070
:1006700004208DF8150000208DF812008DF8190067
:100680000320ADF8100000208DF81A008DF813003B
:100690008DF816008DF81B0004A92B4800F051FCC2
:1006A00001208DF80D000020ADF80800ADF8000025
:1006B000ADF80200ADF80400ADF806008DF80B00AF
:1006C0008DF80A0001208DF80C00684600F0ACFBA4
:1006D00001208DF8170000208DF8180008208DF8F3
:1006E000140004208DF8150000208DF812008DF8FC
:1006F00019000320ADF8100000208DF81A008DF8C5
:1007000013008DF816008DF81B0004A90F4800F0A7
:1007100018FC01208DF80D000020ADF80800ADF8A0
:100720000000ADF80200ADF80400ADF806008DF849
:100730000B000E208DF80A0001208DF80C00684691
:1007400000F072FB07B000BD00640040006800408C
:1007500000B58FB00121880502F082FB4FF00060E8
:10076000009012480190124802900020039013203C
:100770000490002005904FF48060069000200890BF
:10078000079009904FF480300A9000200B900320CE
:100790000C9000200D900E906946064800F0A8FFCE
:1007A0000121044800F08EFF0FB000BD041001408D
:1007B00090300120406402401CB50121084602F03F
:1007C0004FFB0121022002F04BFB0121082002F027
:1007D00047FB0121202002F043FB0121802002F091
:1007E0003FFB02208DF8040000208DF806008020D9
:1007F000009001208DF8070003208DF80500694660
:10080000614801F0ADF8072211465F4801F0F0F8A9
:1008100002208DF8040000208DF8060003200090CF
:1008200001208DF8070003208DF805006946574820
:1008300001F096F809220021544801F0D9F8092264
:100840000121524801F0D4F802208DF80400002064
:100850008DF806004FF44050009001208DF80700FD
:1008600003208DF805006946474801F079F8092210
:100870000C21454801F0BCF809220D21424801F045
:10088000B7F801208DF8040000208DF806004FF421
:100890008060009001208DF8070003208DF805008E
:1008A00069463B4801F05CF801208DF80400002007
:1008B0008DF806004FF42070009001208DF807009D
:1008C00003208DF805006946314801F049F8002001
:1008D0008DF804008DF806004020009001208DF86E
:1008E000070003208DF805006946294801F038F813
:1008F00000208DF804008DF806004FF48070009001
:1009000002208DF8070003208DF805006946204875
:1009100001F026F801208DF8040000208DF8060073
:100920003C20009001208DF8070003208DF8050081
:100930006946184801F014F80421164801F07DF8C2
:100940000821144801F079F81021124801F075F8D7
:100950002021104801F071F8012211460E4801F0E3
:1009600047F8022000908DF8040003208DF8050060
:1009700000208DF8060001208DF807006946064822
:1009800000F0EEFF1CBD000000040240000C02401D
:1009900000140240001C02400000024008B525205F
:1009A0008DF8000001208DF8030008208DF801006B
:1009B00000208DF80200684602F054F9012240F24E
:1009C0002441264803F097F914208DF800000120F7
:1009D0008DF8030008208DF8010000208DF802003A
:1009E000684602F03FF901221D491E4800F0A0FAB6
:1009F0001C481430006840F0FF001A4914310860A8
:100A000040208DF8000001208DF8030008208DF8AB
:100A1000010000208DF80200684602F023F901224F
:100A20000221114800F084FA1C208DF800000920F2
:100A30008DF8010000208DF8020001208DF80300E0
:100A4000684602F00FF901221146900702F0F1FB0F
:100A50000121880702F0CAFB08BD00000010014018
:100A6000008F0300006400400068004000B58BB0B8
:100A70000121084602F004FA0120099042F22730D1
:100A8000ADF820000020ADF82200ADF8280008A93C
:100A90004FF0804002F01EFC0121880702F0ACFB01
:100AA0000121102002F0ECF95920ADF820000020BF
:100AB000ADF82200ADF8280040F2E730099008A90F
:100AC000294802F007FC0121274802F095FB01218B
:100AD000042002F0D5F90121082002F0C1F9022218
:100AE0000C21224800F084FF4FF480500690022031
:100AF0008DF81C0003208DF81D0000208DF81E00CD
:100B000001208DF81F0006A9184800F029FF42F2C5
:100B10002730ADF820000020ADF82200C720099052
:100B20000020ADF8280008A9114802F0D3FB70207E
:100B3000ADF804000120ADF806000220ADF8100069
:100B40000520039001A90A4802F07CFB082108480F
:100B500002F0B6FB0121064802F03CFB01210448EB
:100B600002F04AFB0BB000BD00100040000C024038
:100B7000000800401FB50121102002F091F90E4835
:100B800000900020ADF80C000420ADF80A00002011
:100B9000ADF80800ADF80600ADF804006946074856
:100BA00003F0CEF801224021044803F071F801213E
:100BB000024803F061F81FBDA0860100001001404B
:100BC00000B58BB00121022002F05AF90121022068
:100BD00002F046F9022204211F4800F009FF10200C
:100BE000099002208DF8280003208DF829000020AC
:100BF0008DF82A0001208DF82B0009A9164800F075
:100C0000AFFE5920ADF818000020ADF81A00012001
:100C100007900020ADF8200006A9104802F05AFB0A
:100C20006020ADF804000120ADF806000020ADF80A
:100C3000100001A9094802F005FB0821074802F04D
:100C40003FFB0121054802F0C5FA0121034802F0EB
:100C5000D3FA0BB000BD00000004024000040040C5
:100C600010B502A0FFF770FB10BD0000427573467F
:100C700061756C745F48616E646C657200000000A1
:100C800030B585B06A460021214800F0E4F99DF8AE
:100C90000C009DF80B1040EA012004B29DF80E10E4
:100CA0009DF80D0041EA002005B20098A0F2012055
:100CB000062828D2DFE800F003090F151B212AB20D
:100CC00021B2144801F054FF1EE02AB221B21248AA
:100CD00001F04EFF18E02AB221B2104801F048FF9F
:100CE00012E02AB221B20E4801F042FF0CE00022CD
:100CF00021B20C4801F03CFF06E0002221B20A4874
:100D000001F036FF00BF00BF00BF05B030BD0000DE
:100D100000640040682E0120BC2E0120A02E01207E
:100D2000842E0120D82E0120F42E012010B54FF47E
:100D30000061044800F07FFE4FF40F41024800F0CC
:100D40001FF810BD001002400064004030B585B0AF
:100D50006A460021094800F07EF99DF80C009DF8D4
:100D60000B1040EA012004B29DF80E109DF80D0012
:100D700041EA002005B205B030BD00000068004027
:100D8000B1F5007F3AD00FDC202928D006DC0129FC
:100D90001CD004291DD0082940D11DE0402921D0B4
:100DA000B1F5807F3AD126E0B1F5004F31D006DCB5
:100DB000B1F5806F25D0B1F5006F2FD124E0B1F5EA
:100DC000803F12D0B1F5003F28D111E0154A826072
:100DD00025E00822C26022E01022C2601FE0082243
:100DE00002611CE01022026119E00822426016E054
:100DF0001022426013E00422426010E004224260AC
:100E00000DE0042242600AE0002282610422426076
:100E100005E0002282610422426000E000BF00BFC2
:100E2000704700000101010010B50021837A012202
:100E300002FA03F13D4A126842F001023B4B1A608C
:100E40003A4A1C3212688A43384B1C331A60027BC0
:100E5000CAB9364A0C3212688A43344B0C331A60D2
:100E60004288C38842EA0343304A4032847A42F8D7
:100E700034300288838842EA03432C4A4032847A21
:100E800002EBC4025360027B012A19D1274A0C32BB
:100E900012680A43254B0C331A604288038842EAE1
:100EA0000343224A4032847A42F83430C28883882D
:100EB00042EA03431D4A4032847A02EBC402536083
:100EC000C27A3AB9194A121D12688A43174B1B1D80
:100ED0001A6006E0154A121D12680A43134B1B1DC7
:100EE0001A60028932B9114A143212688A430F4BD0
:100EF00014331A600289012A06D10C4A143212688E
:100F00000A430A4B14331A60427B012A06D1074A6E
:100F10001C3212680A43054B1C331A60034A1268DC
:100F200022F00102014B1A6010BD00000066004073
:100F30001AB143690B43436102E043698B43436148
:100F4000704730B5024600200023146824F00204E4
:100F50001460146844F00104146000E05B1C5468E1
:100F600004F001041CB94FF6FF74A342F6D1546893
:100F700004F001040CB900206CE08C79012C04D140
:100F8000146844F08004146003E0146824F08004C2
:100F90001460CC79012C04D1146844F0400414602E
:100FA00003E0146824F0400414600C7A012C04D18E
:100FB000146844F02004146003E0146824F0200452
:100FC00014604C7A012C04D1146844F010041460AD
:100FD00003E0146824F0100414608C7A012C04D10E
:100FE000146844F00804146003E0146824F0080452
:100FF0001460CC7A012C04D1146844F00404146009
:1010000003E0146824F0040414608C78A407CD78FD
:1010100044EA05640D7944EA05444D7944EA0554EF
:101020000D886D1E2C43D461146824F001041460F3
:10103000002300E05B1C546804F001041CB14FF66F
:10104000FF74A342F6D1546804F001040CB10020EF
:1010500000E0012030BD10B500F5D87303EB01139B
:101060001B6803F004031372137A53B900F5D873A5
:1010700003EB01131B6840F2FF7404EA535313603F
:1010800009E000F5D87303EB01131B686FF06044AF
:1010900004EAD303536000F5D87303EB01131B6814
:1010A00003F00203537200F5D87303EB01135B687E
:1010B00003F00F03937200F5D87303EB01135B6821
:1010C0001B0AD37400F5D87303EB01139B68D3722A
:1010D00000F5D87303EB01139B681C0A147300F529
:1010E000D87303EB01139B681C0C547300F5D87381
:1010F00003EB01139B681B0E937300F5D87303EB8E
:101100000113DB68D37300F5D87303EB0113DB68BD
:101110001C0A147400F5D87303EB0113DB681C0C74
:10112000547400F5D87303EB0113DB681B0E937442
:1011300021B9C36843F02003C36003E0036943F0AF
:101140002003036110BD10B502460020936803F030
:101150008063B3F1806F00D110E0936803F0006307
:10116000B3F1006F01D1012008E0936803F08053D0
:10117000B3F1805F01D1022000E00420042874D084
:1011800002F5C07303EB00131B6803F0010402F5C2
:10119000C07303EB00131C600B7A7BB94B7A0C888D
:1011A00043EA445302F5C07404EB0014246823435B
:1011B00002F5C07404EB0014236010E00B7A4C6855
:1011C00043EAC4034C7A234302F5C07404EB0014D1
:1011D0002468234302F5C07404EB001423608B7A67
:1011E00003F00F038B7202F5C07303EB00135B680F
:1011F00023F00F0402F5C07303EB00135C6002F5EB
:10120000C07303EB00135B688C7A234302F5C07450
:1012100004EB001463608B7B1C064B7B44EA0344A5
:101220000B7B44EA0323CC7A234302F5C07404EB1E
:101230000014A3608B7C1C064B7C44EA03440B7CAB
:1012400044EA0323CC7B234302F5C07404EB00146F
:10125000E36002F5C07303EB00131B6843F0010465
:1012600002F5C07303EB00131C6010BD2DE9F043C1
:1012700085B004460F4615461E46DDE90C890097E9
:1012800000208DF808008DF8090008208DF80A006C
:10129000280A8DF80B00E9B28DF80C10310A8DF890
:1012A0000D10F1B28DF80E104FEA18218DF80F10C5
:1012B00008F0FF018DF810104FEA19218DF8111078
:1012C00009F0FF018DF8121000BFA06938B1206845
:1012D00040F002002060206800F0FD002060A0685F
:1012E00000F0E0500028F0D069462046FFF72BFFC1
:1012F00005B0BDE8F083000010B52DED0A8B84B079
:101300000446664890ED020A10EE101A084606F0F0
:101310003BF841EC1C0B9FED620B53EC102B05F0DE
:1013200073FD41EC1A0B5D4890ED010AD0ED000A07
:1013300030EE600A10EE101A084606F025F841EC6F
:101340001B0B53EC1A2B05F019FB41EC190B9FED0D
:10135000560B53EC102B05F057FD41EC180B05F024
:101360000DFD00904D4890ED020A10EE101A08464F
:1013700006F00AF841EC1C0B9FED490B53EC102BC7
:1013800005F042FD41EC1A0B444890ED010AD0ED06
:10139000000A30EE200A10EE101A084605F0F4FF9D
:1013A00041EC1B0B53EC1A2B05F0E8FA41EC190B3E
:1013B0009FED3D0B53EC102B05F026FD41EC180B77
:1013C00005F0DCFC0190354890ED020A10EE101A91
:1013D000084605F0D9FF41EC1C0B9FED350B53EC93
:1013E000102B05F011FD41EC1A0B2C4890ED010A71
:1013F000D0ED000A30EE600A10EE101A084605F033
:10140000C3FF41EC1B0B53EC1A2B05F0B7FA41EC70
:10141000190B9FED290B53EC102B05F0F5FC41EC5B
:10142000180B05F0ABFC02901C4890ED020A10EE80
:10143000101A084605F0A8FF41EC1C0B9FED1C0B91
:1014400053EC102B05F0E0FC41EC1B0B134890ED26
:10145000010AD0ED000A30EE200A10EE101A0846FC
:1014600005F092FF41EC180B53EC1B2B05F086FAAC
:1014700041EC1A0B9FED100B53EC102B05F0C4FC44
:1014800041EC190B05F07AFC03902146684600F008
:1014900017F804B0BDEC0A8B10BD00003C330120EE
:1014A0001283C0CAA145EEBF2FDD240681956F408F
:1014B0001283C0CAA145EE3F2FDD240681956FC07F
:1014C0009FED371AF0EE410A9FED351AB0EE410A52
:1014D000002223E050F82230002B02DB50F82230AB
:1014E00002E050F822305B4201EE103AB8EEC11A29
:1014F000B4EEE01AF1EE10FA0FDD50F82230002BB6
:1015000002DB50F8223002E050F822305B4201EE5C
:10151000103AB8EEC11AF0EE410A521C042AD9DB87
:101520009FED201AF4EEC10AF1EE10FA2EDD9FEDC8
:101530001D1AC1EE201AB0EE610A90ED001AB8EE45
:10154000C11A21EE001ABDEEC11A81ED001A90ED0C
:10155000011AB8EEC11A21EE001ABDEEC11A81EDD2
:10156000011A90ED021AB8EEC11A21EE001ABDEE72
:10157000C11A81ED021A90ED031AB8EEC11A21EEDC
:10158000001ABDEEC11A81ED031A07E003680B6073
:1015900043684B6083688B60C368CB607047000012
:1015A0000000000000007D43034880ED000AC0ED0C
:1015B000010A80ED021A70473C3301209FED060AB4
:1015C00080ED000A9FED040A80ED020A9FED020AF9
:1015D00080ED010A70470000000000000A784B7897
:1015E00042EA0322C2F30A0202800288A2F5806264
:1015F00012B202804A78D2108B7842EA4312C2F3C8
:101600000A0242804288A2F5806212B242808A7841
:101610009211CB7842EA83020B7942EA8322C2F329
:101620000A0282808288A2F5806212B282800A79E0
:1016300052104B7942EAC312C2F30A02C280C28836
:10164000A2F5806212B2C2804A7912119208027227
:101650004A79C2F3011242728A79CB7942EA0322B3
:1016600012B242810A7A4B7A42EA032213B2838190
:101670008A7ACB7A42EA032213B2C3810B7B0374CA
:101680004B7B43748A7BCB7B42EA03228282704786
:101690000246094B9A4201D2084801E00648103838
:1016A00001F000531BB1064B0B40C36002E0044B3A
:1016B0000B408360704700001064024000600240ED
:1016C0007D0F7D0F21B1026842F00102026003E04C
:1016D000026822F0010202607047014600200A6899
:1016E00002F001020AB1012000E000207047000072
:1016F00010B500220268134B1A40CC680B682343D4
:101700004C6923438C692343CC6923430C6A2343EC
:101710004C6A23438C6A23434C6B23438C6B2343D7
:101720001A430260426922F00702D1E90B342343D5
:101730001A4342610B6943604B6883608B68C360E6
:1017400010BD00003F801CF04160704710B502A042
:10175000FEF7FAFD10BD000044656275674D6F6EBF
:101760005F48616E646C65720000000070B50446ED
:101770006FF0040001F0C8FCE11704EB5171C1F3F4
:10178000C7010D4A1170E11704EB5171CD104FF4F0
:101790007A7045430120094908804FF0E020006934
:1017A00040F002004FF0E021086108464561006901
:1017B00040F00100086170BD8C0000208E00002008
:1017C00010B54FF4807000F019F848B14FF48070F4
:1017D00000F008F84FF4807000F00AF800F0F8FE0E
:1017E00010BD00000149086070470000143C014032
:1017F0000149086070470000143C01400146002088
:10180000034A12680A400AB1012000E00020704734
:10181000143C0140002123498279002A3AD00A462B
:10182000126803689A430B461A600A1D126803681F
:101830009A430B1D1A60027911440A6803681A431F
:101840000A60184A0832126803689A43154B083335
:101850001A601A1D126803689A43124B0C331A60FF
:101860004279102A0ED11A1F126803681A430D4BD1
:1018700008331A601A1D126803681A43094B0C33A7
:101880001A600DE00749427911440A6803681A4357
:101890000A6005E0027911440A6803689A430A6005
:1018A00070470000003C014090ED020AB5EEC00A0E
:1018B000F1EE10FA02DB90ED020A03E090ED020A6D
:1018C000B1EE400AD0ED060AF5EEC00AF1EE10FACC
:1018D00002DBD0ED060A03E0D0ED060AF1EE600A65
:1018E000B4EEE00AF1EE10FA07D290ED030AD0ED63
:1018F000020A30EE600A80ED030A90ED000AD0ED96
:10190000030A30EE200A80ED040A90ED040A7047C5
:10191000416981B901214161DFED100AC0ED020A80
:10192000DFED0E0AC0ED030A80ED000A80ED010A2A
:1019300080ED040A7047D0ED000AC0ED010A80ED89
:10194000000AD0ED000A90ED011A70EEC10AC0ED58
:10195000020A4169491C416100BFEBE70000000039
:10196000F0B50A4600210023002400BF3DE0012518
:1019700005FA01F3156805EA03049C4234D10568B1
:101980004F000326BE40B543056015794E00B540B3
:101990000668354305601579012D02D01579022DB1
:1019A00016D185684F000326BE40B5438560557942
:1019B0004E00B540866835438560456801268E40F7
:1019C000B5434560456896798E40B6B2354345606B
:1019D000C5684F000326BE40B543C560D5794E00AB
:1019E000B540C6683543C560491C1029BFD3F0BD5A
:1019F000F0B5002300244D07ED0E02FA05F3CE10DA
:101A000000F1200555F826504E07F70E0F26BE4070
:101A1000B543CF1000F1200646F82750CE1000F154
:101A2000200555F8265045EA0304CE1000F12005A4
:101A300045F82640F0BD41837047018370474269F5
:101A40004A4042617047000010B52DED0A8BFE48F8
:101A5000B0F9080000EE100AB8EEC00ADFEDFB0A8C
:101A600080EE201A11EE104A204605F08DFC41EC64
:101A70001A0B9FEDF70B53EC102B05F0C5F941EC59
:101A8000190B9FEDF50B53EC102B05F01FF841ECF3
:101A9000180B04F041FFF2494860EB48B0F90A0026
:101AA00000EE100AB8EEC00ADFEDE80A80EE201A58
:101AB00011EE104A204605F067FC41EC1A0B9FED31
:101AC000E40B53EC102B05F09FF941EC190B9FED43
:101AD000E20B53EC102B04F0F9FF41EC180B04F06F
:101AE0001BFFDF498860D848B0F90C0000EE100AEF
:101AF000B8EEC00ADFEDD50A80EE201A11EE104ACA
:101B0000204605F041FC41EC1A0B9FEDD10B53EC44
:101B1000102B05F079F941EC190B9FEDCF0B53EC2D
:101B2000102B04F0D3FF41EC180B04F0F5FECC4968
:101B3000C860C549B1F9000005F04FF941EC190B37
:101B40009FEDC80B53EC102B04F0C0FF41EC180BB9
:101B500004F0E2FEC5490860BB49B1F9020005F096
:101B60003CF941EC190B9FEDBF0B53EC102B04F02B
:101B7000ADFF41EC180B04F0CFFEBD490860B2493F
:101B8000B1F9040005F029F941EC190B9FEDB50BF3
:101B900053EC102B04F09AFF41EC180B04F0BCFE40
:101BA000B4490860AE48D0ED031AB0EE611AD0ED2A
:101BB000021AF0EE610AD0ED011AB0EE610A084691
:101BC000D0ED002AAA4890ED002AA848D0ED001ACE
:101BD00000F05EFDA84890ED000AD0ED000A20EE6E
:101BE000200AA648D0ED000A90ED001A00EEC10AC6
:101BF000A348D0ED000A90ED001A00EEC10AA148FA
:101C0000D0ED000A90ED001A00EE810A10EE101AD5
:101C1000084605F0B9FB41EC1B0B974890ED000A14
:101C20009648D0ED000A20EE200A9548D0ED000A33
:101C3000944890ED001A00EE810AF0EE000A20EEC2
:101C4000200A10EE101A084605F09EFB41EC1C0B12
:101C5000B0EE4B1AF0EE6B1AB0EE4C0AF0EE6C0AD6
:101C600002F022FCB0EE40AAF0EE60AA9FED7A0BE3
:101C700053EC102B51EC1A0B05F0C6F841EC190B84
:101C80009FED730B53EC102B04F020FF41EC180B6D
:101C900004F042FE7C494860774890ED000A78489D
:101CA000D0ED000A20EE200A7448D0ED000A7548F5
:101CB00090ED001A00EEC10AF0EE000A20EE200AB4
:101CC00010EE101A084605F05FFB41EC1B0BB0EE5E
:101CD0004B0AF0EE6B0A02F0CBF8B0EE40AAF0EE41
:101CE00060AA9FED5D0B53EC102B51EC1A0B05F025
:101CF0008BF841EC190B9FED560B53EC102B04F0B5
:101D0000E5FE41EC180B04F007FE5F4908605A48F5
:101D100090ED000AD0ED000A20EE200A5748D0EDE1
:101D2000000A90ED001A00EE810A5548D0ED000A35
:101D300090ED001A00EEC10A5248D0ED000A90ED75
:101D4000001A00EEC10A10EE101A084605F01CFB3E
:101D500041EC1B0B494890ED000A4948D0ED000AC0
:101D600020EE200A4448D0ED000A464890ED001AC3
:101D700000EE810AF0EE000A20EE200A10EE101AA2
:101D8000084605F001FB41EC1C0BB0EE4B1AF0EEDF
:101D90006B1AB0EE4C0AF0EE6C0A02F085FBB0EE66
:101DA00040AAF0EE60AA9FED2C0B53EC102B51ECE7
:101DB0001A0B05F029F841EC190B9FED250B53EC9C
:101DC000102B04F083FE41EC180B04F0A5FD2E4906
:101DD0008860084690ED010AB5EEC00AF1EE10FAEF
:101DE00015DB90ED010A10EE101A084605F0CCFA4A
:101DF00041EC190B9FED180B53EC102B05F0DAF9A1
:101E000041EC180B04F088FD1F49486015E01E489E
:101E100090ED010A10EE101A084605F0B5FA41ECF3
:101E2000190B9FED0D0B53EC102B04F0A7FD41ECAB
:101E3000180B04F071FD144948601348D0ED020AF4
:101E4000B0EE600A114823E014330120333383419C
:101E50004AD8124DFB210940000000000080664076
:101E600064330120000000000000B040D0000020DA
:101E7000D4000020D8000020B0000020B4000020D2
:101E8000B8000020BC00002058330120DC000020F6
:101E9000FFF73EFD234890ED020ADFED230AB4EE82
:101EA000E00AF1EE10FA08DD90ED030ADFED1F0AFB
:101EB00030EE600A80ED030A11E01A4890ED020A44
:101EC000DFED1B0AB4EEE00AF1EE10FA07D290ED56
:101ED000030ADFED160A30EE200A80ED030A1148EE
:101EE000FFF7E2FC134880ED000A134890ED010A69
:101EF000B1EE400A0F4880ED040AD0ED040A4069B3
:101F000000EE100AB8EEC00A30EE800A094880EDF3
:101F1000040A094890ED000A064880ED060ABDEC67
:101F20000A8B10BDDC000020000096430000B44383
:101F3000000096C3BC3001205833012010B50021A9
:101F40009FED110A114800F0FBFD00219FED0E0AE4
:101F50000F4800F0F5FD00219FED0B0A0D4800F041
:101F6000EFFD00219FED080A0B4800F0E9FD01217B
:101F7000B7EE000A094800F0E3FD0021B7EE000AC1
:101F8000074800F0DDFD10BD9A999941682E0120A7
:101F9000BC2E0120A02E0120842E0120D82E01204D
:101FA000F42E012010B502A0FEF7CEF910BD0000FE
:101FB000486172644661756C745F48616E646C65FB
:101FC0007200000010B5044600200F49086000F0C0
:101FD000D9F8012000F01CF824B101200A49083189
:101FE000086003E00020084908310860012000F083
:101FF0000FF801200449086000F00AF800200349A6
:10200000C1F89C0210BD00009C8242420080424206
:1020100010B5002106E0642200BF131EA2F10102E8
:10202000FBD1491C8142F6D310BD000001200349B9
:10203000086000200249C1F8A0027047988242421D
:102040000080424270B5002400F086F80120FFF7BE
:10205000DFFF002516E000200E4908600220FFF790
:10206000D7FF01200C49C1F89C026006040E094804
:102070007838006808B1601CC4B20220FFF7C8FFBE
:10208000681CC5B2082DE6DB002002490860204626
:1020900070BD00009C824242008042422DE9F04126
:1020A00007460E461446984600F084F8FF2805D1EE
:1020B00020A0FEF749F9FF20BDE8F081384600F086
:1020C000F9F800F0CDF8FF2800D1F5E7304600F030
:1020D000F1F800F0C5F8FF2804D119A0FEF734F993
:1020E000FF20E9E700F066F8791CC8B200F0E2F8DA
:1020F00000F0B6F8FF2804D114A0FEF725F9FF2060
:10210000DAE7002508E0FFF79DFF20700020FFF7C9
:1021100059FF641C681CC5B2A8F10100A842F2DC9A
:10212000FFF790FF20700120FFF74CFF00F07EF8D2
:102130000020C1E76572726F7220370D0A0000003F
:102140006572726F7220390D0A0000006572726F3D
:10215000722032480D0A00001CB54FF40070009048
:1021600000208DF804008DF8060001208DF807008E
:1021700003208DF8050069460148FFF7F1FB1CBDFF
:10218000001402401CB54FF40070009001208DF83F
:10219000040000208DF8060001208DF807000320C0
:1021A0008DF8050069460248FFF7DAFB1CBD000008
:1021B0000014024010B5FFF7E5FF01201349086045
:1021C0001348D0F8240220B912A0FEF7BDF8FF2072
:1021D00010BD01200D4908390860FFF719FF0020E4
:1021E0000B49C1F8A40209488038006820B10CA04E
:1021F000FEF7AAF8FF20EBE70120FFF709FF002018
:1022000002490839086000BFE2E70000A4824242A8
:10221000008042426572726F722031210D0A000007
:102220006572726F722032210D0A000010B5FFF73F
:10223000A9FF0020084908600849C1F8A40201204C
:10224000FFF7E6FE012004490860FFF7E1FE0120E8
:102250000249C1F8A40210BD9C8242420080424261
:1022600010B50024FFF778FF012010490860FFF740
:10227000CFFE01200E49C1F89C02FFF7C9FE0AE01B
:10228000601C84B2322C03DDFFF7D0FFFF2010BDAD
:102290000520FFF7BDFE0548803800680028EFD113
:1022A00002490839086000BFF1E70000A4824242F9
:1022B0000080424270B50446FFF764FF00201349D6
:1022C000086000251EE004F0800020B101200F49C5
:1022D0000831086003E000200C49083108606006FE
:1022E000040E0120FFF794FE012008490860FFF763
:1022F0008FFE00200649C1F89C020120FFF788FEEE
:10230000681CC5B2082DDEDB70BD00009C82424215
:102310000080424270B506460C461546FFF74AFF5C
:10232000FF2804D116A0FEF70FF8FF2070BD30463D
:10233000FFF7C0FFFFF794FFFF2804D113A0FEF7BB
:1023400003F8FF20F2E72046FFF7B4FFFFF788FF0E
:10235000FF2804D110A0FDF7F7FFFF20E6E728468D
:10236000FFF7A8FFFFF77CFFFF2804D10DA0FDF7C2
:10237000EBFFFF20DAE7FFF759FF0020D6E7000068
:102380006572726F72203321000000006572726FF7
:102390007220340D0A0000006572726F7220350DD4
:1023A0000A0000006572726F7220360D0A0000008C
:1023B0001CB50121302000F053FD4FF40060009067
:1023C00001208DF8040000208DF8060003208DF810
:1023D000050001208DF8070069461048FFF7C0FA94
:1023E0004FF48040009001208DF8040000208DF80B
:1023F000060003208DF8050001208DF807006946CE
:102400000748FFF7ADFA4FF400610448FFF715FBEA
:102410004FF480410248FFF710FB1CBD0010024042
:102420000014024010B501221921D020FFF772FFDD
:10243000FF2800D110BD0A2002F0E6F90122382160
:10244000D020FFF767FFFF2800D1F3E70020F1E776
:1024500008B500200090FFF7E9FD01236A467521C9
:10246000D020FFF71BFE50B99DF80000702801D066
:10247000FF2008BD9DF800002549088001E0FF20ED
:10248000F7E701226B21D020FFF744FFFF2800D19E
:10249000EFE701221A21D020FFF73CFFFF2800D1EF
:1024A000E7E718221B21D020FFF734FFFF2800D1D7
:1024B000DFE710221C21D020FFF72CFFFF2800D1DE
:1024C000D7E701221D21D020FFF724FFFF2800D1EC
:1024D000CFE702223721D020FFF71CFFFF2800D1D1
:1024E000C7E700223821D020FFF714FFFF2800D1D2
:1024F000BFE700226A21D020FFF70CFFFF2800D1A0
:10250000B7E74FF4FA7002F07FF90020B1E700005E
:10251000C000002010B502E0C82002F075F9FFF7F6
:1025200097FFFF28F8D010BD00B585B001218803C2
:1025300000F0B6FC0121022000F092FC4FF4807004
:10254000039000208DF810008DF8120001208DF806
:10255000130002208DF8110003A91348FFF700FAB9
:102560000821012000F020FD4FF480700090002031
:102570008DF804000C208DF8050001208DF8060070
:102580006846FFF747F917208DF8080008208DF8F6
:10259000090000208DF80A0001208DF80B0002A828
:1025A00000F060FB05B000BD000402402DE9F041E1
:1025B00004460D4616461F463B46324629462046EF
:1025C000FFF76CFDFF2801D1BDE8F0810020FBE79B
:1025D00010B50E232C4A3B21D020FFF7E7FF2A48F5
:1025E00040782949097840EA012000B2274908804B
:1025F0002548C0782449897840EA012000B223495F
:102600004880214840792049097940EA012000B2F8
:102610001E4988801C48C0791B49897940EA0120FD
:1026200000B21A49C8801848407A1749097A40EA26
:10263000012000B21549088108460089C98908446B
:1026400000B2124908811048C07A0F49897A40EADD
:10265000012000B20D49488108464089098A084492
:1026600000B20A4948810848407B0749097B40EA93
:10267000012000B20549888108468089498A0844BA
:1026800000B20249888110BD283301201433012093
:1026900000B52DED108B81B0F0EE404AB0EE605ADF
:1026A000F0EE415AF0EE613AB0EE423AB0EE624AD4
:1026B000E94890ED000AB1EE400A20EE240AE7480E
:1026C000D0ED000A00EEC50AE548D0ED000A00EEA4
:1026D000E50AF6EE000A20EE200AF0EE40EAE148B4
:1026E00090ED000A20EE240ADC48D0ED000A00EE4E
:1026F000A50ADB48D0ED000A00EEC50AF6EE000A96
:1027000020EE200AB0EE40FAD64890ED000A20EE06
:10271000050AD148D0ED000A00EEE50AD048D0ED18
:10272000000A00EEA40AF6EE000A20EE200AF0EEFF
:1027300040FACC4890ED000A20EE250AC648D0EDBC
:10274000000A00EE850AC548D0ED000A00EEE40A52
:10275000F6EE000A20EE200A8DED000AF5EEC03AF2
:10276000F1EE10FA09D1B5EEC03AF1EE10FA04D14B
:10277000B5EEC04AF1EE10FA7DD063EEA30A43EE47
:10278000030A44EE040AB0EE600A02F09DF8F0EE8F
:10279000402A23EEA20AF0EE403A23EE220AB0EEDF
:1027A000403A24EE220AB0EE404AAE4890ED000ACC
:1027B000F0EE000A20EE20AAA74890ED000AF0EE05
:1027C000000A60EE20AAA54890ED000AF0EE000A8B
:1027D00020EE20BAA24890ED000AF0EE000A60EE6A
:1027E00020BAA04890ED000AF1EE000A20EE20CABF
:1027F000994890ED000AF1EE000A60EE208A9748B1
:1028000090ED000AF1EE000A20EE209A924890ED39
:10281000000AF2EE000A60EE20CA904890ED000A2D
:10282000F2EE000A20EE20DA8E4890ED000AD0ED9C
:10283000000A60EE20DA884890ED000AD0ED000A28
:1028400020EE206A854890ED000AD0ED000A60EE87
:10285000206A834890ED000AD0ED000A20EE20EABD
:102860002CEE260A0BEE230A0CEE060A0AEEC30A29
:10287000F0EE409A00E087E028EE8E0A0BEEE30AC5
:10288000F1EE000A6DEEA00A734890ED001A00EE1A
:10289000810A0AEE430A30EE680A0CEE860A0CEE54
:1028A000A60A08EE840AB0EE407AB1EE000A2DEED8
:1028B000800A6A48D0ED000A20EE200A0AEE230AB8
:1028C00009EE0E0A0BEEC30A30EE490A0DEE060AB7
:1028D0000DEE260A09EE040AF0EE407AB1EE000A87
:1028E00026EE000A5E48D0ED000A20EE200A0AEE2D
:1028F000E30AF1EE000A66EEA00A90ED001A00EE7F
:10290000810A0BEE430AB0EE408A69EEA90A47EE4F
:10291000070A47EEA70A48EE080AB0EE600A01F07F
:10292000D3FFF0EE402A29EEA20AF0EE409A27EEFD
:10293000220AB0EE407A27EEA20AF0EE407A28EEA4
:10294000220AB0EE408A4848D0ED000AB0EE6E0A86
:1029500000EEE90AF0EE40EAD0ED000AB0EE4F0AD0
:1029600000EEC70AB0EE40FAD0ED000AB0EE6F0AF2
:1029700000EEE70AF0EE40FA9DED000AD0ED000A05
:1029800000EEC80A8DED000A364890ED000ADFED32
:10299000370A0EEEA00A80ED000A2F4890ED000ADB
:1029A000DFED320A0FEE200A80ED000A2B4890ED91
:1029B000000ADFED2E0A0FEEA00A80ED000A28487B
:1029C000D0ED000A9DED000A9FED281A40EE010AA5
:1029D000C0ED000A2348D0ED000A90ED001A60EE29
:1029E000810A1D4890ED001AD0ED001A41EE210A2F
:1029F0001A4890ED001AD0ED001A41EE210A18484D
:102A000090ED001AD0ED001A41EE210AB0EE600AF6
:102A100001F05AFFF0EE402A124890ED000A20EE35
:102A2000220A80ED000A0C4890ED000A20EE220AEE
:102A300080ED000A094890ED000A20EE220A80EDA0
:102A4000000A074890ED000A20EE220A80ED000AF5
:102A500001B0BDEC108B00BDB4000020B800002018
:102A6000BC000020B0000020AC0000206F12033B2F
:102A700010B588B004460121402000F0F1F9012191
:102A8000202000F00DFA082209212348FEF7B0FFAC
:102A900008220E212048FEF7ABFF4FF48440069039
:102AA00002208DF81C008DF81D0000208DF81E00FE
:102AB00001208DF81F0006A91748FEF751FF029468
:102AC0000020ADF80C00ADF80E00ADF81000ADF828
:102AD00014000C20ADF8120002A9104801F030F9E2
:102AE00001210E4801F0C8F8012240F225510B489F
:102AF00001F001F947208DF8040007208DF805004A
:102B000000208DF8060001208DF8070001A800F0D4
:102B1000A9F808B010BD00000018024000140140E0
:102B200010B502A0FDF710FC10BD00004D656D4D05
:102B3000616E6167655F48616E646C65720000007C
:102B40004FF0FF32828080ED060A817200220280FF
:102B50004280C28002818281DFED040AC0ED040A56
:102B6000DFED020AC0ED050A70470000000000001A
:102B700070B52DED0E8B04460D46164620886080FC
:102B800025802681A07A002852D020886188401AAA
:102B900000B2E080B4F906002749884204DAA0892F
:102BA000401C00B2A08109E0B4F9060041F26801BE
:102BB000884203DDA089401E00B2A08194ED060A80
:102BC00010EE101A084604F0DFFB41EC190BA18946
:102BD0004FF4B47211FB02F004F0FFF841EC1B0B50
:102BE000B4F90000B4F90420801A00EE100AB8EE1F
:102BF000C00A10EE101A084604F0C6FB9FED0F0B3A
:102C000053EC102B03F062FF9FED0E0B53EC102BD7
:102C100004F0FAF853EC1B2B03F0B0FE53EC192B25
:102C200003F054FF03F078FE00EE100A84ED040A6E
:102C3000BDEC0E8B70BD000098EFFFFF00000000A0
:102C40000000C040000000000080764010B502A0E7
:102C5000FDF77AFB10BD00004E4D495F48616E6480
:102C60006C65720070B5002100230F22C4781CB37C
:102C7000174C246804F4E064C4F5E064C4F307214D
:102C8000C1F10404E3B20A4144789C40E1B2847883
:102C9000144021430C07210E0E4C05786155047831
:102CA00004F01F050124AC4005786D11AD0005F15D
:102CB000E025C5F8004109E0047804F01F0501246F
:102CC000AC40054D0678761145F8264070BD0000F1
:102CD0000CED00E000E400E080E100E00249014387
:102CE000024A1160704700000000FA050CED00E098
:102CF000014691ED051A81ED071A81ED050AC1ED36
:102D0000060A486B886391ED051AD1ED061A31EE7B
:102D1000611A81ED081A91ED001AD1ED081A21EE21
:102D2000211A81ED0A1A91ED0B1AD1ED011A91EDDC
:102D3000082A01EE821A81ED0B1A91ED0B1AD1EDE2
:102D4000041AF1EE611AB4EEE11AF1EE10FA02DDA6
:102D500091ED0B1A05E091ED041AB1EE411A81EDE7
:102D60000B1AD1ED041AB4EEE11AF1EE10FA02D208
:102D700091ED0B1A01E091ED041A81ED0B1A91ED22
:102D80000A1AD1ED0B1A31EE211AD1ED0C1A31EEDF
:102D9000211ABDEEC11A81ED0D1A91ED0D1AB8EE92
:102DA000C11AD1ED031AF1EE611AB4EEE11AF1EE97
:102DB00010FA02DD91ED0D1A07E091ED031AB1EE64
:102DC000411ABDEEC11A81ED0D1AB8EEC11AD1ED4E
:102DD000031AB4EEE11AF1EE10FA04D291ED0D1AD5
:102DE000B8EEC11A01E091ED031ABDEEC11A81EDF2
:102DF0000D1A91ED081A81ED091A486B7047000011
:102E000080ED000AC0ED010A80ED021AC0ED031A40
:102E100080ED042ADFED112AC0ED052ADFED0F2A2F
:102E2000C0ED072ADFED0D2AC0ED062ADFED0B2AE3
:102E3000C0ED082ADFED092AC0ED092ADFED072AD7
:102E4000C0ED0A2ADFED052AC0ED0B2ADFED032ACB
:102E5000C0ED0C2A0021416381637047000000002F
:102E600029B1064A12680243044B1A6004E0034A7F
:102E700012688243014B1A607047000030380240EC
:102E800029B1064A12680243044B1A6004E0034A5F
:102E900012688243014B1A607047000040380240BC
:102EA00029B1064A12680243044B1A6004E0034A3F
:102EB00012688243014B1A60704700004438024098
:102EC000F0B5002100220024022500260223324F03
:102ED0003F6807F00C0121B1042905D0082937D13A
:102EE00005E02E4F076036E02D4F076033E02A4F94
:102EF0003F1F3F68C7F38056274F3F1F3F6807F0CB
:102F00003F036EB1264FB7FBF3F7DFF88CC0ACF18F
:102F1000040CDCF800C0CCF3881C07FB0CF40CE0BC
:102F20001E4FB7FBF3F7DFF870C0ACF1040CDCF810
:102F300000C0CCF3881C07FB0CF4174F3F1F3F6801
:102F4000C7F301477F1C7D00B4FBF5F7076002E083
:102F5000124F076000BF00BF0F4F3F6807F0F0013E
:102F60000909104F7A5C0768D74047600A4F3F68ED
:102F700007F4E051890A0B4F7A5C4768D7408760B5
:102F8000054F3F6807F46041490B064F7A5C47687C
:102F9000D740C760F0BD0000083802400024F400AC
:102FA000001BB7000000002030B500228B071C0F6B
:102FB0000F2303FA04F20B4B8C1053F82430934385
:102FC000084C8D1044F8253023468C1053F82430DB
:102FD0008C07240F00FA04F42343024C8D1044F8AC
:102FE000253030BD083801400CB50020019000901C
:102FF0004148006840F480303F49086000BF3E48C7
:10300000006800F4003000900198401C0190009886
:1030100018B90198B0F5A04FF1D13748006800F415
:10302000003010B10120009001E0002000900098D5
:10303000012860D130484030006840F080502E496F
:10304000403108602D48006840F440402B4908603A
:103050002948083000682849083108600846006897
:1030600040F4004008600846006840F4A050086042
:103070002348091F0860081F006840F08070091F7E
:10308000086000BF1C48006800F000700028F9D0FC
:103090001A48006840F480301849086000BF17489B
:1030A000406800F480300028F9D01448006840F4EB
:1030B00000301249086000BF1048406800F400303A
:1030C0000028F9D040F205700E4908600A4808301F
:1030D000006820F0030008490831086008460068CD
:1030E00040F00200086000BF03480830006800F0AC
:1030F0000C000828F8D10CBD0038024000700040D8
:103100000C5A4007003C0240042808D14FF0E0214F
:10311000096941F004014FF0E022116107E04FF02E
:10312000E021096921F004014FF0E02211617047AC
:1031300010B503F08BF9012801D002F04DFE10BD4F
:1031400010B51548006840F4700013490860134832
:10315000006840F001001149086000200F49083163
:1031600008600E4800680E4908400C4908600D4888
:10317000091D0860081F006820F48020091F0860EE
:10318000002006490C310860FFF72EFF4FF0006069
:1031900001498039086010BD88ED00E00038024028
:1031A000FFFFF6FE1030002410B50121880700F063
:1031B0002FF860B106480068401C054908600121ED
:1031C000880700F016F80121880700F00FF810BDFD
:1031D0009000002021B1028842F08002028004E0C9
:1031E00002884FF67F731A4002807047CA430282FA
:1031F0007047CA430282704721B1028842F001023F
:10320000028004E002884FF6FE731A400280704785
:1032100030B50246002000230024158A05EA010388
:10322000958905EA010413B10CB1012000E00020EA
:1032300030BD1AB183890B43838102E083898B43BC
:103240008381704770B5002400220023058C4FF65F
:10325000FE7635400584028C8388048B4FF68F758B
:103260002C40B51E2C400D882C43751E2A408D899C
:103270002A434D882A43104DA84202D00F4DA84240
:1032800013D14FF6F7752A40CD892A434FF6FB75C7
:103290002A408D882A434FF6FF652B404FF6FF5595
:1032A0002B400D8A2B434D8A2B43838004838D68EA
:1032B0004563028470BD000000000140000401402D
:1032C0000A460021018B4FF6F77319401143018321
:1032D0007047000000220288184B98420ED0184B0D
:1032E00098420BD0B0F1804F08D0164B984205D0D1
:1032F000154B984202D0154B984204D14FF68F736C
:103300001A404B881A43124B984207D0114B9842EF
:1033100004D04FF6FF431A400B891A4302804B68D2
:10332000C3620B880385054B984202D0044B984238
:1033300001D18B7A0386012383827047000001400C
:10334000000401400004004000080040000C004060
:1033500000100040001400404F4890ED011A31EE7B
:10336000001A4E4880ED001A4D4890ED041A4A4864
:1033700080ED001A494890ED001AF3EE0E1AB4EEF3
:10338000E11AF1EE10FA02DDB3EE0E1A02E0434844
:1033900090ED001A404880ED011A404890ED001A67
:1033A000FBEE091AB4EEE11AF1EE10FA03DD3A4829
:1033B00090ED011A01E0BBEE091A374880ED011AC1
:1033C000B7EE001AF4EEC10AF1EE10FA04DDB7EE22
:1033D000001AF0EE410A0AE0BFEE001AF4EEC10A4C
:1033E000F1EE10FA03D2BFEE001AF0EE410A2D48BA
:1033F00090ED011A31EE201A2B4880ED001A284872
:1034000090ED001A2948D0ED001A31EEC11ADFED17
:10341000281AB4EEE11AF1EE10FA05DD20488068B2
:10342000401C1F49886013E01D4890ED001A1F489A
:10343000D0ED001A31EEC11ADFED1E1AB4EEE11A1A
:10344000F1EE10FA04D216488068401E14498860D4
:10345000134890ED001A154880ED001A1048D0ED81
:10346000001A80684FF4B471484301EE100AB8EEB8
:10347000C11A31EE811A0A4880ED031A90ED031A41
:10348000B1EE411A074880ED001A074890ED001A86
:10349000044880ED011A7047102F0120040100201C
:1034A000BC3001201C2F0120080100200C0100204D
:1034B00000003443000034C308B502F0D7FF009089
:1034C00008E04FF480410448FEF7B9FAFA21684653
:1034D00002F092F9F5E70000001402402DED0A8B8E
:1034E00088B002F0C3FF07909FEDA80AB0EE408AB3
:1034F00000249FEDA72ADFEDA71A9FEDA71ADFEDA5
:10350000A70AB2EE0C0AA648FFF77AFC9FEDA02AA4
:10351000DFEDA01A9FEDA01ADFEDA00AB2EE0C0AB3
:10352000A048FFF76DFC9FED9A2ADFED9A1A9FEDF8
:103530009A1ADFED9A0AB2EE0C0A9B48FFF760FC7C
:103540009FED932ADFED931A9FED931ADFED930A17
:10355000B2EE0C0A9548FFF753FC9FED8F2ADFED82
:10356000941A9FED8D1ADFED8C0AB0EE000A914897
:10357000FFF746FC9FED882ADFED8F1A9FED861A34
:10358000DFED850A9FED8D0A8D48FFF739FCFBE0E2
:103590008C48008841F6583188427CDD8A4890ED9D
:1035A000040AF0EE080AB4EEE00AF1EE10FA0AD2CC
:1035B00090ED040AF8EE080AB4EEE00AF1EE10FA13
:1035C00001DD00241EE0804890ED040AF0EE400A80
:1035D0009FED710A7748FFF78BFB7B48B0F9060037
:1035E00001EE100AB8EEC11AF0EE410A714890EDF2
:1035F0000D1AB8EEC11AB0EE410A7148FFF778FB18
:103600006F48446B604203F0E8FB41EC1C0B9FEDFC
:103610006F0B53EC102B03F059FA41EC1B0B9FED91
:103620006D0B53EC102B03F0EFFB41EC1A0B03F086
:1036300073F908EE900A6948B0F9060000EE100A26
:10364000B8EEC00A10EE101A084603F09DFE41ECD9
:103650001B0B9FED5E0B53EC102B03F037FA41EC84
:103660001A0B03F059F909EE100A5C48B0F904008E
:10367000404200EE100AB8EEC00A10EE101A0846DA
:1036800003F082FE41EC1B0B9FED500B53EC102B13
:1036900003F01CFA00E073E041EC1A0B03F03CF974
:1036A00009EE900AB0EE681AF0EE490AB0EE690A27
:1036B000FDF77AFF03A8FDF71FFE4948B0F908009F
:1036C00001EE100AB8EEC11A21EE081AF0EE410A16
:1036D0009DED031AB8EEC11AB0EE410A3048FFF76B
:1036E00007FB4048B0F9080001EE100AB8EEC11A15
:1036F00021EE081AF0EE410A9DED041AB8EEC11A47
:10370000B0EE410A2748FFF7F3FA3748B0F908004E
:1037100001EE100AB8EEC11A21EE081AF0EE410AC5
:103720009DED051AB8EEC11AB0EE410A1E48FFF72A
:10373000DFFA2E48B0F9080001EE100AB8EEC11AFF
:1037400021EE081AF0EE410A9DED061AB8EEC11AF4
:10375000B0EE410A1548FFF7CBFA1448808E00B24C
:103760001149898E09B2CDE900100E48808E03B24E
:103770000B48808E02B24FF400711D48FDF776FDB4
:103780000A2107A802F038F802E700007A5B563DEC
:103790000080094500808945000000008FC2F53D8A
:1037A000AC310120E83101202432012060320120B7
:1037B0000000FA431830012000002544CDCCCC3E57
:1037C0005430012094000020D82E01200000000079
:1037D00000A084400000000000003940A430012017
:1037E000682E0120BC2E0120A02E0120842E012055
:1037F000006400402DED028B84B002F037FE039090
:1038000023206F49C8816FF0080008826FF0130011
:10381000488200206B49486048619FED6B2ADFEDCC
:103820006B1A9FED691ADFED680AB1EE0C0A684861
:10383000FFF7E6FA9FED642ADFED661A9FED621A44
:10384000DFED610AB2EE0E0A6348FFF7D9FA9FED89
:103850005E2ADFED5E1A9FED5C1ADFED5B0AB2EEC9
:10386000000A5E48FFF7CCFA9FED572ADFED591AA0
:103870009FED551ADFED540A9FED590A5948FFF79D
:10388000BFFA4FF42A60584988805848FDF796FEE1
:103890005748FDF793FE91E05648008841F65831AD
:1038A00088427DDD4648B0F9080000EE100AB8EE07
:1038B000C00ADFED510A80EE201A4C4880ED021A52
:1038C0003F48B0F90C0000EE100AB8EEC00ADFED78
:1038D0004A0A80EE201A464880ED021A4748B0F99D
:1038E000000000EE100AB8EEC00ADFED450A80EED7
:1038F000201AB0EE418A4148B0F9020000EE100AE9
:10390000B8EEC00ADFED3F0A80EE201AF0EE418AE1
:10391000F0EE480AB0EE680AFFF71EFD3748007A5D
:10392000012847D1324890ED001AF0EE410A90ED9F
:10393000011AB0EE410A2648FFF7DAF92C4890ED5B
:10394000021AF0EE410A224890ED0D1AB8EEC11AA3
:10395000B0EE410A2048FFF7CBF9244890ED001A59
:10396000F0EE410A90ED011AB0EE410A1B48FFF754
:10397000BFF91E4890ED021AF0EE410A1748406B5D
:10398000404201EE100AB8EEC11AB0EE410A1548E5
:10399000FFF7AEF90020009001901248808E00E001
:1039A00008E003B20C48808E02B240F2FF111648C4
:1039B000FDF75CFC052103A801F01EFF6CE7000089
:1039C00014330120BC3001200000000000007A44C4
:1039D000282F012000803B45642F0120A02F0120CB
:1039E00033336B41DC2F0120D82E0120102F012012
:1039F0001C2F01209400002033338341A430012088
:103A00000080F74400E0AB450064004008B502F0D8
:103A10002DFD009000200A49088010E00848008829
:103A200041F65831884204DC05480088401C0449AE
:103A30000880FEF709F80321684601F0DDFEEDE796
:103A4000940000201CB512E00948407A02280BD1EE
:103A500000200090034602464FF400710190054893
:103A6000FDF704FC02F0ACF8642001F097FEEBE7F0
:103A7000A4300120006400401CB5044601F074FD30
:103A8000FEF75CFAFCF798FEFCF7E0FDFDF772F834
:103A9000FCF75EFEFCF7EAFFFCF780FFFEF744FD53
:103AA000FEF738FDFEF7BEFC0020052103464FF46B
:103AB000C872CDE900101BA11E4802F097FC00203F
:103AC000072103464FF4FA72CDE900101AA11E48EF
:103AD00002F08CFC0020032103464FF4C872CDE9AC
:103AE00000101AA11C4802F081FC002003210346AB
:103AF0004FF4C872CDE9001018A11C4802F076FC02
:103B00000020042103464FF44872CDE9001018A1AB
:103B10001A4802F06BFC002001F0D8FE01F04EFDC7
:103B20001CBD00005461736B5F4779726F73636FE4
:103B3000706500000D3A00085461736B5F53616655
:103B4000655F4D6F64650000453A00085461736B12
:103B50005F426C696E6B0000B93400085461736B8E
:103B60005F4368617373697300000000DD3400080F
:103B70005461736B5F436C6F75640000F537000828
:103B800010B513488088C4B211480088C4B200211F
:103B90001048FDF797FD0F48001D0068012803D16C
:103BA0000D490E48FDF71AFD0D490A48FDF770FD55
:103BB00000BF0848FDF791FD0028FAD11321054800
:103BC000FDF7C2FD01210348FDF77CFD10BD00009B
:103BD000001001404064024090300120A4300120D8
:103BE0000000301010B540F225511F4800F059F880
:103BF00040B11D4800F00EF9C4B24FF400611B48FB
:103C0000FDF71DFF1A48008800F4004058BB184813
:103C1000008800F4804060B10A2C03D000201449D1
:103C2000088020E01248008840F4004010490880D5
:103C300019E00D2C06D10E48008840F480400C4954
:103C4000088010E00A480088C0F30D0009490C54B0
:103C500007480088401C0649088008460088C72895
:103C600001DD0020088010BD00140140001002405A
:103C700096000020D830012021B1828942F4005200
:103C8000828104E082894DF6FF731A408281704779
:103C90001AB1838A0B43838202E0838A8B43838237
:103CA000704770B50246002400230025002040F62E
:103CB0006A16B14200D100BFC1F3421501F01F03E3
:103CC000012606FA03F3012D02D19689334006E05E
:103CD000022D02D1168A334001E0968A33400C123D
:103CE000012606FA04F41688344013B10CB1012001
:103CF00000E0002070BDF0B503460024002600253A
:103D0000002040F66A17B94200D100BF1846C1F33F
:103D1000421401F01F06012707FA06F5012C01D114
:103D20000C3004E0022C01D1103000E014301AB144
:103D300007682F43076002E00768AF430760F0BDE4
:103D40002DE9FF4705460E460024A14600BFA046C8
:103D5000B08900B100BF2C8A24F44054F088044399
:103D60002C82AC8941F20C608443B08831890843CD
:103D7000718908430443AC81AC8A24F44074B0894F
:103D80000443AC826846FFF79BF82048854202D086
:103D90001F48854202D1DDF80C9001E0DDF8089063
:103DA000A88900F4004040B109EBC90000EB0910FC
:103DB00031684900B0FBF1F707E009EBC90000EBFF
:103DC000091031688900B0FBF1F76420B7FBF0F00F
:103DD00004012009642101FB1078A88900F4004047
:103DE00040B1322000EBC800B0FBF1F000F007005A
:103DF000044308E0322000EB08106421B0FBF1F02E
:103E000000F00F0004432C81BDE8FF870010014043
:103E10000014014001468888C0F308007047000084
:103E200010B502A0FCF790FA10BD00005573616751
:103E3000654661756C745F48616E646C6572000004
:103E400003B401984100009850EAC12018BF042033
:103E50004A0D18BF40F0010040F2FF72B2EB515F13
:103E600008BF40F00200012808BF052002B07047DB
:103E700070B5C1482DED020B2DED0E8B82B0119D5A
:103E800025F000449FEDBEDB9FEDBFEB84423EDB9F
:103E9000A4F140511098A1F17F6108430FD0BC48B4
:103EA000844202DC28D1109830B39DED100B02B093
:103EB000BDEC0E8B02B0BDE8704000F069BC9DED1A
:103EC000100B53EC1D2B51EC100B02F09DFF9DEDE0
:103ED000100B41EC180B53EC1E2B51EC100B02F0A5
:103EE00093FF53EC182B02F049FD41EC100B02B08C
:103EF000BDEC0E8B02B070BD0120FCF7E1FA02B000
:103F0000BDEC0E8B02B0BDE8704000F055BCA1487E
:103F10009FEDA18B844256DA9DED100BB4F1795FD1
:103F20000ADA51EC100BFFF78BFF042808BF00F0F2
:103F300053FC9DED100BDAE753EC102B51EC100BFA
:103F400002F062FF41EC190B95480621B0EE490AD8
:103F5000F0EE690A784400F09FFB53EC192B51EC0A
:103F6000100B02F051FF41EC1A0B8E48B0EE490ADB
:103F7000F0EE690A0421784400F08EFB53EC192B13
:103F800051EC100B02F040FF53EC182B02F0F6FC42
:103F900041EC100B51EC1A0B53EC102B02F096FD78
:103FA000CDE900019DED000B53EC102B9DED100BA6
:103FB00051EC100B02F028FF9DED101B53EC112B60
:103FC00002F0DCFCD2E09DED100B51EC100B00F088
:103FD00061FC53EC182B03F015F89FED730BCDE942
:103FE000000153EC102B9DED000B51EC100B02F077
:103FF0000BFF41EC190B6E480621B0EE490AF0EEBA
:10400000690A784400F048FB53EC192B51EC100B73
:1040100002F0FAFE41EC1B0B6648B0EE490AF0EEE6
:10402000690A0421784400F037FB53EC192B51EC5A
:10403000100B02F0E9FE53EC182B02F09FFC41EC50
:104040001C0B51EC190B01F00DFA41EC180B5A48FE
:104050009FED5BABA04222DC53EC1C2B51EC1B0B05
:1040600002F034FDCDE900019DED000B51EC180B81
:1040700053EC102B02F0C8FE53EC182B02F07EFC20
:1040800053EC1A2B02F0C0FE53EC1D2B03F092F8F8
:1040900053EC1E2B02F0B6FF41EC100B5FE08DEDF0
:1040A000008B002000909DED000B51EC180B53ECA1
:1040B000102B02F063FC9DED000B41EC1E0B53EC4A
:1040C000102B51EC100B02F09FFE53EC192B02F059
:1040D00099FF53EC1E2B02F0F9FC41EC190B53EC49
:1040E0001C2B51EC1B0B02F0F1FC41EC1B0B53ECB5
:1040F0001A2B51EC190B02F087FE53EC1D2B02F02A
:1041000081FF41EC190B53EC1A2B51EC180B02F008
:104110007BFE53EC1B2B02F077FE53EC192B03F0C4
:1041200049F89DED000B41EC180B53EC1A2B51ECA8
:10413000100B02F069FE9FED249B53EC192B02F04B
:1041400061FF41EC100B51EC180B53EC102B03F0FA
:1041500031F853EC192B02F055FF41EC100B002DF8
:104160003FF7C5AE51EC100B02F0CAFB41EC100B4F
:10417000BDE60000000000000000F03F000000006D
:10418000075C143326A6913C182D4454FB21F93FBB
:104190000000F07F0000E03F000000000000F03F62
:1041A0002835000036350000000000000000E03F28
:1041B0007A340000883400003333EF3F0000000001
:1041C0000000000000000040182D4454FB21E93F8E
:1041D00070B59B482DED020B2DED068B079D25F04C
:1041E0000044A04218DC9748844202DC0AD10698B9
:1041F00040B19DED060BBDEC068B02B0BDE87040F2
:1042000000F0C6BA002DCCBF9FED8F0B9FED900B39
:10421000BDEC068B02B070BD8F48A04215DD8F4803
:10422000A042D8BF4FF0FF3458DD9DED060B51EC96
:10423000100BFFF705FE042808BF00F0CDFA9DED36
:10424000060BBDEC068B02B070BD9DED060B51EC6C
:10425000100B00F01FFBCDE9060181489FED828B1A
:10426000A0423CDD8248A0421FDD00249FED82ABCE
:104270009DED060B53EC1A2B51EC100B02F07EFB5C
:104280009DED060B41EC190B53EC1A2B51EC100B66
:1042900002F0BAFD53EC182B02F08CFF53EC192BF3
:1042A00002F014FCCDE9060149E09DED060B012466
:1042B00053EC182B51EC100B02F060FB9DED060B3C
:1042C00041EC190B53EC182B51EC100B02F072FF60
:1042D00053EC192B02F0FAFBCDE906012FE06848F8
:1042E000A0421FDD02249FED689B9DED060B53EC61
:1042F000192B51EC100B02F087FD53EC182B02F038
:104300003DFB9DED060B41EC180B53EC192B51ECCA
:10431000100B02F04FFF53EC182B02F0D7FBCDE946
:1043200006010CE09DED060B032453EC102B9FEDD2
:10433000580B51EC100B02F0C9FBCDE906019DEDC5
:10434000060B53EC102B51EC100B02F05DFD41EC11
:10435000180B53EC182B02F057FD41EC190B4E488B
:104360000621B0EE490AF0EE690A784400F094F9AB
:1043700053EC182B51EC100B02F046FD41EC180BDE
:104380004648B0EE490AF0EE690A0521784400F08B
:1043900083F953EC192B51EC100B02F035FD41EC75
:1043A000100B51EC180B53EC102B002C0EDA02F012
:1043B000E5FA9DED061B53EC112B02F025FD9DED5A
:1043C000061B53EC112B02F01DFE35E002F0D6FA6D
:1043D0009DED061B53EC112B02F016FD41EC100B6A
:1043E0002F48784400EBC40090ED001B51EC100BFB
:1043F00053EC112B02F0DEFE9DED061B53EC112B4E
:1044000002F0D8FE41EC100B2648784400EBC400C3
:1044100090ED001B51EC100B53EC112B02F0F2FD50
:1044200041EC100B002DA2BFBDEC068B02B070BD9D
:1044300051EC100B02F064FA41EC100B01E70000A4
:10444000000010440000F07F182D4454FB21F93F78
:10445000182D4454FB21F9BF0000DC3F0000203E32
:104460000000F33F00000000000000000000F03FEB
:104470000000E63F000000000000000000000040D7
:104480000080034000000000000000000000F83F32
:10449000000000000000F0BFCA31000080310000C1
:1044A0000A310000C230000070B56B4E2DED040BD8
:1044B0002DED028B82B0DDF81CC0DDE905235C42E6
:1044C0002CF000411C4341EAD474049D22F00040CA
:1044D000B44205D86C422C4340EAD474B4420BD9A0
:1044E0009DED061B9DED040B02B0BDEC028B04B0EC
:1044F000BDE8704000F056B9ACF14054A4F17F64BF
:104500001C430BD0022404EAAC7444EAD274054381
:104510009FED538B9FED542B07D015E09DED040BC1
:1045200051EC100B00F068F942E0002C11BF012C97
:104530009DED040B02B0BDEC028B04BF04B070BD56
:10454000022C38D0032C3BD00B439FED491B9FED31
:104550004A0B0AD0B14218D1B04209D121F08041B2
:1045600020F08040079105900FE0002A15DA10E056
:10457000434B7B44002C08BF93ED000B0DD0012C66
:1045800010D0022C17D0032C1AD0B0421DD1002A13
:1045900003DAB0EE410AF0EE610A02B0BDEC028B24
:1045A00004B070BD93ED000B51EC100B02F0A8F9B4
:1045B00041EC100BF1E7B0EE480AF0EE680AECE7C8
:1045C000B0EE420AF0EE620AE7E7401A00153C2816
:1045D000C8BF8DED000B19DCBCF1000FBEBF10F1A0
:1045E0003C0F9FED290B8DED000B0FDB9DED060BB6
:1045F00053EC102B9DED040B51EC100B02F066FAFE
:1046000000F048F900F0F8F8CDE90001002C08BFEF
:104610009DED000BC1D0012C10D0022C9FED1C0B86
:1046200053EC102B9DED000B51EC100B0DD002F054
:10463000C1FD53EC182B02F0BDFDB9E7019880F0E5
:10464000004001909DED000BA7E702F0B3FD53EC95
:10465000182B02F0D7FCABE70000F07F0000000051
:10466000182D4454FB210940182D4454FB2109C046
:10467000182D4454FB21F9BF182D4454FB21F93F58
:10468000F22F000000000000000000000000000009
:10469000075C143326A6A13C70B504462DED028BB1
:1046A0004D1E00EBC500B0EE408AF0EE608A90ED42
:1046B000000B35F0060017D053EC182B51EC100B03
:1046C00002F0A2FB41EC100B6D1E04EBC50090ED57
:1046D000001B51EC100B53EC112B02F04FF941EC85
:1046E000100B35F00600E7D1022D36D0042D1CD07A
:1046F000062D1CBFBDEC028B70BD53EC182B51EC8A
:10470000100B02F081FB94ED0A1B53EC112B02F00D
:1047100035F953EC182B02F077FB94ED081B53ECA2
:10472000112B02F02BF941EC100B53EC182B51EC30
:10473000100B02F069FB94ED061B53EC112B02F0F9
:104740001DF953EC182B02F05FFB94ED040B53ECB6
:10475000102B02F013F941EC100B53EC182B51EC19
:10476000100B02F051FB94ED021B53EC112B02F0E5
:1047700005F953EC182B02F047FB94ED001B53ECAA
:10478000112B02F0FBF8BDEC028B41EC100B70BD5D
:1047900010B553EC102B51EC100B02F0EFF841EC7C
:1047A000100B10BD10B553EC112B51EC100B02F097
:1047B000E5F841EC100B10BD9FED050B10B553EC67
:1047C000102B51EC100B02F081F941EC100B10BDD5
:1047D00000000000000000009FED050B10B553EC39
:1047E000102B51EC100B02F00FFB41EC100B10BD25
:1047F000000000000000001010B541EC100BFFF7A6
:10480000E7FC51EC100B10BD70B5044601F01EFE24
:10481000012811D00C480088844206DB0A48008831
:1048200094FBF0F5284600F0B9FF0748008894FB98
:10483000F0F100FB114084B24FF47A7104FB01F0F7
:1048400000F004F870BD00008E00002070B5034633
:1048500000224FF0E02675690D4E367803FB06F412
:104860004FF0E026B16910E04FF0E026B0698842D1
:104870000BD0884202D20E1A324402E02E1A0E44A5
:1048800032440146A24200D300E0EDE700BF70BD14
:104890008C00002082B0CDE9000121F000400190A1
:1048A0009DED000B02B051EC100B704700BF054AA4
:1048B000128802F04002002AF9D0C2B2014B1B1D3F
:1048C0001A80704700140140F0EE400AF6EE001A1C
:1048D00060EEA11AB0EE611AB0EE600A10EE100A96
:1048E0000749A1EB600000EE100A21EE002AF7EE66
:1048F000081A42EE401A61EE801AB0EE610A704763
:10490000DF59375F1CB54FF44070FEF7E7F9B4206C
:10491000FCF72CFFFDF74CFDFCF752F94FF4165055
:10492000FEF7A6F80020012103464FF4C872CDE936
:10493000001004A1074801F059FD01F0F3F800BF91
:10494000FEE700005461736B5F5379735F496E69D2
:1049500074000000793A00082DE9F04105460E4642
:104960001C4807681C480068001D00F0B2FD50B9E3
:104970001948006890F82C100120884017490968F0
:10498000814316480160681C38B936B11248016885
:10499000091D134800F0DBFD1AE07C190E48006881
:1049A0004460BC4207D20C480168091D0D480068EC
:1049B00000F0B3FD0CE008480168091D0A480068D2
:1049C00000F0ABFD09480068844201D2074804604A
:1049D000BDE8F08124000020100000202800002005
:1049E0002C020020180000201400002040000020AD
:1049F00010B5044600F0B8FD24480068401C234967
:104A000008602348006840B92148046008460068EF
:104A100001280DD100F0DEF90AE01E48006838B91F
:104A20001B480068C06AE16A884201D818480460DF
:104A300019480068401C184908600846006860640E
:104A400094F82C1001208840144909680843134940
:104A50000860E16A01EB8101114A02EB8100211D2E
:104A600000F075FD00F0AAFD0A48006868B108482A
:104A70000068C06AE16A884207D24FF08050094955
:104A80000860BFF34F8FBFF36F8F10BD2000002071
:104A9000100000202C0000203C00002028000020F6
:104AA0005001002004ED00E010B500F05DFD10485D
:104AB0000068D0B90F4800F020FD0F4800F01DFD40
:104AC0000C480E4908600C480D49086000220C2172
:104AD0000A2001F09BF9064908600846006820B1E9
:104AE00008A10348006800F01DFE00F067FD10BD3E
:104AF0005C000020400200205402002054000020EE
:104B000058000020546D72510000000070B523E081
:104B100001F056F81348006808B9012000E00020B1
:104B2000054601F0FDFDBDB900F01EFD0D48C06851
:104B3000C468201D00F0CDFC0B480068401E0A49E7
:104B400008600A480068401E0849086000F036FD09
:104B5000204600F060F800BF044800680028D7D164
:104B600070BD000018020020200000201C00002062
:104B700070B504460D46206C70B1216CE0680844A5
:104B8000E0606168E068884201D32068E060284600
:104B9000226CE168FBF718FC70BD2DE9F04104467A
:104BA0000F4615464FF00008A66B206C40B92068F0
:104BB00060BB606801F004FD80460020606025E075
:104BC0007DB93946226CA068FBF7FEFB216CA0681A
:104BD0000844A060D4E90110884217D32068A0607F
:104BE00014E03946226CE068FBF7EEFB216CE068CC
:104BF000401AE0602168E068884203D2216C606856
:104C0000401AE060022D01D106B1761E701CA0632F
:104C10004046BDE8F08110B50446206B00F0ECFC86
:104C2000204600F0E9FC10BD0146084A12681268EF
:104C30000AB9012200E000220A600A6822B9034A88
:104C40001268D268106800E000207047540000200D
:104C500030B54FF49633174800F007042CB1C01D4F
:104C600020F00700134C041B1B1B0246124C226051
:104C70000024114D6C60D018083820F007000F4C4C
:104C8000206000240D4D2D686C600C4D2D682C604B
:104C90001146441A4C60094C24680C60084D4C685D
:104CA0002C60084D4C682C604FF00044064D2C6081
:104CB00030BD000068020020680000207000002065
:104CC00078000020740000207C00002000BFFFF767
:104CD0001DFF064800680128F9D94FF080500449AB
:104CE0000860BFF34F8FBFF36F8FF0E750010020D4
:104CF00004ED00E02DE9F04106460D4617469846C2
:104D0000069C0DB9246000E02760E663256401215C
:104D1000204601F089F984F84C80BDE8F0812DE946
:104D2000F05F82460F4690469B460A9E0C9C4FEAD7
:104D30008801A522206BFBF78CFBA8F10100216BF9
:104D400001EB800929F0070909F0070008B90120E3
:104D500000E0002050B900BF502080F31188BFF35D
:104D60004F8FBFF36F8F00BF00BFFEE7002507E046
:104D7000795D04F134004155785D00B902E06D1CA5
:104D8000102DF5D300BF002143200155072E00D37D
:104D90000626E662E66400202065201D00F0BAFBCE
:104DA00004F1180000F0B6FB2461C6F10700A06111
:104DB000646200206065A06584F85C005A46514634
:104DC000484600F039FB20600B9808B10B9804604E
:104DD000BDE8F09F10B5002407E004EB84010F4A02
:104DE00002EB810000F089FB641C072CF5D30C4812
:104DF00000F083FB0B4800F080FB0B4800F07DFBCC
:104E00000A4800F07AFB0A4800F077FB0448094999
:104E1000086004480849086010BD000050010020E7
:104E2000DC010020F0010020040200201802002014
:104E30002C020020140000201800002010B50146AC
:104E4000164800E0006803688B42FBD302464368C3
:104E500013448B4204D143684C68234443600146A9
:104E60000A464B6813440468A34211D10C4C0368F2
:104E70002468A34208D04B680468646823444B60EC
:104E800003681B680B6005E0054B1B680B6001E0C5
:104E900003680B60884200D0016010BD68000020EC
:104EA000700000202DE9F04104460D4616461F46CD
:104EB0004FF0000865602461B5420CD8F01BA16971
:104EC000884202D34FF0010811E0211D0948006813
:104ED00000F023FB0BE0BE4204D2BD4202D34FF0F0
:104EE000010804E0211D0448006800F016FB40465C
:104EF000BDE8F081580000205400002070B5054640
:104F000000F032FBA86B08B9012400E0002400F097
:104F100055FB204670BD70B5054600F025FBA86B1B
:104F2000E96B884201D1012400E0002400F046FB37
:104F3000204670BDF8B505460F4616480068C068A3
:104F4000C468201D00F0C5FAE06901281DD1A069E0
:104F500041192B463A462046FFF7A4FFA8B100208E
:104F600003462A4601460090204601F087FC06468B
:104F700056B900BF502080F31188BFF34F8FBFF3A5
:104F80006F8F00BF00BFFEE700BF2046616A884701
:104F9000F8BD00005400002070B586B06AE00398A8
:104FA000002867DB059C606908B9012000E000204B
:104FB00010B9201D00F08DFA02A800F0BDF80546DA
:104FC00003980A2854D2DFE800F009050731334F6F
:104FD0000608323400BF00BF00BF00BF0498A269BA
:104FE000811803462A462046FFF75CFFE8B12046B9
:104FF000616A8847E069012817D100200090049871
:10500000A169421800231946204601F037FC0646E4
:1050100056B900BF502080F31188BFF34F8FBFF304
:105020006F8F00BF00BFFEE700BF22E000BF20E09F
:1050300000BF0498A061A06908B1012000E0002031
:1050400050B900BF502080F31188BFF34F8FBFF3DA
:105050006F8F00BF00BFFEE7A06941192B462A46AB
:105060002046FFF71FFF04E0204600F0C5FA00E0ED
:1050700000BF00BF00231A4603A90448006800F0DF
:10508000F1FE00288BD106B070BD00005C0000204E
:10509000F8B505460C4600F093FD684600F04CF864
:1050A0000646009820BB44B9B54206D801F038FB4B
:1050B00031462846FFF73EFF1CE03CB10E48006831
:1050C000006808B9012000E000200446A91B224620
:1050D0000A48006800F03CFB01F022FB50B94FF099
:1050E000805007490860BFF34F8FBFF36F8F01E017
:1050F00001F016FBF8BD0000580000205C00002005
:1051000004ED00E00A490968096809B9012100E0D5
:10511000002121B14FF0FF31064A116006E0044939
:105120000968C968C868034A41681160704700008F
:10513000140000204000002070B5044601F096F9EC
:10514000054607480068854204D200F00BF80120AC
:10515000206001E00020206001480560284670BD05
:10516000640000202DE9F84332E024480068C0685C
:10517000056822480068C068C468201D00F0A9F9CD
:105180002046616A8847E069012821D1A069461953
:10519000AE4207D966602461211D1848006800F0FE
:1051A000BCF915E0002003462A460146009020463F
:1051B00001F064FB074657B900BF502080F3118807
:1051C000BFF34F8FBFF36F8F00BF00BFFEE700BF7D
:1051D0000A480068006808B9012000E000200028A3
:1051E000C3D00648D0F8008005480068034908602D
:1051F0000348C0F80080BDE8F88300005400002098
:10520000580000200E480068401C08B9012000E04A
:10521000002050B900BF502080F31188BFF34F8F9A
:10522000BFF36F8F00BF00BFFEE700BF502080F3C9
:105230001188BFF34F8FBFF36F8F00BF00BFFEE732
:105240008000002008B500BF6846FFF7EDFC04466B
:1052500020460099FFF71CFFFFF79EFEF4E770B5AC
:10526000044600F081F994F9455010E0606A08B9ED
:10527000012000E0002038B904F1240001F004FA14
:1052800018B100F09DFB00E003E0681E45B2002D60
:10529000ECDC00BFFF2084F8450000F08FF900F03F
:1052A00063F994F9445010E0206908B9012000E046
:1052B000002048B904F1100001F0E6F908B100F04F
:1052C0007FFB681E45B200E001E0002DECDC00BF72
:1052D000FF2084F8440000F071F970BD2DE9F04121
:1052E00004464FF0000800F06BFC4648006808B91F
:1052F000FFF7AEFC44480068204000286BD1D4B1D1
:10530000083404F00700B0B104F00700C0F1080051
:10531000044404F0070008B9012000E0002050B95F
:1053200000BF502080F31188BFF34F8FBFF36F8F02
:1053300000BF00BFFEE7002C4DD034480068844217
:1053400049D8334E3046056801E02E462D6868681E
:10535000A04202D228680028F7D12A480068854276
:1053600039D0306800F10808286830606868001B90
:10537000102819D92F1907F0070008B9012000E0FB
:10538000002050B900BF502080F31188BFF34F8F29
:10539000BFF36F8F00BF00BFFEE76868001B786037
:1053A0006C603846FFF74AFD184968680968081AB2
:1053B000164908600846006816490968884203D201
:1053C00012480068134908600F4968680968084373
:1053D00068600020286001F0A3F908F0070008B910
:1053E000012000E0002050B900BF502080F3118858
:1053F000BFF34F8FBFF36F8F00BF00BFFEE7404684
:10540000BDE8F081700000207C00002074000020C6
:1054100068000020780000200648006830B1054987
:10542000096801F15000096D491C016001480068DC
:105430007047000010000020001F4FF080730360D1
:10544000001F21F001030360001F054B03601438A7
:105450000260001F6FF002030360203870470000F5
:105460000552000800B52DED048B83B041EC190BFB
:1054700001F0D4FD41EC180B18EE100A18EE901A4A
:105480008DED008B002818BF0120084320F000405C
:10549000C0F17F6000F1E040C00F14D019EE101A87
:1054A00019EE900A8DED009B002918BF01210843D9
:1054B00020F00040C0F17F6000F1E040C00F04BF69
:1054C0000120FAF7FDFF51EC180B03B0BDEC048B83
:1054D00000BD01460A69D1E901309860D1E90103B4
:1054E00058605068884201D1886850600020086187
:1054F0001068401E10601068704700F1080141609C
:105500004FF0FF31816000F10801C16001610021AD
:105510000160704700210161704710B502460B68B9
:105520005C1C0CB9106907E002F1080000E040685B
:10553000446824689C42FAD944684C604C68A16075
:10554000886041600A611468641C146010BD426880
:105550004A6093688B609368596091600861036842
:105560005B1C03607047000000BF502080F311886F
:10557000BFF34F8FBFF36F8F00BF0E480068401C12
:105580000C49086008460068012812D10A480068E2
:10559000C0B208B9012000E0002050B900BF50207F
:1055A00080F31188BFF34F8FBFF36F8F00BF00BF31
:1055B000FEE770478000002004ED00E00D48006821
:1055C00050B900BF502080F31188BFF34F8FBFF355
:1055D0006F8F00BF00BFFEE706480068401E054908
:1055E00008600846006820B9002080F3118800BFD9
:1055F00000BF70478000002070B506463546002E7B
:105600003FD0083D2C461F4960680968084008B132
:10561000012000E0002050B900BF502080F3118825
:10562000BFF34F8FBFF36F8F00BF00BFFEE720684F
:1056300008B9012000E0002050B900BF502080F3DD
:105640001188BFF34F8FBFF36F8F00BF00BFFEE71E
:105650000C4960680968084098B1206888B9094910
:10566000606809688843606000F0AAFA06496068CB
:1056700009680844044908602046FFF7DFFB01F091
:105680004FF870BD7C0000207400002006480068C0
:105690004FF47A71B0FBF1F0401E4FF0E021486109
:1056A00007200861704700009800002070B5FAF7E5
:1056B00027FE0446102C16D304F1E02090F8F05396
:1056C00015480078854201DB012000E0002050B938
:1056D00000BF502080F31188BFF34F8FBFF36F8F4F
:1056E00000BF00BFFEE70D48006800F4E0600C4911
:1056F0000968884201D8012000E0002050B900BFAD
:10570000502080F31188BFF34F8FBFF36F8F00BF1E
:1057100000BFFEE770BD0000840000200CED00E03B
:1057200088000020024600200BE0084B53F8303080
:1057300033B9064B43F8301003EBC0035A6002E064
:10574000401C0828F1D300BF704700001001002062
:105750002DE9F04105460E4617462C46FFF704FF9B
:1057600094F94400401C10B9002084F8440094F9D6
:105770004500401C10B9002084F84500FFF71EFFCB
:10578000A06B28B93A46314604F1240000F03AF9FA
:105790002046FFF764FDBDE8F081000070B50446C7
:1057A0000025D4B11248006808B9012000E00020AB
:1057B00050B900BF502080F31188BFF34F8FBFF363
:1057C0006F8F00BF00BFFEE700F0FAF9002120460E
:1057D000FFF7C2F800F0A4FF05463DB94FF0805036
:1057E00004490860BFF34F8FBFF36F8F70BD000097
:1057F0004800002004ED00E02DE9F04704460F4684
:105800004FF0000954B900BF502080F31188BFF356
:105810004F8FBFF36F8F00BF00BFFEE70FB10120B6
:1058200000E0002050B900BF502080F31188BFF382
:105830004F8FBFF36F8F00BF00BFFEE720480068A7
:1058400008B9012000E0002050B900BF502080F3CB
:105850001188BFF34F8FBFF36F8F00BF00BFFEE70C
:1058600000F0AEF9174806682068C5192068B042F4
:1058700007D92068A8420BD9B54209D94FF00109D0
:1058800006E02068A84201D8B54201D94FF00109CD
:105890002560B9F1000F03D0A81B0021FFF75CF8C9
:1058A00000F03EFF8046B8F1000F07D14FF0805066
:1058B00005490860BFF34F8FBFF36F8FBDE8F087D6
:1058C000480000202400002004ED00E070B50546EB
:1058D000FFF74AFE15B93048006800E02846044644
:1058E000201DFFF7F6FD78B9E06A00EB80002B4938
:1058F00051F8200040B994F82C1001208840284924
:105900000968814326480160A06A18B104F11800B3
:10591000FFF7DFFD23480068401C224908601E484D
:105920000068844209D1211D1F48FFF710FE1F485F
:105930000068401C1D49086009E01D480068401EC1
:105940001B4908602046FFF766F9FFF7DBFBFFF70E
:1059500035FE18480068E8B10F480068844219D144
:105960001548006808B9012000E0002050B900BFC8
:10597000502080F31188BFF34F8FBFF36F8F00BFAC
:1059800000BFFEE74FF080500C490860BFF34F8F17
:10599000BFF36F8F70BD0000100000205001002089
:1059A000280000203C000020180200201C000020DD
:1059B000200000202C0000204800002004ED00E022
:1059C00001200149086070473400002070B504468A
:1059D0000D4654B900BF502080F31188BFF34F8F9C
:1059E000BFF36F8F00BF00BFFEE7054801681831A5
:1059F0002046FFF792FD01212846FEF7ADFF70BD5E
:105A00001000002070B505460E46144655B900BF7B
:105A1000502080F31188BFF34F8FBFF36F8F00BF0B
:105A200000BFFEE70648016818312846FFF78FFDE2
:105A30000CB14FF0FF3621463046FEF78DFF70BDAA
:105A40001000002070B505462C46002D4BD026498D
:105A5000E06A0968C96A884245D2A06900F000403E
:105A600028B921480068C06AC0F10700A061E16A56
:105A700001EB81011D4A02EB81016069884201D17D
:105A8000012000E0002050B3201DFFF722FD78B96F
:105A9000E06A00EB8000154951F8200040B994F805
:105AA0002C10012088401249096881431048016088
:105AB0000D480068C06AE06294F82C10012088400C
:105AC0000B49096808430A490860E16A01EB810152
:105AD000064A02EB8100211DFFF739FD03E0024871
