:020000040800F2
:10000000B048012005030008FD1900089D120008F2
:10001000F9190008D90B000861250008000000004C
:100020000000000000000000000000004D02000879
:10003000C110000800000000A1020008151E000801
:100040001F0300081F0300081F0300081F03000808
:100050001F0300081F0300081F030008C510000845
:100060001F0300081F0300081F0300081F030008E8
:100070001F0300081F0300081F0300081F030008D8
:100080001F0300081F0300081F0300081F030008C8
:10009000DD0B00081F0300081F0300081F030008F2
:1000A0001F0300081F0300081F0300081F030008A8
:1000B0008D1E00081F0300081F0300081F0300080F
:1000C0001F0300081F0300081F0300081F03000888
:1000D0001F030008052400081F0300080924000866
:1000E0001F0300081F0300081F0300081F03000868
:1000F0001F0300081F0300081F0300081F03000858
:100100001F0300081F0300081F0300081F03000847
:100110001F0300081F0300084D1F00081F030008ED
:100120001F0300081F0300081F0300081F03000827
:100130001F0300081F0300081F0300081F03000817
:100140009D0C00081F0300081F0300081F03000880
:100150001F0300081F0300081F0300081F030008F7
:100160001F0300081F0300081F0300081F030008E7
:100170001F0300081F0300081F0300080000000001
:100180001F0300081F0300081F0300081F030008C7
:100190001F0300081F0300081F0300081F030008B7
:1001A00000000000000000001F03000800F002F83B
:1001B00000F03CF80AA090E8000C82448344AAF1C5
:1001C0000107DA4501D100F031F8AFF2090EBAE8C3
:1001D0000F0013F0010F18BFFB1A43F0010318477B
:1001E0004845000068450000103A24BF78C878C12F
:1001F000FAD8520724BF30C830C144BF04680C602D
:10020000704700000023002400250026103A28BF74
:1002100078C1FBD8520728BF30C148BF0B60704778
:100220001FB504F07BFA1FBD10B510BD00F094F9A6
:100230001146FFF7F5FF02F00BFA00F0C6F903B420
:10024000FFF7F2FF03BC00F0C9F900002A4B196860
:100250000868B0E8F04F80F30988BFF36F8F4FF064
:10026000000080F311887047000000000648006815
:10027000006880F3088862B661B6BFF34F8FBFF3A2
:100280006F8F00DF00BF00BF08ED00E0DFF80C005B
:10029000016841F470010160704700BF88ED00E023
:1002A000EFF30980BFF36F8F134B1A681EF0100F26
:1002B00008BF20ED108A20E9F04F106008B44FF01D
:1002C000500080F31188BFF34F8FBFF36F8F03F09F
:1002D000ADFB4FF0000080F3118808BC1968086876
:1002E000B0E8F04F1EF0100F08BFB0EC108A80F39A
:1002F0000988BFF36F8F704710000020EFF305806F
:10030000704700000948804709480047FEE7FEE7BC
:10031000FEE7FEE7FEE7FEE7FEE7FEE7FEE7FEE7B5
:1003200004480549054A064B70470000251E000891
:10033000AD010008B0340120B0480120B0440120D4
:10034000B04401200FB4044910B503AA029800F08C
:1003500077F810BC5DF814FB88000020032A40F2F7
:10036000308010F0030C00F0158011F8013BBCF157
:10037000020F624498BF11F801CB00F8013B38BF6F
:1003800011F8013BA2F1040298BF00F801CB38BF7D
:1003900000F8013B11F0030300F06480083AC0F05C
:1003A000088051F8043B083A51F804CBA0E8081043
:1003B000F5E7121D5CBF51F8043B40F8043BAFF376
:1003C0000080D20724BF11F8013B11F801CB48BFD0
:1003D00011F8012B24BF00F8013B00F801CB48BF06
:1003E00000F8012B704702F0FF0343EA032242EAC0
:1003F000024200F002B84FF000020429C0F012805F
:1004000010F0030C00F06280CCF1040CBCF1020F80
:1004100018BF00F8012BA8BF20F8022BA1EB0C019C
:1004200000F054B85FEAC17C24BF00F8012B00F84B
:10043000012B48BF00F8012B704770477047704789
:10044000074B70B50D467B4400F06BF80446284618
:1004500000F07AF810B14FF0FF3070BD204670BD4B
:10046000EB21000010B5203AC0F00B80B1E8185025
:10047000203AA0E81850B1E81850A0E81850BFF48E
:10048000F5AF5FEA027C24BFB1E81850A0E818502D
:1004900044BF18C918C0BDE810405FEA827C24BF81
:1004A00051F8043B40F8043B08BF7047D20728BF0F
:1004B00031F8023B48BF11F8012B28BF20F8023B5E
:1004C00048BF00F8012B70474FF0000200B51346FB
:1004D00094469646203922BFA0E80C50A0E80C5064
:1004E000B1F12001BFF4F7AF090728BFA0E80C5015
:1004F00048BF0CC05DF804EB890028BF40F8042B0E
:1005000008BF704748BF20F8022B11F0804F18BF7A
:1005100000F8012B7047000001694A1C026108784D
:10052000704700B58FB0CDE9013100210591054933
:100530007944CDE903101146684600F032F80FB057
:1005400000BD0000E5FFFFFF007B00F0800070476A
:1005500000487047503401207546FFF7F9FFAE465A
:1005600005006946534620F00700854618B020B5BF
:10057000FFF7D6FEBDE820404FF000064FF0000721
:100580004FF000084FF0000B21F00701AC46ACE83B
:10059000C009ACE8C009ACE8C009ACE8C0098D46A8
:1005A00070472DE9F04106460024D6E90170F56850
:1005B0008046304603E04146B847641C3046A847B1
:1005C0000028F8D12046BDE8F08110B50446AFF30D
:1005D00000802046BDE81040FFF731BE01491820D9
:1005E000ABBEFEE726000200704780ED000AC0EDBA
:1005F000010A80ED021A0021C1600161416181613F
:10060000C161016240F2E24141624900816201211F
:10061000C16201630021016441648163C163704769
:1006200080ED000AC0ED010A80ED021A0021C160D0
:10063000016141618161C161016240F2E241416257
:10064000490081620121C1620163002101644164AA
:100650008163C163704700009FED070A074880ED82
:10066000000A9FED050A064880ED000A9FED020A88
:10067000044880ED000A704700000000A000002040
:10068000A4000020B000002000B58BB001210220A2
:1006900001F068FA0121022001F054FA022204213B
:1006A0001F4800F0CDFD1020099002208DF8280091
:1006B00003208DF8290000208DF82A0001208DF8F4
:1006C0002B0009A9164800F073FD5920ADF8180059
:1006D0000020ADF81A00012007900020ADF820009E
:1006E00006A9104801F0C4FC6020ADF80400012008
:1006F000ADF806000020ADF8100001A9094801F08E
:100700006FFC0821074801F0A9FC0121054801F010
:100710002FFC0121034801F03DFC0BB000BD00009F
:10072000000402400004004000B587B001214806E3
:1007300001F018FA0121880601F014FA01208DF861
:10074000170000208DF8180008208DF814000420F0
:100750008DF8150000208DF812008DF81900032087
:10076000ADF8100000208DF81A008DF813008DF8F8
:1007700016008DF81B0004A92B4800F068FB01202F
:100780008DF80D000020ADF80800ADF80000ADF8C0
:100790000200ADF80400ADF806008DF80B008DF8EE
:1007A0000A0001208DF80C00684600F0C3FA012011
:1007B0008DF8170000208DF8180008208DF814001F
:1007C00004208DF8150000208DF812008DF8190016
:1007D0000320ADF8100000208DF81A008DF81300EA
:1007E0008DF816008DF81B0004A9104800F02FFBAF
:1007F00001208DF80D000020ADF80800ADF80000D4
:10080000ADF80200ADF80400ADF806008DF80B005D
:100810000E208DF80A0001208DF80C00684600F0CB
:1008200089FA07B000BD0000006400400068004085
:1008300000B58FB00121880501F084F94FF0006008
:10084000009012480190124802900020039013205B
:100850000490002005904FF48060069000200890DE
:10086000079009904FF480300A9000200B900320ED
:100870000C9000200D900E906946064800F0F4FBA5
:100880000121044800F0E5FB0FB000BD0410014059
:100890001C310120406402401CB50121084601F0D2
:1008A00051F90121022001F04DF90121082001F048
:1008B00049F90121202001F045F902208DF80400BA
:1008C00000208DF806008020009001208DF80700A0
:1008D00003208DF805006946504800F069FC0722A6
:1008E00011464E4800F0ACFC02208DF804000020B8
:1008F0008DF806000320009001208DF807000320EA
:100900008DF805006946464800F052FC0922002196
:10091000434800F095FC09220121414800F090FC79
:1009200002208DF8040000208DF806004FF440509E
:10093000009001208DF8070003208DF8050069461E
:10094000364800F035FC09220C21344800F078FCD0
:1009500009220D21314800F073FC01208DF80400BC
:1009600000208DF806004FF48060009001208DF883
:10097000070003208DF8050069462A4800F018FC9E
:1009800001208DF8040000208DF806004FF420703F
:10099000009001208DF8070003208DF805006946BE
:1009A000204800F005FC00208DF804008DF80600BA
:1009B0004020009001208DF8070003208DF80500ED
:1009C0006946184800F0F4FB00208DF804008DF80B
:1009D00006004FF48070009002208DF8070003207D
:1009E0008DF8050069460F4800F0E2FB0122114630
:1009F0000D4800F025FC022000908DF80400032033
:100A00008DF8050000208DF8060001208DF8070004
:100A10006946054800F0CCFB1CBD00000004024004
:100A2000000C0240001402400000024008B54FF4E0
:100A3000A06001F021F825208DF8000001208DF83C
:100A4000030000208DF8010001208DF802006846A7
:100A500000F0D6FF012240F224412E4801F0F1FCC3
:100A600014208DF8000001208DF8030000208DF87F
:100A7000010002208DF80200684600F0C1FF01224B
:100A80000221254800F0DAF940208DF8000001200D
:100A90008DF8030000208DF8010003208DF802007E
:100AA000684600F0ADFF012202211C4800F0C6F9A3
:100AB00036208DF8000001208DF8010000208DF80F
:100AC000020001208DF80300684600F099FF012222
:100AD0001146134801F07BFA0121114801F054FA44
:100AE0001C208DF8000001208DF8010000208DF8F9
:100AF000020001208DF80300684600F081FF01220A
:100B00001146900701F063FA0121880701F03CFAD1
:100B100008BD000000100140006400400068004073
:100B2000001000400EB50121102001F01BF801213A
:100B3000084601F017F85920ADF800000020ADF884
:100B40000200ADF8080040F2E730019069460E4817
:100B500001F08EFA01210C4801F01CFA632001908B
:100B600042F22730ADF800000020ADF80200ADF8E9
:100B7000080069464FF0804001F07AFA01218807A9
:100B800001F008FA0EBD0000001000401FB5012161
:100B9000102000F0F7FF0E4800900020ADF80C0088
:100BA0000420ADF80A000020ADF80800ADF80600FA
:100BB000ADF804006946074801F068FC01224021B5
:100BC000044801F035FC0121024801F025FC1FBD5D
:100BD000A08601000010014000BFFEE710B52C4ABE
:100BE00000212C4800F0BDF929480068A0F201203E
:100BF00030B1012815D0022824D0032844D132E096
:100C00002348007B2249C97A40EA01202249088012
:100C10001F48817B407B41EA002000B21E4948808A
:100C200033E01B48007B1A49C97A40EA01201A497F
:100C300088801748817B407B41EA002000B216493A
:100C4000C88022E01248007B1149C97A40EA01209D
:100C5000114908810E48817B407B41EA002000B2A7
:100C60000D49488111E00A48007B0949C97A40EAE8
:100C70000120094988810648817B407B41EA0020A8
:100C800000B20549C88100E000BF00BF10BD0000F0
:100C9000582E0120006400403430012010B5224A53
:100CA0000021224800F05DF91F480068A0F20120F1
:100CB00020B1012813D0022833D121E01A48007B4B
:100CC0001949C97A40EA0120194908821648817BEE
:100CD000407B41EA002000B21549488222E01248D8
:100CE000007B1149C97A40EA0120114988820E48E7
:100CF000817B407B41EA002000B20D49C88211E0AF
:100D00000948007B0849C97A40EA0120084908835C
:100D10000548817B407B41EA002000B204494883BA
:100D200000E000BF00BF10BD582E01200068004049
:100D30003430012010B50021837A012202FA03F138
:100D40003D4A126842F001023B4B1A603A4A1C329B
:100D500012688A43384B1C331A60027BCAB9364A80
:100D60000C3212688A43344B0C331A604288C388B1
:100D700042EA0343304A4032847A42F834300288EF
:100D8000838842EA03432C4A4032847A02EBC4024D
:100D90005360027B012A19D1274A0C3212680A4398
:100DA000254B0C331A604288038842EA0343224AE7
:100DB0004032847A42F83430C288838842EA03435E
:100DC0001D4A4032847A02EBC4025360C27A3AB9B7
:100DD000194A121D12688A43174B1B1D1A6006E040
:100DE000154A121D12680A43134B1B1D1A60028913
:100DF00032B9114A143212688A430F4B14331A6005
:100E00000289012A06D10C4A143212680A430A4B9D
:100E100014331A60427B012A06D1074A1C32126839
:100E20000A43054B1C331A60034A126822F0010280
:100E3000014B1A6010BD0000006600401AB1436902
:100E40000B43436102E043698B434361704730B514
:100E5000024600200023146824F002041460146881
:100E600044F00104146000E05B1C546804F00104C9
:100E70001CB94FF6FF74A342F6D1546804F0010484
:100E80000CB900206CE08C79012C04D1146844F07A
:100E90008004146003E0146824F080041460CC79AA
:100EA000012C04D1146844F04004146003E0146879
:100EB00024F0400414600C7A012C04D1146844F02E
:100EC0002004146003E0146824F0200414604C7AB9
:100ED000012C04D1146844F01004146003E0146879
:100EE00024F0100414608C7A012C04D1146844F0AE
:100EF0000804146003E0146824F008041460CC7A39
:100F0000012C04D1146844F00404146003E0146854
:100F100024F0040414608C78A407CD7844EA0564B6
:100F20000D7944EA05444D7944EA05540D886D1E57
:100F30002C43D461146824F001041460002300E001
:100F40005B1C546804F001041CB14FF6FF74A3420B
:100F5000F6D1546804F001040CB1002000E0012037
:100F600030BD10B500F5D87303EB01131B6803F017
:100F700004031372137A53B900F5D87303EB01130A
:100F80001B6840F2FF7404EA5353136009E000F554
:100F9000D87303EB01131B686FF0604404EAD303BA
:100FA000536000F5D87303EB01131B6803F00203D1
:100FB000537200F5D87303EB01135B6803F00F0362
:100FC000937200F5D87303EB01135B681B0AD374AB
:100FD00000F5D87303EB01139B68D37200F5D87347
:100FE00003EB01139B681C0A147300F5D87303EB21
:100FF00001139B681C0C547300F5D87303EB0113A9
:101000009B681B0E937300F5D87303EB0113DB6829
:10101000D37300F5D87303EB0113DB681C0A147457
:1010200000F5D87303EB0113DB681C0C547400F556
:10103000D87303EB0113DB681B0E937421B9C368EB
:1010400043F02003C36003E0036943F0200303611E
:1010500010BD21B1026842F00102026003E00268A3
:1010600022F001020260704710B500220268134BA3
:101070001A40CC680B6823434C6923438C69234393
:10108000CC6923430C6A23434C6A23438C6A234371
:101090004C6B23438C6B23431A430260426922F05A
:1010A0000702D1E90B3423431A4342610B694360C1
:1010B0004B6883608B68C36010BD00003F801CF0EC
:1010C0007047000010B5022000F01CF850B102205B
:1010D00000F00CF8022000F00FF80120024908701F
:1010E00000F020FC10BD0000D20000200149086083
:1010F00070470000143C014001490860704700003F
:10110000143C014001460020034A12680A400AB11B
:10111000012000E000207047143C014000212349D9
:101120008279002A3AD00A46126803689A430B462D
:101130001A600A1D126803689A430B1D1A6002792F
:1011400011440A6803681A430A60184A0832126890
:1011500003689A43154B08331A601A1D1268036816
:101160009A43124B0C331A604279102A0ED11A1F7F
:10117000126803681A430D4B08331A601A1D12686F
:1011800003681A43094B0C331A600DE00749427992
:1011900011440A6803681A430A6005E002791144A1
:1011A0000A6803689A430A6070470000003C0140E7
:1011B000F0B50A4600210023002400BF3DE00125D0
:1011C00005FA01F3156805EA03049C4234D1056869
:1011D0004F000326BE40B543056015794E00B5406B
:1011E0000668354305601579012D02D01579022D69
:1011F00016D185684F000326BE40B54385605579FA
:101200004E00B540866835438560456801268E40AE
:10121000B5434560456896798E40B6B23543456022
:10122000C5684F000326BE40B543C560D5794E0062
:10123000B540C6683543C560491C1029BFD3F0BD11
:10124000F0B5002300244D07ED0E02FA05F3CE1091
:1012500000F1200555F826504E07F70E0F26BE4028
:10126000B543CF1000F1200646F82750CE1000F10C
:10127000200555F8265045EA0304CE1000F120055C
:1012800045F82640F0BD418370470183704781696E
:1012900001608169416000218163704700BFFEE702
:1012A00080ED000AC0ED010A80ED021A0021C16044
:1012B000016141618161C161016240F2E2414162CB
:1012C000490081620121C16201630021016441641E
:1012D0008163C163704780ED000AC0ED010A80EDB3
:1012E000021A0021C160016141618161C161016235
:1012F00040F2E2414162490081620121C162016321
:101300000021016441648163C16370479FED020A5B
:10131000024880ED000A704700000000B80000207D
:1013200010B5044600200F49086000F0D9F80120EC
:1013300000F01CF824B101200A490831086003E0DC
:101340000020084908310860012000F00FF8012052
:101350000449086000F00AF800200349C1F89C0223
:1013600010BD00009C8242420080424210B5002124
:1013700006E0642200BF131EA2F10102FBD1491C4A
:101380008142F6D310BD000001200349086000200F
:101390000249C1F8A002704798824242008042424E
:1013A00070B5002400F086F80120FFF7DFFF00256C
:1013B00016E000200E4908600220FFF7D7FF012049
:1013C0000C49C1F89C026006040E09487838006890
:1013D00008B1601CC4B20220FFF7C8FF681CC5B288
:1013E000082DE6DB002002490860204670BD0000A1
:1013F0009C824242008042422DE9F04107460E465F
:101400001446984600F084F8FF2805D120A0FEF786
:1014100099FFFF20BDE8F081384600F0F9F800F0B0
:10142000CDF8FF2800D1F5E7304600F0F1F800F0E4
:10143000C5F8FF2804D119A0FEF784FFFF20E9E7D3
:1014400000F066F8791CC8B200F0E2F800F0B6F8D7
:10145000FF2804D114A0FEF775FFFF20DAE700256E
:1014600008E0FFF79DFF20700020FFF759FF641C84
:10147000681CC5B2A8F10100A842F2DCFFF790FF9A
:1014800020700120FFF74CFF00F07EF80020C1E73C
:101490006572726F7220370D0A0000006572726FFC
:1014A0007220390D0A0000006572726F7220324896
:1014B0000D0A00001CB54FF40070009000208DF85C
:1014C00004008DF8060001208DF8070003208DF838
:1014D000050069460148FFF76BFE1CBD0014024081
:1014E0001CB54FF40070009001208DF8040000201E
:1014F0008DF8060001208DF8070003208DF8050007
:1015000069460248FFF754FE1CBD0000001402406B
:1015100010B5FFF7E5FF0120134908601348D0F824
:10152000240220B912A0FEF70DFFFF2010BD0120FC
:101530000D4908390860FFF719FF00200B49C1F871
:10154000A40209488038006820B10CA0FEF7FAFE1A
:10155000FF20EBE70120FFF709FF002002490839CF
:10156000086000BFE2E70000A482424200804242DD
:101570006572726F722031210D0A00006572726F00
:10158000722032210D0A000010B5FFF7A9FF0020DC
:10159000084908600849C1F8A4020120FFF7E6FEE7
:1015A000012004490860FFF7E1FE01200249C1F86B
:1015B000A40210BD9C8242420080424210B5002429
:1015C000FFF778FF012010490860FFF7CFFE0120E8
:1015D0000E49C1F89C02FFF7C9FE0AE0601C84B204
:1015E000322C03DDFFF7D0FFFF2010BD0520FFF7F1
:1015F000BDFE0548803800680028EFD1024908394F
:10160000086000BFF1E70000A4824242008042422D
:1016100070B50446FFF764FF0020134908600025F9
:101620001EE004F0800020B101200F49083108605D
:1016300003E000200C49083108606006040E012018
:10164000FFF794FE012008490860FFF78FFE002095
:101650000649C1F89C020120FFF788FE681CC5B24C
:10166000082DDEDB70BD00009C82424200804242B9
:1016700070B506460C461546FFF74AFFFF2804D111
:1016800016A0FEF75FFEFF2070BD3046FFF7C0FFDB
:10169000FFF794FFFF2804D113A0FEF753FEFF20AD
:1016A000F2E72046FFF7B4FFFFF788FFFF2804D1D9
:1016B00010A0FEF747FEFF20E6E72846FFF7A8FF49
:1016C000FFF77CFFFF2804D10DA0FEF73BFEFF20B3
:1016D000DAE7FFF759FF0020D6E700006572726F66
:1016E00072203321000000006572726F7220340D89
:1016F0000A0000006572726F7220350D0A0000004A
:101700006572726F7220360D0A0000001CB501214F
:10171000302000F017FA8020009001208DF804009E
:1017200000208DF8060003208DF8050001208DF8BB
:10173000070069460F48FFF73BFD4FF480400090DB
:1017400001208DF8040000208DF8060003208DF89C
:10175000050001208DF8070069460748FFF728FDBE
:1017600080210448FFF791FD4FF480410248FFF7C4
:101770008CFD1CBD001002400014024010B5012277
:101780001921D020FFF774FFFF2800D110BD0A20D7
:1017900000F00AFF01223821D020FFF769FFFF285F
:1017A00000D1F3E70020F1E708B500200090FFF733
:1017B000EBFD01236A467521D020FFF71DFE50B9CD
:1017C0009DF80000702801D0FF2008BD9DF80000A2
:1017D0002549088001E0FF20F7E701226B21D02096
:1017E000FFF746FFFF2800D1EFE701221A21D020A2
:1017F000FFF73EFFFF2800D1E7E718221B21D0208A
:10180000FFF736FFFF2800D1DFE710221C21D02090
:10181000FFF72EFFFF2800D1D7E701221D21D0209E
:10182000FFF726FFFF2800D1CFE702223721D02083
:10183000FFF71EFFFF2800D1C7E700223821D02084
:10184000FFF716FFFF2800D1BFE700226A21D02052
:10185000FFF70EFFFF2800D1B7E74FF4FA7000F052
:10186000A3FE0020B1E70000D000002010B502E088
:10187000C82000F099FEFFF797FFFF28F8D010BDB1
:1018800000B585B00121880300F07CF9012110200A
:1018900000F058F90220039000208DF810008DF818
:1018A000120001208DF8130002208DF8110003A909
:1018B0001248FFF77DFC0121042000F0E7F9022027
:1018C000009000208DF804000C208DF80500012008
:1018D0008DF806006846FFF721FC07208DF8080008
:1018E00002208DF8090000208DF80A0001208DF8F3
:1018F0000B0002A800F084F805B000BD0010024003
:101900002DE9F04104460D4616461F463B46324639
:1019100029462046FFF770FDFF2801D1BDE8F08180
:101920000020FBE710B53148007800285CD000208B
:101930002E4908700E232E4A3B21D020FFF7E0FFEE
:101940002B4840782A49097840EA012000B2294909
:1019500008802748C0782649897840EA012000B2EB
:1019600024494880224840792149097940EA0120E8
:1019700000B2204988801E48C0791D49897940EA13
:10198000012000B21B49C8801948407A1849097AD9
:1019900040EA012000B21749088108460089C98938
:1019A000084400B2134908811148C07A1049897A65
:1019B00040EA012000B20F49488108464089098A5F
:1019C000084400B20B4948810948407B0849097B1B
:1019D00040EA012000B20749888108468089498A87
:1019E000084400B20349888110BD0000D2000020E5
:1019F0003C3401202834012000BFFEE7704700007E
:101A000070B5002100230F22C4781CB3174C246842
:101A100004F4E064C4F5E064C4F30721C1F10404F4
:101A2000E3B20A4144789C40E1B2847814402143F7
:101A30000C07210E0E4C05786155047804F01F0543
:101A40000124AC4005786D11AD0005F1E025C5F825
:101A5000004109E0047804F01F050124AC40054D65
:101A60000678761145F8264070BD00000CED00E0C8
:101A700000E400E080E100E002490143024A116015
:101A8000704700000000FA050CED00E080ED000A50
:101A9000C0ED010A80ED021A0021C16001614161BF
:101AA0008161C16101624FF4A571416249008162A7
:101AB0000121C16201630021016441648163C1634A
:101AC000704780ED000AC0ED010A80ED021A002186
:101AD000C160016141618161C16101624FF47A615C
:101AE0004162490081620121C162016300210164F8
:101AF00041648163C16370479FED020A024880ED33
:101B0000000A704700000000C000002080ED000ABD
:101B1000C0ED010A80ED021A0021C160016141613E
:101B20008161C16101624FF4A57141624900816226
:101B30000121C16201630021016441648163C163C9
:101B40007047000029B1064A12680243044B1A602C
:101B500004E0034A12688243014B1A607047000098
:101B60003038024029B1064A12680243044B1A6019
:101B700004E0034A12688243014B1A607047000078
:101B80004038024029B1064A12680243044B1A60E9
:101B900004E0034A12688243014B1A607047000058
:101BA00044380240F0B5002100220024022500261E
:101BB0000223324F3F6807F00C0121B1042905D000
:101BC000082937D105E02E4F076036E02D4F07601A
:101BD00033E02A4F3F1F3F68C7F38056274F3F1F10
:101BE0003F6807F03F036EB1264FB7FBF3F7DFF80E
:101BF0008CC0ACF1040CDCF800C0CCF3881C07FBF3
:101C00000CF40CE01E4FB7FBF3F7DFF870C0ACF13B
:101C1000040CDCF800C0CCF3881C07FB0CF4174F55
:101C20003F1F3F68C7F301477F1C7D00B4FBF5F7FA
:101C3000076002E0124F076000BF00BF0F4F3F6810
:101C400007F0F0010909104F7A5C0768D740476038
:101C50000A4F3F6807F4E051890A0B4F7A5C4768E6
:101C6000D7408760054F3F6807F46041490B064F36
:101C70007A5C4768D740C760F0BD00000838024072
:101C80000024F400001BB7000000002030B5002243
:101C90008B071C0F0F2303FA04F20B4B8C1053F825
:101CA00024309343084C8D1044F8253023468C1083
:101CB00053F824308C07240F00FA04F42343024C19
:101CC0008D1044F8253030BD083801400CB5002097
:101CD000019000904148006840F480303F4908601E
:101CE00000BF3E48006800F4003000900198401C9E
:101CF0000190009818B90198B0F5A04FF1D137487C
:101D0000006800F4003010B10120009001E00020D4
:101D100000900098012860D130484030006840F0C1
:101D200080502E49403108602D48006840F4404002
:101D30002B490860294808300068284908310860A4
:101D40000846006840F4004008600846006840F417
:101D5000A05008602348091F0860081F006840F071
:101D60008070091F086000BF1C48006800F0007008
:101D70000028F9D01A48006840F4803018490860FB
:101D800000BF1748406800F480300028F9D014489C
:101D9000006840F400301249086000BF10484068F5
:101DA00000F400300028F9D040F205700E490860B8
:101DB0000A480830006820F003000849083108602C
:101DC0000846006840F00200086000BF0348083081
:101DD000006800F00C000828F8D10CBD0038024063
:101DE000007000400C5A4007003C0240042808D113
:101DF0004FF0E021096941F004014FF0E022116148
:101E000007E04FF0E021096921F004014FF0E022E2
:101E10001161704710B502F027FA012801D001F0D6
:101E2000E9FE10BD10B51548006840F47000134974
:101E300008601348006840F0010011490860002064
:101E40000F49083108600E4800680E4908400C49E7
:101E500008600D48091D0860081F006820F48020F4
:101E6000091F0860002006490C310860FFF72EFFAB
:101E70004FF0006001498039086010BD88ED00E036
:101E800000380240FFFFF6FE1030002410B501219B
:101E9000880700F08BF818B10121880700F077F867
:101EA00010BD000000B58BB001210420FFF75AFEE1
:101EB00001210820FFF746FE02220C212148FFF7EE
:101EC000BFF94FF48050099002208DF828000320BC
:101ED0008DF8290000208DF82A0001208DF82B00B4
:101EE00009A91848FFF764F942F22730ADF8180045
:101EF0000020ADF81A00C72007900020ADF82000A0
:101F000006A9114800F0B4F87020ADF804000120D3
:101F1000ADF806000220ADF810000520039001A9DD
:101F2000094800F05DF80821074800F097F8012102
:101F3000054800F01DF80121034800F02BF80BB014
:101F400000BD0000000C02400008004010B5012157
:101F5000064800F02BF838B10121044800F017F8CA
:101F60000121024800F010F810BD000000100040F0
:101F700021B1028842F08002028004E002884FF61C
:101F80007F731A4002807047CA4302827047CA4377
:101F90000282704721B1028842F00102028004E00F
:101FA00002884FF6FE731A400280704730B5024631
:101FB000002000230024158A05EA0103958905EA1B
:101FC000010413B10CB1012000E0002030BD1AB1B2
:101FD00083890B43838102E083898B43838170472C
:101FE00070B5002400220023058C4FF6FE763540A4
:101FF0000584028C8388048B4FF68F752C40B51EA8
:102000002C400D882C43751E2A408D892A434D880B
:102010002A43104DA84202D00F4DA84213D14FF6CB
:10202000F7752A40CD892A434FF6FB752A408D88E3
:102030002A434FF6FF652B404FF6FF552B400D8A84
:102040002B434D8A2B43838004838D684563028430
:1020500070BD000000000140000401400A4600215C
:10206000018B4FF6F773194011430183704700004D
:1020700000220288184B98420ED0184B98420BD081
:10208000B0F1804F08D0164B984205D0154B9842BE
:1020900002D0154B984204D14FF68F731A404B88EB
:1020A0001A43124B984207D0114B984204D04FF676
:1020B000FF431A400B891A4302804B68C3620B88A6
:1020C0000385054B984202D0044B984201D18B7A8C
:1020D0000386012383827047000001400004014011
:1020E0000004004000080040000C004000100040C8
:1020F00000140040002411E024B180210848FFF7BB
:10210000C2F803E080210648FFF7BFF80CB90120B0
:1021100000E000200446FA2001F022FAECE700007B
:10212000001002400EE0002001F006FC802106486D
:10213000FFF7A9F801F0FAF84FF47A7001F010FAFD
:1021400001F01EF9EFE70000001002401CB5044644
:10215000FEF7A2FBFEF7E8FAFEF718FDFEF768FBB4
:10216000FEF714FDFEF7DEFCFEF760FCB42000F085
:10217000F9F94FF4165001F037F8FFF7C7FAFEF7F8
:1021800083FAFFF78FFEFFF77BFB40F6B83000F0D5
:102190000BFA6B48008A6B4988610846FFF777F8AD
:1021A0006748808A684988616548008B674988610B
:1021B0006548FFF76CF86548FFF769F8FFF756FBCD
:1021C00040F6B83000F0F0F9FFF7D8FA0020604987
:1021D000C881801E08820F204882FFF797F8FFF71A
:1021E0008BFCFEF739FA9FED5B1ADFED5A0AB0EE71
:1021F000000A5948FFF78AFC9FED561ADFED550A91
:10220000B0EE000A5548FFF781FC9FED521ADFED52
:10221000510AB2EE0E0A5248FFF738FC9FED4D1AF4
:10222000DFED4C0AB2EE080A4E48FFF74AFC9FED7C
:10223000491ADFED480AB2EE080A4B48FFF741FCA5
:102240009FED441ADFED430AB2EE080A4748FFF754
:1022500038FC9FED401ADFED3F0AB2EE080A444811
:10226000FFF72FFC9FED3B1ADFED3A0A9FED390A8D
:102270004048FFF715F89FED371ADFED3F0A9FED55
:102280003F0A3F48FFF727F89FED321ADFED310A8A
:102290009FED300A3B48FEF7A8F99FED2E1ADFEDBF
:1022A0002D0A9FED2C0A3848FEF79FF99FED291A59
:1022B000DFED280A9FED270A3448FEF7B1F99FEDBC
:1022C000251ADFED240A9FED230A3148FEF7A8F90D
:1022D0009FED201ADFED1F0A9FED2E0A2E48FEF714
:1022E0009FF99FED1C1ADFED1B0AB7EE000A2B4881
:1022F000FEF796F92A48062100234FF4C872CDE96B
:10230000001028A12A4801F07FFF2A480621002357
:102310004FF4C872CDE9001027A12A4801F074FFDC
:102320002948032100234FF4C872CDE9001027A1EA
:10233000294801F069FF002001F040F91CBD0000B0
:10234000343001205030012094300120D830012059
:10235000283401200000000074330120C033012024
:1023600028330120F831012044320120903201202D
:10237000DC320120AC310120CDCC4C3E66660640FB
:1023800060310120042F0120502F01206C2E0120EC
:10239000B82E0120CDCC8C3F9C2F0120E82F0120AE
:1023A000D80000205461736B5F5553415254330081
:1023B000DD230008D40000205461736B5F44425554
:1023C0005300000025210008DC0000205461736BDD
:1023D0005F426C696E6B0000F52000080EE0002083
:1023E00001F0AAFA80210648FEF74DFF00F09EFF9B
:1023F0004FF47A7001F0B4F800F0C2FFEFE700008C
:10240000001002407047000010B50248006801F05B
:10241000E9F910BDD800002021B1828942F40052B0
:10242000828104E082894DF6FF731A4082817047F1
:102430001AB1838A0B43838202E0838A8B438382AF
:102440007047F0B50346002400260025002040F622
:102450006A17B94200D100BF1846C1F3421401F017
:102460001F06012707FA06F5012C01D10C3004E004
:10247000022C01D1103000E014301AB107682F434C
:10248000076002E00768AF430760F0BD2DE9FF4732
:1024900005460E460024A14600BFA046B08900B103
:1024A00000BF2C8A24F44054F08804432C82AC8969
:1024B00041F20C608443B088318908437189084334
:1024C0000443AC81AC8A24F44074B0890443AC82E8
:1024D0006846FFF767FB2048854202D01F488542C7
:1024E00002D1DDF80C9001E0DDF80890A88900F435
:1024F000004040B109EBC90000EB09103168490008
:10250000B0FBF1F707E009EBC90000EB09103168F7
:102510008900B0FBF1F76420B7FBF0F0040120095B
:10252000642101FB1078A88900F4004040B13220FA
:1025300000EBC800B0FBF1F000F00700044308E036
:10254000322000EB08106421B0FBF1F000F00F0026
:1025500004432C81BDE8FF870010014000140140B6
:1025600000BFFEE770B504466FF00400FFF73EFCC5
:102570000B48047025464FF47A7045430120094901
:1025800008804FF0E020006940F002004FF0E021A9
:10259000086108464561006940F00100086170BDAE
:1025A000840000208600002070B5044601F05CFE27
:1025B000012811D00C480088844206DB0A480088B4
:1025C00094FBF0F5284600F0CBFF0748008894FB09
:1025D000F0F100FB114084B24FF47A7104FB01F07A
:1025E00000F004F870BD00008600002070B50346BE
:1025F00000224FF0E02675690D4E367803FB06F495
:102600004FF0E026B16910E04FF0E026B069884253
:102610000BD0884202D20E1A324402E02E1A0E4427
:1026200032440146A24200D300E0EDE700BF70BD96
:102630008400002000BF054A128802F04002002AF0
:10264000F9D0C2B2014B1B1D1A80704700480040F0
:102650001CB50020052103464FF4C862CDE90010E7
:1026600003A1074801F0D0FD01F01CF900BFFEE70F
:102670005461736B5F537973496E69740000000095
:102680004D2100082DE9F04105460E461C4807681B
:102690001C480068001D00F0FFFD50B91948006893
:1026A00090F82C100120884017490968814316488A
:1026B0000160681C38B936B112480168091D134819
:1026C00000F028FE1AE07C190E4800684460BC4205
:1026D00007D20C480168091D0D48006800F000FE93
:1026E0000CE008480168091D0A48006800F0F8FD80
:1026F00009480068844201D207480460BDE8F081BF
:10270000240000201000002028000020FC010020F0
:1027100018000020140000204000002010B50446DE
:1027200000F004FE24480068401C23490860234848
:10273000006840B9214804600846006801280DD1AE
:1027400000F0DEF90AE01E48006838B91B4800684E
:10275000C06AE16A884201D81848046019480068D4
:10276000401C1849086008460068206494F82C1042
:102770000120884014490968084313490860E16A48
:1027800001EB8101114A02EB8100211D00F0C2FD25
:1027900000F0F6FD0A48006868B108480068C06AA1
:1027A000E16A884207D24FF0805009490860BFF3C0
:1027B0004F8FBFF36F8F10BD20000020100000204E
:1027C0002C0000203C0000202800002020010020D8
:1027D00004ED00E010B500F0A9FD10480068D0B984
:1027E0000F4800F06DFD0F4800F06AFD0C480E49DF
:1027F00008600C480D49086000220C210A2001F0F5
:1028000013FA064908600846006820B108A1034889
:10281000006800F069FE00F0B3FD10BD5400002018
:1028200010020020240200204C0000205000002054
:10283000546D72510000000070B523E001F0EEF815
:102840001348006808B9012000E00020054601F0A7
:1028500075FEBDB900F06AFD0D48C068C468201D52
:1028600000F01AFD0B480068401E0A4908600A483B
:102870000068401E0849086000F082FD204600F014
:1028800060F800BF044800680028D7D170BD000080
:10289000E8010020200000201C00002070B5044644
:1028A0000D46206C70B1216CE0680844E0606168FE
:1028B000E068884201D32068E0602846226CE16825
:1028C000FDF74CFD70BD2DE9F04104460F4615465D
:1028D0004FF00008A66B206C40B9206860BB6068B0
:1028E00001F07CFD80460020606025E07DB939461E
:1028F000226CA068FDF732FD216CA0680844A0603E
:10290000D4E90110884217D32068A06014E039464A
:10291000226CE068FDF722FD216CE068401AE0605F
:102920002168E068884203D2216C6068401AE06048
:10293000022D01D106B1761E701CA0634046BDE891
:10294000F08110B50446206B00F038FD204600F001
:1029500035FD10BD0146084A126812680AB9012205
:1029600000E000220A600A6822B9034A1268D268AD
:10297000106800E0002070474C00002030B54FF494
:102980009633174800F007042CB1C01D20F0070053
:10299000134C041B1B1B0246124C22600024114DD9
:1029A0006C60D018083820F007000F4C206000241D
:1029B0000D4D2D686C600C4D2D682C601146441A2D
:1029C0004C60094C24680C60084D4C682C60084D24
:1029D0004C682C604FF00044064D2C6030BD000068
:1029E00038020020600000206800002070000020F5
:1029F0006C0000207400002000BFFFF71DFF064898
:102A000000680128F9D94FF0805004490860BFF3ED
:102A10004F8FBFF36F8FF0E72001002004ED00E03F
:102A20002DE9F04106460D4617469846069C0DB91D
:102A3000246000E02760E66325640121204601F060
:102A400001FA84F84C80BDE8F0812DE9F05F824600
:102A50000F4690469B460A9E0C9C4FEA8801A52291
:102A6000206BFDF7C0FCA8F10100216B01EB800990
:102A700029F0070909F0070008B9012000E000204B
:102A800050B900BF502080F31188BFF34F8FBFF3C0
:102A90006F8F00BF00BFFEE7002507E0795D04F1FE
:102AA00034004155785D00B902E06D1C0A2DF5D364
:102AB00000BF00213D200155072E00D30626E66207
:102AC000A6640020E064201D00F007FC04F118005B
:102AD00000F003FC2461C6F10700A06164620020DD
:102AE000206584F854005A465146484600F066FB7B
:102AF00020600B9808B10B980460BDE8F09F0000BF
:102B000010B5002407E004EB84010F4A02EB8100BA
:102B100000F0D6FB641C072CF5D30C4800F0D0FB6A
:102B20000B4800F0CDFB0B4800F0CAFB0A4800F050
:102B3000C7FB0A4800F0C4FB044809490860044880
:102B40000849086010BD000020010020AC010020F1
:102B5000C0010020D4010020E8010020FC01002079
:102B6000140000201800002010B50146164800E0AF
:102B7000006803688B42FBD30246436813448B42D0
:102B800004D143684C682344436001460A464B68BD
:102B900013440468A34211D10C4C03682468A34277
:102BA00008D04B680468646823444B6003681B6862
:102BB0000B6005E0054B1B680B6001E003680B60D0
:102BC000884200D0016010BD600000206800002035
:102BD0002DE9F04104460D4616461F464FF0000809
:102BE00065602461B5420CD8F01BA169884202D30C
:102BF0004FF0010811E0211D0948006800F070FB4A
:102C00000BE0BE4204D2BD4202D34FF0010804E003
:102C1000211D0448006800F063FB4046BDE8F081D8
:102C2000500000204C00002070B5054600F07EFBEF
:102C3000A86B08B9012400E0002400F0A1FB2046A5
:102C400070BD70B5054600F071FBA86BE96B88425A
:102C500001D1012400E0002400F092FB204670BD69
:102C6000F8B505460F4616480068C068C468201DC0
:102C700000F012FBE06901281DD1A06941192B4623
:102C80003A462046FFF7A4FFA8B1002003462A4693
:102C900001460090204601F0FFFC064656B900BFF1
:102CA000502080F31188BFF34F8FBFF36F8F00BFA9
:102CB00000BFFEE700BF2046616A8847F8BD0000FC
:102CC0004C00002070B586B06AE00398002867DBEE
:102CD000059C606908B9012000E0002010B9201DA2
:102CE00000F0DAFA02A800F0BDF8054603980A28B9
:102CF00054D2DFE800F009050731334F06083234BB
:102D000000BF00BF00BF00BF0498A269811803463E
:102D10002A462046FFF75CFFE8B12046616A8847F3
:102D2000E069012817D1002000900498A169421899
:102D300000231946204601F0AFFC064656B900BFF5
:102D4000502080F31188BFF34F8FBFF36F8F00BF08
:102D500000BFFEE700BF22E000BF20E000BF0498F4
:102D6000A061A06908B1012000E0002050B900BFB7
:102D7000502080F31188BFF34F8FBFF36F8F00BFD8
:102D800000BFFEE7A06941192B462A462046FFF7FF
:102D90001FFF04E0204600F011FB00E000BF00BF71
:102DA00000231A4603A90448006800F069FF0028C0
:102DB0008BD106B070BD000054000020F8B5054668
:102DC0000C4600F02BFE684600F04CF806460098D2
:102DD00020BB44B9B54206D801F0B0FB31462846C5
:102DE000FFF73EFF1CE03CB10E480068006808B9E0
:102DF000012000E000200446A91B22460A48006882
:102E000000F088FB01F09AFB50B94FF08050074961
:102E10000860BFF34F8FBFF36F8F01E001F08EFBAF
:102E2000F8BD0000500000205400002004ED00E038
:102E30000A490968096809B9012100E0002121B1A6
:102E40004FF0FF31064A116006E004490968C9687D
:102E5000C868034A416811607047000014000020F0
:102E60004000002070B5044601F00EFA0546074800
:102E70000068854204D200F00BF80120206001E0D8
:102E80000020206001480560284670BD5C000020DD
:102E90002DE9F84332E024480068C06805682248FC
:102EA0000068C068C468201D00F0F6F92046616A19
:102EB0008847E069012821D1A0694619AE4207D9A7
:102EC00066602461211D1848006800F009FA15E0C9
:102ED000002003462A4601460090204601F0DCFB14
:102EE000074657B900BF502080F31188BFF34F8FBA
:102EF000BFF36F8F00BF00BFFEE700BF0A48006846
:102F0000006808B9012000E000200028C3D006486E
:102F1000D0F8008005480068034908600348C0F8FD
:102F20000080BDE8F88300004C0000205000002025
:102F30000E480068401C08B9012000E0002050B98C
:102F400000BF502080F31188BFF34F8FBFF36F8F06
:102F500000BF00BFFEE700BF502080F31188BFF321
:102F60004F8FBFF36F8F00BF00BFFEE778000020D8
:102F700010B502460020114652B900BF502383F31A
:102F80001188BFF34F8FBFF36F8F00BF00BFFEE705
:102F90000B4C4B69A34201D1012300E0002373B124
:102FA000084C8B6AA34201D1012300E0002333B90E
:102FB0008B6A0BB9012300E0002303B1012010BD8F
:102FC000FC010020D401002008B500BF6846FFF7CF
:102FD000C1FC044620460099FFF7F0FEFFF772FEA1
:102FE000F4E770B5044600F0A1F994F9455010E0FB
:102FF000606A08B9012000E0002038B904F124001B
:1030000001F050FA18B100F053FB00E003E0681E35
:1030100045B2002DECDC00BFFF2084F8450000F035
:10302000AFF900F083F994F9445010E0206908B931
:10303000012000E0002048B904F1100001F032FA4C
:1030400008B100F035FB681E45B200E001E0002D3C
:10305000ECDC00BFFF2084F8440000F091F970BD63
:103060002DE9F04104464FF0000800F0D7FC464837
:10307000006808B9FFF782FC444800682040002837
:103080006BD1D4B1083404F00700B0B104F00700EC
:10309000C0F10800044404F0070008B9012000E072
:1030A000002050B900BF502080F31188BFF34F8F2C
:1030B000BFF36F8F00BF00BFFEE7002C4DD0344838
:1030C0000068844249D8334E3046056801E02E46F8
:1030D0002D686868A04202D228680028F7D12A48E3
:1030E0000068854239D0306800F1080828683060EF
:1030F0006868001B102819D92F1907F0070008B9B4
:10310000012000E0002050B900BF502080F311885A
:10311000BFF34F8FBFF36F8F00BF00BFFEE768683C
:10312000001B78606C603846FFF71EFD1849686820
:103130000968081A164908600846006816490968AF
:10314000884203D212480068134908600F49686832
:103150000968084368600020286001F0EFF908F072
:10316000070008B9012000E0002050B900BF50203E
:1031700080F31188BFF34F8FBFF36F8F00BF00BF85
:10318000FEE74046BDE8F0816800002074000020A2
:103190006C000020600000207000002006480068DD
:1031A00030B10549096801F14C00C96C491C016046
:1031B000014800687047000010000020001F4FF019
:1031C00080730360001F21F001030360001F054BA3
:1031D000036014380260001F6FF0020303602038A0
:1031E00070470000312F000810B588B00446012157
:1031F0000820FEF7A7FC01218804FEF7B3FC072294
:1032000008212348FEF71CF8072209212048FEF771
:1032100017F84FF44070069002208DF81C008DF8CE
:103220001D0000208DF81E0001208DF81F0006A94A
:103230001748FDF7BDFF02940020ADF80C00ADF873
:103240000E00ADF81000ADF814000C20ADF812001F
:1032500002A91048FFF71AF901210E48FFF7DCF820
:10326000012240F225510B48FFF7EBF827208DF89B
:10327000040000208DF8050002208DF806000020D3
:103280008DF8070001A8FEF7BBFB08B010BD0000D9
:10329000000C02400048004001460A69D1E90130B3
:1032A0009860D1E9010358605068884201D188686C
:1032B0005060002008611068401E10601068704760
:1032C00000F1080141604FF0FF31816000F1080119
:1032D000C1600161002101607047002101617047F8
:1032E00010B502460B685C1C0CB9106907E002F1CE
:1032F000080000E04068446824689C42FAD94468A9
:103300004C604C68A160886041600A611468641C6C
:10331000146010BD42684A6093688B60936859607E
:103320009160086103685B1C0360704700BF502018
:1033300080F31188BFF34F8FBFF36F8F00BF0E482C
:103340000068401C0C49086008460068012812D13A
:103350000A480068C0B208B9012000E0002050B956
:1033600000BF502080F31188BFF34F8FBFF36F8FE2
:1033700000BF00BFFEE770477800002004ED00E0CA
:103380000D48006850B900BF502080F31188BFF38A
:103390004F8FBFF36F8F00BF00BFFEE70648006886
:1033A000401E054908600846006820B9002080F3E7
:1033B000118800BF00BF70477800002070B5064636
:1033C0003546002E3FD0083D2C461F4960680968ED
:1033D000084008B1012000E0002050B900BF502093
:1033E00080F31188BFF34F8FBFF36F8F00BF00BF13
:1033F000FEE7206808B9012000E0002050B900BFB6
:10340000502080F31188BFF34F8FBFF36F8F00BF41
:1034100000BFFEE70C4960680968084098B1206861
:1034200088B90949606809688843606000F0F6FA65
:103430000649606809680844044908602046FFF7A7
:1034400093FB01F07BF870BD740000206C0000203D
:10345000064800684FF47A71B0FBF1F0401E4FF05F
:10346000E021486107200861704700008C000020BF
:1034700070B5FCF743FF0446102C16D304F1E0208E
:1034800090F8F05315480078854201DB012000E0F8
:10349000002050B900BF502080F31188BFF34F8F38
:1034A000BFF36F8F00BF00BFFEE70D48006800F458
:1034B000E0600C490968884201D8012000E0002042
:1034C00050B900BF502080F31188BFF34F8FBFF376
:1034D0006F8F00BF00BFFEE770BD00007C000020C2
:1034E0000CED00E080000020024600200BE0084BBD
:1034F00053F8303033B9064B43F8301003EBC003B8
:103500005A6002E0401C0828F1D300BF7047000059
:10351000E00000202DE9F04105460E4617462C46F6
:10352000FFF704FF94F94400401C10B9002084F810
:10353000440094F94500401C10B9002084F845006F
:10354000FFF71EFFA06B28B93A46314604F124006C
:1035500000F0D0F82046FFF744FDBDE8F081000000
:1035600070B504460025D4B11248006808B901209E
:1035700000E0002050B900BF502080F31188BFF355
:103580004F8FBFF36F8F00BF00BFFEE700F046FA1A
:1035900000212046FFF776F800F0D0FF05463DB940
:1035A0004FF0805004490860BFF34F8FBFF36F8F17
:1035B00070BD00004800002004ED00E070B5054635
:1035C000FFF7B4FE15B93048006800E0284604460D
:1035D000201DFFF761FE78B9E06A00EB80002B49FF
:1035E00051F8200040B994F82C1001208840284957
:1035F0000968814326480160A06A18B104F11800E7
:10360000FFF74AFE23480068401C224908601E4814
:103610000068844209D1211D1F48FFF77BFE1F4827
:103620000068401C1D49086009E01D480068401EF4
:103630001B4908602046FFF784F9FFF7F9FBFFF705
:103640009FFE18480068E8B10F480068844219D10D
:103650001548006808B9012000E0002050B900BFFB
:10366000502080F31188BFF34F8FBFF36F8F00BFDF
:1036700000BFFEE74FF080500C490860BFF34F8F4A
:10368000BFF36F8F70BD00001000002020010020EC
:10369000280000203C000020E80100201C00002041
:1036A000200000202C0000204800002004ED00E055
:1036B00001200149086070473400002070B50446BD
:1036C0000D4654B900BF502080F31188BFF34F8FCF
:1036D000BFF36F8F00BF00BFFEE7054801681831D8
:1036E0002046FFF7FDFD01212846FEF7CBFF70BD08
:1036F0001000002070B505460E46144655B900BFAF
:10370000502080F31188BFF34F8FBFF36F8F00BF3E
:1037100000BFFEE70648016818312846FFF7FAFDAA
:103720000CB14FF0FF3621463046FEF7ABFF70BDBF
:103730001000002070B505462C46002D4BD02649C0
:10374000E06A0968C96A884245D2A06900F0004071
:1037500028B921480068C06AC0F10700A061E16A89
:1037600001EB81011D4A02EB81016069884201D1B0
:10377000012000E0002050B3201DFFF78DFD78B937
:10378000E06A00EB8000154951F8200040B994F838
:103790002C100120884012490968814310480160BB
:1037A0000D480068C06AE06294F82C10012088403F
:1037B0000B49096808430A490860E16A01EB810185
:1037C000064A02EB8100211DFFF7A4FD03E0024839
:1037D0000068C06AE06270BD100000202001002077
:1037E0002800002070B505462C4655B900BF502072
:1037F00080F31188BFF34F8FBFF36F8F00BF00BFFF
:10380000FEE774B31748006884422AD0FFF78EFDA4
:103810002046FFF7ADFB10B3201DFFF73DFD94F8E8
:103820002C10012088401049096808430E4908609F
:10383000E16A01EB81010D4A02EB8100211DFFF7D6
:1038400069FD0849E06A0968C96A884207D34FF0F0
:10385000805007490860BFF34F8FBFF36F8FFFF7AA
:103860008FFD70BD100000202800002020010020E6
:1038700004ED00E050B900BF502181F31188BFF37F
:103880004F8FBFF36F8F00BF00BFFEE7034909688A
:10389000016003490968416070470000380000205A
:1038A000240000201CB51D4800210B468222CDE9D2
:1038B00000101BA11C4800F0A7FC0446012C02D1FB
:1038C00000F0BEFE0446012C15D100BF502080F34D
:1038D0001188BFF34F8FBFF36F8F00BF4FF0FF30E2
:1038E000124908600120124908600020114908604F
:1038F00000F0E2F810E0601C08B1012000E00020B8
:1039000050B900BF502080F31188BFF34F8FBFF331
:103910006F8F00BF00BFFEE71CBD00004400002009
:1039200049444C4500000000F929000840000020EF
:103930002C0000202400002070B50546FFF7F6FC9F
:1039400015B92E48006800E028460446201DFFF700
:10395000A3FC78B9E06A00EB8000294951F8200007
:1039600040B994F82C100120884026490968814309
:1039700024480160A06A18B104F11800FFF78CFC1C
:10398000211D2148FFF7C6FCFFF7FAFC1F4800681D
:1039900028B1FFF7CBFCFFF74BFAFFF7F1FC174814
:1039A0000068844229D119480068D0B118480068DD
:1039B00008B9012000E0002050B900BF502080F37A
:1039C0001188BFF34F8FBFF36F8F00BF00BFFEE7BB
:1039D0004FF080500F490860BFF34F8FBFF36F8FD8
:1039E0000BE0094800680C490968884203D10020AF
:1039F0000249086001E000F019F870BD10000020D5
:103A00002001002028000020FC0100202C000020C4
:103A10004800002004ED00E020000020024800687B
:103A2000401C014908607047480000201D4800689C
:103A300018B101201C49086032E000201A490860D2
:103A40001A480068B0FA80F0C0F11F0101EB810054
:103A5000174A52F8200008B1012000E0002050B9B8
:103A600000BF502080F31188BFF34F8FBFF36F8FDB
:103A700000BF00BFFEE701EB81020D4B03EB8200AC
:103A800042685268426000F108024368934202D1E2
:103A90004268526842604268D268064B1A6000BFB2
:103AA000704700004800002034000020280000205B
:103AB00020010020100000201CB54748006847493D
:103AC000884201D0012000E0002050B900BF502002
:103AD00080F31188BFF34F8FBFF36F8F00BF00BF1C
:103AE000FEE73D4800683D49491E884201D001205B
:103AF00000E0002050B900BF502080F31188BFF3D0
:103B00004F8FBFF36F8F00BF00BFFEE734490846F9
:103B100000780190FF200A46107008460078009057
:103B20009DF8000000F0F0009DF80020904201D1C7
:103B3000012000E0002050B900BF502080F3118820
:103B4000BFF34F8FBFF36F8F00BF00BFFEE79DF83D
:103B5000000000F05000234A10700720224A106035
:103B600009E021480068401E1F4A10609DF80000CF
:103B70004006000E00909DF8000000F080008028B4
:103B8000EFD0194800680002174A106010460088FC
:103B900000F4E0601060124A019810700E48203066
:103BA000006840F470000C49203108600846006845
:103BB00040F070400860FFF74BFC00200B490860A4
:103BC000FCF764FB0A48006840F040400849086080
:103BD000FCF74CFB00201CBD00ED00E071C20F4162
:103BE00000E400E07C00002080000020780000203D
:103BF00034EF00E010B500BF502080F31188BFF310
:103C00004F8FBFF36F8F00BF00F044FB18B14FF030
:103C100080500449086000BF002080F3118800BF75
:103C200010BD000004ED00E02DE9F84305460E4606
:103C300090460DB1012000E0002050B900BF502097
:103C400080F31188BFF34F8FBFF36F8F00BF00BFAA
:103C5000FEE70EB9002701E005FB06F707F150006B
:103C6000FFF7FEF9044644B104F1500943464A46C1
:103C7000314628460094FEF7D3FE2046BDE8F8837F
:103C80002DE9FF4782B005460E461F464FF0000A59
:103C90002C4654B900BF502080F31188BFF34F8FDA
:103CA000BFF36F8F00BF00BFFEE70EB9206C08B9ED
:103CB000012000E0002050B900BF502080F311889F
:103CC000BFF34F8FBFF36F8F00BF00BFFEE700F061
:103CD000CBFA08B9049808B9012000E0002050B9D7
:103CE00000BF502080F31188BFF34F8FBFF36F8F59
:103CF00000BF00BFFEE700BFFFF718FBD4F8389005
:103D0000B9F1000F3DD0D4F80C8031462046FEF7C3
:103D1000C5FDDFB9A9F10100A063206810B9FFF764
:103D20003DFA6060206908B9012000E0002010BB66
:103D300004F1100000F0B6FBE8B14FF080504049AC
:103D40000860BFF34F8FBFF36F8F14E0C4F80C808F
:103D5000606A08B9012000E0002060B904F1240085
:103D600000F0A0FB38B14FF0805035490860BFF338
:103D70004F8FBFF36F8FFFF703FB012006B0BDE845
:103D8000F087049818B9FFF7FBFA0020F6E7BAF1BC
:103D9000000F04D16846FFF76DFD4FF0010AFFF7F1
:103DA000EFFAFFF73BFEFFF7C1FA94F94400401C1D
:103DB00010B9002084F8440094F94500401C10B963
:103DC000002084F84500FFF7DBFA04A9684600F0FC
:103DD000D5F940BB2046FEF727FFF0B1206830B987
:103DE000FFF7A4FA6068FFF7A5FCFFF7C9FA04F132
:103DF00024000499FFF762FC2046FFF7F2F800F078
:103E00009DFB00287FF478AF4FF080500C4908608C
:103E1000BFF34F8FBFF36F8F6EE72046FFF7E1F8D8
:103E200000F08CFB68E72046FFF7DBF800F086FB2C
:103E30002046FEF7F9FE0028EED000209EE70000A5
:103E400004ED00E070B505460E462C4654B900BF9F
:103E5000502080F31188BFF34F8FBFF36F8F00BFE7
:103E600000BFFEE7FFF762FAD4E90F12206801FBFA
:103E7000020060600020A0632068A060E06B401E2C
:103E8000226C216800FB0210E060FF2084F84400EF
:103E900084F845009EB9206908B9012000E000209F
:103EA000A8B904F1100000F0FDFA80B14FF0805085
:103EB00009490860BFF34F8FBFF36F8F07E004F12C
:103EC0001000FFF7FDF904F12400FFF7F9F9FFF7FF
:103ED00057FA012070BD000004ED00E02DE9FF431A
:103EE00083B0064688461D464FF00009344654B953
:103EF00000BF502080F31188BFF34F8FBFF36F8F47
:103F000000BF00BFFEE7B8F1000F01D1206C08B977
:103F1000012000E0002050B900BF502080F311883C
:103F2000BFF34F8FBFF36F8F00BF00BFFEE7022DBF
:103F300002D1E06B012801D1012000E0002050B93E
:103F400000BF502080F31188BFF34F8FBFF36F8FF6
:103F500000BF00BFFEE700F087F908B9059808B96F
:103F6000012000E0002050B900BF502080F31188EC
:103F7000BFF34F8FBFF36F8F00BF00BFFEE700BFDF
:103F8000FFF7D4F9A06BE16B884201D3022D28D151
:103F90002A4641462046FEF796FC0746606A08B965
:103FA000012000E0002068B904F1240000F07AFA52
:103FB00088B14FF0805032490860BFF34F8FBFF394
:103FC0006F8F08E03FB14FF080502D490860BFF37C
:103FD0004F8FBFF36F8FFFF7D3F9012007B0BDE814
:103FE000F083059818B9FFF7CBF90020F6E7B9F18F
:103FF000000F04D101A8FFF73DFC4FF00109FFF7C6
:10400000BFF9FFF70BFDFFF791F994F94400401C4D
:1040100010B9002084F8440094F94500401C10B900
:10402000002084F84500FFF7ABF905A901A800F0CE
:10403000A5F8F0B92046FEF704FEA0B104F1100087
:104040000599FFF73BFB2046FEF7CBFF00F076FA21
:10405000002895D14FF0805009490860BFF34F8F79
:10406000BFF36F8F8CE72046FEF7BBFF00F066FAC8
:1040700086E72046FEF7B5FF00F060FA0020ADE7C6
:1040800004ED00E02DE9F05F07468A4690461E46A3
:104090003C4654B900BF502080F31188BFF34F8FC6
:1040A000BFF36F8F00BF00BFFEE7BAF1000F01D171
:1040B000206C08B9012000E0002050B900BF50205A
:1040C00080F31188BFF34F8FBFF36F8F00BF00BF26
:1040D000FEE7022E02D1E06B012801D1012000E0B1
:1040E000002050B900BF502080F31188BFF34F8FDC
:1040F000BFF36F8F00BF00BFFEE7FFF7B9F900BF46
:104100005021EFF3118081F31188BFF34F8FBFF37C
:104110006F8F00BF0546A06BE16B884201D3022E72
:1041200023D194F945B0324651462046FEF7CBFBE9
:104130000BF1010088B9606A08B9012000E0002095
:1041400080B904F1240000F0ADF958B1B8F1000FC6
:1041500008D00120C8F8000004E00BF1010040B2D3
:1041600084F845004FF0010901E04FF0000900BF5D
:1041700085F3118800BF4846BDE8F09F70B504463E
:104180000D4654B900BF502080F31188BFF34F8F04
:10419000BFF36F8F00BF00BFFEE755B900BF5020CF
:1041A00080F31188BFF34F8FBFF36F8F00BF00BF45
:1041B000FEE7FFF7BBF8124803682868401C08B9FF
:1041C000002619E00F4920680968884204D0606819
:1041D000984201D801260FE06068181A29688842C1
:1041E00009D228686168591A401A28602046FFF7EA
:1041F00041FB002600E00126FFF7C2F8304670BD03
:1042000024000020380000202DE9FF4F85B08046B3
:1042100089461746DDE912ABB800FEF721FF0646D6
:1042200056B15820FEF71CFF04460CB1266304E08B
:104230003046FFF7C3F800E000247CB10020CDE950
:1042400000ABCDE902403A4649464046089BFEF79E
:10425000FCFB2046FEF762FA012501E04FF0FF3536
:10426000284609B0BDE8F08F0549096809B9012061
:1042700005E00449096809B9022000E00020704700
:104280002C00002048000020014908687047000009
:10429000240000202DE9F0414FF000084448006858
:1042A000002877D143480068451C4248056015BB8B
:1042B00041480068006808B9012000E0002050B9BA
:1042C00000BF502080F31188BFF34F8FBFF36F8F73
:1042D00000BF00BFFEE73848076838480068364925
:1042E00008603648076036480068401C344908605A
:1042F000FEF79EFD00BF3348006885423CD300BFF7
:104300002D480068006808B9012000E0002020B1B5
:104310004FF0FF302B4908602DE027480068C06847
:10432000C4686668B54202D22648066023E0201DB4
:10433000FEF7B2FFA06A18B104F11800FEF7ACFF57
:1043400094F82C10012088401F49096808431E4931
:104350000860E16A01EB81011C4A02EB8100211D2A
:10436000FEF7D8FF1A49E06A0968C96A8842C7D3CC
:104370004FF00108C4E700BF15480068C06A00EBB1
:104380008000124951F82000012801D94FF001089E
:1043900005E0FFE70F480068401C0E4908600E4822
:1043A000006808B14FF001084046BDE8F081000008
:1043B00048000020240000201400002018000020E5
:1043C00038000020400000202800002020010020AC
:1043D00010000020300000203400002070B5054699
:1043E0002C460026002D55D02B480068844201D170
:1043F000012000E0002050B900BF502080F3118858
:10440000BFF34F8FBFF36F8F00BF00BFFEE7E06CBD
:1044100050B900BF502080F31188BFF34F8FBFF316
:104420006F8F00BF00BFFEE7E06C401EE064A16C30
:10443000E06A88422ED0E06C60BB201DFEF72CFFA6
:1044400078B9E06A00EB8000144951F8200040B9C7
:1044500094F82C10012088401149096881431048C4
:104460000160A06CE062E06AC0F10700A06194F80E
:104470002C10012088400A4909680843084908604F
:10448000E16A01EB8101054A02EB8100211DFEF783
:1044900041FF0126304670BD1000002020010020A1
:1044A0002800002070B50646F068C46854B900BF03
:1044B000502080F31188BFF34F8FBFF36F8F00BF81
:1044C00000BFFEE704F11800FEF7E6FE154800689D
:1044D000A8B9201DFEF7E0FE94F82C1001208840BA
:1044E00011490968084310490860E16A01EB81013C
:1044F0000E4A02EB8100211DFEF70CFF04E004F1DF
:1045000018010B48FEF706FF0A49E06A0968C96A04
:10451000884204D9012501200749086000E00025F0
:10452000284670BD480000202800002020010020FF
:10453000D4010020100000203400002070B50024B9
:1045400000263648006850B900BF502080F311881B
:10455000BFF34F8FBFF36F8F00BF00BFFEE7FEF7C3
:10456000E5FE2E480068401E2C4908600846006899
:1045700000284FD12A48006800284BD024E0294861
:10458000C068C46804F11800FEF786FE201DFEF71F
:1045900083FE94F82C1001208840234909680843C1
:1045A00021490860E16A01EB8101204A02EB8100A8
:1045B000211DFEF7AFFE1E49E06A0968C96A8842FC
:1045C00002D301201B4908601648006808B9012081
:1045D00000E000200028D2D00CB1FEF729FC1648DC
:1045E000056865B100BFFFF755FE10B10120114904
:1045F00008606D1E002DF6D100200F4908600D489F
:10460000006838B1012630070C490860BFF34F8FAE
:10461000BFF36F8FFEF7B4FE304670BD4800002038
:1046200020000020D40100202800002020010020CC
:1046300010000020340000203000002004ED00E0D5
:104640001CB50024FEF7C6F80E48006858B10E48A5
:10465000022100234FF48272CDE900100BA10D4816
:10466000FFF7D2FD044654B900BF502080F31188F3
:10467000BFF34F8FBFF36F8F00BF00BFFEE7204631
:104680001CBD00005400002058000020546D722012
:1046900053766300C92F00082DE9FE4304460D46FA
:1046A00016461F46DDF828804FF0000954B900BFB8
:1046B000502080F31188BFF34F8FBFF36F8F00BF7F
:1046C00000BFFEE71448006810B3009501960294FD
:1046D000062D15DAFFF7C8FD022808D1002342464F
:1046E00069460D480068FFF7F9FB814610E000239A
:1046F0001A46694608480068FFF7F0FB814607E064
:1047000000233A46694604480068FFF7BBFC81462F
:104710004846BDE8FE830000540000204FF0407082
:10472000E1EE100A70470000484700080000002032
:10473000E0000000E801000828480008E000002030
:10474000D047010004020008000000000102030439
:104750000102030406070809000000000000000031
:104760000000000000000000000000000000000049
:104770000000000000000000000000000000000039
:104780000000000000000000000000000000000029
:104790000000000000000000000000000000000019
:1047A0000000000000000000000000000000000009
:1047B00000000000000000000000000000000000F9
:1047C000AAAAAAAA00000000000000000000000041
:1047D000000000000095BA0A000000000000000080
:1047E00001020304060708090000000000000000A1
:1047F00000000000000000000000000000000000B9
:1048000000000000000000000000000000000000A8
:104810000000000000000000000000000000000098
:08482000000000000000000090
:04000005080001AD41
:00000001FF
