:020000040800F2
:10000000084A012049030008C5310008B923000847
:10001000CD300008E50E0008814A0008000000000D
:100020000000000000000000000000009102000835
:10003000B51A000800000000E502000805370008B6
:1000400063030008630300086303000863030008F8
:1000500063030008630300086303000863030008E8
:1000600063030008630300086303000863030008D8
:1000700063030008630300086303000863030008C8
:1000800063030008630300086303000863030008B8
:10009000050F000863030008B10F0008291B0008C2
:1000A0006303000863030008630300086303000898
:1000B0007D3700086303000863030008630300083A
:1000C0006303000863030008630300086303000878
:1000D00063030008254700088947000831480008E5
:1000E0006303000863030008630300086303000858
:1000F0006303000863030008630300086303000848
:100100006303000863030008630300086303000837
:100110006303000863030008630300086303000827
:10012000630300081519000863030008630300084F
:100130006303000863030008630300086303000807
:10014000D10F00086303000863030008630300087D
:1001500063030008630300086303000863030008E7
:1001600063030008630300086303000863030008D7
:100170006303000863030008630300080000000035
:1001800063030008630300086303000863030008B7
:1001900063030008630300086303000863030008A7
:1001A00000000000000000006303000800F002F8F7
:1001B00000F05EF80AA090E8000C82448344AAF1A3
:1001C0000107DA4501D100F053F8AFF2090EBAE8A1
:1001D0000F0013F0010F18BFFB1A43F0010318477B
:1001E00030840000508400000A444FF0000C10F8E6
:1001F000013B13F0070408BF10F8014B1D1108BFA5
:1002000010F8015B641E05D010F8016B641E01F844
:10021000016BF9D113F0080F1EBF10F8014BAD1C94
:100220000C1B09D16D1E58BF01F801CBFAD505E0B2
:1002300014F8016B01F8016B6D1EF9D59142D6D30C
:10024000704700000023002400250026103A28BF34
:1002500078C1FBD8520728BF30C148BF0B60704738
:10026000002070471FB507F0CEFF1FBD10B510BDB1
:1002700000F0D6F91146FFF7F5FF05F093F900F00D
:10028000F4F903B4FFF7F2FF03BC00F0F5F9000046
:100290002A4B19680868B0E8F04F80F30988BFF36B
:1002A0006F8F4FF0000080F311887047000000004E
:1002B00006480068006880F3088862B661B6BFF33C
:1002C0004F8FBFF36F8F00DF00BF00BF08ED00E06E
:1002D000DFF80C00016841F470010160704700BF55
:1002E00088ED00E0EFF30980BFF36F8F134B1A68BE
:1002F0001EF0100F08BF20ED108A20E9F04F1060AB
:1003000008B44FF0500080F31188BFF34F8FBFF354
:100310006F8F06F0ADFA4FF0000080F3118808BC33
:1003200019680868B0E8F04F1EF0100F08BFB0EC75
:10033000108A80F30988BFF36F8F70471000002088
:10034000EFF30580704700000948804709480047DF
:10035000FEE7FEE7FEE7FEE7FEE7FEE7FEE7FEE775
:10036000FEE7FEE704480549054A064B70470000D2
:1003700015370008AD01000808360120084A0120A1
:1003800008460120084601200FB4044910B503AA0D
:10039000029800F0D3F810BC5DF814FBA800002010
:1003A0002DE9F0410E460446002020622046E16817
:1003B000884730B3252805D0D4E901219047206A29
:1003C000401CF2E7E168204600278847050018D066
:1003D000A5F14100192802D820354FF400673246B4
:1003E000294620462760FFF73BFF40B1012804D093
:1003F000F61D26F007060836D8E7361DD6E728464C
:10040000DAE7206ABDE8F081032A40F2308010F07C
:10041000030C00F0158011F8013BBCF1020F62449F
:1004200098BF11F801CB00F8013B38BF11F8013B30
:10043000A2F1040298BF00F801CB38BF00F8013BDD
:1004400011F0030300F08C80083AC0F0088051F8E6
:10045000043B083A51F804CBA0E80810F5E7121D58
:100460005CBF51F8043B40F8043BAFF30080D20777
:1004700024BF11F8013B11F801CB48BF11F8012B43
:1004800024BF00F8013B00F801CB48BF00F8012B66
:10049000704702F0FF0343EA032242EA024200F0FF
:1004A00093B84FF0000200B51346944696462039A3
:1004B00022BFA0E80C50A0E80C50B1F12001BFF41D
:1004C000F7AF090728BFA0E80C5048BF0CC05DF883
:1004D00004EB890028BF40F8042B08BF704748BFD1
:1004E00020F8022B11F0804F18BF00F8012B704745
:1004F00070477047704710B500F086F8006810BD6F
:1005000010B5044600F080F8046010BD01694A1C73
:1005100002610878704700B58FB0CDE90131002144
:10052000059105497944CDE9031011466846FFF766
:1005300037FF0FB000BD0000E5FFFFFF074B70B5B0
:100540000D467B44FFF7E7FF0446284600F060F8BD
:1005500010B14FF0FF3070BD204670BD0750000055
:1005600010B5203AC0F00B80B1E81850203AA0E84E
:100570001850B1E81850A0E81850BFF4F5AF5FEA82
:10058000027C24BFB1E81850A0E8185044BF18C935
:1005900018C0BDE810405FEA827C24BF51F8043BDC
:1005A00040F8043B08BF7047D20728BF31F8023B30
:1005B00048BF11F8012B28BF20F8023B48BF00F8C4
:1005C000012B70474FF000020429C0F0128010F098
:1005D000030C3FF468AFCCF1040CBCF1020F18BF60
:1005E00000F8012BA8BF20F8022BA1EB0C01FFF7AC
:1005F0005ABF5FEAC17C24BF00F8012B00F8012B31
:1006000048BF00F8012B704700487047A83501200B
:10061000007B00F08000704700487047A83501203B
:100620007546FFF7F9FFAE4605006946534620F0D0
:100630000700854618B020B5FFF794FEBDE82040BE
:100640004FF000064FF000074FF000084FF0000B8E
:1006500021F00701AC46ACE8C009ACE8C009ACE841
:10066000C009ACE8C0098D4670470446AFF300806E
:100670002046FFF706FE000001491820ABBEFEE74A
:10068000260002007047000000B587B0012148062F
:1006900002F0E0FE0121880602F0DCFE00208DF869
:1006A00017008DF8180008208DF8140004208DF82C
:1006B000150000208DF812008DF819000320ADF808
:1006C000100000208DF81A008DF813008DF8160028
:1006D0008DF81B0004A92B4800F097FD01208DF830
:1006E0000D000020ADF80800ADF80000ADF80200E4
:1006F000ADF80400ADF806008DF80B008DF80A0087
:1007000001208DF80C00684600F0F2FC01208DF805
:10071000170000208DF8180008208DF81400042020
:100720008DF8150000208DF812008DF819000320B7
:10073000ADF8100000208DF81A008DF813008DF828
:1007400016008DF81B0004A90F4800F05EFD012083
:100750008DF80D000020ADF80800ADF80000ADF8F0
:100760000200ADF80400ADF806008DF80B000E2075
:100770008DF80A0001208DF80C00684600F0B8FCE6
:1007800007B000BD006400400068004000B58FB0B5
:100790000121880502F04EFE4FF0006000901248E3
:1007A0000190124802900020039013200490002032
:1007B00005904FF480600690002008900790099003
:1007C0004FF480300A9000200B9003200C90002002
:1007D0000D900E906946064801F03EF9012104484B
:1007E00001F0E4F80FB000BD041001401031012009
:1007F000406402401CB50121022002F01BFE0220D1
:100800008DF8040000208DF8060080200090012063
:100810008DF8070003208DF8050069468A4801F02D
:10082000BFFA07221146884801F002FB0121082087
:1008300002F000FE07220521844801F0F9FA0722A0
:100840000621824801F0F4FA4FF440700090022033
:100850008DF804008DF8050000208DF806000120B9
:100860008DF807006946794801F09AFA01210820BD
:1008700002F0E0FD02208DF8040000208DF8060053
:100880000320009001208DF8070003208DF805005B
:1008900069466E4801F084FA092200216B4801F094
:1008A000C7FA09220121694801F0C2FA0121022098
:1008B00002F0C0FD02208DF8040000208DF8060033
:1008C0004FF44050009001208DF8070003208DF870
:1008D000050069465C4801F063FA09220C215A4878
:1008E00001F0A6FA09220D21574801F0A1FA0121D1
:1008F000202002F09FFD01208DF8040000208DF8DB
:1009000006004FF48060009001208DF8070003205E
:100910008DF8050069464E4801F042FA012188032E
:1009200002F0A8FD0121202002F084FD01208DF8B5
:10093000040000208DF806004FF420700090012084
:100940008DF8070003208DF805006946404801F046
:1009500027FA00208DF804008DF806004020009052
:1009600001208DF8070003208DF8050069463848FE
:1009700001F016FA00208DF804008DF806004FF4FF
:100980008070009002208DF8070003208DF805008C
:1009900069462F4801F004FA0121022002F04AFDC5
:1009A0004FF48070009000208DF804008DF8060050
:1009B00001208DF8070002208DF8050069462248C5
:1009C00001F0EEF90121802002F034FD01208DF8C4
:1009D000040000208DF806003C20009001208DF8D6
:1009E000070003208DF8050069461A4801F0D8F980
:1009F0000421184801F041FA0821164801F03DFA97
:100A00001021144801F039FA2021124801F035FA7A
:100A10000121084602F00EFD012211460E4801F0A8
:100A200007FA022000908DF8040003208DF80500DD
:100A300000208DF8060001208DF807006946064861
:100A400001F0AEF91CBD000000040240000C0240A1
:100A500000140240001C0240000002400EB5252098
:100A60008DF8080001208DF80B0008208DF8090092
:100A700000208DF80A0002A802F0B0FB012240F22B
:100A800024413E4803F067FF27208DF80800072027
:100A90008DF8090000208DF80A0001208DF80B0068
:100AA00002A802F09BFB17208DF8080008208DF8A3
:100AB000090000208DF80A0001208DF80B0002A823
:100AC00002F08CFB0821012002F058FD4FF48070E9
:100AD000009000208DF804000C208DF80500012006
:100AE0008DF80600684601F0B5F814208DF808006E
:100AF00001208DF80B0008208DF8090000208DF8EA
:100B00000A0002A802F06AFB01221D491D4800F0FC
:100B100073FB1C481430006840F0FF001949143181
:100B2000086040208DF8080001208DF80B00082097
:100B30008DF8090000208DF80A0002A802F04EFB93
:100B400001220221104800F057FB1C208DF80800FC
:100B500009208DF8090000208DF80A0001208DF889
:100B60000B0002A802F03AFB01221146900702F0A6
:100B70004AFE0121880702F023FE0EBD001001404D
:100B8000008F0300006400400068004000B58BB097
:100B90000121084602F05EFC0120099042F2273054
:100BA000ADF820000020ADF82200ADF8280008A91B
:100BB0004FF0804002F078FE0121880702F006FE27
:100BC0000121102002F046FC5920ADF82000002041
:100BD000ADF82200ADF8280040F2E730099008A9EE
:100BE000294802F061FE0121274802F0EFFD0121B2
:100BF000042002F02FFC0121082002F01BFC02223D
:100C00000C21224801F014F94FF480500690022084
:100C10008DF81C0003208DF81D0000208DF81E00AB
:100C200001208DF81F0006A9184801F0B9F842F21A
:100C30002730ADF820000020ADF82200C720099031
:100C40000020ADF8280008A9114802F02DFE702000
:100C5000ADF804000120ADF806000220ADF8100048
:100C60000520039001A90A4802F0D6FD0821084892
:100C700002F010FE0121064802F096FD0121044811
:100C800002F0A4FD0BB000BD00100040000C0240BB
:100C9000000800401FB50121102002F0EBFB1F48A7
:100CA00000900020ADF80C000420ADF80A000020F0
:100CB000ADF80800ADF80600ADF804006946184824
:100CC00003F06EFE01224021154803F011FE0121C0
:100CD000134803F001FE0121880402F0BBFB4FF42E
:100CE000165000900020ADF80C000C20ADF80A0062
:100CF0000020ADF80400ADF80600ADF80800694624
:100D0000084803F04DFE0121064803F0E5FD0122ED
:100D100040F22551034803F01EFE1FBDA0860100CE
:100D2000001001400048004000B597B0012140206C
:100D300002F080FB02208DF8580000208DF85A0048
:100D40004FF48440159001208DF85B0003208DF84E
:100D5000590015A9374801F023F808220921354820
:100D600001F066F808220E21324801F061F80121F5
:100D7000202002F07FFB4FF4E13011900020ADF80D
:100D800050000C20ADF84E000020ADF84C00ADF83E
:100D90004A00ADF8480011A9274803F001FE0122DE
:100DA0004021254803F0A4FD0121234803F094FDD0
:100DB00039208DF8400001208DF8410000208DF889
:100DC000420001208DF8430010A802F007FA01222A
:100DD00010211A4800F022FE0121880502F02AFBAA
:100DE0004FF0206001901448001D029014480390B9
:100DF0000020049020200590002006904FF4806091
:100E000007900020099008900A904FF480300B90D2
:100E100000200C9003200D9000200E900F9001A94F
:100E2000064800F019FE0121044800F0BFFD17B08C
:100E300000BD000000180240001401402864024078
:100E4000E833012000B58BB00121022002F002FB43
:100E50000121022002F0EEFA022204211F4800F0D4
:100E6000E7FF1020099002208DF8280003208DF85C
:100E7000290000208DF82A0001208DF82B0009A9F7
:100E8000164800F08DFF5920ADF818000020ADF88D
:100E90001A00012007900020ADF8200006A9104894
:100EA00002F002FD6020ADF804000120ADF806005C
:100EB0000020ADF8100001A9094802F0ADFC08219E
:100EC000074802F0E7FC0121054802F06DFC012112
:100ED000034802F07BFC0BB000BD000000040240A0
:100EE0000004004010B502A0FFF74EFA10BD00004C
:100EF0004275734661756C745F48616E646C6572AF
:100F00000000000030B585B06A460021214800F09D
:100F100006FA9DF80C009DF80B1040EA012004B27F
:100F20009DF80E109DF80D0041EA002005B20098D2
:100F3000A0F20120062828D2DFE800F003090F15EF
:100F40001B212AB221B2144802F0ECF81EE02AB2AA
:100F500021B2124802F0E6F818E02AB221B2104895
:100F600002F0E0F812E02AB221B20E4802F0DAF8FC
:100F70000CE0002221B20C4802F0D4F806E0002276
:100F800021B20A4802F0CEF800E000BF00BF05B071
:100F900030BD000000640040E82E0120482F0120F1
:100FA000282F0120082F0120682F0120882F0120E1
:100FB00010B54FF40061044800F05DFF4FF40F419D
:100FC000024800F041F810BD0010024000640040EB
:100FD00030B585B06A460021174800F0A0F99DF8A9
:100FE0000C009DF80B1040EA012004B29DF80E1091
:100FF0009DF80D0041EA002005B20098A0F2012002
:1010000020B1012808D0062812D10BE02AB221B263
:101010000A4802F087F80CE02AB221B2084802F030
:1010200081F806E02AB221B2064802F07BF800BF40
:1010300000BF00BF05B030BD00680040583401203B
:101040007834012098340120B1F5007F3AD00FDCCC
:10105000202928D006DC01291CD004291DD008290C
:1010600040D11DE0402921D0B1F5807F3AD126E062
:10107000B1F5004F31D006DCB1F5806F25D0B1F568
:10108000006F2FD124E0B1F5803F12D0B1F5003FC1
:1010900028D111E0154A826025E00822C26022E0D2
:1010A0001022C2601FE0082202611CE010220261CF
:1010B00019E00822426016E01022426013E0042288
:1010C000426010E0042242600DE0042242600AE027
:1010D000002282610422426005E000228261042233
:1010E000426000E000BF00BF704700000101010046
:1010F00010B50021837A012202FA03F13D4A1268F9
:1011000042F001023B4B1A603A4A1C3212688A4391
:10111000384B1C331A60027BCAB9364A0C3212684B
:101120008A43344B0C331A604288C38842EA034333
:10113000304A4032847A42F834300288838842EA66
:1011400003432C4A4032847A02EBC4025360027B90
:10115000012A19D1274A0C3212680A43254B0C3355
:101160001A604288038842EA0343224A4032847A62
:1011700042F83430C288838842EA03431D4A403231
:10118000847A02EBC4025360C27A3AB9194A121D3A
:1011900012688A43174B1B1D1A6006E0154A121D80
:1011A00012680A43134B1B1D1A60028932B9114A97
:1011B000143212688A430F4B14331A600289012AD1
:1011C00006D10C4A143212680A430A4B14331A60CF
:1011D000427B012A06D1074A1C3212680A43054B9A
:1011E0001C331A60034A126822F00102014B1A6094
:1011F00010BD0000006600401AB143690B43436113
:1012000002E043698B434361704730B502460020DA
:101210000023146824F002041460146844F00104EC
:10122000146000E05B1C546804F001041CB94FF624
:10123000FF74A342F6D1546804F001040CB90020F5
:101240006CE08C79012C04D1146844F080041460A3
:1012500003E0146824F080041460CC79012C04D1DC
:10126000146844F04004146003E0146824F040045F
:1012700014600C7A012C04D1146844F0200414602A
:1012800003E0146824F0200414604C7A012C04D18B
:10129000146844F01004146003E0146824F010048F
:1012A00014608C7A012C04D1146844F00804146092
:1012B00003E0146824F008041460CC7A012C04D1F3
:1012C000146844F00404146003E0146824F0040477
:1012D00014608C78A407CD7844EA05640D7944EA5B
:1012E00005444D7944EA05540D886D1E2C43D461A4
:1012F000146824F001041460002300E05B1C5468AF
:1013000004F001041CB14FF6FF74A342F6D15468F7
:1013100004F001040CB1002000E0012030BD10B544
:1013200000F5D87303EB01131B6803F00403137279
:10133000137A53B900F5D87303EB01131B6840F21D
:10134000FF7404EA5353136009E000F5D87303EB0C
:1013500001131B686FF0604404EAD303536000F587
:10136000D87303EB01131B6803F00203537200F5FB
:10137000D87303EB01135B6803F00F03937200F55E
:10138000D87303EB01135B681B0AD37400F5D873A1
:1013900003EB01139B68D37200F5D87303EB0113C1
:1013A0009B681C0A147300F5D87303EB01139B6848
:1013B0001C0C547300F5D87303EB01139B681B0ED0
:1013C000937300F5D87303EB0113DB68D37300F557
:1013D000D87303EB0113DB681C0A147400F5D8738F
:1013E00003EB0113DB681C0C547400F5D87303EB9A
:1013F0000113DB681B0E937421B9C36843F020030B
:10140000C36003E0036943F02003036110BD10B51E
:1014100002460020936803F08063B3F1806F00D12F
:1014200010E0936803F00063B3F1006F01D1012075
:1014300008E0936803F08053B3F1805F01D102208C
:1014400000E00420042874D002F5C07303EB0013FD
:101450001B6803F0010402F5C07303EB00131C606A
:101460000B7A7BB94B7A0C8843EA445302F5C0747B
:1014700004EB00142468234302F5C07404EB001449
:10148000236010E00B7A4C6843EAC4034C7A234390
:1014900002F5C07404EB00142468234302F5C07401
:1014A00004EB001423608B7A03F00F038B7202F5B8
:1014B000C07303EB00135B6823F00F0402F5C073E5
:1014C00003EB00135C6002F5C07303EB00135B6871
:1014D0008C7A234302F5C07404EB001463608B7BA9
:1014E0001C064B7B44EA03440B7B44EA0323CC7A7F
:1014F000234302F5C07404EB0014A3608B7C1C062C
:101500004B7C44EA03440B7C44EA0323CC7B234317
:1015100002F5C07404EB0014E36002F5C07303EB42
:1015200000131B6843F0010402F5C07303EB0013C2
:101530001C6010BD2DE9F04385B004460F461546EA
:101540001E46DDE90C89009700208DF808008DF813
:10155000090008208DF80A00280A8DF80B00E9B26E
:101560008DF80C10310A8DF80D10F1B28DF80E10B7
:101570004FEA18218DF80F1008F0FF018DF81010B8
:101580004FEA19218DF8111009F0FF018DF81210A2
:1015900000BFA06938B1206840F0020020602068D8
:1015A00000F0FD002060A06800F0E0500028F0D0BE
:1015B00069462046FFF72BFF05B0BDE8F083000029
:1015C00013B584B00C46049890ED010AD0ED000AE2
:1015D00030EE600AD0ED020A9FED281A00EE810A73
:1015E000DFED270A20EE200ABDEEC00A8DED000ACD
:1015F000049890ED010AD0ED000A30EE200AD0EDFB
:10160000020A9FED1E1A00EE810ADFED1D0A20EE90
:10161000200ABDEEC00A8DED010A049890ED010A82
:10162000D0ED000A30EE600AD0ED020A9FED151AE7
:1016300000EE810ADFED140A20EE200ABDEEC00A9A
:101640008DED020A049890ED010AD0ED000A30EE0B
:10165000200AD0ED020A9FED0B1A00EE810ADFEDA1
:101660000A0A20EE200ABDEEC00A8DED030A2246CA
:10167000694604A800F00AF806B010BDB81EC5BE41
:1016800009AC7C43B81EC53E09AC7CC310B504460A
:101690009FED371AF0EE410A9FED351AB0EE410A80
:1016A000002023E051F82030002B02DB51F82030DD
:1016B00002E051F820305B4201EE103AB8EEC11A58
:1016C000B4EEE01AF1EE10FA0FDD51F82030002BE5
:1016D00002DB51F8203002E051F820305B4201EE8D
:1016E000103AB8EEC11AF0EE410A401C0428D9DBCA
:1016F0009FED201AF4EEC10AF1EE10FA2EDD9FEDF7
:101700001D1AC1EE201AB0EE610A91ED001AB8EE72
:10171000C11A21EE001ABDEEC11A82ED001A91ED38
:10172000011AB8EEC11A21EE001ABDEEC11A82EDFF
:10173000011A91ED021AB8EEC11A21EE001ABDEE9F
:10174000C11A82ED021A91ED031AB8EEC11A21EE08
:10175000001ABDEEC11A82ED031A07E00B68136090
:101760004B6853608B689360CB68D36010BD0000FA
:101770000000000000002F4410B52DED068BB0EEE8
:10178000408AF0EE608A2748C06B27490860084607
:1017900090ED000ADFED250AB4EEE00AF1EE10FA52
:1017A0002ADB90ED000AB2EE041A20EE010AF0EEF8
:1017B000400A9FED1F0A1F4801F056FD1D48406B6F
:1017C00000F57A7000EE100AB8EEC00A10EE101A9A
:1017D000084606F0A7FC41EC1A0B9FED170B53ECE3
:1017E000102B05F0CFFF41EC190B05F0E5FE00EEE4
:1017F000100ABDEC068B10BDB5EEC08AF1EE10FAF2
:101800000CD1F5EEC08AF1EE10FA07D19FED0C0A6B
:10181000084880ED0B0A002006494863B7EE000A2D
:10182000E7E70000E83301203C010020000070429F
:1018300000002F44AC3301200000000000408F4026
:101840000000000080ED000AC0ED010A80ED021AE0
:1018500070470021018041808180C1808182704772
:101860000A784B7842EA0322C2F30A020280028815
:10187000A2F5806212B202804A78D2108B7842EAD6
:101880004312C2F30A0242804288A2F5806212B279
:1018900042808A789211CB7842EA83020B7942EA3D
:1018A0008322C2F30A0282808288A2F5806212B289
:1018B00082800A7952104B7942EAC312C2F30A02BB
:1018C000C280C288A2F5806212B2C2804A79121127
:1018D000920802724A79C2F3011242728A79CB7974
:1018E00042EA032212B242810A7A4B7A42EA032286
:1018F00013B283818A7ACB7A42EA032213B2C3817C
:101900000B7B03744B7B43748A7BCB7B42EA0322C1
:101910008282704710B513480088C4B21148001F76
:101920000088C4B20021104800F040F80F490E486A
:1019300000F052F810B10E4800F044FF0D490A487B
:1019400000F01AF800BF084800F03BF80028FAD170
:101950002021054800F0ACF80121034800F026F8EA
:1019600010BD0000041401402864024000880010EB
:10197000E8330120000C00100246094B9A4201D2C4
:10198000084801E00648103801F000531BB1064B2F
:101990000B40C36002E0044B0B40836070470000C3
:1019A00010640240006002407D0F7D0F21B102688B
:1019B00042F00102026003E0026822F001020260CC
:1019C0007047014600200A6802F001020AB10120B6
:1019D00000E000207047000030B503460A460020B2
:1019E00000240B4DAB4201D20A4901E008491039ED
:1019F00002F000550DB14C6800E00C68064D2C401B
:101A000004EA02050DB1012000E0002030BD000015
:101A100010640240006002407D0F7D0F10B501F0A0
:101A200080034BB122B1436943F08003436103E07B
:101A3000436923F08003436180290BD02AB10368F6
:101A400001F01E042343036004E0036801F01E0458
:101A5000A343036010BD000010B500220268134BC1
:101A60001A40CC680B6823434C6923438C69234399
:101A7000CC6923430C6A23434C6A23438C6A234377
:101A80004C6B23438C6B23431A430260426922F060
:101A90000702D1E90B3423431A4342610B694360C7
:101AA0004B6883608B68C36010BD00003F801CF0F2
:101AB0004160704710B502A0FEF766FC10BD000043
:101AC00044656275674D6F6E5F48616E646C6572E8
:101AD0000000000070B504466FF0040001F0FEFD48
:101AE000E11704EB5171C1F3C7010D4A1170E11701
:101AF00004EB5171CD104FF47A7045430120094930
:101B000008804FF0E020006940F002004FF0E02133
:101B1000086108464561006940F00100086170BD38
:101B20008C0000208E00002010B54FF4807000F073
:101B300085F800286FD04FF4807000F073F84FF4F0
:101B4000807000F075F80E23334A3B21D02001F05D
:101B5000BBF8314840783049097840EA012000B2AA
:101B60002E4908802C48C0782B49897840EA01200A
:101B700000B22A494880284840792749097940EA33
:101B8000012000B2254988802348C07922498979FB
:101B900040EA012000B22149C8801F48407A1E490E
:101BA000097A40EA012000B21C49088108460089F0
:101BB000C989084400B2194908811748C07A1649F2
:101BC000897A40EA012000B21449488108464089D8
:101BD000098A084400B2114948810F48407B0E49E8
:101BE000097B40EA012000B20C49888108468089BF
:101BF000498A084400B2094988810948006941F6C8
:101C00005831884204DC06480069401C04490861D8
:101C1000034800F053F910BDB42E0120A02E01207E
:101C20003C3101200149086070470000143C01402C
:101C30000149086070470000143C01400146002043
:101C4000034A12680A400AB1012000E000207047F0
:101C5000143C0140002123498279002A3AD00A46E7
:101C6000126803689A430B461A600A1D12680368DB
:101C70009A430B1D1A60027911440A6803681A43DB
:101C80000A60184A0832126803689A43154B0833F1
:101C90001A601A1D126803689A43124B0C331A60BB
:101CA0004279102A0ED11A1F126803681A430D4B8D
:101CB00008331A601A1D126803681A43094B0C3363
:101CC0001A600DE00749427911440A6803681A4313
:101CD0000A6005E0027911440A6803689A430A60C1
:101CE00070470000003C014090ED020AB5EEC00ACA
:101CF000F1EE10FA02DB90ED020A03E090ED020A29
:101D0000B1EE400AD0ED060AF5EEC00AF1EE10FA87
:101D100002DBD0ED060A03E0D0ED060AF1EE600A20
:101D2000B4EEE00AF1EE10FA07D290ED030AD0ED1E
:101D3000020A30EE600A80ED030A90ED000AD0ED51
:101D4000030A30EE200A80ED040A90ED040A704781
:101D5000416981B901214161DFED100AC0ED020A3C
:101D6000DFED0E0AC0ED030A80ED000A80ED010AE6
:101D700080ED040A7047D0ED000AC0ED010A80ED45
:101D8000000AD0ED000A90ED011A70EEC10AC0ED14
:101D9000020A4169491C416100BFEBE700000000F5
:101DA000F0B50A4600210023002400BF3DE00125D4
:101DB00005FA01F3156805EA03049C4234D105686D
:101DC0004F000326BE40B543056015794E00B5406F
:101DD0000668354305601579012D02D01579022D6D
:101DE00016D185684F000326BE40B54385605579FE
:101DF0004E00B540866835438560456801268E40B3
:101E0000B5434560456896798E40B6B23543456026
:101E1000C5684F000326BE40B543C560D5794E0066
:101E2000B540C6683543C560491C1029BFD3F0BD15
:101E3000F0B5002300244D07ED0E02FA05F3CE1095
:101E400000F1200555F826504E07F70E0F26BE402C
:101E5000B543CF1000F1200646F82750CE1000F110
:101E6000200555F8265045EA0304CE1000F1200560
:101E700045F82640F0BD41837047018370474269B1
:101E80004A4042617047000030B5034613B94FF62F
:101E9000FF7030BD09E013F8014B82EA0400C0B2C4
:101EA000054D35F8100080EA22220800A1F1010159
:101EB000F1D11046EDE700001C83000870B52DED50
:101EC0000A8B0446F748B0F9080000EE100AB8EE95
:101ED000C00A9FEDF51AC0EE010A9FEDF40A20EE4C
:101EE000800A10EE105A284606F01CF941EC190B36
:101EF0009FEDEF0B53EC102B05F044FC41EC180B5D
:101F000005F05AFBEC490860E648B0F90A0000EE1B
:101F1000100AF8EEC00A9FEDE41A80EE810ADFEDA8
:101F2000E30A20EE200A10EE105A284606F0FAF8CE
:101F300041EC190B9FEDDE0B53EC102B05F022FC4E
:101F400041EC180B05F038FBDC490860D548B0F9C6
:101F50000C0000EE100AB8EEC00A9FEDD31AC0EED6
:101F6000010A9FEDD20A20EE800A10EE105A284690
:101F700006F0D8F841EC190B9FEDCD0B53EC102B6C
:101F800005F000FC41EC180B05F016FBCC4908608D
:101F9000C448B0F9000000EE100AB8EEC00ADFED48
:101FA000C90A80EE201AC84880ED001ABD48B0F971
:101FB000020000EE100AB8EEC00ADFEDC20A80EEA1
:101FC000201AC24880ED001AB648B0F9040000EEAD
:101FD000100AB8EEC00ADFEDBB0A80EE201ABC483A
:101FE00080ED001AD0ED002AB84890ED002AB648DE
:101FF000D0ED001A084690ED001AB048D0ED000A66
:10200000AD4890ED000A00F071FEB24890ED000A74
:10201000D0ED000A20EE200AAF48D0ED000A90ED86
:10202000001A00EEC10AAD48D0ED000A90ED001A8A
:1020300000EEC10AAA48D0ED000A90ED001A00EEA9
:10204000810A10EE101A084606F06CF841EC1B0BE2
:10205000A04890ED000AA048D0ED000A20EE200A2A
:102060009E48D0ED000A9E4890ED001A00EE810ACD
:10207000F0EE000A20EE200A10EE101A084606F0D4
:1020800051F841EC1C0BB0EE4B1AF0EE6B1AB0EEAF
:102090004C0AF0EE6C0A03F057F8B0EE40AAF0EEEE
:1020A00060AA9FED830B53EC102B51EC1A0B05F03B
:1020B00043FD41EC190B9FED8B0B53EC102B05F0FE
:1020C00061FB41EC180B05F077FA884908608148FC
:1020D00090ED000A8148D0ED000A20EE200A7E48EB
:1020E000D0ED000A7E4890ED001A00EEC10AF0EE35
:1020F000000A20EE200A10EE101A084606F012F828
:1021000041EC1B0BB0EE4B0AF0EE6B0A02F000FD47
:10211000B0EE40AAF0EE60AA9FED650B53EC102BD9
:1021200051EC1A0B05F008FD41EC190B9FED6D0BFE
:1021300053EC102B05F026FB41EC180B05F03CFA94
:102140006B490860634890ED000AD0ED000A20EE6C
:10215000200A6148D0ED000A90ED001A00EE810AD5
:102160005E48D0ED000A90ED001A00EEC10A5C480E
:10217000D0ED000A90ED001A00EEC10A10EE101A20
:10218000084605F0CFFF41EC1B0B534890ED000AC9
:102190005248D0ED000A20EE200A4E48D0ED000A49
:1021A0004F4890ED001A00EE810AF0EE000A20EE92
:1021B000200A10EE101A084605F0B4FF41EC1C0B83
:1021C000B0EE4B1AF0EE6B1AB0EE4C0AF0EE6C0A61
:1021D00002F0BAFFB0EE40AAF0EE60AA9FED340B19
:1021E00053EC102B51EC1A0B05F0A6FC41EC190B2B
:1021F0009FED3C0B53EC102B05F0C4FA41EC180B8F
:1022000005F0DAF93B490860084690ED000A3A48C3
:10221000FFF79EFD384890ED020ADFED380AB4EE74
:10222000E00AF1EE10FA08DD90ED030ADFED340A62
:1022300030EE600A80ED030A11E02F4890ED020AAB
:10224000DFED300AB4EEE00AF1EE10FA07D290EDBD
:10225000030ADFED2B0A30EE200A80ED030A264840
:10226000FFF742FDD4ED030A30EE200A84ED000AA8
:1022700041F657312069884205D194ED000AB1EE4C
:10228000400A84ED030A194890ED000AB1EE400AB5
:1022900084ED010A164890ED000A84ED020ABDECB7
:1022A0000A8B70BDA02E012033338341DA0F4940E1
:1022B0000000000000806640C0000020C400002034
:1022C000C800002000008045CC000020D000002085
:1022D000D400002094000020980000209C000020E2
:1022E000A000002000000040FB210940B8000020B1
:1022F000B4000020BC000020D8000020000096435D
:102300000000B443000096C310B500219FED1E0AE3
:102310001E4800F0EBFE00219FED1B0A1C4800F058
:10232000E5FE00219FED180A1A4800F0DFFE0021AB
:102330009FED150A184800F0D9FE0021B7EE000AFB
:10234000164800F0D3FE0021B7EE000A144800F052
:10235000CDFE01219FED130A134800F0C7FE0020B7
:10236000124908610121B7EE000A114800F0BEFED3
:102370004FF42A600E4988800121B7EE000A0D480B
:1023800000F0B4FE10BD00009A999941E82E01209A
:10239000482F0120282F0120082F01205834012028
:1023A0007834012000001042983401203C31012093
:1023B000682F0120882F012010B502A0FDF7E4FF4F
:1023C00010BD0000486172644661756C745F4861BD
:1023D0006E646C657200000010B5044600200F4961
:1023E000086000F0D9F8012000F01CF824B10120A9
:1023F0000A490831086003E00020084908310860F4
:10240000012000F00FF801200449086000F00AF8EC
:1024100000200349C1F89C0210BD00009C8242428A
:102420000080424210B5002106E0642200BF130084
:10243000A2F10102FBD1491C8142F6D310BD00007C
:1024400001200349086000200249C1F8A00270473A
:10245000988242420080424270B5002400F086F823
:102460000120FFF7DFFF002516E000200E4908607D
:102470000220FFF7D7FF01200C49C1F89C0260063B
:10248000040E09487838006808B1601CC4B2022004
:10249000FFF7C8FF681CC5B2082DE6DB0020024923
:1024A0000860204670BD00009C824242008042428B
:1024B0002DE9F04107460E461446984600F084F890
:1024C000FF2805D120A0FDF75FFFFF20BDE8F081C8
:1024D000384600F0F9F800F0CDF8FF2800D1F5E714
:1024E000304600F0F1F800F0C5F8FF2804D119A03B
:1024F000FDF74AFFFF20E9E700F066F8791CC8B253
:1025000000F0E2F800F0B6F8FF2804D114A0FDF7BF
:102510003BFFFF20DAE7002508E0FFF79DFF207072
:102520000020FFF759FF641C681CC5B2A8F1010028
:10253000A842F2DCFFF790FF20700120FFF74CFF6C
:1025400000F07EF80020C1E76572726F7220370DCF
:102550000A0000006572726F7220390D0A000000D7
:102560006572726F722032480D0A00001CB54FF47C
:102570000070009000208DF804008DF80600012006
:102580008DF8070003208DF8050069460148FFF724
:1025900007FC1CBD001402401CB54FF400700090F5
:1025A00001208DF8040000208DF8060001208DF830
:1025B000070003208DF8050069460248FFF7F0FB8D
:1025C0001CBD00000014024010B5FFF7E5FF01201C
:1025D000134908601348D0F8240220B912A0FDF76F
:1025E000D3FEFF2010BD01200D4908390860FFF718
:1025F00019FF00200B49C1F8A4020948803800687F
:1026000020B10CA0FDF7C0FEFF20EBE70120FFF793
:1026100009FF002002490839086000BFE2E7000016
:10262000A4824242008042426572726F7220312160
:102630000D0A00006572726F722032210D0A0000CF
:1026400010B5FFF7A9FF0020084908600849C1F844
:10265000A4020120FFF7E6FE012004490860FFF70D
:10266000E1FE01200249C1F8A40210BD9C82424251
:102670000080424210B50024FFF778FF0120104986
:102680000860FFF7CFFE01200E49C1F89C02FFF75A
:10269000C9FE0AE0601C84B2322C03DDFFF7D0FFD4
:1026A000FF2010BD0520FFF7BDFE054880380068FB
:1026B0000028EFD102490839086000BFF1E70000A7
:1026C000A48242420080424270B50446FFF764FF94
:1026D00000201349086000251EE004F0800020B1AE
:1026E00001200F490831086003E000200C4908313F
:1026F00008606006040E0120FFF794FE01200849DF
:102700000860FFF78FFE00200649C1F89C020120F7
:10271000FFF788FE681CC5B2082DDEDB70BD000027
:102720009C8242420080424270B506460C461546E5
:10273000FFF74AFFFF2804D116A0FDF725FEFF2072
:1027400070BD3046FFF7C0FFFFF794FFFF2804D1AC
:1027500013A0FDF719FEFF20F2E72046FFF7B4FFB4
:10276000FFF788FFFF2804D110A0FDF70DFEFF2022
:10277000E6E72846FFF7A8FFFFF77CFFFF2804D114
:102780000DA0FDF701FEFF20DAE7FFF759FF00205B
:10279000D6E700006572726F7220332100000000DE
:1027A0006572726F7220340D0A0000006572726FDC
:1027B0007220350D0A0000006572726F7220360DAE
:1027C0000A000000F8B5044600260027002509E1AC
:1027D000A05DA5287ED1042E7DDA701D205C042822
:1027E00079D1002505E07019205CBC494855681C6A
:1027F000C5B21D2DF7DB1D21B84802F051F90128A3
:102800007CD1B648807A8DF80300B448407A8DF8C0
:102810000200B248007A8DF80100B048C0798DF806
:10282000000000982063AD48807B8DF80300AB4822
:10283000407B8DF80200A948007B8DF80100A74875
:10284000C07A8DF800000098C4F83600D4F836003D
:1028500000EE100ABCEEC00A10EE100A81B204F1BC
:10286000300061879D48807C8DF803009B48407C48
:102870008DF802009948007C8DF801009748C07BD4
:102880008DF800000098E063E06B00EE100ABCEEEB
:10289000C00A10EE100A81B204F13000A4F8401012
:1028A0008E48807D8DF803008C48407D8DF80200B5
:1028B0008A48007D8DF801008848C07C8DF80000B2
:1028C0000098C4F84200D4F8420000EE100ABCEEB2
:1028D000C00A01E084E011E010EE100A81B204F1B8
:1028E0003000A4F846107D48C07D7C49097E40EA4E
:1028F000012104F13000A4F848100427701D205C69
:10290000032837D1002505E07019205C734948552C
:10291000681CC5B20F2DF7DB0F21704802F0C0F81C
:10292000012827D16D48C07984F828006B48017AC6
:10293000292001556948007B8DF803006748C07A5B
:102940008DF802006548807A8DF801006348407A6E
:102950008DF800000098C4F82A00D4F82A0000EE90
:10296000100ABCEEC00A10EE100A81B204F1280071
:10297000E1850327701D205C012831D1002505E089
:102980007019205C55494855681CC5B2112DF7DBFC
:102990001121524802F084F8012821D14F48C07912
:1029A0004E49097A40EA012020844C48417A22208D
:1029B00001554A48817A232001554848C07A474941
:1029C000097B40EA012104F12000A1844348407BB7
:1029D0004249897B40EA012104F12000E18401277A
:1029E000701CC6B217B9122EFFF6F2AE012E74D1CA
:1029F000012F35D106F11100C6B2A05DA5286CD11A
:102A0000701D205C032868D1002505E07019205C4A
:102A100032494855681CC5B20F2DF7DB0F212F48EE
:102A200002F03EF8012858D12C48C07984F82800DB
:102A30002A48017A292001552848007B8DF8030097
:102A40002648C07A8DF802002448807A8DF801006B
:102A50002248407A8DF800000098C4F82A003CE033
:102A6000032F3AD106F10F00C6B2A05DA52834D1DC
:102A7000701D205C012830D1002505E07019205C14
:102A800016494855681CC5B2112DF7DB11211348B2
:102A900002F006F8012820D11048C0790F49097AC0
:102AA00040EA012020840D48417A222001550B483C
:102AB000817A232001550948C07A0849097B40EAF8
:102AC000012104F12000A1840448407B0349897B53
:102AD00040EA012104F12000E184F8BDC82E012064
:102AE000002222210A5400F12001C28482840122A2
:102AF00023210A5400210184002229210A549FED38
:102B0000130A10EE101AC0F82A10012180F82810BC
:102B10009FED0E0A10EE101AC0F836109FED0B0A4A
:102B200010EE101AC1639FED090A10EE101AC0F8DA
:102B30004210B3EE080A10EE101A016300F13001E2
:102B4000A0F84820A0F84A207047000000000000CC
:102B50001CB50121302000F06DFC4FF400600090A6
:102B600001208DF8040000208DF8060003208DF868
:102B7000050001208DF8070069461048FFF710F99D
:102B80004FF48040009001208DF8040000208DF863
:102B9000060003208DF8050001208DF80700694626
:102BA0000748FFF7FDF84FF400610448FFF765F9A7
:102BB0004FF480410248FFF760F91CBD001002404D
:102BC0000014024010B501221921D020FFF7ACFDFE
:102BD000FF2800D110BD0A2002F066FC0122382136
:102BE000D020FFF7A1FDFF2800D1F3E70020F1E797
:102BF00008B500200090FFF723FC01236A467521E9
:102C0000D020FFF755FC50B99DF80000702801D086
:102C1000FF2008BD9DF800002549088001E0FF2045
:102C2000F7E701226B21D020FFF77EFDFF2800D1BE
:102C3000EFE701221A21D020FFF776FDFF2800D10F
:102C4000E7E718221B21D020FFF76EFDFF2800D1F7
:102C5000DFE710221C21D020FFF766FDFF2800D1FE
:102C6000D7E701221D21D020FFF75EFDFF2800D10C
:102C7000CFE702223721D020FFF756FDFF2800D1F1
:102C8000C7E700223821D020FFF74EFDFF2800D1F2
:102C9000BFE700226A21D020FFF746FDFF2800D1C0
:102CA000B7E74FF4FA7002F0FFFB0020B1E7000035
:102CB000A400002010B502E0C82002F0F5FBFFF7E9
:102CC00097FFFF28F8D010BD2DE9F04104460D46CE
:102CD00016461F463B46324629462046FFF7E8FB8C
:102CE000FF2801D1BDE8F0810020FBE700B52DED04
:102CF000108B81B0F0EE404AB0EE605AF0EE415ACF
:102D0000F0EE613AB0EE423AB0EE624AE94890ED38
:102D1000000AB1EE400A20EE240AE748D0ED000A8E
:102D200000EEC50AE548D0ED000A00EEE50AF6EE31
:102D3000000A20EE200AF0EE40EAE14890ED000A99
:102D400020EE240ADC48D0ED000A00EEA50ADB489C
:102D5000D0ED000A00EEC50AF6EE000A20EE200AC9
:102D6000B0EE40FAD64890ED000A20EE050AD148B0
:102D7000D0ED000A00EEE50AD048D0ED000A00EEE2
:102D8000A40AF6EE000A20EE200AF0EE40FACC4843
:102D900090ED000A20EE250AC648D0ED000A00EEAC
:102DA000850AC548D0ED000A00EEE40AF6EE000AF6
:102DB00020EE200A8DED000AF5EEC03AF1EE10FA91
:102DC00009D1B5EEC03AF1EE10FA04D1B5EEC04A21
:102DD000F1EE10FA7DD063EEA30A43EE030A44EE4F
:102DE000040AB0EE600A02F0BFFBF0EE402A23EEC8
:102DF000A20AF0EE403A23EE220AB0EE403A24EE68
:102E0000220AB0EE404AAE4890ED000AF0EE000A09
:102E100020EE20AAA74890ED000AF0EE000A60EE2E
:102E200020AAA54890ED000AF0EE000A20EE20BA94
:102E3000A24890ED000AF0EE000A60EE20BAA04829
:102E400090ED000AF1EE000A20EE20CA994890EDBC
:102E5000000AF1EE000A60EE208A974890ED000A21
:102E6000F1EE000A20EE209A924890ED000AF2EE70
:102E7000000A60EE20CA904890ED000AF2EE000AC7
:102E800020EE20DA8E4890ED000AD0ED000A60EEC8
:102E900020DA884890ED000AD0ED000A20EE206A82
:102EA000854890ED000AD0ED000A60EE206A834864
:102EB00090ED000AD0ED000A20EE20EA2CEE260A62
:102EC0000BEE230A0CEE060A0AEEC30AF0EE409A55
:102ED00000E087E028EE8E0A0BEEE30AF1EE000A2E
:102EE0006DEEA00A734890ED001A00EE810A0AEE1A
:102EF000430A30EE680A0CEE860A0CEEA60A08EECB
:102F0000840AB0EE407AB1EE000A2DEE800A6A48DB
:102F1000D0ED000A20EE200A0AEE230A09EE0E0A7E
:102F20000BEEC30A30EE490A0DEE060A0DEE260A34
:102F300009EE040AF0EE407AB1EE000A26EE000A2D
:102F40005E48D0ED000A20EE200A0AEEE30AF1EE18
:102F5000000A66EEA00A90ED001A00EE810A0BEE60
:102F6000430AB0EE408A69EEA90A47EE070A47EE27
:102F7000A70A48EE080AB0EE600A02F0F5FAF0EE91
:102F8000402A29EEA20AF0EE409A27EE220AB0EE7D
:102F9000407A27EEA20AF0EE407A28EE220AB0EE3E
:102FA000408A4848D0ED000AB0EE6E0A00EEE90A09
:102FB000F0EE40EAD0ED000AB0EE4F0A00EEC70A8C
:102FC000B0EE40FAD0ED000AB0EE6F0A00EEE70A6C
:102FD000F0EE40FA9DED000AD0ED000A00EEC80ABE
:102FE0008DED000A364890ED000ADFED370A0EEE4F
:102FF000A00A80ED000A2F4890ED000ADFED320AAA
:103000000FEE200A80ED000A2B4890ED000ADFED5C
:103010002E0A0FEEA00A80ED000A2848D0ED000A23
:103020009DED000A9FED281A40EE010AC0ED000A4E
:103030002348D0ED000A90ED001A60EE810A1D4889
:1030400090ED001AD0ED001A41EE210A1A4890EDD9
:10305000001AD0ED001A41EE210A184890ED001A2E
:10306000D0ED001A41EE210AB0EE600A02F07CFABF
:10307000F0EE402A124890ED000A20EE220A80ED80
:10308000000A0C4890ED000A20EE220A80ED000AAA
:10309000094890ED000A20EE220A80ED000A074858
:1030A00090ED000A20EE220A80ED000A01B0BDEC8E
:1030B000108B00BD980000209C000020A000002084
:1030C00094000020900000206F12033B10B502A076
:1030D000FDF75AF910BD00004D656D4D616E6167D9
:1030E000655F48616E646C65720000004FF0FF32EE
:1030F000828080ED070A8172002202804280C280B5
:1031000002818281DFED060AC0ED040ADFED040AC8
:10311000C0ED050ADFED020AC0ED060A70470000A7
:103120000000000010B5B0F904305B1C13B98180B9
:10313000018010BD0388438001800281837AC3B37C
:10314000038844881B1B1BB2C380B0F906301A4C9D
:10315000A34204DA83895B1C1BB2838109E0B0F9C6
:10316000063041F26804A34203DD83895B1E1BB273
:103170008381B0F90030B0F904401B1B00EE103A17
:10318000B8EEC00A9FED0D1AC0EE010A83894FF414
:10319000B47413FB04F300EE103AB8EEC00A9FEDCE
:1031A000081A00EE810AD0ED070A80EE201A80EDA1
:1031B000041A00BFBDE7000098EFFFFF00000046C3
:1031C0000000B44310B502A0FDF7DEF810BD00000A
:1031D0004E4D495F48616E646C65720070B50021A8
:1031E00000230F22C4781CB3174C246804F4E06455
:1031F000C4F5E064C4F30721C1F10404E3B20A4159
:1032000044789C40E1B28478144021430C07210E9D
:103210000E4C05786155047804F01F050124AC407C
:1032200005786D11AD0005F1E025C5F8004109E014
:10323000047804F01F050124AC40054D0678761192
:1032400045F8264070BD00000CED00E000E400E011
:1032500080E100E002490143024A1160704700002A
:103260000000FA050CED00E0014691ED051A81ED34
:10327000071A81ED050AC1ED060A486B886391EDD6
:10328000051AD1ED061A31EE611A81ED081A91ED99
:10329000001AD1ED081A21EE211A81ED0A1A91EDDA
:1032A0000B1AD1ED011A91ED082A01EE821A81ED77
:1032B0000B1A91ED0B1AD1ED041AF1EE611AB4EE6E
:1032C000E11AF1EE10FA02DD91ED0B1A05E091ED35
:1032D000041AB1EE411A81ED0B1AD1ED041AB4EEC5
:1032E000E11AF1EE10FA02D291ED0B1A01E091ED24
:1032F000041A81ED0B1A91ED0A1AD1ED0B1A31EE79
:10330000211AD1ED0C1A31EE211ABDEEC11A81ED50
:103310000D1A91ED0D1AB8EEC11AD1ED031AF1EEA6
:10332000611AB4EEE11AF1EE10FA02DD91ED0D1A18
:1033300007E091ED031AB1EE411ABDEEC11A81ED1D
:103340000D1AB8EEC11AD1ED031AB4EEE11AF1EE7E
:1033500010FA04D291ED0D1AB8EEC11A01E091ED08
:10336000031ABDEEC11A81ED0D1A91ED081A81ED17
:10337000091A486B7047014681ED050AC1ED060A3E
:10338000486B886391ED051AD1ED061A31EE611A8A
:1033900081ED081A91ED001AD1ED011A31EE211AD2
:1033A000D1ED081A21EE211AD1ED001A91ED092A6A
:1033B00001EEC21AD1ED0D1AF8EEE11A31EE211A22
:1033C000BDEEC11A81ED0D1A91ED081A81ED091AB1
:1033D000486B704780ED000AC0ED010A80ED021ACB
:1033E000C0ED031A80ED042ADFED112AC0ED052A95
:1033F000DFED0F2AC0ED072ADFED0D2AC0ED062A0A
:10340000DFED0B2AC0ED082ADFED092AC0ED092AFD
:10341000DFED072AC0ED0A2ADFED052AC0ED0B2AF1
:10342000DFED032AC0ED0C2A002141638163704760
:103430000000000029B1064A12680243044B1A60DA
:1034400004E0034A12688243014B1A60704700008F
:103450003038024029B1064A12680243044B1A6010
:1034600004E0034A12688243014B1A60704700006F
:103470004038024029B1064A12680243044B1A60E0
:1034800004E0034A12688243014B1A60704700004F
:1034900044380240F0B50021002200240225002615
:1034A0000223324F3F6807F00C0121B1042905D0F7
:1034B000082937D105E02E4F076036E02D4F076011
:1034C00033E02A4F3F1F3F68C7F38056274F3F1F07
:1034D0003F6807F03F036EB1264FB7FBF3F7DFF805
:1034E0008CC0ACF1040CDCF800C0CCF3881C07FBEA
:1034F0000CF40CE01E4FB7FBF3F7DFF870C0ACF133
:10350000040CDCF800C0CCF3881C07FB0CF4174F4C
:103510003F1F3F68C7F301477F1C7D00B4FBF5F7F1
:10352000076002E0124F076000BF00BF0F4F3F6807
:1035300007F0F0010909104F7A5C0768D74047602F
:103540000A4F3F6807F4E051890A0B4F7A5C4768DD
:10355000D7408760054F3F6807F46041490B064F2D
:103560007A5C4768D740C760F0BD00000838024069
:103570000024F400001BB7000000002030B500223A
:103580008B071C0F0F2303FA04F20B4B8C1053F81C
:1035900024309343084C8D1044F8253023468C107A
:1035A00053F824308C07240F00FA04F42343024C10
:1035B0008D1044F8253030BD083801400CB500208E
:1035C000019000904148006840F480303F49086015
:1035D00000BF3E48006800F4003000900198401C95
:1035E0000190009818B90198B0F5A04FF1D1374873
:1035F000006800F4003010B10120009001E00020CC
:1036000000900098012860D130484030006840F0B8
:1036100080502E49403108602D48006840F44040F9
:103620002B4908602948083000682849083108609B
:103630000846006840F4004008600846006840F40E
:10364000A05008602348091F0860081F006840F068
:103650008070091F086000BF1C48006800F00070FF
:103660000028F9D01A48006840F4803018490860F2
:1036700000BF1748406800F480300028F9D0144893
:10368000006840F400301249086000BF10484068EC
:1036900000F400300028F9D040F205700E490860AF
:1036A0000A480830006820F0030008490831086023
:1036B0000846006840F00200086000BF0348083078
:1036C000006800F00C000828F8D10CBD003802405A
:1036D000007000400C5A4007003C0240042808D10A
:1036E0004FF0E021096941F004014FF0E02211613F
:1036F00007E04FF0E021096921F004014FF0E022DA
:103700001161704710B503F0F1FC012801D003F0FE
:10371000B3F910BD10B51548006840F470001349A6
:1037200008601348006840F001001149086000205B
:103730000F49083108600E4800680E4908400C49DE
:1037400008600D48091D0860081F006820F48020EB
:10375000091F0860002006490C310860FFF72EFFA2
:103760004FF0006001498039086010BD88ED00E02D
:1037700000380240FFFFF6FE1030002410B5012192
:10378000880700F02FF860B106480068401C054922
:1037900008600121880700F016F80121880700F071
:1037A0000FF810BD1801002021B1028842F08002FC
:1037B000028004E002884FF67F731A40028070474F
:1037C000CA4302827047CA430282704721B102880D
:1037D00042F00102028004E002884FF6FE731A40B4
:1037E0000280704730B50246002000230024158A6D
:1037F00005EA0103958905EA010413B10CB1012022
:1038000000E0002030BD1AB183890B43838102E0C0
:1038100083898B438381704770B500240022002385
:10382000058C4FF6FE7635400584028C8388048B28
:103830004FF68F752C40B51E2C400D882C43751EFD
:103840002A408D892A434D882A43104DA84202D030
:103850000F4DA84213D14FF6F7752A40CD892A4360
:103860004FF6FB752A408D882A434FF6FF652B40A3
:103870004FF6FF552B400D8A2B434D8A2B438380F7
:1038800004838D684563028470BD00000000014020
:10389000000401400A460021018B4FF6F7731940DE
:1038A000114301837047000000220288184B9842A0
:1038B0000ED0184B98420BD0B0F1804F08D0164B69
:1038C000984205D0154B984202D0154B984204D12E
:1038D0004FF68F731A404B881A43124B984207D009
:1038E000114B984204D04FF6FF431A400B891A43FC
:1038F00002804B68C3620B880385054B984202D057
:10390000044B984201D18B7A03860123838270474E
:103910000000014000040140000400400008004095
:10392000000C0040001000400014004008B503F0F7
:10393000EDFB009008E04FF480410448FEF79FFA49
:10394000FA21684602F0A8FDF5E7000000140240E5
:103950002DED0C8B88B003F0D9FB07909FEDFE0A8C
:10396000F0EE409A0024B7EE000AB0EE409A9FEDC8
:10397000FB0AB0EE408A9FEDF90AF0EE408A9FED17
:10398000F70AB0EE40DA9FEDF50AF0EE40DA9FED6F
:10399000F30AB0EE40AA9FEDF10AF0EE40AA9FEDC7
:1039A000F02ADFEDF01A9FEDED1AF6EE000AB3EE05
:1039B000090AED48FFF70EFD9FEDE92ADFEDE91A50
:1039C0009FEDE61AF6EE000AB3EE090AE748FFF7A4
:1039D00001FD9FEDE32ADFEDE31A9FEDE01AF6EE1D
:1039E000000AB3EE090AE248FFF7F4FC9FEDDC2A77
:1039F000DFEDDC1A9FEDD91AF6EE000AB3EE090AE4
:103A0000DC48FFF7E7FC9FEDD52ADFEDDB1A9FEDE1
:103A1000D31ADFEDD20AB3EE010AD848FFF7DAFC79
:103A20009FEDCE2ADFEDD61A9FEDCC1ADFEDCB0A43
:103A30009FEDD40AD448FFF7CDFC9FEDCF2ADFEDF0
:103A4000D31A9FEDC61ADFEDD20AB6EE000AD148AE
:103A5000FFF7C0FC12E2D04890ED040AF0EE080A2D
:103A6000B4EEE00AF1EE10FA0AD290ED040AF8EE94
:103A7000080AB4EEE00AF1EE10FA01DD00241EE0BF
:103A8000C54890ED040AF0EE400A9FEDB40ABB4829
:103A9000FFF7EAFBC048B0F9060001EE100AB8EEE5
:103AA000C11AF0EE410AB54890ED0D1AB8EEC11AF0
:103AB000B0EE410AB448FFF7D7FBB348446BB748B0
:103AC000B0F9040000EE100AB8EEC00AB0EE408A69
:103AD000B248B0F9060000EE100AB8EEC00AF0EEE7
:103AE000408AB5EEC08AF1EE10FA02DBB0EE480A69
:103AF00001E0B1EE480ADFEDAA0AB4EEE00AF1EE09
:103B000010FA03D29FED950AB0EE40AAF5EEC08AF6
:103B1000F1EE10FA02DBB0EE680A01E0B1EE680ADD
:103B2000DFEDA00AB4EEE00AF1EE10FA03D29FED49
:103B30008B0AF0EE40AA9FED9A0AB4EEC08AF1EE2D
:103B400010FA13DBB4EEC8DAF1EE10FA0ED29FEDE4
:103B5000940A3AEE000AB0EE408AB7EE000A3AEE56
:103B6000000AB0EE40AAB0EE48DA19E09FED8E0AE6
:103B7000B4EEC08AF1EE10FA12D8B4EEC8DAF1EE63
:103B800010FA0DDD9FED880A30EE4A0AB0EE408A49
:103B9000B7EE000A3AEE000AB0EE40AAB0EE48DAFC
:103BA0009FED800AF4EEC08AF1EE10FA1FDDF4EE0C
:103BB000E8DAF1EE10FA1AD29FED7A0A3AEE800AAC
:103BC000F0EE408A1AEE900A04F0ACFA41EC1C0BBD
:103BD0009FED760B53EC102B03F020FD41EC1B0BFB
:103BE00003F0EAFC0AEE900AF0EE68DA25E09FEDB9
:103BF000710AF4EEC08AF1EE10FA1ED2F4EEE8DAA1
:103C0000F1EE10FA19DD9FED6B0A30EE6A0AF0EE64
:103C1000408A1AEE900A04F085FA41EC1C0B9FEDE5
:103C2000630B53EC102B03F0F9FC41EC1B0B03F07E
:103C3000C3FC0AEE900AF0EE68DAB1EE480ADFED56
:103C4000500A80EE201AB0EE418ADFED4D0A88EE70
:103C5000A00AF0EE080A20EE200AF0EE408A604248
:103C600000EE100AB8EEC00A9FED451AC0EE010A38
:103C7000B2EE080A20EE800ABDEEC00A10EE104A2D
:103C80004D48C06B00EE100ABDEEC00A4B4880EDF7
:103C9000000A00EE104AB8EEC01AF0EE680AB0EE64
:103CA000480A4748FDF7CEFD03A94548FDF788FCC3
:103CB000F0EE680AB0EE480AFDF75EFDB0EE409AFD
:103CC0009DED030AB8EEC00A20EE090ABDEEC00A57
:103CD0008DED030A9DED040AB8EEC00A20EE090A34
:103CE000BDEEC00A8DED040A9DED050AB8EEC00ACE
:103CF00020EE090ABDEEC00A8DED050A9DED060A0B
:103D0000B8EEC00A20EE090ABDEEC00A8DED060A23
:103D1000BDEEC90A2B4880ED000A2B4890ED000A41
:103D2000BDEEC00A294880ED000A2948B0F9080014
:103D300001EE100AB8EEC11A21EE291AF0EE410A7E
:103D40009DED031AB8EEC11AB0EE410A0648FFF71E
:103D50008BFA204840E000007A5B563D00000000EE
:103D600000C0DA4400C05A454432012080320120AC
:103D7000BC320120F83201200000FA4398300120C3
:103D800000002544AE47613ED430012000007A4453
:103D90000AD7A33CAC330120882F01202431012015
:103DA0000000B4420000F0420000B4C233333333A9
:103DB0003333D33F0000F0C2E8330120300100204C
:103DC00028320120380100203C010020340100206D
:103DD000E82E0120482F0120B0F9080001EE100A5A
:103DE000B8EEC11A21EE291AF0EE410A9DED041A2F
:103DF000B8EEC11AB0EE410A2148FFF735FA214862
:103E0000B0F9080001EE100AB8EEC11A21EE291A25
:103E1000F0EE410A9DED051AB8EEC11AB0EE410A66
:103E20001948FFF721FA1948B0F9080001EE100A05
:103E3000B8EEC11A21EE291AF0EE410A9DED061ADC
:103E4000B8EEC11AB0EE410A1148FFF70DFA10485A
:103E5000808E00B20C49898E09B2CDE90010084865
:103E6000808E03B20B48808E02B24FF400710A4874
:103E7000FDF760FB0A2107A802F00EFBEBE500004E
:103E800080320120282F0120BC320120082F012080
:103E9000F832012044320120006400402DED0E8BE9
:103EA00084B003F033F903902320AE49C8816FF04A
:103EB000080008826FF0130048829FEDAB0AF0EE15
:103EC000408A9FEDA90AB0EE409A9FEDA70AB0EE96
:103ED00040AA9FEDA50AF0EE40AA9FEDA30AB0EE1E
:103EE00040EA9FEDA10AF0EE40EA9FED9F0AF0EE56
:103EF000409A9FED9D0AB0EE408A9FED9B2ADFED30
:103F00009B1A9FED991ADFED980AB2EE040A9848C1
:103F1000FFF760FA9FED942ADFED941A9FED921A55
:103F2000DFED910AB2EE0E0A9248FFF753FA9FEDC9
:103F30008E2ADFED8E1A9FED8C1ADFED8B0AB3EE21
:103F4000040A8D48FFF746FA9FED872ADFED8B1AAA
:103F50009FED851ADFED840AB2EE0E0A8848FFF75E
:103F600039FAFDE0874890ED000AB1EE400AB0EE64
:103F700040EA90ED010AF0EE40EA7A48B0F90C0010
:103F800000EE100AB8EEC00ADFED7F0A80EE201ABC
:103F9000B1EE410AB0EE40AA7248B0F9080000EE56
:103FA000100AB8EEC00ADFED780A80EE201AB1EEF2
:103FB000410AF0EE40AA7548B0F900007449086063
:103FC0007248B0F90200734908607048B0F9000007
:103FD0000A280ADC6D48B0F9000010F10A0F04DB72
:103FE0009FED610AF0EE409A0CE06848B0F90000DD
:103FF00000EE100AB8EEC00ADFED670A80EE201A64
:10400000F0EE419ABFEE000AF4EEC09AF1EE10FA1B
:1040100002DDB0EE690A03E0BFEE000AF0EE409A5E
:10402000F7EE000AB4EEE00AF1EE10FA02D2B0EEBA
:10403000690A01E0B7EE000AF0EE409A38EEA90AEC
:10404000F0EE408A5148B0F902000A280ADC4F48D5
:10405000B0F9020010F10A0F04DB9FED430AB0EE45
:10406000408A0CE04948B0F9020000EE100AB8EEB0
:10407000C00ADFED4A0A80EE201AB0EE418A18EE3F
:10408000100A04F04FF841EC1D0B9FED450B53EC6B
:10409000102B03F04FFE02D2B0EE480A03E09FED72
:1040A000420AB0EE408A10EE104A204604F03AF878
:1040B00041EC1C0B9FED3D0B53EC102B03F000FD6E
:1040C00006D218EE100A04F02DF841EC100B01E0B6
:1040D0009FED360BB0EE40BAF0EE60BA51EC1B0B20
:1040E00003F06AFA08EE100A39EE080AB0EE409AB8
:1040F000F0EE4E0AB0EE680A1D48FFF7B5F81C480E
:10410000D0ED0D0AF8EEE00AB0EE600AF0EE4A0AD1
:104110001848FFF7A9F8F0EE6E0AB0EE490A164803
:10412000FFF7A2F81448D0ED0D0AF8EEE00AB0EE61
:10413000600AF0EE6A0A1248FFF796F80020009035
:1041400001900C48808E03B20D48808E02B240F27E
:10415000FF111848FDF7EEF9052103A802F09CF9BC
:1041600000E70000A02E0120000000000000FA443B
:10417000A82F0120E42F01202030012000409C4581
:104180005C3001203C310120333383412431012054
:104190001C0100202001002000002544008009456A
:1041A000333333333333D3BF9A9999BE33333333F5
:1041B0003333D33F006400402DED0C8B84B002F00C
:1041C000A5FF03909FEDDF0AB0EE408A9FEDDE0A67
:1041D000F0EE408A0025002400BF9FEDDC0AB0EE1F
:1041E000409A9FEDDB0AF0EE409A9FEDDA2ADFED70
:1041F000DA1A9FEDDA1AF6EE000AB3EE090AD84889
:10420000FFF7E8F89FEDD32ADFEDD31A9FEDD31A1D
:10421000F6EE000AB3EE090AD248FFF7DBF89FED8D
:10422000D22ADFEDD21A9FEDCD1ADFEDD10AB2EE20
:10423000080AD048FFF7CEF89FEDCB2ADFEDCB1A66
:104240009FEDC61ADFEDC50AB1EE040ACA48FFF7B2
:10425000C1F875E101250324002D77D1C748B0F9D5
:10426000080000EE100AB8EEC00A20EE080A20EEA0
:10427000280AF0EE400A9FEDB90AB948FFF77BF82B
:10428000BF48B0F9080000EE100AB8EEC00A20EEF0
:10429000080A20EE280AF0EE400A9FEDB00AB14865
:1042A000FFF769F8AE49486B03F0F3FB41EC1D0BD7
:1042B0009FEDB40B53EC102B03F064FA41EC1C0B94
:1042C0009FEDB20B53EC102B03F036FC41EC1B0BB3
:1042D0009FEDB00B53EC102B03F054FA41EC1A0B8A
:1042E00003F0A8FB9E4948639E49486B03F0D1FB4D
:1042F00041EC1D0B9FEDA30B53EC102B03F042FA86
:1043000041EC1C0B9FEDA10B53EC102B03F014FCA4
:1043100041EC1B0B9FED9F0B53EC102B03F032FA7B
:1043200041EC1A0B03F086FB8E4948630020009095
:1043300001900846808E03B28948808E02B24FF405
:1043400000719648FDF7F6F833E0FFE74FF40051AF
:104350009348FDF792FD8948B0F9080000EE100A75
:10436000B8EEC00A20EE080AF0EE400AB0EE490AA4
:104370007B48FEF779FF8248B0F9080000EE100A8A
:10438000B8EEC00A20EE080AF0EE400AB1EE490A83
:104390007448FEF769FF0020009001907148808EFC
:1043A00003B26F48808E02B24FF400717B48FDF774
:1043B000C1F87C48007A032801D17B49086079481C
:1043C000007A02280BD178480068032807D1774883
:1043D0000068401C7549086002207349086084B970
:1043E0007348B0F9080000EE100AB8EEC00A20EEDB
:1043F000080AF0EE400A9FED590A5F48FEF7BBFF3E
:104400009AE0012C30D16A4890ED041AF0EE410A8E
:1044100090ED041ADFED671A31EE611AB0EE410A31
:104420005448FEF7A8FF6248B0F9080001EE100AF0
:10443000B8EEC11AF0EE410A4E4890ED0D1AB8EEF2
:10444000C11AB0EE410A4C48FEF795FF00214A48D8
:10445000808E00B20B460A46CDE9000140F2FF1102
:104460004E48FDF767F867E0022C1DD15048B0F9BF
:10447000080000EE100AB8EEC00A20EE080AF0EEBE
:10448000400AB0EE690A3C48FEF775FF00213A4841
:10449000808E00B20B460A46CDE9000140F2FF11C2
:1044A0003E48FDF747F847E0032C37D1404890EDF0
:1044B000041AF0EE410A3D4800684042C0EB00108B
:1044C000800001EE100AB8EEC11AB0EE410A294888
:1044D000FEF751FF3648B0F90800400001EE100A1F
:1044E000B8EEC11A21EE081AF0EE410A214890ED0B
:1044F0000D1AB8EEC11AB0EE410A1F48FEF73BFF95
:1045000000211D48808E00B20B460A46CDE900010D
:1045100040F2FF112148FDF70DF80DE0042C0BD1FE
:1045200000204FF4FA7103460246CDE9001040F234
:10453000FF111A48FCF7FEFF0A2103A801F0ACFFA7
:1045400088E600007A5B563D46B6733D0000A843FE
:10455000000010420080BB4500409C460000000067
:10456000B8340120F43401200000FA4400007A45F8
:104570000AD7233C6C350120303501205834012006
:1045800078340120105839B4C876AE3F00000000DE
:1045900000004E401F85EB51B81E094000680040E6
:1045A0000018024024310120440100204001002075
:1045B00098340120000070421CB51CE00E48407A7F
:1045C000022815D100200090034602464FF40071E6
:1045D00001900A48FCF7AEFF002000900346024617
:1045E00040F2FF1101900548FCF7A4FF02F038F9F2
:1045F000642001F023FFE1E7243101200064004042
:104600001CB50446FDF780FEFCF7F4F8FCF73CF817
:10461000FCF740FBFCF7BAF8FCF7B8FAFCF71EFA17
:10462000FCF782FBFEF746FBFEF7CCFA2548FDF7C8
:1046300010F906E02448006941F65831884200D15B
:1046400000E0F7E700BF0020052103464FF47A722F
:10465000CDE900101DA1204802F018FD002007211F
:1046600003464FF4FA72CDE900101CA11F4802F076
:104670000DFD0020032103464FF4C872CDE9001060
:104680001BA11E4802F002FD0020032103464FF447
:10469000C872CDE900101AA11D4802F0F7FC0020F5
:1046A000032103464FF4C872CDE9001019A11C483C
:1046B00002F0ECFC002001F059FF0A2001F0BEFEE0
:1046C0001CBD0000243101203C3101205461736B7A
:1046D0005F436C6F756400009D3E00085461736B0E
:1046E0005F536166655F4D6F64650000B945000802
:1046F0005461736B5F426C696E6B00002D3900086A
:104700005461736B5F4368617373697300000000E9
:10471000513900085461736B5F466972650000008F
:10472000B941000810B513488088C4B21148008808
:10473000C4B200211048FDF739F90F48001D006888
:10474000012803D10D490E48FDF78AF80D490A48A2
:10475000FDF712F900BF0848FDF733F90028FAD138
:1047600013210548FDF7A4F901210348FDF71EF9BF
:1047700010BD0000001001404064024010310120D3
:10478000243101200000301010B540F22551254899
:1047900000F0B7F840B1234800F06CF9C4B24FF410
:1047A00000612148FDF76BFB2048B0F8C80000F419
:1047B0000040F8B91D48B0F8C80000F4804078B156
:1047C0000A2C04D000201949A1F8C80028E0174895
:1047D000B0F8C80040F400401449A1F8C8001FE038
:1047E0000D2C08D11148B0F8C80040F480400F49A2
:1047F000A1F8C80014E00D48B0F8C800C0F30D00DF
:104800000A490C540846B0F8C800401CA1F8C8007A
:104810000846B0F8C800C72802DD0020A1F8C8008B
:1048200010BD000000440040001002405031012043
:1048300010B540F22551254800F063F840B12348F7
:1048400000F018F9C4B24FF400612148FDF717FBDE
:104850002048B0F8C80000F40040F8B91D48B0F88E
:10486000C80000F4804078B10A2C04D00020194917
:10487000A1F8C80028E01748B0F8C80040F400408C
:104880001449A1F8C8001FE00D2C08D11148B0F858
:10489000C80040F480400F49A1F8C80014E00D485A
:1048A000B0F8C800C0F30D000A490C540846B0F82F
:1048B000C800401CA1F8C8000846B0F8C800C728C6
:1048C00002DD0020A1F8C80010BD00000048004033
:1048D000001002405031012021B1828942F400527F
:1048E000828104E082894DF6FF731A40828170470D
:1048F0001AB1838A0B43838202E0838A8B438382CB
:10490000704770B50246002400230025002040F6C1
:104910006A16B14200D100BFC1F3421501F01F0376
:10492000012606FA03F3012D02D19689334006E0F1
:10493000022D02D1168A334001E0968A33400C12D0
:10494000012606FA04F41688344013B10CB1012094
:1049500000E0002070BDF0B50346002400260025CD
:10496000002040F66A17B94200D100BF1846C1F3D3
:10497000421401F01F06012707FA06F5012C01D1A8
:104980000C3004E0022C01D1103000E014301AB1D8
:1049900007682F43076002E00768AF430760F0BD78
:1049A0002DE9FF4705460E460024A14600BFA0465C
:1049B000B08900B100BF2C8A24F44054F08804432D
:1049C0002C82AC8941F20C608443B0883189084361
:1049D000718908430443AC81AC8A24F44074B089E3
:1049E0000443AC826846FEF755FD2048854202D05C
:1049F0001F48854202D1DDF80C9001E0DDF80890F7
:104A0000A88900F4004040B109EBC90000EB09108F
:104A100031684900B0FBF1F707E009EBC90000EB92
:104A2000091031688900B0FBF1F76420B7FBF0F0A2
:104A300004012009642101FB1078A88900F40040DA
:104A400040B1322000EBC800B0FBF1F000F00700ED
:104A5000044308E0322000EB08106421B0FBF1F0C1
:104A600000F00F0004432C81BDE8FF8700100140D7
:104A70000014014001468888C0F308007047000018
:104A800010B502A0FBF780FC10BD000055736167F4
:104A9000654661756C745F48616E646C6572000098
:104AA00070B505460C4600260DB1022C01D8002039
:104AB00070BDA11E094802882846FDF7E5F90646A3
:104AC000F1B2A01E285C814206D1601E285CB0EBCA
:104AD000162F01D10120EBE70020E9E700010020BB
:104AE00003B401984100009850EAC12018BF042087
:104AF0004A0D18BF40F0010040F2FF72B2EB515F67
:104B000008BF40F00200012808BF052002B070472E
:104B100070B5C1482DED020B2DED0E8B82B0119DAD
:104B200025F000449FEDBEDB9FEDBFEB84423EDBF2
:104B3000A4F140511098A1F17F6108430FD0BC4807
:104B4000844202DC28D1109830B39DED100B02B0E6
:104B5000BDEC0E8B02B0BDE8704000F069BC9DED6D
:104B6000100B53EC1D2B51EC100B02F0E5FF9DEDEB
:104B7000100B41EC180B53EC1E2B51EC100B02F0F8
:104B8000DBFF53EC182B02F049FD41EC100B02B097
:104B9000BDEC0E8B02B070BD0120FBF7B1FC02B082
:104BA000BDEC0E8B02B0BDE8704000F055BCA148D2
:104BB0009FEDA18B844256DA9DED100BB4F1795F25
:104BC0000ADA51EC100BFFF78BFF042808BF00F046
:104BD00053FC9DED100BDAE753EC102B51EC100B4E
:104BE00002F0AAFF41EC190B95480621B0EE490AE4
:104BF000F0EE690A784400F09FFB53EC192B51EC5E
:104C0000100B02F099FF41EC1A0B8E48B0EE490AE6
:104C1000F0EE690A0421784400F08EFB53EC192B66
:104C200051EC100B02F088FF53EC182B02F0F6FC4D
:104C300041EC100B51EC1A0B53EC102B02F0A2FDBF
:104C4000CDE900019DED000B53EC102B9DED100BF9
:104C500051EC100B02F070FF9DED101B53EC112B6B
:104C600002F0DCFCD2E09DED100B51EC100B00F0DB
:104C700061FC53EC182B03F093F89FED730BCDE917
:104C8000000153EC102B9DED000B51EC100B02F0CA
:104C900053FF41EC190B6E480621B0EE490AF0EEC5
:104CA000690A784400F048FB53EC192B51EC100BC7
:104CB00002F042FF41EC1B0B6648B0EE490AF0EEF1
:104CC000690A0421784400F037FB53EC192B51ECAE
:104CD000100B02F031FF53EC182B02F09FFC41EC5B
:104CE0001C0B51EC190B01F00DFA41EC180B5A4852
:104CF0009FED5BABA04222DC53EC1C2B51EC1B0B59
:104D000002F040FDCDE900019DED000B51EC180BC8
:104D100053EC102B02F010FF53EC182B02F07EFC2A
:104D200053EC1A2B02F008FF53EC1D2B03F010F983
:104D300053EC1E2B03F034F841EC100B5FE08DEDCB
:104D4000008B002000909DED000B51EC180B53ECF4
:104D5000102B02F063FC9DED000B41EC1E0B53EC9D
:104D6000102B51EC100B02F0E7FE53EC192B03F063
:104D700017F853EC1E2B02F005FD41EC190B53EC18
:104D80001C2B51EC1B0B02F0FDFC41EC1B0B53ECFC
:104D90001A2B51EC190B02F0CFFE53EC1D2B02F035
:104DA000FFFF41EC190B53EC1A2B51EC180B02F0DE
:104DB000C3FE53EC1B2B02F0BFFE53EC192B03F088
:104DC000C7F89DED000B41EC180B53EC1A2B51EC7E
:104DD000100B02F0B1FE9FED249B53EC192B02F057
:104DE000DFFF41EC100B51EC180B53EC102B03F0D0
:104DF000AFF853EC192B02F0D3FF41EC100B002D50
:104E00003FF7C5AE51EC100B02F0CAFB41EC100BA2
:104E1000BDE60000000000000000F03F00000000C0
:104E2000075C143326A6913C182D4454FB21F93F0E
:104E30000000F07F0000E03F000000000000F03FB5
:104E40002839000036390000000000000000E03F73
:104E50007A380000883800003333EF3F000000004C
:104E60000000000000000040182D4454FB21E93FE1
:104E700070B59B482DED020B2DED068B079D25F09F
:104E80000044A04218DC9748844202DC0AD106980C
:104E900040B19DED060BBDEC068B02B0BDE8704045
:104EA00000F0C6BA002DCCBF9FED8F0B9FED900B8D
:104EB000BDEC068B02B070BD8F48A04215DD8F4857
:104EC000A042D8BF4FF0FF3458DD9DED060B51ECEA
:104ED000100BFFF705FE042808BF00F0CDFA9DED8A
:104EE000060BBDEC068B02B070BD9DED060B51ECC0
:104EF000100B00F01FFBCDE9060181489FED828B6E
:104F0000A0423CDD8248A0421FDD00249FED82AB21
:104F10009DED060B53EC1A2B51EC100B02F07EFBAF
:104F20009DED060B41EC190B53EC1A2B51EC100BB9
:104F300002F002FE53EC182B03F00AF853EC192B85
:104F400002F020FCCDE9060149E09DED060B0124AD
:104F500053EC182B51EC100B02F060FB9DED060B8F
:104F600041EC190B53EC182B51EC100B02F0F0FF35
:104F700053EC192B02F006FCCDE906012FE068483E
:104F8000A0421FDD02249FED689B9DED060B53ECB4
:104F9000192B51EC100B02F0CFFD53EC182B02F043
:104FA0003DFB9DED060B41EC180B53EC192B51EC1E
:104FB000100B02F0CDFF53EC182B02F0E3FBCDE910
:104FC00006010CE09DED060B032453EC102B9FED26
:104FD000580B51EC100B02F0D5FBCDE906019DED0D
:104FE000060B53EC102B51EC100B02F0A5FD41EC1D
:104FF000180B53EC182B02F09FFD41EC190B4E4897
:105000000621B0EE490AF0EE690A784400F094F9FE
:1050100053EC182B51EC100B02F08EFD41EC180BE9
:105020004648B0EE490AF0EE690A0521784400F0DE
:1050300083F953EC192B51EC100B02F07DFD41EC80
:10504000100B51EC180B53EC102B002C0EDA02F065
:10505000E5FA9DED061B53EC112B02F06DFD9DED65
:10506000061B53EC112B02F09BFE35E002F0D6FA42
:105070009DED061B53EC112B02F05EFD41EC100B75
:105080002F48784400EBC40090ED001B51EC100B4E
:1050900053EC112B02F05CFF9DED061B53EC112B22
:1050A00002F056FF41EC100B2648784400EBC40098
:1050B00090ED001B51EC100B53EC112B02F070FE25
:1050C00041EC100B002DA2BFBDEC068B02B070BDF1
:1050D00051EC100B02F064FA41EC100B01E70000F8
:1050E000000010440000F07F182D4454FB21F93FCC
:1050F000182D4454FB21F9BF0000DC3F0000203E86
:105100000000F33F00000000000000000000F03F3E
:105110000000E63F0000000000000000000000402A
:105120000080034000000000000000000000F83F85
:10513000000000000000F0BFCA350000803500000C
:105140000A350000C234000070B56B4E2DED040B23
:105150002DED028B82B0DDF81CC0DDE905235C4239
:105160002CF000411C4341EAD474049D22F000401D
:10517000B44205D86C422C4340EAD474B4420BD9F3
:105180009DED061B9DED040B02B0BDEC028B04B03F
:10519000BDE8704000F056B9ACF14054A4F17F6412
:1051A0001C430BD0022404EAAC7444EAD2740543D5
:1051B0009FED538B9FED542B07D015E09DED040B15
:1051C00051EC100B00F068F942E0002C11BF012CEB
:1051D0009DED040B02B0BDEC028B04BF04B070BDAA
:1051E000022C38D0032C3BD00B439FED491B9FED85
:1051F0004A0B0AD0B14218D1B04209D121F0804106
:1052000020F08040079105900FE0002A15DA10E0A9
:10521000434B7B44002C08BF93ED000B0DD0012CB9
:1052200010D0022C17D0032C1AD0B0421DD1002A66
:1052300003DAB0EE410AF0EE610A02B0BDEC028B77
:1052400004B070BD93ED000B51EC100B02F0A8F907
:1052500041EC100BF1E7B0EE480AF0EE680AECE71B
:10526000B0EE420AF0EE620AE7E7401A00153C2869
:10527000C8BF8DED000B19DCBCF1000FBEBF10F1F3
:105280003C0F9FED290B8DED000B0FDB9DED060B09
:1052900053EC102B9DED040B51EC100B02F072FA45
:1052A00000F048F900F0F8F8CDE90001002C08BF43
:1052B0009DED000BC1D0012C10D0022C9FED1C0BDA
:1052C00053EC102B9DED000B51EC100B0DD002F0A8
:1052D0003FFE53EC182B02F03BFEB9E7019880F03B
:1052E000004001909DED000BA7E702F031FE53EC6A
:1052F000182B02F055FDABE70000F07F0000000026
:10530000182D4454FB210940182D4454FB2109C099
:10531000182D4454FB21F9BF182D4454FB21F93FAB
:10532000F233000000000000000000000000000058
:10533000075C143326A6A13C70B504462DED028B04
:105340004D1E00EBC500B0EE408AF0EE608A90ED95
:10535000000B35F0060017D053EC182B51EC100B56
:1053600002F0EAFB41EC100B6D1E04EBC50090ED62
:10537000001B51EC100B53EC112B02F04FF941ECD8
:10538000100B35F00600E7D1022D36D0042D1CD0CD
:10539000062D1CBFBDEC028B70BD53EC182B51ECDD
:1053A000100B02F0C9FB94ED0A1B53EC112B02F019
:1053B00035F953EC182B02F0BFFB94ED081B53ECAE
:1053C000112B02F02BF941EC100B53EC182B51EC84
:1053D000100B02F0B1FB94ED061B53EC112B02F005
:1053E0001DF953EC182B02F0A7FB94ED040B53ECC2
:1053F000102B02F013F941EC100B53EC182B51EC6D
:10540000100B02F099FB94ED021B53EC112B02F0F0
:1054100005F953EC182B02F08FFB94ED001B53ECB5
:10542000112B02F0FBF8BDEC028B41EC100B70BDB0
:1054300010B553EC102B51EC100B02F0EFF841ECCF
:10544000100B10BD10B553EC112B51EC100B02F0EA
:10545000E5F841EC100B10BD9FED050B10B553ECBA
:10546000102B51EC100B02F08DF941EC100B10BD1C
:1054700000000000000000009FED050B10B553EC8C
:10548000102B51EC100B02F057FB41EC100B10BD30
:10549000000000000000001010B541EC100BFFF7F9
:1054A000E7FC51EC100B10BD70B5044601F01EFE78
:1054B000012811D00C480088844206DB0A48008885
:1054C00094FBF0F5284600F0B9FF0748008894FBEC
:1054D000F0F100FB114084B24FF47A7104FB01F04B
:1054E00000F004F870BD00008E00002070B5034687
:1054F00000224FF0E02675690D4E367803FB06F466
:105500004FF0E026B16910E04FF0E026B069884224
:105510000BD0884202D20E1A324402E02E1A0E44F8
:1055200032440146A24200D300E0EDE700BF70BD67
:105530008C00002082B0CDE9000121F000400190F4
:105540009DED000B02B051EC100B704700BF054AF7
:10555000128802F04002002AF9D0C2B2014B1B1D92
:105560001A80704700440040F0EE400AF6EE001A40
:1055700060EEA11AB0EE611AB0EE600A10EE100AE9
:105580000749A1EB600000EE100A21EE002AF7EEB9
:10559000081A42EE401A61EE801AB0EE610A7047B6
:1055A000DF59375F1CB54FF44070FDF753FEB42050
:1055B000FCF790FAFDF7CCFAFBF744FC0848FDF73E
:1055C0008FFA0020012103464FF4C872CDE9001084
:1055D00004A1084801F05AFD01F0F4F800BFFEE70D
:1055E000E83301205461736B5F5379735F496E69CF
:1055F00074000000014600082DE9F04105460E4602
:105600001C4807681C480068001D00F0B2FD50B936
:105610001948006890F82C10012088401749096843
:10562000814316480160681C38B936B112480168D8
:10563000091D134800F0DBFD1AE07C190E480068D4
:105640004460BC4207D20C480168091D0D4800683F
:1056500000F0B3FD0CE008480168091D0A48006825
:1056600000F0ABFD09480068844201D2074804609D
:10567000BDE8F08124000020100000202800002058
:1056800064020020180000201400002040000020C8
:1056900010B5044600F0B8FD24480068401C2349BA
:1056A00008602348006840B9214804600846006843
:1056B00001280DD100F0DEF90AE01E48006838B973
:1056C0001B480068C06AE16A884201D81848046033
:1056D00019480068401C1849086008460068606462
:1056E00094F82C1001208840144909680843134994
:1056F0000860E16A01EB8101114A02EB8100211D82
:1057000000F075FD00F0AAFD0A48006868B108487D
:105710000068C06AE16A884207D24FF080500949A8
:105720000860BFF34F8FBFF36F8F10BD20000020C4
:10573000100000202C0000203C0000202800002049
:105740008801002004ED00E010B500F05DFD104878
:105750000068D0B90F4800F020FD0F4800F01DFD93
:105760000C480E4908600C480D49086000220C21C5
:105770000A2001F09BF9064908600846006820B13C
:1057800008A10348006800F01DFE00F067FD10BD91
:105790005C000020780200208C02002054000020D1
:1057A00058000020546D72510000000070B523E0D5
:1057B00001F056F81348006808B9012000E0002005
:1057C000054601F0FDFDBDB900F01EFD0D48C068A5
:1057D000C468201D00F0CDFC0B480068401E0A493B
:1057E00008600A480068401E0849086000F036FD5D
:1057F000204600F060F800BF044800680028D7D1B8
:1058000070BD000050020020200000201C0000207D
:1058100070B504460D46206C70B1216CE0680844F8
:10582000E0606168E068884201D32068E060284653
:10583000226CE168FAF7E8FD70BD2DE9F0410446FD
:105840000F4615464FF00008A66B206C40B9206843
:1058500060BB606801F004FD80460020606025E0C8
:105860007DB93946226CA068FAF7CEFD216CA0689C
:105870000844A060D4E90110884217D32068A060D2
:1058800014E03946226CE068FAF7BEFD216CE0684E
:10589000401AE0602168E068884203D2216C6068A9
:1058A000401AE060022D01D106B1761E701CA06383
:1058B0004046BDE8F08110B50446206B00F0ECFCDA
:1058C000204600F0E9FC10BD0146084A1268126843
:1058D0000AB9012200E000220A600A6822B9034ADC
:1058E0001268D268106800E0002070475400002061
:1058F00030B54FF49633174800F007042CB1C01DA3
:1059000020F00700134C041B1B1B0246124C2260A4
:105910000024114D6C60D018083820F007000F4C9F
:10592000206000240D4D2D686C600C4D2D682C609E
:105930001146441A4C60094C24680C60084D4C68B0
:105940002C60084D4C682C604FF00044064D2C60D4
:1059500030BD0000A0020020680000207000002080
:1059600078000020740000207C00002000BFFFF7BA
:105970001DFF064800680128F9D94FF080500449FE
:105980000860BFF34F8FBFF36F8FF0E788010020EF
:1059900004ED00E02DE9F04106460D461746984615
:1059A000069C0DB9246000E02760E66325640121B0
:1059B000204601F089F984F84C80BDE8F0812DE99A
:1059C000F05F82460F4690469B460A9E0C9C4FEA2B
:1059D0008801A522206BFAF75CFDA8F10100216B7C
:1059E00001EB800929F0070909F0070008B9012037
:1059F00000E0002050B900BF502080F31188BFF3B1
:105A00004F8FBFF36F8F00BF00BFFEE7002507E099
:105A1000795D04F134004155785D00B902E06D1CF8
:105A2000102DF5D300BF002143200155072E00D3D0
:105A30000626E662E66400202065201D00F0BAFB21
:105A400004F1180000F0B6FB2461C6F10700A06164
:105A5000646200206065A06584F85C005A46514687
:105A6000484600F039FB20600B9808B10B980460A1
:105A7000BDE8F09F10B5002407E004EB84010F4A55
:105A800002EB810000F089FB641C072CF5D30C4865
:105A900000F083FB0B4800F080FB0B4800F07DFB1F
:105AA0000A4800F07AFB0A4800F077FB04480949ED
:105AB000086004480849086010BD00008801002003
:105AC00014020020280200203C0200205002002086
:105AD00064020020140000201800002010B50146C8
